:100000000C947C030C94B4030C94B4030C94B403CC
:100010000C94B4030C94B4030C94B4030C94B40384
:100020000C94B4030C94B4030C9413290C94CF28AF
:100030000C94102A0C94B4030C94B4030C94B403E1
:100040000C94B4030C94B4030C94B4030C94B40354
:100050000C94B4030C94EC290C94B4030C94B403E6
:100060000C94B4030C94B4030C94B4030C94B40334
:100070000C94B4030C94B4030C94B4030C94B40324
:100080000C94B4030C94B4030C94B4030C94B40314
:100090000C94B4030C94B4030C94B4030C94B40304
:1000A0000C94B4030C94B4030C94B403050109023A
:1000B000A10185020901A100050919012905150001
:1000C00025019505750181029501750381010501E1
:1000D000093009311581257F950275088106093897
:1000E0001581257F950175088106050C0A380215D2
:1000F00081257F950175088106C0C005010980A191
:1001000001850319012AB700150126B7009501756D
:10011000108100C0050C0901A101850419012AA064
:1001200002150126A002950175108100C005010984
:1001300006A1018506050719E029E71500250195A7
:1001400008750181020507190029EF1500250195A1
:10015000F0750181020508190129059505750191C0
:1001600002950175039101C00660FF0961A10109B3
:1001700062150026FF0095207508810209631500AD
:1001800026FF00952075089102C005010906A1010E
:10019000050719E029E71500250195087501810279
:1001A0009501750881010507190029FF150026FF33
:1001B0000095067508810005081901290595057542
:1001C000019102950175039101C00000000000003B
:1001D000000000000000000000000000000000001F
:1001E00000000000000000000000000000007E0F82
:1001F00000D4FFFFFFC700000078000000000000EF
:1002000000002A2B28000000000000000000000071
:10021000000000000029000000002C1E34202122D4
:1002200024342627252E362D3738271E1F2021223D
:10023000232425263333362E37381F0405060708B6
:10024000090A0B0C0D0E0F101112131415161718A6
:10025000191A1B1C1D2F3130232D350405060708E4
:10026000090A0B0C0D0E0F10111213141516171886
:10027000191A1B1C1D2F3130354CFD377A585A0086
:100280000004E6D6B4460200210116000000742FD7
:10029000E5A3E003AF01735D003D8889C65436C312
:1002A000174FE4D20C4F0A81006790BF493EEAAA7B
:1002B0003681F467F60418D5D8B7C6AD5A529CA15A
:1002C0006F49CF897E1A1C0E1D3D91552BAAFE3E0B
:1002D000B349E3C01765D7D94A85FA20EAA8C5C053
:1002E000C7D37CA05F3F8378CA9449612DA3A90539
:1002F00055777954D1C0BD49CA3151D0E91D353E39
:10030000BCB965130218E78237B1DA81BF8614C61B
:1003100018D0B0044BB21BA7D022AFBC820C7A48D5
:10032000340E75BB4E88185D08F1C69405B7DAE443
:100330002C4E022A37685E8AAC202FE438E6A09063
:1003400071EAD6FC8F3C1D41B700197932D27FE6A5
:10035000C1DE43A594A60A559B11441A826D978A63
:10036000AE3911A307F3AE556A6210F307B18ECB15
:1003700055131997D8F0246C818935037A9DA3C54C
:10038000DF031CCE83859466A85FD4C21F2CECBE0D
:100390002A13224F97A585B93B5DAEC082B126FDD9
:1003A00031AB43DDF575ECC40EAF8854717FF201BB
:1003B000E6EF021F3877FEE0080386FF59A52DD22D
:1003C000AA1D7AC0B747274C152AD25CD3347E08C1
:1003D000F4895AEC3E3AAAB7E51BF4EF2FA5CC6599
:1003E000EEB8F535807D3B7B51CFB416135BF1EC55
:1003F0000ABE2D01C1D007CA86249E51EA1807748F
:100400001D308219800E5A13EAD5610000006CD1AC
:10041000669C1A04F12D00018F03B00700001F50E5
:100420002E73B1C467FB020000000004595AA900F2
:10043000AA000100010001000100010001001400F8
:100440001A000800150017001C0018000C0012000C
:1004500013004C0004001600070009000A000B00FE
:100460000D420E000F0028004B001D621B0006000D
:1004700019000500110010000000387252004E00F3
:10048000E000E300E2002A002C412C4100000000C3
:10049000500051004F001E001F00200021002200CC
:1004A000230024002500260027004A002D002E00EE
:1004B0002F003000310033003400350036003700A3
:1004C0004D00C25CC35CC45CC55CC65CC75CC85CF8
:1004D000C95CCA5C00000000390000000000000098
:1004E00000000000000000000000000000003A00D2
:1004F0003B003C003D003E003F0000000000520079
:100500000000005C40004100420043004400450000
:1005100000000000000000000000000000000000DB
:1005200000000000000000000000000000000000CB
:1005300000000000000000000000000000000000BB
:1005400000000000000000000000000000000000AB
:10055000000000000000000000000000000000009B
:10056000000000000000000000000000000000008B
:10057000000000000000000000000000000000007B
:10058000000000000000000000000000000000006B
:10059000000000000000000000000000000001005A
:1005A00001007F030000020002007B030000030043
:1005B0000100800300000400020065032E06050010
:1005C000010081030000060002006703000007002D
:1005D00002007D0300000800010082030000090002
:1005E0000200690309060A0002006B0309060B00FA
:1005F00002006D0309060C0002006F0309060D00DE
:100600000200710309060E000200730309060F00C1
:1006100002007503090610000200770309061100A5
:100620000200790309061200020083030000130090
:1006300002008503000009025B00030100A0FA0923
:100640000400000103010100092111010001224001
:1006500000070581030800010904010002030000EE
:100660000009211101000122220007058203200058
:100670000107050303200001090402000103000033
:100680000009211101000122BC000705840320009C
:10069000011201000200000008317445D60100017A
:1006A0000203011C037600690061006C003A0066D9
:1006B0000036003400630032006200330063000043
:1006C000001C035F0033003900390039002000505E
:1006D0000065007200630065006E00740000001287
:1006E000036400700061006C006B00610031003534
:1006F000000000040309040011241FBECFEFDAE05C
:10070000DEBFCDBF04B603FE18C080917E04909179
:100710007F04A0918004B09181048730904BA74062
:10072000B04B59F410927E0410927F041092800412
:1007300010928104E0E0F8E3099511E0A0E0B1E057
:10074000E6E7F5E602C005900D92A238B107D9F7A9
:1007500024E0A2E8B1E001C01D92AE37B207E1F794
:100760000E94372A0C9495320C940000E8EDF0E0DA
:1007700080818E7F80831092E2001092DA001092C6
:10078000E100A0EEB0E08C9181608C9380818F7746
:10079000808319BCA7EDB0E08C918E7F8C93808113
:1007A0008F7E808310924C0408952091E400309154
:1007B000E50095E6A9012091EC00822F817020FFD1
:1007C00006C08091E80080FF06C080E00895209177
:1007D000E80022FD1AC080917A04882389F08530D0
:1007E00089F08091EB0085FD0FC02091E4003091ED
:1007F000E50042175307F9F29150E1F684E00895BD
:1008000082E0089583E0089581E00895EF92FF92D9
:100810000F931F93CF937C018B010E94D503C82FA8
:10082000811117C08091E80085FD0BC08091E80020
:100830008E778093E8000E94D503882399F3C82F10
:1008400008C0F70181917F018093F10001501109E7
:1008500049F78C2FCF911F910F91FF90EF90089542
:10086000CF93FC0180917A04843001F5C091E900B6
:10087000CF702091EC00922F917020FD90E8C92B51
:1008800082E08093E9008091E80080FF0CC050E096
:1008900040E060E270E0CF010E9406048091E80031
:1008A0008E778093E800CF70C093E900CF910895D0
:1008B0008091720487FF13C08091E80082FF06C018
:1008C0008091E8008B778093E80004C080917A04DF
:1008D0008111F2CF089580917A048823D9F3809111
:1008E000E80080FFF8CF8091E8008E77ECCF982F5A
:1008F0009093E900242F762F50E0891731F0709102
:10090000EC002091ED005091F00021FD07C09F5FA9
:10091000973071F78093E90081E008953091EB0002
:100920003E7F3093EB003091ED003D7F3093ED0042
:100930003091EB0031603093EB007093EC0020932A
:10094000ED005093F0002091EE0027FDE0CF80E015
:100950000895CF92DF92EF92FF920F931F93CF9360
:10096000DF93C8EDD0E088818F7E8883E7EDF0E0EB
:1009700080818160808384E082BF81E080934C0429
:1009800088818E7F888302EE10E0F8011082109239
:10099000DA0081EEC82ED12CF601108288818F7783
:1009A000888388818068888388818F7D888319BC4B
:1009B00010927A04109271041092700410926F04D5
:1009C00090EEE92EF12CF70180818B7F8083888166
:1009D0008160888342E060E080E00E947704F60155
:1009E00080818E7F8083F801808181608083808117
:1009F00088608083F70180818E7F80838881806119
:100A00008883DF91CF911F910F91FF90EF90DF903E
:100A1000CF900895FC018091780490917904861715
:100A20009707A0F06115710529F49091E8009E7771
:100A30009093E80090E06115710551F4911108C0A0
:100A40008091E80082FF34C080E00895BC01F2CFBD
:100A500080917A048823C1F18530C1F18091E8004A
:100A600083FD30C08091E80082FDEACF8091E800EC
:100A700080FFE1CF8091F3002091F200382F6115C3
:100A8000710519F02830310558F091E02830310512
:100A900009F090E02091E8002E772093E800CBCF7A
:100AA00081918093F100615071092F5F3F4FE7CF33
:100AB00080917A04882341F0853041F08091E800EC
:100AC00083FFBECF81E0089582E0089583E008951A
:100AD000089580914E0408959C014FB7F894809139
:100AE000430490914404A0914504B09146044FBF43
:100AF000821B930B08952FB7F89480914304909133
:100B00004404A0914504B09146042FBF089520915C
:100B10004004309141042817390771F09093410443
:100B200080934004E0913E04F0913F04309721F01F
:100B30000084F185E02D0994089520913C043091C2
:100B40003D042817390771F090933D0480933C04CD
:100B5000E0913E04F0913F04309721F00680F78148
:100B6000E02D09940895E0913E04F0913F04309700
:100B700021F00190F081E02D099480E00895452B4B
:100B800039F0682381E06F3F09F080E081700895BB
:100B900081E0FCCFDC016091610380916203962FBC
:100BA000891301C00895292F30E0F901EE0FFF1FCE
:100BB000E75AFC4F408151814A175B07A1F487E057
:100BC0008A9FA0018B9F500D11244A5C5C4F81E0ED
:100BD000FA0184839613E6CF2F5F3F4F23703327AC
:100BE0002093610308952F5F3F4F922F9370D8CFCA
:100BF0001092D3021092D202E6E3F3E085818111D4
:100C000002C014821682379683E0E935F807B1F7FF
:100C10000895E5E6F3E0848195812AE030E0B901AA
:100C20000E94E031609315018681809314018285D2
:100C30008093130184858093120186859785B9017D
:100C40000E94E031609311018089809310018289B4
:100C500080930F01848980930E010895809165032C
:100C600090916603909317018093160108950E9456
:100C70007B059C0190915F0280916002982B21F08E
:100C800030935C0220935B0290916102809162023A
:100C9000982B21F030935A0220935902E0913E04A0
:100CA000F0913F04309749F082E080935D02048028
:100CB000F581E02D8DE592E00994089590915F0211
:100CC000803F59F48091600287FF0DC0109260024E
:100CD00091110BC01092570208C0813F81F480919E
:100CE000600218169CF3992381F080916102909123
:100CF0006202892B09F064C0109256020895823F67
:100D000049F497FFF0CF10925F0280916002811149
:100D1000ECCFE0CF833F19F41916ACF3E4CF209168
:100D20006102893F29F41216F4F610926102DBCFBA
:100D30008A3F19F427FFD7CFF8CF209162028B3F6B
:100D400029F427FFD0CF10926202CDCF8C3F19F447
:100D50001216CCF3C8CF843F31F480915E028E7FAF
:100D600080935E02C0CF853F21F480915E028D7F2B
:100D7000F7CF863F21F480915E028B7FF1CF873FD2
:100D800021F480915E02877FEBCF883F21F4809130
:100D90005E028F7EE5CF8D3F31F4809158028E7FC9
:100DA00080935802A0CF8E3F21F4809158028D7F0E
:100DB000F7CF8F3F09F097CF809158028B7FF0CF0C
:100DC00008958091580280FF0CC060910F0170E07F
:100DD00075956795759567956115710549F1862F2C
:100DE000089581FF06C060910F0170E075956795C9
:100DF000F3CF60910F0182FD0BC0909156029923B1
:100E0000A1F060910E0180910F01961738F0682FC4
:100E100070E06038710500F38FE70895899FC00185
:100E2000112470E00E94F431F4CF61E070E0D7CF7C
:100E300081E008958091580260916D0370916E0376
:100E400080FF16C020911301269FC001279F900D9F
:100E50001124BC0176956795769567956038710584
:100E600008F043C06115710509F441C0862F08954B
:100E700081FF0BC020911301269FC001279F900D79
:100E80001124BC0176956795E9CF82FF09C0809156
:100E900013019B01829FB001839F700D1124DECF4F
:100EA000209157022223D1F29091120180911301D7
:100EB000482F50E0291748F0CB01849FB001859F4F
:100EC000700D949F700D1124C9CF289F900111249B
:100ED000269FA001279F500D369F500D1124692F8A
:100EE00070E0CA010E94E031B9CF8FE7089581E038
:100EF0000895803F31F40E941A0781958093600223
:100F00000895813F19F40E941A07F8CF823F31F407
:100F10000E941A07819580935F020895833F19F418
:100F20000E941A07F8CF893F29F40E94E1068093B6
:100F3000610208958A3F21F40E94E1068195F7CF6E
:100F40008B3F31F40E94E1068195809362020895FF
:100F50008C3F19F40E94E106F8CF843F31F4809170
:100F60005E02816080935E020895853F21F4809146
:100F70005E028260F7CF863F21F480915E0284603A
:100F8000F1CF873F21F480915E028860EBCF883FEC
:100F900021F480915E028061E5CF8D3F31F4809134
:100FA000580281608093580208958E3F21F4809109
:100FB00058028260F7CF8F3FB9F780915802846062
:100FC000F1CF80E00895F894E82FE295EF70F0E01B
:100FD00031A1282F2F7081E090E001C0880F2A9561
:100FE000EAF7982F9095932391A392A1892B82A33E
:100FF000789408959091470492FF06C0282F287195
:101000002830F9F4877F846093FF06C0282F287169
:101010002831F1F4877E84612091480420FF06C0C6
:10102000382F38713830D9F4877F816021FF06C0AE
:10103000282F28712831D1F4877E816194FD877E25
:101040000895282F24712430F9F68B7F8860DCCF37
:10105000282F2471243101F78B7E8861DDCF382F52
:101060003171313019F78E7F8860E0CF282F2171E0
:10107000213121F78E7E8861E1CFCF93DF93EC01A0
:1010800082389105A9F1D8F58133910509F496C00C
:1010900048F58932910509F48AC08A9709F495C008
:1010A000C11521E5D20708F0BCC0C11530E5D30752
:1010B00008F014C1C83ED10508F09CC0C03ED1055F
:1010C00060F5C83AD10508F087C0C53AD10508F0E7
:1010D000FDC0C130D10509F12097F9F0C430D10528
:1010E000E0F440C08533910509F45AC0C997C1F6B0
:1010F00080914704837089F0C0EED0E00EC0833E3B
:10110000910599F170F4803E910501F1823E9105BF
:1011100039F68091470482FD21C0CE01DF91CF9145
:101120000895863E910561F1873E910571F1843EF7
:10113000910509F0B5CF8091480481FFEECF8091F1
:101140004704C7EED0E084FD0DC0E7CF809147048F
:1011500080FD12C19091480490FFDFCFC3EED0E034
:1011600084FFDBCFD0E0C0E0D8CF8091470482FD80
:1011700006C19091480490FDBFCF84FFCECFF2CF3F
:101180008091470483FDDDCFC8CF8091470483FD64
:10119000F9C09091480491FFF0CFC4EED0E0BDCFEC
:1011A0008091470485FFB9CFC9E2D0E0B6CF8091E6
:1011B000470485FFB2CFC5E3D0E0AFCF80914704AD
:1011C00086FFABCFCAE2D0E0A8CF8091470486FF6C
:1011D000A4CFC1E3D0E0A1CFCF3BD10518F6C85AC8
:1011E000D0E0CC0FDD1FCA5DDE4F0990D881C02D45
:1011F000D46493CFC11540E2D40758F4C11581E0FF
:10120000D80708F08ACFC03FD10508F4ABCFD0652E
:1012100084CFC11590E4D90708F4A4CFDF70D06A59
:101220007CCFC11525E5D20700F5C11534E5D307FC
:1012300008F08AC0C11543E5D40708F071C0C11594
:1012400082E5D80708F467C0CE018370992721E0B2
:1012500030E002C0220F331F8A95E2F7C695C6958B
:1012600080E2C89FE001112452C0C11599E5D90759
:10127000A8F4C11528E5D20708F06BC0C11536E502
:10128000D30708F06FCF8C2F0E94FA07C82FD0E049
:10129000DC2FCC27CC27DF71D0623FCFC1154AE5C8
:1012A000D40708F45BC0CE0190568115904208F037
:1012B00059CF8D2F8F710E94FA0790E0982F8827C1
:1012C00088279F719C012C2BE901E6CFC55AD0E0FD
:1012D000CD5DDE4FC881D0E0D0641FCFCE01E4E009
:1012E00096958795EA95E1F783702C2F269526959C
:1012F000237040E2249F90011124382B8C2F83709F
:10130000C1E0D0E002C0CC0FDD1F8A95E2F7C22B0E
:10131000D32BDC6802CFDC2FCC27C16FD06AFDCE87
:10132000CE018370992721E030E002C0220F331FE5
:101330008A95E2F7C695C69590E2C99FE00111240F
:10134000C22BD32BDA68E9CEDC2FCC27C46FD06A4E
:10135000E4CEDC2FCC27C06FD06ADFCE8C2F8F700D
:101360000E94FA0734E0D695C7953A95E1F7CF7019
:101370009C2FEC01D069D1CEC9E3D0E0CECEC2EE35
:10138000D0E0CBCEC6EED0E0C8CE80912902882333
:1013900031F010922902109228021092270208952B
:1013A000CF93C82F8091480482FD0CC08091290200
:1013B0008C1741F00E947B059093280280932702AE
:1013C000C0932902CF910895809590917D04982330
:1013D00090937D04089580959091AD029823909309
:1013E000AD0208959091AD02892B8093AD020895CE
:1013F0001092060210920502109204020895809144
:10140000670390916803892B89F00E947B052091E6
:10141000270230912802AC01421B530B81E020913E
:101420006703309168034217530708F480E0817026
:101430000895809103028111109203020895909102
:101440001A019923D1F09091470497FF16C0E82F15
:10145000E695E695E695EE31E0F4F0E0EC57FE4FC8
:10146000282F277081E090E001C0880F2A95EAF7C5
:1014700080959281892382830895E6E8F1E0919135
:10148000891303C0DF0111971C9291E0EC38F90732
:10149000B1F7089590911A019923C1F090914704F2
:1014A00097FF14C0E82FE695E695E695EE31F8F43F
:1014B000F0E0EC57FE4F877021E030E001C0220FD2
:1014C0008A95EAF78281822B82830895A6E8B1E0AB
:1014D000EFEF90E02D91821751F0EF3F19F42111B9
:1014E00001C0E92F9F5F9630A9F7EF3F09F40895F7
:1014F0000E2E000CFF0BEC57FE4FE6CF20910202A0
:101500009091C101291302C080E0089530E0F901F3
:1015100053E0EE0FFF1F5A95E1F7EE53FE4F518156
:10152000561306C05081581303C05281541304C08F
:101530002F5F3F4F2770E6CF81E008958091020230
:101540009091C101981301C008958F5F8770FACF01
:101550009E3F49F1E82F2BE0929FE00D11249E2F32
:101560009770E695E695E69583E0E89FF0011124F3
:10157000E955FE4F50E040E080E0219130E0092E37
:1015800002C0369527950A94E2F721703327042E7E
:1015900001C0220F0A94EAF7822B4F5F5F4F43305E
:1015A000510559F7089580E008959E3F69F1E82FAD
:1015B0002BE0929FE00D11248E2F877041E001C037
:1015C000440F8A95EAF7E695E695E69583E0E89F6D
:1015D000F0011124E955FE4F30E020E070E0519118
:1015E000DF011197CB01022E02C0969587950A94D0
:1015F000E2F7817081958527842385278C932F5F5F
:101600003F4F2330310559F7089592959F709630DA
:1016100091F058F4925F9F70923058F4803F19F027
:1016200030F4883E30F481E008959A5FF4CF843F2F
:10163000D1F380E00895883EB0F3813FD1F7F3CF36
:101640009C013A9521153F4150F5FC01EE27F170C0
:10165000BC0166277270AC01442754709C0122279C
:10166000387094FF0EC080E1EF2B09F480E0672B07
:1016700009F08062452B09F08064232B89F0806893
:10168000089581E0EF2B09F480E0672B09F0826078
:10169000452B09F08460232B19F08860089580E0C1
:1016A00008958093490470934B0460934A04809199
:1016B0007A048430F9F48093E9008FEF9091E80088
:1016C000815095FD06C095ED9A95F1F700008111C6
:1016D000F5CF8091E80085FF0DC050E040E063E069
:1016E00070E089E494E00E9406048091E8008E771F
:1016F0008093E8000895BC0184E00C94510BBC0178
:1017000083E00C94510B9C0184E08093E9009FEFEF
:101710008091E800915085FD06C085ED8A95F1F72E
:1017200000009111F5CF8091E80085FF0CC050E0DA
:1017300040E066E070E0C9010E9406048091E80084
:101740008E778093E8000895CF93DF93EC0180912A
:101750001A018823B1F18091470487FF32C060E20B
:1017600084E08093E9008FEF9091E800815095FD2F
:1017700006C095ED9A95F1F700008111F5CF8091A3
:10178000E80085FF1BC080911A0170E050E040E046
:10179000811104C050E040E068E070E0CE010E949A
:1017A00006048091E8008E778093E80080E2FE01D5
:1017B000AFE4B4E001900D928A95E1F7DF91CF910B
:1017C000089568E081E0CDCF81E08093E00080E281
:1017D0008093D8001092C9008FE19EE40197F1F741
:1017E00000C0000087E090EBDC0180937E049093C2
:1017F0007F04A0938004B093810488E19CE00FB63D
:10180000F894A895809360000FBE90936000FFCF7E
:10181000019708F40895EFE9FFE03197F1F700C070
:101820000000F6CF0F931F93CF93DF9305E613E0ED
:10183000C7E9D1E0CE010E944B32F80181938F01BC
:101840002196C93BF1E0DF07A9F7C4EAD5E0FE0124
:1018500085919491009711F0FC0109952896F6E086
:10186000CC33DF07A1F7DF91CF911F910F9108953E
:101870000F931F93CF93DF93843000F561111EC047
:1018800024E0829F8001112450E0440F551F040F73
:10189000151F09571E4FC8010E944B32C82FD0E0B8
:1018A000DC2FCC27C80101960E944B329E01282BC9
:1018B000C901DF91CF911F910F91089590E080E0D1
:1018C000F8CF0F931F93CF93DF93843030F56430BC
:1018D00020F54B3010F5C42FD0E0CC0FDD1F26E1F2
:1018E000629FC00DD11D112438E5839FC00DD11D0D
:1018F0001124CE0187960E944B32082F10E0102F42
:101900000027CE0188960E944B329801282BC901EE
:10191000DF91CF911F910F91089590E080E0F8CF73
:10192000462F2091AB023091AC02232B91F47E3FE5
:1019300039F46E3F71F48091A9029091AA02089542
:10194000843038F4743028F46B3018F4672F0C941A
:10195000610C90E080E00895CF92DF92FF920F93A8
:101960001F93CF93DF936C0100917C0480917B04E3
:10197000082BC7E0D0E010E0FC2EC8010C2E02C0FE
:10198000959587950A94E2F780FD0CC02197A0F702
:10199000F12C8F2DDF91CF911F910F91FF90DF9050
:1019A000CF900895B6018C2F0E94900C0E943D08A4
:1019B000019761F3EECFCF93DF93EC010E94AC0C63
:1019C000BE010E94900CDF91CF910C943D08FC0168
:1019D00086819781009721F00E943D080C94050BA9
:1019E000808191810E94DB0CF9CF1F93CF93DF930D
:1019F00000D000D00F92CDB7DEB749835A838981DA
:101A00009A816623B9F02223A9F00E94AC0C182F0A
:101A1000682F89819A810E94D50A69817A81812FF4
:101A20000F900F900F900F900F90DF91CF911F911B
:101A30000C94900C0E94A80A182FEFCFFC01262FBF
:101A400086819781009739F4408151816281738149
:101A500084810C94F50C089583E290E00E944B324F
:101A6000883989F484E290E00E944B328F3E59F429
:101A700085E290E00E944B3291E08B3E09F090E0CD
:101A8000892F8170089580E0FCCFCF9384E090E0AF
:101A90000E944B32C82F82E290E00E944B32982F76
:101AA0008C2FCF9108950F931F93CF93DF9305E66B
:101AB00013E0C7E9D1E0CE010E944B32F8016191F9
:101AC0008F01681719F0CE010E9459322196C93B47
:101AD000F1E0DF0781F7DF91CF911F910F9108951A
:101AE000E5E6F3E0128E138E8FEA90E09183808317
:101AF00085E0848F88E893E1938382838AE090E095
:101B00009583848324E130E03783268368E070E0A6
:101B100071876087938782874EE150E055874487BD
:101B20009787868720E530E0318B208B738B628B23
:101B300068E270E0758B648B578B468B48EC50E005
:101B4000518F408F158E978F868F31A320A30E94CF
:101B5000530D0C94120CCF93DF93CBE3D2E060E0F3
:101B6000CE010E9459322196C11584E0D807B9F7F9
:101B7000DF91CF9108950F931F93CF93DF93890146
:101B8000843028F5611123C0423008F521153C4509
:101B900031F42091A7023091A802232BC1F094E0E8
:101BA000899FE001112450E0440F551FC40FD51F39
:101BB000C957DE4F612FCE010E945932602FCE01EE
:101BC0000196DF91CF911F910F910C945932DF91C3
:101BD000CF911F910F9108950F931F93CF93DF9390
:101BE0008901843048F5643038F54B3028F52115EB
:101BF0003C4531F42091A7023091A802232BE1F05B
:101C0000C42FD0E0CC0FDD1F96E1699FC00DD11D20
:101C1000112498E5899FC00DD11D1124612FCE019B
:101C200087960E945932602FCE018896DF91CF911E
:101C30001F910F910C945932DF91CF911F910F9109
:101C40000895CF93C82F6FEF811168E983E290E088
:101C50000E9459326FEFC1116FEE84E290E00E9452
:101C600059326FEFC1116BEE85E290E0CF910C9489
:101C700059325F926F927F928F929F92AF92BF92F2
:101C8000CF92DF92EF92FF920F931F93CF93DF9348
:101C9000CDB7DEB764970FB6F894DEBF0FBECDBFE9
:101CA000C090A702D090A80281E090E09093A80293
:101CB0008093A7028EE2E82E84E0F82E9EE3A92E00
:101CC00094E0B92E10E0450100E015C0F301259124
:101CD0003491452D602F812F0E94EC0D82E0680E1B
:101CE000711C5394EBE05E12F1CFF6E18F0E911C64
:101CF0000F5F043019F03401512CE8CFF701259122
:101D0000349140E060E0812F0E94BB0DF7013296D4
:101D10002591349141E060E0812F0E94BB0D84E069
:101D2000E80EF11C1F5FE8E5AE0EB11C143009F09F
:101D3000CACF0E94700D1A8219821C821B821E82D9
:101D40001D8218861F8288EC90E09A87898709EBAC
:101D500011E04AE050E0B801CE0101960E947D32C8
:101D6000065F1F4F0930F2E01F0799F77E018BE0F5
:101D7000E80EF11C8AE0F70111928A95E9F74AE032
:101D800050E0B801C7010E947D32065F1F4F0B3340
:101D9000F2E01F07A1F7D092A802C092A7026496B2
:101DA0000FB6F894DEBF0FBECDBFDF91CF911F916C
:101DB0000F91FF90EF90DF90CF90BF90AF909F90EA
:101DC0008F907F906F905F90089580E00E94210E29
:101DD00060E086E290E00E9459320E94390E0E9433
:101DE000AB0D81E00C94210E9B01883070F49AE0D9
:101DF000899FB001112467547E4F4AE050E0C90129
:101E00000E943B3290E080E008958FEF9FEF0895AD
:101E10008F929F92AF92BF92CF92DF92EF92FF92FA
:101E20000F931F93CF93DF93CDB7DEB72A970FB6EB
:101E3000F894DEBF0FBECDBF0CE813E0F12CE12C0F
:101E400089E2C82E88E2D82E93E5A92E98E2B92E11
:101E500021E4822E27E2922EF801D182C082B38241
:101E6000A28295828482F58AE48ABE016F5F7F4FE9
:101E70008E2D0E94F40E892B29F489859A85F8010C
:101E8000938B828BFFEFEF1AFF0A0A5E1F4F88E0E9
:101E9000E816F10409F72A960FB6F894DEBF0FBED4
:101EA000CDBFDF91CF911F910F91FF90EF90DF9009
:101EB000CF90BF90AF909F908F900895CF92DF9278
:101EC000EF92FF920F931F93CF93DF93CDB7DEB7BF
:101ED0002A970FB6F894DEBF0FBECDBFE5E7F2E05C
:101EE00082E3DF011D928A95E9F7E6E3F3E083E2FE
:101EF000DF011D928A95E9F785E7C82E82E0D82E8A
:101F00007F0109E012E0F701D182C0824AE050E08F
:101F1000B801CE0101960E943B3288E0FE01319665
:101F2000D60101900D928A95E1F789859A85D701AE
:101F300013969C938E931297BAE0CB0ED11CE7E0D8
:101F4000EE0EF11C065F1F4F0B33F2E01F07D9F6B0
:101F50002A960FB6F894DEBF0FBECDBFDF91CF91AA
:101F60001F910F91FF90EF90DF90CF9008958F9287
:101F70009F92AF92BF92CF92DF92EF92FF920F9318
:101F80001F93CF93DF93CDB7DEB728970FB6F894A2
:101F9000DEBF0FBECDBF8E010F5F1F4F88E0F8017F
:101FA00011928A95E9F794E5E92E91E0F92E6801FE
:101FB000AA24A394B12CF70181917F018F3F09F4EA
:101FC00046C0F894E82FE295EF70F0E021A18F7001
:101FD000A50102C0440F551F8A95E2F7CA01922F4E
:101FE000982B91A392A18095892382A3789400C015
:101FF000E8E5F1E021E030E0912C812C41914F3F68
:1020000009F479C0A42FA295AF70B0E090968C919E
:1020100090E04F7002C0959587954A95E2F780FD54
:102020006AC0C901882A992A220F331F51E0E3367A
:10203000F50721F7F701319780818F3F11F00E945A
:10204000E30780EA8A95F1F7F60191828082F2E057
:10205000CF0ED11C48E5E41641E0F40609F0ABCF01
:1020600048E050E0B8018DE292E00E941E32FF2469
:10207000F394009709F4F12C892B09F43FC088E010
:10208000F801ADE2B2E001900D928A95E1F781E0AE
:1020900080932C020E947B0590932B0280932A024E
:1020A00080912A0290912B020E946C05059750F1B5
:1020B00080912D0290912E0290934F0280934E02B8
:1020C00080912F02909130029093510280935002A0
:1020D0008091310290913202909353028093520288
:1020E0008091330290913402909355028093540270
:1020F00010922C0207C090E080E094CF80912C02D7
:102100008111CECF8F2D28960FB6F894DEBF0FBE6B
:10211000CDBFDF91CF911F910F91FF90EF90DF9096
:10212000CF90BF90AF909F908F9008958091AD0217
:1021300090917D04892B80938401809129028823CA
:1021400019F18091670390916803892B29F00E940F
:10215000FF0981110E94C509809184019091290293
:10216000892B8093840180911A018823D9F1809171
:10217000470487FF37C08EE1E6E8F1E090E0815048
:1021800098F591110E94C50940E250E067E072E0C5
:1021900084E891E00E941E32892B59F180E2E4E844
:1021A000F1E0A7E0B2E001900D928A95E1F7E091AD
:1021B0003E04F0913F043097E1F080911A018823AA
:1021C00059F08091470487FF07C080918401809374
:1021D000850186E0809384010280F381E02D84E80C
:1021E00091E0099486E0C8CF2191222341F29F5FBC
:1021F000C6CF0895EF92FF920F931F93CF93DF9373
:10220000EC018A85811134C0EB80FC8087E5F81AE7
:1022100026E12E9DC0012F9D900D1124DC01A457B5
:10222000BC4F1496ED91FC911597309731F0549670
:102230006D917C918E569C4F099586E18E9D800113
:102240008F9D100D112404571C4FF80187810E94A7
:10225000EB09F80180850E94E4090E94961018821B
:1022600019861B861E821D8210928B0310928A0390
:10227000DF91CF911F910F91FF90EF900895CF9331
:10228000DF93EC018989811118C081E0898B8F81EE
:102290000E94F20980917D049885892B80937D04AA
:1022A0000E949610EA81FB81309739F06C897D8914
:1022B000CE010696DF91CF910994DF91CF910895D9
:1022C00080911801877F8093180182E00E94E409C1
:1022D0008091180184FF06C08F7E8093180182E0F0
:1022E0000E94F2098091180185FF06C08F7D8093BE
:1022F000180180E20E94F2090C94961090E080E0B0
:102300000E949D0590E080E00E94870510927D0468
:102310000E94961086E0EDE5F2E0DF011D928A95BD
:10232000E9F71092570210925602109258020C943C
:10233000370680937C040C947E1180917C04982F46
:102340009670963019F488600C949911877FFCCFB1
:1023500021E030E001C0220F8A95EAF720958091B4
:102360007C0482230C949911909106028095892314
:1023700080930602282F277091F4282F082E000C36
:10238000330B9217130659F09091480492FD07C041
:102390008595859585950E94A8110C94F809089556
:1023A000CF93C0914804C2FB992790F9981799F0F0
:1023B00080FBC2F9C09348046091470484E090E038
:1023C0000E9459326C2F82E290E00E94593282E0E2
:1023D000CF910C94B411CF91089521E030E001C069
:1023E000220F8A95EAF780917C04822B0C94991134
:1023F0009091480492FD10C098E0899F90011124AB
:10240000622B609306020E94ED110E947B0590935F
:1024100005028093040208950C94ED1180937B04CF
:102420000C947E111092AD0280911A01E6E8F1E061
:10243000882359F08091470487FF07C08EE1DF01B0
:102440001D928A95E9F70C947E1186E0F8CF1F93D0
:10245000CF93DF93CDB7DEB7AA970FB6F894DEBF60
:102460000FBECDBF82E794E02091F100DC012D93F7
:10247000CD01B4E08A379B07B9F7809173048330AC
:1024800009F472C0B8F4813009F449C0823009F40B
:10249000B3C08091E80083FF96C28091720490914E
:1024A00073049A3008F08FC2E92FF0E0E956FD4C32
:1024B0000C9408328A3009F48EC08B3009F471C054
:1024C000893039F780917204813219F7809176044E
:1024D00090917704009711F00297D9F68091E80067
:1024E000877F8093E8008091E80082FF38C0909158
:1024F000F3008091F200029731F48091F100813075
:1025000011F0863021F48091F10080934E04809187
:10251000E8008B778093E8000E945804BACF80913E
:102520007204813A09F0B5CF8091E800877F8093EB
:10253000E8008091760490917704892B61F460E241
:102540008FE494E070E00E940A058091E8008B77A8
:102550008093E8009ECF60E090E080E0F3CF809130
:102560007A048111C0CF95CF80917204813A09F02D
:1025700090CF8091760490917704892B09F089CFD0
:102580008091E800877F8093E8008091E80080FFD9
:10259000FCCF80911A018093F1008091E8008E7742
:1025A000B9CF80917204813209F073CF80917604A3
:1025B00090917704892B09F06CCF8091E800877F98
:1025C0008093E8000E9458048091740480931A015B
:1025D0000E9412125ECF80917204813209F059CFAD
:1025E0008091E800877F8093E8000E9458048091E2
:1025F000750480934D044DCF80917204813A09F0A7
:1026000048CF8091E800877F8093E8008091E800C0
:1026100080FFFCCF80914D04BECF803899F0823886
:1026200009F0D1C1809176048F70873008F0CBC15A
:102630008093E9008091EB0085FB882780F9109258
:10264000E90006C080916F0490917004911182603E
:102650009091E800977F9093E8008093F1001092AA
:10266000F1008091E8008E77AAC1882309F498C10F
:10267000823009F0A8C18091740481119BC18091BE
:1026800076048F702FEF280F263008F09CC18093BE
:10269000E9002091EB0020FF8DC1933031F480914F
:1026A000EB0080628093EB0085C19091EB0090611C
:1026B0009093EB0021E030E001C0220F8A95EAF709
:1026C0002093EA001092EA008091EB008860EACF44
:1026D000811179C1109174041F778091E300807893
:1026E000812B8093E3008091E800877F8093E8004E
:1026F0000E9458048091E80080FFFCCF8091E300A5
:1027000080688093E30082E0111183E080937A0473
:102710005AC18058823008F056C12091740430911B
:1027200075042C3DE3E03E07A1F583E08A838AE24D
:1027300089834FB7F894DE01139620E03EE051E222
:10274000E32FF0E050935700E49120FF03C0E2959F
:10275000EF703F5FEF708E2F90E0EA30C0F0C796C9
:102760008D939D932F5F243159F74FBF8091E800DF
:10277000877F8093E8006AE270E0CE0101960E94B4
:102780000A058091E8008B778093E8001CC1C09611
:10279000E7CF8091760490917704432F55274330FB
:1027A000510509F44AC078F54130510509F485C056
:1027B0008BE590E0E6E3F6E04230510509F003C115
:1027C0002091E800277F2093E80020917804309141
:1027D00079048217930708F49C0140E02115310524
:1027E00009F070C041116EC08091E80082FDC9CF30
:1027F00080917A04882329F2853019F28091E800CB
:1028000083FFF2CFBECF4132510509F447C04232B7
:10281000510509F0D8C08330910508F0D4C0FC01FF
:10282000EE0FFF1FEA58FE4F0190F081E02D8D580A
:102830009E4FDC018C9190E01DC033272130310583
:10284000E9F02115310579F022303105F9F0233016
:10285000310509F0B8C0E3EAF6E0E4918E2F90E08C
:10286000E3EAF6E007C0E3EFF6E0E4918E2F90E0B4
:10287000E3EFF6E0009709F4A6C0A2CFEFEDF6E093
:10288000E4918E2F90E0EFEDF6E0F4CFE1ECF6E08E
:10289000E4918E2F90E0E1ECF6E0ECCF83309105EF
:1028A00008F091C0880F991FFC01E458FE4F019079
:1028B000F081E02D89E090E083CF82E190E0E1E9D2
:1028C000F6E07ECF80917A04882309F45ACF8530D0
:1028D00009F457CF8091E80083FD53CF8091E80041
:1028E00082FD82CF8091E80080FF78CF9091F30045
:1028F0008091F2002115310519F08830910550F0D2
:1029000041E0089709F040E08091E8008E778093DD
:10291000E80064CF44914093F10031962150310991
:102920000196E8CF803809F04EC08091E800877F9B
:102930008093E800809171048093F10092CE811120
:1029400042C0109174041230F0F58091E800877F46
:102950008093E800109371040E945804112311F031
:1029600084E005C08091E30087FDFACF81E0809389
:102970007A0442E061EC81E00E94770442E261EC7B
:1029800084E00E94770442E261EC82E00E947704D6
:1029900042E260EC83E00E94770480917A0413C0E5
:1029A00080917404813079F481E0933009F080E003
:1029B000809370041092E9008091E800877F8093F3
:1029C000E8000E9458048091E80083FF0AC08091CB
:1029D000E800877F8093E8008091EB00806280931D
:1029E000EB00AA960FB6F894DEBF0FBECDBFDF9105
:1029F000CF911F910895882321F00E94E4090C943F
:102A000096100895882339F090917D04982B909327
:102A10007D040C9496100895882321F00E94EB0900
:102A20000C9496100895882321F00E94F2090C94CA
:102A300096100895882309F452C0823871F40E94D8
:102A4000B30581FF4CC089E30E944A0A0E94961098
:102A500089E30E941F0A0C949610833859F40E944F
:102A6000B30580FF3CC083E50E944A0A0E9496108D
:102A700083E5EFCF843859F40E94B30582FF2FC05D
:102A800087E40E944A0A0E94961087E4E2CF9CEFF6
:102A9000980F913AF0F290E2980F983050F48770C6
:102AA00091E001C0990F8A95EAF7892F0E94EB09FE
:102AB000D2CF9BE5980F933020F490E080E00C9407
:102AC0009D0598E5980F973120F490E080E00C94F4
:102AD0008705803F20F00E945E060C94370608951B
:102AE000CF93DF93EC010E941A15CE010E94200BB8
:102AF0009E01205E31092830310510F0CD2B21F4E4
:102B0000DF91CF910C940C15DF91CF910C94FB14B5
:102B1000CF93C82F882309F4ABC08238C1F40E9438
:102B2000B30581FDA5C089E30E944A0A0E94961060
:102B30002FEF81EE94E0215080409040E1F700C0FB
:102B4000000089E30E941F0ACF910C9496108338ED
:102B5000A1F40E94B30580FD8BC083E50E944A0A60
:102B60000E9496102FEF81EE94E02150804090401B
:102B7000E1F700C0000083E5E5CF8438A1F40E94AE
:102B8000B30582FD75C087E40E944A0A0E94961030
:102B90002FEF81EE94E0215080409040E1F700C09B
:102BA000000087E4CFCF8CEF8C0F813A90F58091B5
:102BB0001A01882301F18091470487FF1CC0EC2F84
:102BC000E695E695E695F0E0EC57FE4F828190E0C1
:102BD0004C2F477021E030E002C0220F331F4A958E
:102BE000E2F782239323892B81F08C2F0E941F0A06
:102BF0000E9496100AC0E6E8F1E08CE891E021918D
:102C0000C21799F38E179F07D1F78C2F0E944A0A9B
:102C10009BCF80E28C0F883048F4C77081E001C000
:102C2000880FCA95EAF70E94F2098ECFEBE5EC0F08
:102C3000E33040F4F0E0ED5DFE4F808190E0CF9115
:102C40000C949D05E8E5EC0FE73150F4F0E0EE0F51
:102C5000FF1FEA5DFE4F80819181CF910C94870523
:102C6000C03F30F08C2F0E947907CF910C9437062B
:102C7000CF9108951F93CF93DF93182FC0918503B1
:102C8000D0918603893321F0C0918303D0918403CE
:102C9000812F0E948815209731F4812FDF91CF91E9
:102CA0001F910C941A158FE99FE00197F1F700C06E
:102CB00000002197F0CF0F931F93CF93DF93C42F82
:102CC000D22FFC0182818823A1F0409389030E94C6
:102CD0007B059093880380938703C77081E001C0D0
:102CE000880FCA95EAF7DF91CF911F910F910C944D
:102CF000131510918903141339C0809187039091A3
:102D000088030E946C0520917D0330917E03821719
:102D1000930760F5C0E2CD0F1D17B9F080E2810F77
:102D2000883040F4177081E001C0880F1A95EAF7E7
:102D30000E940C15C83048F481E09D2F977001C0A7
:102D4000880F9A95EAF70E941315802F0E943A1671
:102D5000C83098F4D77081E001C0880FDA95EAF79F
:102D6000DF91CF911F910F910C940C15C77081E0EA
:102D700001C0880FCA95EAF7F3CFDF91CF911F9179
:102D80000F910895AF92BF92CF92DF92EF92FF9290
:102D90000F931F93CF93DF93EC018AE0A82E288135
:102DA000222309F48CC02130C9F599818A819130A0
:102DB00021F422960E943A1605C0923029F42296F8
:102DC0000E9488152196EBCF933021F422960E9421
:102DD0001A15F8CF943011F02196F4CF229630E0F6
:102DE00020E0AE014F5F5F4F8053990B8A30910511
:102DF00050F02150310930F38FE99FE00197F1F74E
:102E000000C00000F6CFA29EB001A39E700D112459
:102E10009C01260F371F8981EA01E3CFE22FF0E002
:102E2000E650FE4FB490822F86958695869590E069
:102E3000FC01E651FE4FE4902770F12C022E02C0F7
:102E4000F594E7940A94E2F731E0E322FF24FC01D1
:102E5000E652FE4FC490D12C022E02C0D594C794E6
:102E60000A94E2F731E0C322DD24FC01E653FE4F71
:102E7000049110E002C0159507952A95E2F70170BC
:102E80001127E114F10419F081EE0E948815C11494
:102E9000D10419F086EE0E9488158B2D0E943A16F7
:102EA000CD2819F086EE0E941A15EF2819F081EE50
:102EB0000E941A15012B09F485CF8CE27BCFDF919C
:102EC000CF911F910F91FF90EF90DF90CF90BF9027
:102ED000AF900895CF93DF93EC010E94200B9E01E9
:102EE000205E31092830310510F0209739F40E9416
:102EF00013158C2FDF91CF910C9488150E94021529
:102F0000F8CF662329F020917D04226020937D0470
:102F10009C013056211540E2340720F0305E211527
:102F2000304108F499270C946A17DF92EF92FF92D0
:102F30000F931F93CF93DF937C018B01D42E80914D
:102F4000180182FF8CC0C091D002D091D102CE1561
:102F5000DF0521F0E114F10409F081C0809118012E
:102F60008B7F8093180181FD73C08091CE02909178
:102F7000CF02A801481B590B81E020911601309126
:102F800017014217530708F480E08170F82E8091F2
:102F90001801F0FA81F980931801FE0183E0F6959B
:102FA000E7958A95E1F7EE71FF27E255FD4F208105
:102FB0003181AE014F70552781E090E002C0880F4B
:102FC000991F4A95E2F7FF2009F444C0822B932B06
:102FD000918380838091AD0281FF08C080911801A8
:102FE00080618093180182E00E94EB098091AD021C
:102FF00085FF08C08091180180628093180180E2EB
:103000000E94EB096F2DCE010E948117DD2031F067
:103010008091800385FF02C086FF3BC080918303BF
:10302000909184030E94080C8091D0029091D1026B
:103030009C013056211540E2340720F0305E211506
:10304000304108F499270E9470150E9460111DC03C
:1030500081E09BCF8095909582239323B9CFC701C0
:10306000992797013056211540E2340728F0305E49
:103070002115304108F0C7010E9470158091D002DF
:103080009091D1028E159F0501F31093CF0200930A
:10309000CE02DF91CF911F910F91FF90EF90DF90C3
:1030A000089569EE7EEF90E080E00E94773260E064
:1030B00082E090E00E94593260E083E090E00E945C
:1030C000593210927B0460E084E090E00E94593213
:1030D00060E082E290E00E94593260E085E090E09A
:1030E0000E94593260E086E090E00E9459326FEF12
:1030F00087E090E00E94593240E050E0BA0188E059
:1031000090E00E946B3260E08DE090E00E945932C6
:1031100040E050E0BA0188E190E00E946B3260E04C
:1031200087E190E00E94593240E050E0BA018CE122
:1031300090E00E946B3270E060E080E290E00E94DC
:10314000773240E050E0BA0188E190E00E946B32B3
:1031500080E00E94210E0E94E50E40E050E0BA019E
:103160008FE090E00E946B3240E050E0BA0183E1D2
:1031700090E00C946B328F929F92AF92BF92CF925D
:10318000DF92EF92FF920F931F93CF93DF9300D0C4
:1031900000D0CDB7DEB77C01DC0113964D915C9178
:1031A000149711966C9111978C910E94BF05811113
:1031B000E1C061E0C7010E941E0D8C01F701828110
:1031C000811177C0D70112968C918111B1C0003165
:1031D000BFE51B0709F456C10131EFE51E0709F4ED
:1031E00055C1680127E5D21A882309F451C13FEF80
:1031F000C316D10409F008F47DC18091800380FFDB
:1032000039C00E947B056C01D70112968C918823EE
:1032100009F4EDC18091180182FF08C02EE332E06D
:1032200040E0B60190E080E00E9495170B31BCE5CC
:103230001B0709F4CEC10C31ECE51E0709F4CFC120
:1032400090911801892F8E7F90FF81600A31FCE5F3
:103250001F0709F4C7C1C8019056811520E29207E3
:1032600028F0905E8115904108F0CFC11092D102F4
:103270001092D002033FBCE51B0709F418C308F005
:10328000B4C2083DFCE51F0709F40BC3093D2CE55A
:10329000120709F424C3073D3CE5130709F0B1C246
:1032A00006E221EE41EE67ED7CE5C7010E945B1668
:1032B00051C080910C0190910D01019609F482CFCB
:1032C0006CE8C62E63E0D62EB12CA12C99249394E1
:1032D00080910C0190910D018A159B050CF472CF21
:1032E000F60186818823E9F0818592850817190700
:1032F00039F480918A0390918B030817190789F09C
:10330000D6011F969C921F971C961C930E931B9799
:10331000C6010E943F11C60106960E94FA10109243
:103320007D04BFEFAB1ABB0AE6E1CE0ED11CD0CFB5
:10333000980122513F452031310508F0C7C68FEF73
:1033400093E00E944B325EEED52ED00E0BE312E0DE
:10335000882369F180910602877061F0D701129687
:103360008C91882339F08091480482FD03C082E06B
:103370000E94B4110F900F900F900F90DF91CF919A
:103380001F910F91FF90EF90DF90CF90BF90AF9083
:103390009F908F9008950115F4E01F07D9F2C8019E
:1033A0000E944B32811101C0DA940F5F1F4FD11080
:1033B000F2CF19821A821B821C82CC24CA94480143
:1033C0002FEF821A920AC8010E944B3289831A8217
:1033D000882309F4BFCF813009F048C0580132E09A
:1033E000A30EB11CC4010E944B32982E8A838823FD
:1033F00009F4B0CFC5010E944B32D82E8FEF890D52
:10340000833068F4580143E0A40EB11CDB82DD2058
:1034100021F0CE0101960E94C2168501D0CF54E062
:103420009512FBCF580184E0A80EB11CC801039689
:103430000E944B32DD2009F48DCF882309F48ACF16
:103440008150990BC89E9001C99E300D1124AD2D5D
:10345000A150BB0BCD01820F931F0197F0F2EFE952
:10346000FFE03197F1F700C00000F7CFCE010196E1
:103470000E94C2165401D1CF81E00E94ED110E943A
:103480009D1168CF81E00E94A811F9CF82E0FBCFA7
:103490004FEFC416D10411F008F0AFCE6BE672E026
:1034A0008C2D0E94F40E892B29F586E18C9DF0016C
:1034B0008D9DF00D1124E457FC4F8681813009F079
:1034C00062C080916B0290916C02892B99F080917F
:1034D0006D0290916E02892B69F080916F0290913C
:1034E00070022091710230917202822B932B892BF2
:1034F00009F453C080910C0190910D018C159D052C
:1035000024F4D0920D01C0920C01F701828196E162
:103510009C9D50019D9DB00C1124950124573C4F5A
:103520006901D90150968C935097928116968C918F
:103530001697992309F43FC01A961C930E93199776
:103540008F5F16968C930E947B05F6019687858780
:1035500080912902878380917D049091AD02892B0F
:1035600080870190F081E02D309741F0D60154968C
:103570006D917C91C5018E569C4F099510938B03DC
:1035800000938A033ACE823009F0B4CF80916F0263
:1035900090917002892B09F4ADCF26E12C9DC001DA
:1035A0002D9D900D112484579C4FDC0150961C9248
:1035B0000E943F119FCF882309F41FCEF901818912
:1035C000882309F41ACEC5018E569C4F0E94FA102A
:1035D00014CE809118018160809318013CCE8091B7
:1035E00018018E7F809318010E94601134CE809163
:1035F00018018F7E013E110531F0053E1105C9F419
:10360000809118018F7D809318018091180180FFAF
:1036100031CED70112968C910832110528F50E3162
:10362000110508F074C00430110580F581111ECE1B
:1036300021CEC8019056811540E2940720F0905E9B
:103640008115904110F78091180182FF13CE80916F
:10365000820381FD0FCE2EE332E040E0B60190E020
:1036600080E00E94951706CE0933110558F40D32FB
:10367000110518F40B321105C9F69091800392FDE3
:10368000D5CF08C004361105C1F3D0CF9091800387
:1036900094FDCCCF882309F4A1C09091AD02809114
:1036A0002902282F292B322F3D7FB1F11092D10210
:1036B0001092D0023091800331FD2EC0F80143E01A
:1036C000F695E7954A95E1F7EE71FF27E255FD4F34
:1036D00098012F70332781E090E002C0880F991F76
:1036E0002A95E2F78095909520813181822393235A
:1036F0009183808360E0C8010E9481178091290234
:103700008D7F0E94D00982E00E94B41123CE909157
:10371000800393FD8BCFBECF38E0F701AEE3B2E07C
:1037200001900D923A95E1F71092400210924202F8
:1037300010924102A090D002B090D1020A151B0550
:10374000B1F53091800335FF32C04091180141FB43
:10375000992490F841FF02C036FF29C04091CE0263
:103760005091CF02B601641B750B40917D035091BF
:103770007E0364177507D8F491FF08C08091180183
:1037800080618093180182E00E94EB098091AD0274
:1037900085FF08C08091180180628093180180E243
:1037A0000E94EB09692DC5010E948117D3CD90912C
:1037B000180121FB91F9909318018D7F0E94D00987
:1037C0001093D1020093D002D092CF02C092CE02C9
:1037D0008091180184608093180195CF970140E093
:1037E000B601C8010E949517B5CD053F4CE51407F9
:1037F00009F469C008F461C0063F8CE5180709F4B4
:1038000068C0D70112963C91332309F46BC410921F
:1038100089030330BDE51B0708F067C00A3FECE5EC
:103820001E0730F4C80182509C45449708F067C0D9
:103830000E94450D909348048093470401313CE574
:10384000130709F46CC108F0E9C009305CE51507FD
:1038500009F453C108F0B6C005309CE5190709F416
:1038600044C108F09CC00330BCE51B0709F433C118
:1038700008F037C180914704816002301C4509F48B
:103880002DC1609147041091480484E090E00E94AB
:103890005932612F82E290E00E9459320E94121246
:1038A00059CD07E225EE45EE68ED7CE5FECC06E25B
:1038B00021EE40EE63EF7CE5F8CC07E225EE44EE26
:1038C00064EF7CE5F2CC06E221EE42EE65EF7CE5AA
:1038D000ECCC07E225EE46EE66EF7CE5E6CC08E2AE
:1038E00021E045EE69ED7CE5E0CC0136FDE51F0702
:1038F00009F49ECF053A2DE5120709F499CF063158
:103900005CE5150709F4F2C30A358DE5180709F4DB
:103910005CC108F038C10115ACE51A0709F445C1CE
:103920000E3D1C4509F44EC1F70186819781009731
:1039300009F44FC10E943D08182F092FF701D280CA
:10394000C580C2943FE0C322809106028770C1F017
:10395000AD2CDD20B1F0892F807F803421F080E212
:10396000810F883068F08091480482FD09C082E0B0
:103970000E94B411809106028770AA24A394811139
:10398000A12C902E92942FE09222FBE0F91508F4DE
:10399000ADC1E92DF0E0EF55FD4C0C94083280915B
:1039A0004704806207302CE5120709F497C0809124
:1039B0004704806108301C4508F490C0809147049A
:1039C00080648CC0809147048B7F0D304CE51407D8
:1039D00009F484C080F40B308CE5180709F493C017
:1039E000809147048C600C301C4508F477C08091AE
:1039F00047048D7F73C0809147048F7E0F30ACE504
:103A00001A0709F46BC080914704877F00311C4579
:103A100008F464C0809147048F7D60C00D3FECE5E1
:103A20001E0709F478C050F505312CE5120709F49A
:103A300080C098F480914704837F03314CE51407DC
:103A400009F44CC008F46FC00E9412129091470410
:103A5000892F97FB87F9805841C00B3F8CE51807E9
:103A600009F447C008F053C08091480481600A3FC0
:103A70001C4509F006CF8093480403CF0130BDE513
:103A80001B0709F462C0B8F4809148048C7F0F3F93
:103A9000FCE51F0781F380914804836001151D45F3
:103AA00050F380914804982F909591708E7F892BC8
:103AB00090FB81F9E0CF01363DE5130709F44BC0D7
:103AC000053A4DE5140709F44DC002301D4509F0D3
:103AD000D8CE60E03BC08091470482608093470469
:103AE000D0CE809147048460F9CF809147048860EC
:103AF000F5CF809148048260BECF0E94121280915F
:103B000047048068EBCF809147048E7FE7CF809198
:103B100048048E7FB0CF809148048D7FACCF8091D8
:103B200047048F7BDBCF0E941212809147048F776E
:103B3000D5CF8091470482FB992790F921E0922705
:103B400090FB82F990FB83F9C9CF61E08EE090E0B1
:103B50000E94593296CE90914704892F8F7E94FF10
:103B60008061BCCF90914704892F8E7F90FF816048
:103B7000B5CF8091A401811104C089E20E941F0A7F
:103B8000E0C285E3FBCF0B35EDE51E0701F10C35F7
:103B90001D4509F0C9CE8091480482FB882780F931
:103BA00091E089270E94D011BFCE0E9412122FEF00
:103BB00034E34CE0215030404040E1F700C00000C9
:103BC0000E94E40B0E945118C5CB81E0EBCF80E04E
:103BD000E9CF828100811181882369F0C8010E94A8
:103BE000AC0CD82E682FC8010E94D50AB8018D2DC3
:103BF0000E94900C9FCEC8010E94A80AD82EF6CF32
:103C0000202F2F70B22E802F807F19F0B29490EF6A
:103C1000B922DD20A9F0BB2059F080E2810F883065
:103C200010F0111107C08B2D0E94F2090E9496100E
:103C3000812F5AC080917D04B82AB0927D04F6CFBE
:103C4000812F0E941A15BB2009F450C080E2810F19
:103C5000883010F0111104C08B2D0E94EB0903C0B5
:103C60008B2D0E94E4090E94961040C0302F3F70B7
:103C7000B32E802F807F803219F0B29480EFB8226B
:103C8000112321F1113009F4A4C0DD2009F4ADC0E5
:103C9000CC2009F47DC020E0D7014C9111965C91B5
:103CA000119712966C91129713967C911397149614
:103CB0008C910E94F50C8091820381FDB9CFF701B0
:103CC000858180FFB5CF8F70858362C08091480465
:103CD00082FF40C0DD20C1F1BB2029F08B2D0E9466
:103CE000F2090E94961080E00E948815A92DA85024
:103CF000BB0B149710F40E94B305812F902F0E94E4
:103D0000050B8111C4C11092A6011092A501AA2031
:103D1000B1F08091060280FD12C0D70112961C926C
:103D20008595859585950E94ED11C7010E94BB1868
:103D3000809106028595859585950E94A81160E081
:103D4000C7010E941E0D16CB80E00E941A15BB20F1
:103D500069F282CFDD2001F1C11004C080912902F7
:103D60008B2917C041E0C41206C0809129028B291B
:103D70000E94D009BBCF80918103823078F3C812B2
:103D8000EDCF0E94C50980910302B812B0920302E0
:103D90008B2D0E941315AACFC11006C00E94C50921
:103DA0008B2D0E940C15A2CF8091810351E0C5128A
:103DB0000BC0823008F49ACF8091AD028B2109F4B8
:103DC00095CF0E94190AEACF823040F3C812E6CF9D
:103DD0008DCFDD2029F085E08C1508F487CFD8CF72
:103DE00094E09C1508F482CFDBCFCC20C9F28091FF
:103DF000850390918603193321F08091830390917C
:103E000084030E94080C812F0E941A156FCF802F07
:103E100086958695837069F0813009F067CF812F90
:103E2000902F9370D11002C090E080E00E9487052F
:103E30005DCF812F902F9370D11002C090E080E071
:103E40000E949D0553CF812FDD2029F00E94790724
:103E50000E9437064BCF0E945E06FACF802F8370F8
:103E600091F5D11043CF412F429546954770440FAD
:103E7000440F812F8F70042E01C0880F0A94EAF737
:103E8000212F207114FF07C02FE030E001C0220F66
:103E90004A95EAF72095302F3695369533703230B3
:103EA00069F050F440917B04313029F0822B842357
:103EB0000E940E121BCF842B822BFACF282B8091CD
:103EC0007B048227F5CF8695DD2011F0802F81704D
:103ED000882309F40BCF412F429546954770440F34
:103EE000440F812F8F70042E01C0880F0A94EAF7C7
:103EF000212F207114FF07C02FE030E001C0220FF6
:103F00004A95EAF72095302F369536953370323042
:103F100069F050F440917C04313029F0822B8423E5
:103F20000E949911E3CE842B822BFACF282B80910B
:103F30007C048227F5CFF02FFF70BF2EDD2029F003
:103F40008F2F0E94ED11812F24CF812F0E940C15FD
:103F50008B2D0E94A811CACE123F89F160F4103F48
:103F6000B9F0113F81F0DD2009F48CC0C11060CEA2
:103F7000802F8F7128C0133F49F1143FA1F7809122
:103F8000480482FF2FC0802F8F71DD2011F31BC0EA
:103F9000DD2081F024E02C1508F4A8CE202F2F710D
:103FA00081E090E001C0880F2A95EAF790917C04A7
:103FB0008927B6CF35E03C1508F498CEEFCF802F97
:103FC0008F71D110C6CF0E94ED1190CE80E0DD2020
:103FD00009F4A6CF81E0902F9F7101C0880F9A95B8
:103FE000EAF79ECF809181038230A0F18091030295
:103FF000DD20F1F00E94EB09809106028770843089
:1040000041F40E94F809802F8F710E94A811A12C01
:104010006DCE80918103C816D0F7402F4F71B42E1A
:10402000842F0E94ED1163E08B2D0E94F811EFCFD9
:104030000E94F20980918103C81640F00E94F8099D
:104040000E94190A64E0802F8F71EFCF81E00E94F7
:10405000B411DDCFDD2059F0502F5F71B52E852FC3
:104060000E94ED1163E08B2D0E94F8113FCE81E09C
:104070000E94B41181E08C1508F038CE82E00E94D5
:10408000B41134CEC110B3CE802F8F7162CFDD203A
:1040900019F0C11038CE3BCEC11035CE20E0F7016B
:1040A000408151816281738184810E94F50C8091ED
:1040B000820383FF28CE8091A5019091A6010297EB
:1040C00009F021CE812F0E943A161DCE0031FFE566
:1040D0001F0709F4D1C901312FE5120709F081C882
:1040E00082E0CBC906311C4509F01ECC8091AD029F
:1040F000982F9A7A20917F0320FF04C0482F4474A0
:1041000009F090E021FF04C0482F417109F090E0D0
:1041100022FF04C0482F487809F090E023FF03C035
:10412000827209F090E0332309F423CD81E09111EC
:1041300001C080E08093A40189E2911185E30E948F
:104140004A0A0E94961006C9CF92DF92EF92FF9220
:104150000F931F93CF93DF938091BE01807F31F443
:104160008091BB01C091020281110BC0DF91CF9100
:104170001F910F91FF90EF90DF90CF9008952196BF
:10418000C7708091C1018C1789F3F090B901E0905C
:10419000BA01C090BC01D090BD01A6016E2D8F2D3B
:1041A0000E94BF05D0E08111EACF8E0183E0000FAD
:1041B000111F8A95E1F7F801EE53FE4F81818E11B0
:1041C000DECF80818F11DBCF82818111D8CFE38058
:1041D000F480EC18FD0860E089EB91E00E941E0D70
:1041E00080917D0390917E03E816F90640F6809158
:1041F000BE018F7080618093BE01F801E953FE4FCC
:1042000080818F708061808389EB91E00E94BB1870
:10421000DF91CF911F910F91FF90EF90DF90CF90A2
:104220000C949E0A3F924F925F926F927F928F9270
:104230009F92AF92BF92CF92DF92EF92FF920F9335
:104240001F93CF93DF93CDB7DEB765970FB6F89482
:10425000DEBF0FBECDBF8C0185E0F801DE015196B7
:1042600001900D928A95E1F7D8014C9011965C90DF
:1042700011971296EC9012971396CD90DC9060E017
:1042800089EB91E00E941E0D89EBA82E81E0B82EEB
:104290008090BC019090BD01A4016091BA01809111
:1042A000B9010E94BF058111CAC1F090BB01F6019E
:1042B000E819F9094F0160E0FF2009F46DC1C5015B
:1042C0000E941E0D60907D0370907E033090BE01B1
:1042D0008614970408F013C14091BC015091BD01B0
:1042E000B090B901A090BA01832D807F6A2D09F0AA
:1042F000ADC08B2D0E94BF05FE2C81113BC0D801A3
:1043000011968C9111978A1135C08C918B1132C006
:104310002091BF013091C00116968D919C91281774
:10432000390741F5E11026C0832D8F70806180939D
:10433000BE0189EB91E00E94BB188091BE01F8019B
:1043400085838F2D65960FB6F894DEBF0FBECDBF67
:10435000DF91CF911F910F91FF90EF90DF90CF9061
:10436000BF90AF909F908F907F906F905F904F9095
:104370003F900895F4EF6F16F1E07F0620F48091EE
:10438000820380FF21C0A601652D842D0E94BF05F8
:10439000811118C081E08E2580FF16C04E2D652D3D
:1043A000842D0E947E0A882379F089EB91E00E9497
:1043B000BB1888E0E9EBF1E0DF011D928A95E9F78F
:1043C000F12CBFCF80E0E8CFA601652D842D0E949F
:1043D000BF05811124C081E08E25B82FB170CB2E8E
:1043E00080FF2BC04E2D652D842D0E947E0AD82E75
:1043F000811123C0498A5A8A89899A890E94DB0CD3
:10440000292F22952F70223060F0243088F49F707D
:1044100061F0F8019581907F41F4FD2C92CF80E00E
:10442000DCCF9F7011F08823C1F3805E8830A8F341
:10443000C8010E94BB18DC2CF0CFEE2009F481CF1C
:104440008091BE0181608093BE01BACF8B2D0E9406
:10445000BF05811124C0D80111968C9111978A1142
:104460001EC08C918B111BC02091BF013091C001E7
:1044700016968D919C9117972817390781F4E110B2
:104480000EC015963C92C8010E94BB1888E0F80146
:10449000A9EBB1E001900D928A95E1F752CFC801E6
:1044A0000E94E70C882339F1EE2029F18091BE01AA
:1044B0008032A0F02091B9013091BA013A87298762
:1044C0001B86DD86CC868E878091BF019091C001CE
:1044D000988B8F87CE0109960E94BB1888E0F8015F
:1044E000A9EBB1E001900D928A95E1F70E94A4201A
:1044F000FF24F39426CFC8010E94BB18F9CF832D67
:10450000807F09F452CF9090B9018090BA01409118
:10451000BC015091BD01682D892D0E94BF058111FC
:104520001CC0F8018181881118C08081891115C0D3
:104530002091BF013091C0018681978128173907EA
:1045400061F4E1100AC03582C8010E94BB1888E0FE
:10455000D5011D928A95E9F7F4CEC8010E94E70CB7
:10456000882349F2EE2039F28091BE01803208F4AE
:10457000B5CF2091B9013091BA013A8329831B82CA
:10458000DD82CC828E838091BF019091C00198879B
:104590008F83CE010196A0CF89EB91E00E941E0D82
:1045A00080917D0390917E038816990680F6FE2CFB
:1045B000EE2009F4A0CFE090B901D090BA0140916B
:1045C000BC015091BD016D2D8E2D0E94BF05811142
:1045D00028C0F80181818D1124C080818E1121C0F5
:1045E0002091BF013091C00186819781281739073A
:1045F000C1F48091820382FD49CF9091BE0190FD6C
:1046000045CF907F09F442CF8091BE018583903FD2
:1046100009F439CF982F907F905F8F70892B858315
:1046200032CFC8010E94E70C811158CF8091BE01A2
:1046300081608093BE01C8010E94BB1882CEEE202B
:1046400009F459CFC8010E94E70CF82E882309F419
:1046500052CF88E0F801A9EBB1E001900D928A9564
:10466000E1F78091B9019091BA010E94DB0C0E94A0
:10467000A42067CECF93DF93CDB7DEB760970FB698
:10468000F894DEBF0FBECDBF29873A874B875C8782
:104690006D877E878F87988BCE0109960E941221A5
:1046A00081112FC088E0FE013996DE01119601903C
:1046B0000D928A95E1F74C855D856A8589850E9412
:1046C000BF0581111EC0A091C101B0E0CD010196CE
:1046D00087709927209102022817190609F193E0A3
:1046E000AA0FBB1F9A95E1F7AE53BE4F98E0FE01AB
:1046F000319601900D929A95E1F78093C1010E9445
:104700009E0A809102029091C101891317C06096A0
:104710000FB6F894DEBF0FBECDBFDF91CF910895E5
:104720000E9412121092C1011092020288E0E9EB7D
:10473000F1E0DF011D928A95E9F7E3CFB8E08B9FA6
:10474000C00111248E539E4F0E9412218823F9F23A
:104750008091020290E0019687709927809302026F
:10476000D0CFEF92FF920F931F93CF93DF9380915F
:10477000D502882361F0C091D4028CE0F82E80919C
:10478000D502C81758F01092D5021092D402DF91CA
:10479000CF911F910F91FF90EF900895EE24E39435
:1047A000EC0EE092D4020C2F10E0CF9DE00111241A
:1047B000CA52DD4F4B815C81698188810E94BF05AF
:1047C00081111DC08E819F81892B21F48885998557
:1047D000019651F4288139814A815B816C817D8108
:1047E0008E819F810E943A23F09EF001F19EF00D90
:1047F0001124EA52FD4F1482138210927D04CE2DB3
:10480000BECF10926403109263031092190180913D
:104810006203809361030E94F8050C94B1233F92D8
:104820004F925F926F927F928F929F92AF92BF92C0
:10483000CF92DF92EF92FF920F931F93CF93DF936C
:10484000C091610397E0892E01E010E02CE0322E48
:104850003EEF932E44244394809162038C1315C041
:104860000E94B123DF91CF911F910F91FF90EF90A4
:10487000DF90CF90BF90AF909F908F907F906F9080
:104880005F904F903F900C94F805D0E0FE01EE0F42
:10489000FF1FE75AFC4F80819181889ED001899E3D
:1048A000B00D1124AA5CBC4F14962C9114972111C1
:1048B00057C05090D502E6EDF2E030E020E0712CD8
:1048C0005D01251508F04AC0E284F384D501CD903E
:1048D000DC906FEF7FEF612C462D50E0DA01AA0FDC
:1048E000BB1FAC0DBD1D0D90BC91A02D109731F0DC
:1048F000EA16FB0609F4BA016394EECF6F3F760720
:10490000A1F1D80102C0AA0FBB1F6A95E2F77A2A6B
:10491000B80102C0660F771F6A94E2F7AB014150FD
:10492000510974161506F9F4329EF001339EF00D0C
:104930001124EA52FD4F889ED001899EB00D1124AA
:10494000AA5CBC4F12962D913C9113973783268316
:10495000908291829187808715964C920E94CA0519
:104960002196C37079CF148213822F5F3F4F3C96FC
:10497000A8CF2F923F924F925F926F927F928F9229
:104980009F92AF92BF92CF92DF92EF92FF920F93DE
:104990001F93CF93DF93CDB7DEB769970FB6F89427
:1049A000DEBF0FBECDBF942F498B252F5A8B6B8B4B
:1049B0007C8B8D8B4C895D89622F892F0E94BF056E
:1049C000811109C08091A5019091A6010196909353
:1049D000A6018093A5018B89811110927D041D860B
:1049E0001E861F86188A85E0FE017196DE011996E3
:1049F00001900D928A95E1F78091480482FD1EC0D6
:104A00008091670390916803892BC1F00E947B0518
:104A10002091040230910502821B930B20916703C1
:104A2000309168038217930720F08091060282FF7D
:104A3000F5C10E94FF0981110E94C5094C855D8561
:104A40006A8589850E94BF05811111C061E0CE0190
:104A500009960E941E0D6C018B8527EFC2162CE56E
:104A6000D20681F4882321F181E080931901298500
:104A70003A854B855C856D857E858F8598890E94FA
:104A80003A23C5C038EFC3163CE5D30629F4882382
:104A900079F00E940124EBCF49EFC4164CE5D4060F
:104AA00039F4882329F0809119018111F2CFDCCFEC
:104AB00006E313E0512CB12CA12C22242394312C99
:104AC0002EEF422EF8014081518188248A94982C3F
:104AD00020E0822F90E0FC01EE0FFF1FE40FF51F96
:104AE000608171816115710531F0C616D70609F430
:104AF0004C012F5FEECFF12CFFEF8F169F0609F4CC
:104B000048C0F8014481F09019018F2D411180E0D7
:104B1000F82FF170FF2EF801E58086819B8599239F
:104B200009F40CC1FF2009F409C160907B03709067
:104B30007C03E11012C0A10101C0440F8A94EAF77E
:104B4000842B86838091D2029091D302861597059B
:104B500020F47092D3026092D202C10102C0880F89
:104B6000991F2A95E2F70197F8012681281719065F
:104B700081F48091630390916403009709F460C00D
:104B80000E946C056816790608F05AC021E0F80109
:104B900024835F28FFEFAF1ABF0A095F1F4F25E08C
:104BA000A216B10409F08ECF8B85882309F421C1A8
:104BB000552009F41EC10E947B05909364038093E5
:104BC00063038091D502883010F591E0980F90939F
:104BD000D50298E0FE013996DE01119601900D9202
:104BE0009A95E1F73CE0839FC00111248A529D4FC2
:104BF00028E0FE013196DC0101900D922A95E1F743
:104C00002FEF3FEFFC0131872087D386C28669965C
:104C10000FB6F894DEBF0FBECDBFDF91CF911F91CD
:104C20000F91FF90EF90DF90CF90BF90AF909F904B
:104C30008F907F906F905F904F903F902F9008954E
:104C40008091610350916203982FF0E0E0E08513BA
:104C500014C090936103E017F10709F49ACF90E034
:104C6000FC01EE0FFF1FE75AFC4FB182A0820196B4
:104C700083709927809362038CCF682E712CF30187
:104C8000EE0FFF1FE75AFC4F2081318147E0429F22
:104C9000D001439FB00D1124AA5CBC4F6D917C9153
:104CA0001197798F688F40E020E030E0E32FF0E04B
:104CB000EE0FFF1F688D798DE60FF71F80809180C2
:104CC00081149104E1F0F8010190F081E02DFF8B57
:104CD000EE8B20E005C08616970609F44F2D2F5F56
:104CE000E22FF0E0EE0FFF1F6E897F89E60FF71FBE
:104CF000608171816115710571F73F5FD7CF4423E2
:104D0000D1F0F801231708F0FD0121E024830E17EC
:104D10001F0721F490936103F42E3BCF981305C035
:104D2000AE17BF0711F49F5F937093012F5F3F4F42
:104D3000822F83708CCFF0E0E0E0F7CF90E0E110BD
:104D40001FC0B10102C0660F771F2A95E2F79B01D1
:104D5000215031098217930731F4442309F447C0E5
:104D6000C5010E94CA05C10101C0880F8A94EAF7F3
:104D7000982F9095F801868189238683FE2C09CF90
:104D80009C01082C02C0359527950A94E2F7A901E9
:104D900041705527BC016150710986239723892BE7
:104DA00011F5452B01F1F80182819381892BC1F026
:104DB0001B821C821D821E8249824A820E947B05C0
:104DC0008160582F9D838C83F801828193818F832A
:104DD000988729813A814B816D817E810E943A2397
:104DE000F8011582C0CFF22FF170EF2EBCCFEF2C5F
:104DF000BACF9091610380916203981731F00E94BD
:104E00000F24552009F433CE02CF0E94B123109213
:104E10006403109263030E94F805F3CF82E00E94BE
:104E2000B41107CECF93DF9300D000D00F92CDB74F
:104E3000DEB79093AA028093A902811520E292071F
:104E400048F40F900F900F900F900F90DF91CF913B
:104E50000C9470158EEF89838A831B820E947B05D8
:104E60008160782F9D838C8349815A816B818D81EC
:104E70000F900F900F900F900F90DF91CF910C94A7
:104E8000B9240F931F93CF93DF938C01EB016BE653
:104E900072E08C2F0E94F40E892BA1F48091830381
:104EA000909184030E94080CDD27CD59DD4F888145
:104EB000F80110821882833009F148F4813059F0EA
:104EC000823081F0DF91CF911F910F91089584304E
:104ED000D1F08530B9F780916B0290916C02009708
:104EE00089F306C080916D0290916E02009799F34C
:104EF000DF91CF911F910F910C94122780916F0237
:104F000090917002F3CF809171029091720200979C
:104F100079F720916B0230916C0280916D02909133
:104F20006E0221153105D9F2009711F7C901E0CFC2
:104F3000CF93DF9300D000D00F92CDB7DEB7909320
:104F4000AA028093A902811520E2920748F40F90EB
:104F50000F900F900F900F90DF91CF910C946A17E4
:104F60008EEF89838A8381E08B830E947B05816039
:104F7000782F9D838C8349815A816B818D810F901D
:104F80000F900F900F900F90DF91CF910C94B92458
:104F9000BF92CF92DF92EF92FF920F931F93CF9326
:104FA000DF93B82EC0907C0480917B04C82AC7E0B0
:104FB000D0E0D12CF12CE12CD701C6010C2E04C07D
:104FC000B695A795979587950A94D2F780FF1FC04D
:104FD0004B2D60E08C2F0E94380C8C0181309105A4
:104FE000B1F00E9498278FE39CE90197F1F700C088
:104FF0000000C8010E94122781E0DF91CF911F912C
:105000000F91FF90EF90DF90CF90BF900895219780
:1050100098F64B2D60E080E00E94380CEC010E9475
:1050200098278FE39CE90197F1F700C00000CE01BB
:10503000E1CFCF93DF93EC010E9498278091830307
:10504000909184030E94080CCE01DF91CF910C94C3
:1050500012270F931F93CF93DF938C01862F6BE65C
:1050600072E00E94F40E892BC9F4C0916B02D091BA
:105070006C02209799F0F8018081833069F4CE01A9
:105080000E941928CE010E941928CE01DF91CF91EC
:105090001F910F910C9419288430B8F7DF91CF91AC
:1050A0001F910F9108950F931F93CF93DF938C015E
:1050B000EB016BE672E08C2F0E94F40E892B09F055
:1050C00064C0FE01FF27D8018C91ED59FD4F81305E
:1050D000D9F419969C911997992311F080830CC0EB
:1050E0001A969C919923D1F382E0808380916D027E
:1050F00090916E020097D9F480916B0290916C02AE
:10510000009709F442C013C08230E9F519968C91DA
:10511000199781112DC01A968C9181110EC083E0D0
:10512000808380916F0290917002009719F1DF9156
:10513000CF911F910F910C94982784E080838091E8
:10514000710290917202009791F780916B02909199
:105150006C020097F9F00E94192880916D029091DD
:105160006E02009721F780916B0290916C02DFCF65
:1051700085E0808380916B0290916C02009729F00A
:105180000E941928F0CF86E08083DF91CF911F9194
:105190000F91089580916D0290916E02B1CF1F9290
:1051A0000F920FB60F9211242F933F934F935F935B
:1051B0006F937F938F939F93AF93BF93CF93DF931F
:1051C000EF93FF93D091E900DF708091EC00C82F3E
:1051D000C17080FDC0E81092E9008091F000877FE7
:1051E0008093F00078940E9427121092E900809139
:1051F000F00088608093F000CD2BCF70C093E90061
:10520000FF91EF91DF91CF91BF91AF919F918F91DE
:105210007F916F915F914F913F912F910F900FBEB2
:105220000F901F9018951F920F920FB60F92112496
:105230002F933F934F935F936F937F938F939F939E
:10524000AF93BF93EF93FF938091E10082FF09C07A
:105250008091E20082FF05C08091E1008B7F809306
:10526000E1008091DA0080FF24C08091D80080FFA7
:1052700020C08091DA008E7F8093DA008091D9007F
:1052800080FF9DC080E189BD82E189BD09B400FE37
:10529000FDCF81E080937A0480914C04811109C094
:1052A0000E94B6030E94A9048091E200846080936A
:1052B000E2008091E10080FF17C08091E20080FF52
:1052C00013C08091E2008E7F8093E2008091E20023
:1052D00080618093E2008091D80080628093D80042
:1052E00019BC85E080937A048091E10084FF2BC093
:1052F0008091E20084FF27C080E189BD82E189BD01
:1053000089B5982F917080FFFBCF8091D8008F7D59
:105310008093D8008091E1008F7E8093E10080919E
:10532000E2008F7E8093E2008091E20081608093B2
:10533000E20080917104882309F447C084E08093DF
:105340007A0480917A048091E10083FF27C08091E4
:10535000E20083FF23C08091E100877F8093E1001A
:1053600082E080937A04109271048091E1008E7F34
:105370008093E1008091E2008E7F8093E200809133
:10538000E20080618093E20042E060E080E00E9401
:1053900077048091F00088608093F000FF91EF9196
:1053A000BF91AF919F918F917F916F915F914F913D
:1053B0003F912F910F900FBE0F901F90189519BC21
:1053C00010927A0410924C0474CF8091E30087FD10
:1053D00093E090937A04B5CF78941F921FB61F92F2
:1053E00011248F939F93AF93BF9380914304909127
:1053F0004404A0914504B09146040196A11DB11D3D
:105400008093430490934404A0934504B0934604CE
:10541000BF91AF919F918F911F901FBE1F901895C4
:105420001F921FB61F9211248F939F93AF93BF9328
:1054300080914204811113C08091430490914404EF
:10544000A0914504B09146044196A11DB11D8093E1
:10545000430490934404A0934504B0934604BF9141
:10546000AF919F918F911F901FBE1F901895CDB740
:10547000DEB7E6970FB6F894DEBF0FBECDBF84B798
:10548000877F84BF0FB6F894A895809160008861EB
:1054900080936000109260000FBE80E890E00FB62D
:1054A000F89480936100909361000FBE85B7806887
:1054B00085BF85B7806885BF81EE97E090938301B3
:1054C000809382010E94080F0E945E0F0E94120CBE
:1054D0000E94B6030E94A9048091E2008460809338
:1054E000E200789480917A048823A1F01091E90079
:1054F0001F709091EC00892F817090FD80E8182B2F
:105500001092E9008091E80083FD0E9427121F702D
:105510001093E90082E084BD93E095BD9AEF97BDBA
:1055200080936E000E942C0D811102C00E94E50E36
:1055300083E90E94E30785E90E94E30780EF0E9468
:10554000E30781EF0E94E30708E511E073E6E72E29
:1055500071E0F72ED8018D918D018F3F11F00E94DF
:10556000E307E016F106B1F788E0EEE4F2E0DF01D0
:10557000282F1D922A95E9F7EDE2F2E0DF011D9256
:105580008A95E9F790E080E00E945332893E9E4F71
:1055900021F40E942C0D811102C00E94511882E05A
:1055A00090E00E944B32809335020E94450D90930B
:1055B0004804809347040E94B70FEFE3FCE931975A
:1055C000F1F700C000000E94B70F80914E0280FFEB
:1055D00008C06FEF7FEF90E080E00E9477320E947A
:1055E000E40B83E090E00E944B320E940E1225985B
:1055F0002D9A26982E9A8FE891E00197F1F700C036
:10560000000083B185FB882780F91E997FC190E057
:10561000892B8093480280E091E090933F0480932F
:105620003E048E010F5F1F4F80917A0450E1E52EFA
:1056300062E1F62E853009F4A5C10E94B70F8823D8
:1056400059F08FB7F894409143045091440460910D
:105650004504709146048FBFAEE4B2E0E6E3F2E0A9
:10566000F12CE12C7E2D8D919D9121913191281766
:10567000390709F497C160E0CC24C394D12C2827C2
:105680003927A9014C215D21452B09F485C16BA760
:105690007CA796012823392391E0232B09F490E07D
:1056A0009DA70E947B058160782F9FA78EA74BA5A1
:1056B0005CA56DA58FA50E94B924F701EE0FFF1F11
:1056C000EA5CFD4F80819181C826D926D182C082B3
:1056D00080910C0190910D01D12C76E1C72E01969D
:1056E00009F0A8C1809119018111AEC18091800398
:1056F00080FF1EC08091180182FF1AC00E947B05A6
:105700002091CE023091CF02AC01421B530B20916D
:105710001601309117014217530750F02EE332E083
:1057200041E0BC018091D0029091D1020E94951776
:10573000E0914802EE0FEE0FE093480283B185FB43
:10574000882780F98DAB1EAA1E99A9C180E02DA9DA
:105750003EA9822BE82BE0934802EF70F0E0ED5970
:10576000FE4F808190914702890F8093470220E08D
:1057700084304CF0809146028F5F8093460280E037
:105780000E94C82721E0809147028D3F4CF4809110
:10579000460281508093460281E00E94C82721E0A2
:1057A00080914702082E000C990B64E070E00E9483
:1057B000F43180934702222359F08FB7F894409137
:1057C00043045091440460914504709146048FBF96
:1057D00086E0EDE5F2E0D80101900D928A95E1F7BF
:1057E000C0905F02D0906002E0906102F09062028F
:1057F00010925F0210926002109261021092620297
:105800008C2D8D2991F080915B0290915C020E9419
:105810006C05AC0190915702992309F443C1809122
:1058200014018417150608F44BC18E2D8F2991F0B1
:105830008091590290915A020E946C05AC0190919E
:105840005602992309F47BC1809110018417150633
:1058500008F483C180915F0290916002892B90913E
:105860006102892B90916202892B11F00E94370608
:1058700086E0F801ADE5B2E001900D928A95E1F77E
:105880000E94B30590914902891380934902809147
:105890007A04843009F0C8CE83E08093E9008091D7
:1058A000E80082FFC1CE8091E80090E085FF0AC049
:1058B0000E94D50360E2E62EF12C6801882309F4EA
:1058C00095C191E08091E8008B778093E80099235F
:1058D00009F4AACEE090AB02F090AC028981E11409
:1058E000F10409F491C18E3F09F01BC28A81833013
:1058F00020F08550833008F014C2EA81EE3008F0C1
:1059000010C2F0E0E355FD4C0C94083292E080CEDA
:1059100080917A04843021F110924204A8E1B0E031
:10592000E0E40FB6F894A895A09360000FBEE09352
:10593000600083B7817F846083BF83B7816083BF4A
:105940007894889583B78E7F83BF0FB6F894A89517
:1059500080916000886180936000109260000FBEAB
:1059600080917004882371F00E94B70FEEE4F2E09A
:1059700081919191892B09F0CDC426E532E02E1753
:105980003F07B1F780917A04853009F4C1CF0E94B6
:1059900012120E94B30551CE6F5FCC0CDD1C6B3030
:1059A00009F06FCE3FEFE31AF30A44E0E416F10486
:1059B00009F058CE8FEF88AB89AB1AAA0E947B05FD
:1059C0008160782F9CAB8BAB48A959A96AA98CA997
:1059D0000E94B9247DCEC89EF001C99EF00D11240D
:1059E000E457FC4FE288F388E114F10421F4E090DD
:1059F0007D03F0907E03C89EF001C99EF00D112436
:105A0000E457FC4F86818823A1F0858596850E9406
:105A10006C05E816F90668F4DC9C70011124C701D6
:105A200084579C4F0E943F11C7018E569C4F0E9485
:105A3000FA10D3948D2D90E020910C0130910D013E
:105A40002817390744F64ECE809163039091640382
:105A5000009709F44BCE0E946C052091D202309140
:105A6000D3022817390708F041CE90916103809145
:105A70006203981759F00E940F241092D3021092DB
:105A8000D202109264031092630330CE0E94B123BD
:105A900010926403109263030E94F80527CE82E0FF
:105AA00090E055CE209115018AE0289F90011124A5
:105AB0002417350708F0B9CE9F5F9093570202C0B4
:105AC0009F3FD1F7CC2059F00E941A079FEF1C147A
:105AD0000CF491E0899F802D112480935F02DD20DA
