:100000000C947C030C94C3030C94C3030C94C3039F
:100010000C94C3030C94C3030C94C3030C94C30348
:100020000C94C3030C94C3030C94A8290C94642966
:100030000C94A52A0C94C3030C94C3030C94C3031F
:100040000C94C3030C94C3030C94C3030C94C30318
:100050000C94C3030C94812A0C94C3030C94C30323
:100060000C94C3030C94C3030C94C3030C94C303F8
:100070000C94C3030C94C3030C94C3030C94C303E8
:100080000C94C3030C94C3030C94C3030C94C303D8
:100090000C94C3030C94C3030C94C3030C94C303C8
:1000A0000C94C3030C94C3030C94C303050109020D
:1000B000A10185020901A100050919012905150001
:1000C00025019505750181029501750381010501E1
:1000D000093009311581257F950275088106093897
:1000E0001581257F950175088106050C0A380215D2
:1000F00081257F950175088106C0C005010980A191
:1001000001850319012AB700150126B7009501756D
:10011000108100C0050C0901A101850419012AA064
:1001200002150126A002950175108100C005010984
:1001300006A1018506050719E029E71500250195A7
:1001400008750181020507190029EF1500250195A1
:10015000F0750181020508190129059505750191C0
:1001600002950175039101C00660FF0961A10109B3
:1001700062150026FF0095207508810209631500AD
:1001800026FF00952075089102C005010906A1010E
:10019000050719E029E71500250195087501810279
:1001A0009501750881010507190029FF150026FF33
:1001B0000095067508810005081901290595057542
:1001C000019102950175039101C00000000000003B
:1001D000000000000000000000000000000000001F
:1001E00000000000000000000000000000007E0F82
:1001F00000D4FFFFFFC700000078000000000000EF
:1002000000002A2B28000000000000000000000071
:10021000000000000029000000002C1E34202122D4
:1002200024342627252E362D3738271E1F2021223D
:10023000232425263333362E37381F0405060708B6
:10024000090A0B0C0D0E0F101112131415161718A6
:10025000191A1B1C1D2F3130232D350405060708E4
:10026000090A0B0C0D0E0F10111213141516171886
:10027000191A1B1C1D2F3130354CFD377A585A0086
:100280000004E6D6B4460200210116000000742FD7
:10029000E5A3E003AF01735D003D8889C65436C312
:1002A000174FE4D20C4F0A81006790BF493EEAAA7B
:1002B0003681F467F60418D5D8B7C6AD5A529CA15A
:1002C0006F49CF897E1A1C0E1D3D91552BAAFE3E0B
:1002D000B349E3C01765D7D94A85FA20EAA8C5C053
:1002E000C7D37CA05F3F8378CA9449612DA3A90539
:1002F00055777954D1C0BD49CA3151D0E91D353E39
:10030000BCB965130218E78237B1DA81BF8614C61B
:1003100018D0B0044BB21BA7D022AFBC820C7A48D5
:10032000340E75BB4E88185D08F1C69405B7DAE443
:100330002C4E022A37685E8AAC202FE438E6A09063
:1003400071EAD6FC8F3C1D41B700197932D27FE6A5
:10035000C1DE43A594A60A559B11441A826D978A63
:10036000AE3911A307F3AE556A6210F307B18ECB15
:1003700055131997D8F0246C818935037A9DA3C54C
:10038000DF031CCE83859466A85FD4C21F2CECBE0D
:100390002A13224F97A585B93B5DAEC082B126FDD9
:1003A00031AB43DDF575ECC40EAF8854717FF201BB
:1003B000E6EF021F3877FEE0080386FF59A52DD22D
:1003C000AA1D7AC0B747274C152AD25CD3347E08C1
:1003D000F4895AEC3E3AAAB7E51BF4EF2FA5CC6599
:1003E000EEB8F535807D3B7B51CFB416135BF1EC55
:1003F0000ABE2D01C1D007CA86249E51EA1807748F
:100400001D308219800E5A13EAD5610000006CD1AC
:10041000669C1A04F12D00018F03B00700001F50E5
:100420002E73B1C467FB020000000004595AA900F2
:10043000AA000100010001000100010001001400F8
:100440001A000800150017001C0018000C0012000C
:1004500013004C0004001600070009000A000B00FE
:100460000D420E000F0028004B001D621B0006000D
:1004700019000500110010000000387252004E00F3
:10048000E000E300E2002A002C412C4100000000C3
:10049000500051004F001E001F00200021002200CC
:1004A000230024002500260027004A002D002E00EE
:1004B0002F003000310033003400350036003700A3
:1004C0004D00C25CC35CC45CC55CC65CC75CC85CF8
:1004D000C95CCA5C00000000390000000000000098
:1004E00000000000000000000000000000003A00D2
:1004F0003B003C003D003E003F0000000000520079
:100500000000005C40004100420043004400450000
:1005100000000000000000000000000000000000DB
:1005200000000000000000000000000000000000CB
:1005300000000000000000000000000000000000BB
:1005400000000000000000000000000000000000AB
:10055000000000000000000000000000000000009B
:10056000000000000000000000000000000000008B
:10057000000000000000000000000000000000007B
:10058000000000000000000000000000000000006B
:10059000000000000000000000000000000001005A
:1005A000010060030000020002005C030000030081
:1005B0000100610300000400020046033D0605003F
:1005C000010062030000060002004803000007006B
:1005D00002005E0300000800010063030000090040
:1005E00002004A0318060A0002004C0318060B001A
:1005F00002004E0318060C000200500318060D00FE
:100600000200520318060E000200540318060F00E1
:1006100002005603180610000200580318061100C5
:1006200002005A03180612000200640300001300BF
:1006300002006603000009025B00030100A0FA0942
:100640000400000103010100092111010001224001
:10065000000705810308000A0904010002030000E5
:100660000009211101000122220007058203200058
:100670000107050303200001090402000103000033
:100680000009211101000122BC000705840320009C
:100690000A1201000200000008317445D601000171
:1006A0000203011C037600690061006C003A0066D9
:1006B0000036003400630032006200330063000043
:1006C000001C035F0033003900390039002000505E
:1006D0000065007200630065006E00740000001287
:1006E000036400700061006C006B00610031003534
:1006F000000000040309040011241FBECFEFDAE05C
:10070000DEBFCDBF04B603FE27C080915F04909189
:100710006004A0916104B09162048730904BA740BF
:10072000B04BD1F410925F041092600410926104F7
:100730001092620414BE84B7877F84BF0FB6F8940A
:10074000A89580916000886180936000109260009D
:100750000FBEE0E0F8E3099511E0A0E0B1E0EEE8BB
:10076000F5E602C005900D92A238B107D9F724E052
:10077000A2E8B1E001C01D92AF35B207E1F70E94D7
:10078000CC2A0C9493320C940000E8EDF0E08081C8
:100790008E7F80831092E2001092DA001092E100C6
:1007A000A0EEB0E08C9181608C9380818F77808304
:1007B00019BCA7EDB0E08C918E7F8C9380818F7EE9
:1007C000808310922D0408952091E4003091E5007B
:1007D00095E6A9012091EC00822F817020FF06C0D0
:1007E0008091E80080FF06C080E008952091E80035
:1007F00022FD1AC080915B04882389F0853089F03E
:100800008091EB0085FD0FC02091E4003091E50060
:1008100042175307F9F29150E1F684E0089582E01F
:10082000089583E0089581E00895EF92FF920F9379
:100830001F93CF937C018B010E94E403C82F811189
:1008400017C08091E80085FD0BC08091E8008E778D
:100850008093E8000E94E403882399F3C82F08C01E
:10086000F70181917F018093F1000150110949F74F
:100870008C2FCF911F910F91FF90EF900895CF9300
:10088000FC0180915B04843001F5C091E900CF70D8
:100890002091EC00922F917020FD90E8C92B82E00E
:1008A0008093E9008091E80080FF0CC050E040E0B8
:1008B00060E270E0CF010E9415048091E8008E771D
:1008C0008093E800CF70C093E900CF9108958091A4
:1008D000530487FF13C08091E80082FF06C0809117
:1008E000E8008B778093E80004C080915B0481115D
:1008F000F2CF089580915B048823D9F38091E800BA
:1009000080FFF8CF8091E8008E77ECCF982F9093FE
:10091000E900242F762F50E0891731F07091EC0018
:100920002091ED005091F00021FD07C09F5F9730AE
:1009300071F78093E90081E008953091EB003E7FEC
:100940003093EB003091ED003D7F3093ED0030911E
:10095000EB0031603093EB007093EC002093ED00DE
:100960005093F0002091EE0027FDE0CF80E0089545
:10097000CF92DF92EF92FF920F931F93CF93DF936B
:10098000C8EDD0E088818F7E8883E7EDF0E080813C
:100990008160808384E082BF81E080932D04888120
:1009A0008E7F888302EE10E0F80110821092DA0048
:1009B00081EEC82ED12CF601108288818F77888332
:1009C00088818068888388818F7D888319BC109294
:1009D0005B0410925204109251041092500490EE55
:1009E000E92EF12CF70180818B7F808388818160E3
:1009F000888342E060E080E00E948604F601808106
:100A00008E7F8083F801808181608083808188600F
:100A10008083F70180818E7F8083888180618883D5
:100A2000DF91CF911F910F91FF90EF90DF90CF90CA
:100A30000895FC018091590490915A0486179707F4
:100A4000A0F06115710529F49091E8009E779093CC
:100A5000E80090E06115710551F4911108C0809192
:100A6000E80082FF34C080E00895BC01F2CF80919D
:100A70005B048823C1F18530C1F18091E80083FDDA
:100A800030C08091E80082FDEACF8091E80080FFCD
:100A9000E1CF8091F3002091F200382F61157105AC
:100AA00019F02830310558F091E02830310509F06F
:100AB00090E02091E8002E772093E800CBCF819141
:100AC0008093F100615071092F5F3F4FE7CF809114
:100AD0005B04882341F0853041F08091E80083FF7A
:100AE000BECF81E0089582E0089583E008950895DF
:100AF00080912F0408959C014FB7F89480912404AD
:100B000090912504A0912604B09127044FBF821B29
:100B1000930B08952FB7F8948091240490912504A5
:100B2000A0912604B09127042FBF0895209121049D
:100B3000309122042817390771F090932204809392
:100B40002104E0911F04F0912004309721F00084EB
:100B5000F185E02D0994089520911D0430911E0423
:100B60002817390771F090931E0480931D04E091BB
:100B70001F04F0912004309721F00680F781E02DCA
:100B800009940895E0911F04F0912004309721F01A
:100B90000190F081E02D099480E00895452B39F013
:100BA000682381E06F3F09F080E08170089581E063
:100BB000FCCFDC016091420380914303962F89139F
:100BC00001C00895292F30E0F901EE0FFF1FE65C08
:100BD000FC4F408151814A175B07A1F487E08A9F4F
:100BE000A0018B9F500D1124495E5C4F81E0FA01FA
:100BF00084839613E6CF2F5F3F4F237033272093D4
:100C0000420308952F5F3F4F922F9370D8CF1092D9
:100C1000B4021092B302E7E1F3E08581811102C0D2
:100C200014821682379683E0EA33F807B1F7089505
:100C3000E6E4F3E0848195812AE030E0B9010E9486
:100C4000DE31609315018681809314018285809343
:100C5000130184858093120186859785B9010E94CE
:100C6000DE31609311018089809310018289809325
:100C70000F01848980930E0108958091460390911D
:100C80004703909317018093160108950E948A05E7
:100C90009C019091400280914102982B21F0309369
:100CA0003D0220933C029091420280914302982B96
:100CB00021F030933B0220933A02E0911F04F0911F
:100CC0002004309749F082E080933E020480F58151
:100CD000E02D8EE392E00994089590914002803FC8
:100CE00059F48091410287FF0DC010924102911189
:100CF0000BC01092380208C0813F81F480914102FC
:100D000018169CF3992381F080914202909143023E
:100D1000892B09F064C0109237020895823F49F48C
:100D200097FFF0CF10924002809141028111ECCFE9
:100D3000E0CF833F19F41916ACF3E4CF20914202BF
:100D4000893F29F41216F4F610924202DBCF8A3F53
:100D500019F427FFD7CFF8CF209143028B3F29F416
:100D600027FFD0CF10924302CDCF8C3F19F412163B
:100D7000CCF3C8CF843F31F480913F028E7F8093C3
:100D80003F02C0CF853F21F480913F028D7FF7CF96
:100D9000863F21F480913F028B7FF1CF873F21F482
:100DA00080913F02877FEBCF883F21F480913F0203
:100DB0008F7EE5CF8D3F31F4809139028E7F809315
:100DC0003902A0CF8E3F21F4809139028D7FF7CF79
:100DD0008F3F09F097CF809139028B7FF0CF089534
:100DE0008091390280FF0CC060910F0170E0759511
:100DF0006795759567956115710549F1862F089579
:100E000081FF06C060910F0170E075956795F3CF83
:100E100060910F0182FD0BC0909137029923A1F0E0
:100E200060910E0180910F01961738F0682F70E0E5
:100E30006038710500F38FE70895899FC001112480
:100E400070E00E94F231F4CF61E070E0D7CF81E032
:100E500008958091390260914E0370914F0380FF95
:100E600016C020911301269FC001279F900D1124C9
:100E7000BC0176956795769567956038710508F0A1
:100E800043C06115710509F441C0862F089581FFA3
:100E90000BC020911301269FC001279F900D1124A4
:100EA000BC0176956795E9CF82FF09C08091130157
:100EB0009B01829FB001839F700D1124DECF209192
:100EC00038022223D1F29091120180911301482F10
:100ED00050E0291748F0CB01849FB001859F700D29
:100EE000949F700D1124C9CF289F90011124269F33
:100EF000A001279F500D369F500D1124692F70E0DF
:100F0000CA010E94DE31B9CF8FE7089581E00895CC
:100F1000803F31F40E942907819580934102089512
:100F2000813F19F40E942907F8CF823F31F40E94D3
:100F300029078195809340020895833F19F40E9408
:100F40002907F8CF893F29F40E94F00680934202D6
:100F500008958A3F21F40E94F0068195F7CF8B3FD8
:100F600031F40E94F00681958093430208958C3FEE
:100F700019F40E94F006F8CF843F31F480913F02CB
:100F8000816080933F020895853F21F480913F0264
:100F90008260F7CF863F21F480913F028460F1CFD9
:100FA000873F21F480913F028860EBCF883F21F496
:100FB00080913F028061E5CF8D3F31F4809139020D
:100FC00081608093390208958E3F21F48091390227
:100FD0008260F7CF8F3FB9F7809139028460F1CFFB
:100FE00080E00895F894E82FE295EF70F0E031A1E9
:100FF000282F2F7081E090E001C0880F2A95EAF732
:10100000982F9095932391A392A1892B82A37894F2
:1010100008959091280492FF06C0282F2871283047
:10102000F9F4877F846093FF06C0282F2871283148
:10103000F1F4877E84612091290420FF06C0382FB7
:1010400038713830D9F4877F816021FF06C0282F9E
:1010500028712831D1F4877E816194FD877E0895BF
:10106000282F24712430F9F68B7F8860DCCF282F5D
:101070002471243101F78B7E8861DDCF382F3171E7
:10108000313019F78E7F8860E0CF282F2171213110
:1010900021F78E7E8861E1CFCF93DF93EC01823818
:1010A0009105A9F1D8F58133910509F496C048F569
:1010B0008932910509F48AC08A9709F495C0C1154F
:1010C00021E5D20708F0BCC0C11530E5D30708F010
:1010D00014C1C83ED10508F09CC0C03ED10560F5E2
:1010E000C83AD10508F087C0C53AD10508F0FDC05F
:1010F000C130D10509F12097F9F0C430D105E0F4F1
:1011000040C08533910509F45AC0C997C1F6809152
:101110002804837089F0C0EED0E00EC0833E9105B4
:1011200099F170F4803E910501F1823E910539F606
:101130008091280482FD21C0CE01DF91CF910895D6
:10114000863E910561F1873E910571F1843E9105DE
:1011500009F0B5CF8091290481FFEECF809128045A
:10116000C7EED0E084FD0DC0E7CF8091280480FD5C
:1011700012C19091290490FFDFCFC3EED0E084FF2D
:10118000DBCFD0E0C0E0D8CF8091280482FD06C13B
:101190009091290490FDBFCF84FFCECFF2CF8091F4
:1011A000280483FDDDCFC8CF8091280483FDF9C0DA
:1011B0009091290491FFF0CFC4EED0E0BDCF809193
:1011C000280485FFB9CFC9E2D0E0B6CF80912804CA
:1011D00085FFB2CFC5E3D0E0AFCF8091280486FF72
:1011E000ABCFCAE2D0E0A8CF8091280486FFA4CF7D
:1011F000C1E3D0E0A1CFCF3BD10518F6C85AD0E06B
:10120000CC0FDD1FCA5DDE4F0990D881C02DD4649C
:1012100093CFC11540E2D40758F4C11581E0D80737
:1012200008F08ACFC03FD10508F4ABCFD06584CF9A
:10123000C11590E4D90708F4A4CFDF70D06A7CCF41
:10124000C11525E5D20700F5C11534E5D30708F02F
:101250008AC0C11543E5D40708F071C0C11582E505
:10126000D80708F467C0CE018370992721E030E0E9
:1012700002C0220F331F8A95E2F7C695C69580E219
:10128000C89FE001112452C0C11599E5D907A8F4FF
:10129000C11528E5D20708F06BC0C11536E5D307A4
:1012A00008F06FCF8C2F0E940908C82FD0E0DC2FE8
:1012B000CC27CC27DF71D0623FCFC1154AE5D407D8
:1012C00008F45BC0CE0190568115904208F059CFCA
:1012D0008D2F8F710E94090890E0982F882788270A
:1012E0009F719C012C2BE901E6CFC55AD0E0CD5D62
:1012F000DE4FC881D0E0D0641FCFCE01E4E09695E8
:101300008795EA95E1F783702C2F26952695237013
:1013100040E2249F90011124382B8C2F8370C1E070
:10132000D0E002C0CC0FDD1F8A95E2F7C22BD32B91
:10133000DC6802CFDC2FCC27C16FD06AFDCECE0196
:101340008370992721E030E002C0220F331F8A9575
:10135000E2F7C695C69590E2C99FE0011124C22B21
:10136000D32BDA68E9CEDC2FCC27C46FD06AE4CE69
:10137000DC2FCC27C06FD06ADFCE8C2F8F700E94FD
:10138000090834E0D695C7953A95E1F7CF709C2FC0
:10139000EC01D069D1CEC9E3D0E0CECEC2EED0E030
:1013A000CBCEC6EED0E0C8CE80910A02882331F0C1
:1013B00010920A0210920902109208020895CF9327
:1013C000C82F8091290482FD0CC080910A028C17DD
:1013D00041F00E948A059093090280930802C0930D
:1013E0000A02CF910895809590915E04982390937E
:1013F0005E040895809590918E02982390938E02BA
:10140000089590918E02892B80938E0208951092F8
:10141000060210920502109204020895809148037A
:1014200090914903892B89F00E948A052091080236
:1014300030910902AC01421B530B81E0209148031B
:10144000309149034217530708F480E081700895F2
:1014500080918E0290915E04892B90910702892BD6
:101460008093840180910A02882319F180914803B6
:1014700090914903892B29F00E940E0A81110E9444
:10148000D4098091840190910A02892B8093840170
:1014900080911A01882341F18091280487FF24C09C
:1014A0008EE1E6E8F1E090E0815000F591110E94B4
:1014B000D409E0911F04F09120043097E1F080916D
:1014C0001A01882359F08091280487FF07C0809172
:1014D00084018093850186E0809384010280F381FA
:1014E000E02D84E891E0099486E0DBCF219122236E
:1014F000D9F29F5FD9CF0895EF92FF920F931F9378
:10150000CF93DF93EC018A85811134C0EB80FC809E
:1015100087E5F81A26E12E9DC0012F9D900D11241C
:10152000DC01A359BC4F1496ED91FC9115973097AF
:1015300031F054966D917C918D589C4F099586E1C0
:101540008E9D80018F9D100D112403591C4FF801B1
:1015500087810E94FA09F80180850E94F3090E94A0
:10156000280A188219861B861E821D8210926C031F
:1015700010926B03DF91CF911F910F91FF90EF902D
:101580000895CF93DF93EC018989811118C081E020
:10159000898B8F810E94010A80915E049885892B36
:1015A00080935E040E94280AEA81FB81309739F01B
:1015B0006C897D89CE010696DF91CF910994DF91E8
:1015C000CF91089580911801877F8093180182E060
:1015D0000E94F3098091180184FF06C08F7E8093DA
:1015E000180182E00E94010A8091180185FF06C05F
:1015F0008F7D8093180180E20E94010A0C94280AD2
:1016000080910302811110920302089590911A01B2
:101610009923D1F09091280497FF16C0E82FE69502
:10162000E695E695EE31E0F4F0E0EC57FE4F282F1A
:10163000277081E090E001C0880F2A95EAF7809535
:101640009281892382830895E6E8F1E091918913DC
:1016500003C0DF0111971C9291E0EC38F907B1F754
:10166000089590911A019923C1F09091280497FF51
:1016700014C0E82FE695E695E695EE31F8F4F0E033
:10168000EC57FE4F877021E030E001C0220F8A95B1
:10169000EAF78281822B82830895A6E8B1E0EFEF1A
:1016A00090E02D91821751F0EF3F19F4211101C004
:1016B000E92F9F5F9630A9F7EF3F09F408950E2EAA
:1016C000000CFF0BEC57FE4FE6CF209102029091E9
:1016D000C101291302C080E0089530E0F90153E010
:1016E000EE0FFF1F5A95E1F7EE53FE4F518156134F
:1016F00006C05081581303C05281541304C02F5F99
:101700003F4F2770E6CF81E00895809102029091CB
:10171000C101981301C008958F5F8770FACF9E3F73
:1017200049F1E82F2BE0929FE00D11249E2F977036
:10173000E695E695E69583E0E89FF0011124E955EA
:10174000FE4F50E040E080E0219130E0092E02C0E1
:10175000369527950A94E2F721703327042E01C0AD
:10176000220F0A94EAF7822B4F5F5F4F43305105F7
:1017700059F7089580E008959E3F69F1E82F2BE026
:10178000929FE00D11248E2F877041E001C0440F1D
:101790008A95EAF7E695E695E69583E0E89FF001FD
:1017A0001124E955FE4F30E020E070E05191DF0157
:1017B0001197CB01022E02C0969587950A94E2F705
:1017C000817081958527842385278C932F5F3F4FD8
:1017D0002330310559F70895E92FE295EF70E25073
:1017E000EE3070F4F0E0EB56FD4C0C940632803F86
:1017F00019F020F4883E20F481E00895843FE1F35D
:1018000080E00895883EC0F3813FD1F7F5CF93FB88
:10181000882780F9089590E080E00E94AC0590E070
:1018200080E00E94960510925E04109207020E94CA
:10183000280A86E0EEE3F2E0DF011D928A95E9F7DF
:101840001092380210923702109239020C94460618
:1018500080935D040C940B0C80915D04982F96701E
:10186000963019F488600C94280C877FFCCF21E017
:1018700030E001C0220F8A95EAF7209580915D043F
:1018800082230C94280C90910602809589238093E2
:101890000602282F277091F4282F082E000C330BF6
:1018A0009217130659F09091290492FD07C085956F
:1018B000859585950E94370C0C94070A089521E0C0
:1018C00030E001C0220F8A95EAF780915D04822BF7
:1018D0000C94280C9091290492FD10C098E0899FE7
:1018E00090011124622B609306020E945F0C0E94FB
:1018F0008A05909305028093040208950C945F0C6E
:1019000080935C040C940B0C882321F00E94F30953
:101910000C94280A0895882339F090915E04982B3E
:1019200090935E040C94280A0895882321F00E9465
:10193000FA090C94280A0895882321F00E94010ACC
:101940000C94280A0895882309F452C0823871F44F
:101950000E94C20581FF4CC089E30E94310B0E94A6
:10196000280A89E30E94060B0C94280A833859F44C
:101970000E94C20580FF3CC083E50E94310B0E949B
:10198000280A83E5EFCF843859F40E94C20582FF0C
:101990002FC087E40E94310B0E94280A87E4E2CF1F
:1019A0009CEF980F913AF0F290E2980F983050F433
:1019B000877091E001C0990F8A95EAF7892F0E94FC
:1019C000FA09D2CF9BE5980F933020F490E080E0A5
:1019D0000C94AC0598E5980F973120F490E080E0E6
:1019E0000C949605803F20F00E946D060C944606EC
:1019F00008959C013A9521153F4150F5FC01EE27D1
:101A0000F170BC0166277270AC01442754709C01D0
:101A10002227387094FF0EC080E1EF2B09F480E09C
:101A2000672B09F08062452B09F08064232B89F035
:101A30008068089581E0EF2B09F480E0672B09F0BE
:101A40008260452B09F08460232B19F0886008958B
:101A500080E00895CF93DF93EC010E94A30CCE01A8
:101A60000E94F90C9E01205E31092830310510F0EA
:101A7000CD2B21F4DF91CF910C94950CDF91CF9178
:101A80000C94840C80932A0470932C0460932B0490
:101A900080915B048430F9F48093E9008FEF90919A
:101AA000E800815095FD06C095ED9A95F1F700008C
:101AB0008111F5CF8091E80085FF0DC050E040E036
:101AC00063E070E08AE294E00E9415048091E800EF
:101AD0008E778093E8000895BC0184E00C94420D59
:101AE000BC0183E00C94420D9C0184E08093E900EA
:101AF0009FEF8091E800915085FD06C085ED8A95A5
:101B0000F1F700009111F5CF8091E80085FF0CC03E
:101B100050E040E066E070E0C9010E941504809149
:101B2000E8008E778093E8000895CF93DF93EC016F
:101B300080911A018823B1F18091280487FF32C077
:101B400060E284E08093E9008FEF9091E80081509B
:101B500095FD06C095ED9A95F1F700008111F5CF3E
:101B60008091E80085FF1BC080911A0170E050E071
:101B700040E0811104C050E040E068E070E0CE0138
:101B80000E9415048091E8008E778093E80080E23F
:101B9000FE01A0E3B4E001900D928A95E1F7DF9198
:101BA000CF91089568E081E0CDCF81E08093E0009F
:101BB00080E28093D8001092C9008FE19EE40197E3
:101BC000F1F700C0000087E090EBDC0180935F0438
:101BD00090936004A0936104B093620488E19CE058
:101BE0000FB6F894A895809360000FBE90936000A4
:101BF000FFCF019708F40895EFE9FFE03197F1F77F
:101C000000C00000F6CFCF93C82F882309F4ABC0E3
:101C10008238C1F40E94C20581FDA5C089E30E94FB
:101C2000310B0E94280A2FEF81EE94E02150804072
:101C30009040E1F700C0000089E30E94060BCF91BD
:101C40000C94280A8338A1F40E94C20580FD8BC041
:101C500083E50E94310B0E94280A2FEF81EE94E069
:101C6000215080409040E1F700C0000083E5E5CFBF
:101C70008438A1F40E94C20582FD75C087E40E94E9
:101C8000310B0E94280A2FEF81EE94E02150804012
:101C90009040E1F700C0000087E4CFCF8CEF8C0FBD
:101CA000813A90F580911A01882301F180912804EE
:101CB00087FF1CC0EC2FE695E695E695F0E0EC5723
:101CC000FE4F828190E04C2F477021E030E002C04F
:101CD000220F331F4A95E2F782239323892B81F049
:101CE0008C2F0E94060B0E94280A0AC0E6E8F1E049
:101CF0008CE891E02191C21799F38E179F07D1F7D5
:101D00008C2F0E94310B9BCF80E28C0F883048F4DF
:101D1000C77081E001C0880FCA95EAF70E94010AE6
:101D20008ECFEBE5EC0FE33040F4F0E0ED5DFE4FDD
:101D3000808190E0CF910C94AC05E8E5EC0FE731A1
:101D400050F4F0E0EE0FFF1FEA5DFE4F80819181BD
:101D5000CF910C949605C03F30F08C2F0E948807DD
:101D6000CF910C944606CF9108951F93CF93DF93A4
:101D7000182FC0916603D0916703893321F0C09179
:101D80006403D0916503812F0E94030E209731F4E4
:101D9000812FDF91CF911F910C94A30C8FE99FE0CD
:101DA0000197F1F700C000002197F0CF0F931F9328
:101DB000CF93DF93C42FD22FFC0182818823A1F01F
:101DC00040936A030E948A05909369038093680395
:101DD000C77081E001C0880FCA95EAF7DF91CF9103
:101DE0001F910F910C949C0C10916A03141339C02D
:101DF00080916803909169030E947B0520915E03A6
:101E000030915F038217930760F5C0E2CD0F1D1775
:101E1000B9F080E2810F883040F4177081E001C092
:101E2000880F1A95EAF70E94950CC83048F481E0B3
:101E30009D2F977001C0880F9A95EAF70E949C0C1D
:101E4000802F0E94B50EC83098F4D77081E001C091
:101E5000880FDA95EAF7DF91CF911F910F910C94DB
:101E6000950CC77081E001C0880FCA95EAF7F3CFDF
:101E7000DF91CF911F910F910895CF93DF93EC01E4
:101E80000E94F90C9E01205E31092830310510F0C6
:101E9000209739F40E949C0C8C2FDF91CF910C94E9
:101EA000030E0E948B0CF8CF662329F020915E046C
:101EB000226020935E049C013056211540E23407D5
:101EC00020F0305E2115304108F499270C943D0F25
:101ED000DF92EF92FF920F931F93CF93DF937C01DA
:101EE0008B01D42E8091180182FF8CC0C091B10269
:101EF000D091B202CE15DF0521F0E114F10409F012
:101F000081C0809118018B7F8093180181FD73C07F
:101F10008091AF029091B002A801481B590B81E05B
:101F200020911601309117014217530708F480E001
:101F30008170F82E80911801F0FA81F980931801D0
:101F4000FE0183E0F695E7958A95E1F7EE71FF27AC
:101F5000E157FD4F20813181AE014F70552781E05F
:101F600090E002C0880F991F4A95E2F7FF2009F41C
:101F700044C0822B932B9183808380918E0281FFBA
:101F800008C08091180180618093180182E00E944E
:101F9000FA0980918E0285FF08C080911801806245
:101FA0008093180180E20E94FA096F2DCE010E94F1
:101FB000540FDD2031F08091610385FF02C086FF60
:101FC0003BC080916403909165030E94F90D80915C
:101FD000B1029091B2029C013056211540E23407C3
:101FE00020F0305E2115304108F499270E942A0D17
:101FF0000E94E20A1DC081E09BCF809590958223CC
:102000009323B9CFC701992797013056211540E294
:10201000340728F0305E2115304108F0C7010E94D6
:102020002A0D8091B1029091B2028E159F0501F3A5
:102030001093B0020093AF02DF91CF911F910F91E7
:10204000FF90EF90DF900895AF92BF92CF92DF9212
:10205000EF92FF920F931F93CF93DF93EC018AE0EF
:10206000A82E2881222309F48CC02130C9F599813A
:102070008A81913021F422960E94B50E05C09230DB
:1020800029F422960E94030E2196EBCF933021F47F
:1020900022960E94A30CF8CF943011F02196F4CF31
:1020A000229630E020E0AE014F5F5F4F8053990BE6
:1020B0008A30910550F02150310930F38FE99FE0CB
:1020C0000197F1F700C00000F6CFA29EB001A39ED9
:1020D000700D11249C01260F371F8981EA01E3CF7F
:1020E000E22FF0E0E650FE4FB490822F8695869561
:1020F000869590E0FC01E651FE4FE4902770F12CAC
:10210000022E02C0F594E7940A94E2F731E0E3224C
:10211000FF24FC01E652FE4FC490D12C022E02C0D7
:10212000D594C7940A94E2F731E0C322DD24FC0180
:10213000E653FE4F049110E002C0159507952A95CD
:10214000E2F701701127E114F10419F081EE0E9409
:10215000030EC114D10419F086EE0E94030E8B2DDC
:102160000E94B50ECD2819F086EE0E94A30CEF2830
:1021700019F081EE0E94A30C012B09F485CF8CE2AB
:102180007BCFDF91CF911F910F91FF90EF90DF9068
:10219000CF90BF90AF9008950F931F93CF93DF938D
:1021A00006E413E0C7E9D1E0CE010E944932F8010C
:1021B00081938F012196C93BF1E0DF07A9F7C4EABB
:1021C000D5E0FE0185919491009711F0FC010995ED
:1021D0002896F6E0CC33DF07A1F7DF91CF911F916E
:1021E0000F9108950F931F93CF93DF93843000F5E1
:1021F00061111EC024E0829F8001112450E0440F31
:10220000551F040F151F09571E4FC8010E94493260
:10221000C82FD0E0DC2FCC27C80101960E9449329C
:102220009E01282BC901DF91CF911F910F91089535
:1022300090E080E0F8CF0F931F93CF93DF9384302B
:1022400030F5643020F54B3010F5C42FD0E0CC0FC2
:10225000DD1F26E1629FC00DD11D112438E5839F4B
:10226000C00DD11D1124CE0187960E944932082F3E
:1022700010E0102F0027CE0188960E944932980165
:10228000282BC901DF91CF911F910F91089590E004
:1022900080E0F8CF462F20918C0230918D02232BC5
:1022A00091F47E3F39F46E3F71F480918A029091EF
:1022B0008B020895843038F4743028F46B3018F4AD
:1022C000672F0C941B1190E080E00895CF92DF926D
:1022D000FF920F931F93CF93DF936C0100915D04E6
:1022E00080915C04082BC7E0D0E010E0FC2EC80110
:1022F0000C2E02C0959587950A94E2F780FD0CC0DC
:102300002197A0F7F12C8F2DDF91CF911F910F9185
:10231000FF90DF90CF900895B6018C2F0E944A1154
:102320000E944C08019761F3EECFCF93DF93EC014D
:102330000E946611BE010E944A11DF91CF910C9458
:102340004C08FC0186819781009721F00E944C087F
:102350000C94EC0B808191810E949511F9CF1F9311
:10236000CF93DF9300D000D00F92CDB7DEB7498373
:102370005A8389819A816623B9F02223A9F00E94A9
:102380006611182F682F89819A810E94BC0B698180
:102390007A81812F0F900F900F900F900F90DF9107
:1023A000CF911F910C944A110E948F0B182FEFCFE1
:1023B000FC01262F86819781009739F44081518155
:1023C0006281738184810C94AF11089583E290E05F
:1023D0000E9449328C3789F484E290E00E944932AD
:1023E0008C3059F485E290E00E94493291E0833BC1
:1023F00009F090E0892F8170089580E0FCCFCF93A1
:1024000084E090E00E944932C82F82E290E00E946E
:102410004932982F8C2FCF9108950F931F93CF930C
:10242000DF9306E413E0C7E9D1E0CE010E94493210
:10243000F80161918F01681719F0CE010E9457329F
:102440002196C93BF1E0DF0781F7DF91CF911F9122
:102450000F910895E6E4F3E0128E138E8FEA90E078
:102460009183808385E0848F88E893E193838283DE
:102470002CE231E03583248382E390E097838683E6
:1024800085E090E0918780878AE090E0938782875B
:1024900044E150E0558744873787268724E630E0BB
:1024A000318B208B28E030E0338B228B28E230E028
:1024B000358B248B2EE130E0378B268B28EC30E0F7
:1024C000318F208F158E978F868F80E590E091A3B6
:1024D00080A30E940D120C94CC10CF93DF93CBE31A
:1024E000D2E060E0CE010E9457322196C11584E00F
:1024F000D807B9F7DF91CF9108950F931F93CF932A
:10250000DF938901843028F5611123C0423008F53A
:1025100021153C4531F42091880230918902232B0A
:10252000C1F094E0899FE001112450E0440F551F51
:10253000C40FD51FC957DE4F612FCE010E945732FD
:10254000602FCE010196DF91CF911F910F910C94D6
:102550005732DF91CF911F910F9108950F931F93E1
:10256000CF93DF938901843048F5643038F54B30E0
:1025700028F521153C4531F42091880230918902DB
:10258000232BE1F0C42FD0E0CC0FDD1F96E1699F33
:10259000C00DD11D112498E5899FC00DD11D1124B6
:1025A000612FCE0187960E945732602FCE01889608
:1025B000DF91CF911F910F910C945732DF91CF9102
:1025C0001F910F910895CF93C82F6FEF81116CE782
:1025D00083E290E00E9457326FEFC1116CE084E219
:1025E00090E00E9457326FEFC11163EB85E290E0FB
:1025F000CF910C945732CF93C0912904C2FB9927F5
:1026000090F9981799F080FBC2F9C0932904609162
:10261000280484E090E00E9457326C2F82E290E020
:102620000E94573282E0CF910C94430CCF910895D1
:102630005F926F927F928F929F92AF92BF92CF9252
:10264000DF92EF92FF920F931F93CF93DF93CDB75B
:10265000DEB764970FB6F894DEBF0FBECDBFC09053
:102660008802D090890281E090E090938902809363
:1026700088028EE2E82E84E0F82E9EE3A92E94E0F4
:10268000B92E10E0450100E015C0F3012591349109
:10269000452D602F812F0E94AE1282E0680E711CC2
:1026A0005394EBE05E12F1CFF6E18F0E911C0F5FB9
:1026B000043019F03401512CE8CFF7012591349101
:1026C00040E060E0812F0E947D12F7013296259153
:1026D000349141E060E0812F0E947D1284E0E80E99
:1026E000F11C1F5FE8E5AE0EB11C143009F0CACF33
:1026F0000E942A121A8219821C821B821E821D824B
:1027000018861F8288EC90E09A87898709EB11E090
:102710004AE050E0B801CE0101960E947B32065F8C
:102720001F4F0930F2E01F0799F77E018BE0E80E9A
:10273000F11C8AE0F70111928A95E9F74AE050E02E
:10274000B801C7010E947B32065F1F4F0B33F2E0D6
:102750001F07A1F7D0928902C092880264960FB633
:10276000F894DEBF0FBECDBFDF91CF911F910F91C7
:10277000FF90EF90DF90CF90BF90AF909F908F90A1
:102780007F906F905F90089580E00E94E31260E078
:1027900086E290E00E9457320E9418130E946D1248
:1027A00081E00C94E3129B01883070F49AE0899FD9
:1027B000B001112467547E4F4AE050E0C9010E94E5
:1027C000393290E080E008958FEF9FEF08958F9267
:1027D0009F92AF92BF92CF92DF92EF92FF920F93B0
:1027E0001F93CF93DF93CDB7DEB72A970FB6F89438
:1027F000DEBF0FBECDBF0DE613E0F12CE12C8EEB5A
:10280000C82E88E2D82E98EEA92E98E2B92E26ED91
:10281000822E27E2922EF801D182C082B382A28258
:1028200095828482F58AE48ABE016F5F7F4F8E2D88
:102830000E94D313892B29F489859A85F801938BFB
:10284000828BFFEFEF1AFF0A0A5E1F4F88E0E8163F
:10285000F10409F72A960FB6F894DEBF0FBECDBF7C
:10286000DF91CF911F910F91FF90EF90DF90CF906C
:10287000BF90AF909F908F900895CF92DF92EF928C
:10288000FF920F931F93CF93DF93CDB7DEB72A97B5
:102890000FB6F894DEBF0FBECDBFE6E5F2E082E3EF
:1028A000DF011D928A95E9F7E7E1F3E083E2DF01BA
:1028B0001D928A95E9F786E5C82E82E0D82E7F0121
:1028C00009E012E0F701D182C0824AE050E0B8018D
:1028D000CE0101960E94393288E0FE013196D60180
:1028E00001900D928A95E1F789859A85D701139613
:1028F0009C938E931297BAE0CB0ED11CE7E0EE0EBC
:10290000F11C065F1F4F0B33F2E01F07D9F62A9622
:102910000FB6F894DEBF0FBECDBFDF91CF911F91F0
:102920000F91FF90EF90DF90CF90089510928E025C
:1029300080911A01E6E8F1E0882359F0809128049B
:1029400087FF07C08EE1DF011D928A95E9F70C949D
:102950000B0C86E0F8CF1F93CF93DF93CDB7DEB794
:10296000AA970FB6F894DEBF0FBECDBF83E594E003
:102970002091F100DC012D93CD01B4E08B359B0754
:10298000B9F780915404833009F472C0B8F48130EF
:1029900009F449C0823009F4B3C08091E80083FF94
:1029A00096C280915304909154049A3008F08FC2DB
:1029B000E92FF0E0ED55FD4C0C9406328A3009F415
:1029C0008EC08B3009F471C0893039F7809153047F
:1029D000813219F78091570490915804009711F0B3
:1029E0000297D9F68091E800877F8093E800809174
:1029F000E80082FF38C09091F3008091F2000297C6
:102A000031F48091F100813011F0863021F4809111
:102A1000F10080932F048091E8008B778093E80089
:102A20000E946704BACF80915304813A09F0B5CF70
:102A30008091E800877F8093E8008091570490910F
:102A40005804892B61F460E280E394E070E00E9416
:102A500019058091E8008B778093E8009ECF60E0B5
:102A600090E080E0F3CF80915B048111C0CF95CFDF
:102A700080915304813A09F090CF8091570490914E
:102A80005804892B09F089CF8091E800877F8093D3
:102A9000E8008091E80080FFFCCF80911A018093CC
:102AA000F1008091E8008E77B9CF80915304813294
:102AB00009F073CF8091570490915804892B09F045
:102AC0006CCF8091E800877F8093E8000E946704C4
:102AD0008091550480931A010E9496145ECF8091D4
:102AE0005304813209F059CF8091E800877F8093A9
:102AF000E8000E9467048091560480932E044DCF15
:102B000080915304813A09F048CF8091E800877F93
:102B10008093E8008091E80080FFFCCF80912E0434
:102B2000BECF803899F0823809F0D1C18091570426
:102B30008F70873008F0CBC18093E9008091EB0063
:102B400085FB882780F91092E90006C08091500427
:102B500090915104911182609091E800977F909339
:102B6000E8008093F1001092F1008091E8008E77E8
:102B7000AAC1882309F498C1823009F0A8C18091C4
:102B8000550481119BC1809157048F702FEF280F3E
:102B9000263008F09CC18093E9002091EB0020FFD3
:102BA0008DC1933031F48091EB0080628093EB0013
:102BB00085C19091EB0090619093EB0021E030E0B3
:102BC00001C0220F8A95EAF72093EA001092EA00EA
:102BD0008091EB008860EACF811179C11091550492
:102BE0001F778091E3008078812B8093E3008091B0
:102BF000E800877F8093E8000E9467048091E800E6
:102C000080FFFCCF8091E30080688093E30082E046
:102C1000111183E080935B045AC18058823008F020
:102C200056C120915504309156042C3DE3E03E07F7
:102C3000A1F583E08A838AE289834FB7F894DE01A5
:102C4000139620E03EE051E2E32FF0E0509357006E
:102C5000E49120FF03C0E295EF703F5FEF708E2F8D
:102C600090E0EA30C0F0C7968D939D932F5F24319A
:102C700059F74FBF8091E800877F8093E8006AE2B0
:102C800070E0CE0101960E9419058091E8008B77D3
:102C90008093E8001CC1C096E7CF809157049091C3
:102CA0005804432F55274330510509F44AC078F59D
:102CB0004130510509F485C08BE590E0E6E3F6E08C
:102CC0004230510509F003C12091E800277F20938D
:102CD000E8002091590430915A048217930708F4B0
:102CE0009C0140E02115310509F070C041116EC012
:102CF0008091E80082FDC9CF80915B04882329F28E
:102D0000853019F28091E80083FFF2CFBECF4132C7
:102D1000510509F447C04232510509F0D8C083304B
:102D2000910508F0D4C0FC01EE0FFF1FEA58FE4FDA
:102D30000190F081E02D8D589E4FDC018C9190E048
:102D40001DC0332721303105E9F02115310579F017
:102D500022303105F9F02330310509F0B8C0E3EA3B
:102D6000F6E0E4918E2F90E0E3EAF6E007C0E3EFAF
:102D7000F6E0E4918E2F90E0E3EFF6E0009709F49F
:102D8000A6C0A2CFEFEDF6E0E4918E2F90E0EFED3C
:102D9000F6E0F4CFE1ECF6E0E4918E2F90E0E1EC88
:102DA000F6E0ECCF8330910508F091C0880F991FB1
:102DB000FC01E458FE4F0190F081E02D89E090E0A5
:102DC00083CF82E190E0E1E9F6E07ECF80915B0481
:102DD000882309F45ACF853009F457CF8091E80051
:102DE00083FD53CF8091E80082FD82CF8091E8007F
:102DF00080FF78CF9091F3008091F200211531058A
:102E000019F08830910550F041E0089709F040E052
:102E10008091E8008E778093E80064CF44914093DE
:102E2000F1003196215031090196E8CF803809F040
:102E30004EC08091E800877F8093E8008091520423
:102E40008093F10092CE811142C01091550412304E
:102E5000F0F58091E800877F8093E800109352049A
:102E60000E946704112311F084E005C08091E30003
:102E700087FDFACF81E080935B0442E061EC81E062
:102E80000E94860442E261EC84E00E94860442E2F1
:102E900061EC82E00E94860442E260EC83E00E94E2
:102EA000860480915B0413C080915504813079F4CD
:102EB00081E0933009F080E0809351041092E900A2
:102EC0008091E800877F8093E8000E9467048091EA
:102ED000E80083FF0AC08091E800877F8093E800C4
:102EE0008091EB0080628093EB00AA960FB6F89475
:102EF000DEBF0FBECDBFDF91CF911F9108956AEE67
:102F00007EEF90E080E00E94753260E082E090E029
:102F10000E94573260E083E090E00E9457321092A6
:102F20005C0460E084E090E00E94573260E082E25E
:102F300090E00E94573260E085E090E00E945732B6
:102F400060E086E090E00E9457326FEF87E090E00B
:102F50000E94573240E050E0BA0188E090E00E94C1
:102F6000693260E08DE090E00E94573240E050E02E
:102F7000BA0188E190E00E94693260E087E190E068
:102F80000E94573240E050E0BA018CE190E00E948C
:102F9000693270E060E080E290E00E94753240E0CB
:102FA00050E0BA0188E190E00E94693280E00E941E
:102FB000E3120E94C41340E050E0BA018FE090E0B9
:102FC0000E94693240E050E0BA0183E190E00C9445
:102FD00069328F929F92AF92BF92CF92DF92EF921F
:102FE000FF920F931F93CF93DF9300D000D0CDB704
:102FF000DEB77C01DC0113964D915C91149711961C
:103000006C9111978C910E94CE058111E1C061E015
:10301000C7010E94D8118C01F7018281811177C00C
:10302000D70112968C918111B1C00031BFE51B0709
:1030300009F456C10131EFE51E0709F455C16801D5
:1030400027E5D21A882309F451C13FEFC316D104F2
:1030500009F008F47DC18091610380FF39C00E94AE
:103060008A056C01D70112968C91882309F4EDC171
:103070008091180182FF08C02EE032E040E0B601E6
:1030800090E080E00E94680F0B31BCE51B0709F45B
:10309000CEC10C31ECE51E0709F4CFC190911801A7
:1030A000892F8E7F90FF81600A31FCE51F0709F4AC
:1030B000C7C1C8019056811520E2920728F0905EA2
:1030C0008115904108F0CFC11092B2021092B10266
:1030D000033FBCE51B0709F416C308F0B4C2083D62
:1030E000FCE51F0709F409C3093D2CE5120709F4A3
:1030F00022C3073D3CE5130709F0B1C206E221EE09
:1031000041EE67ED7CE5C7010E94D60E51C080916B
:10311000000190910101019609F482CF6DE6C62E5F
:1031200063E0D62EB12CA12C9924939480910001B8
:10313000909101018A159B050CF472CFF6018681EE
:103140008823E9F0818592850817190739F4809161
:103150006B0390916C030817190789F0D6011F962D
:103160009C921F971C961C930E931B97C6010E945E
:10317000C10AC60106960E947C0A10925E04BFEF47
:10318000AB1ABB0AE6E1CE0ED11CD0CF980122517A
:103190003F452031310508F0B7C68FEF93E00E941C
:1031A00049325EEED52ED00E0BE312E0882369F192
:1031B00080910602877061F0D70112968C91882366
:1031C00039F08091290482FD03C082E00E94430C03
:1031D0000F900F900F900F90DF91CF911F910F9153
:1031E000FF90EF90DF90CF90BF90AF909F908F9027
:1031F00008950115F4E01F07D9F2C8010E94493271
:10320000811101C0DA940F5F1F4FD110F2CF1982E4
:103210001A821B821C82CC24CA9448012FEF821A86
:10322000920AC8010E94493289831A82882309F4CC
:10323000BFCF813009F048C0580132E0A30EB11C65
:10324000C4010E944932982E8A83882309F4B0CFA2
:10325000C5010E944932D82E8FEF890D833068F462
:10326000580143E0A40EB11CDB82DD2021F0CE0129
:1032700001960E9424108501D0CF54E09512FBCF17
:10328000580184E0A80EB11CC80103960E9449327F
:10329000DD2009F48DCF882309F48ACF8150990B62
:1032A000C89E9001C99E300D1124AD2DA150BB0BBD
:1032B000CD01820F931F0197F0F2EFE9FFE0319704
:1032C000F1F700C00000F7CFCE0101960E94241054
:1032D0005401D1CF81E00E945F0C0E942C0C68CF7A
:1032E00081E00E94370CF9CF82E0FBCF4FEFC4168C
:1032F000D10411F008F0AFCE6CE472E08C2D0E9486
:10330000D313892B29F586E18C9DF0018D9DF00D5D
:103310001124E359FC4F8681813009F062C080910D
:103320004C0290914D02892B99F080914E02909120
:103330004F02892B69F080915002909151022091A7
:10334000520230915302822B932B892B09F453C0E4
:1033500080910001909101018C159D0524F4D0927B
:103360000101C0920001F701828196E19C9D50010C
:103370009D9DB00C1124950123593C4F6901D90141
:1033800050968C935097928116968C91169799230C
:1033900009F43FC01A961C930E9319978F5F1696E7
:1033A0008C930E948A05F6019687858780910A0290
:1033B000878380915E0490918E02892B8087019093
:1033C000F081E02D309741F0D60154966D917C91BB
:1033D000C5018D589C4F099510936C0300936B03A6
:1033E0003ACE823009F0B4CF8091500290915102D0
:1033F000892B09F4ADCF26E12C9DC0012D9D900DA8
:10340000112483599C4FDC0150961C920E94C10AE2
:103410009FCF882309F41FCEF9018189882309F4FD
:103420001ACEC5018D589C4F0E947C0A14CE809103
:1034300018018160809318013CCE809118018E7F25
:10344000809318010E94E20A34CE809118018F7E89
:10345000013E110531F0053E1105C9F480911801B6
:103460008F7D809318018091180180FF31CED701A4
:1034700012968C910832110528F50E31110508F0CD
:1034800074C00430110580F581111ECE21CEC80113
:103490009056811540E2940720F0905E811590418E
:1034A00010F78091180182FF13CE8091630381FD94
:1034B0000FCE2EE032E040E0B60190E080E00E94C6
:1034C000680F06CE0933110558F40D32110518F4B2
:1034D0000B321105C9F69091610392FDD5CF08C05A
:1034E00004361105C1F3D0CF9091610394FDCCCF88
:1034F000882309F4A1C090918E0280910A02282F9E
:10350000292B322F3D7FB1F11092B2021092B102FD
:103510003091610331FD2EC0F80143E0F695E79547
:103520004A95E1F7EE71FF27E157FD4F98012F70A3
:10353000332781E090E002C0880F991F2A95E2F7B7
:10354000809590952081318182239323918380837C
:1035500060E0C8010E94540F80910A028D7F0E9492
:10356000DF0982E00E94430C23CE9091610393FD1A
:103570008BCFBECF38E0F701AEE0B2E001900D9204
:103580003A95E1F710921002109212021092110275
:10359000A090B102B090B2020A151B05B1F53091AE
:1035A000610335FF32C04091180141FB992490F826
:1035B00041FF02C036FF29C04091AF025091B002D6
:1035C000B601641B750B40915E0350915F03641755
:1035D0007507D8F491FF08C080911801806180932D
:1035E000180182E00E94FA0980918E0285FF08C0CE
:1035F0008091180180628093180180E20E94FA098C
:10360000692DC5010E94540FD3CD9091180121FB63
:1036100091F9909318018D7F0E94DF091093B202F7
:103620000093B102D092B002C092AF028091180113
:1036300084608093180195CF970140E0B601C801DE
:103640000E94680FB5CD053F4CE5140709F467C02B
:1036500008F45FC0063F8CE5180709F466C0D7017F
:1036600012963C91332309F45BC410926A03033031
:10367000BDE51B0708F065C00A3FECE51E0730F406
:10368000C80182509C45449708F060C00E94FF1119
:10369000909329048093280400312CE5120709F443
:1036A00061C108F0DDC008304CE5140709F448C1D9
:1036B00008F0AFC004308CE5180709F433C108F0F6
:1036C00095C00230ACE51A0709F426C180912804A0
:1036D000826003301C4509F422C1609128041091D6
:1036E000290484E090E00E945732612F82E290E04A
:1036F0000E9457320E9496145BCD07E225EE45EEFC
:1037000068ED7CE500CD06E221EE40EE63EF7CE55E
:10371000FACC07E225EE44EE64EF7CE5F4CC06E259
:1037200021EE42EE65EF7CE5EECC07E225EE46EEBB
:1037300066EF7CE5E8CC08E221E045EE69ED7CE54A
:10374000E2CC0136FDE51F0709F4A0CF06315CE5A8
:10375000150709F4E9C30A354DE5140709F453C107
:1037600008F02FC101158CE5180709F43CC10E3D86
:103770001C4509F445C1F70186819781009709F43A
:1037800046C10E944C08182F092FF701D280C5802E
:10379000C2943FE0C322809106028770C1F0AD2C35
:1037A000DD20B1F0892F807F803421F080E2810F0D
:1037B000883068F08091290482FD09C082E00E946F
:1037C000430C809106028770AA24A3948111A12C36
:1037D000902E92942FE09222FBE0F91508F4A4C1F8
:1037E000E92DF0E0E355FD4C0C940632809128045D
:1037F00080610630ECE51E0709F491C08091280431
:10380000886007301C4508F48AC0809128048062D3
:1038100086C0809128048D7F0C302CE5120709F4B6
:103820007EC070F4809128048C600A304CE5140747
:1038300009F475C008F488C0809128048E7F6FC099
:103840000E308CE5180709F485C0809128048B7F21
:103850000F301C4508F463C0809128048F7E5FC040
:103860000C3FACE51A0709F479C068F50431ECE5C2
:103870001E0709F48BC080F402312CE5120709F40D
:1038800075C0809128048F7B03311C4508F447C024
:1038900080912804837F43C00A3F4CE5140709F454
:1038A00045C008F049C005311C4509F016CF80918C
:1038B000280482FB992790F921E0922790FB82F956
:1038C00090FB83F92CC001159DE5190709F454C03C
:1038D00088F48091290483600E3FBCE51B0749F101
:1038E000809129048D7F0F3F1C4518F18091290498
:1038F0008C7F1FC00230FDE51F0709F456C008F495
:103900004EC001361D4509F0E8CE90912804892F5C
:103910008F7E94FF806103C0809128048160809332
:103920002804DBCE809128048460F9CF809129049B
:10393000816080932904D1CE809129048260F9CFDF
:10394000809128048064EBCF0E9496148091280413
:103950008068E5CF80912804877FE1CF809129049A
:103960008E7FE7CF809128048F7DD9CF0E94961457
:10397000809128048F77D3CF80912904982F909538
:1039800091708E7F892B90FB81F9D3CF0E94961482
:1039900090912804892F97FB87F98058C0CF61E068
:1039A0008EE090E00E94573298CE60E0F9CF80918F
:1039B000A401811104C089E20E94060BE0C285E3E4
:1039C000FBCF0B35ADE51A0701F10C351D4509F0AC
:1039D000D2CE8091290482FB882780F991E0892743
:1039E0000E94FB12C8CE0E949614EFEFF4E32CE085
:1039F000E150F0402040E1F700C000000E94D50DEA
:103A00000E947F17D5CB81E0EBCF80E0E9CF8281A8
:103A100000811181882369F0C8010E946611D82EA7
:103A2000682FC8010E94BC0BB8018D2D0E944A115D
:103A3000A8CEC8010E948F0BD82EF6CF202F2F7052
:103A4000B22E802F807F19F0B29490EFB922DD2042
:103A5000A9F0BB2059F080E2810F883010F01111DD
:103A600007C08B2D0E94010A0E94280A812F5AC08C
:103A700080915E04B82AB0925E04F6CF812F0E9436
:103A8000A30CBB2009F450C080E2810F883010F0F5
:103A9000111104C08B2D0E94FA0903C08B2D0E94C6
:103AA000F3090E94280A40C0302F3F70B32E802FA8
:103AB000807F803219F0B29480EFB822112321F177
:103AC000113009F4A4C0DD2009F4ADC0CC2009F404
:103AD0007DC020E0D7014C9111965C911197129610
:103AE0006C91129713967C91139714968C910E9467
:103AF000AF118091630381FDB9CFF701858180FF0C
:103B0000B5CF8F70858362C08091290482FF40C049
:103B1000DD20C1F1BB2029F08B2D0E94010A0E94FB
:103B2000280A80E00E94030EA92DA850BB0B149711
:103B300010F40E94C205812F902F0E94EC0B81117E
:103B4000C4C11092A6011092A501AA20B1F08091E3
:103B5000060280FD12C0D70112961C9285958595AC
:103B600085950E945F0CC7010E94E91780910602AB
:103B70008595859585950E94370C60E0C7010E9468
:103B8000D81126CB80E00E94A30CBB2069F282CF23
:103B9000DD2001F1C11004C080910A028B2917C0F9
:103BA00041E0C41206C080910A028B290E94DF09FD
:103BB000BBCF80916203823078F3C812EDCF0E94B0
:103BC000D40980910302B812B09203028B2D0E9497
:103BD0009C0CAACFC11006C00E94D4098B2D0E9454
:103BE000950CA2CF8091620351E0C5120BC08230C8
:103BF00008F49ACF80918E028B2109F495CF0E9410
:103C0000000BEACF823040F3C812E6CF8DCFDD2023
:103C100029F085E08C1508F487CFD8CF94E09C1567
:103C200008F482CFDBCFCC20C9F28091660390915B
:103C30006703193321F080916403909165030E941A
:103C4000F90D812F0E94A30C6FCF802F869586954A
:103C5000837069F0813009F067CF812F902F9370C6
:103C6000D11002C090E080E00E9496055DCF812FC8
:103C7000902F9370D11002C090E080E00E94AC05BC
:103C800053CF812FDD2029F00E9488070E9446062D
:103C90004BCF0E946D06FACF802F837091F5D11023
:103CA00043CF412F429546954770440F440F812FD3
:103CB0008F70042E01C0880F0A94EAF7212F20711B
:103CC00014FF07C02FE030E001C0220F4A95EAF749
:103CD0002095302F369536953370323069F050F498
:103CE00040915C04313029F0822B84230E94800CA7
:103CF0001BCF842B822BFACF282B80915C04822748
:103D0000F5CF8695DD2011F0802F8170882309F48E
:103D10000BCF412F429546954770440F440F812F9A
:103D20008F70042E01C0880F0A94EAF7212F2071AA
:103D300014FF07C02FE030E001C0220F4A95EAF7D8
:103D40002095302F369536953370323069F050F427
:103D500040915D04313029F0822B84230E94280C8D
:103D6000E3CE842B822BFACF282B80915D0482270F
:103D7000F5CFF02FFF70BF2EDD2029F08F2F0E948E
:103D80005F0C812F24CF812F0E94950C8B2D0E94D8
:103D9000370CCACE123F89F160F4103FB9F0113FE1
:103DA00081F0DD2009F48CC0C11060CE802F8F71AE
:103DB00028C0133F49F1143FA1F78091290482FFE5
:103DC0002FC0802F8F71DD2011F31BC0DD2081F00B
:103DD00024E02C1508F4A8CE202F2F7181E090E06C
:103DE00001C0880F2A95EAF790915D048927B6CF24
:103DF00035E03C1508F498CEEFCF802F8F71D110AD
:103E0000C6CF0E945F0C90CE80E0DD2009F4A6CFE3
:103E100081E0902F9F7101C0880F9A95EAF79ECF9D
:103E2000809162038230A0F180910302DD20F1F0E5
:103E30000E94FA09809106028770843041F40E9442
:103E4000070A802F8F710E94370CA12C6DCE8091B4
:103E50006203C816D0F7402F4F71B42E842F0E94F2
:103E60005F0C63E08B2D0E946A0CEFCF0E94010A69
:103E700080916203C81640F00E94070A0E94000B5E
:103E800064E0802F8F71EFCF81E00E94430CDDCF83
:103E9000DD2059F0502F5F71B52E852F0E945F0CE9
:103EA00063E08B2D0E946A0C3FCE81E00E94430CA0
:103EB00081E08C1508F038CE82E00E94430C34CEAD
:103EC000C110B3CE802F8F7162CFDD2019F0C110E9
:103ED00038CE3BCEC11035CE20E0F7014081518174
:103EE0006281738184810E94AF118091630383FF9B
:103EF00028CE8091A5019091A601029709F021CECC
:103F0000812F0E94B50E1DCE0031FFE51F0709F479
:103F1000E1C901312FE5120709F091C882E0DBC940
:103F200006311C4509F027CC80918E02982F9A7A91
:103F30002091600320FF04C0482F447409F090E0F2
:103F400021FF04C0482F417109F090E022FF04C016
:103F5000482F487809F090E023FF03C0827209F0EF
:103F600090E0332309F423CD81E0911101C080E07A
:103F70008093A40189E2911185E30E94310B0E9494
:103F8000280A16C9CF92DF92EF92FF920F931F93E8
:103F9000CF93DF938091BE01807F31F48091BB018C
:103FA000C091020281110BC0DF91CF911F910F913F
:103FB000FF90EF90DF90CF9008952196C770809189
:103FC000C1018C1789F3F090B901E090BA01C0905B
:103FD000BC01D090BD01A6016E2D8F2D0E94CE0593
:103FE000D0E08111EACF8E0183E0000F111F8A9586
:103FF000E1F7F801EE53FE4F81818E11DECF808113
:104000008F11DBCF82818111D8CFE380F480EC184F
:10401000FD0860E089EB91E00E94D81180915E0379
:1040200090915F03E816F90640F68091BE018F700B
:1040300080618093BE01F801E953FE4F80818F704B
:104040008061808389EB91E00E94E917DF91CF9135
:104050001F910F91FF90EF90DF90CF900C94850B04
:104060003F924F925F926F927F928F929F92AF9208
:10407000BF92CF92DF92EF92FF920F931F93CF9355
:10408000DF93CDB7DEB765970FB6F894DEBF0FBEEE
:10409000CDBF8C0185E0F801DE01519601900D92B3
:1040A0008A95E1F7D8014C9011965C901197129681
:1040B000EC9012971396CD90DC9060E089EB91E044
:1040C0000E94D81189EBA82E81E0B82E8090BC0107
:1040D0009090BD01A4016091BA018091B9010E9444
:1040E000CE058111CAC1F090BB01F601E819F909AA
:1040F0004F0160E0FF2009F46DC1C5010E94D81195
:1041000060905E0370905F033090BE018614970448
:1041100008F013C14091BC015091BD01B090B901AC
:10412000A090BA01832D807F6A2D09F0ADC08B2D40
:104130000E94CE05FE2C81113BC0D80111968C91B6
:1041400011978A1135C08C918B1132C02091BF011B
:104150003091C00116968D919C912817390741F531
:10416000E11026C0832D8F7080618093BE0189EBA2
:1041700091E00E94E9178091BE01F80185838F2D9F
:1041800065960FB6F894DEBF0FBECDBFDF91CF911D
:104190001F910F91FF90EF90DF90CF90BF90AF9065
:1041A0009F908F907F906F905F904F903F90089579
:1041B000F4EF6F16F1E07F0620F48091630380FF37
:1041C00021C0A601652D842D0E94CE05811118C045
:1041D00081E08E2580FF16C04E2D652D842D0E9416
:1041E000650B882379F089EB91E00E94E91788E05C
:1041F000E9EBF1E0DF011D928A95E9F7F12CBFCFE1
:1042000080E0E8CFA601652D842D0E94CE058111A6
:1042100024C081E08E25B82FB170CB2E80FF2BC03B
:104220004E2D652D842D0E94650BD82E811123C043
:10423000498A5A8A89899A890E949511292F22953B
:104240002F70223060F0243088F49F7061F0F80104
:104250009581907F41F4FD2C92CF80E0DCCF9F7060
:1042600011F08823C1F3805E8830A8F3C8010E9452
:10427000E917DC2CF0CFEE2009F481CF8091BE014C
:1042800081608093BE01BACF8B2D0E94CE05811133
:1042900024C0D80111968C9111978A111EC08C915F
:1042A0008B111BC02091BF013091C00116968D91DA
:1042B0009C9117972817390781F4E1100EC01596C5
:1042C0003C92C8010E94E91788E0F801A9EBB1E02F
:1042D00001900D928A95E1F752CFC8010E94A11179
:1042E000882339F1EE2029F18091BE018032A0F0BF
:1042F0002091B9013091BA013A8729871B86DD8662
:10430000CC868E878091BF019091C001988B8F875A
:10431000CE0109960E94E91788E0F801A9EBB1E007
:1043200001900D928A95E1F70E94C21FFF24F39439
:1043300026CFC8010E94E917F9CF832D807F09F4A9
:1043400052CF9090B9018090BA014091BC01509138
:10435000BD01682D892D0E94CE0581111CC0F80178
:104360008181881118C08081891115C02091BF01F9
:104370003091C001868197812817390761F4E110D7
:104380000AC03582C8010E94E91788E0D5011D9254
:104390008A95E9F7F4CEC8010E94A111882349F259
:1043A000EE2039F28091BE01803208F4B5CF209121
:1043B000B9013091BA013A8329831B82DD82CC8214
:1043C0008E838091BF019091C00198878F83CE0129
:1043D0000196A0CF89EB91E00E94D81180915E03F5
:1043E00090915F038816990680F6FE2CEE2009F462
:1043F000A0CFE090B901D090BA014091BC0150919A
:10440000BD016D2D8E2D0E94CE05811128C0F801B1
:1044100081818D1124C080818E1121C02091BF0126
:104420003091C0018681978128173907C1F48091A6
:10443000630382FD49CF9091BE0190FD45CF907FEF
:1044400009F442CF8091BE018583903F09F439CFB2
:10445000982F907F905F8F70892B858332CFC80112
:104460000E94A111811158CF8091BE01816080937B
:10447000BE01C8010E94E91782CEEE2009F459CF8F
:10448000C8010E94A111F82E882309F452CF88E0B8
:10449000F801A9EBB1E001900D928A95E1F78091C6
:1044A000B9019091BA010E9495110E94C21F67CE76
:1044B000CF93DF93CDB7DEB760970FB6F894DEBF2A
:1044C0000FBECDBF29873A874B875C876D877E8774
:1044D0008F87988BCE0109960E94302081112FC0C2
:1044E00088E0FE013996DE01119601900D928A95C1
:1044F000E1F74C855D856A8589850E94CE0581112D
:104500001EC0A091C101B0E0CD010196877099272E
:10451000209102022817190609F193E0AA0FBB1F88
:104520009A95E1F7AE53BE4F98E0FE0131960190A7
:104530000D929A95E1F78093C1010E94850B8091BD
:1045400002029091C101891317C060960FB6F894CA
:10455000DEBF0FBECDBFDF91CF9108950E949614AC
:104560001092C1011092020288E0E9EBF1E0DF0154
:104570001D928A95E9F7E3CFB8E08B9FC001112423
:104580008E539E4F0E9430208823F9F280910202C0
:1045900090E001968770992780930202D0CFEF9226
:1045A000FF920F931F93CF93DF938091B6028823DE
:1045B00061F0C091B5028CE0F82E8091B602C81768
:1045C00058F01092B6021092B502DF91CF911F9170
:1045D0000F91FF90EF900895EE24E394EC0EE0929B
:1045E000B5020C2F10E0CF9DE0011124C954DD4F1E
:1045F0004B815C81698188810E94CE0581111BC03D
:104600008E819F81892B21F488859985019651F4AB
:10461000288139814A815B816C817D818E819F8176
:104620000E945822F09EF001F19EF00D1124E954F1
:10463000FD4F14821382CE2DC0CF109245031092ED
:1046400044031092190180914303809342030E9416
:1046500007060C94CF223F924F925F926F927F9207
:104660008F929F92AF92BF92CF92DF92EF92FF9282
:104670000F931F93CF93DF93C091420397E0892E4E
:1046800001E010E02CE0322E3EEF932E44244394C0
:10469000809143038C1315C00E94CF22DF91CF91EC
:1046A0001F910F91FF90EF90DF90CF90BF90AF9050
:1046B0009F908F907F906F905F904F903F900C9461
:1046C0000706D0E0FE01EE0FFF1FE65CFC4F808185
:1046D0009181889ED001899EB00D1124A95EBC4FA6
:1046E00014962C911497211157C05090B602E7EB05
:1046F000F2E030E020E0712C5D01251508F04AC0A1
:10470000E284F384D501CD90DC906FEF7FEF612CD4
:10471000462D50E0DA01AA0FBB1FAC0DBD1D0D9058
:10472000BC91A02D109731F0EA16FB0609F4BA01EE
:104730006394EECF6F3F7607A1F1D80102C0AA0FB4
:10474000BB1F6A95E2F77A2AB80102C0660F771F8D
:104750006A94E2F7AB014150510974161506F9F459
:10476000329EF001339EF00D1124E954FD4F889ED6
:10477000D001899EB00D1124A95EBC4F12962D91D7
:104780003C9113973783268390829182918780870B
:1047900015964C920E94D9052196C37079CF148248
:1047A00013822F5F3F4F3C96A8CF6F927F928F92DC
:1047B0009F92AF92BF92CF92DF92EF92FF920F93B0
:1047C0001F93CF93DF93CDB7DEB728970FB6F8943A
:1047D000DEBF0FBECDBF8E010F5F1F4F88E0F80117
:1047E00011928A95E9F794E5E92E91E0F92E680196
:1047F00066246394712C33E6832E31E0932EF70107
:1048000081917F018F3F09F445C0F894E82FE2952C
:10481000EF70F0E021A18F70A30102C0440F551F7B
:104820008A95E2F7CA01922F982B91A392A18095C5
:10483000892382A3789400C0E8E5F1E021E030E02C
:10484000B12CA12C41914F3F09F478C0A42FA2951F
:10485000AF70B0E090968C9190E04F7002C095954B
:1048600087954A95E2F780FD69C0C901A82AB92A4F
:10487000220F331F8E169F0629F7F701319780818B
:104880008F3F11F00E94F20750EA5A95F1F7F601B6
:10489000B182A082F2E0CF0ED11C28E5E21621E021
:1048A000F20609F0ACCF48E050E0B80186E192E0B2
:1048B0000E941C32DD24D394009709F4D12C892B5B
:1048C00009F43FC088E0F801A6E1B2E001900D9242
:1048D0008A95E1F781E080930D020E948A0590930A
:1048E0000C0280930B0280910B0290910C020E94AB
:1048F0007B05059750F180911602909117029093D5
:10490000300280932F0280911802909119029093A7
:1049100032028093310280911A0290911B0290938F
:1049200034028093330280911C0290911D02909377
:1049300036028093350210920D0207C090E080E0AD
:1049400095CF80910D028111CECF80910001909181
:10495000010110E006E1019609F06BC08091190198
:10496000811171C08091610380FF1EC08091180188
:1049700082FF1AC00E948A052091AF023091B002D6
:10498000AC01421B530B20911601309117014217C5
:10499000530750F02EE032E041E0BC018091B102BB
:1049A0009091B2020E94680F8D2D28960FB6F89450
:1049B000DEBF0FBECDBFDF91CF911F910F91FF9052
:1049C000EF90DF90CF90BF90AF909F908F907F90AF
:1049D0006F900895089FF001099FF00D1124E3598D
:1049E000FC4FE288F388E114F10421F4E0905E03C7
:1049F000F0905F03089FF001099FF00D1124E35927
:104A0000FC4F86818823A1F0858596850E947B05D1
:104A1000E816F90668F4109F70011124C701835944
:104A20009C4F0E94C10AC7018D589C4F0E947C0A6E
:104A30001F5F812F90E02091000130910101281724
:104A4000390744F68BCF809144039091450300973A
:104A500009F488CF0E947B052091B3023091B40203
:104A60002817390708F07ECF9091420380914303C5
:104A7000981759F00E942B231092B4021092B3029F
:104A800010924503109244036DCF0E94CF221092E2
:104A90004503109244030E94070664CF2F923F9271
:104AA0004F925F926F927F928F929F92AF92BF923E
:104AB000CF92DF92EF92FF920F931F93CF93DF93EA
:104AC000CDB7DEB769970FB6F894DEBF0FBECDBF86
:104AD000942F498B252F5A8B6B8B7C8B8D8B4C891C
:104AE0005D89622F892F0E94CE05811109C08091B6
:104AF000A5019091A60101969093A6018093A5012E
:104B00008B89811110925E041D861E861F86188A6D
:104B100085E0FE017196DE01199601900D928A954D
:104B2000E1F78091290482FD1EC080914803909195
:104B30004903892BC1F00E948A052091040230911B
:104B40000502821B930B2091480330914903821781
:104B5000930720F08091060282FFF5C10E940E0AA1
:104B600081110E94D4094C855D856A8589850E94E2
:104B7000CE05811111C061E0CE0109960E94D811C5
:104B80006C018B8527EFC2162CE5D20681F48823B1
:104B900021F181E08093190129853A854B855C8557
:104BA0006D857E858F8598890E945822C5C038EF13
:104BB000C3163CE5D30629F4882379F00E941D230F
:104BC000EBCF49EFC4164CE5D40639F4882329F01D
:104BD000809119018111F2CFDCCF07E113E0512C54
:104BE000B12CA12C22242394312C2EEF422EF8013B
:104BF0004081518188248A94982C20E0822F90E073
:104C0000FC01EE0FFF1FE40FF51F6081718161153C
:104C1000710531F0C616D70609F44C012F5FEECFAF
:104C2000F12CFFEF8F169F0609F448C0F80144816C
:104C3000F09019018F2D411180E0F82FF170FF2EB7
:104C4000F801E58086819B85992309F40CC1FF203A
:104C500009F409C160905C0370905D03E11012C01B
:104C6000A10101C0440F8A94EAF7842B86838091C6
:104C7000B3029091B4028615970520F47092B402A5
:104C80006092B302C10102C0880F991F2A95E2F712
:104C90000197F80126812817190681F480914403B1
:104CA00090914503009709F460C00E947B05681647
:104CB000790608F05AC021E0F80124835F28FFEF4D
:104CC000AF1ABF0A095F1F4F25E0A216B10409F011
:104CD0008ECF8B85882309F421C1552009F41EC18C
:104CE0000E948A0590934503809344038091B60205
:104CF000883010F591E0980F9093B60298E0FE018D
:104D00003996DE01119601900D929A95E1F73CE0FB
:104D1000839FC001112489549D4F28E0FE013196E4
:104D2000DC0101900D922A95E1F72FEF3FEFFC0196
:104D300031872087D386C28669960FB6F894DEBF86
:104D40000FBECDBFDF91CF911F910F91FF90EF90DC
:104D5000DF90CF90BF90AF909F908F907F906F909B
:104D60005F904F903F902F90089580914203509113
:104D70004303982FF0E0E0E0851314C090934203C2
:104D8000E017F10709F49ACF90E0FC01EE0FFF1F46
:104D9000E65CFC4FB182A0820196837099278093D4
:104DA00043038CCF682E712CF301EE0FFF1FE65CDE
:104DB000FC4F2081318147E0429FD001439FB00DDD
:104DC0001124A95EBC4F6D917C911197798F688FEA
:104DD00040E020E030E0E32FF0E0EE0FFF1F688DB1
:104DE000798DE60FF71F8080918081149104E1F0A6
:104DF000F8010190F081E02DFF8BEE8B20E005C0E3
:104E00008616970609F44F2D2F5FE22FF0E0EE0F84
:104E1000FF1F6E897F89E60FF71F60817181611521
:104E2000710571F73F5FD7CF4423D1F0F801231705
:104E300008F0FD0121E024830E171F0721F4909351
:104E40004203F42E3BCF981305C0AE17BF0711F4F1
:104E50009F5F937093012F5F3F4F822F83708CCFA2
:104E6000F0E0E0E0F7CF90E0E1101FC0B10102C038
:104E7000660F771F2A95E2F79B01215031098217AF
:104E8000930731F4442309F447C0C5010E94D905B2
:104E9000C10101C0880F8A94EAF7982F9095F80114
:104EA000868189238683FE2C09CF9C01082C02C0B1
:104EB000359527950A94E2F7A90141705527BC0161
:104EC0006150710986239723892B11F5452B01F138
:104ED000F80182819381892BC1F01B821C821D8283
:104EE0001E8249824A820E948A058160582F9D83D2
:104EF0008C83F801828193818F83988729813A81FD
:104F00004B816D817E810E945822F8011582C0CFAD
:104F1000F22FF170EF2EBCCFEF2CBACF909142035D
:104F200080914303981731F00E942B23552009F4F8
:104F300033CE02CF0E94CF22109245031092440339
:104F40000E940706F3CF82E00E94430C07CECF9366
:104F5000DF9300D000D00F92CDB7DEB790938B02D5
:104F600080938A02811520E2920748F40F900F90F7
:104F70000F900F900F90DF91CF910C942A0D8EEF30
:104F800089838A831B820E948A058160782F9D8392
:104F90008C8349815A816B818D810F900F900F9086
:104FA0000F900F90DF91CF910C944E250F931F938C
:104FB000CF93DF938C01EB016CE472E08C2F0E94A5
:104FC000D313892BA1F480916403909165030E940F
:104FD000F90DDD27CC5BDD4F8881F8011082188246
:104FE000833009F148F4813059F0823081F0DF914B
:104FF000CF911F910F9108958430D1F08530B9F78A
:1050000080914C0290914D02009789F306C08091E7
:105010004E0290914F02009799F3DF91CF911F912B
:105020000F910C94A7278091500290915102F3CFD9
:105030008091520290915302009779F720914C028F
:1050400030914D0280914E0290914F022115310511
:10505000D9F2009711F7C901E0CFCF93DF9300D0C9
:1050600000D00F92CDB7DEB790938B0280938A0267
:10507000811520E2920748F40F900F900F900F9047
:105080000F90DF91CF910C943D0F8EEF89838A832F
:1050900081E08B830E948A058160782F9D838C83B9
:1050A00049815A816B818D810F900F900F900F90E5
:1050B0000F90DF91CF910C944E25BF92CF92DF924B
:1050C000EF92FF920F931F93CF93DF93B82EC09070
:1050D0005D0480915C04C82AC7E0D0E0D12CF12C9B
:1050E000E12CD701C6010C2E04C0B695A795979563
:1050F00087950A94D2F780FF1FC04B2D60E08C2F5C
:105100000E94F2108C0181309105B1F00E942D288F
:105110008FE39CE90197F1F700C00000C8010E94ED
:10512000A72781E0DF91CF911F910F91FF90EF9022
:10513000DF90CF90BF900895219798F64B2D60E0B7
:1051400080E00E94F210EC010E942D288FE39CE980
:105150000197F1F700C00000CE01E1CFCF93DF93BC
:10516000EC010E942D2880916403909165030E94B8
:10517000F90DCE01DF91CF910C94A7270F931F93C8
:10518000CF93DF938C01862F6CE472E00E94D313DF
:10519000892BC9F4C0914C02D0914D02209799F00F
:1051A000F8018081833069F4CE010E94AE28CE01DF
:1051B0000E94AE28CE01DF91CF911F910F910C94E8
:1051C000AE288430B8F7DF91CF911F910F910895E9
:1051D0000F931F93CF93DF938C01EB016CE472E08C
:1051E0008C2F0E94D313892B09F064C0FE01FF2786
:1051F000D8018C91EC5BFD4F8130D9F419969C91CC
:105200001997992311F080830CC01A969C919923C9
:10521000D1F382E0808380914E0290914F020097FB
:10522000D9F480914C0290914D02009709F442C04C
:1052300013C08230E9F519968C91199781112DC010
:105240001A968C9181110EC083E080838091500268
:1052500090915102009719F1DF91CF911F910F9119
:105260000C942D2884E08083809152029091530207
:10527000009791F780914C0290914D020097F9F0C0
:105280000E94AE2880914E0290914F02009721F724
:1052900080914C0290914D02DFCF85E08083809118
:1052A0004C0290914D02009729F00E94AE28F0CF59
:1052B00086E08083DF91CF911F910F9108958091B7
:1052C0004E0290914F02B1CF1F920F920FB60F92E4
:1052D00011242F933F934F935F936F937F938F93FB
:1052E0009F93AF93BF93CF93DF93EF93FF93D091AF
:1052F000E900DF708091EC00C82FC17080FDC0E82C
:105300001092E9008091F000877F8093F0007894FC
:105310000E94AB141092E9008091F00088608093A5
:10532000F000CD2BCF70C093E900FF91EF91DF919A
:10533000CF91BF91AF919F918F917F916F915F912D
:105340004F913F912F910F900FBE0F901F90189586
:105350001F920F920FB60F9211242F933F934F93EA
:105360005F936F937F938F939F93AF93BF93EF93CD
:10537000FF938091E10082FF09C08091E20082FFEB
:1053800005C08091E1008B7F8093E1008091DA007D
:1053900080FF24C08091D80080FF20C08091DA0077
:1053A0008E7F8093DA008091D90080FF9DC080E1DC
:1053B00089BD82E189BD09B400FEFDCF81E0809303
:1053C0005B0480912D04811109C00E94C5030E94D5
:1053D000B8048091E20084608093E2008091E10053
:1053E00080FF17C08091E20080FF13C08091E2002F
:1053F0008E7F8093E2008091E20080618093E200E2
:105400008091D80080628093D80019BC85E0809399
:105410005B048091E10084FF2BC08091E20084FF57
:1054200027C080E189BD82E189BD89B5982F91703F
:1054300080FFFBCF8091D8008F7D8093D800809132
:10544000E1008F7E8093E1008091E2008F7E809367
:10545000E2008091E20081608093E200809152043A
:10546000882309F447C084E080935B0480915B0447
:105470008091E10083FF27C08091E20083FF23C079
:105480008091E100877F8093E10082E080935B045C
:10549000109252048091E1008E7F8093E100809110
:1054A000E2008E7F8093E2008091E2008061809331
:1054B000E20042E060E080E00E9486048091F0001B
:1054C00088608093F000FF91EF91BF91AF919F9121
:1054D0008F917F916F915F914F913F912F910F909D
:1054E0000FBE0F901F90189519BC10925B0410927C
:1054F0002D0474CF8091E30087FD93E090935B04CB
:10550000B5CF78941F921FB61F9211248F939F934B
:10551000AF93BF938091240490912504A091260419
:10552000B09127040196A11DB11D8093240490938E
:105530002504A0932604B0932704BF91AF919F91B7
:105540008F911F901FBE1F9018951F921FB61F921C
:1055500011248F939F93AF93BF9380912304811164
:1055600013C08091240490912504A0912604B09149
:1055700027044196A11DB11D809324049093250416
:10558000A0932604B0932704BF91AF919F918F9170
:105590001F901FBE1F901895CDB7DEB7E6970FB6C8
:1055A000F894DEBF0FBECDBF84B7877F84BF0FB630
:1055B000F894A895809160008861809360001092B3
:1055C00060000FBE80E890E00FB6F8948093610011
:1055D000909361000FBE85B7806885BF85B78068EE
:1055E00085BF80EF97E090938301809382010E94B2
:1055F000E7130E943D140E94CC100E94C5030E9434
:10560000B8048091E20084608093E20078948091F5
:105610005B048823A1F01091E9001F709091EC00C9
:10562000892F817090FD80E8182B1092E9008091FD
:10563000E80083FD0E94AB141F701093E90082E024
:1056400084BD93E095BD9AEF97BD80936E000E9454
:10565000E611811102C00E94C41383E90E94F2077F
:1056600085E90E94F20780EF0E94F20781EF0E9415
:10567000F20708E511E073E6E72E71E0F72ED80196
:105680008D918D018F3F11F00E94F207E016F10617
:10569000B1F788E0EFE2F2E0DF01282F1D922A95B2
:1056A000E9F7E6E1F2E0DF011D928A95E9F790E083
:1056B00080E00E9451328A3E9E4F21F40E94E61102
:1056C000811102C00E947F1782E090E00E9449325F
:1056D000809322020E94FF11909329048093280452
:1056E0000E94D523EFE3FCE93197F1F700C00000F9
:1056F0000E94D52380912F0280FF08C06FEF7FEFBB
:1057000090E080E00E9475320E94D50D83E090E029
:105710000E9449320E94800C25982D9A26982E9A34
:1057200083B185FB882780F91E9952C190E0892BAF
:105730008093200282E091E09093200480931F04E4
:105740008E010F5F1F4F80915B0450E1E52E62E1F7
:10575000F62E853009F478C10E94D523882359F0AC
:105760008FB7F89440912404509125046091260449
:10577000709127048FBFAFE2B2E0E3E2F2E0F12CD8
:10578000E12C7E2D8D919D91219131912817390722
:1057900009F46AC160E0CC24C394D12C28273927AE
:1057A000A9014C215D21452B09F458C16BA77CA7A9
:1057B0009C012C213D2191E0232B09F490E09DA731
:1057C0000E948A058160782F9FA78EA74BA55CA5B4
:1057D0006DA58FA50E944E25F701EE0FFF1FED5D11
:1057E000FD4F80819181C826D926D182C082E09167
:1057F0002002EE0FEE0FE093200283B185FB882795
:1058000080F98DAB1EAA1E9948C180E0ADA9BEA942
:105810008A2BE82BE0932002EF70F0E0ED59FE4F69
:10582000808190911F02890F80931F0220E08430B5
:105830004CF080911E028F5F80931E0280E00E94D8
:105840005D2821E080911F028D3F4CF480911E0263
:10585000815080931E0281E00E945D2821E08091AA
:105860001F02082E000C990B64E070E00E94F231D8
:1058700080931F02222359F08FB7F894409124049B
:105880005091250460912604709127048FBF86E013
:10589000EEE3F2E0D80101900D928A95E1F7C09015
:1058A0004002D0904102E0904202F09043021092F8
:1058B00040021092410210924202109243028C2D3B
:1058C0008D2991F080913C0290913D020E947B05D0
:1058D000AC0190913802992309F4E2C0809114013F
:1058E0008417150608F4EAC08E2D8F2991F0809157
:1058F0003A0290913B020E947B05AC0190913702E5
:10590000992309F41AC1809110018417150608F42F
:1059100022C18091400290914102892B90914202D4
:10592000892B90914302892B11F00E94460686E054
:10593000F801AEE3B2E001900D928A95E1F70E9482
:10594000C20590912102891721F00E94C20580931F
:10595000210280915B04843009F0F5CE83E08093CE
:10596000E9008091E80082FFEECE8091E80090E0AF
:1059700085FF0AC00E94E40360E2E62EF12C680174
:10598000882309F431C191E08091E8008B778093FE
:10599000E800992309F4D7CEE0908C02F0908D02B4
:1059A0008981E114F10409F42DC18E3F09F0B7C1DA
:1059B0008A81833020F08550833008F0B0C1EA81BD
:1059C000EE3008F0ACC1F0E0E754FD4C0C94063228
:1059D00092E0ADCE80915B04843021F110922304DB
:1059E00028E130E040E40FB6F894A89520936000D9
:1059F0000FBE4093600083B7817F846083BF83B70D
:105A0000816083BF7894889583B78E7F83BF0FB6FC
:105A1000F894A8958091600088618093600010924E
:105A200060000FBE80915104882371F00E94D5233D
:105A3000EFE2F2E081919191892B09F069C487E34B
:105A400092E08E179F07B1F780915B04853009F4CF
:105A5000C1CF0E9496140E94C2057ECE6F5FCC0C0F
:105A6000DD1C6B3009F09CCE9FEFE91AF90A24E0A7
:105A7000E216F10409F085CE8FEF88AB89AB1AAA44
:105A80000E948A058160782F9CAB8BAB48A959A9ED
:105A90006AA98CA90E944E25AACE82E090E0B6CEDB
:105AA00020911501BAE02B9F90011124241735078E
:105AB00008F01ACF9F5F9093380202C09F3FD1F742
:105AC000CC2059F00E9429079FEF1C140CF491E0A0
:105AD000899F802D112480934002DD2059F00E947F
