:100000000C94E2030C9429040C9429040C94290404
:100010000C9429040C9429040C9429040C942904AC
:100020000C9429040C9429040C94CE320C94A4331F
:100030000C9483320C9429040C9429040C94290404
:100040000C9429040C9429040C9429040C9429047C
:100050000C9429040C94AA320C9429040C942904BD
:100060000C9429040C9429040C9429040C9429045C
:100070000C9429040C9429040C9429040C9429044C
:100080000C9429040C9429040C9429040C9429043C
:100090000C9429040C9429040C9429040C9429042C
:1000A0000C9429040C9429040C942904050109805A
:1000B000A101850319012AB700150126B700950192
:1000C00075108100C0050C0901A101850419012AE0
:1000D000A002150126A002950175108100C00660DE
:1000E000FF0961A1010962150026FF00952075082E
:1000F00081020963150026FF00952075089102C052
:1001000005010906A101050719E029E715002501E8
:10011000950875018102950175088101050719008F
:1001200029FF150026FF00950675088100050819AE
:10013000012905950575019102950175039101C08D
:1001400009025B00030100A0FA0904000001030199
:100150000100092111010001224000070581030867
:10016000000A090401000203000000092111010036
:100170000122220007058203200001070503032056
:10018000000109040200010300000009211101001F
:10019000012232000705840320000A120100020038
:1001A000000008EDFE00000100010203011C0376BF
:1001B00000690061006C003A00660036003400639C
:1001C00000320062003300630000000C0362006133
:1001D0000062007900760000001E0345007900658A
:1001E0000020004F00680020004400650073006993
:1001F0000067006E00730000000403090429001466
:10020000001A000800150017001C0018000C00124E
:100210000013002A002B0004001600070009000A42
:10022000000B000D000E000F0033002800E1001D40
:10023000001B0006001900050011001000360037F1
:10024000003800E500E00000000000E200000002CD
:10025000512C000000015100000000E300A900142F
:10026000004B00C25CC05C17001C0018005200C3A9
:100270005CC45C4C00AA004A004E00070018002D28
:10028000002E00500051004F003400005CE100C51A
:100290005CC65CC75CC85C2F003000C95CCA5C37B8
:1002A000003100E500E00000000000010000000156
:1002B000002C000000010000000000005C3A003B40
:1002C000003C003D003E003F004000410042004332
:1002D0000044004500A8001E001F0020002100224D
:1002E0000023002400250026002700280039001ED6
:1002F000021F0220022102220223022402250226DA
:10030000022702E500E000000000000100000001FB
:10031000002C000000010000000000E30022232563
:100320002628292A2C2D2F3032333536383A3B3DBA
:100330003E4042434547494A4C4E50515355575908
:100340005A5C5E6062646668696B6D6F7173757725
:10035000797B7D7F81838587898A8C8E9092949624
:10036000989A9C9E9FA1A3A5A7A8AAACAEAFB1B333
:10037000B4B6B8B9BBBCBEBFC1C2C3C5C6C7C9CA83
:10038000CBCCCDCED0D1D2D2D3D4D5D6D7D7D8D945
:10039000D9DADADBDBDBDCDCDCDCDCDDDDDDDDDCA3
:1003A000DCDCDCDCDBDBDBDADAD9D9D8D7D7D6D5B5
:1003B000D4D3D2D2D1D0CECDCCCBCAC9C7C6C5C377
:1003C000C2C1BFBEBCBBB9B8B6B4B3B1AFAEACAAC4
:1003D000A8A7A5A3A19F9E9C9A98969492908E8C74
:1003E0008A89878583817F7D7B79777573716F6D4E
:1003F0006B6968666462605E5C5A59575553515028
:100400004E4C4A4947454342403E3D3B3A383635DB
:100410003332302F2D2C2A292826252322FFAA7F8C
:100420005540000101010101010101010202020226
:10043000020202020203030303030303030404048E
:100440000404040405050505050606060606070757
:1004500007070708080808090909090A0A0A0B0B0F
:100460000B0C0C0C0D0D0D0E0E0E0F0F0F101011AE
:100470001111121213131414151516161717181834
:1004800019191A1A1B1B1C1D1D1E1E1F202021229C
:1004900022232424252626272829292A2B2C2D2DE2
:1004A0002E2F30313232333435363738393A3B3CFF
:1004B0003D3E3F404142434445464748494A4C4DF2
:1004C0004E4F50515354555658595A5B5D5E5F61BB
:1004D0006264656668696B6C6D6F7072737577784E
:1004E0007A7B7D7E8082838587888A8C8E8F9193AC
:1004F0009596989A9C9EA0A2A3A5A7A9ABADAFB1D3
:10050000B3B5B7BABCBEC0C2C4C6C9CBCDCFD1D4B7
:10051000D6D8DBDDDFE2E4E7E9EBEEF0F3F5F8FA5D
:10052000FDFF00047F3F1F643214643214783C1EC8
:100530001E140A05010001007404000002000200FC
:1005400070040000030001007504000004000200B4
:100550005A04240805000100760400000600020089
:100560005C040000070002007204000008000100A3
:10057000770400001200020078040000130002005B
:100580007A040000FD377A585A000004E6D6B446D3
:100590000200210116000000742FE5A3E0034B01C7
:1005A000505D003D8889C65436C3174FE4DC305B8C
:1005B000F75EF401E7881EBBDDF59E3ECF25C7C878
:1005C000176A78061D67D0FD2AADCE46CAE9A55444
:1005D000C35149908D08C64EA8C9AAAC6BF1CB0C8B
:1005E0000E0D69C97DAFFAFFB0793EEEB9A56EED8B
:1005F0009BD6F60EFB2B104A944FCAA3B9EF6D00A1
:10060000A98FB93AEE9C0AB9788D7A3A3DA4302D7B
:10061000708D177210A783C607F3DF2EB4FC894ACA
:10062000FFE6169A7E3489B747E58809525AD142C7
:10063000A17DE2FBF038338846651FF87BCE0F8A38
:100640005B421345AD20140658C7385A207EC9EFC7
:1006500084F59FBE26CE5904B4D42BBC3AB6AE92D4
:1006600037BF8BF3A1098AC46E7073B883BA75085B
:100670005352772A22A785D6BE4824A3A576DD0D3E
:10068000851D728A1159B65588BEA5A7CCA9509A66
:100690008FAB250F82DDBAF3108635249FE23CE74D
:1006A0001C847678654DA0225068B7A6403F3F9ADB
:1006B0000FD6866C89132B520B7DAFD20C1DD14AFD
:1006C0002F5E3FEDE62DABF21D54658C24612DE8C5
:1006D0005830AB06AC2F69743F788792A5117966C4
:1006E000B7A66281E298FF591D609B5E1C402E29CF
:1006F0003AC7A1009353869A50222B9C0001EC022A
:10070000CC060000487105E0B1C467FB02000000A0
:100710000004595A00000000000000000000000022
:1007200000000000000000000000000000000000C9
:1007300000000000000000007E0F00D4FFFFFFC794
:100740000000007800000000000000002A2B2800B4
:100750000000000000000000000000000000002970
:10076000000000002C1E3420212224342627252EB0
:10077000362D3738271E1F202122232425263333E8
:10078000362E37381F0405060708090A0B0C0D0E14
:100790000F101112131415161718191A1B1C1D2FE0
:1007A0003130232D350405060708090A0B0C0D0E00
:1007B0000F101112131415161718191A1B1C1D2FC0
:1007C0003130354C11241FBECFEFDAE0DEBFCDBF94
:1007D00004B603FE27C080917E0490917F04A0910F
:1007E0008004B09181048730904BA740B04BD1F486
:1007F00010927E0410927F04109280041092810463
:1008000014BE84B7877F84BF0FB6F894A8958091F3
:100810006000886180936000109260000FBEE0E08D
:10082000F8E3099511E0A0E0B1E0EAE1FBE602C0DF
:1008300005900D92AE39B107D9F724E0AEE9B1E0E9
:1008400001C01D92AE37B207E1F70E94502B0C9405
:1008500032350C9400009C01FB019A9581159F4153
:1008600018F5D901AA27B270832F8170B9016627C4
:100870007470A9014427587034FF0CC08295807FA2
:10088000AB2B09F08062672B09F08064452B09F0DF
:1008900080680994AB2B09F08260672B09F08460B3
:1008A000452BB9F38860F5CF80E0F3CF282F892F4F
:1008B00082958F70903C80F48A30B0F4843020F4BC
:1008C000823090F480E008958630E1F781E0283EA0
:1008D00088F0213FB9F70EC08C3011F08F3091F7BE
:1008E00093FB882780F9089581E0203F39F018F4C0
:1008F000283E40F70895243F29F7FCCF0895E82FBC
:100900009E3F61F18CE0989FE00D11248E2F87703F
:1009100041E001C0440F8A95EAF7E695E695E69531
:1009200083E0E89FF0011124E753FD4F30E020E021
:1009300070E05191DF011197CB01022E02C0969514
:1009400087950A94E2F7817081958527842385270E
:100950008C932F5F3F4F2330310559F70895E82FCF
:100960009E3F41F18CE0989FE00D11249E2F9770DF
:10097000E695E695E69583E0E89FF0011124E753BC
:10098000FD4F50E040E080E0219130E0092E02C0B0
:10099000369527950A94E2F721703327042E01C07B
:1009A000220F0A94EAF7822B4F5F5F4F43305105C5
:1009B00059F7089580E008958091800290917F0218
:1009C000981301C008958F5F8770FACFE2EAF1E0D3
:1009D0009191891303C0DF0111971C9291E0E83ACD
:1009E000F907B1F70895982F90958091AD03892369
:1009F0008093AD030895982F90958091AF0389233C
:100A00008093AF0308958091AA03882331F0109258
:100A1000AA031092A7031092A60308959091A80329
:100A200092FF06C0282F28712830F9F4877F846050
:100A300093FF06C0282F28712831F1F4877E846146
:100A40002091A90320FF06C0382F38713830D9F41F
:100A5000877F816021FF06C0282F28712831D1F4BB
:100A6000877E816194FD877E0895282F247124302C
:100A7000F9F68B7F8860DCCF282F2471243101F7B1
:100A80008B7E8861DDCF382F3171313019F78E7F41
:100A90008860E0CF282F2171213121F78E7E886177
:100AA000E1CFCF93DF93EC01803E910509F45EC066
:100AB00048F58133910509F4A1C088F48932910584
:100AC00009F495C08A9709F4A0C0C130D10529F175
:100AD000CE010497813A910508F054C01EC08933B5
:100AE0009105E9F182389105D1F1C59709F478C0F3
:100AF000C83AD10508F090C0C53AD10530F3A497A3
:100B0000D0640BC0843E910509F44FC050F4823E7E
:100B10009105D9F1833E9105E9F1CE01DF91CF91A5
:100B20000895863E910509F44BC0873E910509F46E
:100B30004CC0811523E5920708F08BC0811532E582
:100B4000930708F0FDC0C11580E5D80708F077C00D
:100B5000C11520E4D20760F2DF70D06ADECF809149
:100B6000A8038370D1F2C0EED0E0D7CF8091A80364
:100B700080FD11C19091A90390FFCFCFC3EED0E0CB
:100B800084FFCBCFD0E0C0E0C8CF8091A80382FD26
:100B9000F5CFC3CF8091A80382FD00C19091A90336
:100BA00090FDE1CF84FFB9CFEDCF8091A90381FF04
:100BB000B4CF8091A803C7EED0E084FDE3CFADCFE2
:100BC0008091A80383FDF7CFA8CF8091A80383FD70
:100BD000E8C09091A90391FFE5CFC4EED0E09DCF8E
:100BE0008091A80385FF99CFC9E2D0E096CF80918C
:100BF000A80385FF92CFC5E3D0E08FCF8091A803F3
:100C000086FF8BCFCAE2D0E088CF8091A80386FF11
:100C100084CFC1E3D0E081CFCF3BD10508F468C0D9
:100C2000C83ED10528F4C03ED10508F4ABCF75CF3E
:100C3000CE019A9581159F4108F0A4CF6ECFC115C2
:100C400081E5D80708F45FC0DC2FCC27C16FD06ADC
:100C500064CF811529E59207A0F5811538E5930742
:100C600008F086C0C11585E5D807C8F4C11524E58C
:100C7000D20708F078C09E012370332781E090E00E
:100C800002C0880F991F2A95E2F7C695C69530E2F3
:100C9000C39FE0011124C82BD92BDA683ECFCE01C7
:100CA00095558F3F910511F008F06CCF8C2F0E9465
:100CB0000E05C82FD0E0DC2FCC27CC27DF71D06207
:100CC0002CCFC1158AE5D80708F457C0CE0190563D
:100CD0008115904208F056CF8D2F8F710E940E051E
:100CE00090E0982F882788279F718C2BEC01E7CF05
:100CF000C85AD0E0CC0FDD1FC159DE4F0990D88112
:100D0000C02DD4640ACF9E0174E0369527957A955C
:100D1000E1F723708C2F86958695837030E2839F50
:100D2000C0011124922BC37021E030E002C0220FD9
:100D3000331FCA95E2F7822B932BEC01DC68EDCED2
:100D40009C012370332781E090E002C0880F991F37
:100D50002A95E2F7C695C69520E2C29FE0011124CC
:100D6000C82BD92BEBCFDC2FCC27C46FD06AD5CEC4
:100D7000D82FCC27C06FD06AD0CE8C2F8F700E9416
:100D80000E0534E0D695C7953A95E1F7CF709C2FC4
:100D9000EC01D069C2CEC9E3D0E0BFCEC2EED0E054
:100DA000BCCEC6EED0E0B9CE80E00895F894E82F2E
:100DB000E295EF70F0E041A18F7021E030E0B901E1
:100DC00002C0660F771F8A95E2F7CB01962F9095A8
:100DD000942391A392A1892B82A3789408950895D6
:100DE0006F927F928F929F92AF92BF92CF92DF923B
:100DF000EF92FF920F931F93CF93DF93B82EA62EFF
:100E00008901E42FF0E0EE5DFB4F611119C0E49120
:100E10008E2F2E2FD80111962C931197EC931296AA
:100E20008C93DF91CF911F910F91FF90EF90DF9006
:100E3000CF90BF90AF909F908F907F906F900895CC
:100E4000E62EF12C249186E0B89E60011124CFEFAC
:100E5000D0E0C601BE010E940B348B2D90E0880FBC
:100E6000991F35E5369FA001379F500D1124841B33
:100E7000950B982F990F980FAE014E195F09249F7B
:100E8000D001259FB00D1124EB2FA99E50011124F4
:100E9000AB2CBB24AE014A195B09249F5001259F4E
:100EA000B00C11248B2D3E01691A71086E9C400113
:100EB0006F9C900C7E9C900C1124892C9924C8194D
:100EC000D9092C9FA0012D9F500D1124633071056D
:100ED000D1F09CEFC91693E0D90670F4613071052A
:100EE000B1F062307105B9F0FFEFCF16D10408F010
:100EF00091CF8B2FE52F8ECF6430710579F066305E
:100F00007105B9F387CFEB2D822F2B2F83CFE22FE3
:100F10002B2D8B2F7FCF852FE22FF7CF822F252FE1
:100F200079CF8091A103982F9E7F29F481708260F0
:100F30008093A10308958A34E8F381708864F8CF20
:100F4000FA0181110994FB01FDCFCF93DF93CDB757
:100F5000DEB728970FB6F894DEBF0FBECDBF843042
:100F600050F5811129C0909180009F7D9093800061
:100F70002E98282F30E0AFEFBFEF0E946A3423E0B5
:100F800030E040E050E00E943334C9012C3764E186
:100F90003607C0F469E070E00E940B3470938B0058
:100FA00060938A0028960FB6F894DEBF0FBECDBFBF
:100FB000DF91CF91089583E09091800090629093AB
:100FC0008000D7CF2A50374D4F4F5F4FB42FA32FFC
:100FD000922F8827BC01CD0125EF38E241E050E097
:100FE0000E94333429833A834B835C83CA01B9015D
:100FF0000E94ED339B01AC0169817A818B819C81D8
:101000000E94ED33BB27A92F982F872FBC01009793
:10101000A140B10519F66FEF7FEFC0CF282F220F47
:10102000220F220F9091E6029770922B9093E60286
:10103000987F21E009F420E09091E60220FB90F9EE
:101040009093E6020C94A50780915A0490915B045A
:1010500090931A018093190108951092BC03109285
:10106000BB03E2E2F4E08581811102C014821682A2
:10107000379684E0EA35F807B1F70895AC0130916E
:10108000BE036091BD03232F621301C00895822F18
:1010900090E0FC01EE0FFF1FED54FC4F0190F0813A
:1010A000E02DE417F50791F467E0649FF001659F78
:1010B000F00D1124EE5DFB4F41E044832313E6CF96
:1010C0000196837099278093BE0308950196282F77
:1010D0002370DACFE0917D02F0917E02309721F00B
:1010E0000190F081E02D099480E008952091C401E1
:1010F0003091C5012817390771F09093C50180938D
:10110000C401E0917D02F0917E02309721F00680CB
:10111000F781E02D099408952091C2013091C30117
:101120002817390771F09093C3018093C201E091B1
:101130007D02F0917E02309721F00084F185E02D50
:10114000099408959C01FC0132968FEF90E0419143
:10115000461751F08F3F19F4411101C0892F9F5F4D
:101160009630A9F78F3F09F40895280F311D87FDA8
:101170003A95F901628308952FB7F894809160023F
:1011800090916102A0916202B09163022FBF089515
:1011900080915C0490915D04892B91F00E94BC08C1
:1011A0002091A6033091A703AC01421B530B9A0177
:1011B00081E040915C0450915D042417350708F4E8
:1011C00080E0817008958091AD039091AF03892BE9
:1011D0009091DB02892B8093A0018091AA03882340
:1011E00009F180915C0490915D04892B29F00E94A3
:1011F000C80881110E9403058091A0019091AA0363
:10120000892B8093A00120E082EA91E0FC013081EB
:10121000019631112F5F31E0883A9307B9F7211118
:101220000E940305E0917D02F0917E02309731F03B
:101230000280F381E02D80EA91E009940895CF9334
:10124000C82F882309F445C08CEF8C0F813A88F4AD
:10125000E2EAF1E08191C817B1F121E0E83AF20742
:10126000C9F76C2F80EA91E00E94A208CF910C94FC
:10127000E30880E28C0F883068F4C77021E030E02A
:1012800001C0220FCA95EAF78091AD03822B8093AB
:10129000AD03ECCF8BE58C0F833038F42C2F245228
:1012A000330BC901CF910C947608C85AC73188F422
:1012B000EC2FF0E0EE0FFF1FE159FE4F808191818E
:1012C000CF910C948C088C2F0E94E6040E94E308B6
:1012D000C8CFCF910895882329F19CEF980F913AB8
:1012E00020F40E94E6040C94E30890E2980F9830F2
:1012F00050F4877091E001C0990F8A95EAF7892F21
:101300000E94F304F0CF9BE5980F933020F490E017
:1013100080E00C947608885A873120F490E080E0D1
:101320000C948C080895882339F09091AD03892B93
:101330008093AD030C94E3080895882321F00E9464
:10134000F3040C94E3080895882339F09091AF03D7
:10135000892B8093AF030C94E3080895882321F030
:101360000E94FB040C94E308089590E080E00E9442
:10137000760890E080E00E948C081092AF031092F3
:10138000DB020C94E3088093AB030C94B5098093C3
:10139000AC030C94B50921E030E001C0220F8A951E
:1013A000EAF78091AC03822B0C94C70921E030E06E
:1013B00001C0220F8A95EAF720958091AC03822321
:1013C0000C94C7099091B003809589238093B00352
:1013D000282F277039F4282F082E000C330B921772
:1013E000130621F49091A90392FF0BC08595859572
:1013F00085950E94D6091092B0031092B203109204
:10140000B1030895CF93DF93EC01898981111BC04B
:1014100081E0898B8091AD039F81892B8093AD03FF
:101420008091AF039885892B8093AF030E94E308D6
:10143000EA81FB816C897D89309729F0CE0106967F
:10144000DF91CF910994DF91CF910895EF92FF92B0
:101450000F931F93CF93DF93EC018A85811134C0E2
:10146000EB80FC8087E5F81A26E12E9DC0012F9DB8
:10147000900D1124DC01A751BD4F1496ED91FC9104
:101480001597309731F054966D917C9181519D4F15
:10149000099586E18E9D80018F9D100D11240751C5
:1014A0001D4FF80187810E94F304F80180850E9496
:1014B000FB040E94E308188219861B861E821D8287
:1014C0001092E8021092E702DF91CF911F910F91E5
:1014D000FF90EF9008959091A90392FD10C098E0BD
:1014E000899F90011124622B6093B0030E94CB0965
:1014F0000E94BC089093B2038093B10308950C94AA
:10150000CB099C014FB7F8948091600290916102E1
:10151000A0916202B09163024FBF821B930B0895AA
:101520008091C10108950895FC01CB012091B4017F
:101530003091B5012617370790F0009729F42091D4
:10154000E8002E772093E80040E0009751F4411125
:1015500008C08091E80082FF31C080E00895C90191
:10156000F3CF209169022223A9F12530A9F120911E
:10157000E80023FD2DC02091E80022FDEACF209154
:10158000E80020FFE2CF3091F3002091F2000097B5
:1015900019F02830310558F041E02830310509F0C4
:1015A00040E02091E8002E772093E800CECF4191D3
:1015B0004093F10001972F5F3F4FE9CF809169027F
:1015C000882341F0853041F08091E80083FFC1CF4E
:1015D00081E0089582E0089583E008958091AE014E
:1015E00087FF13C08091E80082FF06C08091E80069
:1015F0008B778093E80004C0809169028111F2CF5B
:101600000895809169028823D9F38091E80080FFD2
:10161000F8CF8091E8008E77ECCF2091E4003091F4
:10162000E50095E6A9012091EC00822F817020FF52
:1016300006C08091E80080FF06C080E008952091F8
:10164000E80022FD1AC080916902882389F0853064
:1016500089F08091EB0085FD0FC02091E40030916E
:10166000E50042175307F9F29150E1F684E008953E
:1016700082E0089583E0089581E00895E8EDF0E0C8
:1016800080818E7F80831092E2001092DA001092A7
:10169000E100A0EEB0E08C9181608C9380818F7727
:1016A000808319BCA7EDB0E08C918E7F8C938081F4
:1016B0008F7E80831092AD010895EF92FF920F9379
:1016C0001F93CF937C018B010E940D0BC82F8111BA
:1016D00017C08091E80085FD0BC08091E8008E77EF
:1016E0008093E8000E940D0B882399F3C82F08C04F
:1016F000F70181917F018093F1000150110949F7B1
:101700008C2FCF911F910F91FF90EF900895CF9361
:10171000209169022430F1F42091E900C091EC009D
:10172000C795CC27C7952F70C22B22E02093E900E4
:101730002091E80020FF0BC050E040E060E270E044
:101740000E945D0B8091E8008E778093E800CF7057
:10175000C093E900CF9108958091AC03982F9670C3
:10176000963019F488600C94C709877FFCCF982FB6
:101770009093E900242F762F50E0891731F0709173
:10178000EC002091ED005091F00021FD06C09F5F1C
:10179000973071F78093E90008953091EB003E7F18
:1017A0003093EB003091ED003D7F3093ED003091B0
:1017B000EB0031603093EB007093EC002093ED0070
:1017C0005093F0002091EE0027FDE1CF0895CF92D5
:1017D000DF92EF92FF920F931F93CF93DF93C8EDA9
:1017E000D0E088818F7E8883E7EDF0E080818160A2
:1017F000808384E082BF81E08093AD0188818E7F09
:10180000888302EE10E0F80110821092DA0081EE77
:10181000C82ED12CF601108288818F778883888129
:101820008068888388818F7D888319BC10926902C3
:101830001092AC01109268021092AB0190EEE92E6A
:10184000F12CF70180818B7F808388818160888380
:1018500042E060E080E00E94B70BF60180818E7F5D
:101860008083F801808181608083808188608083AB
:10187000F70180818E7F8083888180618883DF91FA
:10188000CF911F910F91FF90EF90DF90CF9008952F
:101890009C012115310509F408958FE99FE0019716
:1018A000F1F700C0000021503109F3CFFF920F93F0
:1018B0001F93CF93DF938C01EB01F42E80911C01D9
:1018C00082FF43C08B7F80931C01809199032091FC
:1018D0009B0330919C03AB01421B530B9A01409137
:1018E000190150911A0124173507A8F40E941F0905
:1018F00080911C018D7F80931C01809178049091D0
:1019000079040E94480C809199030E946B0982E03F
:101910000E94FB0424C09091AF0392609093AF03A8
:101920000E941F0980911C01826080931C0180919C
:10193000750485FFE2CF86FDE0CFFF20F1F2DF9155
:10194000CF911F910F91FF900895802F0E946B09F6
:101950008091990390919A0380179107C1F20E9498
:10196000E308D0939C03C0939B03E9CF0F931F938D
:10197000CF93C82F00917A0410917B04893321F012
:1019800000917804109179048C2F0E941F09011591
:10199000110531F48C2FCF911F910F910C946B098D
:1019A0008FE99FE00197F1F700C000000150110995
:1019B000EECFAF92BF92CF92DF92EF92FF920F9352
:1019C0001F93CF93DF93EC018AE0A82E88818823B0
:1019D00009F48EC08130D9F599818A81913021F442
:1019E00022960E94B60C05C0923029F422960E94DD
:1019F0001F092196EBCF933021F422960E946B09A8
:101A0000F8CF943011F02196F4CF229620E030E008
:101A1000AE014F5F5F4F8053990B8A30910560F0A4
:101A20002115310531F38FE99FE00197F1F700C0EF
:101A3000000021503109F4CFA29EB001A39E700D89
:101A400011249C01260F371F8981EA01E1CFE82F7D
:101A5000F0E0EC5BF84FB490282F2695269526955C
:101A600030E0F901EC5CF84FE4908770F12C082E1F
:101A700002C0F594E7940A94E2F791E0E922FF248A
:101A8000F901EC5DF84FC490D12C082E02C0D5941A
:101A9000C7940A94E2F791E0C922DD24F901EC5ED3
:101AA000F84F049110E002C0159507958A95E2F76A
:101AB00001701127E114F10419F081EE0E941F0951
:101AC000C114D10419F086EE0E941F098B2D0E94CB
:101AD000B60CCD2819F086EE0E946B09EF2819F09C
:101AE00081EE0E946B09012B09F483CF8CE279CF40
:101AF000DF91CF911F910F91FF90EF90DF90CF90EA
:101B0000BF90AF900895FF920F931F93CF93DF93F1
:101B1000C62FD42F122F8823A9F060939D030E9413
:101B2000BC089093A9018093A801C77081E001C00F
:101B3000880FCA95EAF7DF91CF911F910F91FF901F
:101B40000C94930980919D03681338C08091A8017B
:101B50009091A9010E94810A20917204309173042E
:101B60008217930758F500E20D0FCD17A9F0C77043
:101B7000FF24F3948F2D01C0880FCA95EAF70E94C5
:101B80009D09083048F48D2F877001C0FF0C8A959D
:101B9000EAF78F2D0E949309812F0E94B60C08301E
:101BA000A0F4D77081E001C0880FDA95EAF7DF91E1
:101BB000CF911F910F91FF900C949D09C77081E008
:101BC00001C0880FCA95EAF7F2CFDF91CF911F913C
:101BD0000F91FF9008958091A10380FD0AC0E4E277
:101BE000F2E0118210821282339652E0E834F50757
:101BF000C1F7279A35B13F7725B120684FB7F894E0
:101C000084E292E0FC010196508168E025B9000071
:101C100000C057FF35B9550F000000C000C000C01C
:101C200035B900C06A9591F752E08834950751F7AD
:101C30004FBF8FE594E00197F1F700C000000895D1
:101C4000EF92FF920F931F93CF93DF93EC0104E287
:101C500012E0F12CE12C9C816091A3038091A203FE
:101C600026E0E216F104FCF49923F9F09801409182
:101C7000A4030E94F0068FEFE81AF80A0D5F1F4FC9
:101C80002CE0E216F10439F70E94EB0D8C8190E014
:101C90000196817099278C83DF91CF911F910F91CD
:101CA000FF90EF900895992309F3980140E0E1CF68
:101CB000EF92FF921F93CF93DF93EC0184E2E82E23
:101CC00082E0F82E10E08C8197014091A40360918E
:101CD000A303810F0E94F0061B5E83E0E80EF11C57
:101CE0001C3F89F70E94EB0D9A818C8190FF08C000
:101CF0008F5F8C83DF91CF911F91FF90EF900895BC
:101D00008150F7CFCF92DF92EF92FF920F931F9304
:101D1000CF93DF93FC018281DD24DA9480FD02C041
:101D2000DD24D39404E212E0D0E0C0E0F801118297
:101D30001082128294E0E92EF12CC12C80912302B2
:101D40008C0D8D30E4F16CE00E94FD33892F082E5C
:101D5000000C990B8C179D0791F48091A4038E9D24
:101D6000A0018F9D500D1124559547955595479588
:101D700098016091A3038091A2030E94F006CD0C0C
:101D8000F1E0EF1AF108D1F621960D5F1F4FCC302C
:101D9000D10561F60E94EB0D8091230291E0D912EA
:101DA00012C08823B1F0815080932302DF91CF913C
:101DB0001F910F91FF90EF90DF90CF90089587FFD4
:101DC000C6CF845FC4CF90E00196BE010E941F344D
:101DD000EBCF8BE0E9CF0F931F93CF93DF93C4E258
:101DE000D2E0FE01118210821282339682E0E83442
:101DF000F807C1F710E000E080912202082E000CE5
:101E0000990B081719078CF180910301082E000C1B
:101E1000990B801791074CF19E014091A4036091AA
:101E2000A3038091A2030E94F0060F5F1F4F239629
:101E30000C30110509F70E94EB0D80910201909181
:101E40002202980F9093220220910301280F2093E1
:101E50000301121614F49B301CF08195809302014B
:101E6000DF91CF911F910F910895198218821A82E4
:101E7000DCCFCF92DF92EF92FF920F931F93CF931D
:101E8000DF93CDB7DEB72E970FB6F894DEBF0FBE47
:101E9000CDBF8D879E87AD85BE8514961C91212F61
:101EA00030E0D9010E946A349B01AC010E94803469
:101EB00069837A838B839C83E0E2F0E0E11BF10984
:101EC000A5E5B0E09B01AC010E94803469877A8768
:101ED0008B879C879F01DF010E9462349B01AC01CC
:101EE0000E948B346D837E838F8398879B01AC0126
:101EF00089819A81AB81BC81280F391F4A1F5B1FE2
:101F000069857A858B859C850E943334F22E422F19
:101F100050E099E29F1508F442C0A3E02A9F900187
:101F2000112435952795122F109594E2C92E92E031
:101F3000D92E00E085E5E82EEF188E2D01FD8F2DBE
:101F40009601412F6091A3030E94F0060F5FB3E05A
:101F5000CB0ED11C0C3089F70E94EB0DED85FE8570
:101F6000948181E0992319F0903219F48FEF8093D6
:101F7000010180910101890FAD85BE8514968C9376
:101F80002E960FB6F894DEBF0FBECDBFDF91CF9176
:101F90001F910F91FF90EF90DF90CF90089585E50E
:101FA00090E0841B950B9C01220F331F280F391FD3
:101FB00037FFB7CF2F5F3F4FB4CF9091A10390FF72
:101FC0000CC0E4E2F2E0818360834283339692E0C6
:101FD000E834F907C1F70C94EB0D08950F931F93A4
:101FE000CF93DF9300D00F92CDB7DEB78C018091F5
:101FF000210281110AC09E012F5F3F4F4FEF6FEF0B
:102000000E94F0068A8180932102F8016481613088
:1020100049F06230F1F08091210240E0662331F016
:1020200040E019C06091210240E080E00E94DD0F95
:10203000F801848190E0019663E070E00E941F3413
:1020400084830F900F900F90DF91CF911F910F918C
:1020500008954091210280E060E0E8CFCF93DF93C4
:1020600000D00F92CDB7DEB79091A10390FF0FC0C3
:102070009E012F5F3F4F0E94F0064B8169818A814C
:102080000F900F900F90DF91CF910C94DD0F0F9078
:102090000F900F90DF91CF910895CF93DF93EC01D4
:1020A000EC81F0E0E35EFC4F4491E1EAF3E0628111
:1020B00081810E942E108C818F5F8C83DF91CF9164
:1020C0000895CF93DF93EC01E1EAF3E0438162816D
:1020D0008C810E942E108C818F5F8C83DF91CF9139
:1020E000089581E08093E00080E28093D800109210
:1020F000C9008FE19EE40197F1F700C0000087E07E
:1021000090EBDC0180937E0490937F04A093800485
:10211000B093810488E19CE00FB6F894A895809371
:1021200060000FBE90936000FFCFCF93DF93D82F56
:10213000C92F81E08093E9008FEF9091E8008150F2
:1021400095FD06C095ED9A95F1F700008111F5CF48
:102150008091E80085FF16C050E040E068E070E044
:102160008D2F9C2F0E945D0B8091E8008E778093CD
:10217000E80088E0ED2FFC2FA9EBB1E001900D9273
:102180008A95E1F7DF91CF9108959091690294309B
:1021900029F58093B6016093B7017093B8019093CD
:1021A000E9008FEF9091E800815095FD06C095ED14
:1021B0009A95F1F700008111F5CF8091E80085FF35
:1021C0000DC050E040E063E070E086EB91E00E94DB
:1021D0005D0B8091E8008E778093E8000895BC0144
:1021E00083E00C94C510BC0184E00C94C510CF931F
:1021F000C091A903C2FB992790F9981781F080FB41
:10220000C2F9C093A9036091A80384E090E00E9402
:10221000F6346C2F82E290E0CF910C94F634CF919B
:102220000895682F86E090E00C94F634CF93C82F81
:102230006FEF811164E083E290E00E94F6346FEF6B
:10224000C11168E084E290E00E94F6346FEFC111A2
:102250006CE685E290E0CF910C94F6340F931F93D7
:10226000CF93DF938901982F962B943038F54C301B
:1022700028F521153C4531F4209164023091650226
:10228000232BE1F0C42FD0E0CC0FDD1F98E1699F34
:10229000C00DD11D112490E6899FC00DD11D1124C0
:1022A000612FCE0187960E94F634602FCE0188966A
:1022B000DF91CF911F910F910C94F634DF91CF9164
:1022C0001F910F910895CF93DF93C9E6D2E060E0AC
:1022D000CE010E94F6342196C11584E0D807B9F7E3
:1022E000DF91CF910895CF9384E090E00E94E23493
:1022F000C82F82E290E00E94E234982F8C2FCF9179
:10230000089583E290E00E94E234843089F484E20C
:1023100090E00E94E234883059F485E290E00E9417
:10232000E23491E08C3609F090E0892F81700895B5
:1023300080E0FCCF0F931F93CF93DF93982F962BC2
:10234000943020F54C3010F5C42FD0E0CC0FDD1FB9
:1023500028E1629FC00DD11D112430E6839FC00D7E
:10236000D11D1124CE0187960E94E234082F10E07F
:10237000102F0027CE0188960E94E2349801282B66
:10238000C901DF91CF911F910F91089590E080E0F6
:10239000F8CF462F672F2091660230916702232BDA
:1023A00089F47E3F39F44E3F69F480911F02909189
:1023B00020020895982F972B943020F44C3010F47D
:1023C0000C949A1190E080E00895DF92EF92FF92D2
:1023D0000F931F93CF93DF937C010091AC03809107
:1023E000AB03082BC7E0D0E010E0DC2EC8010C2EB8
:1023F00002C0959587950A94E2F780FD0CC021975D
:10240000A0F7D12C8D2DDF91CF911F910F91FF90CF
:10241000EF90DF900895B7018C2F0E94C9110E94A0
:102420005105019761F3EECFCF93DF93D82FC92FDA
:102430000E94E5116D2F7C2F0E94C911DF91CF9171
:102440000C945105FC0186819781009721F00E9430
:1024500051050C945604808191810E941412F9CF89
:102460001F93CF93DF93182FD92F662391F0442326
:1024700081F00E94E511C82F682F812F9D2F0E94A7
:102480007F04612F7D2F8C2FDF91CF911F910C94B2
:10249000C9110E94AF04C82FF4CFFC01462F8681DA
:1024A0009781009729F46281808191810C94301288
:1024B00008950F931F93CF93DF930AE514E0C7EAC3
:1024C000D1E0CE010E94E234F80161918F016817DA
:1024D00019F0CE010E94F6342196C93CF1E0DF07E5
:1024E00081F7DF91CF911F910F9108950F931F9363
:1024F000CF93DF930AE514E0C7EAD1E0CE010E9452
:10250000E234F80181938F012196C93CF1E0DF07A5
:10251000A9F7CAE3D5E0FE0185919491009711F0E7
:10252000FC0109952896F5E0CA38DF07A1F7DF918D
:10253000CF911F910F910895EAE5F4E0128E138E6A
:102540008FEA90E09183808385E0848F88E893E12F
:102550009383828382E390E0978B868B88EC90E074
:10256000918F808F158E8AE090E0978F868F80E51F
:1025700090E091A380A30E9459120C9476121092BD
:10258000AD03E2EAF1E086E0DF011D928A95E9F70A
:102590000C94B5091F93CF93DF93CDB7DEB7AA97FD
:1025A0000FB6F894DEBF0FBECDBF8EEA91E0FC01FE
:1025B00001962091F100208321E0863B9207B9F734
:1025C0008091AF01893009F456C0C8F4823009F413
:1025D000B2C0833009F481C0813071F18091E8008C
:1025E00083FF8EC28091AE019091AF019A3008F0C6
:1025F00087C2E92FF0E0EC5CFA4C0C9455348A3039
:1026000009F488C08B3051F78091AE01813231F7E7
:102610008091B2019091B301892B01F78091E8007C
:10262000877F8093E8000E94EE0A8091B00180933A
:1026300000010E94BF12D2CF8091AE01813A71F6A3
:102640008091E800877F8093E8008091B2019091AB
:10265000B301892B61F468E089EB91E070E00E949E
:10266000940A8091E8008B778093E800B7CF60E010
:1026700090E080E0F3CF8091AE01813209F0AECFDF
:102680008091B2019091B3018D7F892B09F0A6CF83
:102690008091E800877F8093E8008091E80082FFC6
:1026A00017C09091F3008091F200029729F4809175
:1026B000F1008B7F813021F48091F1008093C10182
:1026C0008091E8008B778093E8000E94EE0A86CF25
:1026D000809169028111E1CF81CF8091AE01813A71
:1026E00009F07CCF8091B2019091B301892B09F060
:1026F00075CF8091E800877F8093E8008091E800A3
:1027000080FFFCCF809100018093F1008091E80070
:102710008E77D9CF8091AE01813209F05FCF809161
:10272000E800877F8093E8000E94EE0A8091B10163
:102730008093AA0153CF8091AE01813A09F04ECF28
:102740008091E800877F8093E8008091E80080FF17
:10275000FCCF8091AA01D8CF803899F0823809F057
:10276000CFC18091B2018F70873008F0C9C18093CA
:10277000E9008091EB0085FB882780F91092E90041
:1027800006C08091AB019091680291118260909196
:10279000E800977F9093E8008093F1001092F10099
:1027A0008091E8008E77A8C1882309F496C1823011
:1027B00009F0A6C18091B001811199C18091B20147
:1027C0008F702FEF280F263008F09AC18093E90010
:1027D0002091EB0020FF8BC1933031F48091EB000E
:1027E00080628093EB0083C19091EB0090619093A5
:1027F000EB0021E030E001C0220F8A95EAF7209338
:10280000EA001092EA008091EB008860EACF811123
:1028100077C11091B0011F778091E3008078812B00
:102820008093E3008091E800877F8093E8000E9416
:10283000EE0A8091E80080FFFCCF8091E300806881
:102840008093E30082E0111183E08093690258C114
:102850008058823008F054C14091B0015091B101CC
:102860004C3D83E0580799F583E08A838AE28983A7
:102870004FB7F894DE01139620E03EE051E2E32FDB
:10288000F0E050935700849120FF03C082958F7031
:102890003F5F8F708A30C8F0895C90E08D939D9384
:1028A0002F5F243161F74FBF8091E800877F8093CD
:1028B000E8006AE270E0CE0101960E94940A8091DD
:1028C000E8008B778093E8001BC1805DE6CF8091A4
:1028D000B2019091B301252F33272330310509F43C
:1028E0004AC078F52130310509F486C08BE590E0C7
:1028F000E0E4F1E02230310509F002C12091E80066
:10290000277F2093E8002091B4013091B501821710
:10291000930708F49C0140E02115310509F071C0CE
:1029200041116FC08091E80082FDC9CF809169029A
:10293000882329F2853019F28091E80083FFF2CFD5
:10294000BECF2132310509F448C02232310509F0E9
:10295000D7C08330910508F0D3C0FC01EE0FFF1FF4
:10296000E25DFE4F0190F081E02D855D9E4FDC0120
:102970008C9190E026C0CA019927423031F1833012
:10298000910568F40097B1F0019709F0B9C0E9ED3D
:10299000F1E0E4918E2F90E0E9EDF1E012C00397B1
:1029A00009F0AEC0EDEAF1E0E4918E2F90E0EDEA9F
:1029B000F1E007C0E9EFF1E0E4918E2F90E0E9EF5C
:1029C000F1E0009709F49CC099CFEBECF1E0E491C1
:1029D0008E2F90E0EBECF1E0F4CF8330910508F01E
:1029E0008FC0880F991FFC01EC5CFE4F0190F081B5
:1029F000E02D89E090E082CF82E190E0EBE9F1E028
:102A00007DCF80916902882309F459CF853009F47C
:102A100056CF8091E80083FD52CF8091E80082FD7F
:102A200081CF8091E80080FF77CF9091F300809173
:102A3000F2002115310519F08830910550F041E080
:102A4000089709F040E08091E8008E778093E800D5
:102A500063CF44914093F1003196215031090196A2
:102A6000E8CF803809F04CC08091E800877F8093E0
:102A7000E8008091AC018093F10092CE811140C0BA
:102A80001091B0011230E0F58091E800877F8093CB
:102A9000E8001093AC010E94EE0A112311F084E0CB
:102AA00005C08091E30087FDFACF81E08093690241
:102AB00042E061EC81E00E94B70B42E261EC84E00D
:102AC0000E94B70B42E261EC82E00E94B70B42E247
:102AD00060EC83E00E94B70B13C08091B00181309D
:102AE00079F481E0933009F080E0809368021092DD
:102AF000E9008091E800877F8093E8000E94EE0A59
:102B00008091E80083FF0AC08091E800877F80936E
:102B1000E8008091EB0080628093EB00AA960FB6EC
:102B2000F894DEBF0FBECDBFDF91CF911F91089506
:102B30000F931F93CF93DF938B01D82FC92F0E9440
:102B40009107A8016D2F7C2F88E090E0DF91CF9155
:102B50001F910F910C940835E1EAF3E083E0808344
:102B600011828FEF82838383148263E070E08FEFA2
:102B70009FEF0C949815CF93DF9300D000D0CDB782
:102B8000DEB78091A503833018F48F5F8093A5038F
:102B90008091A1039091A203A091A303B091A403FB
:102BA00089839A83AB83BC83BC01CD010F900F90C6
:102BB0000F900F90DF91CF910C949815CF93DF93E6
:102BC00000D000D0CDB7DEB78091A503882319F0DF
:102BD00081508093A5038091A1039091A203A091BD
:102BE000A303B091A40389839A83AB83BC83BC0104
:102BF000CD010F900F900F900F90DF91CF910C941B
:102C000098155F926F927F928F929F92AF92BF9230
:102C1000CF92DF92EF92FF920F931F93CF93DF93A8
:102C200000D000D000D00F92CDB7DEB7182F762E8F
:102C3000042F622E9091A10390FF83C0E92FE695A7
:102C4000AE2FB0E0A65CBE4F8C9180939F039E7F19
:102C50009230C9F59E012F5F3F4F812F0E94F006F1
:102C60004B8169818A810E94DD0F1093A2037092CB
:102C7000A3030093A403662009F463C08091A10319
:102C80009091A203A091A303B091A4038C839D8390
:102C9000AE83BF83BC01CD0127960FB6F894DEBF8B
:102CA0000FBECDBFDF91CF911F910F91FF90EF909D
:102CB000DF90CF90BF90AF909F908F907F906F905C
:102CC0005F900C949815823019F40091A403CDCF35
:102CD000863019F41091A203C8CF8930D9F3893115
:102CE00021F6E9518E2F8170582EE695F0E0E35ED3
:102CF000FB4FA590B490BB2484E2E82E82E0F82E2E
:102D0000D12CC12C9CE0892E912CC601B4010E94CB
:102D10000B34812F511013C0860F9701402F672D60
:102D20000E94F006CA0CDB1C93E0E90EF11CA8E43B
:102D3000EA16A2E0FA0649F70E94EB0D96CF861B31
:102D4000ECCF27960FB6F894DEBF0FBECDBFDF9154
:102D5000CF911F910F91FF90EF90DF90CF90BF9098
:102D6000AF909F908F907F906F905F900895E1EA71
:102D7000F3E0818121E043816281885F0C94011638
:102D8000E1EAF3E0818121E04381628188500C9483
:102D90000116E1EAF3E0628128E0620F08F46FEFC8
:102DA00021E0438181810C940116E1EAF3E0628124
:102DB00028E0621B08F460E021E0438181810C94EB
:102DC0000116E1EAF3E0438128E0420F08F44FEFF7
:102DD00021E0628181810C940116E1EAF3E04381F4
:102DE00028E0421B08F440E021E0628181810C94DC
:102DF000011690E080E00E94F0348A3E9E4F11F46C
:102E00000C94811180E008957F928F929F92AF92EF
:102E1000BF92CF92DF92EF92FF920F931F93CF93C7
:102E2000DF93CDB7DEB764970FB6F894DEBF0FBE61
:102E3000CDBFA0906402B090650281E090E09093D5
:102E4000650280936402912C812CE12C6401F12CA9
:102E500015C0F80125913491472D6F2D8E2D0E94BC
:102E60002E110E5F1F4F73948CE07812F2CFACE0FE
:102E7000CA0ED11CF394B4E0FB1639F08601000FA2
:102E8000111F03501E4F712CE4CFE39480E3880E92
:102E9000911CA4E0EA12DACF0E949C121A821982D5
:102EA0001C821B821E821D8218861F8288EC90E085
:102EB0009A87898709EC11E04AE050E0B801CE0119
:102EC00001960E941A35065F1F4F0931B2E01B07B9
:102ED00099F7FE013B968AE0DF011D928A95E9F79A
:102EE0007F014AE050E0B801C7010E941A35065F31
:102EF0001F4F0936B2E01B07A1F7B0926502A092FE
:102F0000640264960FB6F894DEBF0FBECDBFDF91AA
:102F1000CF911F910F91FF90EF90DF90CF90BF90D6
:102F2000AF909F908F907F90089580E00E9416113F
:102F300060E086E290E00E94F6340E9404170E944E
:102F4000631181E00C9416116AEE7EEF90E080E050
:102F50000E94143560E082E090E00E94F63460E068
:102F600083E090E00E94F6341092AB0360E084E0CE
:102F700090E00E94F63460E082E290E00E94F63435
:102F800060E085E090E00E94F63460E086E090E04A
:102F90000E94F6346FEF87E090E00E94F63440E044
:102FA00050E0BA0188E090E00E94083560E08DE0D2
:102FB00090E00E94F63440E050E0BA0188E190E0F1
:102FC0000E94083560E087E190E00E94F63440E01E
:102FD00050E0BA018CE190E00E94083570E060E0BA
:102FE00080E290E00E94143540E050E0BA0188E1B0
:102FF00090E00E94083580E00E9416110E9495170B
:1030000040E050E0BA018FE090E00E94083540E0D7
:1030100050E0BA0183E190E00C9408350E94F91663
:1030200081110AC00E94A4178091E6028470896110
:103030008093E6020E94111186E090E00E94E23443
:103040008093E602803220F0877088618093E602E8
:103050009091E602892F817090FF04C0892F869598
:10306000869586950C94A507CF92DF92EF92FF92FA
:103070000F931F93CF93DF93CDB7DEB72A970FB689
:10308000F894DEBF0FBECDBFE7ECF1E080E5DF01D5
:103090001D928A95E9F7E2E2F4E088E3DF011D92F0
:1030A0008A95E9F787ECC82E81E0D82E7F0109E1E7
:1030B00012E0F701D182C0824AE050E0B801CE01AF
:1030C00001960E94D23488E0FE013196D60101902B
:1030D0000D928A95E1F789859A85D70113969C937D
:1030E0008E931297BAE0CB0ED11CE7E0EE0EF11CE6
:1030F000065F1F4F0936F2E01F07D9F62A960FB672
:10310000F894DEBF0FBECDBFDF91CF911F910F911D
:10311000FF90EF90DF90CF900895282FCB012830BB
:1031200068F43AE0239FB001112467537E4F4AE0D0
:1031300050E00E94D23490E080E008958FEF9FEF3E
:1031400008958F929F92AF92BF92CF92DF92EF92AB
:10315000FF920F931F93CF93DF93CDB7DEB72A97DC
:103160000FB6F894DEBF0FBECDBF09EE12E0F12C12
:10317000E12C81E5C82E8AE2D82E9BE7A92E9AE29F
:10318000B92E29EF822E2AE2922EF801D182C08236
:10319000B382A28295828482F58AE48ABE016F5F3F
:1031A0007F4F8E2D0E948D18892B29F489859A8551
:1031B000F801938B828BFFEFEF1AFF0A0A5E1F4F15
:1031C00088E0E816F10409F72A960FB6F894DEBFF6
:1031D0000FBECDBFDF91CF911F910F91FF90EF9068
:1031E000DF90CF90BF90AF909F908F9008956091A7
:1031F000A103669570E04BE050E084E091E00E940E
:10320000A834892B19F481E08093A0030E94BC08A4
:1032100090934D0280934C020895CF93DF9300D09A
:1032200000D0CDB7DEB79091A10390FF45C08823B1
:10323000E1F18532E0F58F77880F9091A1039170CD
:10324000892B8093A103662381F08091A103909143
:10325000A203A091A303B091A40389839A83AB83B3
:10326000BC83BC01CD010E9498156091A1036695B5
:1032700070E04BE050E084E091E00E94A834892B9C
:10328000C1F01092A00381E080934F0220E04091B2
:10329000A4036091A3038091A2030F900F900F905D
:1032A0000F90DF91CF910C94011681E0C5CF84E29D
:1032B000C3CF0E94F718E7CF0F900F900F900F9099
:1032C000DF91CF9108958091A10386958F5F85321C
:1032D00008F081E061E00C940D199091A10396959E
:1032E0008FEF890F913009F484E261E00C940D199D
:1032F0009091A10390FF07C09695981720F096171C
:1033000010F40C94631961E00C940D199F92AF9224
:10331000BF92CF92DF92EF92FF920F931F93CF93C2
:10332000DF93CDB7DEB728970FB6F894DEBF0FBE98
:10333000CDBF6C01DC019C9111968C911197139675
:103340002D913C91232B21F089238F3F09F067C7F2
:1033500028960FB6F894DEBF0FBECDBFDF91CF9198
:103360001F910F91FF90EF90DF90CF90BF90AF90A3
:103370009F900895D70116968C9116978823D1F0C7
:1033800019968D919C910817190739F48091E702DD
:103390009091E8020817190769F0F70197861487DA
:1033A0000387C7010E94020AC70106960E94260AE7
:1033B0001092AF03FFEFAF1ABF0A26E1E20EF11C35
:1033C00044C7C80182519F45409708F05FC68FEF00
:1033D00093E00E94E2342EEEF22EF00E09E612E0A7
:1033E000882351F18091B003877009F4B1CFF601C1
:1033F0008281882309F4ACCF82E028960FB6F89436
:10340000DEBF0FBECDBFDF91CF911F910F91FF9017
:10341000EF90DF90CF90BF90AF909F900C94E20917
:10342000011534E01307F1F2C8010E94E234811162
:1034300001C0FA940F5F1F4FF110F2CF80911E016F
:1034400090911F01A0912001B091210189839A835D
:10345000AB83BC8399249A9478014FEFE41AF40A61
:10346000C8010E94E23489831A82882309F4BACF02
:10347000813009F048C0580152E0A50EB11CC701C7
:103480000E94E234E82E8A83882309F4ABCFC50179
:103490000E94E234F82E8FEF8E0D833068F45801CD
:1034A00083E0A80EB11CFB82FF2021F0CE01019623
:1034B0000E94D90C8501D0CF94E0E912FBCF5801CE
:1034C000A4E0AA0EB11CC80103960E94E234FF20BA
:1034D00009F488CF882309F485CF8150990B989EF1
:1034E0009001999E300D1124EF2DE150FF0BCF017B
:1034F000820F931F0197F0F2AFE9BFE01197F1F748
:1035000000C00000F7CFCE0101960E94D90C5701F0
:10351000D1CF81E00E94CB090E94AC0B63CF81E048
:103520000E94D609F9CF82E0F5CF82E0F9CF0F3BB8
:103530005CE5150709F453C0003C8CE5180709F059
:10354000C6C59091E602892F8695869586958F5FF0
:103550008F719770843020F4880F880F880F982B14
:103560009093E6028091E6021BC0823009F0AFC55D
:103570008091E0029091E102892B09F4A8C5B4C6BC
:1035800080E00E940E088091E6020E9411112ACF6D
:103590008091E602982F987FE1F188508093E602AF
:1035A000887F91E009F490E08091E60290FB80F939
:1035B00013C08091E602982F96959695969588313E
:1035C00040F49F5F990F990F990F8770892B809313
:1035D000E6028091E60281608093E60218C0809145
:1035E000E60280FF09C08E7F8093E6020E941111DF
:1035F00080E00E94A507F6CE81608093E6028130CC
:1036000021F4877088608093E6028091E6020E9430
:1036100011118091E602869586958695EACF8823DA
:1036200009F4A3C58189882309F49FC5C501815187
:103630009D4F0E94260A99C580911C01816080934C
:103640001C01D60112963C91332309F45AC61092FC
:103650009D030631BCE51B0708F0BAC00230ECE55B
:103660001E0708F4C0C00E9473119093A9038093B1
:10367000A8030631FCE51F0708F0DAC002302CE58C
:10368000120708F0C8C06091A8031091A90384E054
:1036900090E00E94F634612F82E290E00E94F634BE
:1036A0000E94BF129FCE80911C018E7F80931C01CF
:1036B00082E00E94FB04C5CF0933110560F40D328E
:1036C000110520F40B32110509F08AC580917504AB
:1036D00082FD86C508C004361105C1F381C58091FD
:1036E000750484FD7DC5D60112968C91882309F45A
:1036F00045C080911C0180FF73C59091750491FDB8
:1037000004C02091AD0321116BC595FF26C096FD25
:1037100002C081FD22C020919B0330919C03F701E0
:10372000E21BF30BE83CF105C0F4209199033091C2
:103730009A030217130789F481FD09C0802F0E94A4
:103740001F0950CE8091750483FD4AC5CCCF80916E
:10375000AF0382608093AF03F1CF10939A0300937D
:103760009903F0929C03E0929B0380911C0184607A
:1037700080931C0182E00E94E20934CE40E0B70150
:10378000C8010E94560C2ECE053F4CE51407C9F027
:1037900027E245EE66EE063F5CE5150709F43CC5F9
:1037A00027E245EE64EE043F9CE5190709F434C5B1
:1037B00048CF27E245EE65EE2FC526E241EE60EEEA
:1037C0002BC526E241EE62EE27C528E241E0F3CFA9
:1037D000C8018A5F9C45099708F445CF0631BCE5CE
:1037E0001B0709F492C58091AD038272063D3CE54A
:1037F000130708F0C2C0023C4CE5140708F4C9C026
:10380000F801E35CFC45E331F10508F033C1E25C0B
:10381000FA4C0C945534F801E350FC458091A80310
:103820008160E331F105B8F4EF5AFA4C0C94553449
:10383000C8018A5F9C45099708F025CFF801EB5F26
:10384000FC45E830F10590F4EC59FA4C0C945534F1
:103850008091A80382608093A80315CF8091A8036C
:103860008460F9CF8091A8038860F5CF8091A90387
:1038700081608093A90307CF8091A9038260F9CF6B
:103880008091A8038061E7CF8091A8038062E3CF95
:103890008091A8038064DFCF0E94BF128091A803AB
:1038A0008068D9CF8091A8038C60D5CF8091A9037F
:1038B0008360DFCF8091A8038E7FCDCF8091A80356
:1038C0008D7FC9CF8091A8038B7FC5CF8091A8033E
:1038D000877FC1CF8091A9038E7FCBCF8091A90331
:1038E0008D7FC7CF8091A8038F7EB5CF8091A8032D
:1038F0008F7DB1CF8091A8038F7BADCF0E94BF1287
:103900008091A8038F77A7CF8091A803837FA3CF4F
:103910008091A9038C7FADCF8091A80382FB99276A
:1039200090F921E0922790FB82F990FB83F993CFE5
:103930008091A903982F909591708E7F892B90FB91
:1039400081F997CF0E94BF129091A803892F97FB0E
:1039500087F9805880CF61E08EE090E00E94F634D5
:1039600092CE60E0F9CF80919E03811104C089E27C
:103970000E94E604F7C485E3FBCF0D35100709F478
:1039800031CD81E00A35EDE51E0709F400C108F0EC
:10399000EFC001152CE5120709F4FCC00E3D1C45D3
:1039A00009F405C1D60116968D919C91009709F4F2
:1039B00003C10E945105182FF92ED6011296BC9012
:1039C00012971596EC90E2949FE0E9228091B00363
:1039D0008770A1F0AB2CBB2091F08F2D807F8034BD
:1039E00021F080E2810F883048F082E00E94E209F5
:1039F0008091B0038770AA24A3948111A12C9F2CDD
:103A000092948FE09822B8E09B1609F401C2B91590
:103A100008F42CC1E3E0E91508F4E6C08F2D807F9F
:103A20000F2D0F70F1E0F91508F033C1803211F05D
:103A30000295007F112309F461C1113009F4AEC170
:103A4000BB2009F4B7C1EE2009F485C140E0D601DE
:103A500012966C9112978D919C910E9430128091D8
:103A6000770481FD2BC1F601858180FF27C18F700E
:103A7000858371C18091A10380FF21C08E7F8093D7
:103A8000A1038091A1039091A203A091A303B091FF
:103A9000A4038D839E83AF83B887BC01CD010E94B0
:103AA00098151092A0039FEFA0E7B2E09150A040BC
:103AB000B040E1F700C000000E94EB0D93CC8160A4
:103AC0008093A10361E086950E940D198BCC4DE691
:103AD00059E163E679E10E94A00784CC43E659E10D
:103AE0006DE679E1F8CF40EC56E167EB76E1F3CF94
:103AF00047EB56E160EC76E1EECF45ED56E169EC3F
:103B000076E1E9CF49EC56E165ED76E1E4CF4DEEA3
:103B100056E161EE76E1DFCF41EE56E16DEE76E102
:103B2000DACF4EED55E16BEB75E1D5CF4BEB55E1BF
:103B30006EED75E1D0CF61E081E0C6CF65E082E057
:103B40000E9478194FCC68E086E0FACF6EE089E0F9
:103B5000F7CF64E18FE0F4CF67E185E1F1CF61E079
:103B600088E1B2CF62E289E1EBCF61E083E2ACCFE2
:103B70000B354DE51407F1F00C351D4509F012CF5A
:103B80008091A90382FB882780F991E089270E9410
:103B9000F71008CF0E94BF128FEF94E3ACE0815082
:103BA0009040A040E1F700C000000E9471100E9408
:103BB000A41718CC80E0EBCFF6018281E080F18081
:103BC000882369F0C7010E94E511182F682FC701EB
:103BD0000E947F04B701812F0E94C911EACEC7015C
:103BE0000E94AF04182FF6CF24E0921609F4F4C017
:103BF000492D4850550B4430510510F40E946A0875
:103C0000812F9F2D0E945604811121C210927D04A4
:103C100010927C04AA20A9F08091B00380FD11C00D
:103C2000F60112828595859585950E94CB09C6017E
:103C30000E9486198091B0038595859585950E948F
:103C4000D60960E0C60128960FB6F894DEBF0FBE15
:103C5000CDBFDF91CF911F910F91FF90EF90DF903B
:103C6000CF90BF90AF909F900C944D1239E0931677
:103C700009F440C186E0890D8F70823008F0B8CF1A
:103C8000123F09F047C18F2D8F71BB2009F48EC1FF
:103C90003EC1882311F00295007FBB20C9F00023AC
:103CA00069F080E2810F883010F011110BC0809113
:103CB000AD03802B8093AD030E94E308812F0E9407
:103CC0001F0996CF8091AF03802B8093AF03F4CF71
:103CD000812F0E946B09002309F48ACF80E2810FB3
:103CE000883010F0111106C0802F0E94F3040E944A
:103CF000E3087ECF802F0E94FB04F9CFBB2069F13F
:103D0000E11006C08091AA03802B0E94930970CF16
:103D100041E0E41213C08091A90382FD69CF809134
:103D2000AA03082B081709F463CF0E94BC089093DC
:103D3000A7038093A6030093AA035ACF8091760429
:103D4000823000F3E812DECF0E9403058091AE03BB
:103D500008130093AE03802FD8CFE11006C00E9455
:103D60000305802F0E949D0943CF8091760451E086
:103D7000E5120FC0823008F43BCF8091AD03802361
:103D800009F436CF8091AE03882349F31092AE0335
:103D9000E6CF823020F3E812E2CF2ACFBB2029F011
:103DA00085E08E1508F424CFD6CF94E09E1508F454
:103DB0001FCFD7CFEE20A9F280917A0490917B0497
:103DC000193321F080917804909179040E94480C75
:103DD000812F0E946B090CCF8F2D8695869583705D
:103DE00069F0813009F004CF812F9F2D9370B110BD
:103DF00002C090E080E00E948C08FACE812F9F2DB7
:103E00009370B11002C090E080E00E947608F0CE7E
:103E10008F2D8370A9F5B110EBCE812F82958695F9
:103E20008770880F880F412F4F70082E01C0440FF4
:103E30000A94EAF7212F207114FF07C02FE030E029
:103E400001C0220F8A95EAF720959F2D96959695A9
:103E50009370923081F0822F842B933031F08091D7
:103E6000AB03913029F0242B82230E94C309C0CEDA
:103E7000842B822BFACF242B8091AB038227F5CFA2
:103E8000BB2069F1F0FEB4CE812F829586958770B4
:103E9000880F880F412F4F70082E01C0440F0A94DD
:103EA000EAF7212F207114FF07C02FE030E001C096
:103EB000220F8A95EAF720959F2D969596959370F7
:103EC000923099F0822F842B933031F08091AC03A3
:103ED000913041F0242B82230E94C70989CEF1FE44
:103EE00087CED2CF842B822BF7CF242B8091AC03AB
:103EF0008227F2CF0F2D0F70BB2029F0802F0E9458
:103F0000CB09812F02CF812F0E949D09802F0E9413
:103F1000D6096ECE133F68F4103F61F1113F09F4EA
:103F200040C0BB2009F48EC0E110C8CE8F2D8F7128
:103F30003DC0133FF1F1143FA1F7209176042230E8
:103F400008F469C08091AE03BB2009F44CC00E9404
:103F5000F3048091B00387708430B9F51092B003F8
:103F60001092B2031092B1038F2D8F710E94D60967
:103F7000A12C3ECEBB2081F0F4E0FE1508F438CE33
:103F80002F2D2F7181E090E001C0880F2A95EAF76C
:103F90009091AC038927A0CF25E02E1508F428CEF8
:103FA000EFCF8F2D8F71BB2009F4B1CF0E94CB09C9
:103FB0001FCE80E0BB2009F48FCF81E09F2D9F7141
:103FC00001C0880F9A95EAF787CF80917604E816AA
:103FD00078F60F2D0F71802F0E94CB0963E0802FA0
:103FE0000E946B0AC5CF9091AD03982B9093AD03BF
:103FF000E21668F01092B0031092B2031092B1036F
:1040000081111092AE0364E08F2D8F71E9CF81E0B2
:104010000E94E209ADCFBB2051F00F2D0F71802F10
:104020000E94CB0963E0802F0E946B0AE1CD81E002
:104030000E94E20931E03E1508F0DACD82E00E94EC
:10404000E209D6CDE110B8CE8F2D8F7160CFBB20A5
:1040500019F0E110DBCDDECDE110D8CD40E0D60186
:1040600012966C9112978D919C910E9430128091C2
:10407000770483FFCBCD80917C0490917D040297DF
:1040800009F0C4CD812F0E94B60CC0CD0031FFE5F0
:104090001F0709F43ECA01312FE5120709F443CA8C
:1040A0000E3BECE51E0709F484CA08F040CA0C3B3D
:1040B0002CE5120709F464CA0D3B3CE5130709F42B
:1040C00067CA83E00B3B4CE5140709F45ACAC801E0
:1040D00097558F3F910511F008F047C020911B01C3
:1040E000022E000C330B2817390714F480931B01A0
:1040F000D60112962C91129736E1389F5001399FC4
:10410000B00C1124F501E751FD4F7F01208B129671
:104110009C918681992309F482CA128701878F5F57
:1041200086830E94BC08D7011E969C938E931D9790
:104130008091AA0317968C9317978091AF03909163
:10414000AD03892B18968C931897ED91FC911197DC
:10415000309739F054966D917C91C50181519D4FF6
:1041600009951093E8020093E7028091750480FF9F
:1041700037C00E94BC087C01D60112968C9188231E
:1041800011F180911C0182FF06C040E0B70190E070
:1041900080E00E94560C82E00E94FB040B31BCE5DB
:1041A0001B0709F449CA0C31ECE51E0709F47BCA68
:1041B00090911C01892F8E7F90FF81600A31FCE570
:1041C0001F0709F473CA0832110508F075CA0E31C9
:1041D000110508F0B7CAC80104974A9708F47FCAC6
:1041E000D60112968C91033FBCE51B0709F4E5CA82
:1041F00008F0CACA083DFCE51F0709F4DACA093D00
:104200002CE5120709F4E1CA26E241EE61EE073D12
:104210003CE5130709F015CA0E94830DE3C861E06D
:10422000C6010E944D128C01D60112968C918823F2
:10423000A9F080911B018F3F89F039EEE32E32E027
:10424000F32EB12CA12C9924939480911B01082E5C
:10425000000C990B8A159B050CF08CC8F601828125
:104260008111AFC800313FE5130709F458C9013186
:104270004FE5140709F459C9780197E5F91AAFEF2A
:10428000EA16F10411F008F022CF6CED72E08E2DE9
:104290000E948D18892B09F01ACF86E18E9DF001BE
:1042A0008F9DF00D1124E751FD4F8681813009F07B
:1042B0005CC98091DC029091DD02892B09F407CF63
:1042C0008091DE029091DF02892B09F400CF80916A
:1042D000E0029091E1022091E2023091E302822B10
:1042E000932B892B09F0F3CE26E12E9DC0012F9D43
:1042F000900D112487519D4FFC01108A0E94020AE3
:10430000E6CE06311C4509F04DCB8091AD03982FC8
:104310009A7A2091740420FF04C0482F447409F055
:1043200090E021FF04C0482F417109F090E022FF86
:1043300004C0482F487809F090E023FF03C0827240
:1043400009F090E0332309F40ECB81E0911101C014
:1043500080E080939E0369E2911165E380EA91E039
:104360000E94A2080E94E3083DC8EF92FF920F93BB
:104370001F93CF93DF938091C602807F31F48091A9
:10438000C302C0918002811119C0DF91CF911F91AA
:104390000F91FF90EF9008958091C1029091C20219
:1043A0002091C4023091C502D0E02115310521F0E1
:1043B000492F48234F3F39F42196C77080917F02DF
:1043C0008C13EACFE2CF8E0143E0000F111F4A9514
:1043D000E1F7F801EF57FD4F41819413EDCF908144
:1043E0009813EACF82818111E7CFE380F480E21A4B
:1043F000F30A60E081EC92E00E944D128091720419
:1044000090917304E816F906B8F68091C6028F7091
:1044100080618093C602F801EA57FD4F80818F705A
:104420008061808381EC92E00E948619DF91CF91B8
:104430001F910F91FF90EF900C94DC047F928F926C
:104440009F92AF92BF92CF92DF92EF92FF920F9323
:104450001F93CF93DF93CDB7DEB72D970FB6F894A8
:10446000DEBF0FBECDBF8C0185E0F801DE011996DD
:1044700001900D928A95E1F7D801BC901196AC900D
:1044800011971296EC9012971396CD90DC90909124
:10449000C1028091C2022091C4023091C50221154F
:1044A000310521F089238F3F09F0A7C1EE2009F4DF
:1044B000A0C0C8010E942212F82E882309F499C0D6
:1044C00088E0F801A1ECB2E001900D928A95E1F745
:1044D0000E94B52127C160E081EC92E00E944D125C
:1044E0008091770480FDC1C1CD2829F08B2D8A21D0
:1044F0008F3F09F0EEC080E0A82FA170DA2EE09186
:10450000800220917F0280FD1EC0EE2009F40AC1C6
:104510008091C60281608093C602F12C03C18E2F68
:1045200090E0B8E0EB9FF0011124EF57FD4F31818F
:104530003A1106C030813B1103C032813E11E5CFF4
:104540000196E82FE770E213EACF89859A850E94E9
:104550001412292F22952F70903260F0225F2F7055
:10456000223078F49F7051F0F8019581907F31F4FA
:10457000D12C0AC09F7011F08823D1F3805E88305F
:10458000B8F3C8010E948619FD2CCCC0452B29F038
:10459000282F29232F3F09F0DAC0C8010E942212D8
:1045A000882339F1EE2029F18091C6028032A0F0F3
:1045B0008091C1029091C2029A8389831B82DD821D
:1045C000CC827E828091C7029091C80298878F83A7
:1045D000CE0101960E94861988E0F801A1ECB2E0B4
:1045E00001900D928A95E1F70E94B521FF24F39482
:1045F00099C0C8010E948619F9CF872D807F61F488
:1046000081EC92E00E94861988E0E1ECF2E0DF01A3
:104610001D928A95E9F781CF8091C1029091C202E3
:104620002091C4023091C502232B09F4B6CF282F64
:1046300029232F3F09F4B1CFF80121812913ADCFF0
:10464000F80190819813A9CF2091C7023091C80238
:10465000868197812817390709F09FCFE1109DCFF8
:104660007582C8010E948619E1ECF2E088E0DF0162
:104670001D928A95E9F756C060E081EC92E00E94B5
:104680004D1280917204909173048816990660F718
:10469000FE2CEE2009F4ADCF8091C1029091C202B0
:1046A0002091C4023091C502232B29F0282F292301
:1046B0002F3F09F071C0C8010E94221281118CCFD6
:1046C0008091C60281608093C602C8010E9486194B
:1046D00029C081E08E2510CF81E08E25CFC0F80162
:1046E00021812913B5C0F80190819813B1C02091A0
:1046F000C7023091C802868197812817390709F0CF
:10470000A7C0E110A5C08091C6028F708061809320
:10471000C60281EC92E00E9486198091C602D801FF
:1047200015968C938F2D2D960FB6F894DEBF0FBE85
:10473000CDBFDF91CF911F910F91FF90EF90DF9050
:10474000CF90BF90AF909F908F907F900895D801A9
:1047500011962C91291321CFD8019C9198131DCF2C
:104760002091C7023091C80216968D919C9117979F
:104770002817390709F011CFE1100FCF15967C9259
:10478000C8010E94861988E0F801A1ECB2E001900E
:104790000D928A95E1F7C6CFD80111962C91291375
:1047A0008ACFF8019081981386CF2091C70230916B
:1047B000C802868197812817390709F07CCF60E00D
:1047C00081EC92E00E944D128091770482FDDBCF54
:1047D0008091C60280FDD7CF982F907FA1F2D8019B
:1047E00015968C931597903F59F2982F907F905F74
:1047F0008F70892B15968C93C3CFF090C30246011E
:10480000821A930AFF2009F437CF60E081EC92E02E
:104810000E944D1280917204909173047090C602B0
:104820008816990608F0E9CE8091C1029091C202E3
:104830004091C4025091C502272D207F09F0A6CED9
:10484000FE2C452B29F0282F29232F3F09F047CF95
:1048500060E081EC92E00E944D1280917204909190
:104860007304843F914008F436CEC114D10429F07A
:104870008B2D8A218F3F09F02FCF80E0E0918002BD
:1048800020917F0280FF30CEE21709F42DCE8E2FCB
:1048900090E038E0E39FF0011124EF57FD4F3181A4
:1048A0003A1106C030813B1103C032813E11A8CEBF
:1048B0000196E82FE770E8CFCF93DF93CDB7DEB74F
:1048C00060970FB6F894DEBF0FBECDBF29873A8739
:1048D0004B875C876D877E878F87988BCE01099683
:1048E0000E941E22811116C088E0FE013996DE0169
:1048F000119601900D928A95E1F799858A85A0918C
:104900007F02209180024C855D85452B19F089231B
:104910008F3FA9F58091800290917F0289131CC07E
:1049200060960FB6F894DEBF0FBECDBFDF91CF917A
:10493000089593E0AA0FBB1F9A95E1F7AF57BD4FBB
:1049400098E0FE01319601900D929A95E1F78093DF
:104950007F020E94DC04DECFB8E08B9FC0011124EF
:104960008F579D4F0E941E228823D1F28091800292
:1049700090E001968770992780938002CBCFB0E0BA
:10498000CD010196877099272817190691F60E9484
:10499000BF1210927F021092800288E0E1ECF2E0F8
:1049A000DF011D928A95E9F7B5CF0F931F93CF933F
:1049B000DF9380911F04E091C6011CE081111EC0AD
:1049C000DF91CF911F910F91089501E00E0F009399
:1049D000C601CE2FD0E01E9FD0011124A154BC4FA0
:1049E00013968D919C911497892B39F08C91119687
:1049F0009C91119789238F3F51F4E02F80911F04E0
:104A0000E81718F310921F041092C601D9CF16961A
:104A10008D919C911797892B29F418968D919C91D3
:104A2000019679F4E19FF0011124E154FC4F2081BB
:104A300031814281538164817581868197810E9491
:104A40005C241C9FF0011D9FF00D1124E154FC4FCC
:104A500014821382D2CF3F924F925F926F927F92D5
:104A60008F929F92AF92BF92CF92DF92EF92FF927E
:104A70000F931F93CF93DF9300D000D0CDB7DEB755
:104A80002091BE03298317E0812E01E010E08CE025
:104A9000382E9EEF992E442443948091BD03F981D2
:104AA0008F1319C00E94D5240F900F900F900F9074
:104AB000DF91CF911F910F91FF90EF90DF90CF90FA
:104AC000BF90AF909F908F907F906F905F904F902E
:104AD0003F900C942D089981892F90E09C838B83C3
:104AE000FC01EE0FFF1FED54FC4F80819181889EE9
:104AF000D001899EB00D1124FD01EE5DFB4FFA83BC
:104B0000E9832481211157C050901F04EFEBF3E09B
:104B100050E040E0712C451508F04BC0A284B384EE
:104B2000A981BA81CD90DC902FEF3FEF612C662DEB
:104B300070E07B01EE0CFF1CEC0CFD1CD701ED902E
:104B4000FC90E114F10431F0AE14BF0409F49B01B0
:104B50006394EDCF2F3F3207C1F1D80102C0AA0FF5
:104B6000BB1F2A95E2F77A2A980102C0220F331F51
:104B70006A94E2F7215031097216130621F5349E2A
:104B8000F001359EF00D1124E154FC4F889ED001B8
:104B9000899EB00D1124AE5DBB4F12962D913C91B4
:104BA0001397378326839082918291878087159609
:104BB0004C920E943E08EB81FC813196FA83E98396
:104BC000E370E9836ACF148213824F5F5F4F3C9694
:104BD000A2CF6F927F928F929F92AF92BF92CF920D
:104BE000DF92EF92FF920F931F93CF93DF93CDB796
:104BF000DEB728970FB6F894DEBF0FBECDBFFE011B
:104C0000319688E0DF011D928A95E9F79FE5E92E4C
:104C100091E0F92E8F0123E6822E21E0922E3F01B2
:104C2000AA24A394B12CF70181917F018F3F09F44D
:104C30004BC0F894E82FE295EF70F0E021A18F705F
:104C4000A50102C0440F551F8A95E2F7CA01922FB1
:104C5000982B91A392A18095892382A3789400C078
:104C6000E3E6F1E030E020E0D12CC12C81918F3FD0
:104C700009F463C0A82FA295AF70A05EB0E04C917C
:104C800050E08F7002C0559547958A95E2F740FD38
:104C900054C0C501022E02C0880F991F0A94E2F782
:104CA000C82AD92A2F5F3F4F2C303105F9F6F7017A
:104CB000319780818F3F11F00E94D60650EA5A95B5
:104CC000F1F7D801CD92DC920E5F1F4F8E149F0436
:104CD00009F0A9CF48E050E0B30185E792E00E94D7
:104CE000B5349C0101E0892B09F400E0232B41F14C
:104CF00088E0F301A5E7B2E001900D928A95E1F713
:104D000081E080936C020E94BC0890936B028093B8
:104D10006A0280916A0290916B020E94810A059753
:104D200098F088E0E5E7F2E0ADE6B2E001900D92A0
:104D30008A95E1F710926C0207C080E090E0B0CF56
:104D400080916C028111E5CF80911B018F3F09F0AA
:104D500074C080911D01811174C08091750480FF21
:104D60001CC080911C0182FF18C00E94BC08BC01BD
:104D700080919B0390919C039B01281B390B809190
:104D8000190190911A012817390738F041E08091F4
:104D9000990390919A030E94560C802F28960FB683
:104DA000F894DEBF0FBECDBFDF91CF911F910F9161
:104DB000FF90EF90DF90CF90BF90AF909F908F903B
:104DC0007F906F900895D29EF001D39EF00D112434
:104DD000E751FD4FE288F388E114F10421F4E090FB
:104DE0007204F0907304D29EF001D39EF00D112452
:104DF000E751FD4F86818823A1F0858596850E9425
:104E0000810AE816F90668F41D9D70011124C70196
:104E100087519D4F0E94020AC70181519D4F0E94F8
:104E2000260A1F5F212F30E080911B01082E000C05
:104E3000990B821793073CF68CCF10E086E1D82EB1
:104E4000F1CF8091200490912104009709F485CF3F
:104E50000E94810A2091BB033091BC0328173907B7
:104E600008F07BCF9091BE038091BD03981759F055
:104E70000E942B251092BC031092BB0310922104B8
:104E8000109220046ACF0E94D5241092210410921F
:104E900020040E942D0861CF10922104109220045A
:104EA00010921D018091BD038093BE030E942D08C6
:104EB0000C94D5242F923F924F925F926F927F92E3
:104EC0008F929F92AF92BF92CF92DF92EF92FF921A
:104ED0000F931F93CF93DF93CDB7DEB76A970FB6CB
:104EE000F894DEBF0FBECDBF498B5A8B262F6B8B3C
:104EF0007C8B8D8B8C899D89892B29F0852F842330
:104F00008F3F09F029C221111092AF031E861F8620
:104F1000188A85E0FE017196DE01199601900D92C6
:104F20008A95E1F780915C0490915D04892BC1F032
:104F30000E94BC082091B1033091B203821B930BF5
:104F400020915C0430915D048217930720F08091DA
:104F5000B00382FFFDC10E94C80881110E940305B1
:104F600089859A852C853D85232B21F089238F3FC8
:104F700009F0DAC129853A854B855C856D857E858A
:104F80008F8598890E945C24C6C028EFC2162CE544
:104F9000D20629F4882379F00E944C27EBCF39EF11
:104FA000C3163CE5D30639F4882329F080911D010E
:104FB0008111F2CFC9C102E214E0512C912C812C55
:104FC00022242394312C9EEF492EF80140815181F7
:104FD000AA24AA94BB24BA9420E0822F90E0FC017A
:104FE000EE0FFF1FE40FF51F6081718161157105E0
:104FF00031F0C616D70609F45C012F5FEECFF12C15
:10500000FFEFAF16BF0609F448C0F8014481F090E5
:105010001D018F2D411180E0F82FF170FF2EF80156
:10502000E58086819B85992309F411C1FF2009F44D
:105030000EC16090700470907104E11012C0A10163
:1050400001C0440FAA94EAF7842B86838091BB03A6
:105050009091BC038615970520F47092BC03609272
:10506000BB03C10102C0880F991F2A95E2F701977F
:10507000F80126812817190681F480912004909167
:105080002104009709F460C00E94810A681679061D
:1050900008F05AC021E0F80124835F28FFEF8F1A3F
:1050A0009F0A095F1F4F28E08216910409F08DCFF7
:1050B0008B85882309F423C1552009F420C10E945F
:1050C000BC08909321048093200480911F048830B1
:1050D00010F591E0980F90931F0498E0FE01399627
:1050E000DE01119601900D929A95E1F73CE0839FC5
:1050F000C001112481549C4F28E0FE013196DC014F
:1051000001900D922A95E1F72FEF3FEFFC013187D7
:105110002087D386C2866A960FB6F894DEBF0FBE8C
:10512000CDBFDF91CF911F910F91FF90EF90DF9056
:10513000CF90BF90AF909F908F907F906F905F9037
:105140004F903F902F9008958091BE033091BD0302
:105150003E8B982FE0E0F0E0E02E512F2E89821355
:1051600014C09093BE030E171F0709F496CF90E06A
:10517000FC01EE0FFF1FED54FC4F918280820196DF
:10518000837099278093BD0388CFA82EB12CF50199
:10519000EE0FFF1FED54FC4F60817181E7E0E69F49
:1051A000D001E79FB00D1124AE5DBB4F2D913C9116
:1051B00011973A8F298F40E020E030E0E32FF0E0B4
:1051C000EE0FFF1F698D7A8DE60FF71F60807180EB
:1051D00061147104E1F0F8010190F081E02DF88F85
:1051E000EF8B20E005C06616770609F44F2D2F5F80
:1051F000E22FF0E0EE0FFF1F6F89788DE60FF71FAB
:10520000608171816115710571F73F5FD7CF4423CC
:10521000D9F0EE2DF52F231708F0FD0121E02483AE
:105220000E171F0721F49093BE03F42E36CF891377
:1052300005C0AE17BF0711F49F5F937095012F5FF4
:105240003F4F822F83708ACFE0E0F0E0F7CF90E00D
:10525000E1101FC0B10102C0660F771F2A95E2F767
:105260009B01215031098217930731F4442309F43B
:1052700044C0C4010E943E08C10101C0880FAA9425
:10528000EAF7982F9095F801868189238683FE2C72
:1052900004CFAC010A2C02C0559547950A94E2F759
:1052A0009C012150310982239323892B11F540FF62
:1052B00020C0F80182819381892BC1F01B821C825E
:1052C0001D821E8249824A820E94BC088160582F3A
:1052D000692F9D838C83F801828193818F839887C6
:1052E00029813A814B817E810E945C24F8011582DC
:1052F000C3CFF42FF170EF2EBFCFEF2CBDCF909125
:10530000BE038091BD03981731F00E942B255520D4
:1053100009F430CE00CF0E94D524109221041092BF
:1053200020040E942D08F3CF61E0CE0109960E946F
:105330004D126C018B8537EFC3163CE5D30609F09F
:1053400024CE882309F437CE81E080931D0112CE4C
:1053500082E00E94E209FFCD80917C0490917D045F
:10536000019690937D0480937C04CDCD0F931F9381
:10537000CF93DF9300D000D00F92CDB7DEB78C0172
:105380009093200280931F02011580E21807D8F441
:10539000C801805E9109089728F064EA79E0011558
:1053A000110511F463E979E0C8010E942B04802FF4
:1053B0000F900F900F900F900F90DF91CF911F9152
:1053C0000F910C941F098EEF89838A8381E08B8370
:1053D0000E94BC088160782F49815A816B81892F96
:1053E0000F900F900F900F900F90DF91CF911F9122
:1053F0000F910C945A270F931F93CF93DF9300D0F4
:1054000000D00F92CDB7DEB78C019093200280932D
:105410001F02011580E21807D8F4802F0E946B0943
:10542000C801805E9109089728F06EEA79E00115BD
:10543000110511F46DE979E0C8010F900F900F90FC
:105440000F900F90DF91CF911F910F910C942B042F
:105450008EEF89838A831B820E94BC088160782F2B
:1054600049815A816B81892F0F900F900F900F9077
:105470000F90DF91CF911F910F910C945A27CF93EA
:10548000DF93D82FC92F0E94B6298091780490917C
:1054900079040E94480C8D2F9C2FDF91CF910C94A2
:1054A000FB290F931F93CF93DF938C01862F6CED15
:1054B00072E00E948D18892BC9F4C091DC02D09152
:1054C000DD02209799F0F8018081833069F4CE01E4
:1054D0000E943F2ACE010E943F2ACE01DF91CF9148
:1054E0001F910F910C943F2A8430B8F7DF91CF9130
:1054F0001F910F9108950F931F93CF93DF938C010A
:10550000EB016CED72E08C2F0E948D18892B09F055
:1055100063C0FE01FF27D8018C91E95EFD4F813009
:10552000D1F419968C91199781115BC01A968C91C0
:10553000882309F456C082E080838091DE02909136
:10554000DF020097D9F48091DC029091DD02009790
:1055500009F442C013C08230E9F519968C9119976D
:1055600081112DC01A968C9181110EC083E0808329
:105570008091E0029091E102009719F1DF91CF91C3
:105580001F910F910C94B62984E080838091E202F0
:105590009091E302009791F78091DC029091DD02F7
:1055A000009711F10E943F2A8091DE029091DF0264
:1055B000009721F78091DC029091DD02DFCF85E03A
:1055C00080838091DC029091DD02009729F00E9497
:1055D0003F2AF0CF86E08083DF91CF911F910F911A
:1055E000089581E08083AFCF8091DE029091DF0249
:1055F000AECF0F931F93CF93DF938C01EB016CED34
:1056000072E08C2F0E948D18892BA1F48091780470
:10561000909179040E94480CDD27C95EDD4F888196
:10562000F80110821882833009F148F4813059F072
:10563000823081F0DF91CF911F910F9108958430D6
:10564000D1F08530B9F78091DC029091DD020097AE
:1056500089F306C08091DE029091DF02009799F3F2
:10566000DF91CF911F910F910C94FB298091E00263
:105670009091E102F3CF8091E2029091E3020097D2
:1056800079F72091DC023091DD028091DE02909169
:10569000DF0221153105D9F2009711F7C901E0CFDA
:1056A000CDB7DEB7AE970FB6F894DEBF0FBECDBF55
:1056B00084B7877F84BF0FB6F894A8958091600067
:1056C000886180936000109260000FBE80E890E0D7
:1056D0000FB6F89480936100909361000FBE85B778
:1056E000806885BF85B7806885BF84ED96E090931C
:1056F0009F0180939E010E94A1180E9434180E946D
:1057000076120E943E0B0E94E70B8091E2008460BB
:105710008093E200789480916902882399F08091C7
:10572000E9001091EC001795112717958F70182B31
:105730001092E9008091E80083FD0E94CA121F7058
:105740001093E90082E084BD93E095BD9AEF97BD88
:1057500080936E000E948111811102C00E949517F2
:1057600085E30E94D60682E90E94D60685E90E945A
:10577000D60683E90E94D60603E611E0D8018D9192
:105780008D018F3F11F00E94D606B1E00F361B0746
:10579000A9F7109276021092750210926E02109282
:1057A0006D0210927802109277021092700210929D
:1057B0006F0210927A021092790210927202109285
:1057C000710210927C0210927B021092740210926D
:1057D00073020E94F916811102C00E94A41782E090
:1057E00090E00E94E234809353020E9473119093E0
:1057F000A9038093A8030E94E925EFE3FCE9319710
:10580000F1F700C000000E94E92580916D0280FF41
:1058100008C06FEF7FEF90E080E00E9414350E9497
:10582000711083E090E00E94E2340E94C309269A3E
:105830002E9882E28093800089E1809381008FEF2F
:105840009FEF90938700809386000E940E180E941D
:105850000E1880914802811133C00E94F9168111FF
:1058600004C00E94A4170E94AC1588E090E00E943A
:10587000EA346093A1037093A2038093A3039093EF
:10588000A4036E7F71F40E94AC1588E090E00E9442
:10589000EA346093A1037093A2038093A3039093CF
:1058A000A4030E9491071092A0038091A10380FF9E
:1058B00004C060E086950E940D1981E08093480243
:1058C0008FE091E090937E0280937D0268E1262E26
:1058D000312C75E7472E72E0572E80916902FF2424
:1058E000F39400E112E1853009F42DC10E94E9250D
:1058F000882359F08FB7F89440916002509161026B
:1059000060916202709163028FBF5DE6E52E52E006
:10591000F52EE4E5F2E0D70110E000E0702F8D9164
:105920009D91219131912817390709F42FC128271A
:10593000392760E0CC24C394D12CA6014223532301
:10594000452B09F41DC169837A83960128233923E5
:1059500091E0232B09F490E09B830E94BC088160B6
:10596000782F9D838C8349815A816B81892F0E9476
:105970005A27000F111FF801EC5AFD4F80819181C9
:105980008C259D25918380838091A0038823D1F16C
:1059900080919F03E091A103E695E81BE0934E02FE
:1059A000823009F00AC1F0E0E05DFA4FE4910E2F79
:1059B00010E02DE4C22E20E1D22E80914F028823E8
:1059C00061F010924F020E94BC0890934D028093A8
:1059D0004C0210925102109250020E94BC08209179
:1059E0004C0230914D02821B930B8F3F9F4750F426
:1059F000200F311F30934D0220934C028CE492E033
:105A0000F60109950E946A0890915202891721F0C7
:105A10000E946A088093520280916902843009F0E2
:105A20005CCF83E08093E9008091E80082FF55CF4E
:105A30008091E80090E085FF0CC00E940D0B50E2C1
:105A4000C52ED12C8E010F5F1F4F882309F41DC175
:105A500091E08091E8008B778093E800992309F426
:105A60003CCF0091660210916702E9810115110592
:105A700009F419C1EE3F09F04CC18A81833020F04E
:105A80008550833008F045C1EA81EE3008F041C10D
:105A9000F0E0E459FA4C0C9455348091690284305A
:105AA00009F441C080E00E94A5071092A0038091F4
:105AB0004B02811116C0F0924B028091A103982FE6
:105AC000917090934A028E7F8093A103FFEF20E7AD
:105AD00032E0F15020403040E1F700C000000E9469
