:100000000C9416030C944E030C944E030C944E0364
:100010000C944E030C944E030C944E030C944E031C
:100020000C944E030C944E030C9405270C94C1269B
:100030000C9402280C944E030C944E030C944E0323
:100040000C944E030C944E030C944E030C944E03EC
:100050000C944E030C94DE270C944E030C944E0328
:100060000C944E030C944E030C944E030C944E03CC
:100070000C944E030C944E030C944E030C944E03BC
:100080000C944E030C944E030C944E030C944E03AC
:100090000C944E030C944E030C944E030C944E039C
:1000A0000C944E030C944E030C944E03050109026C
:1000B000A10185020901A100050919012905150001
:1000C00025019505750181029501750381010501E1
:1000D000093009311581257F950275088106093897
:1000E0001581257F950175088106050C0A380215D2
:1000F00081257F950175088106C0C005010980A191
:1001000001850319012AB700150126B7009501756D
:10011000108100C0050C0901A101850419012AA064
:1001200002150126A002950175108100C00660FF2E
:100130000961A1010962150026FF0095207508815B
:10014000020963150026FF00952075089102C0057D
:10015000010906A101050719E029E7150025019508
:1001600008750181029501750881010507190029AB
:10017000FF150026FF009506750881000508190186
:100180002905950575019102950175039101C0003E
:10019000000000000000000000000000000000005F
:1001A000000000000000000000000000000000004F
:1001B0000000007E0F00D4FFFFFFC70000007800A2
:1001C000000000000000002A2B28000000000000B2
:1001D0000000000000000000000029000000002CCA
:1001E0001E3420212224342627252E362D37382769
:1001F0001E1F202122232425263333362E37381F75
:100200000405060708090A0B0C0D0E0F1011121336
:100210001415161718191A1B1C1D2F3130232D35D4
:100220000405060708090A0B0C0D0E0F1011121316
:100230001415161718191A1B1C1D2F3130354CFDBB
:10024000377A585A000004E6D6B446020021011657
:10025000000000742FE5A3E001C200DE5D003D88D0
:1002600089C65436C3174FE4DC2A19C8F0DA0700F0
:10027000295338D35428ADBEAA0AE7FF446056FB81
:100280005BFAB35921C2EB8D2600FA13EDF0E1C4FD
:100290007A4845D5489F229782A45A560B2410DAF3
:1002A000BA0BDB8F373883F873D5D2B05534D39D72
:1002B000BC217834809151CD869F571FFBD833DE07
:1002C000C9667F8D867E1F8A24BFE8AD3BEFD7A627
:1002D00017B978EA84ACDCA95BD08D26F483EF19DA
:1002E000104252455E10159D9E687385577294C0EA
:1002F000B266F13E6555A65542DCD67F9411874C17
:1003000019C38229ECE95ED7BE4E8779BB84200BE6
:10031000835484559BF84FBDCBC282B8E27F9BF7D4
:10032000D63DF4AD33AAECB6117483373A731AE5AF
:10033000D5A14FE03914169E6B1C0A6B000000A477
:100340001AD2F0272564760001FA01C3030000A346
:1003500038822CB1C467FB020000000004595A29FE
:100360000014001A000800150017001C0018000CEB
:1003700000120013002A002B0004001600070009D9
:10038000000A000B000D000E000F0000002800E125
:10039000001D001B000600190005001100100036AA
:1003A00000520000003700E000E300E2002C0000F3
:1003B000002C00000001515000510000004F0000CF
:1003C0005C010001000100010001000100010001C9
:1003D000000100010001000100BF5CBD5CBE5CC00B
:1003E0005C010001000100010001000000010001AA
:1003F00000C25CC35CC55CC65CC75CC85CC95CCA47
:100400005C0100000001000100010001000100008A
:1004100000010000000100010001000000010001D6
:1004200000010001000100010001000100010001C4
:1004300000010001000100010001000100010001B4
:1004400000010001000100010001000000010001A5
:100450000001000100010001000100010001000194
:100460000001000000010001000100010001000086
:100470000001000000010001000100000001000176
:100480000001000100010001000100010001000164
:100490000001000100010001000100010001000154
:1004A0000001000100010001000100000001000145
:1004B0000001000100010001000100010001000134
:1004C0000001000000010001000100010001000026
:1004D0000001000000010001000100000001000116
:1004E000000100740300000200020070030000031A
:1004F00000010075030000040002005A03E2050534
:1005000000010076030000060002005C0300000703
:1005100000020072030000080001007703000009D8
:100520000002005E03BD050A0002006003BD050B6A
:100530000002006203BD050C0002006403BD050D4E
:100540000002006603BD050E0002006803BD050F32
:100550000002006A03BD05100002006C03BD051116
:100560000002006E03BD05120002007803000013B4
:100570000002007A03000009025B00030100A0FAF8
:1005800009040000010301010009211101000122F9
:10059000400007058103080001090401000203006F
:1005A0000000092111010001222200070582032019
:1005B00000010705030320000109040200010300F4
:1005C0000000092111010001228100070584032098
:1005D00000011201000200000008EDFE0000010011
:1005E000010203011C037600690061006C003A00FF
:1005F000660036003400630032006200330063009E
:1006000000000C0342004D003400330041000000A4
:1006100016034B0050005200650070007500620028
:100620006C006900630000000403090411241FBE6C
:10063000CFEFDAE0DEBFCDBF04B603FE18C0809175
:10064000580490915904A0915A04B0915B048730EA
:10065000904BA740B04B59F4109258041092590493
:1006600010925A0410925B04E0E0F8E3099511E05F
:10067000A0E0B1E0ECE4F0E602C005900D92A437F2
:10068000B107D9F724E0A4E7B1E001C01D92A83575
:10069000B207E1F70E9429280C9400300C94000066
:1006A000E8EDF0E080818E7F80831092E20010926E
:1006B000DA001092E100A0EEB0E08C9181608C93A2
:1006C00080818F77808319BCA7EDB0E08C918E7FFD
:1006D0008C9380818F7E808310923F0408952091B7
:1006E000E4003091E50095E6A9012091EC00822F0D
:1006F000817020FF06C08091E80080FF06C080E086
:1007000008952091E80022FD1AC0809155048823A5
:1007100089F0853089F08091EB0085FD0FC0209134
:10072000E4003091E50042175307F9F29150E1F6E9
:1007300084E0089582E0089583E0089581E00895BB
:10074000EF92FF920F931F93CF937C018B010E9436
:100750006F03C82F811117C08091E80085FD0BC081
:100760008091E8008E778093E8000E946F038823D1
:1007700099F3C82F08C0F70181917F018093F100A0
:100780000150110949F78C2FCF911F910F91FF90C4
:10079000EF900895CF93FC0180915504843001F5CA
:1007A000C091E900CF702091EC00922F917020FD54
:1007B00090E8C92B82E08093E9008091E80080FFF7
:1007C0000CC050E040E060E270E0CF010E94A00366
:1007D0008091E8008E778093E800CF70C093E900A5
:1007E000CF91089580914D0487FF13C08091E80058
:1007F00082FF06C08091E8008B778093E80004C0F8
:10080000809155048111F2CF089580915504882379
:10081000D9F38091E80080FFF8CF8091E8008E77CF
:10082000ECCF982F9093E900242F762F50E0891772
:1008300031F07091EC002091ED005091F00021FD1D
:1008400007C09F5F973071F78093E90081E00895BA
:100850003091EB003E7F3093EB003091ED003D7F17
:100860003093ED003091EB0031603093EB007093EA
:10087000EC002093ED005093F0002091EE0027FD56
:10088000E0CF80E00895CF92DF92EF92FF920F9336
:100890001F93CF93DF93C8EDD0E088818F7E88834C
:1008A000E7EDF0E080818160808384E082BF81E0B9
:1008B00080933F0488818E7F888302EE10E0F801E8
:1008C00010821092DA0081EEC82ED12CF60110822F
:1008D00088818F77888388818068888388818F7DED
:1008E000888319BC1092550410924C0410924B044A
:1008F00010924A0490EEE92EF12CF70180818B7F53
:10090000808388818160888342E060E080E00E948B
:100910001104F60180818E7F8083F80180818160DF
:100920008083808188608083F70180818E7F8083CF
:10093000888180618883DF91CF911F910F91FF9013
:10094000EF90DF90CF900895FC0180915304909137
:10095000540486179707A0F06115710529F490914A
:10096000E8009E779093E80090E06115710551F4DE
:10097000911108C08091E80082FF34C080E00895A2
:10098000BC01F2CF809155048823C1F18530C1F1BB
:100990008091E80083FD30C08091E80082FDEACFBD
:1009A0008091E80080FFE1CF8091F3002091F20078
:1009B000382F6115710519F02830310558F091E094
:1009C0002830310509F090E02091E8002E7720933F
:1009D000E800CBCF81918093F100615071092F5FC6
:1009E0003F4FE7CF80915504882341F0853041F097
:1009F0008091E80083FFBECF81E0089582E00895F2
:100A000083E0089508958091410408959C014FB7B3
:100A1000F8948091380490913904A0913A04B091EF
:100A20003B044FBF821B930B08952FB7F89480911E
:100A3000380490913904A0913A04B0913B042FBF3F
:100A400008959C01FC0132969FEF80E0419146178A
:100A500051F09F3F19F4411101C0982F8F5F8630EC
:100A6000A9F79F3F09F40895290F311D97FD3A9585
:100A7000F9016283089520913504309136042817D6
:100A8000390771F09093360480933504E091330474
:100A9000F0913404309721F00084F185E02D099421
:100AA000089520913104309132042817390771F0EC
:100AB0009093320480933104E0913304F091340434
:100AC000309721F00680F781E02D09940895E09198
:100AD0003304F0913404309721F00190F081E02D3F
:100AE000099480E00895452B39F0682381E06F3F39
:100AF00009F080E08170089581E0FCCFDC01609115
:100B0000560380915703962F891301C00895292F0A
:100B100030E0F901EE0FFF1FE25BFC4F4081518195
:100B20004A175B07A1F487E08A9FA0018B9F500DB5
:100B300011244A5E5C4F81E0FA0184839613E6CF6C
:100B40002F5F3F4F237033272093560308952F5F65
:100B50003F4F922F9370D8CF1092B3021092B202EF
:100B6000E6E1F3E08581811102C014821682379696
:100B700083E0EE34F807B1F70895EAE5F3E0848105
:100B800095812AE030E0B9010E944B2F6093150156
:100B900086818093140182858093130184858093DC
:100BA000120186859785B9010E944B2F6093110130
:100BB000808980931001828980930F0184898093BA
:100BC0000E01089580915A0390915B039093170151
:100BD0008093160108950E9415059C0190912102B1
:100BE00080912202982B21F030931E0220931D0247
:100BF0009091230280912402982B21F030931C02C3
:100C000020931B02E0913304F0913404309749F0B3
:100C100082E080931F020480F581E02D8FE192E055
:100C20000994089590912102803F59F48091220205
:100C300087FF0DC01092220291110BC01092190271
:100C400008C0813F81F48091220218169CF39923F9
:100C500081F08091230290912402892B09F064C0D5
:100C6000109218020895823F49F497FFF0CF109236
:100C70002102809122028111ECCFE0CF833F19F451
:100C80001916ACF3E4CF20912302893F29F4121600
:100C9000F4F610922302DBCF8A3F19F427FFD7CF57
:100CA000F8CF209124028B3F29F427FFD0CF109258
:100CB0002402CDCF8C3F19F41216CCF3C8CF843F59
:100CC00031F4809120028E7F80932002C0CF853F37
:100CD00021F4809120028D7FF7CF863F21F480910F
:100CE00020028B7FF1CF873F21F480912002877F04
:100CF000EBCF883F21F4809120028F7EE5CF8D3F9E
:100D000031F480911A028E7F80931A02A0CF8E3F19
:100D100021F480911A028D7FF7CF8F3F09F097CF92
:100D200080911A028B7FF0CF089580911A0280FF84
:100D30000CC060910F0170E075956795759567958A
:100D40006115710549F1862F089581FF06C06091F4
:100D50000F0170E075956795F3CF60910F0182FDEB
:100D60000BC0909118029923A1F060910E0180911F
:100D70000F01961738F0682F70E06038710500F3A6
:100D80008FE70895899FC001112470E00E945F2FB2
:100D9000F4CF61E070E0D7CF81E0089580911A022E
:100DA000609162037091630380FF16C0209113016C
:100DB000269FC001279F900D1124BC017695679551
:100DC000769567956038710508F043C06115710527
:100DD00009F441C0862F089581FF0BC020911301B3
:100DE000269FC001279F900D1124BC017695679521
:100DF000E9CF82FF09C0809113019B01829FB0015E
:100E0000839F700D1124DECF209119022223D1F28D
:100E10009091120180911301482F50E0291748F05A
:100E2000CB01849FB001859F700D949F700D11249C
:100E3000C9CF289F90011124269FA001279F500D04
:100E4000369F500D1124692F70E0CA010E944B2F6C
:100E5000B9CF8FE7089581E00895803F31F40E9473
:100E6000CE068195809322020895813F19F40E9455
:100E7000CE06F8CF823F31F40E94CE068195809352
:100E800021020895833F19F40E94CE06F8CF893FCE
:100E900029F40E9495068093230208958A3F21F445
:100EA0000E9495068195F7CF8B3F31F40E949506FD
:100EB00081958093240208958C3F19F40E94950631
:100EC000F8CF843F31F4809120028160809320022A
:100ED0000895853F21F4809120028260F7CF863FFC
:100EE00021F4809120028460F1CF873F21F480912A
:100EF00020028860EBCF883F21F48091200280613E
:100F0000E5CF8D3F31F480911A02816080931A02FF
:100F100008958E3F21F480911A028260F7CF8F3FAF
:100F2000B9F780911A028460F1CF80E00895F894B7
:100F3000E82FE295EF70F0E031A1282F2F7081E0CB
:100F400090E001C0880F2A95EAF7982F9095932397
:100F500091A392A1892B82A3789408959091F8018E
:100F600092FF06C0282F28712830F9F4877F84600B
:100F700093FF06C0282F28712831F1F4877E846101
:100F80002091F90120FF06C0382F38713830D9F48C
:100F9000877F816021FF06C0282F28712831D1F476
:100FA000877E816194FD877E0895282F24712430E7
:100FB000F9F68B7F8860DCCF282F2471243101F76C
:100FC0008B7E8861DDCF382F3171313019F78E7FFC
:100FD0008860E0CF282F2171213121F78E7E886132
:100FE000E1CFCF93DF93EC0182389105A9F1D8F5D9
:100FF0008133910509F496C048F58932910509F4C9
:101000008AC08A9709F495C0C11521E5D20708F076
:10101000BCC0C11530E5D30708F014C1C83ED105E6
:1010200008F09CC0C03ED10560F5C83AD10508F073
:1010300087C0C53AD10508F0FDC0C130D10509F11E
:101040002097F9F0C430D105E0F440C08533910514
:1010500009F45AC0C997C1F68091F801837089F0EC
:10106000C0EED0E00EC0833E910599F170F4803E51
:10107000910501F1823E910539F68091F80182FDDA
:1010800021C0CE01DF91CF910895863E910561F197
:10109000873E910571F1843E910509F0B5CF8091AD
:1010A000F90181FFEECF8091F801C7EED0E084FD19
:1010B0000DC0E7CF8091F80180FD12C19091F90138
:1010C00090FFDFCFC3EED0E084FFDBCFD0E0C0E005
:1010D000D8CF8091F80182FD06C19091F90190FD71
:1010E000BFCF84FFCECFF2CF8091F80183FDDDCF5B
:1010F000C8CF8091F80183FDF9C09091F90191FF6B
:10110000F0CFC4EED0E0BDCF8091F80185FFB9CF1C
:10111000C9E2D0E0B6CF8091F80185FFB2CFC5E338
:10112000D0E0AFCF8091F80186FFABCFCAE2D0E02C
:10113000A8CF8091F80186FFA4CFC1E3D0E0A1CF72
:10114000CF3BD10518F6C85AD0E0CC0FDD1FCA5DE1
:10115000DE4F0990D881C02DD46493CFC11540E2F1
:10116000D40758F4C11581E0D80708F08ACFC03FF2
:10117000D10508F4ABCFD06584CFC11590E4D90771
:1011800008F4A4CFDF70D06A7CCFC11525E5D20763
:1011900000F5C11534E5D30708F08AC0C11543E551
:1011A000D40708F071C0C11582E5D80708F467C0FC
:1011B000CE018370992721E030E002C0220F331F57
:1011C0008A95E2F7C695C69580E2C89FE001112492
:1011D00052C0C11599E5D907A8F4C11528E5D20771
:1011E00008F06BC0C11536E5D30708F06FCF8C2F20
:1011F0000E94AE07C82FD0E0DC2FCC27CC27DF71B0
:10120000D0623FCFC1154AE5D40708F45BC0CE01D8
:1012100090568115904208F059CF8D2F8F710E9402
:10122000AE0790E0982F882788279F719C012C2B70
:10123000E901E6CFC55AD0E0CD5DDE4FC881D0E0F0
:10124000D0641FCFCE01E4E096958795EA95E1F74B
:1012500083702C2F26952695237040E2249F9001C1
:101260001124382B8C2F8370C1E0D0E002C0CC0F4A
:10127000DD1F8A95E2F7C22BD32BDC6802CFDC2F6F
:10128000CC27C16FD06AFDCECE018370992721E0B3
:1012900030E002C0220F331F8A95E2F7C695C6954B
:1012A00090E2C99FE0011124C22BD32BDA68E9CE6A
:1012B000DC2FCC27C46FD06AE4CEDC2FCC27C06FE4
:1012C000D06ADFCE8C2F8F700E94AE0734E0D695A7
:1012D000C7953A95E1F7CF709C2FEC01D069D1CE3C
:1012E000C9E3D0E0CECEC2EED0E0CBCEC6EED0E0A9
:1012F000C8CE8091EB01882331F01092EB0110925F
:10130000EA011092E9010895CF93C82F8091F90165
:1013100082FD0CC08091EB018C1741F00E941505F5
:101320009093EA018093E901C093EB01CF91089576
:101330008095909157049823909357040895809531
:1013400090918D02982390938D02089590918D0233
:10135000892B80938D0208951092E0011092DF0195
:101360001092DE01089580915C0390915D03892BBA
:1013700089F00E9415052091E9013091EA01AC0144
:10138000421B530B81E020915C0330915D034217B7
:10139000530708F480E0817008958091DD01811188
:1013A0001092DD0108952091DC0190919B01291399
:1013B00002C080E0089530E0F90153E0EE0FFF1F16
:1013C0005A95E1F7E456FE4F5181561306C05081FD
:1013D000581303C05281541304C02F5F3F4F27702E
:1013E000E6CF81E008958091DC0190919B019813F4
:1013F00001C008958F5F8770FACF9E3F49F1E82FB3
:101400002CE0929FE00D11249E2F9770E695E695B3
:10141000E69583E0E89FF0011124EF57FE4F50E07E
:1014200040E080E0219130E0092E02C036952795FA
:101430000A94E2F721703327042E01C0220F0A9488
:10144000EAF7822B4F5F5F4F4330510559F70895FC
:1014500080E008959E3F69F1E82F2CE0929FE00D17
:1014600011248E2F877041E001C0440F8A95EAF75E
:10147000E695E695E69583E0E89FF0011124EF57A5
:10148000FE4F30E020E070E05191DF011197CB0179
:10149000022E02C0969587950A94E2F78170819595
:1014A0008527842385278C932F5F3F4F2330310579
:1014B00059F7089592959F70963091F058F4925F85
:1014C0009F70923058F4803F19F030F4883E30F429
:1014D00081E008959A5FF4CF843FD1F380E00895CE
:1014E000883EB0F3813FD1F7F3CF9C013A952115A7
:1014F0003F4150F5FC01EE27F170BC016627727088
:10150000AC01442754709C012227387094FF0EC010
:1015100080E1EF2B09F480E0672B09F08062452B16
:1015200009F08064232B89F08068089581E0EF2B17
:1015300009F480E0672B09F08260452B09F0846094
:10154000232B19F08860089580E0089580933C046F
:1015500070933E0460933D04809155048430F9F407
:101560008093E9008FEF9091E800815095FD06C0CF
:1015700095ED9A95F1F700008111F5CF8091E80083
:1015800085FF0DC050E040E063E070E08CE394E044
:101590000E94A0038091E8008E778093E800089570
:1015A000BC0184E00C94A60ABC0183E00C94A60A5A
:1015B0009C0184E08093E9009FEF8091E8009150C6
:1015C00085FD06C085ED8A95F1F700009111F5CFF4
:1015D0008091E80085FF0CC050E040E066E070E0DC
:1015E000C9010E94A0038091E8008E778093E800F3
:1015F0000895CF93DF93EC0181E08093E9008FEFB2
:101600009091E800815095FD06C095ED9A95F1F70F
:1016100000008111F5CF8091E80085FF14C050E0F3
:1016200040E068E070E0CE010E94A0038091E800F5
:101630008E778093E80088E0FE01A2E4B4E0019098
:101640000D928A95E1F7DF91CF91089581E0809323
:10165000E00080E28093D8001092C9008FE19EE400
:101660000197F1F700C0000087E090EBDC01809368
:10167000580490935904A0935A04B0935B0488E1F2
:101680009CE00FB6F894A895809360000FBE9093ED
:101690006000FFCF019708F40895EFE9FFE031976C
:1016A000F1F700C00000F6CF0F931F93CF93DF93A5
:1016B0000AE513E0C7EAD1E0CE010E94B62FF80197
:1016C00081938F012196C93CF1E0DF07A9F7C5EEB0
:1016D000D4E0FE0185919491009711F0FC010995E9
:1016E0002896F5E0CD37DF07A1F7DF91CF911F9165
:1016F0000F9108950F931F93CF93DF93843030F5AC
:10170000643020F54C3010F5C42FD0E0CC0FDD1F35
:1017100028E1629FC00DD11D112430E6839FC00DCA
:10172000D11D1124CE0187960E94B62F082F10E0FC
:10173000102F0027CE0188960E94B62F9801282BE3
:10174000C901DF91CF911F910F91089590E080E042
:10175000F8CF462F20918B0230918C02232B91F4ED
:101760007E3F39F46E3F71F48091890290918A0234
:101770000895843038F4743028F46C3018F4672FEE
:101780000C947A0B90E080E00895CF92DF92FF9264
:101790000F931F93CF93DF936C01009156048091B8
:1017A000EC01082BC7E0D0E010E0FC2EC8010C2EA5
:1017B00002C0959587950A94E2F780FD0CC02197A9
:1017C000A0F7F12C8F2DDF91CF911F910F91FF90FA
:1017D000DF90CF900895B6018C2F0E94A90B0E9434
:1017E000F107019761F3EECFCF93DF93EC010E94F5
:1017F000C50BBE010E94A90BDF91CF910C94F1079C
:10180000FC0186819781009721F00E94F1070C94DA
:101810005A0A808191810E94F40BF9CF1F93CF93D4
:10182000DF9300D000D00F92CDB7DEB749835A8343
:1018300089819A816623B9F02223A9F00E94C50B01
:10184000182F682F89819A810E942A0A69817A81DA
:10185000812F0F900F900F900F900F90DF91CF91ED
:101860001F910C94A90B0E94FD09182FEFCFFC01CA
:10187000262F86819781009739F4408151816281BA
:10188000738184810C940E0C089583E290E00E9491
:10189000B62F883989F484E290E00E94B62F8F3EFB
:1018A00059F485E290E00E94B62F91E08B3E09F05A
:1018B00090E0892F8170089580E0FCCFCF9384E081
:1018C00090E00E94B62FC82F82E290E00E94B62FCF
:1018D000982F8C2FCF9108950F931F93CF93DF9361
:1018E0000AE513E0C7EAD1E0CE010E94B62FF80165
:1018F00061918F01681719F0CE010E94C42F2196C3
:10190000C93CF1E0DF0781F7DF91CF911F910F9183
:101910000895EAE5F3E0128E138E8FEA90E091834A
:10192000808385E0848F88E893E1938382838AE0D3
:1019300090E09583848324E130E03783268348E078
:1019400050E051874087938782872EE130E03587CA
:1019500024879787868720E530E0318B208B538B57
:10196000428B48E250E0558B448B42E350E0578B6A
:10197000468B48EC50E0518F408F158E978F868FA5
:1019800031A320A30E946C0C0C94540BCF93DF93D3
:10199000C9E6D2E060E0CE010E94C42F2196C115B5
:1019A00084E0D807B9F7DF91CF9108950F931F9383
:1019B000CF93DF938901843048F5643038F54C309B
:1019C00028F521153C4531F4209187023091880299
:1019D000232BE1F0C42FD0E0CC0FDD1F98E1699FED
:1019E000C00DD11D112490E6899FC00DD11D112479
:1019F000612FCE0187960E94C42F602FCE0188965A
:101A0000DF91CF911F910F910C94C42FDF91CF9153
:101A10001F910F910895CF93C82F6FEF811168E93F
:101A200083E290E00E94C42F6FEFC1116FEE84E259
:101A300090E00E94C42F6FEFC1116BEE85E290E041
:101A4000CF910C94C42F7F928F929F92AF92BF92AE
:101A5000CF92DF92EF92FF920F931F93CF93DF937A
:101A6000CDB7DEB764970FB6F894DEBF0FBECDBF1B
:101A7000A0908702B090880281E090E09093880265
:101A8000809387028FE5C82E83E0D82E00E0760190
:101A900010E015C0F40125913491472D612F802F5E
:101AA0000E94D60C82E0880E911C7394ECE07E12AA
:101AB000F1CFF8E1EF0EF11C1F5F143019F0470170
:101AC000712CE8CF0F5F80E6C80ED11C0430F9F608
:101AD0000E94890C1A8219821C821B821E821D821E
:101AE00018861F8288EC90E09A87898709EC11E0BC
:101AF0004AE050E0B801CE0101960E94E82F065F4F
:101B00001F4F0931E2E01E0799F77E01FBE0EF0E5F
:101B1000F11C8AE0F70111928A95E9F74AE050E05A
:101B2000B801C7010E94E82F065F1F4F0936F2E097
:101B30001F07A1F7B0928802A092870264960FB6A1
:101B4000F894DEBF0FBECDBFDF91CF911F910F91F3
:101B5000FF90EF90DF90CF90BF90AF909F908F90CD
:101B60007F90089580E00E940B0D60E086E290E097
:101B70000E94C42F0E94230D0E94C60C81E00C9489
:101B80000B0D9B01883070F49AE0899FB0011124FD
:101B900067537E4F4AE050E0C9010E94A62F90E0B3
:101BA00080E008958FEF9FEF08958F929F92AF92FC
:101BB000BF92CF92DF92EF92FF920F931F93CF933A
:101BC000DF93CDB7DEB72A970FB6F894DEBF0FBE0E
:101BD000CDBF01E813E0F12CE12C8BE1C82E86E2A9
:101BE000D82E95E4A92E96E2B92E24E8822E25E27D
:101BF000922EF801D182C082B382A2829582848221
:101C0000F58AE48ABE016F5F7F4F8E2D0E94C10D61
:101C1000892B29F489859A85F801938B828BFFEFB4
:101C2000EF1AFF0A0A5E1F4F88E0E816F10409F771
:101C30002A960FB6F894DEBF0FBECDBFDF91CF91CD
:101C40001F910F91FF90EF90DF90CF90BF90AF90DA
:101C50009F908F900895CF92DF92EF92FF920F9313
:101C60001F93CF93DF93CDB7DEB72A970FB6F894C3
:101C7000DEBF0FBECDBFE7E3F2E080E5DF011D92DE
:101C80008A95E9F7E6E1F3E088E3DF011D928A95A2
:101C9000E9F787E3C82E82E0D82E7F0109E112E040
:101CA000F701D182C0824AE050E0B801CE0101962E
:101CB0000E94A62F88E0FE013196D60101900D9278
:101CC0008A95E1F789859A85D70113969C938E931F
:101CD0001297BAE0CB0ED11CE7E0EE0EF11C065FC6
:101CE0001F4F0936F2E01F07D9F62A960FB6F8946F
:101CF000DEBF0FBECDBFDF91CF911F910F91FF903F
:101D0000EF90DF90CF9008958F929F92AF92BF9205
:101D1000CF92DF92EF92FF920F931F93CF93DF93B7
:101D2000CDB7DEB728970FB6F894DEBF0FBECDBF94
:101D30008E010F5F1F4F88E0F80111928A95E9F735
:101D400094E5E92E91E0F92E6801AA24A394B12C20
:101D5000F70181917F018F3F09F446C0F894E82F85
:101D6000E295EF70F0E021A18F70A50102C0440F51
:101D7000551F8A95E2F7CA01922F982B91A392A141
:101D80008095892382A3789400C0E8E5F1E021E002
:101D900030E0912C812C41914F3F09F479C0A42F60
:101DA000A295AF70B0E090968C9190E04F7002C019
:101DB000959587954A95E2F780FD6AC0C901882A02
:101DC000992A220F331F51E0E436F50721F7F70176
:101DD000319780818F3F11F00E94970780EA8A95A2
:101DE000F1F7F60191828082F2E0CF0ED11C48E536
:101DF000E41641E0F40609F0ABCF48E050E0B8014A
:101E000080EF91E00E94892FFF24F394009709F45A
:101E1000F12C892B09F43FC088E0F801A0EFB1E074
:101E200001900D928A95E1F781E08093EF010E9485
:101E300015059093EE018093ED018091ED01909155
:101E4000EE010E940605059750F18091F0019091F6
:101E5000F10190931102809310028091F201909110
:101E6000F30190931302809312028091F4019091F8
:101E7000F50190931502809314028091F6019091E0
:101E8000F70190931702809316021092EF0107C09A
:101E900090E080E094CF8091EF018111CECF8F2D23
:101EA00028960FB6F894DEBF0FBECDBFDF91CF915D
:101EB0001F910F91FF90EF90DF90CF90BF90AF9068
:101EC0009F908F90089580918D0290915704892B57
:101ED000809376018091EB01882309F180915C0366
:101EE00090915D03892B29F00E94B30981110E9412
:101EF0007909809176019091EB01892B809376018D
:101F000020E088E791E0FC013191CF0131112F5F92
:101F1000F1E08E379F07B9F721110E94790948E057
:101F200050E061EE71E086E791E00E94892F892BF5
:101F3000A9F088E0E6E7F1E0A1EEB1E001900D92B2
:101F40008A95E1F7E0913304F0913404309731F051
:101F50000280F381E02D86E791E009940895EF92E5
:101F6000FF920F931F93CF93DF93EC018A8581112A
:101F700034C0EB80FC8087E5F81A26E12E9DC00175
:101F80002F9D900D1124DC01AF57BC4F1496ED919D
:101F9000FC911597309731F054966D917C9189574B
:101FA0009C4F099586E18E9D80018F9D100D112417
:101FB0000F571C4FF80187810E949F09F801808507
:101FC0000E9498090E94630F188219861B861E8240
:101FD0001D821092800310927F03DF91CF911F9199
:101FE0000F91FF90EF900895CF93DF93EC018989D3
:101FF000811118C081E0898B8F810E94A609809190
:1020000057049885892B809357040E94630FEA81B7
:10201000FB81309739F06C897D89CE010696DF917E
:10202000CF910994DF91CF91089580911801877F16
:102030008093180182E00E9498098091180184FF22
:1020400006C08F7E8093180182E00E94A6098091CD
:10205000180185FF06C08F7D8093180180E20E94E1
:10206000A6090C94630F90E080E00E94510590E077
:1020700080E00E943B05109257040E94630F86E0A7
:10208000EFE1F2E0DF011D928A95E9F71092190263
:102090001092180210921A020C94EB0580935604C9
:1020A0000C94331080915604982F9670963019F442
:1020B00088600C944E10877FFCCF21E030E001C097
:1020C000220F8A95EAF720958091560482230C947A
:1020D0004E109091E001809589238093E001282F94
:1020E000277091F4282F082E000C330B921713063B
:1020F00059F09091F90192FD07C0859585958595D8
:102100000E945D100C94AC090895CF93C091F90121
:10211000C2FB992790F9981799F080FBC2F9C093F8
:10212000F9016091F80184E090E00E94C42F6C2FC7
:1021300082E290E00E94C42F82E0CF910C9469105B
:10214000CF91089521E030E001C0220F8A95EAF78F
:1021500080915604822B0C944E109091F90192FDBF
:1021600010C098E0899F90011124622B6093E001D8
:102170000E94A2100E9415059093DF018093DE015A
:1021800008950C94A2108093EC010C9433101092DB
:102190008D02E8E7F1E086E0DF011D928A95E9F71C
:1021A0000C9433101F93CF93DF93CDB7DEB7AA976C
:1021B0000FB6F894DEBF0FBECDBF8DE494E0209142
:1021C000F100DC012D93CD01B4E085359B07B9F713
:1021D00080914E04833009F472C0B8F4813009F460
:1021E00049C0823009F4B3C08091E80083FF96C2F1
:1021F00080914D0490914E049A3008F08FC2E92FDF
:10220000F0E0EE5FFF4C0C94732F8A3009F48EC01F
:102210008B3009F471C0893039F780914D048132D7
:1022200019F78091510490915204009711F0029790
:10223000D9F68091E800877F8093E8008091E800DC
:1022400082FF38C09091F3008091F200029731F440
:102250008091F100813011F0863021F48091F100FD
:10226000809341048091E8008B778093E8000E947E
:10227000F203BACF80914D04813A09F0B5CF809135
:10228000E800877F8093E800809151049091520488
:10229000892B61F468E082E494E070E00E94A40479
:1022A0008091E8008B778093E8009ECF60E090E01B
:1022B00080E0F3CF809155048111C0CF95CF8091FC
:1022C0004D04813A09F090CF8091510490915204CD
:1022D000892B09F089CF8091E800877F8093E800FF
:1022E0008091E80080FFFCCF80911A018093F1007B
:1022F0008091E8008E77B9CF80914D04813209F04A
:1023000073CF8091510490915204892B09F06CCFC6
:102310008091E800877F8093E8000E94F20380911B
:102320004F0480931A010E94C7105ECF80914D0424
:10233000813209F059CF8091E800877F8093E800CF
:102340000E94F20380915004809340044DCF80910D
:102350004D04813A09F048CF8091E800877F80934F
:10236000E8008091E80080FFFCCF80914004BECF60
:10237000803899F0823809F0D1C1809151048F7072
:10238000873008F0CBC18093E9008091EB0085FB9A
:10239000882780F91092E90006C080914A04909144
:1023A0004B04911182609091E800977F9093E80030
:1023B0008093F1001092F1008091E8008E77AAC11D
:1023C000882309F498C1823009F0A8C180914F0494
:1023D00081119BC1809151048F702FEF280F2630FF
:1023E00008F09CC18093E9002091EB0020FF8DC193
:1023F000933031F48091EB0080628093EB0085C1D3
:102400009091EB0090619093EB0021E030E001C0EF
:10241000220F8A95EAF72093EA001092EA00809151
:10242000EB008860EACF811179C110914F041F77CA
:102430008091E3008078812B8093E3008091E80015
:10244000877F8093E8000E94F2038091E80080FF7C
:10245000FCCF8091E30080688093E30082E011115B
:1024600083E0809355045AC18058823008F056C1E9
:1024700020914F04309150042C3DE3E03E07A1F53C
:1024800083E08A838AE289834FB7F894DE0113964A
:1024900020E03EE051E2E32FF0E050935700E4915A
:1024A00020FF03C0E295EF703F5FEF708E2F90E04A
:1024B000EA30C0F0C7968D939D932F5F243159F772
:1024C0004FBF8091E800877F8093E8006AE270E068
:1024D000CE0101960E94A4048091E8008B7780933E
:1024E000E8001CC1C096E7CF80915104909152043E
:1024F000432F55274330510509F44AC078F5413040
:10250000510509F485C08BE590E0E7E7F5E042303E
:10251000510509F003C12091E800277F2093E800CE
:1025200020915304309154048217930708F49C01BE
:1025300040E02115310509F070C041116EC0809155
:10254000E80082FDC9CF80915504882329F28530A7
:1025500019F28091E80083FFF2CFBECF41325105DE
:1025600009F447C04232510509F0D8C083309105C3
:1025700008F0D4C0FC01EE0FFF1FE959FE4F019097
:10258000F081E02D8C599E4FDC018C9190E01DC0B4
:10259000332721303105E9F02115310579F022305A
:1025A0003105F9F02330310509F0B8C0E4EEF5E06B
:1025B000E4918E2F90E0E4EEF5E007C0E8E2F6E06B
:1025C000E4918E2F90E0E8E2F6E0009709F4A6C0CF
:1025D000A2CFE0E1F6E0E4918E2F90E0E0E1F6E0BA
:1025E000F4CFE2E0F6E0E4918E2F90E0E2E0F6E056
:1025F000ECCF8330910508F091C0880F991FFC0142
:10260000E359FE4F0190F081E02D89E090E083CF07
:1026100082E190E0E2EDF5E07ECF809155048823E1
:1026200009F45ACF853009F457CF8091E80083FD33
:1026300053CF8091E80082FD82CF8091E80080FF37
:1026400078CF9091F3008091F2002115310519F0B7
:102650008830910550F041E0089709F040E0809102
:10266000E8008E778093E80064CF44914093F100B6
:102670003196215031090196E8CF803809F04EC0DB
:102680008091E800877F8093E80080914C048093DC
:10269000F10092CE811142C010914F041230F0F53A
:1026A0008091E800877F8093E80010934C040E949B
:1026B000F203112311F084E005C08091E30087FD4F
:1026C000FACF81E08093550442E061EC81E00E9402
:1026D000110442E261EC84E00E94110442E261ECE8
:1026E00082E00E94110442E260EC83E00E94110447
:1026F0008091550413C080914F04813079F481E0BA
:10270000933009F080E080934B041092E9008091AF
:10271000E800877F8093E8000E94F2038091E80040
:1027200083FF0AC08091E800877F8093E800809152
:10273000EB0080628093EB00AA960FB6F894DEBFA0
:102740000FBECDBFDF91CF911F910895882321F057
:102750000E9498090C94630F0895882339F0909192
:102760005704982B909357040C94630F0895882373
:1027700021F00E949F090C94630F0895882321F093
:102780000E94A6090C94630F08958823B1F19CEF71
:10279000980F913A70F4E8E7F1E09191891303C042
:1027A000DF0111971C9291E0EE37F907B1F70C9415
:1027B000630F90E2980F983050F4877091E001C059
:1027C000990F8A95EAF7892F0E949F09F0CF9BE520
:1027D000980F933020F490E080E00C94510598E538
:1027E000980F973120F490E080E00C943B05803FF7
:1027F00020F00E9412060C94EB050895CF93DF930E
:10280000EC010E94C513CE010E94750A9E01205E54
:1028100031092830310510F0CD2B21F4DF91CF9113
:102820000C94B713DF91CF910C94A613CF93C82FBC
:10283000882309F452C08CEF8C0F813AF8F4E8E752
:10284000F1E08EE791E0DF012D91C21759F08A1770
:102850009B07D1F76C2F86E791E00E942105CF916D
:102860000C94630F2191C21303C0DF0111971C92D6
:102870008E179F07B9F70E94630FECCF80E28C0F91
:10288000883048F4C77081E001C0880FCA95EAF724
:102890000E94A609E4CFEBE5EC0FE33040F4F0E052
:1028A000ED5DFE4F808190E0CF910C945105E8E5FD
:1028B000EC0FE73150F4F0E0EE0FFF1FEA5DFE4F42
:1028C00080819181CF910C943B05C03F30F08C2FDB
:1028D0000E942D07CF910C94EB05CF9108951F9383
:1028E000CF93DF93182FC0917A03D0917B03893364
:1028F00021F0C0917803D0917903812F0E941614A2
:10290000209731F4812FDF91CF911F910C94C51343
:102910008FE99FE00197F1F700C000002197F0CF09
:102920000F931F93CF93DF93C42FD22FFC0182818B
:102930008823A1F040937E030E94150590937D03A8
:1029400080937C03C77081E001C0880FCA95EAF7C5
:10295000DF91CF911F910F910C94BE1310917E03C4
:10296000141339C080917C0390917D030E94060569
:1029700020917203309173038217930760F5C0E2D0
:10298000CD0F1D17B9F080E2810F883040F4177029
:1029900081E001C0880F1A95EAF70E94B713C8308A
:1029A00048F481E09D2F977001C0880F9A95EAF74F
:1029B0000E94BE13802F0E946F14C83098F4D77005
:1029C00081E001C0880FDA95EAF7DF91CF911F917E
:1029D0000F910C94B713C77081E001C0880FCA959E
:1029E000EAF7F3CFDF91CF911F910F910895AF9246
:1029F000BF92CF92DF92EF92FF920F931F93CF93EC
:102A0000DF93EC018AE0A82E2881222309F48CC0F0
:102A10002130C9F599818A81913021F422960E9452
:102A20006F1405C0923029F422960E941614219644
:102A3000EBCF933021F422960E94C513F8CF943047
:102A400011F02196F4CF229630E020E0AE014F5FE6
:102A50005F4F8053990B8A30910550F02150310916
:102A600030F38FE99FE00197F1F700C00000F6CF47
:102A7000A29EB001A39E700D11249C01260F371F4A
:102A80008981EA01E3CFE22FF0E0E154FE4FB490F8
:102A9000822F86958695869590E0FC01E155FE4F44
:102AA000E4902770F12C022E02C0F594E7940A946A
:102AB000E2F731E0E322FF24FC01E156FE4FC4902F
:102AC000D12C022E02C0D594C7940A94E2F731E0CB
:102AD000C322DD24FC01E157FE4F049110E002C047
:102AE000159507952A95E2F701701127E114F10475
:102AF00019F081EE0E941614C114D10419F086EE6B
:102B00000E9416148B2D0E946F14CD2819F086EEAA
:102B10000E94C513EF2819F081EE0E94C513012B06
:102B200009F485CF8CE27BCFDF91CF911F910F917C
:102B3000FF90EF90DF90CF90BF90AF900895CF932C
:102B4000DF93EC010E94750A9E01205E3109283056
:102B5000310510F0209739F40E94BE138C2FDF91BD
:102B6000CF910C9416140E94AD13F8CF662329F070
:102B7000209157042260209357049C013056211560
:102B800040E2340720F0305E2115304108F49927E7
:102B90000C949F15DF92EF92FF920F931F93CF93A8
:102BA000DF937C018B01D42E8091180182FF8CC0B1
:102BB000C091B002D091B102CE15DF0521F0E11431
:102BC000F10409F081C0809118018B7F8093180176
:102BD00081FD73C08091AE029091AF02A801481BA5
:102BE000590B81E0209116013091170142175307CC
:102BF00008F480E08170F82E80911801F0FA81F9D4
:102C000080931801FE0183E0F695E7958A95E1F738
:102C1000EE71FF27E257FD4F20813181AE014F70E9
:102C2000552781E090E002C0880F991F4A95E2F78E
:102C3000FF2009F444C0822B932B918380838091E1
:102C40008D0281FF08C08091180180618093180176
:102C500082E00E949F0980918D0285FF08C08091CB
:102C6000180180628093180180E20E949F096F2DF5
:102C7000CE010E94B615DD2031F08091750385FFED
:102C800002C086FF3BC080917803909179030E9437
:102C90004A0B8091B0029091B1029C0130562115EF
:102CA00040E2340720F0305E2115304108F49927C6
:102CB0000E94FE130E9415101DC081E09BCF8095DD
:102CC000909582239323B9CFC70199279701305656
:102CD000211540E2340728F0305E2115304108F01C
:102CE000C7010E94FE138091B0029091B1028E152F
:102CF0009F0501F31093AF020093AE02DF91CF91D5
:102D00001F910F91FF90EF90DF90089569EE7EEF95
:102D100090E080E00E94E22F60E082E090E00E947C
:102D2000C42F60E083E090E00E94C42F1092EC0179
:102D300060E084E090E00E94C42F60E082E290E0D6
:102D40000E94C42F60E085E090E00E94C42F60E004
:102D500086E090E00E94C42F6FEF87E090E00E9431
:102D6000C42F40E050E0BA0188E090E00E94D62FE6
:102D700060E08DE090E00E94C42F40E050E0BA0196
:102D800088E190E00E94D62F60E087E190E00E9409
:102D9000C42F40E050E0BA018CE190E00E94D62FB1
:102DA00070E060E080E290E00E94E22F40E050E0BE
:102DB000BA0188E190E00E94D62F80E00E940B0DBE
:102DC0000E94B20D40E050E0BA018FE090E00E9416
:102DD000D62F40E050E0BA0183E190E00C94D62F6A
:102DE0008F929F92AF92BF92CF92DF92EF92FF921B
:102DF0000F931F93CF93DF9300D000D0CDB7DEB7F2
:102E00007C01DC0113964D915C91149711966C91A5
:102E100011978C910E9473058111E1C061E0C70197
:102E20000E94370C8C01F7018281811177C0D70194
:102E300012968C918111B1C00031BFE51B0709F4D6
:102E400056C10131EFE51E0709F455C1680127E5B8
:102E5000D21A882309F451C13FEFC316D10409F0F7
:102E600008F47DC18091750380FF39C00E9415056B
:102E70006C01D70112968C91882309F4EDC18091E1
:102E8000180182FF08C023E032E040E0B60190E084
:102E900080E00E94CA150B31BCE51B0709F4CEC1C6
:102EA0000C31ECE51E0709F4CFC190911801892F70
:102EB0008E7F90FF81600A31FCE51F0709F4C7C1CE
:102EC000C8019056811520E2920728F0905E811586
:102ED000904108F0CFC11092B1021092B002033FAE
:102EE000BCE51B0709F418C308F0B4C2083DFCE5B3
:102EF0001F0709F40BC3093D2CE5120709F424C38D
:102F0000073D3CE5130709F0B1C206E221EE41EEB0
:102F100067ED7CE5C7010E94901451C080910C01BF
:102F200090910D01019609F482CF61E8C62E63E00D
:102F3000D62EB12CA12C9924939480910C019091C0
:102F40000D018A159B050CF472CFF601868188234A
:102F5000E9F0818592850817190739F480917F037C
:102F6000909180030817190789F0D6011F969C924B
:102F70001F971C961C930E931B97C6010E94F40F7B
:102F8000C60106960E94AF0F10925704BFEFAB1A0E
:102F9000BB0AE6E1CE0ED11CD0CF980122513F45AD
:102FA0002031310508F002C78FEF93E00E94B62F61
:102FB0005EEED52ED00E09E612E0882369F18091ED
:102FC000E001877061F0D70112968C91882339F067
:102FD0008091F90182FD03C082E00E9469100F9088
:102FE0000F900F900F90DF91CF911F910F91FF9055
:102FF000EF90DF90CF90BF90AF909F908F9008950B
:103000000115F4E01F07D9F2C8010E94B62F811103
:1030100001C0DA940F5F1F4FD110F2CF19821A82CC
:103020001B821C82CC24CA9448012FEF821A920A78
:10303000C8010E94B62F89831A82882309F4BFCF62
:10304000813009F048C0580132E0A30EB11CC40120
:103050000E94B62F982E8A83882309F4B0CFC50129
:103060000E94B62FD82E8FEF890D833068F4580157
:1030700043E0A40EB11CDB82DD2021F0CE010196DD
:103080000E94F7148501D0CF54E09512FBCF580170
:1030900084E0A80EB11CC80103960E94B62FDD2063
:1030A00009F48DCF882309F48ACF8150990BC89EEB
:1030B0009001C99E300D1124AD2DA150BB0BCD0147
:1030C000820F931F0197F0F2EFE9FFE03197F1F7DC
:1030D00000C00000F7CFCE0101960E94F714540102
:1030E000D1CF81E00E94A2100E94521068CF81E0EF
:1030F0000E945D10F9CF82E0FBCF4FEFC416D104E0
:1031000011F008F0AFCE6DE272E08C2D0E94C10D7F
:10311000892B29F586E18C9DF0018D9DF00D112400
:10312000EF57FC4F8681813009F062C080912D02FB
:1031300090912E02892B99F080912F02909130026C
:10314000892B69F0809131029091320220913302F3
:1031500030913402822B932B892B09F453C0809138
:103160000C0190910D018C159D0524F4D0920D0158
:10317000C0920C01F701828196E19C9D50019D9DBA
:10318000B00C112495012F573C4F6901D90150967D
:103190008C935097928116968C911697992309F4E7
:1031A0003FC01A961C930E9319978F5F16968C93B7
:1031B0000E941505F601968785878091EB0187832C
:1031C0008091570490918D02892B80870190F08126
:1031D000E02D309741F0D60154966D917C91C50158
:1031E00089579C4F09951093800300937F033ACE33
:1031F000823009F0B4CF8091310290913202892B54
:1032000009F4ADCF26E12C9DC0012D9D900D112418
:103210008F579C4FDC0150961C920E94F40F9FCF59
:10322000882309F41FCEF9018189882309F41ACE75
:10323000C50189579C4F0E94AF0F14CE8091180191
:103240008160809318013CCE809118018E7F80931D
:1032500018010E94151034CE809118018F7E013E16
:10326000110531F0053E1105C9F4809118018F7DDB
:10327000809318018091180180FF31CED7011296FA
:103280008C910832110528F50E31110508F074C033
:103290000430110580F581111ECE21CEC801905653
:1032A000811540E2940720F0905E8115904110F75F
:1032B0008091180182FF13CE8091770381FD0FCE9C
:1032C00023E032E040E0B60190E080E00E94CA15C1
:1032D00006CE0933110558F40D32110518F40B32DE
:1032E0001105C9F69091750392FDD5CF08C004363B
:1032F0001105C1F3D0CF9091750394FDCCCF8823F5
:1033000009F4A1C090918D028091EB01282F292B07
:10331000322F3D7FB1F11092B1021092B002309184
:10332000750331FD2EC0F80143E0F695E7954A9507
:10333000E1F7EE71FF27E257FD4F98012F70332719
:1033400081E090E002C0880F991F2A95E2F78095EE
:10335000909520813181822393239183808360E043
:10336000C8010E94B6158091EB018D7F0E948409EF
:1033700082E00E94691023CE9091750393FD8BCF5C
:10338000BECF38E0F701A3E0B2E001900D923A958C
:10339000E1F7109205021092070210920602A09027
:1033A000B002B090B1020A151B05B1F5309175035A
:1033B00035FF32C04091180141FB992490F841FF3C
:1033C00002C036FF29C04091AE025091AF02B60153
:1033D000641B750B4091720350917303641775075A
:1033E000D8F491FF08C08091180180618093180182
:1033F00082E00E949F0980918D0285FF08C0809124
:10340000180180628093180180E20E949F09692D53
:10341000C5010E94B615D3CD9091180121FB91F9F9
:10342000909318018D7F0E9484091093B10200933C
:10343000B002D092AF02C092AE02809118018460B7
:103440008093180195CF970140E0B601C8010E9412
:10345000CA15B5CD053F4CE5140709F469C008F459
:1034600061C0063F8CE5180709F468C0D7011296C1
:103470003C91332309F4A6C410927E030330BDE5CA
:103480001B0708F067C00A3FECE51E0730F4C801CF
:1034900082509C45449708F067C00E945E0C909350
:1034A000F9018093F80101313CE5130709F451C19A
:1034B00008F0CEC009305CE5150709F438C108F002
:1034C0009BC005309CE5190709F429C108F081C0AB
:1034D0000330BCE51B0709F418C108F01CC180913A
:1034E000F801816002301C4509F412C16091F801B5
:1034F0001091F90184E090E00E94C42F612F82E2D4
:1035000090E00E94C42F0E94C71059CD07E225EE1B
:1035100045EE68ED7CE5FECC06E221EE40EE63EF81
:103520007CE5F8CC07E225EE44EE64EF7CE5F2CCD6
:1035300006E221EE42EE65EF7CE5ECCC07E225EEFB
:1035400046EE66EF7CE5E6CC08E221E045EE69ED6B
:103550007CE5E0CC0136FDE51F0709F49ECF053A76
:103560002DE5120709F499CF06314CE5140709F04F
:103570002FC180918D02982F9A7A2091740320FF99
:1035800004C0482F447409F090E021FF04C0482F84
:10359000417109F090E022FF04C0482F487809F0FB
:1035A00090E023FF03C0827209F090E0332309F416
:1035B000FAC081E0911101C080E080937E0169E250
:1035C000911165E386E791E00E9421050E94630F57
:1035D000F6CC8091F801806207302CE5120709F4DF
:1035E00097C08091F801806108301C4508F490C0B4
:1035F0008091F80180648CC08091F8018B7F0D3040
:103600004CE5140709F484C080F40B308CE51807EE
:1036100009F493C08091F8018C600C301C4508F4CB
:1036200077C08091F8018D7F73C08091F8018F7E03
:103630000F30ACE51A0709F46BC08091F801877F61
:1036400000311C4508F464C08091F8018F7D60C092
:103650000D3FECE51E0709F478C050F505312CE567
:10366000120709F480C098F48091F801837F033138
:103670004CE5140709F44CC008F46FC00E94C71051
:103680009091F801892F97FB87F9805841C00B3F33
:103690008CE5180709F447C008F053C08091F90180
:1036A00081600A3F1C4509F021CF8093F9011ECFAC
:1036B0000130BDE51B0709F462C0B8F48091F9013F
:1036C0008C7F0F3FFCE51F0781F38091F901836038
:1036D00001151D4550F38091F901982F9095917037
:1036E0008E7F892B90FB81F9E0CF01363DE51307F2
:1036F00009F44BC0053A4DE5140709F44DC00230FA
:103700001D4509F0F3CE60E03BC08091F801826076
:103710008093F801EBCE8091F8018460F9CF80911D
:10372000F8018860F5CF8091F9018260BECF0E94D8
:10373000C7108091F8018068EBCF8091F8018E7FEF
:10374000E7CF8091F9018E7FB0CF8091F9018D7F15
:10375000ACCF8091F8018F7BDBCF0E94C7108091A6
:10376000F8018F77D5CF8091F80182FB992790F9E6
:1037700021E0922790FB82F990FB83F9C9CF61E0A9
:103780008EE090E00E94C42FB1CE9091F801892F75
:103790008F7E94FF8061BCCF9091F801892F8E7F3E
:1037A00090FF8160B5CF80917E0181110FC089E2C9
:1037B000E8E7F1E02EE731E09191891303C0DF01E2
:1037C00011971C922E173F07B9F700CF85E3F0CF72
:1037D0000A358DE5180709F468C008F044C00115E2
:1037E000ACE51A0709F451C00E3D1C4509F45AC056
:1037F000F70186819781009709F45BC00E94F10769
:10380000182F092FF701D280C580C2943FE0C32250
:103810008091E0018770C1F0AD2CDD20B1F0892FDF
:10382000807F803421F080E2810F883068F08091C1
:10383000F90182FD09C082E00E9469108091E001D7
:103840008770AA24A3948111A12C902E92942FE02A
:103850009222FBE0F91508F4B9C0E92DF0E0E45F2D
:10386000FF4C0C94732F0B35EDE51E0701F10C3561
:103870001D4509F0BDCF8091F90182FB882780F9B1
:1038800091E089270E948510B3CF0E94C7102FEFC7
:1038900034E34CE0215030404040E1F700C00000EC
:1038A0000E94260B0E9486168ACB81E0EBCF80E037
:1038B000E9CF828100811181882369F0C8010E94CB
:1038C000C50BD82E682FC8010E942A0AB8018D2D79
:1038D0000E94A90B93CFC8010E94FD09D82EF6CFF4
:1038E000202F2F70B22E802F807F19F0B29490EF8E
:1038F000B922DD20A9F0BB2059F080E2810F883089
:1039000010F0111107C08B2D0E94A6090E94630FB1
:10391000812F5AC080915704B82AB0925704F6CF2D
:10392000812F0E94C513BB2009F450C080E2810F93
:10393000883010F0111104C08B2D0E949F0903C024
:103940008B2D0E9498090E94630F40C0302F3F705A
:10395000B32E802F807F803219F0B29480EFB8228E
:10396000112321F1113009F4A4C0DD2009F4ADC008
:10397000CC2009F47DC020E0D7014C9111965C91D8
:10398000119712966C91129713967C911397149637
:103990008C910E940E0C8091770381FDB9CFF701C5
:1039A000858180FFB5CF8F70858362C08091F901DA
:1039B00082FF40C0DD20C1F1BB2029F08B2D0E9489
:1039C000A6090E94630F80E00E941614A92DA8503A
:1039D000BB0B149710F40E946705812F902F0E9453
:1039E0005A0A8111C4C11092800110927F01AA204D
:1039F000B1F08091E00180FD12C0D70112961C92B7
:103A00008595859585950E94A210C7010E94F016A4
:103A10008091E0018595859585950E945D1060E017
:103A2000C7010E94370CDBCA80E00E94C513BB208F
:103A300069F282CFDD2001F1C11004C08091EB0159
:103A40008B2917C041E0C41206C08091EB018B297D
:103A50000E948409BBCF80917603823078F3C8122C
:103A6000EDCF0E9479098091DD01B812B092DD019D
:103A70008B2D0E94BE13AACFC11006C00E947909E7
:103A80008B2D0E94B713A2CF8091760351E0C5120F
:103A90000BC0823008F49ACF80918D028B2109F4FB
:103AA00095CF0E94CD09EACF823040F3C812E6CF0D
:103AB0008DCFDD2029F085E08C1508F487CFD8CF95
:103AC00094E09C1508F482CFDBCFCC20C9F2809122
:103AD0007A0390917B03193321F0809178039091C0
:103AE00079030E944A0B812F0E94C5136FCF802F4C
:103AF00086958695837069F0813009F067CF812FB4
:103B0000902F9370D11002C090E080E00E943B059E
:103B10005DCF812F902F9370D11002C090E080E094
:103B20000E94510553CF812FDD2029F00E942D07DF
:103B30000E94EB054BCF0E941206FACF802F8370B4
:103B400091F5D11043CF412F429546954770440FD0
:103B5000440F812F8F70042E01C0880F0A94EAF75A
:103B6000212F207114FF07C02FE030E001C0220F89
:103B70004A95EAF72095302F3695369533703230D6
:103B800069F050F44091EC01313029F0822B84230C
:103B90000E94C3101BCF842B822BFACF282B80913D
:103BA000EC018227F5CF8695DD2011F0802F817002
:103BB000882309F40BCF412F429546954770440F57
:103BC000440F812F8F70042E01C0880F0A94EAF7EA
:103BD000212F207114FF07C02FE030E001C0220F19
:103BE0004A95EAF72095302F369536953370323066
:103BF00069F050F440915604313029F0822B84232F
:103C00000E944E10E3CE842B822BFACF282B80917A
:103C100056048227F5CFF02FFF70BF2EDD2029F04C
:103C20008F2F0E94A210812F24CF812F0E94B713C3
:103C30008B2D0E945D10CACE123F89F160F4103FB7
:103C4000B9F0113F81F0DD2009F48CC0C11060CEC5
:103C5000802F8F7128C0133F49F1143FA1F7809145
:103C6000F90182FF2FC0802F8F71DD2011F31BC05F
:103C7000DD2081F024E02C1508F4A8CE202F2F7130
:103C800081E090E001C0880F2A95EAF790915604F0
:103C90008927B6CF35E03C1508F498CEEFCF802FBA
:103CA0008F71D110C6CF0E94A21090CE80E0DD208F
:103CB00009F4A6CF81E0902F9F7101C0880F9A95DB
:103CC000EAF79ECF809176038230A0F18091DD01EA
:103CD000DD20F1F00E949F098091E001877084301F
:103CE00041F40E94AC09802F8F710E945D10A12CBD
:103CF0006DCE80917603C816D0F7402F4F71B42E49
:103D0000842F0E94A21063E08B2D0E94AD10EFCF94
:103D10000E94A60980917603C81640F00E94AC0963
:103D20000E94CD0964E0802F8F71EFCF81E00E9467
:103D30006910DDCFDD2059F0502F5F71B52E852F32
:103D40000E94A21063E08B2D0E94AD103FCE81E057
:103D50000E94691081E08C1508F038CE82E00E9444
:103D6000691034CEC110B3CE802F8F7162CFDD20A9
:103D700019F0C11038CE3BCEC11035CE20E0F7018E
:103D8000408151816281738184810E940E0C8091F7
:103D9000770383FF28CE80917F0190918001029765
:103DA00009F021CE812F0E946F141DCE0031FFE556
:103DB0001F0709F496C901312FE5120709F046C81B
:103DC00082E090C906311C4509F012CDD2CBCF92CA
:103DD000DF92EF92FF920F931F93CF93DF93809127
:103DE0009801807F31F480919501C091DC018111AF
:103DF0000BC0DF91CF911F910F91FF90EF90DF905B
:103E0000CF9008952196C77080919B018C1789F3FC
:103E1000F0909301E0909401C0909601D0909701AA
:103E2000A6016E2D8F2D0E947305D0E08111EACF7F
:103E30008E0183E0000F111F8A95E1F7F801E45627
:103E4000FE4F81818E11DECF80818F11DBCF828189
:103E50008111D8CFE380F480EC18FD0860E083E99D
:103E600091E00E94370C8091720390917303E816E1
:103E7000F90640F6809198018F70806180939801D7
:103E8000F801EF55FE4F80818F708061808383E958
:103E900091E00E94F016DF91CF911F910F91FF905A
:103EA000EF90DF90CF900C94F3093F924F925F9286
:103EB0006F927F928F929F92AF92BF92CF92DF923A
:103EC000EF92FF920F931F93CF93DF93CDB7DEB79F
:103ED00065970FB6F894DEBF0FBECDBF8C0185E0AD
:103EE000F801DE01519601900D928A95E1F7D80113
:103EF0004C9011965C9011971296EC901297139635
:103F0000CD90DC9060E083E991E00E94370C83E97A
:103F1000A82E81E0B82E8090960190909701A40180
:103F200060919401809193010E9473058111CAC12F
:103F3000F0909501F601E819F9094F0160E0FF20C2
:103F400009F46DC1C5010E94370C60907203709036
:103F50007303309098018614970408F013C14091C0
:103F6000960150919701B0909301A0909401832DF8
:103F7000807F6A2D09F0ADC08B2D0E947305FE2C49
:103F800081113BC0D80111968C9111978A1135C0CF
:103F90008C918B1132C02091990130919A01169623
:103FA0008D919C912817390741F5E11026C0832D8A
:103FB0008F7080618093980183E991E00E94F016F0
:103FC00080919801F80185838F2D65960FB6F8943E
:103FD000DEBF0FBECDBFDF91CF911F910F91FF903C
:103FE000EF90DF90CF90BF90AF909F908F907F9099
:103FF0006F905F904F903F900895F4EF6F16F1E04F
:104000007F0620F48091770380FF21C0A601652DF3
:10401000842D0E947305811118C081E08E2580FFD8
:1040200016C04E2D652D842D0E94D309882379F06A
:1040300083E991E00E94F01688E0E3E9F1E0DF0116
:104040001D928A95E9F7F12CBFCF80E0E8CFA60159
:10405000652D842D0E947305811124C081E08E2579
:10406000B82FB170CB2E80FF2BC04E2D652D842D27
:104070000E94D309D82E811123C0498A5A8A89897E
:104080009A890E94F40B292F22952F70223060F01C
:10409000243088F49F7061F0F8019581907F41F49D
:1040A000FD2C92CF80E0DCCF9F7011F08823C1F30C
:1040B000805E8830A8F3C8010E94F016DC2CF0CF97
:1040C000EE2009F481CF809198018160809398015E
:1040D000BACF8B2D0E947305811124C0D80111968F
:1040E0008C9111978A111EC08C918B111BC020914D
:1040F000990130919A0116968D919C9117972817E6
:10410000390781F4E1100EC015963C92C8010E9457
:10411000F01688E0F801A3E9B1E001900D928A95CC
:10412000E1F752CFC8010E94000C882339F1EE203C
:1041300029F1809198018032A0F020919301309173
:1041400094013A8729871B86DD86CC868E878091ED
:10415000990190919A01988B8F87CE0109960E94C0
:10416000F01688E0F801A3E9B1E001900D928A957C
:10417000E1F70E94E71EFF24F39426CFC8010E94B6
:10418000F016F9CF832D807F09F452CF90909301E0
:10419000809094014091960150919701682D892D4E
:1041A0000E94730581111CC0F8018181881118C01B
:1041B0008081891115C02091990130919A018681E1
:1041C00097812817390761F4E1100AC03582C801C8
:1041D0000E94F01688E0D5011D928A95E9F7F4CE89
:1041E000C8010E94000C882349F2EE2039F2809128
:1041F0009801803208F4B5CF209193013091940159
:104200003A8329831B82DD82CC828E83809199013F
:1042100090919A0198878F83CE010196A0CF83E970
:1042200091E00E94370C809172039091730388167D
:10423000990680F6FE2CEE2009F4A0CFE0909301C1
:10424000D090940140919601509197016D2D8E2D43
:104250000E947305811128C0F80181818D1124C04D
:1042600080818E1121C02091990130919A0186811F
:10427000978128173907C1F48091770382FD49CFD0
:104280009091980190FD45CF907F09F442CF8091A5
:1042900098018583903F09F439CF982F907F905FE4
:1042A0008F70892B858332CFC8010E94000C811149
:1042B00058CF80919801816080939801C8010E9435
:1042C000F01682CEEE2009F459CFC8010E94000CEE
:1042D000F82E882309F452CF88E0F801A3E9B1E071
:1042E00001900D928A95E1F780919301909194014C
:1042F0000E94F40B0E94E71E67CECF93DF93CDB7E9
:10430000DEB760970FB6F894DEBF0FBECDBF29872A
:104310003A874B875C876D877E878F87988BCE0126
:1043200009960E94551F81112FC088E0FE01399621
:10433000DE01119601900D928A95E1F74C855D851D
:104340006A8589850E94730581111EC0A0919B0119
:10435000B0E0CD010196877099272091DC012817E4
:10436000190609F193E0AA0FBB1F9A95E1F7A4562D
:10437000BE4F98E0FE01319601900D929A95E1F7BB
:1043800080939B010E94F3098091DC0190919B0135
:10439000891317C060960FB6F894DEBF0FBECDBF6D
:1043A000DF91CF9108950E94C71010929B01109247
:1043B000DC0188E0E3E9F1E0DF011D928A95E9F78D
:1043C000E3CFB8E08B9FC001112484569E4F0E941A
:1043D000551F8823F9F28091DC0190E001968770E7
:1043E00099278093DC01D0CFEF92FF920F931F9318
:1043F000CF93DF938091B502882361F0C091B4021E
:104400008CE0F82E8091B502C81758F01092B502D2
:104410001092B402DF91CF911F910F91FF90EF9016
:104420000895EE24E394EC0EE092B4020C2F10E019
:10443000CF9DE0011124CA54DD4F4B815C8169811D
:1044400088810E94730581111DC08E819F81892BF7
:1044500021F488859985019651F4288139814A8112
:104460005B816C817D818E819F810E947D21F09E88
:10447000F001F19EF00D1124EA54FD4F14821382D5
:1044800010925704CE2DBECF1092590310925803AC
:104490001092190180915703809356030E94AC0536
:1044A0000C94F4213F924F925F926F927F928F9281
:1044B0009F92AF92BF92CF92DF92EF92FF920F93B3
:1044C0001F93CF93DF93C091560397E0892E01E0AD
:1044D00010E02CE0322E3EEF932E44244394809142
:1044E00057038C1315C00E94F421DF91CF911F91C7
:1044F0000F91FF90EF90DF90CF90BF90AF909F9083
:104500008F907F906F905F904F903F900C94AC0590
:10451000D0E0FE01EE0FFF1FE25BFC4F8081918136
:10452000889ED001899EB00D1124AA5EBC4F1496BE
:104530002C911497211157C05090B502E6EBF2E090
:1045400030E020E0712C5D01251508F04AC0E284BE
:10455000F384D501CD90DC906FEF7FEF612C462D79
:1045600050E0DA01AA0FBB1FAC0DBD1D0D90BC9130
:10457000A02D109731F0EA16FB0609F4BA016394F6
:10458000EECF6F3F7607A1F1D80102C0AA0FBB1F83
:104590006A95E2F77A2AB80102C0660F771F6A941B
:1045A000E2F7AB014150510974161506F9F4329E39
:1045B000F001339EF00D1124EA54FD4F889ED00186
:1045C000899EB00D1124AA5EBC4F12962D913C918C
:1045D00013973783268390829182918780871596DF
:1045E0004C920E947E052196C37079CF148213826B
:1045F0002F5F3F4F3C96A8CF2F923F924F925F92F2
:104600006F927F928F929F92AF92BF92CF92DF92E2
:10461000EF92FF920F931F93CF93DF93CDB7DEB747
:1046200069970FB6F894DEBF0FBECDBF942F498BAC
:10463000252F5A8B6B8B7C8B8D8B4C895D89622FE0
:10464000892F0E947305811109C080917F0190918B
:10465000800101969093800180937F018B89811165
:10466000109257041D861E861F86188A85E0FE015B
:104670007196DE01199601900D928A95E1F780916D
:10468000F90182FD1EC080915C0390915D03892B2E
:10469000C1F00E9415052091DE013091DF01821BDF
:1046A000930B20915C0330915D038217930720F0F8
:1046B0008091E00182FFF5C10E94B30981110E943F
:1046C00079094C855D856A8589850E94730581110C
:1046D00011C061E0CE0109960E94370C6C018B85F8
:1046E00027EFC2162CE5D20681F4882321F181E060
:1046F0008093190129853A854B855C856D857E857A
:104700008F8598890E947D21C5C038EFC3163CE58E
:10471000D30629F4882379F00E944422EBCF49EF95
:10472000C4164CE5D40639F4882329F08091190188
:104730008111F2CFDCCF06E113E0512CB12CA12C7A
:1047400022242394312C2EEF422EF80140815181F6
:1047500088248A94982C20E0822F90E0FC01EE0FB0
:10476000FF1FE40FF51F608171816115710531F044
:10477000C616D70609F44C012F5FEECFF12CFFEFE0
:104780008F169F0609F448C0F8014481F090190182
:104790008F2D411180E0F82FF170FF2EF801E58098
:1047A00086819B85992309F40CC1FF2009F409C176
:1047B0006090700370907103E11012C0A10101C0FC
:1047C000440F8A94EAF7842B86838091B2029091F9
:1047D000B3028615970520F47092B3026092B2027C
:1047E000C10102C0880F991F2A95E2F70197F801CD
:1047F00026812817190681F4809158039091590356
:10480000009709F460C00E9406056816790608F052
:104810005AC021E0F80124835F28FFEFAF1ABF0AD6
:10482000095F1F4F28E0A216B10409F08ECF8B85D7
:10483000882309F421C1552009F41EC10E941505E1
:1048400090935903809358038091B502883010F5F6
:1048500091E0980F9093B50298E0FE013996DE0141
:10486000119601900D929A95E1F73CE0839FC0016B
:1048700011248A549D4F28E0FE013196DC010190FD
:104880000D922A95E1F72FEF3FEFFC01318720874A
:10489000D386C28669960FB6F894DEBF0FBECDBF31
:1048A000DF91CF911F910F91FF90EF90DF90CF900C
:1048B000BF90AF909F908F907F906F905F904F9040
:1048C0003F902F9008958091560350915703982F51
:1048D000F0E0E0E0851314C090935603E017F10771
:1048E00009F49ACF90E0FC01EE0FFF1FE25BFC4F52
:1048F000B182A082019683709927809357038CCF51
:10490000682E712CF301EE0FFF1FE25BFC4F20813C
:10491000318147E0429FD001439FB00D1124AA5E30
:10492000BC4F6D917C911197798F688F40E020E0AA
:1049300030E0E32FF0E0EE0FFF1F688D798DE60F7A
:10494000F71F8080918081149104E1F0F8010190BB
:10495000F081E02DFF8BEE8B20E005C086169706D8
:1049600009F44F2D2F5FE22FF0E0EE0FFF1F6E894D
:104970007F89E60FF71F608171816115710571F7FD
:104980003F5FD7CF4423D1F0F801231708F0FD0192
:1049900021E024830E171F0721F490935603F42E71
:1049A0003BCF981305C0AE17BF0711F49F5F9370FC
:1049B00093012F5F3F4F822F83708CCFF0E0E0E0B8
:1049C000F7CF90E0E1101FC0B10102C0660F771F62
:1049D0002A95E2F79B01215031098217930731F4A0
:1049E000442309F447C0C5010E947E05C10101C0EE
:1049F000880F8A94EAF7982F9095F8018681892389
:104A00008683FE2C09CF9C01082C02C03595279582
:104A10000A94E2F7A90141705527BC016150710960
:104A200086239723892B11F5452B01F1F80182810B
:104A30009381892BC1F01B821C821D821E824982B8
:104A40004A820E9415058160582F9D838C83F8014E
:104A5000828193818F83988729813A814B816D81EF
:104A60007E810E947D21F8011582C0CFF22FF17066
:104A7000EF2EBCCFEF2CBACF909156038091570305
:104A8000981731F00E945222552009F433CE02CFFC
:104A90000E94F42110925903109258030E94AC0511
:104AA000F3CF82E00E94691007CECF93DF9300D04E
:104AB00000D00F92CDB7DEB790938A02809389021F
:104AC000811520E2920748F40F900F900F900F90FD
:104AD0000F90DF91CF910C94FE138EEF89838A8320
:104AE0001B820E9415058160782F9D838C834981EC
:104AF0005A816B818D810F900F900F900F900F90C6
:104B0000DF91CF910C94FC220F931F93CF93DF93EF
:104B10008C01EB016DE272E08C2F0E94C10D892B9C
:104B2000A1F480917803909179030E944A0BDD27CC
:104B3000CB5DDD4F8881F80110821882833009F146
:104B400048F4813059F0823081F0DF91CF911F918C
:104B50000F9108958430D1F08530B9F780912D02FE
:104B600090912E02009789F306C080912F029091B8
:104B70003002009799F3DF91CF911F910F910C9420
:104B800055258091310290913202F3CF809133020A
:104B900090913402009779F720912D0230912E02E6
:104BA00080912F029091300221153105D9F20097A2
:104BB00011F7C901E0CFCF93DF9300D000D00F925F
:104BC000CDB7DEB790938A0280938902811520E2E7
:104BD000920748F40F900F900F900F900F90DF9175
:104BE000CF910C949F158EEF89838A8381E08B830C
:104BF0000E9415058160782F9D838C8349815A819D
:104C00006B818D810F900F900F900F900F90DF911F
:104C1000CF910C94FC22CF93DF93EC010E94DB2513
:104C200080917803909179030E944A0BCE01DF9125
:104C3000CF910C9455250F931F93CF93DF938C0145
:104C4000862F6DE272E00E94C10D892BC9F4C091DC
:104C50002D02D0912E02209799F0F80180818330A7
:104C600069F4CE010E940B26CE010E940B26CE01D4
:104C7000DF91CF911F910F910C940B268430B8F7E0
:104C8000DF91CF911F910F9108950F931F93CF93B1
:104C9000DF938C01EB016DE272E08C2F0E94C10D5D
:104CA000892B09F064C0FE01FF27D8018C91EB5DD0
:104CB000FD4F8130D9F419969C911997992311F0E1
:104CC00080830CC01A969C919923D1F382E0808353
:104CD00080912F02909130020097D9F480912D029B
:104CE00090912E02009709F442C013C08230E9F57A
:104CF00019968C91199781112DC01A968C9181115A
:104D00000EC083E08083809131029091320200973F
:104D100019F1DF91CF911F910F910C94DB2584E065
:104D200080838091330290913402009791F78091B3
:104D30002D0290912E020097F9F00E940B2680918F
:104D40002F0290913002009721F780912D029091CF
:104D50002E02DFCF85E0808380912D0290912E027C
:104D6000009729F00E940B26F0CF86E08083DF9128
:104D7000CF911F910F91089580912F029091300251
:104D8000B1CF1F920F920FB60F9211242F933F9322
:104D90004F935F936F937F938F939F93AF93BF9343
:104DA000CF93DF93EF93FF93D091E900DF70809171
:104DB000EC00C82FC17080FDC0E81092E90080911E
:104DC000F000877F8093F00078940E94D2101092B8
:104DD000E9008091F00088608093F000CD2BCF70C7
:104DE000C093E900FF91EF91DF91CF91BF91AF9117
:104DF0009F918F917F916F915F914F913F912F91F3
:104E00000F900FBE0F901F9018951F920F920FB624
:104E10000F9211242F933F934F935F936F937F9340
:104E20008F939F93AF93BF93EF93FF938091E10094
:104E300082FF09C08091E20082FF05C08091E100FD
:104E40008B7F8093E1008091DA0080FF24C0809105
:104E5000D80080FF20C08091DA008E7F8093DA0036
:104E60008091D90080FF9DC080E189BD82E189BD2C
:104E700009B400FEFDCF81E08093550480913F048A
:104E8000811109C00E9450030E9443048091E200F6
:104E900084608093E2008091E10080FF17C08091E0
:104EA000E20080FF13C08091E2008E7F8093E200D9
:104EB0008091E20080618093E2008091D80080625E
:104EC0008093D80019BC85E0809355048091E1005F
:104ED00084FF2BC08091E20084FF27C080E189BD60
:104EE00082E189BD89B5982F917080FFFBCF8091B9
:104EF000D8008F7D8093D8008091E1008F7E8093D1
:104F0000E1008091E2008F7E8093E2008091E200D8
:104F100081608093E20080914C04882309F447C0AB
:104F200084E080935504809155048091E10083FFD3
:104F300027C08091E20083FF23C08091E100877F3A
:104F40008093E10082E08093550410924C0480919C
:104F5000E1008E7F8093E1008091E2008E7F80935C
:104F6000E2008091E20080618093E20042E060E034
:104F700080E00E9411048091F00088608093F0002E
:104F8000FF91EF91BF91AF919F918F917F916F9121
:104F90005F914F913F912F910F900FBE0F901F90F7
:104FA000189519BC1092550410923F0474CF80914B
:104FB000E30087FD93E090935504B5CF78941F925A
:104FC0001FB61F9211248F939F93AF93BF9380912D
:104FD000380490913904A0913A04B0913B040196B1
:104FE000A11DB11D8093380490933904A0933A0415
:104FF000B0933B04BF91AF919F918F911F901FBEC3
:105000001F9018951F921FB61F9211248F939F9384
:10501000AF93BF9380913704811113C080913804FE
:1050200090913904A0913A04B0913B044196A11D9E
:10503000B11D8093380490933904A0933A04B0933F
:105040003B04BF91AF919F918F911F901FBE1F9006
:105050001895CDB7DEB7E4970FB6F894DEBF0FBE54
:10506000CDBF84B7877F84BF0FB6F894A895809191
:105070006000886180936000109260000FBE80E83D
:1050800090E00FB6F89480936100909361000FBE9A
:1050900085B7806885BF85B7806885BF85E997E05B
:1050A00090937501809374010E94D50D0E942B0E80
:1050B0000E94540B0E9450030E9443048091E2001E
:1050C00084608093E2007894809155048823A1F055
:1050D0001091E9001F709091EC00892F817090FD74
:1050E00080E8182B1092E9008091E80083FD0E946F
:1050F000D2101F701093E90082E084BD93E095BD4B
:105100009AEF97BD80936E000E94450C811102C0FA
:105110000E94B20D81E90E94970784EF0E949707D1
:1051200081EF0E94970780EF0E94970708E511E042
:1051300074E6E72E71E0F72ED8018D918D018F3F37
:1051400011F00E949707E016F106B1F788E0E0E160
:10515000F2E0DF01282F1D922A95E9F7E0EFF1E058
:10516000DF011D928A95E9F790E080E00E94BE2F52
:10517000893E9E4F21F40E94450C811102C00E947D
:10518000861682E090E00E94B62F8093FA010E947A
:105190005E0C9093F9018093F8010E94840EEFEF6A
:1051A000F6E721E0E150F0402040E1F700C00000C8
:1051B0000E94840E8091100280FF08C06FEF7FEF85
:1051C00090E080E00E94E22F0E94260B83E090E0B6
:1051D0000E94B62F0E94C31080E091E090933404A7
:1051E000809333048E010F5F1F4F8091550450E16F
:1051F000E52E62E1F62E853009F41FC10E94840E6F
:10520000882359F08FB7F8944091380450913904AD
:1052100060913A0470913B048FBFA0E1B2E0EBEFE4
:10522000F1E0F12CE12C7E2D8D919D912191319118
:105230002817390709F411C160E0CC24C394D12C9C
:1052400028273927A9014C215D21452B09F4FFC0EE
:105250006BA77CA796012823392391E0232B09F41F
:1052600090E09DA70E9415058160782F9FA78EA7CB
:105270004BA55CA56DA58FA50E94FC22F701EE0F42
:10528000FF1FE550FE4F80819181C826D926D1822B
:10529000C08280910C0190910D01F12C76E1E72EF6
:1052A000019609F022C180911901811128C18091D4
:1052B000750380FF1EC08091180182FF1AC00E94F2
:1052C00015052091AE023091AF02AC01421B530B89
:1052D00020911601309117014217530750F023E037
:1052E00032E041E0BC018091B0029091B1020E9495
:1052F000CA1586E0EFE1F2E0D80101900D928A959F
:10530000E1F7C0902102D0902202E0902302F090B9
:105310002402109221021092220210922302109273
:1053200024028C2D8D2909F41FC180911D029091BA
:105330001E020E940605AC0190911902992309F4FE
:1053400009C1809114018417150608F00DC19F3F13
:1053500019F09F5F90931902CC2059F00E94CE065D
:105360009FEF1C140CF491E0899F802D11248093F1
:105370002102DD2059F00E94CE069FEF1D140CF48F
:1053800091E0899F802D1124809322023091210287
:10539000332309F4E9C020912202222309F4E4C056
:1053A00045EB3403C0011124992309F42DC19093D6
:1053B000210245EB240390011124332309F428C171
:1053C00030932202D1C080915504843021F1109293
:1053D000370488E190E0A0E40FB6F894A895809394
:1053E00060000FBEA093600083B7817F846083BF9D
:1053F00083B7816083BF7894889583B78E7F83BF9E
:105400000FB6F894A8958091600088618093600041
:10541000109260000FBE80914B04882371F00E94AF
:10542000840EE0E1F2E081919191892B09F0DDC4D5
:1054300028E132E02E173F07B1F7809155048530FF
:1054400009F4C1CF0E94C7100E946705D7CE6F5FD5
:10545000CC0CDD1C6C3009F0F5CE3FEFE31AF30AFB
:1054600044E0E416F10409F0DECE8FEF88AB89AB9F
:105470001AAA0E9415058160782F9CAB8BAB48A9B6
:1054800059A96AA98CA90E94FC2203CFE89EF001C9
:10549000E99EF00D1124EF57FC4FC288D388C11448
:1054A000D10421F4C0907203D0907303E89EF00100
:1054B000E99EF00D1124EF57FC4F86818823A1F05F
:1054C000858596850E940605C816D90668F4FE9C57
:1054D00060011124C6018F579C4F0E94F40FC60132
:1054E00089579C4F0E94AF0FF3948F2D90E020912D
:1054F0000C0130910D012817390744F6D4CE809164
:10550000580390915903009709F4D1CE0E940605E3
:105510002091B2023091B3022817390708F0C7CEA4
:105520009091560380915703981759F00E94522288
:105530001092B3021092B2021092590310925803C3
:10554000B6CE0E94F42110925903109258030E9483
:10555000AC05ADCE20911501BAE02B9F900111242E
:105560002417350708F4F5CE8E2D8F2909F45EC077
:1055700080911B0290911C020E940605AC01909143
:105580001802992309F448C0809110018417150668
:1055900008F04CC09F3F19F09F5F90931802EE20D7
:1055A00059F00E9495069FEF1E140CF491E0899F1C
:1055B000802D112480932302FF2059F00E9495062C
:1055C0009FEF1F140CF491E0899F802D112480938C
:1055D000240230912302332349F120912402222313
:1055E00029F145EB3403C0011124992309F478C053
:1055F0009093230245EB240390011124332309F4F3
:1056000073C03093240212C081E080932102D1CE76
:1056100081E080932202A8CF209111018AE0289F87
:10562000900111242417350708F4B6CF8091210288
:1056300090912202892B90912302892B9091240230
:10564000892B11F00E94EB0586E0F801AFE1B2E092
:1056500001900D928A95E1F70E94670590910B02E7
:10566000891380930B0280915504843009F0BDCDDD
:1056700083E08093E9008091E80082FFB6CD8091BD
:10568000E80090E085FF09C00E946F0360E2C62E2B
:10569000D12C78018823A9F191E08091E8008B77E3
:1056A0008093E800992309F4A0CDE0908B02F0905C
:1056B0008C028981E114F10491F18E3F09F0BCC0A4
:1056C0008A81833020F08550833008F0B5C0EA81AC
:1056D000EE3008F0B1C0F0E0E85EFF4C0C94732FA0
:1056E00081E08093230286CF81E0809324029ECFC5
:1056F0008091F100D7018D937D01B1E0CB1AD108E3
:1057000059F28091E80085FDF3CF8091E8008B7716
:105710008093E8000E946F03882399F3BDCF8C30FB
:1057200009F4E1C048F5843009F4C4C050F4823073
:1057300009F468C008F0AFC0813009F45FC08FEF92
:1057400080C3863009F4CCC008F4BFC08B30B9F7F1
:105750008091870290918802892B09F46DC0C8015D
:105760000E94CA03FFEF21EE34E0F15020403040A8
:10577000E1F700C0000028CD803109F4E5C090F5C4
:105780008E3009F4B7C008F4B1C0809187029091BF
:105790008802892B09F450C0EC80F12C3DE1E3161E
:1057A000F10408F049C0CA80DB80DC24CD24DC246D
:1057B0005801E00EF11EC60187599D4FEA14FB0403
:1057C000D9F147E9C41641E0D40628F4D50114966E
:1057D0006C910E94C42FBFEFAB1ABB0AEFEFCE1A39
:1057E000DE0AE9CF823109F4B4C008F4B0C08331D5
:1057F00009F4D8C08E3F09F0A2CF69CF1A8289E0A0
:105800008B831AC08A81823009F43DC38330C1F092
:10581000813009F094CF2FB7F894609138047091DB
:10582000390480913A0490913B042FBF0E94792F54
:105830006B837C838D839E83C8010E94CA03D5CC71
:105840008091870290918802892BB1F38091100298
:10585000909111029827892798279C838B838091A8
:105860001202909113029827892798279E838D838F
:10587000809114029091150298278927982798877C
:105880008F83809116029091170298278927982775
:105890009A878987D1CF8A81823009F050CF6B8176
:1058A0007C818D819E810E94792F86E290E00E940A
:1058B000C42FC2CF4C816B818A810E947A0B9827BA
:1058C000892798279E838D83B7CF2D813E813227EC
:1058D000232732274C816B818A810E94D60CACCF62
:1058E0000E94230DA9CF80E18A83A6CF81E08A831D
:1058F00087E986CFEC80F12CEDE1EE16F10408F09B
:105900009BCFCA80DB80DC24CD24DC245801E00E50
:10591000F11EC60187599D4FEA14FB0409F48CCF90
:10592000F7E9CF16F1E0DF0660F40E94B62FD5014B
:1059300014968C93FFEFCF1ADF0A2FEFA21AB20A48
:10594000E8CFF5011482F6CF0E94C60C75CF84E033
:10595000CBCFEC80F12CFDE1EF16F10408F06CCF19
:10596000CA80DB80DC24CD24DC245801E00EF11E4B
:10597000C6018796EA14FB0409F45ECF20E8C2163C
:1059800021E0D20660F40E94B62FD50114968C93C4
:10599000FFEFCF1ADF0A2FEFA21AB20AE9CFF50103
:1059A0001482F6CFCC80D12C3DE1C316D10408F08F
:1059B00043CFEA80FB80FE24EF24FE2440E8E41677
:1059C00041E0F40608F038CF80E891E08E199F0995
:1059D0008C159D0508F430CF370187E2680E711CE5
:1059E000809187029091880227014C0C5D1C892BC5
:1059F000A1F5570191E0A922BB24E0FE0DC0C7012B
:105A000086960E94B62F9D81892798278927811520
:105A10009C4511F48FEF8D83460140FE17C0B1E025
:105A20008B1A910855E0252E312C2C0E3D1E280C8A
:105A3000391CC3018C0D9D1D0E94B62FF101908170
:105A400081159C4519F48FEFD1018C93F801EA0D73
:105A5000FB1D2FEFA814B90410F068011CC094813D
:105A6000858181159C4511F42483258332E0A30EA2
:105A7000B11C3296EFCF40E8E41641E0F40628F47A
:105A8000D60114966C910E94C42FBFEFCB1ADB0A8B
:105A9000EFEFEE1AFE0AC70187964E145F0459F71E
:105AA000CBCE88E0EBE1F1E0DE01919601900D9222
:105AB0008A95E1F780E2D8011D928A95E9F784E0A2
:105AC000898388E0FE01B196DE01159601900D9262
:105AD0008A95E1F7B1CE80E2898381E08A831B82D7
