:100000000C9435040C946D040C946D040C946D04E4
:100010000C946D040C946D040C946D040C946D049C
:100020000C946D040C946D040C94712A0C942D2A7C
:100030000C946E2B0C946D040C946D040C946D0454
:100040000C946D040C946D040C946D040C946D046C
:100050000C946D040C944A2B0C946D040C946D0458
:100060000C946D040C946D040C946D040C946D044C
:100070000C946D040C946D040C946D040C946D043C
:100080000C946D040C946D040C946D040C946D042C
:100090000C946D040C946D040C946D040C946D041C
:1000A0000C946D040C946D040C946D04050109020C
:1000B000A10185020901A100050919012905150001
:1000C00025019505750181029501750381010501E1
:1000D000093009311581257F950275088106093897
:1000E0001581257F950175088106050C0A380215D2
:1000F00081257F950175088106C0C005010980A191
:1001000001850319012AB700150126B7009501756D
:10011000108100C0050C0901A101850419012AA064
:1001200002150126A002950175108100C00660FF2E
:100130000961A1010962150026FF0095207508815B
:10014000020963150026FF00952075089102C0057D
:10015000010906A101050719E029E7150025019508
:1001600008750181029501750881010507190029AB
:10017000FF150026FF009506750881000508190186
:100180002905950575019102950175039101C0003E
:10019000000000000000000000000000000000005F
:1001A000000000000000000000000000000000004F
:1001B0000000007E0F00D4FFFFFFC70000007800A2
:1001C000000000000000002A2B28000000000000B2
:1001D0000000000000000000000029000000002CCA
:1001E0001E3420212224342627252E362D37382769
:1001F0001E1F202122232425263333362E37381F75
:100200000405060708090A0B0C0D0E0F1011121336
:100210001415161718191A1B1C1D2F3130232D35D4
:100220000405060708090A0B0C0D0E0F1011121316
:100230001415161718191A1B1C1D2F3130354C00B8
:10024000047F3F1F643214643214783C1E1E140A6B
:1002500005FD377A585A000004E6D6B4460200215C
:100260000116000000742FE5A3E001D500EF5D004A
:100270003D8889C65436C3174FE4DC2A19C8EC7789
:100280009348446F25DE469A04583C03BDA9AA92C0
:1002900019962165E11D0866E56125D4AB761992B2
:1002A00004BBD96EBBAC2030F4818380C336E76CCD
:1002B0004FAAAD17B848E8B86D028890200B31926C
:1002C0009462E7C99BD3FB008FF0FB5DA9F019D9BD
:1002D000ED5230E59C9482A0A4EA830ECF20DDB3DA
:1002E0006EA600F0F7FE16F4A909EC7141B70023E1
:1002F000C74FEC3791CE06BE5AD3BC14974A921A18
:10030000256F9D9891D111C543640B0967D0AAEB65
:1003100070E283F36B7EE3EF0452019656311EA424
:100320006D406FA9365EB00F817F2A45D2690AA35E
:100330008EDED81C3325072884C0EAC737FD58CE87
:100340004D92BEEB3A0B223C1810F7EAA88D82D5ED
:100350008EBA8DD007B11A5777E4A8D7C8B9000074
:1003600000EC1BE18D0D4472E300018B02D603000B
:1003700000BA3B9BCCB1C467FB02000000000459EB
:100380005A00010101010101010101020202020200
:10039000020202020303030303030303040404042D
:1003A00004040405050505050606060606070707F5
:1003B000070708080808090909090A0A0A0B0B0BAC
:1003C0000C0C0C0D0D0D0E0E0E0F0F0F1010111149
:1003D00011121213131414151516161717181819CD
:1003E000191A1A1B1B1C1D1D1E1E1F202021222234
:1003F000232424252626272829292A2B2C2D2D2E77
:100400002F30313232333435363738393A3B3C3D90
:100410003E3F404142434445464748494A4C4D4E81
:100420004F50515354555658595A5B5D5E5F616247
:1004300064656668696B6C6D6F7072737577787AD6
:100440007B7D7E8082838587888A8C8E8F91939531
:1004500096989A9C9EA0A2A3A5A7A9ABADAFB1B355
:10046000B5B7BABCBEC0C2C4C6C9CBCDCFD1D4D635
:10047000D8DBDDDFE2E4E7E9EBEEF0F3F5F8FAFDD7
:10048000FFFFAA7F55402223252628292A2C2D2F1D
:100490003032333536383A3B3D3E4042434547499A
:1004A0004A4C4E5051535557595A5C5E60626466CF
:1004B00068696B6D6F71737577797B7D7F818385DB
:1004C00087898A8C8E90929496989A9C9E9FA1A3DD
:1004D000A5A7A8AAACAEAFB1B3B4B6B8B9BBBCBE01
:1004E000BFC1C2C3C5C6C7C9CACBCCCDCED0D1D27D
:1004F000D2D3D4D5D6D7D7D8D9D9DADADBDBDBDC7F
:10050000DCDCDCDCDDDDDDDDDCDCDCDCDCDBDBDB2A
:10051000DADAD9D9D8D7D7D6D5D4D3D2D2D1D0CE8A
:10052000CDCCCBCAC9C7C6C5C3C2C1BFBEBCBBB98F
:10053000B8B6B4B3B1AFAEACAAA8A7A5A3A19F9E0D
:100540009C9A98969492908E8C8A89878583817FD5
:100550007D7B79777573716F6D6B696866646260B6
:100560005E5C5A5957555351504E4C4A4947454382
:1005700042403E3D3B3A3836353332302F2D2C2A1F
:10058000292826252322290014001A000800150016
:1005900017001C0018000C00120013002A002B008A
:1005A00004001600070009000A000B000D000E00F1
:1005B0000F0000002800E1001D001B0006001900CC
:1005C0000500110010003600520000003700E00066
:1005D000E300E2002C0000002C000000015150005C
:1005E000510000004F00005C01000100010001000B
:1005F00001000100010001000100010001000100F3
:10060000BF5CBD5CBE5CC05C01000100010001007C
:100610000100000001000100C25CC35CC55CC65C57
:10062000C75CC85CC95CCA5C010000000100010035
:1006300001000100010000000100000001000100B4
:1006400001000000010001000100010001000100A3
:100650000100010001000100010001000100010092
:100660000100010001000100010001000100010082
:100670000100000001000100010001000100010073
:100680000100010001000100010000000100010063
:100690000100010001000000010000000100010054
:1006A0000100000001000100010001000100010043
:1006B0000100010001000100010001000100010032
:1006C0000100010001000100010001000100010022
:1006D0000100000001000100010001000100010013
:1006E0000100010001000100010000000100010003
:1006F00001000100010000000100000001000100F4
:10070000010000000100010001004204000002009D
:1007100002003E0400000300010043040000040046
:10072000020028040107050001004404000006003F
:1007300002002A0400000700020040040000080034
:10074000010045040000090002002C04DC060A0038
:1007500002002E04DC060B0002003004DC060C0054
:1007600002003204DC060D0002003404DC060E0038
:1007700002003604DC060F0002003804DC0610001C
:1007800002003A04DC06110002003C04DC06120000
:1007900002004604000013000200480400000902A1
:1007A0005B00030100A0FA0904000001030101003D
:1007B0000921110100012240000705810308000101
:1007C00009040100020300000009211101000122B7
:1007D0002200070582032000010705030320000112
:1007E0000904020001030000000921110100012297
:1007F00081000705840320000112010002000000AF
:1008000008504B61600100010203011C037600697E
:100810000061006C003A006600360034006300326C
:10082000006200330063000000220342004D0034E8
:10083000003300200048006F0074007300770061EF
:100840000070002000520047004200000016034BD9
:10085000005000520065007000750062006C006975
:100860000063000000040309040011241FBECFEF41
:10087000DAE0DEBFCDBF04B603FE18C08091740479
:1008800090917504A0917604B09177048730904BD5
:10089000A740B04B59F41092740410927504109252
:1008A000760410927704E0E0F8E3099511E0A0E007
:1008B000B1E0EEEFF9E602C005900D92A43AB1075F
:1008C000D9F724E0A4EAB1E001C01D92A437B20731
:1008D000E1F70E94952B0C94D9340C940000E8EDBC
:1008E000F0E080818E7F80831092E2001092DA0027
:1008F0001092E100A0EEB0E08C9181608C93808139
:100900008F77808319BCA7EDB0E08C918E7F8C939C
:1009100080818F7E808310925B0408952091E40093
:100920003091E50095E6A9012091EC00822F8170BD
:1009300020FF06C08091E80080FF06C080E0089597
:100940002091E80022FD1AC080917104882389F06B
:10095000853089F08091EB0085FD0FC02091E40087
:100960003091E50042175307F9F29150E1F684E027
:10097000089582E0089583E0089581E00895EF925C
:10098000FF920F931F93CF937C018B010E948E04E3
:10099000C82F811117C08091E80085FD0BC08091A0
:1009A000E8008E778093E8000E948E04882399F3F4
:1009B000C82F08C0F70181917F018093F100015099
:1009C000110949F78C2FCF911F910F91FF90EF9054
:1009D0000895CF93FC0180917104843001F5C0919A
:1009E000E900CF702091EC00922F917020FD90E8EB
:1009F000C92B82E08093E9008091E80080FF0CC061
:100A000050E040E060E270E0CF010E94BF048091BE
:100A1000E8008E778093E800CF70C093E900CF9113
:100A200008958091690487FF13C08091E80082FFD8
:100A300006C08091E8008B778093E80004C0809125
:100A400071048111F2CF0895809171048823D9F344
:100A50008091E80080FFF8CF8091E8008E77ECCF9E
:100A6000982F9093E900242F762F50E0891731F0CA
:100A70007091EC002091ED005091F00021FD07C035
:100A80009F5F973071F78093E90081E0089530917E
:100A9000EB003E7F3093EB003091ED003D7F3093D3
:100AA000ED003091EB0031603093EB007093EC007F
:100AB0002093ED005093F0002091EE0027FDE0CF51
:100AC00080E00895CF92DF92EF92FF920F931F93F1
:100AD000CF93DF93C8EDD0E088818F7E8883E7EDE8
:100AE000F0E080818160808384E082BF81E0809338
:100AF0005B0488818E7F888302EE10E0F80110820B
:100B00001092DA0081EEC82ED12CF6011082888175
:100B10008F77888388818068888388818F7D8883A8
:100B200019BC10927104109268041092670410921C
:100B3000660490EEE92EF12CF70180818B7F808393
:100B400088818160888342E060E080E00E94300517
:100B5000F60180818E7F8083F801808181608083AF
:100B6000808188608083F70180818E7F8083888187
:100B700080618883DF91CF911F910F91FF90EF905B
:100B8000DF90CF900895FC0180916F0490917004E4
:100B900086179707A0F06115710529F49091E80078
:100BA0009E779093E80090E06115710551F49111E2
:100BB00008C08091E80082FF34C080E00895BC0145
:100BC000F2CF809171048823C1F18530C1F1809109
:100BD000E80083FD30C08091E80082FDEACF80917B
:100BE000E80080FFE1CF8091F3002091F200382FE0
:100BF0006115710519F02830310558F091E0283061
:100C0000310509F090E02091E8002E772093E8006C
:100C1000CBCF81918093F100615071092F5F3F4FDD
:100C2000E7CF80917104882341F0853041F08091B5
:100C3000E80083FFBECF81E0089582E0089583E05D
:100C40000895089580915D0408959C014FB7F8942C
:100C50008091540490915504A0915604B09157048A
:100C60004FBF821B930B08952FB7F89480915404C3
:100C700090915504A0915604B09157042FBF089548
:100C80009C01FC0132969FEF80E04191461751F0A4
:100C90009F3F19F4411101C0982F8F5F8630A9F74B
:100CA0009F3F09F40895290F311D97FD3A95F901E9
:100CB0006283089520915104309152042817390716
:100CC00071F09093520480935104E0914F04F0919D
:100CD0005004309721F00084F185E02D09940895A7
:100CE00020914D0430914E042817390771F09093EC
:100CF0004E0480934D04E0914F04F09150043097DE
:100D000021F00680F781E02D09940895E0914F04C9
:100D1000F0915004309721F00190F081E02D09947A
:100D200080E00895452B39F0682381E06F3F09F09A
:100D300080E08170089581E0FCCFDC0160912404A3
:100D400080912504962F891301C00895292F30E042
:100D5000F901EE0FFF1FE45EFB4F408151814A17FE
:100D60005B07A1F487E08A9FA0018B9F500D11249F
:100D70004C515C4F81E0FA0184839613E6CF2F5FDC
:100D80003F4F237033272093240408952F5F3F4F54
:100D9000922F9370D8CF1092810310928003E4EECB
:100DA000F3E08581811102C014821682379684E0B7
:100DB000EC31F807B1F70895E8E2F4E08481958119
:100DC0002AE030E0B9010E94B233609321018681AC
:100DD00080932001828580931F01848580931E016A
:100DE00086859785B9010E94B23360931D01808981
:100DF00080931C01828980931B01848980931A014E
:100E00000895809128049091290490932301809360
:100E100022010895FA01811101C0FB01099408958E
:100E200080910203982F9E7F61F48170826080938D
:100E3000020380910503853B18F084EB8093050342
:100E400008958A34B0F381708864F1CFAF92BF9275
:100E5000DF92EF92FF920F931F93CF93DF93082FB0
:100E6000162FE901E42FF0E0EF57FC4F611110C09D
:100E7000E4915E2F4E2F4983E8835A83DF91CF910F
:100E80001F910F91FF90EF90DF90BF90AF9008956A
:100E9000E62EF12C4491D42EE42FF0E026E0829F40
:100EA000C00111242FEF30E0B9010E94B233802F2E
:100EB00090E0880F991F55E5569FD001579FB00DC0
:100EC00011248A1B9B0B982F990F890F5901AE187B
:100ED000BF08AE9ED001AF9EB00DBE9EB00D1124D6
:100EE0005B2F189F80011124012F11275901A01A8F
:100EF000B10AAE9E8001AF9E100DBE9E100D112452
:100F00005901A81AB108AE9CC001AF9C900DBE9CBF
:100F1000900D1124892F9927281B390B2E9FC00172
:100F20002F9F900D3E9F900D1124E92F6230710587
:100F3000A1F050F46115710509F49DCF6130710580
:100F400081F0EB2F512F97CF6430710569F080F05D
:100F50006630710509F48FCFF4CFE42F4B2F592F52
:100F60008ACFE42F412F87CFEB2F542F492F83CFE8
:100F70004B2F5D2DE12F7FCF0E9434069C01909175
:100F8000540280915502982B21F030935102209306
:100F900050029091560280915702982B21F0309385
:100FA0004F0220934E02E0914F04F091500430978D
:100FB00049F082E0809352020480F581E02D82E5C1
:100FC00092E00994089590915402803F59F48091E1
:100FD000550287FF0DC01092550291110BC010925F
:100FE0004C0208C0813F81F48091550218169CF391
:100FF000992381F08091560290915702892B09F034
:1010000064C010924B020895823F49F497FFF0CFDD
:1010100010925402809155028111ECCFE0CF833FB2
:1010200019F41916ACF3E4CF20915602893F29F444
:101030001216F4F610925602DBCF8A3F19F427FFFE
:10104000D7CFF8CF209157028B3F29F427FFD0CF7D
:1010500010925702CDCF8C3F19F41216CCF3C8CFA3
:10106000843F31F4809153028E7F80935302C0CF2E
:10107000853F21F4809153028D7FF7CF863F21F485
:10108000809153028B7FF1CF873F21F480915302EF
:10109000877FEBCF883F21F4809153028F7EE5CF8D
:1010A0008D3F31F480914D028E7F80934D02A0CF11
:1010B0008E3F21F480914D028D7FF7CF8F3F09F055
:1010C00097CF80914D028B7FF0CF089580914D0294
:1010D00080FF0CC060911B0170E075956795759558
:1010E00067956115710549F1862F089581FF06C046
:1010F00060911B0170E075956795F3CF60911B01BE
:1011000082FD0BC090914B029923A1F060911A01CE
:1011100080911B01961738F0682F70E060387105D8
:1011200000F38FE70895899FC001112470E00E94A9
:10113000C633F4CF61E070E0D7CF81E008958091AD
:101140004D02609130047091310480FF16C02091EF
:101150001F01269FC001279F900D1124BC01769589
:101160006795769567956038710508F043C06115FD
:10117000710509F441C0862F089581FF0BC02091AD
:101180001F01269FC001279F900D1124BC01769559
:101190006795E9CF82FF09C080911F019B01829F63
:1011A000B001839F700D1124DECF20914C022223C9
:1011B000D1F290911E0180911F01482F50E0291714
:1011C00048F0CB01849FB001859F700D949F700DF6
:1011D0001124C9CF289F90011124269FA001279F89
:1011E000500D369F500D1124692F70E0CA010E94E6
:1011F000B233B9CF8FE7089581E00895803F31F48D
:101200000E949F088195809355020895813F19F4AB
:101210000E949F08F8CF823F31F40E949F08819579
:10122000809354020895833F19F40E949F08F8CFD9
:10123000893F29F40E9466088093560208958A3FE8
:1012400021F40E9466088195F7CF8B3F31F40E940C
:10125000660881958093570208958C3F19F40E9487
:101260006608F8CF843F31F4809153028160809307
:1012700053020895853F21F4809153028260F7CF95
:10128000863F21F4809153028460F1CF873F21F49F
:10129000809153028860EBCF883F21F48091530204
:1012A0008061E5CF8D3F31F480914D028160809364
:1012B0004D0208958E3F21F480914D028260F7CF58
:1012C0008F3FB9F780914D028460F1CF80E008959F
:1012D000F894E82FE295EF70F0E031A1282F2F70FD
:1012E00081E090E001C0880F2A95EAF7982F909549
:1012F000932391A392A1892B82A37894089590912E
:10130000280292FF06C0282F28712830F9F4877F21
:10131000846093FF06C0282F28712831F1F4877E5E
:1013200084612091290220FF06C0382F387138309F
:10133000D9F4877F816021FF06C0282F28712831CA
:10134000D1F4877E816194FD877E0895282F2471D2
:101350002430F9F68B7F8860DCCF282F247124316C
:1013600001F78B7E8861DDCF382F3171313019F76D
:101370008E7F8860E0CF282F2171213121F78E7E6A
:101380008861E1CFCF93DF93EC0182389105A9F119
:10139000D8F58133910509F496C048F58932910555
:1013A00009F48AC08A9709F495C0C11521E5D207CE
:1013B00008F0BCC0C11530E5D30708F014C1C83E21
:1013C000D10508F09CC0C03ED10560F5C83AD105F2
:1013D00008F087C0C53AD10508F0FDC0C130D1057D
:1013E00009F12097F9F0C430D105E0F440C085330D
:1013F000910509F45AC0C997C1F6809128028370FB
:1014000089F0C0EED0E00EC0833E910599F170F4F2
:10141000803E910501F1823E910539F680912802C6
:1014200082FD21C0CE01DF91CF910895863E9105C6
:1014300061F1873E910571F1843E910509F0B5CFC8
:101440008091290281FFEECF80912802C7EED0E083
:1014500084FD0DC0E7CF8091280280FD12C19091DC
:10146000290290FFDFCFC3EED0E084FFDBCFD0E0D6
:10147000C0E0D8CF8091280282FD06C19091290258
:1014800090FDBFCF84FFCECFF2CF8091280283FDA5
:10149000DDCFC8CF8091280283FDF9C09091290249
:1014A00091FFF0CFC4EED0E0BDCF8091280285FF40
:1014B000B9CFC9E2D0E0B6CF8091280285FFB2CF84
:1014C000C5E3D0E0AFCF8091280286FFABCFCAE260
:1014D000D0E0A8CF8091280286FFA4CFC1E3D0E05E
:1014E000A1CFCF3BD10518F6C85AD0E0CC0FDD1FF5
:1014F000CE5CDE4F0990D881C02DD46493CFC11546
:1015000040E2D40758F4C11581E0D80708F08ACF2B
:10151000C03FD10508F4ABCFD06584CFC11590E4AE
:10152000D90708F4A4CFDF70D06A7CCFC11525E5B8
:10153000D20700F5C11534E5D30708F08AC0C115FC
:1015400043E5D40708F071C0C11582E5D80708F457
:1015500067C0CE018370992721E030E002C0220FDE
:10156000331F8A95E2F7C695C69580E2C89FE001D1
:10157000112452C0C11599E5D907A8F4C11528E571
:10158000D20708F06BC0C11536E5D30708F06FCF5E
:101590008C2F0E947F09C82FD0E0DC2FCC27CC27CE
:1015A000DF71D0623FCFC1154AE5D40708F45BC0B4
:1015B000CE0190568115904208F059CF8D2F8F7132
:1015C0000E947F0990E0982F882788279F719C01AF
:1015D0002C2BE901E6CFC55AD0E0C15DDE4FC881B2
:1015E000D0E0D0641FCFCE01E4E096958795EA95D0
:1015F000E1F783702C2F26952695237040E2249FD7
:1016000090011124382B8C2F8370C1E0D0E002C0F0
:10161000CC0FDD1F8A95E2F7C22BD32BDC6802CFFB
:10162000DC2FCC27C16FD06AFDCECE018370992705
:1016300021E030E002C0220F331F8A95E2F7C69501
:10164000C69590E2C99FE0011124C22BD32BDA6822
:10165000E9CEDC2FCC27C46FD06AE4CEDC2FCC27B8
:10166000C06FD06ADFCE8C2F8F700E947F0934E06C
:10167000D695C7953A95E1F7CF709C2FEC01D069CC
:10168000D1CEC9E3D0E0CECEC2EED0E0CBCEC6EE16
:10169000D0E0C8CE80911B02882331F010921B024B
:1016A00010921A02109219020895CF93C82F8091B8
:1016B000290282FD0CC080911B028C1741F00E9410
:1016C000340690931A0280931902C0931B02CF91A3
:1016D0000895809590915B03982390935B03089500
:1016E00090915B03892B80935B0308951092100205
:1016F00010920F0210920E02089580912A04909188
:101700002B04892B89F00E94340620911902309114
:101710001A02AC01421B530B81E020912A04309144
:101720002B044217530708F480E0817008958091DC
:101730000D02811110920D02089520910C029091DA
:10174000CB01291302C080E0089530E0F90153E095
:10175000EE0FFF1F5A95E1F7E453FE4F51815613E8
:1017600006C05081581303C05281541304C02F5F28
:101770003F4F2770E6CF81E0089580910C02909151
:10178000CB01981301C008958F5F8770FACF9E3FF9
:1017900049F1E82F2CE0929FE00D11249E2F9770C5
:1017A000E695E695E69583E0E89FF0011124EF5475
:1017B000FE4F50E040E080E0219130E0092E02C071
:1017C000369527950A94E2F721703327042E01C03D
:1017D000220F0A94EAF7822B4F5F5F4F4330510587
:1017E00059F7089580E008959E3F69F1E82F2CE0B5
:1017F000929FE00D11248E2F877041E001C0440FAD
:101800008A95EAF7E695E695E69583E0E89FF0018C
:101810001124EF54FE4F30E020E070E05191DF01E1
:101820001197CB01022E02C0969587950A94E2F794
:10183000817081958527842385278C932F5F3F4F67
:101840002330310559F7089592959F70963091F0A5
:1018500058F4925F9F70923058F4803F19F030F442
:10186000883E30F481E008959A5FF4CF843FD1F34D
:1018700080E00895883EB0F3813FD1F7F3CF9C011B
:101880003A9521153F4150F5FC01EE27F170BC015E
:1018900066277270AC01442754709C01222738706F
:1018A00094FF0EC080E1EF2B09F480E0672B09F074
:1018B0008062452B09F08064232B89F080680895AD
:1018C00081E0EF2B09F480E0672B09F08260452B63
:1018D00009F08460232B19F08860089580E0089552
:1018E0008093580470935A04609359048091710452
:1018F0008430F9F48093E9008FEF9091E8008150F3
:1019000095FD06C095ED9A95F1F700008111F5CF90
:101910008091E80085FF0DC050E040E063E070E09A
:1019200088E594E00E94BF048091E8008E77809360
:10193000E8000895BC0184E00C94700CBC0183E0C5
:101940000C94700C9C0184E08093E9009FEF8091DF
:10195000E800915085FD06C085ED8A95F1F70000FD
:101960009111F5CF8091E80085FF0CC050E040E078
:1019700066E070E0C9010E94BF048091E8008E77A4
:101980008093E8000895CF93DF93EC0181E080938A
:10199000E9008FEF9091E800815095FD06C095ED2C
:1019A0009A95F1F700008111F5CF8091E80085FF4D
:1019B00014C050E040E068E070E0CE010E94BF0437
:1019C0008091E8008E778093E80088E0FE01AEE524
:1019D000B4E001900D928A95E1F7DF91CF910895DF
:1019E00081E08093E00080E28093D8001092C900EB
:1019F0008FE19EE40197F1F700C0000087E090EBD3
:101A0000DC018093740490937504A0937604B093E2
:101A1000770488E19CE00FB6F894A8958093600065
:101A20000FBE90936000FFCF019708F40895EFE98F
:101A3000FFE03197F1F700C00000F6CF809102037C
:101A400080FD0AC0E3E6F2E0118210821282339632
:101A500053E0E230F507C1F76A9A3EB13B7F2EB101
:101A600024604FB7F89483E692E0FC015191CF01D6
:101A700068E02EB9000000C057FF3EB9550F0000C6
:101A800000C000C000C03EB900C06A9591F7F3E005
:101A900082309F0751F74FBF8FE594E00197F1F730
:101AA00000C000000895EF92FF920F931F93CF9311
:101AB000DF938C01C3E6D2E0F12CE12CF801948194
:101AC0006091040380910303FAE1EF16F10414F529
:101AD000992311F140910503453B08F044EB9E0129
:101AE0000E9426072FEFE21AF20A239685E3E816F2
:101AF000F10421F70E941E0DF801848190E0019607
:101B0000817099278483DF91CF911F910F91FF906E
:101B1000EF9008959923F1F29E0140E0E1CF8F927A
:101B20009F92AF92BF92CF92DF92EF92FF920F936C
:101B30001F93CF93DF93EC014C81042F10E09801A9
:101B4000D8010E9411349B01AC010E9427344B0143
:101B50005C01E0E2F0E0E01BF10BA5E5B0E0AC01D8
:101B60009B010E9427346B017C019F01DF010E94D1
:101B700009349B01AC010E9432349B01AC01280D59
:101B8000391D4A1D5B1DC701B6010E94DA33F22ED2
:101B9000822F90E039E23F1508F43EC043E0249FD5
:101BA0009001112435952795122F109593E6C92E93
:101BB00092E0D92E00E085E5E82EEF188E2D01FD8C
:101BC0008F2D412F153B08F044EB960160910403E3
:101BD0000E9426070F5F53E0C50ED11C053371F735
:101BE0000E941E0D9C8181E0992319F0903219F416
:101BF0008FEF8093190180911901890F8C83DF91F8
:101C0000CF911F910F91FF90EF90DF90CF90BF90F9
:101C1000AF909F908F90089525E530E0A901481B73
:101C2000590BCA019A01220F331F280F391F37FFA2
:101C3000B9CF2F5F3F4FB6CF0F931F93CF93DF9353
:101C4000C3E6D2E0FE01118210821282339683E055
:101C5000E230F807C1F710E000E080916102082E41
:101C6000000C990B08171907A4F180911801082E90
:101C7000000C990B8017910764F140910503453BD7
:101C800008F044EB9E0160910403809103030E94DD
:101C900026070F5F1F4F239605331105F1F60E94AB
:101CA0001E0D8091170190916102980F909361022F
:101CB00020911801280F20931801121614F4943360
:101CC0001CF0819580931701DF91CF911F910F91A7
:101CD0000895198218821A82DCCFBF92CF92DF92C8
:101CE000EF92FF920F931F93CF93DF93FC018281BA
:101CF000DD24DA9480FD02C0DD24D39403E612E0F3
:101D0000D0E0C0E025E3B22EF801118210821282E9
:101D100094E0E92EF12CC12C809160028C0D863369
:101D20000CF440C06B2D0E94A433892F082E000CA8
:101D3000990B8C179D07A9F4809105038E9DA00136
:101D40008F9D500D11245595479555954795453BC9
:101D500008F044EB980160910403809103030E9412
:101D60002607CD0CF1E0EF1AF108B1F621960D5FD0
:101D70001F4FC533D10541F60E941E0D80916002B0
:101D800091E0D91215C0811111C084E380936002E3
:101D9000DF91CF911F910F91FF90EF90DF90CF9047
:101DA000BF90089587FFC2CF8B5CC0CF8150EECF2C
:101DB00090E00196BE010E94C633E8CFEF92FF92F9
:101DC0001F93CF93DF93EC0183E6E82E82E0F82E99
:101DD00010E040910503453B08F044EB8C819701EE
:101DE00060910403810F0E9426071C5F83E0E80EC8
:101DF000F11C143D71F70E941E0D9A818C8190FF99
:101E000008C08F5F8C83DF91CF911F91FF90EF907F
:101E100008958150F7CF9091020390FF0CC0E3E644
:101E2000F2E0818360834283339693E0E230F907E6
:101E3000C1F70C941E0D08950F931F93CF93DF935A
:101E400000D00F92CDB7DEB78C0180916202811174
:101E50000AC09E012F5F3F4F44EB6FEF0E942607A1
:101E60008A8180936202F8016481613069F0809117
:101E7000620240E0662361F040E0623011F440917C
:101E8000620280E060E004C06091620240E080E0B5
:101E90000E940B0FF801848190E0019663E070E0EE
:101EA0000E94C63384830F900F900F90DF91CF91E3
:101EB0001F910F910895CF93DF9300D00F92CDB76C
:101EC000DEB79091020390FF0DC0453B08F044EB54
:101ED0009E012F5F3F4F0E9426074B8169818A81B7
:101EE0000E940B0F0F900F900F90DF91CF910895EC
:101EF000CF93DF93EC01E2E0F3E0438162818C81D8
:101F00000E945B0F8C818F5F8C83DF91CF9108954E
:101F1000CF93DF93EC01EC81F0E0EA57FB4F449163
:101F2000E2E0F3E0628181810E945B0F8C818F5F30
:101F30008C83DF91CF9108950F931F93CF93DF93FD
:101F400008E214E0C7EAD1E0CE010E948934F8012A
:101F500081938F012196C93CF1E0DF07A9F7CCE01E
:101F6000D7E0FE0185919491009711F0FC0109954D
:101F70002896F7E0C43ADF07A1F7DF91CF911F91D0
:101F80000F9108950F931F93CF93DF93843030F513
:101F9000643020F54C3010F5C42FD0E0CC0FDD1F9D
:101FA00028E1629FC00DD11D112430E6839FC00D32
:101FB000D11D1124CE0187960E948934082F10E08C
:101FC000102F0027CE0188960E9489349801282B73
:101FD000C901DF91CF911F910F91089590E080E0AA
:101FE000F8CF462F2091590330915A03232B49F4FF
:101FF000843038F4743028F46C3018F4672F0C9463
:10200000C20F90E080E00895CF92DF92FF920F938D
:102010001F93CF93DF936C010091720480911C0297
:10202000082BC7E0D0E010E0FC2EC8010C2E02C047
:10203000959587950A94E2F780FD0CC02197A0F74B
:10204000F12C8F2DDF91CF911F910F91FF90DF9099
:10205000CF900895B6018C2F0E94F10F0E94C20903
:10206000019761F3EECFCF93DF93EC010E94041050
:10207000BE010E94F10FDF91CF910C94C209FC01C7
:1020800086819781009721F00E94C2090C94240C4C
:10209000808191810E943310F9CF1F93CF93DF93FA
:1020A00000D000D00F92CDB7DEB749835A83898123
:1020B0009A816623B9F02223A9F00E940410182FF8
:1020C000682F89819A810E94F40B69817A81812F1E
:1020D0000F900F900F900F900F90DF91CF911F9165
:1020E0000C94F10F0E94C70B182FEFCFFC01262F85
:1020F00086819781009739F4408151816281738193
:1021000084810C944D10089583E290E00E948934FC
:10211000883989F484E290E00E9489348F3E59F432
:1021200085E290E00E94893491E08B3E09F090E0D6
:10213000892F8170089580E0FCCFCF9384E090E0F8
:102140000E948934C82F82E290E00E948934982F3F
:102150008C2FCF9108950F931F93CF93DF9308E2B5
:1021600014E0C7EAD1E0CE010E948934F801619100
:102170008F01681719F0CE010E949D342196C93C49
:10218000F1E0DF0781F7DF91CF911F910F91089563
:10219000E8E2F4E0128E138E8FEA90E09183808360
:1021A00085E0848F88E893E1938382838AE090E0DE
:1021B0009583848324E130E03783268348E050E030
:1021C00051874087938782872EE130E035872487C7
:1021D0009787868720E530E0318B208B538B428BAD
:1021E00048E250E0558B448B42E350E0578B468BDE
:1021F00048EC50E0518F408F158E978F868F31A31A
:1022000020A30E94AB100C949C0FCF93DF93C9E1E5
:10221000D2E060E0CE010E949D342196C11584E099
:10222000D807B9F7DF91CF9108950F931F93CF93FC
:10223000DF938901843048F5643038F54C3028F557
:1022400021153C4531F42091570330915803232B3D
:10225000E1F0C42FD0E0CC0FDD1F98E1699FC00DE5
:10226000D11D112490E6899FC00DD11D1124612F2D
:10227000CE0187960E949D34602FCE018896DF9113
:10228000CF911F910F910C949D34DF91CF911F91AD
:102290000F910895CF93C82F6FEF811168E983E202
:1022A00090E00E949D346FEFC1116FEE84E290E0E8
:1022B0000E949D346FEFC1116BEE85E290E0CF91EB
:1022C0000C949D347F928F929F92AF92BF92CF9247
:1022D000DF92EF92FF920F931F93CF93DF93CDB7CF
:1022E000DEB72A970FB6F894DEBF0FBECDBFA09021
:1022F0005703B090580381E090E090935803809387
:10230000570386E8C82E85E0D82E00E0760110E05D
:1023100015C0F40125913491472D612F802F0E9423
:10232000151182E0880E911C73949CE07912F1CF14
:10233000E8E1EE0EF11C1F5F143019F04701712C1B
:10234000E8CF0F5FF0E6CF0ED11C0430F9F60E9403
:10235000C810CE0101967C018AE0F70111928A959E
:10236000E9F709EC11E04AE050E0B801C7010E942A
:10237000C134065F1F4F0931F2E01F07A1F7B09289
:102380005803A09257032A960FB6F894DEBF0FBEEB
:10239000CDBFDF91CF911F910F91FF90EF90DF9014
:1023A000CF90BF90AF909F908F907F90089580E0E6
:1023B0000E944A1160E086E290E00E949D340E94F3
:1023C00062110E94051181E00C944A11CF92DF92B4
:1023D000EF92FF920F931F93CF93DF93CDB7DEB7AA
:1023E0002A970FB6F894DEBF0FBECDBFE7E0F3E04B
:1023F00080E5DF011D928A95E9F7E4EEF3E088E3DA
:10240000DF011D928A95E9F787E0C82E83E0D82E78
:102410007F0109EC11E0F701D182C0824AE050E06F
:10242000B801CE0101960E94793488E0FE01319610
:10243000D60101900D928A95E1F789859A85D70199
:1024400013969C938E931297BAE0CB0ED11CE7E0C3
:10245000EE0EF11C065F1F4F0931F2E01F07D9F69F
:102460002A960FB6F894DEBF0FBECDBFDF91CF9195
:102470001F910F91FF90EF90DF90CF9008956091A2
:102480000203669570E04BE050E08CE091E00E9422
:102490004F34892B19F481E080935F020E94340647
:1024A00090935902809358020895CF92DF92EF9251
:1024B000FF926B017C010E941007B701A60188E022
:1024C00090E0FF90EF90DF90CF900C94AF345F924C
:1024D0006F927F928F929F92AF92BF92CF92DF9234
:1024E000EF92FF920F931F93CF93DF9300D00F9241
:1024F000CDB7DEB7082F762E142F622E90910203EF
:1025000090FF2DC0E92FE695AE2FB0E0A059BE4F49
:102510008C9180935E029E7F9230A1F5453B08F03E
:1025200044EB9E012F5F3F4F672D802F0E942607AF
:102530004B8169818A810E940B0F00930303709283
:10254000040310930503662051F06091020370911B
:10255000030380910403909105030E9455120F908C
:102560000F900F90DF91CF911F910F91FF90EF90FF
:10257000DF90CF90BF90AF909F908F907F906F90A3
:102580005F900895823019F410910503D6CF8630FC
:1025900019F400910303D1CF8930D9F3893169F659
:1025A000E9518E2F8170582EE695F0E0EF57FB4FE2
:1025B000A590B490BB2483E6E82E82E0F82ED12CBF
:1025C000C12C95E3892E912CC601B4010E94B2332F
:1025D000802F511016C0860F412F153B08F044EB99
:1025E0009701672D0E942607CA0CDB1C83E0E80ECA
:1025F000F11C82E0E81683E0F80631F70E941E0D18
:102600009CCF861BE9CFE2E0F3E0438128E0421B48
:1026100008F440E021E0628181810C946712E2E0DD
:10262000F3E0438128E0420F08F44FEF21E062819C
:1026300081810C946712E2E0F3E0628128E0621B82
:1026400008F460E021E0438181810C946712E2E0AC
:10265000F3E0628128E0620F08F46FEF21E043812C
:1026600081810C946712E2E0F3E0818121E04381F3
:10267000628188500C946712E2E0F3E0818121E0EE
:1026800043816281885F0C946712809106038823DE
:1026900019F0815080930603609102037091030347
:1026A00080910403909105030C94551280910603C8
:1026B000833018F48F5F809306036091020370915A
:1026C000030380910403909105030C94551290919B
:1026D000020390FF36C09170811129C092609093DF
:1026E0000203662351F0609102037091030380910D
:1026F0000403909105030E945512609102036695B0
:1027000070E04BE050E08CE091E00E944F34892B68
:10271000A9F010925F0281E080935B0220E040917B
:10272000050360910403809103030C9467128532C2
:1027300010F09864D4CF880F982BD1CF0E943F120D
:10274000EACF0895809102038695815009F484E2CE
:1027500061E00C9467138091020386958F5F853248
:1027600008F081E061E00C9467139091020390FF00
:1027700007C09695981720F0961710F40C94AB1399
:1027800061E00C946713E2E0F3E083E08083118260
:102790008FEF828384EB83831482608171818281D5
:1027A00093810C94551269EE7EEF90E080E00E94D8
:1027B000BB3460E082E090E00E949D3460E083E002
:1027C00090E00E949D3410921C0260E084E090E052
:1027D0000E949D3460E082E290E00E949D3460E0BF
:1027E00085E090E00E949D3460E086E090E00E94E9
:1027F0009D346FEF87E090E00E949D3440E050E010
:10280000BA0188E090E00E94AF3460E08DE090E093
:102810000E949D3440E050E0BA0188E190E00E94BF
:10282000AF3460E087E190E00E949D3440E050E0EA
:10283000BA018CE190E00E94AF3470E060E080E289
:1028400090E00E94BB3440E050E0BA0188E190E0A3
:102850000E94AF3480E00E944A110E94D71140E0EC
:1028600050E0BA018FE090E00E94AF3440E050E0C9
:10287000BA0183E190E00C94AF348F929F92AF92B3
:10288000BF92CF92DF92EF92FF920F931F93CF935D
:10289000DF93CDB7DEB728970FB6F894DEBF0FBE33
:1028A000CDBF8E010F5F1F4F88E0F80111928A950E
:1028B000E9F790E6E92E91E0F92E6801AA24A394A5
:1028C000B12CF70181917F018F3F09F446C0F89444
:1028D000E82FE295EF70F0E021A18F70A50102C012
:1028E000440F551F8A95E2F7CA01922F982B91A3A6
:1028F00092A18095892382A3789400C0E4E6F1E058
:1029000021E030E0912C812C41914F3F09F479C0B6
:10291000A42FA295AF70B0E090968C9190E04F708C
:1029200002C0959587954A95E2F780FD6AC0C90176
:10293000882A992A220F331F51E0E037F50721F743
:10294000F701319780818F3F11F00E94680980EA7A
:102950008A95F1F7F60191828082F2E0CF0ED11CC8
:1029600044E6E41641E0F40609F0ABCF48E050E05D
:10297000B80180E292E00E945C34FF24F394009757
:1029800009F4F12C892B09F43FC088E0F801A0E29A
:10299000B2E001900D928A95E1F781E080931F02E9
:1029A0000E94340690931E0280931D0280911D02A6
:1029B00090911E020E942506059750F180912002F9
:1029C00090912102909344028093430280912202CD
:1029D00090912302909346028093450280912402B5
:1029E000909125029093480280934702809126029D
:1029F0009091270290934A028093490210921F02FD
:102A000007C090E080E094CF80911F028111CECF6B
:102A10008F2D28960FB6F894DEBF0FBECDBFDF9185
:102A2000CF911F910F91FF90EF90DF90CF90BF90CB
:102A3000AF909F908F90089580915B039091730465
:102A4000892B8093A60180911B02882309F1809134
:102A50002A0490912B04892B29F00E947D0B81116F
:102A60000E944A0B8091A60190911B02892B8093B2
:102A7000A60120E088EA91E0FC013191CF013111FB
:102A80002F5FF1E08E3A9F07B9F721110E944A0BA0
:102A900048E050E061E172E086EA91E00E945C3437
:102AA000892BA9F088E0E6EAF1E0A1E1B2E001902B
:102AB0000D928A95E1F7E0914F04F0915004309720
:102AC00031F00280F381E02D86EA91E009940895C7
:102AD00080912401877F80932401909173049D7FCE
:102AE0009093730484FF06C08F7E8093240182E05C
:102AF0000E94700B8091240185FF06C08F7D80931A
:102B0000240180E20E94700B0C941C1590E080E080
:102B10000E94700690E080E00E945A0610927304B2
:102B20000E941C1586E0E2E5F2E0DF011D928A9525
:102B3000E9F710924C0210924B0210924D020C9445
:102B4000BC07809372040C94861580917204982FB0
:102B50009670963019F488600C94A115877FFCCF8D
:102B600021E030E001C0220F8A95EAF7209580919C
:102B7000720482230C94A1159091100280958923F0
:102B800080931002282F277091F4282F082E000C14
:102B9000330B9217130659F09091290292FD07C04A
:102BA0008595859585950E94B0150C94760B0895B2
:102BB000CF93C0912902C2FB992790F9981799F0F9
:102BC00080FBC2F9C09329026091280284E090E062
:102BD0000E949D346C2F82E290E00E949D3482E03E
:102BE000CF910C94BC15CF91089521E030E001C045
:102BF000220F8A95EAF780917204822B0C94A1151A
:102C00009091290292FD10C098E0899F90011124B3
:102C1000622B609310020E94F5150E943406909377
:102C20000F0280930E0208950C94F51580931C02F8
:102C30000C94861510925B03E8EAF1E086E0DF0170
:102C40001D928A95E9F70C9486151F93CF93DF9315
:102C5000CDB7DEB7AA970FB6F894DEBF0FBECDBFD3
:102C600089E694E02091F100DC012D93CD01B4E0E0
:102C700081379B07B9F780916A04833009F472C0E9
:102C8000B8F4813009F449C0823009F4B3C08091AE
:102C9000E80083FF96C28091690490916A049A309B
:102CA00008F08FC2E92FF0E0E552FB4C0C94FC33A6
:102CB0008A3009F48EC08B3009F471C0893039F73D
:102CC00080916904813219F780916D0490916E04AE
:102CD000009711F00297D9F68091E800877F8093E2
:102CE000E8008091E80082FF38C09091F300809165
:102CF000F200029731F48091F100813011F08630BA
:102D000021F48091F10080935D048091E8008B773D
:102D10008093E8000E941105BACF80916904813A3E
:102D200009F0B5CF8091E800877F8093E80080911B
:102D30006D0490916E04892B61F468E08EE594E057
:102D400070E00E94C3058091E8008B778093E800D3
:102D50009ECF60E090E080E0F3CF8091710481111C
:102D6000C0CF95CF80916904813A09F090CF8091CE
:102D70006D0490916E04892B09F089CF8091E80051
:102D8000877F8093E8008091E80080FFFCCF8091EE
:102D900026018093F1008091E8008E77B9CF809171
:102DA0006904813209F073CF80916D0490916E04B3
:102DB000892B09F06CCF8091E800877F8093E80031
:102DC0000E94110580916B04809326010E941A16BF
:102DD0005ECF80916904813209F059CF8091E8007B
:102DE000877F8093E8000E94110580916C04809396
:102DF0005C044DCF80916904813A09F048CF8091FD
:102E0000E800877F8093E8008091E80080FFFCCF96
:102E100080915C04BECF803899F0823809F0D1C12E
:102E200080916D048F70873008F0CBC18093E900EA
:102E30008091EB0085FB882780F91092E90006C09D
:102E40008091660490916704911182609091E800EE
:102E5000977F9093E8008093F1001092F1008091A9
:102E6000E8008E77AAC1882309F498C1823009F05E
:102E7000A8C180916B0481119BC180916D048F70FA
:102E80002FEF280F263008F09CC18093E900209195
:102E9000EB0020FF8DC1933031F48091EB00806214
:102EA0008093EB0085C19091EB0090619093EB00D3
:102EB00021E030E001C0220F8A95EAF72093EA0072
:102EC0001092EA008091EB008860EACF811179C10D
:102ED00010916B041F778091E3008078812B8093A1
:102EE000E3008091E800877F8093E8000E9411054D
:102EF0008091E80080FFFCCF8091E30080688093A0
:102F0000E30082E0111183E0809371045AC180587C
:102F1000823008F056C120916B0430916C042C3D36
:102F2000E3E03E07A1F583E08A838AE289834FB715
:102F3000F894DE01139620E03EE051E2E32FF0E04A
:102F400050935700E49120FF03C0E295EF703F5F7C
:102F5000EF708E2F90E0EA30C0F0C7968D939D936E
:102F60002F5F243159F74FBF8091E800877F80930E
:102F7000E8006AE270E0CE0101960E94C3058091EC
:102F8000E8008B778093E8001CC1C096E7CF809162
:102F90006D0490916E04432F55274330510509F479
:102FA0004AC078F54130510509F485C08BE590E0C1
:102FB000EEE9F7E04230510509F003C12091E80045
:102FC000277F2093E80020916F04309170048217CE
:102FD000930708F49C0140E02115310509F070C009
:102FE00041116EC08091E80082FDC9CF80917104CB
:102FF000882329F2853019F28091E80083FFF2CF0F
:10300000BECF4132510509F447C04232510509F0A3
:10301000D8C08330910508F0D4C0FC01EE0FFF1F2B
:10302000E856FE4F0190F081E02D8B569E4FDC015B
:103030008C9190E01DC0332721303105E9F0211536
:10304000310579F022303105F9F02330310509F0EE
:10305000B8C0EBE0F8E0E4918E2F90E0EBE0F8E010
:1030600007C0E5E6F8E0E4918E2F90E0E5E6F8E0B1
:10307000009709F4A6C0A2CFEDE4F8E0E4918E2F0A
:1030800090E0EDE4F8E0F4CFE9E2F8E0E4918E2F8F
:1030900090E0E9E2F8E0ECCF8330910508F091C0D0
:1030A000880F991FFC01E256FE4F0190F081E02D40
:1030B00089E090E083CF82E190E0E9EFF7E07ECF16
:1030C00080917104882309F45ACF853009F457CFD1
:1030D0008091E80083FD53CF8091E80082FD82CF8C
:1030E0008091E80080FF78CF9091F3008091F2000A
:1030F0002115310519F08830910550F041E008970D
:1031000009F040E08091E8008E778093E80064CF7A
:1031100044914093F1003196215031090196E8CF56
:10312000803809F04EC08091E800877F8093E800E6
:10313000809168048093F10092CE811142C0109179
:103140006B041230F0F58091E800877F8093E800EF
:10315000109368040E941105112311F084E005C04A
:103160008091E30087FDFACF81E08093710442E013
:1031700061EC81E00E94300542E261EC84E00E9453
:10318000300542E261EC82E00E94300542E260ECF0
:1031900083E00E9430058091710413C080916B041C
:1031A000813079F481E0933009F080E08093670406
:1031B0001092E9008091E800877F8093E8000E94E8
:1031C00011058091E80083FF0AC08091E800877FA5
:1031D0008093E8008091EB0080628093EB00AA96D8
:1031E0000FB6F894DEBF0FBECDBFDF91CF911F9118
:1031F0000895882341F080959091730489238093EA
:1032000073040C941C150895882339F0909173046D
:10321000982B909373040C941C150895882321F027
:103220000E94690B0C941C150895882321F00E94BC
:10323000700B0C941C1508958823B1F19CEF980F26
:10324000913A70F4E8EAF1E09191891303C0DF014B
:1032500011971C9291E0EE3AF907B1F70C941C1506
:1032600090E2980F983050F4877091E001C0990F68
:103270008A95EAF7892F0E94690BF0CF9BE5980F9A
:10328000933020F490E080E00C94700698E5980F5D
:10329000973120F490E080E00C945A06803F20F0B3
:1032A0000E94E3070C94BC070895CF93DF93EC01D1
:1032B0000E941C19CE010E943F0C9E01205E310924
:1032C0002830310510F0CD2B21F4DF91CF910C94F3
:1032D0000E19DF91CF910C94F918CF93C82F882342
:1032E00009F452C08CEF8C0F813AF8F4E8EAF1E06F
:1032F0008EEA91E0DF012D91C21759F08A179B07E2
:10330000D1F76C2F86EA91E00E944006CF910C9491
:103310001C152191C21303C0DF0111971C928E1757
:103320009F07B9F70E941C15ECCF80E28C0F883004
:1033300048F4C77081E001C0880FCA95EAF70E947F
:10334000700BE4CFEBE5EC0FE33040F4F0E0E15D2F
:10335000FE4F808190E0CF910C947006E8E5EC0F71
:10336000E73150F4F0E0EE0FFF1FEE5CFE4F80817E
:103370009181CF910C945A06C03F30F08C2F0E945F
:10338000FE08CF910C94BC07CF910895CF93DF93A3
:10339000EC01662329F080917304826080937304AA
:1033A000CE019056811520E2920720F0905E8115A3
:1033B000904108F4DD27CE010E943F0C9E01205E63
:1033C00031092830310510F0209739F40E94151981
:1033D0008C2FDF91CF910C946D190E940419F8CFB6
:1033E000DF92EF92FF920F931F93CF93DF937C01B5
:1033F0008B01D42E8091240182FF8CC0C0917E036A
:10340000D0917F03CE15DF0521F0E114F10409F01E
:1034100081C0809124018B7F8093240181FD73C042
:1034200080917C0390917D03A801481B590B81E09A
:1034300020912201309123014217530708F480E0C4
:103440008170F82E80912401F0FA81F98093240193
:10345000FE0183E0F695E7958A95E1F7EE71FF2787
:10346000E45AFC4F20813181AE014F70552781E035
:1034700090E002C0880F991F4A95E2F7FF2009F4F7
:1034800044C0822B932B9183808380915B0381FFC7
:1034900008C08091240180618093240182E00E9411
:1034A000690B80915B0385FF08C0809124018062D5
:1034B0008093240180E20E94690B6F2DCE010E944F
:1034C000C619DD2031F08091430485FF02C086FFDC
:1034D0003BC080914604909147040E94140D809156
:1034E0007E0390917F039C013056211540E2340702
:1034F00020F0305E2115304108F499270E945519BB
:103500000E9468151DC081E09BCF80959095822315
:103510009323B9CFC701992797013056211540E26F
:10352000340728F0305E2115304108F0C7010E94B1
:10353000551980917E0390917F038E159F0501F3AD
:1035400010937D0300937C03DF91CF911F910F9126
:10355000FF90EF90DF9008951F93CF93DF93182F84
:10356000C0914804D0914904893321F0C0914604A8
:10357000D0914704812F0E946D19209731F4812F3B
:10358000DF91CF911F910C941C198FE99FE0019757
:10359000F1F700C000002197F0CF0F931F93CF9356
:1035A000DF93C42FD22FFC0182818823A1F04093A6
:1035B0004C040E94340690934B0480934A04C770D5
:1035C00081E001C0880FCA95EAF7DF91CF911F9182
:1035D0000F910C94151910914C04141339C080915B
:1035E0004A0490914B040E9425062091400430919A
:1035F00041048217930760F5C0E2CD0F1D17B9F0A3
:1036000080E2810F883040F4177081E001C0880F9C
:103610001A95EAF70E940E19C83048F481E09D2FF0
:10362000977001C0880F9A95EAF70E941519802FAC
:103630000E94AC1AC83098F4D77081E001C0880F9E
:10364000DA95EAF7DF91CF911F910F910C940E1943
:10365000C77081E001C0880FCA95EAF7F3CFDF9108
:10366000CF911F910F910895AF92BF92CF92DF92A9
:10367000EF92FF920F931F93CF93DF93EC018AE0B9
:10368000A82E2881222309F48CC02130C9F5998104
:103690008A81913021F422960E94AC1A05C09230A2
:1036A00029F422960E946D192196EBCF933021F4D4
:1036B00022960E941C19F8CF943011F02196F4CF75
:1036C000229630E020E0AE014F5F5F4F8053990BB0
:1036D0008A30910550F02150310930F38FE99FE095
:1036E0000197F1F700C00000F6CFA29EB001A39EA3
:1036F000700D11249C01260F371F8981EA01E3CF49
:10370000E22FF0E0E154FE4FB490822F869586952B
:10371000869590E0FC01E155FE4FE4902770F12C76
:10372000022E02C0F594E7940A94E2F731E0E32216
:10373000FF24FC01E156FE4FC490D12C022E02C0A2
:10374000D594C7940A94E2F731E0C322DD24FC014A
:10375000E157FE4F049110E002C0159507952A9598
:10376000E2F701701127E114F10419F081EE0E94D3
:103770006D19C114D10419F086EE0E946D198B2DBC
:103780000E94AC1ACD2819F086EE0E941C19EF2871
:1037900019F081EE0E941C19012B09F485CF8CE2EF
:1037A0007BCFDF91CF911F910F91FF90EF90DF9032
:1037B000CF90BF90AF9008958F929F92AF92BF929B
:1037C000CF92DF92EF92FF920F931F93CF93DF93ED
:1037D00000D000D0CDB7DEB77C01FC01438154811D
:1037E000618180810E94920681112AC061E0C70137
:1037F0000E9476108C01F7018281882309F44CC75E
:10380000C80182519F45409708F0E1C68FEF93E0D1
:103810000E9489345EEED52ED00E09E112E0882395
:1038200061F180911002877059F0F701828188233D
:1038300039F08091290282FD03C082E00E94BC150C
:103840000F900F900F900F90DF91CF911F910F91DC
:10385000FF90EF90DF90CF90BF90AF909F908F90B0
:1038600008950115F4E01F07E1F2C8010E948934B0
:10387000811101C0DA940F5F1F4FD110F2CF19826E
:103880001A821B821C82CC24CA9448012FEF821A10
:10389000920AC8010E94893489831A82882309F414
:1038A000C0CF813009F048C0580132E0A30EB11CEE
:1038B000C4010E948934982E8A83882309F4B1CFE9
:1038C000C5010E948934D82E8FEF890D833068F4AA
:1038D000580143E0A40EB11CDB82DD2021F0CE01B3
:1038E00001960E94341B8501D0CF54E09512FBCF86
:1038F000580184E0A80EB11CC80103960E948934C7
:10390000DD2009F48ECF882309F48BCF8150990BE9
:10391000C89E9001C99E300D1124ED2DE150FF0B82
:10392000CF01820F931F0197F0F2EFE9FFE031978B
:10393000F1F700C00000F7CFCE0101960E94341BC2
:103940005401D1CF81E00E94F5150E94A51569CFE1
:1039500081E00E94B015F9CF82E0F5CF809124017B
:103960008160809324016AC6809124018E7F8093B8
:1039700024010E94681562C6809124018F7E013E59
:10398000110531F0053E1105C1F4809124018F7DB0
:10399000809324018091240180FF5FC6F70182811A
:1039A0000832110528F50E31110508F074C00430F5
:1039B000110580F581114DC650C6C801905681157C
:1039C000E0E29E0720F0905E8115904118F780910B
:1039D000240182FF42C68091450481FD3EC626E354
:1039E00032E040E0B60190E080E00E94F01935C678
:1039F0000933110558F40D32110518F40B32110575
:103A0000C9F69091430492FDD5CF08C00436110544
:103A1000C1F3D0CF9091430494FDCCCF882309F417
:103A2000A1C090915B0380911B02282F292B322F7C
:103A30003D7FB1F110927F0310927E0330914304D9
:103A400031FD2EC0F80143E0F695E7954A95E1F780
:103A5000EE71FF27E45AFC4F98012F70332781E065
:103A600090E002C0880F991F2A95E2F78095909503
:103A700020813181822393239183808360E0C80178
:103A80000E94C61980911B028D7F0E94550B82E017
:103A90000E94BC15C6CE9091430493FD8BCFBECF40
:103AA00038E0F701A6E3B2E001900D923A95E1F714
:103AB0001092380210923A0210923902A0907E03BE
:103AC000B0907F030A151B05B1F53091430435FF13
:103AD00032C04091240141FB992490F841FF02C07B
:103AE00036FF29C040917C0350917D03B601641BD1
:103AF000750B409140045091410464177507D8F448
:103B000091FF08C08091240180618093240182E0AC
:103B10000E94690B80915B0385FF08C0809124019E
:103B200080628093240180E20E94690B692DC501A7
:103B30000E94C61976CE9091240121FB91F99093B1
:103B400024018D7F0E94550B10937F0300937E0309
:103B5000D0927D03C0927C03809124018460809385
:103B6000240195CF970140E0B601C8010E94F019E9
:103B700058CE053F8CE5180709F465C008F45DC010
:103B8000063FECE51E0709F464C0F70132813323D8
:103B900009F48EC510924C040330FDE51F0708F0B0
:103BA00064C00A3F2CE5120730F4C80182509C45DE
:103BB000449708F064C00E949D109093290280935E
:103BC000280201318CE5180709F450C108F0C9C07A
:103BD0000930ECE51E0709F437C108F098C005303C
:103BE0002CE5120709F428C108F07EC003304CE52B
:103BF000140709F419C108F01BC102301C4509F46F
:103C00000DC1609128021091290284E090E00E9489
:103C10009D34612F82E290E00E949D340E941A162A
:103C200000CE07E225EE45EE68ED7CE531C506E203
:103C300021EE40EE63EF7CE52BC507E225EE44EE76
:103C400064EF7CE525C506E221EE42EE65EF7CE5FA
:103C50001FC507E225EE46EE66EF7CE519C508E2D2
:103C600021E045EE69ED7CE513C501364DE514070D
:103C700009F4A1CF053A5DE5150709F49CCF06319B
:103C80009CE5190709F0F8C180915B03982F9A7A97
:103C90002091420420FF04C0482F447409F090E0B2
:103CA00021FF04C0482F417109F090E022FF04C0B9
:103CB000482F487809F090E023FF03C0827209F092
:103CC00090E0332309F4FCC081E0911101C080E051
:103CD0008093AE0169E2911165E386EA91E00E946A
:103CE00040060E941C159DCD8091280280620730FD
:103CF0009CE5190709F495C080912802806108307D
:103D00001C4508F48EC08091280280648AC080918E
:103D100028028B7F0D30FCE51F0709F482C098F460
:103D2000809128028E7F0B303CE5130709F479C09F
:103D3000809128028C600C301C4508F472C0809180
:103D400028028D7F6EC0809128028F7E0F305CE547
:103D5000150709F466C008F47DC0809128028F7DA4
:103D600060C00D3F9CE5190709F47CC050F5053192
:103D7000FCE51F0709F484C098F480912802837F32
:103D800003313CE5130709F44CC008F473C00E94EA
:103D90001A1690912802892F97FB87F9805841C005
:103DA0000B3F5CE5150709F44BC008F057C0809144
:103DB000290281600A3F1C4509F023CF8093290224
:103DC00020CF0130EDE51E0709F466C0B8F48091FC
:103DD00029028C7F0F3F2CE5120781F38091290285
:103DE000836001151D4550F380912902982F90950D
:103DF00091708E7F892B90FB81F9E0CF01364DE5E4
:103E0000140709F44FC0053A5DE5150709F451C0E0
:103E100002301D4509F0F5CE60E03FC080912802D8
:103E2000816080932802EDCE809128028260F9CFD4
:103E3000809128028460F5CF809128028860F1CFBC
:103E4000809129028260BACF0E941A1680912802BE
:103E50008068E7CF80912802877FE3CF8091290295
:103E60008E7FACCF809129028D7FA8CF80912802D0
:103E70008F7BD7CF0E941A16809128028F77D1CFDF
:103E80008091280282FB992790F921E0922790FBEC
:103E900082F990FB83F9C5CF61E08EE090E00E944B
:103EA0009D34AFCE90912802892F8F7E94FF806140
:103EB000B8CF90912802892F8E7F90FF8160B1CF7B
:103EC0008091AE0181110FC089E2E8EAF1E02EEAAB
:103ED00031E09191891303C0DF0111971C922E17D5
:103EE0003F07B9F7FECE85E3F0CF043C9CE5190708
:103EF00009F48FC043E353E16CE373E1053C1C45D7
:103F000009F0F7C30E940A078CCC093CFCE51F07A7
:103F100009F48EC070F4073C3CE5130709F483C034
:103F2000083C1C4509F0E5C347E253E16BE173E14E
:103F3000E9CF0A3C5CE5150709F47FC045E453E18D
:103F400066E573E10B3C1C45E9F2D3C3013DECE5AA
:103F50001E0709F485C0A8F40E3C2CE5120709F4ED
:103F600079C008F474C00F3C4CE5140709F475C01F
:103F70006EE089E0003D1C4509F0BBC30E94B5130B
:103F800050CC043D8CE5180709F470C070F4023D74
:103F9000ECE51E0709F467C061E088E1033D1C45BC
:103FA00009F0A7C30E9467133CCC053D2CE512071E
:103FB00009F45FC00D351D4509F433CC9AC38091D7
:103FC000020380FF1BC08E7F809302036091020377
:103FD0007091030380910403909105030E94551290
:103FE00010925F024FEF50E782E041505040804016
:103FF000E1F700C000000E941E0D13CC8160809389
:10400000020361E08695CECF42EA53E16BEA73E1A9
:1040100079CF4BEA53E162EA73E174CF4CE353E1A9
:1040200063E373E16FCF4BE153E167E273E16ACF82
:1040300043E053E16FE073E165CF4FE053E163E0AC
:1040400073E160CF46E553E165E473E15BCF61E086
:1040500081E0A8CF65E082E091CF68E086E08ECF76
:1040600064E18FE08BCF67E185E188CF62E289E18F
:1040700085CF61E083E296CF0A359DE5190759F1B6
:1040800058F40115FCE51F07C9F00E3D1C4509F069
:1040900030C30E94D313C5CB0B353DE51307E9F0C0
:1040A0000C351D4509F025C38091290282FB882724
:1040B00080F991E089270E94D8151BC30E941A1627
:1040C0005FEF84E39CE0515080409040E1F700C0F6
:1040D00000000E94F00C81E0EECF80E0ECCF828106
:1040E00000811181882369F0C8010E940410D82E34
:1040F000682FC8010E94F40BB8018D2D0E94F10FAA
:10410000FEC2C8010E94C70BD82EF6CF202F2F70F9
:10411000B22E802F807F19F0B29490EFB922DD206B
:10412000A9F0BB2059F080E2810F883010F0111106
:1041300007C08B2D0E94700B0E941C15812F56C04A
:1041400080917304B82AB0927304F6CF812F0E9435
:104150001C19BB2009F44CC080E2810F883010F09C
:10416000111104C08B2D0E94690B06C0B094809180
:104170007304B822B09273040E941C1539C0302F0A
:104180003F70B32E802F807F803219F0B29480EF81
:10419000B8221123E9F0113009F49CC0DD2009F4A4
:1041A000A5C0CC2009F475C020E0F7014081518101
:1041B0006281738184810E944D108091450481FD4C
:1041C000BDCFF701858180FFB9CF8F70858361C036
:1041D0008091290282FF3FC0DD20B9F1BB2029F088
:1041E0008B2D0E94700B0E941C1580E00E946D199F
:1041F000E92DE850FF0B349710F40E948606812FBA
:10420000902F0E94240C8111C3C11092B001109212
:10421000AF01AA20A9F08091100280FD11C0F70122
:1042200012828595859585950E94F515C7010E9496
:10423000DC1B809110028595859585950E94B015AF
:1042400060E0C7010E947610FBCA80E00E941C1942
:10425000BB2071F287CFDD2001F1C11004C0809135
:104260001B028B2917C041E0C41206C080911B02BB
:104270008B290E94550BBCCF80914404823078F387
:10428000C812EDCF0E944A0B80910D02B812B09275
:104290000D028B2D0E941519ABCFC11006C00E94D4
:1042A0004A0B8B2D0E940E19A3CF8091440451E03C
:1042B000C5120BC0823008F49BCF80915B038B2129
:1042C00009F496CF0E94970BEACF823040F3C812D0
:1042D000E6CF8ECFDD2029F085E08C1508F488CF5D
:1042E000D8CF94E09C1508F483CFDBCFCC20C9F263
:1042F0008091480490914904193321F0809146043B
:10430000909147040E94140D812F0E941C1970CFB8
:10431000802F86958695837069F0813009F068CF8B
:10432000812F902F9370D11002C090E080E00E9406
:104330005A065ECF812F902F9370D11002C090E06B
:1043400080E00E94700654CF812FDD2029F00E946A
:10435000FE080E94BC074CCF0E94E307FACF802FD3
:10436000837091F5D11044CF412F42954695477007
:10437000440F440F812F8F70042E01C0880F0A94C0
:10438000EAF7212F207114FF07C02FE030E001C0B1
:10439000220F4A95EAF72095302F369536953370DF
:1043A000323069F050F440911C02313029F0822BF8
:1043B00084230E9416161CCF842B822BFACF282B25
:1043C00080911C028227F5CF8695DD2011F0802F89
:1043D0008170882309F40CCF412F42954695477090
:1043E000440F440F812F8F70042E01C0880F0A9450
:1043F000EAF7212F207114FF07C02FE030E001C041
:10440000220F4A95EAF72095302F3695369533706E
:10441000323069F050F440917204313029F0822B2F
:1044200084230E94A115E4CE842B822BFACF282B63
:10443000809172048227F5CFF02FFF70BF2EDD2010
:1044400029F08F2F0E94F515812F24CF812F0E94F4
:104450000E198B2D0E94B015CBCE123F89F160F45E
:10446000103FB9F0113F81F0DD2009F48CC0C1107C
:1044700065CE802F8F7128C0133F49F1143FA1F7FB
:104480008091290282FF2FC0802F8F71DD2011F3D0
:104490001BC0DD2081F024E02C1508F4A9CE202FCC
:1044A0002F7181E090E001C0880F2A95EAF7909182
:1044B00072048927B6CF35E03C1508F499CEEFCFCA
:1044C000802F8F71D110C6CF0E94F51591CE80E05C
:1044D000DD2009F4A6CF81E0902F9F7101C0880FE5
:1044E0009A95EAF79ECF809144048230A0F18091A2
:1044F0000D02DD20F1F00E94690B8091100287709F
:10450000843041F40E94760B802F8F710E94B01589
:10451000A12C6ECE80914404C816D0F7402F4F7165
:10452000B42E842F0E94F51563E08B2D0E94001697
:10453000EFCF0E94700B80914404C81640F00E9497
:10454000760B0E94970B64E0802F8F71EFCF81E094
:104550000E94BC15DDCFDD2059F0502F5F71B52EC4
:10456000852F0E94F51563E08B2D0E94001640CE2A
:1045700081E00E94BC1581E08C1508F039CE82E004
:104580000E94BC1535CEC110B3CE802F8F7162CF83
:10459000DD2019F0C11039CE3CCEC11036CE20E05E
:1045A000F701408151816281738184810E944D10A5
:1045B0008091450483FF29CE8091AF019091B00195
:1045C000029709F022CE812F0E94AC1A1ECE003134
:1045D000FFE51F0709F4B6C901312FE5120709F4F9
:1045E000BBC98091430480FF38C00E9434066C012F
:1045F000F7018281882309F4BFC98091240182FFD9
:1046000008C026E332E040E0B60190E080E00E947E
:10461000F0190B31FCE51F0709F4A0C90C312CE59A
:10462000120709F4A1C990912401892F8E7F90FF70
:1046300081600A313CE5130709F499C9C801905615
:10464000811540E2940728F0905E8115904108F0B2
:10465000A1C910927F0310927E03033FFCE51F0760
:1046600009F4E5CA08F085CA083D3CE5130709F4DA
:10467000D8CA093D4CE5140709F4F1CA073D5CE5C9
:10468000150709F082CA06E221EE41EE67ED7CE5EE
:10469000C7010E94CD1AC5C800313FE5130709F4D0
:1046A00057C901314FE5140709F09BCF82E051C98A
:1046B00006315CE5150709F4E7CA80915B03827255
:1046C0000C3CECE51E0709F4BDCC08F03FCC063CE1
:1046D0002CE5120709F4A2CC08F017CC033C4CE5FA
:1046E000140709F491CC08F000CC023C1C4509F4F5
:1046F00066CCF70186819781009709F4F0CC0E947F
:10470000C209182F092FF701D280C580C2943FE05B
:10471000C322809110028770C1F0AD2CDD20B1F072
:10472000892F807F803421F080E2810F883068F00B
:104730008091290282FD09C082E00E94BC1580910F
:1047400010028770AA24A3948111A12C902E929418
:104750002FE09222FBE0F91508F44ACDE92DF0E0B4
:10476000EB51FB4C0C94FC33CF92DF92EF92FF9213
:104770000F931F93CF93DF938091C801807F31F413
:104780008091C501C0910C0281110BC0DF91CF91C6
:104790001F910F91FF90EF90DF90CF900895219699
:1047A000C7708091CB018C1789F3F090C301E09022
:1047B000C401C090C601D090C701A6016E2D8F2DF7
:1047C0000E949206D0E08111EACF8E0183E0000FB3
:1047D000111F8A95E1F7F801E453FE4F81818E1194
:1047E000DECF80818F11DBCF82818111D8CFE38032
:1047F000F480EC18FD0860E083EC91E00E947610F4
:104800008091400490914104E816F90640F68091A9
:10481000C8018F7080618093C801F801EF52FE4F8C
:1048200080818F708061808383EC91E00E94DC1B2B
:10483000DF91CF911F910F91FF90EF90DF90CF907C
:104840000C94BD0B3F924F925F926F927F928F922A
:104850009F92AF92BF92CF92DF92EF92FF920F930F
:104860001F93CF93DF93CDB7DEB765970FB6F8945C
:10487000DEBF0FBECDBF8C0185E0F801DE01519691
:1048800001900D928A95E1F7D8014C9011965C90B9
:1048900011971296EC9012971396CD90DC9060E0F1
:1048A00083EC91E00E94761083ECA82E81E0B82E74
:1048B0008090C6019090C701A4016091C4018091CD
:1048C000C3010E9492068111CAC1F090C501F60190
:1048D000E819F9094F0160E0FF2009F46DC1C50135
:1048E0000E94761060904004709041043090C8019E
:1048F0008614970408F013C14091C6015091C70176
:10490000B090C301A090C401832D807F6A2D09F06F
:10491000ADC08B2D0E949206FE2C81113BC0D801A8
:1049200011968C9111978A1135C08C918B1132C0E0
:104930002091C9013091CA0116968D919C9128173A
:10494000390741F5E11026C0832D8F708061809377
:10495000C80183EC91E00E94DC1B8091C801F80142
:1049600085838F2D65960FB6F894DEBF0FBECDBF41
:10497000DF91CF911F910F91FF90EF90DF90CF903B
:10498000BF90AF909F908F907F906F905F904F906F
:104990003F900895F4EF6F16F1E07F0620F48091C8
:1049A000450480FF21C0A601652D842D0E9492063A
:1049B000811118C081E08E2580FF16C04E2D652D17
:1049C000842D0E949D0B882379F083EC91E00E9456
:1049D000DC1B88E0E3ECF1E0DF011D928A95E9F74A
:1049E000F12CBFCF80E0E8CFA601652D842D0E9479
:1049F0009206811124C081E08E25B82FB170CB2E94
:104A000080FF2BC04E2D652D842D0E949D0BD82E2E
:104A1000811123C0498A5A8A89899A890E94331050
:104A2000292F22952F70223060F0243088F49F7057
:104A300061F0F8019581907F41F4FD2C92CF80E0E8
:104A4000DCCF9F7011F08823C1F3805E8830A8F31B
:104A5000C8010E94DC1BDC2CF0CFEE2009F481CFD2
:104A60008091C80181608093C801BACF8B2D0E94CC
:104A70009206811124C0D80111968C9111978A1148
:104A80001EC08C918B111BC02091C9013091CA01AD
:104A900016968D919C9117972817390781F4E1108C
:104AA0000EC015963C92C8010E94DC1B88E0F801FC
:104AB000A3ECB1E001900D928A95E1F752CFC801C5
:104AC0000E943F10882339F1EE2029F18091C8011E
:104AD0008032A0F02091C3013091C4013A87298728
:104AE0001B86DD86CC868E878091C9019091CA0194
:104AF000988B8F87CE0109960E94DC1B88E0F80115
:104B0000A3ECB1E001900D928A95E1F70E94B423E5
:104B1000FF24F39426CFC8010E94DC1BF9CF832D1C
:104B2000807F09F452CF9090C3018090C4014091DE
:104B3000C6015091C701682D892D0E9492068111EE
:104B40001CC0F8018181881118C08081891115C0AD
:104B50002091C9013091CA018681978128173907B0
:104B600061F4E1100AC03582C8010E94DC1B88E0B4
:104B7000D5011D928A95E9F7F4CEC8010E943F1035
:104B8000882349F2EE2039F28091C801803208F47E
:104B9000B5CF2091C3013091C4013A8329831B8290
:104BA000DD82CC828E838091C9019091CA01988761
:104BB0008F83CE010196A0CF83EC91E00E94761006
:104BC00080914004909141048816990680F6FE2C4D
:104BD000EE2009F4A0CFE090C301D090C401409131
:104BE000C6015091C7016D2D8E2D0E949206811134
:104BF00028C0F80181818D1124C080818E1121C0CF
:104C00002091C9013091CA018681978128173907FF
:104C1000C1F48091450482FD49CF9091C80190FD77
:104C200045CF907F09F442CF8091C8018583903FA2
:104C300009F439CF982F907F905F8F70892B8583EF
:104C400032CFC8010E943F10811158CF8091C80116
:104C500081608093C801C8010E94DC1B82CEEE20D7
:104C600009F459CFC8010E943F10F82E882309F497
:104C700052CF88E0F801A3ECB1E001900D928A9543
:104C8000E1F78091C3019091C4010E9433100E940A
:104C9000B42367CECF93DF93CDB7DEB760970FB65F
:104CA000F894DEBF0FBECDBF29873A874B875C875C
:104CB0006D877E878F87988BCE0109960E9422246C
:104CC00081112FC088E0FE013996DE011196019016
:104CD0000D928A95E1F74C855D856A8589850E94EC
:104CE000920681111EC0A091CB01B0E0CD010196CA
:104CF0008770992720910C022817190609F193E073
:104D0000AA0FBB1F9A95E1F7A453BE4F98E0FE018E
:104D1000319601900D929A95E1F78093CB010E9414
:104D2000BD0B80910C029091CB01891317C0609646
:104D30000FB6F894DEBF0FBECDBFDF91CF910895BF
:104D40000E941A161092CB0110920C0288E0E3EC3C
:104D5000F1E0DF011D928A95E9F7E3CFB8E08B9F80
:104D6000C001112484539E4F0E9422248823F9F20B
:104D700080910C0290E001968770992780930C0235
:104D8000D0CFEF92FF920F931F93CF93DF93809139
:104D90008303882361F0C09182038CE0F82E809118
:104DA0008303C81758F01092830310928203DF9197
:104DB000CF911F910F91FF90EF900895EE24E3940F
:104DC000EC0EE09282030C2F10E0CF9DE001112445
:104DD000CC57DC4F4B815C81698188810E949206AF
:104DE00081111DC08E819F81892B21F48885998531
:104DF000019651F4288139814A815B816C817D81E2
:104E00008E819F810E944A26F09EF001F19EF00D56
:104E10001124EC57FC4F1482138210927304CE2D90
:104E2000BECF109227041092260410922501809183
:104E30002504809324040E94CB060C94C1263F9243
:104E40004F925F926F927F928F929F92AF92BF929A
:104E5000CF92DF92EF92FF920F931F93CF93DF9346
:104E6000C091240497E0892E01E010E02CE0322E5E
:104E70003EEF932E44244394809125048C1315C057
:104E80000E94C126DF91CF911F910F91FF90EF906B
:104E9000DF90CF90BF90AF909F908F907F906F905A
:104EA0005F904F903F900C94CB06D0E0FE01EE0F48
:104EB000FF1FE45EFB4F80819181889ED001899E17
:104EC000B00D1124AC51BC4F14962C9114972111A4
:104ED00057C050908303E4E8F3E030E020E0712C09
:104EE0005D01251508F04AC0E284F384D501CD9018
:104EF000DC906FEF7FEF612C462D50E0DA01AA0FB6
:104F0000BB1FAC0DBD1D0D90BC91A02D109731F0B5
:104F1000EA16FB0609F4BA016394EECF6F3F7607F9
:104F2000A1F1D80102C0AA0FBB1F6A95E2F77A2A45
:104F3000B80102C0660F771F6A94E2F7AB014150D7
:104F4000510974161506F9F4329EF001339EF00DE6
:104F50001124EC57FC4F889ED001899EB00D11247E
:104F6000AC51BC4F12962D913C91139737832683F9
:104F7000908291829187808715964C920E949D061F
:104F80002196C37079CF148213822F5F3F4F3C96D6
:104F9000A8CF2F923F924F925F926F927F928F9203
:104FA0009F92AF92BF92CF92DF92EF92FF920F93B8
:104FB0001F93CF93DF93CDB7DEB769970FB6F89401
:104FC000DEBF0FBECDBF942F498B252F5A8B6B8B25
:104FD0007C8B8D8B4C895D89622F892F0E94920674
:104FE000811109C08091AF019091B0010196909319
:104FF000B0018093AF018B898111109273041D86DB
:105000001E861F86188A85E0FE017196DE011996BC
:1050100001900D928A95E1F78091290282FD1EC0D0
:1050200080912A0490912B04892BC1F00E943406B0
:1050300020910E0230910F02821B930B20912A04C3
:1050400030912B048217930720F08091100282FF89
:10505000F5C10E947D0B81110E944A0B4C855D8534
:105060006A8589850E949206811111C061E0CE0196
:1050700009960E9476106C018B8527EFC2162CE5ED
:10508000D20681F4882321F181E0809325012985CE
:105090003A854B855C856D857E858F8598890E94D4
:1050A0004A26C5C038EFC3163CE5D30629F4882349
:1050B00079F00E941127EBCF49EFC4164CE5D406D6
:1050C00039F4882329F0809125018111F2CFDCCFBA
:1050D00004EE13E0512CB12CA12C22242394312C6A
:1050E0002EEF422EF8014081518188248A94982C19
:1050F00020E0822F90E0FC01EE0FFF1FE40FF51F70
:10510000608171816115710531F0C616D70609F409
:105110004C012F5FEECFF12CFFEF8F169F0609F4A5
:1051200048C0F8014481F09025018F2D411180E0A5
:10513000F82FF170FF2EF801E58086819B85992379
:1051400009F40CC1FF2009F409C160903E0470907D
:105150003F04E11012C0A10101C0440F8A94EAF794
:10516000842B868380918003909181038615970517
:1051700020F47092810360928003C10102C0880F05
:10518000991F2A95E2F70197F80126812817190639
:1051900081F48091260490912704009709F460C05F
:1051A0000E9425066816790608F05AC021E0F80129
:1051B00024835F28FFEFAF1ABF0A095F1F4F28E063
:1051C000A216B10409F08ECF8B85882309F421C182
:1051D000552009F41EC10E94340690932704809341
:1051E000260480918303883010F591E0980F909306
:1051F000830398E0FE013996DE01119601900D922D
:105200009A95E1F73CE0839FC00111248C579C4F95
:1052100028E0FE013196DC0101900D922A95E1F71C
:105220002FEF3FEFFC0131872087D386C286699636
:105230000FB6F894DEBF0FBECDBFDF91CF911F91A7
:105240000F91FF90EF90DF90CF90BF90AF909F9025
:105250008F907F906F905F904F903F902F90089528
:105260008091240450912504982FF0E0E0E085130C
:1052700014C090932404E017F10709F49ACF90E04A
:10528000FC01EE0FFF1FE45EFB4FB182A08201968E
:1052900083709927809325048CCF682E712CF3019D
:1052A000EE0FFF1FE45EFB4F2081318147E0429FFC
:1052B000D001439FB00D1124AC51BC4F6D917C9136
:1052C0001197798F688F40E020E030E0E32FF0E025
:1052D000EE0FFF1F688D798DE60FF71F808091809C
:1052E00081149104E1F0F8010190F081E02DFF8B31
:1052F000EE8B20E005C08616970609F44F2D2F5F30
:10530000E22FF0E0EE0FFF1F6E897F89E60FF71F97
:10531000608171816115710571F73F5FD7CF4423BB
:10532000D1F0F801231708F0FD0121E024830E17C6
:105330001F0721F490932404F42E3BCF981305C04B
:10534000AE17BF0711F49F5F937093012F5F3F4F1C
:10535000822F83708CCFF0E0E0E0F7CF90E0E11097
:105360001FC0B10102C0660F771F2A95E2F79B01AB
:10537000215031098217930731F4442309F447C0BF
:10538000C5010E949D06C10101C0880F8A94EAF7F9
:10539000982F9095F801868189238683FE2C09CF6A
:1053A0009C01082C02C0359527950A94E2F7A901C3
:1053B00041705527BC016150710986239723892BC1
:1053C00011F5452B01F1F80182819381892BC1F000
:1053D0001B821C821D821E8249824A820E943406E0
:1053E0008160582F9D838C83F801828193818F8304
:1053F000988729813A814B816D817E810E944A265E
:10540000F8011582C0CFF22FF170EF2EBCCFEF2C38
:10541000BACF9091240480912504981731F00E940E
:105420001F27552009F433CE02CF0E94C1261092C7
:105430002704109226040E94CB06F3CF82E00E943C
:10544000BC1507CE90E080E00E949734893E9E4FC5
:1054500011F40C94841080E008951F920F920FB6FF
:105460000F9211242F933F934F935F936F937F93EA
:105470008F939F93AF93BF93CF93DF93EF93FF935C
:10548000D091E900DF708091EC00C82FC17080FDE1
:10549000C0E81092E9008091F000877F8093F000CF
:1054A00078940E9425161092E9008091F00088609F
:1054B0008093F000CD2BCF70C093E900FF91EF9166
:1054C000DF91CF91BF91AF919F918F917F916F911C
:1054D0005F914F913F912F910F900FBE0F901F90B2
:1054E00018951F920F920FB60F9211242F933F938E
:1054F0004F935F936F937F938F939F93AF93BF93DC
:10550000EF93FF938091E10082FF09C08091E20058
:1055100082FF05C08091E1008B7F8093E100809144
:10552000DA0080FF24C08091D80080FF20C08091E5
:10553000DA008E7F8093DA008091D90080FF9DC0D1
:1055400080E189BD82E189BD09B400FEFDCF81E023
:105550008093710480915B04811109C00E946F04E3
:105560000E9462058091E20084608093E200809155
:10557000E10080FF17C08091E20080FF13C080919E
:10558000E2008E7F8093E2008091E2008061809350
:10559000E2008091D80080628093D80019BC85E039
:1055A000809371048091E10084FF2BC08091E20020
:1055B00084FF27C080E189BD82E189BD89B5982F2C
:1055C000917080FFFBCF8091D8008F7D8093D800B1
:1055D0008091E1008F7E8093E1008091E2008F7ED8
:1055E0008093E2008091E20081608093E2008091EC
:1055F0006804882309F447C084E080937104809193
:1056000071048091E10083FF27C08091E20083FF55
:1056100023C08091E100877F8093E10082E0809346
:105620007104109268048091E1008E7F8093E10004
:105630008091E2008E7F8093E2008091E2008061A1
:105640008093E20042E060E080E00E9430058091BB
:10565000F00088608093F000FF91EF91BF91AF91CF
:105660009F918F917F916F915F914F913F912F917A
:105670000F900FBE0F901F90189519BC10927104D7
:1056800010925B0474CF8091E30087FD93E09093C8
:105690007104B5CF78941F921FB61F9211248F9377
:1056A0009F93AF93BF938091540490915504A09120
:1056B0005604B09157040196A11DB11D8093540466
:1056C00090935504A0935604B0935704BF91AF91A3
:1056D0009F918F911F901FBE1F9018951F921FB60C
:1056E0001F9211248F939F93AF93BF938091530484
:1056F000811113C08091540490915504A0915604D7
:10570000B09157044196A11DB11D8093540490930C
:105710005504A0935604B0935704BF91AF919F9145
:105720008F911F901FBE1F901895CDB7DEB7E497DD
:105730000FB6F894DEBF0FBECDBF84B7877F84BF9E
:105740000FB6F894A89580916000886180936000FE
:10575000109260000FBE80E890E00FB6F89480933E
:105760006100909361000FBE85B7806885BF85B7E3
:10577000806885BF86E699E09093A5018093A40197
:105780000E94E6110E949C0F0E946F040E94620515
:105790008091E20084608093E200789480917104AB
:1057A0008823A1F01091E9001F709091EC00892FDF
:1057B000817090FD80E8182B1092E9008091E8003C
:1057C00083FD0E9425161F701093E90082E084BDBE
:1057D00093E095BD9AEF97BD80936E000E94841070
:1057E000811102C00E94D71186EC0E94680986E3ED
:1057F0000E94680984E30E94680985E30E946809A1
:1058000004E611E070E7E72E71E0F72ED8018D91E4
:105810008D018F3F11F00E946809E016F106B1F783
:1058200088E0E3E4F2E0DF01282F1D922A95E9F7F2
:10583000E0E2F2E0DF011D928A95E9F70E94222A58
:10584000811102C00E94D31382E090E00E9489344B
:1058500080932D020E949D1090932902809328022C
:105860000E943D14BFEFE6E7F1E0B150E040F040A8
:10587000E1F700C000000E943D148091430280FFC8
:1058800008C06FEF7FEF90E080E00E94BB340E9481
:10589000F00C83E090E00E9489340E9416168091FB
:1058A0002A02811133C00E94222A811104C00E9461
:1058B000D3130E94C31388E090E00E949134609358
:1058C00002037093030380930403909305036E7F98
:1058D00071F40E94C31388E090E00E9491346093B9
:1058E00002037093030380930403909305030E94C3
:1058F000100710925F028091020380FF04C060E0F5
:1059000086950E94671381E080932A0280E091E0EF
:105910009093500480934F048E010F5F1F4F80912E
:105920007104DD24D39450E1E52E62E1F62E85303A
:1059300009F4C4C10E943D14882359F08FB7F8942C
:10594000409154045091550460915604709157044D
:105950008FBFA3E4B2E0EEE2F2E0F12CE12C7E2D69
:105960008D919D91219131912817390709F4C7C173
:1059700060E0CC24C394D12C28273927A9014C21DD
:105980005D21452B09F4B5C16BA77CA79C012C2197
:105990003D2191E0232B09F490E09DA70E9434065D
:1059A0008160782F9FA78EA74BA55CA56DA58FA5BD
:1059B0000E94C927F701EE0FFF1FE25DFD4F8081B6
:1059C0009181C826D926D182C08280912501882361
:1059D00001F180912604909127040097D1F00E9454
:1059E000250620918003309181032817390788F418
:1059F0009091240480912504981709F499C10E947C
:105A00001F27109281031092800310922704109296
:105A100026048091430480FF1EC08091240182FFF0
:105A20001AC00E94340620917C0330917D03AC01A2
:105A3000421B530B2091220130912301421753073F
:105A400050F026E332E041E0BC0180917E0390916A
:105A50007F030E94F01980915F028823D1F1809129
:105A60005E02E0910203E695E81BE0935A02823061
:105A700009F067C1F0E0E35BFD4FE491EE2EF12CFD
:105A800068E8C62E6FE0D62E80915B02882361F015
:105A900010925B020E943406909359028093580240
:105AA00010925D0210925C020E943406E09158024E
:105AB000F09159028E1B9F0B8F3F9F4750F4EE0DC4
:105AC000FF1DF0935902E093580288E592E0F60139
:105AD000099586E0E2E5F2E0D80101900D928A9501
