:100000000C94FA020C9441030C945C030C9441038D
:100010000C9441030C9441030C9495260C944103D9
:100020000C9441030C9441030C9441030C94410340
:100030000C9441030C9441030C9471260C944103DD
:100040000C9441030C9441030C9441030C94410320
:100050000C9441030C9441030C9441030C94410310
:100060000C9441030C9441030000000000000000C8
:100070000000000000000000000000000000000080
:100080000000000000000000000000007E0F00D40F
:10009000FFFFFFC700000078000000000000000024
:1000A0002A2B2800000000000000000000000000D3
:1000B00000000029000000002C1E342021222434DE
:1000C0002627252E362D3738271E1F2021222324B0
:1000D00025263333362E37381F0405060708090A4C
:1000E0000B0C0D0E0F101112131415161718191AE8
:1000F0001B1C1D2F3130232D350405060708090A66
:100100000B0C0D0E0F101112131415161718191AC7
:100110001B1C1D2F3130354CFD377A585A00000416
:10012000E6D6B4460200210116000000742FE5A3B4
:10013000E002A2012B5D003D8889C65436C3174FEB
:10014000E4E20E164D853C533C3A18756871F4C7CD
:1001500044ABE53413BAED6CC98780653A10650A83
:100160007DAC3202D439F09C6CFDE264E7F136C814
:10017000B17FCF0013D128BBF1FE7430170B3F9C29
:100180009E1819E543C1ECA326B34C0C3E237150D5
:10019000F730024BEA629848923944D89B69ACA583
:1001A000765F541C2DCA247D64AF4BB05F50900025
:1001B0008A5851F23215DDBC408B67C573B00B8B8A
:1001C00048568C1A3F1E9FB772C246B5648B7B8A15
:1001D00080468020D2B60C68C6BADD942046564EC2
:1001E000B22EEFD6F4C0CA30E84877978578DD4262
:1001F000C75A358F13A91EF71737A7044CF7F7B462
:10020000EE88C5A7E532B07E5CC0CCB7515F32C97D
:1002100066FDBB0081FCC2FFE17B93784936BA4999
:10022000BBE4A52562AA76A0AB3D1F702082D180D9
:10023000366B53278BB737ADE42FD4453D1CE429EB
:10024000351210FAFB1D0E05911D1DF0A6BDA75B12
:1002500011AE5E9DBB92DE33FA28D8AC3588DC0D3A
:10026000BAA10000617D5B177AB879AB0001C702C3
:10027000A3050000B1DD6DECB1C467FB0200000016
:100280000004595A14001A000800150017001C0039
:1002900018000C00120013000400160007000900EB
:1002A0000A000B000D000E000F0028001D001B00AF
:1002B0000600190005001100100036003700380054
:1002C000010001000100010001002C002C000100D0
:1002D00001000251010001000100010001000100C4
:1002E0000100010001000100010001000100010006
:1002F00001000100010001000100010001000100F6
:1003000001000100010001000100010001000100E5
:1003100001000100010001000100010001000100D5
:1003200001000100010001000100010001000100C5
:10033000010001000100005C01000100010001005A
:1003400001000100010001000100010001000100A5
:100350000100010001000100010001000100010095
:100360000100010001000100010001000100010085
:100370000100010001000100010001000100010075
:100380000100010001000100010001000100010065
:100390000100010001000100010001000100010055
:1003A0000100010001000100010001000100010045
:1003B0000100010001000100010001000100010035
:1003C00001000100010001005C03000002000200C6
:1003D00058030000030001005D0300000400020058
:1003E00042031006050001005E0300000600020043
:1003F00044030000070002005A0300000800010047
:100400005F030000090002004603EB050A0002003A
:100410004803EB050B0002004A03EB050C00020049
:100420004C03EB050D0002004E03EB050E0002002D
:100430005003EB050F0002005203EB051000020011
:100440005403EB05110002005603EB0512000200F5
:1004500060030000130002006203000005010902AE
:10046000A10185020901A10005091901290515004D
:10047000250195057501810295017503810305012B
:10048000093009311581257F9502750881060938E3
:100490001581257F950175088106050C0A3802151E
:1004A00081257F950175088106C0C005010980A1DD
:1004B00001850319012AB700150126B700950175BA
:1004C000108100C0050C0901A101850419012AA0B1
:1004D00002150126A002950175108100C00660FF7B
:1004E0000961A1010962150026FF009520750881A8
:1004F000020963150026FF00952075089102C005CA
:10050000010906A101050719E029E7150025019554
:1005100008750181029501750881030507190029F5
:10052000FF150026FF0095067508810005081901D2
:100530002905950575019102950175039103C01C6C
:10054000037600690061006C003A006600360034F2
:100550000063003200620033006300000010034CAF
:1005600000450053004F0056004F005A0000001293
:10057000037300710075006100730068006B006216
:100580000000000403090409025B00030100A0FA53
:1005900009040000010301010009210101000122F9
:1005A000400007058103080001090401000203005F
:1005B000000009210101000122220007058403082F
:1005C00000010705040308000109040200010300FB
:1005D00000000921010100012281000705830308B1
:1005E000000112011001000000085153534C01009A
:1005F0000102030111241FBECFEFD8E0DEBFCDBF43
:1006000004B603FE27C080912D0590912E05A09180
:100610002F05B09130058730904BA740B04BD1F4F7
:1006200010922D0510922E0510922F051092300574
:1006300014BE84B7877F84BF0FB6F894A8958091C5
:100640006000886180936000109260000FBEE0E05F
:10065000F8E3099525E0A4E6B1E001C01D92AD32B2
:10066000B207E1F711E0A0E0B1E0E6E8FCE502C086
:1006700005900D92A436B107D9F70E94BC260C94C0
:10068000192E0C940000A82FB92F80E090E041E0D3
:1006900050EA609530E009C02D91822797958795A3
:1006A00010F084279527305EC8F36F5FA8F3089594
:1006B000EADF8D939D930895CF93CFB7CF93DF93C8
:1006C000C3954B9BE9F74B9B10C04B9B0EC04B9BBC
:1006D0000CC04B9B0AC04B9B08C04B9B06C0C091F3
:1006E0000705C395C09307058EC06F93C09106059B
:1006F000DD27C55FDA4F2F9365E54B9B03C02F9134
:100700006F91E1CF0F931F934F9320E040E15F93F0
:1007100009B10C7003FB27F93F9350E03BE039C06F
:100720001C7040642F77012F5F5F1EC0406819B1B5
:100730001C702F7752501FC0406409B12F770C7086
:10074000D1F15F5F00C023C0406219B12F771C70E8
:1007500091F15F5F00C025C00C701027515012F45A
:100760005D5F0000115027952C3F19B1C8F61C7031
:100770000127015027952C3FC8F64227499309B11C
:100780000C7010274F73115027952C3FA8F64695F3
:10079000469519B11C7079F00127015027952C3F1F
:1007A00098F66B5A60F3315009B1B0F600C012E010
:1007B0001CBB00271CC03B503195C31BD04012E02E
:1007C0001CBB0881033C21F10B3411F1209104057D
:1007D0001981110F1213EDCF4A81441F093679F1A7
:1007E0000D3211F0013E29F74F7009F0042F0093EC
:1007F0000A053F915F914F911F910F912F916F913A
:10080000CCB3C1FD5DCFDF91CF91CFBFCF91189514
:1008100020910A05222369F310910805112309F09C
:1008200049C034300AF448C03093080520930505C8
:10083000109106053BE0311B309306053DC0009149
:1008400008050130BCF50AE54F7049F430911B01F1
:1008500034FD33C000931B01C1EED4E032C04330FD
:1008600059F0443091F03091EC0434FD26C00093EF
:10087000EC04CDEED4E025C03091210534FD1DC03F
:1008800000932105C2E2D5E01CC03091F80434FD8C
:1008900014C00093F804C9EFD4E013C0052710E09A
:1008A00000C000000BB91AC0052710E0221F1DC0B0
:1008B00010E021C04AE502C032ED432FC4E1D0E090
:1008C00032E01AB11C605B9A0BB11AB95CE020E807
:1008D00065E320FF05270BB9279517951C3FF0F618
:1008E0006695B8F7B1F720FF05270BB9279517953F
:1008F0001C3FD0F62795179517FF052700001C3FD2
:100900000BB9B0F629913A9519F7037F10910905B3
:10091000110FC651D0400BB911F01093040512E02D
:100920001CBB08601AB1137F402F437F54E05A95D7
:10093000F1F70BB91AB94BB95CCFFC018381833055
:1009400089F130F48130F1F0823021F180E00895B6
:10095000813209F44BC08232C9F7248135812130BC
:10096000310509F461C02115310509F455C0223063
:10097000310561F78CE594E09093BE048093BD044B
:1009800081E8089582EE95E09093BE048093BD04C3
:1009900082E1089587E895E09093BE048093BD04BA
:1009A0008BE5089582818130B1F0882361F0823037
:1009B000A9F0833059F68FE395E09093BE048093BD
:1009C000BD048CE1089583E895E09093BE04809384
:1009D000BD0484E008958FE695E0D6CF8DE595E0DF
:1009E0009093BE048093BD0480E10895828181309C
:1009F00081F0882331F0823009F0A8CF82ED95E0B4
:100A000002C089E995E09093BE048093BD0489E01B
:100A1000089582EB95E0F7CF8FEF94E09093BE04BA
:100A20008093BD0480E408952DED34E03093BE043E
:100A30002093BD04089508958091B804089588E135
:100A400098E00FB6F894A895809360000FBE90933D
:100A50006000A895F894D8E0CEEF28E3299320E031
:100A6000299314BEFFCF08959C014FB7F89480914D
:100A7000210490912204A0912304B09124044FBF3B
:100A8000821B930B08952FB7F894809121049091C5
:100A90002204A0912304B09124042FBF08959C0147
:100AA000FC0132969FEF80E04191461751F09F3F45
:100AB00019F4411101C0982F8F5F8630A9F79F3F2D
:100AC00009F40895290F311D97FD3A95F9016283C4
:100AD000089520911D0430911E042817390771F0E4
:100AE00090931E0480931D04E0911B04F0911C045C
:100AF000309721F00084F185E02D0994089520912C
:100B0000190430911A042817390771F090931A04C8
:100B100080931904E0911B04F0911C04309721F09C
:100B20000680F781E02D09940895E0911B04F0916F
:100B30001C04309721F00190F081E02D099480E0B1
:100B40000895452B39F0682381E06F3F09F080E07C
:100B50008170089581E0FCCFDC0160913E038091BB
:100B60003F03962F891301C00895292F30E0F90122
:100B7000EE0FFF1FEA5CFC4F408151814A175B0773
:100B8000A1F487E08A9FA0018B9F500D1124425051
:100B90005D4F81E0FA0184839613E6CF2F5F3F4FCC
:100BA0002370332720933E0308952F5F3F4F922FEA
:100BB0009370D8CF10929B0210929A02EEEFF2E05F
:100BC0008581811102C014821682379683E0E63354
:100BD000F807B1F70895E2E4F3E0848195812AE013
:100BE00030E0B9010E94642D6093150186818093E5
:100BF0001401828580931301848580931201868578
:100C00009785B9010E94642D6093110180898093BA
:100C10001001828980930F01848980930E010895C9
:100C200080914203909143039093170180931601A2
:100C300008950E9443059C019091090280910A0247
:100C4000982B21F0309306022093050290910B021D
:100C500080910C02982B21F0309304022093030220
:100C6000E0911B04F0911C04309749F082E08093DE
:100C700007020480F581E02D87E092E00994089551
:100C800090910902803F59F480910A0287FF0DC0BC
:100C900010920A0291110BC01092010208C0813F0C
:100CA00081F480910A0218169CF3992381F08091B7
:100CB0000B0290910C02892B09F064C01092000283
:100CC0000895823F49F497FFF0CF10920902809176
:100CD0000A028111ECCFE0CF833F19F41916ACF36F
:100CE000E4CF20910B02893F29F41216F4F61092FA
:100CF0000B02DBCF8A3F19F427FFD7CFF8CF209123
:100D00000C028B3F29F427FFD0CF10920C02CDCFDD
:100D10008C3F19F41216CCF3C8CF843F31F4809184
:100D200008028E7F80930802C0CF853F21F4809116
:100D300008028D7FF7CF863F21F4809108028B7FD8
:100D4000F1CF873F21F480910802877FEBCF883F66
:100D500021F4809108028F7EE5CF8D3F31F48091A0
:100D600002028E7F80930202A0CF8E3F21F48091F9
:100D700002028D7FF7CF8F3F09F097CF809102025B
:100D80008B7FF0CF08958091020280FF0CC06091AC
:100D90000F0170E0759567957595679561157105FB
:100DA00049F1862F089581FF06C060910F0170E020
:100DB00075956795F3CF60910F0182FD0BC09091FF
:100DC00000029923A1F060910E0180910F01961706
:100DD00038F0682F70E06038710500F38FE70895F0
:100DE000899FC001112470E00E94782DF4CF61E04A
:100DF00070E0D7CF81E008958091020260914A03AC
:100E000070914B0380FF16C020911301269FC001F3
:100E1000279F900D1124BC0176956795769567956F
:100E20006038710508F043C06115710509F441C0CF
:100E3000862F089581FF0BC020911301269FC001CA
:100E4000279F900D1124BC0176956795E9CF82FF0D
:100E500009C0809113019B01829FB001839F700D97
:100E60001124DECF209101022223D1F290911201B0
:100E700080911301482F50E0291748F0CB01849F3F
:100E8000B001859F700D949F700D1124C9CF289FCC
:100E900090011124269FA001279F500D369F500DD1
:100EA0001124692F70E0CA010E94642DB9CF8FE729
:100EB000089581E00895803F31F40E94FC068195F9
:100EC00080930A020895813F19F40E94FC06F8CF2E
:100ED000823F31F40E94FC068195809309020895B7
:100EE000833F19F40E94FC06F8CF893F29F40E9441
:100EF000C30680930B0208958A3F21F40E94C30623
:100F00008195F7CF8B3F31F40E94C3068195809382
:100F10000C0208958C3F19F40E94C306F8CF843F59
:100F200031F4809108028160809308020895853F22
:100F300021F4809108028260F7CF863F21F48091EE
:100F400008028460F1CF873F21F480910802886015
:100F5000EBCF883F21F4809108028061E5CF8D3F7F
:100F600031F48091020281608093020208958E3FE5
:100F700021F4809102028260F7CF8F3FB9F7809110
:100F800002028460F1CF80E00895F894E82FE295A2
:100F9000EF70F0E031A1282F2F7081E090E001C0C8
:100FA000880F2A95EAF7982F9095932391A392A101
:100FB000892B82A3789408959091DE0192FF06C058
:100FC000282F28712830F9F4877F846093FF06C0AA
:100FD000282F28712831F1F4877E84612091DF0168
:100FE00020FF06C0382F38713830D9F4877F8160F0
:100FF00021FF06C0282F28712831D1F4877E816116
:1010000094FD877E0895282F24712430F9F68B7F74
:101010008860DCCF282F2471243101F78B7E886112
:10102000DDCF382F3171313019F78E7F8860E0CFF6
:10103000282F2171213121F78E7E8861E1CFCF9356
:10104000DF93EC0182389105A9F1D8F58133910540
:1010500009F496C048F58932910509F48AC08A9747
:1010600009F495C0C11521E5D20708F0BCC0C1152F
:1010700030E5D30708F014C1C83ED10508F09CC084
:10108000C03ED10560F5C83AD10508F087C0C53A21
:10109000D10508F0FDC0C130D10509F12097F9F064
:1010A000C430D105E0F440C08533910509F45AC03D
:1010B000C997C1F68091DE01837089F0C0EED0E05F
:1010C0000EC0833E910599F170F4803E910501F1C7
:1010D000823E910539F68091DE0182FD21C0CE016C
:1010E000DF91CF910895863E910561F1873E91058C
:1010F00071F1843E910509F0B5CF8091DF0181FF48
:10110000EECF8091DE01C7EED0E084FD0DC0E7CFC9
:101110008091DE0180FD12C19091DF0190FFDFCF51
:10112000C3EED0E084FFDBCFD0E0C0E0D8CF809129
:10113000DE0182FD06C19091DF0190FDBFCF84FFEB
:10114000CECFF2CF8091DE0183FDDDCFC8CF80917D
:10115000DE0183FDF9C09091DF0191FFF0CFC4EE75
:10116000D0E0BDCF8091DE0185FFB9CFC9E2D0E0EC
:10117000B6CF8091DE0185FFB2CFC5E3D0E0AFCF1F
:101180008091DE0186FFABCFCAE2D0E0A8CF80918C
:10119000DE0186FFA4CFC1E3D0E0A1CFCF3BD105D4
:1011A00018F6C85AD0E0CC0FDD1FC95DDE4F09909C
:1011B000D881C02DD46493CFC11540E2D40758F430
:1011C000C11581E0D80708F08ACFC03FD10508F4E7
:1011D000ABCFD06584CFC11590E4D90708F4A4CF74
:1011E000DF70D06A7CCFC11525E5D20700F5C115A7
:1011F00034E5D30708F08AC0C11543E5D40708F0E9
:1012000071C0C11582E5D80708F467C0CE018370AC
:10121000992721E030E002C0220F331F8A95E2F7C0
:10122000C695C69580E2C89FE001112452C0C11541
:1012300099E5D907A8F4C11528E5D20708F06BC0D5
:10124000C11536E5D30708F06FCF8C2F0E94DC075D
:10125000C82FD0E0DC2FCC27CC27DF71D0623FCF66
:10126000C1154AE5D40708F45BC0CE01905681153C
:10127000904208F059CF8D2F8F710E94DC0790E0CB
:10128000982F882788279F719C012C2BE901E6CF96
:10129000C55AD0E0CC5DDE4FC881D0E0D0641FCF0E
:1012A000CE01E4E096958795EA95E1F783702C2FBF
:1012B00026952695237040E2249F90011124382B17
:1012C0008C2F8370C1E0D0E002C0CC0FDD1F8A9567
:1012D000E2F7C22BD32BDC6802CFDC2FCC27C16F07
:1012E000D06AFDCECE018370992721E030E002C0A4
:1012F000220F331F8A95E2F7C695C69590E2C99FE3
:10130000E0011124C22BD32BDA68E9CEDC2FCC27E5
:10131000C46FD06AE4CEDC2FCC27C06FD06ADFCE9A
:101320008C2F8F700E94DC0734E0D695C7953A95D4
:10133000E1F7CF709C2FEC01D069D1CEC9E3D0E0AA
:10134000CECEC2EED0E0CBCEC6EED0E0C8CE8091FD
:10135000D101882331F01092D1011092D001109266
:10136000CF010895CF93C82F8091DF0182FD0CC07B
:101370008091D1018C1741F00E9443059093D001D8
:101380008093CF01C093D101CF9108958095909122
:10139000E00498239093E00408958095909175025D
:1013A000982390937502089590917502892B8093EC
:1013B000750208951092CD011092CC011092CB01CC
:1013C00008958091440390914503892B89F00E94F0
:1013D00043052091CF013091D001AC01421B530B4A
:1013E00081E020914403309145034217530708F4EC
:1013F00080E081700895809175029091E004892BBE
:101400009091CE01892B809366018091D101882330
:1014100009F18091440390914503892B29F00E94A2
:10142000E10981110E94A709809166019091D10183
:10143000892B8093660120E088E691E0FC013191E0
:10144000CF0131112F5FF1E08E369F07B9F72111DF
:101450000E94A709E0911B04F0911C04309731F021
:101460000280F381E02D86E691E009940895EF92E1
:10147000FF920F931F93CF93DF93EC018A85811125
:1014800034C0EB80FC8087E5F81A26E12E9DC00170
:101490002F9D900D1124DC01A759BC4F1496ED919E
:1014A000FC911597309731F054966D917C9181594C
:1014B0009C4F099586E18E9D80018F9D100D112412
:1014C00007591C4FF80187810E94CD09F8018085DA
:1014D0000E94C6090E94FB09188219861B861E827B
:1014E0001D821092680310926703DF91CF911F91C4
:1014F0000F91FF90EF900895CF93DF93EC018989CE
:10150000811118C081E0898B8F810E94D40980915C
:10151000E0049885892B8093E0040E94FB09EA810E
:10152000FB81309739F06C897D89CE010696DF9179
:10153000CF910994DF91CF91089580911801877F11
:101540008093180182E00E94C6098091180184FFEF
:1015500006C08F7E8093180182E00E94D40980919A
:10156000180185FF06C08F7D8093180180E20E94DC
:10157000D4090C94FB098091CA0181111092CA010F
:1015800008952091C90190918801291302C080E03B
:10159000089530E0F90153E0EE0FFF1F5A95E1F78F
:1015A000E757FE4F5181561306C05081581303C0B0
:1015B0005281541304C02F5F3F4F2770E6CF81E064
:1015C00008958091C90190918801981301C00895F0
:1015D0008F5F8770FACF9E3F49F1E82F2AE0929FF4
:1015E000E00D11249E2F9770E695E695E69583E031
:1015F000E89FF0011124EF58FE4F50E040E080E0FA
:10160000219130E0092E02C0369527950A94E2F721
:1016100021703327042E01C0220F0A94EAF7822B8F
:101620004F5F5F4F4330510559F7089580E00895AB
:101630009E3F69F1E82F2AE0929FE00D11248E2F42
:10164000877041E001C0440F8A95EAF7E695E69578
:10165000E69583E0E89FF0011124EF58FE4F30E05B
:1016600020E070E05191DF011197CB01022E02C002
:10167000969587950A94E2F7817081958527842352
:1016800085278C932F5F3F4F2330310559F70895FD
:10169000E92FE295EF70E250EE3070F4F0E0E55E95
:1016A000F14D0C948C2D803F19F020F4883E20F4ED
:1016B00081E00895843FE1F380E00895883EC0F31F
:1016C000813FD1F7F5CF93FB882780F9089590E00B
:1016D00080E00E947F0590E080E00E946905109202
:1016E000E0041092CE010E94FB0986E0E7E0F2E000
:1016F000DF011D928A95E9F7109201021092000213
:10170000109202020C9419068093D2010C94670B7C
:10171000882321F00E94C6090C94FB0908958823B0
:1017200039F09091E004982B9093E0040C94FB091D
:101730000895882321F00E94CD090C94FB09089597
:10174000882321F00E94D4090C94FB090895882372
:10175000B1F19CEF980F913A70F4E8E6F1E09191C5
:10176000891303C0DF0111971C9291E0EE36F9074F
:10177000B1F70C94FB0990E2980F983050F4877001
:1017800091E001C0990F8A95EAF7892F0E94CD094F
:10179000F0CF9BE5980F933020F490E080E00C941C
:1017A0007F0598E5980F973120F490E080E00C9445
:1017B0006905803F20F00E9440060C9419060895A8
:1017C000CF93C82F882309F452C08CEF8C0F813A35
:1017D000F8F4E8E6F1E08EE691E0DF012D91C21722
:1017E00059F08A179B07D1F76C2F86E691E00E948B
:1017F0004F05CF910C94FB092191C21303C0DF0167
:1018000011971C928E179F07B9F70E94FB09ECCF26
:1018100080E28C0F883048F4C77081E001C0880FE7
:10182000CA95EAF70E94D409E4CFEBE5EC0FE33068
:1018300040F4F0E0EC5DFE4F808190E0CF910C949D
:101840007F05E8E5EC0FE73150F4F0E0EE0FFF1F05
:10185000E95DFE4F80819181CF910C946905C03F75
:1018600030F08C2F0E945B07CF910C941906CF911A
:10187000089580911F04882321F11092200488E1AB
:1018800090E020E40FB6F894A895809360000FBE16
:101890002093600083B7817F846083BF83B78160BA
:1018A00083BF7894889583B78E7F83BF0FB6F894F3
:1018B000A89580916000886180936000109260001C
:1018C0000FBE0895982F92959F7011F0892F94E084
:1018D000282F2695269511F09E5F822F869509F078
:1018E0009F5F892F08959C013A9521153F4150F53E
:1018F000FC01EE27F170BC0166277270AC01442731
:1019000054709C012227387094FF0EC080E1EF2BA9
:1019100009F480E0672B09F08062452B09F08064B0
:10192000232B89F08068089581E0EF2B09F480E093
:10193000672B09F08260452B09F08460232B19F096
:101940008860089580E00895CF93DF93EC010E94B2
:10195000A70BCE010E94730C9E01205E3109283036
:10196000310510F0CD2B21F4DF91CF910C94990B20
:10197000DF91CF910C94880BCF93DF93EC010E9401
:10198000730C9E01205E31092830310510F020973C
:1019900039F40E94A00B8C2FDF91CF910C94E00BB7
:1019A0000E948F0BF8CF662329F02091E00422607B
:1019B0002093E0049C013056211540E2340720F0CA
:1019C000305E2115304108F499270C94BC0CCF935C
:1019D000C82F5F9828980E94620C823021F08330D3
:1019E00011F0813021F4289A8C2FCF9108955F9ABD
:1019F000FBCF0E94E70C8093DF040C94670B80916F
:101A0000DF04982F9670963019F488600C94F90CC6
:101A1000877FFCCF21E030E001C0220F8A95EAF7F2
:101A200020958091DF0482230C94F90C9091CD01D4
:101A3000809589238093CD01282F277091F4282F3A
:101A4000082E000C330B9217130659F09091DF010A
:101A500092FD07C08595859585950E940A0D0C9489
:101A6000DA09089521E030E001C0220F8A95EAF7F3
:101A70008091DF04822B0C94F90C9091DF0192FD90
:101A800010C098E0899F90011124622B6093CD01D2
:101A90000E94320D0E9443059093CC018093CB01AC
:101AA00008950C94320DCF93DF93809108058350F5
:101AB00087FD14C090910605CCE0D0E0C91BD10988
:101AC000C55FDA4F90910505903108F06BC0883002
:101AD00009F453C01092AD041092080580911B01C7
:101AE00084FF3EC080911A018F3FD1F1C82F893009
:101AF00008F0C8E0982F9C1B90931A019091E10484
:101B000028E892279093E1048823E9F08091BD04AE
:101B10009091BE042091BC0426FF06C1FC012C2F2D
:101B2000A2EEB4E034913D9331962150D9F79C0157
:101B30002F5F3F4F8FEF8C0F820F932F911D90934C
:101B4000BE048093BD046C2F82EE94E00E94580383
:101B5000CC5FCC3019F08FEF80931A01C0931B013A
:101B600084E199B19C7031F48150D9F71092090544
:101B700010920405DF91CF9108958091AD048931D1
:101B800008F0A8CFE82FF0E0E154FB4F9E01285F5A
:101B90003F4F99919193C217D307D9F7885F8093EC
:101BA000AD049ACF9D3209F0A3C0883009F094CFDC
:101BB00083EC8093E1048AE580931B011092BC04BE
:101BC0008881807609F447C0803229F58981813087
:101BD00099F48C819D81892BF1F48FEA94E09093A4
:101BE000BE048093BD0488E09F81911131C09E8125
:101BF000981770F5892F2CC0823041F48EEA94E05A
:101C00009093BE048093BD0481E0EECF8A3029F426
:101C10008B818093AE0480E0E7CF8930E1F78A8141
:101C20009B818115924069F48C819D81892B49F4B7
:101C300081E08093BB048E819F819093BA0480934E
:101C4000B904888187FF52C08E8190E89093BC04CC
:101C500080931A0141CF2A811092EA04998191114F
:101C60000AC01092EB042AEE34E082E03093BE0406
:101C70002093BD04B9CF953029F4209309052AEEAD
:101C800034E0F4CF9630C1F49B81913049F4CE0119
:101C90000E949D0490E49093BC048F3F91F2A4CFE6
:101CA0009230A9F3933099F3913289F3923279F318
:101CB00090E49093BC0498CF983089F0993019F44F
:101CC0002093B704DCCF9A3071F09B30C1F69BE4CF
:101CD0009093ED04909322059093F904D0CF27EBD5
:101CE00034E081E0C3CF2AEE34E0FBCF8FEFADCFFD
:101CF0008091BC0487FFF0CE8091B9049091BA0422
:101D0000892B71F08091BB04813051F488818093DC
:101D1000B8041092BA041092B90410921A01DCCEE1
:101D20008EE180931B01D8CEDC012C2FE2EEF4E093
:101D30003D9131932150E1F7FACE1F93CF93DF937A
:101D4000E82F792F162FEA01888184FF1CC0298192
:101D500088E828272983CE010296DC012E2F372F11
:101D6000512F5E0FF90121912D939F01452F4E1B9D
:101D70001416C4F3612F0E9458031C5F1883DF916F
:101D8000CF911F9108958AE58883E5CFCF93DF93A4
:101D9000CFEBD4E08091F80484FF18C048EF54E002
:101DA00068E0CE010E949D0E289684E0CF3DD807C2
:101DB00089F78091F80484FF0CC048EF54E060E09C
:101DC00090E080E0DF91CF910C949D0E0E94530D26
:101DD000E1CF0E94530DEDCF2091210524FF05C0D6
:101DE00041E255E066E00C949D0E08959091AC049C
:101DF000981307C02091AA043091AB042617370727
:101E0000B9F08093AC047093AB046093AA04809300
:101E1000A7047093A9046093A8048091210584FF0E
:101E200007C041E255E063E087EA94E00C949D0E20
:101E30000895BC0184E00C94F60EBC0183E00C9480
:101E4000F60ECF93DF93CAE0D0E08091EC0484FFDC
:101E50001CC08091A5049091A604981799F028E0E1
:101E6000829FC00111244CEE54E068E08B5D9B4FD3
:101E70000E949D0E8091A50490E001968F70992795
:101E80008093A504DF91CF9108950E94530D8FE9AF
:101E90009FE00197F1F700C000002197B1F6F2CF63
:101EA000CF93DF93EC01A091A604B0E0CD010196A1
:101EB0008F7099272091A504281779F093E0AA0F35
:101EC000BB1F9A95E1F7AB5DBB4F98E0FE01019017
:101ED0000D929A95E1F78093A6040E94530D0E94FB
:101EE000210F88E0FE01AFEAB4E001900D928A95DF
:101EF000E1F7DF91CF910895019708F40895EFE994
:101F0000FFE03197F1F700C00000F6CFDF92EF92CB
:101F1000FF920F931F93CF93DF937C018B01D42EFD
:101F20008091180182FF8CC0C0919802D0919902D3
:101F3000CE15DF0521F0E114F10409F081C0809194
:101F400018018B7F8093180181FD73C080919602E8
:101F500090919702A801481B590B81E0209116012E
:101F6000309117014217530708F480E08170F82E72
:101F700080911801F0FA81F980931801FE0183E045
:101F8000F695E7958A95E1F7EE71FF27EA58FD4F40
:101F900020813181AE014F70552781E090E002C071
:101FA000880F991F4A95E2F7FF2009F444C0822B5D
:101FB000932B918380838091750281FF08C080916B
:101FC000180180618093180182E00E94CD09809100
:101FD000750285FF08C08091180180628093180106
:101FE00080E20E94CD096F2DCE010E94D30CDD202E
:101FF00031F080915D0385FF02C086FF3BC0809178
:102000006003909161030E947C0F809198029091EF
:1020100099029C013056211540E2340720F0305ED1
:102020002115304108F499270E94A40C0E949D0AB2
:102030001DC081E09BCF8095909582239323B9CFDB
:10204000C701992797013056211540E2340728F03F
:10205000305E2115304108F0C7010E94A40C809128
:102060009802909199028E159F0501F310939702A3
:1020700000939602DF91CF911F910F91FF90EF9007
:10208000DF9008951F93CF93DF93182FC0916203C1
:10209000D0916303893321F0C0916003D091610333
:1020A000812F0E94E00B209731F4812FDF91CF9197
:1020B0001F910C94A70B8FE99FE00197F1F700C0E7
:1020C00000002197F0CF0F931F93CF93DF93C42F7E
:1020D000D22FFC0182818823A1F0409366030E94E5
:1020E00043059093650380936403C77081E001C04A
:1020F000880FCA95EAF7DF91CF911F910F910C9449
:10210000A00B10916603141339C080916403909161
:1021100065030E94340520915A0330915B038217B6
:10212000930760F5C0E2CD0F1D17B9F080E2810F73
:10213000883040F4177081E001C0880F1A95EAF7E3
:102140000E94990BC83048F481E09D2F977001C020
:10215000880F9A95EAF70E94A00B802F0E944210E8
:10216000C83098F4D77081E001C0880FDA95EAF79B
:10217000DF91CF911F910F910C94990BC77081E063
:1021800001C0880FCA95EAF7F3CFDF91CF911F9175
:102190000F910895AF92BF92CF92DF92EF92FF928C
:1021A0000F931F93CF93DF93EC018AE0A82E288131
:1021B000222309F48CC02130C9F599818A8191309C
:1021C00021F422960E94421005C0923029F42296F2
:1021D0000E94E00B2196EBCF933021F422960E94CF
:1021E000A70BF8CF943011F02196F4CF229630E06F
:1021F00020E0AE014F5F5F4F8053990B8A3091050D
:1022000050F02150310930F38FE99FE00197F1F749
:1022100000C00000F6CFA29EB001A39E700D112455
:102220009C01260F371F8981EA01E3CFE22FF0E0FE
:10223000E856FF4FB490822F86958695869590E05C
:10224000FC01E857FF4FE4902770F12C022E02C0EA
:10225000F594E7940A94E2F731E0E322FF24FC01CD
:10226000E858FF4FC490D12C022E02C0D594C794D9
:102270000A94E2F731E0C322DD24FC01E859FF4F64
:10228000049110E002C0159507952A95E2F70170B8
:102290001127E114F10419F081EE0E94E00BC11442
:1022A000D10419F086EE0E94E00B8B2D0E944210A3
:1022B000CD2819F086EE0E94A70BEF2819F081EEC9
:1022C0000E94A70B012B09F485CF8CE27BCFDF9115
:1022D000CF911F910F91FF90EF90DF90CF90BF9023
:1022E000AF9008950F931F93CF93DF9302E413E011
:1022F000C7E6D1E0CE010E94CF2DF80181938F0176
:102300002196C938F1E0DF07A9F7CAECD3E0FE0156
:1023100085919491009711F0FC0109952896F4E0BD
:10232000C236DF07A1F7DF91CF911F910F9108957A
:102330000F931F93CF93DF93843030F5643020F5F3
:102340004A3010F5C42FD0E0CC0FDD1F24E1629F8E
:10235000C00DD11D112430E5839FC00DD11D112466
:10236000CE0187960E94CF2D082F10E0102F002756
:10237000CE0188960E94CF2D9801282BC901DF91AC
:10238000CF911F910F91089590E080E0F8CF462FF4
:102390002091730230917402232B91F47E3F39F423
:1023A0006E3F71F4809171029091720208958430B1
:1023B00038F4743028F46A3018F4672F0C949811AC
:1023C00090E080E00895CF92DF92FF920F931F93E9
:1023D000CF93DF936C010091DF048091D201082B31
:1023E000C7E0D0E010E0FC2EC8010C2E02C095958D
:1023F00087950A94E2F780FD0CC02197A0F7F12C95
:102400008F2DDF91CF911F910F91FF90DF90CF9093
:102410000895B6018C2F0E94C7110E941F080197D2
:1024200061F3EECFCF93DF93EC010E94E311BE0185
:102430000E94C711DF91CF910C941F08FC01868187
:102440009781009721F00E941F080C94480B80810F
:1024500091810E941212F9CF1F93CF93DF9300D086
:1024600000D00F92CDB7DEB749835A8389819A8114
:102470006623B9F02223A9F00E94E311182F682FD8
:1024800089819A810E94180B69817A81812F0F902E
:102490000F900F900F900F90DF91CF911F910C94A0
:1024A000C7110E94EB0A182FEFCFFC01262F86815F
:1024B0009781009739F440815181628173818481D1
:1024C0000C942C12089583E290E00E94CF2D813A63
:1024D00089F484E290E00E94CF2D833859F485E29C
:1024E00090E00E94CF2D91E0813309F090E0892F98
:1024F0008170089580E0FCCFCF9384E090E00E944B
:10250000CF2DC82F82E290E00E94CF2D982F8C2FE4
:10251000CF9108950F931F93CF93DF9302E413E0BD
:10252000C7E6D1E0CE010E94CF2DF80161918F0165
:10253000681719F0CE010E94DD2D2196C938F1E00F
:10254000DF0781F7DF91CF911F910F910895E2E4AA
:10255000F3E0128E138E8FEA90E09183808385E002
:10256000848F88E893E1938382834CE251E0558322
:10257000448322E330E03783268385E090E091872F
:1025800080878AE090E09387828764E170E07587B6
:1025900064875787468744E650E0518B408B48E07C
:1025A00050E0538B428B48E250E0558B448B378B85
:1025B000268B28EC30E0318F208F158E978F868FF9
:1025C00080E590E091A380A30E948A120C9472117E
:1025D000CF93DF93C9E2D2E060E0CE010E94DD2D0F
:1025E0002196C11584E0D807B9F7DF91CF910895FE
:1025F0000F931F93CF93DF938901843048F56430A4
:1026000038F54A3028F521153C4531F420916F0208
:1026100030917002232BE1F0C42FD0E0CC0FDD1FEE
:1026200094E1699FC00DD11D112490E5899FC00DD3
:10263000D11D1124612FCE0187960E94DD2D602FC0
:10264000CE018896DF91CF911F910F910C94DD2DD3
:10265000DF91CF911F910F910895CF93C82F6FEF06
:10266000811161EA83E290E00E94DD2D6FEFC111DC
:1026700063E884E290E00E94DD2D6FEFC11161E319
:1026800085E290E0CF910C94DD2DCF93C091DF01D6
:10269000C2FB992790F9981799F080FBC2F9C09373
:1026A000DF016091DE0184E090E00E94DD2D6C2F5F
:1026B00082E290E00E94DD2D82E0CF910C94160D15
:1026C000CF9108957F928F929F92AF92BF92CF92B7
:1026D000DF92EF92FF920F931F93CF93DF93CDB7CB
:1026E000DEB764970FB6F894DEBF0FBECDBFA090E3
:1026F0006F02B090700281E090E09093700280933E
:102700006F0284E8C82E82E0D82E00E0760110E047
:1027100015C0F40125913491472D612F802F0E941F
:10272000F81282E0880E911C7394EAE07E12F1CFD9
:10273000F4E1EF0EF11C1F5F143019F04701712C0A
:10274000E8CF0F5F80E5C80ED11C0430F9F60E9477
:10275000A7121A8219821C821B821E821D82188671
:102760001F8288EC90E09A87898709E811E04AE0A7
:1027700050E0B801CE0101960E94012E065F1F4F66
:10278000093DE1E01E0799F77E01FBE0EF0EF11C29
:102790008AE0F70111928A95E9F74AE050E0B80122
:1027A000C7010E94012E065F1F4F0932F2E01F078A
:1027B000A1F7B0927002A0926F0264960FB6F894DF
:1027C000DEBF0FBECDBFDF91CF911F910F91FF9064
:1027D000EF90DF90CF90BF90AF909F908F907F90C1
:1027E000089580E00E942D1360E086E290E00E9450
:1027F000DD2D0E9462130E94E81281E00C942D13DB
:102800009B01883070F49AE0899FB00111246757CA
:102810007E4F4AE050E0C9010E94BF2D90E080E069
:1028200008958FEF9FEF08958F929F92AF92BF927E
:10283000CF92DF92EF92FF920F931F93CF93DF938C
:10284000CDB7DEB72A970FB6F894DEBF0FBECDBF67
:1028500009E613E0F12CE12C8BECC82E85E2D82E92
:1028600095EFA92E95E2B92E24E3822E25E2922E31
:10287000F801D182C082B382A28295828482F58AD5
:10288000E48ABE016F5F7F4F8E2D0E940014892B5A
:1028900029F489859A85F801938B828BFFEFEF1AD3
:1028A000FF0A0A5E1F4F88E0E816F10409F72A962E
:1028B0000FB6F894DEBF0FBECDBFDF91CF911F9151
:1028C0000F91FF90EF90DF90CF90BF90AF909F90CF
:1028D0008F900895CF92DF92EF92FF920F931F9304
:1028E000CF93DF93CDB7DEB72A970FB6F894DEBF4C
:1028F0000FBECDBFEFE1F2E080E5DF011D928A95CA
:10290000E9F7EEEFF2E088E3DF011D928A95E9F73F
:102910008FE1C82E82E0D82E7F0109ED11E0F7018A
:10292000D182C0824AE050E0B801CE0101960E94F7
:10293000BF2D88E0FE013196D60101900D928A9557
:10294000E1F789859A85D70113969C938E93129708
:10295000BAE0CB0ED11CE7E0EE0EF11C065F1F4F74
:102960000932F2E01F07D9F62A960FB6F894DEBFB7
:102970000FBECDBFDF91CF911F910F91FF90EF90D0
:10298000DF90CF90089510927502E8E6F1E086E0BE
:10299000DF011D928A95E9F70C94670B6AEE7EEFD2
:1029A00090E080E00E94FB2D60E082E090E00E94D9
:1029B000DD2D60E083E090E00E94DD2D1092D201D9
:1029C00060E084E090E00E94DD2D60E082E290E033
:1029D0000E94DD2D60E085E090E00E94DD2D60E04A
:1029E00086E090E00E94DD2D6FEF87E090E00E948E
:1029F000DD2D40E050E0BA0188E090E00E94EF2D2C
:102A000060E08DE090E00E94DD2D40E050E0BA01F2
:102A100088E190E00E94EF2D60E087E190E00E9465
:102A2000DD2D40E050E0BA018CE190E00E94EF2DF6
:102A300070E060E080E290E00E94FB2D40E050E01A
:102A4000BA0188E190E00E94EF2D80E00E942D13F2
:102A50000E94F11340E050E0BA018FE090E00E9444
:102A6000EF2D40E050E0BA0183E190E00C94EF2DAF
:102A70008F929F92AF92BF92CF92DF92EF92FF928E
:102A80000F931F93CF93DF9300D000D0CDB7DEB765
:102A90007C01DC0113964D915C91149711966C9119
:102AA00011978C910E94A1058111E1C061E0C701DD
:102AB0000E9455128C01F7018281811177C0D701E4
:102AC00012968C918111B1C00031BFE51B0709F44A
:102AD00056C10131EFE51E0709F455C1680127E52C
:102AE000D21A882309F451C13FEFC316D10409F06B
:102AF00008F47DC180915D0380FF39C00E944305C9
:102B00006C01D70112968C91882309F4EDC1809154
:102B1000180182FF08C026ED31E040E0B60190E0E8
:102B200080E00E94860F0B31BCE51B0709F4CEC183
:102B30000C31ECE51E0709F4CFC190911801892FE3
:102B40008E7F90FF81600A31FCE51F0709F4C7C141
:102B5000C8019056811520E2920728F0905E8115F9
:102B6000904108F0CFC11092990210929802033F51
:102B7000BCE51B0709F416C308F0B4C2083DFCE528
:102B80001F0709F409C3093D2CE5120709F422C304
:102B9000073D3CE5130709F0B1C206E221EE41EE24
:102BA00067ED7CE5C7010E94631051C08091000170
:102BB00090910101019609F482CF69E6C62E63E087
:102BC000D62EB12CA12C9924939480910001909140
:102BD00001018A159B050CF472CFF60186818823CA
:102BE000E9F0818592850817190739F48091670308
:102BF000909168030817190789F0D6011F969C92D7
:102C00001F971C961C930E931B97C6010E947C0A6B
:102C1000C60106960E94370A1092E004BFEFAB1A75
:102C2000BB0AE6E1CE0ED11CD0CF980122513F4520
:102C30002031310508F0F3C68FEF93E00E94CF2DCD
:102C40005EEED52ED00E09E212E0882369F1809164
:102C5000CD01877061F0D70112968C91882339F0ED
:102C60008091DF0182FD03C082E00E94160D0F906B
:102C70000F900F900F90DF91CF911F910F91FF90C8
:102C8000EF90DF90CF90BF90AF909F908F9008957E
:102C90000115F4E01F07D9F2C8010E94CF2D811160
:102CA00001C0DA940F5F1F4FD110F2CF19821A8240
:102CB0001B821C82CC24CA9448012FEF821A920AEC
:102CC000C8010E94CF2D89831A82882309F4BFCFBF
:102CD000813009F048C0580132E0A30EB11CC40194
:102CE0000E94CF2D982E8A83882309F4B0CFC50186
:102CF0000E94CF2DD82E8FEF890D833068F45801B4
:102D000043E0A40EB11CDB82DD2021F0CE01019650
:102D10000E94CA108501D0CF54E09512FBCF580114
:102D200084E0A80EB11CC80103960E94CF2DDD20BF
:102D300009F48DCF882309F48ACF8150990BC89E5E
:102D40009001C99E300D1124AD2DA150BB0BCD01BA
:102D5000820F931F0197F0F2EFE9FFE03197F1F74F
:102D600000C00000F7CFCE0101960E94CA105401A6
:102D7000D1CF81E00E94320D0E94FF0C68CF81E02C
:102D80000E940A0DF9CF82E0FBCF4FEFC416D104A9
:102D900011F008F0AFCE65E172E08C2D0E940014B6
:102DA000892B29F586E18C9DF0018D9DF00D112474
:102DB000E759FC4F8681813009F062C0809115028D
:102DC00090911602892B99F0809117029091180228
:102DD000892B69F08091190290911A0220911B02AF
:102DE00030911C02822B932B892B09F453C08091C4
:102DF0000001909101018C159D0524F4D0920101F0
:102E0000C0920001F701828196E19C9D50019D9D39
:102E1000B00C1124950127593C4F6901D9015096F6
:102E20008C935097928116968C911697992309F45A
:102E30003FC01A961C930E9319978F5F16968C932A
:102E40000E944305F601968785878091D10187838B
:102E50008091E00490917502892B80870190F08128
:102E6000E02D309741F0D60154966D917C91C501CB
:102E700081599C4F099510936803009367033ACEDC
:102E8000823009F0B4CF8091190290911A02892BF7
:102E900009F4ADCF26E12C9DC0012D9D900D11248C
:102EA00087599C4FDC0150961C920E947C0A9FCF50
:102EB000882309F41FCEF9018189882309F41ACEE9
:102EC000C50181599C4F0E94370A14CE8091180188
:102ED0008160809318013CCE809118018E7F809391
:102EE00018010E949D0A34CE809118018F7E013E08
:102EF000110531F0053E1105C9F4809118018F7D4F
:102F0000809318018091180180FF31CED70112966D
:102F10008C910832110528F50E31110508F074C0A6
:102F20000430110580F581111ECE21CEC8019056C6
:102F3000811540E2940720F0905E8115904110F7D2
:102F40008091180182FF13CE80915F0381FD0FCE27
:102F500026ED31E040E0B60190E080E00E94860F6F
:102F600006CE0933110558F40D32110518F40B3251
:102F70001105C9F690915D0392FDD5CF08C00436C6
:102F80001105C1F3D0CF90915D0394FDCCCF882380
:102F900009F4A1C0909175028091D101282F292BAD
:102FA000322F3D7FB1F11092990210929802309128
:102FB0005D0331FD2EC0F80143E0F695E7954A9593
:102FC000E1F7EE71FF27EA58FD4F98012F70332784
:102FD00081E090E002C0880F991F2A95E2F7809562
:102FE000909520813181822393239183808360E0B7
:102FF000C8010E94D30C8091D1018D7F0E94B2093B
:1030000082E00E94160D23CE90915D0393FD8BCF3D
:10301000BECF38E0F701A6EDB1E001900D923A95F0
:10302000E1F71092D8011092DA011092D901A09024
:103030009802B09099020A151B05B1F530915D0315
:1030400035FF32C04091180141FB992490F841FFAF
:1030500002C036FF29C04091960250919702B601F6
:10306000641B750B40915A0350915B0364177507FD
:10307000D8F491FF08C080911801806180931801F5
:1030800082E00E94CD098091750285FF08C0809181
:10309000180180628093180180E20E94CD09692D99
:1030A000C5010E94D30CD3CD9091180121FB91F959
:1030B000909318018D7F0E94B2091093990200939A
:1030C0009802D0929702C092960280911801846073
:1030D0008093180195CF970140E0B601C8010E9486
:1030E000860FB5CD053F4CE5140709F467C008F419
:1030F0005FC0063F8CE5180709F466C0D701129639
:103100003C91332309F497C4109266030330BDE564
:103110001B0708F065C00A3FECE51E0730F4C80144
:1031200082509C45449708F060C00E947C129093A6
:10313000DF018093DE0100312CE5120709F446C15E
:1031400008F0C2C008304CE5140709F42DC108F09E
:1031500094C004308CE5180709F418C108F07AC04F
:103160000230ACE51A0709F40BC18091DE018260E0
:1031700003301C4509F407C16091DE011091DF01A5
:1031800084E090E00E94DD2D612F82E290E00E94B9
:10319000DD2D0E94C3145BCD07E225EE45EE68ED00
:1031A0007CE500CD06E221EE40EE63EF7CE5FACC53
:1031B00007E225EE44EE64EF7CE5F4CC06E221EE76
:1031C00042EE65EF7CE5EECC07E225EE46EE66EFDB
:1031D0007CE5E8CC08E221E045EE69ED7CE5E2CC57
:1031E0000136FDE51F0709F4A0CF06314CE51407B1
:1031F00009F026C180917502982F9A7A20915C037C
:1032000020FF04C0482F447409F090E021FF04C05F
:10321000482F417109F090E022FF04C0482F487800
:1032200009F090E023FF03C0827209F090E033239D
:1032300009F4F1C081E0911101C080E080936E013A
:1032400069E2911165E386E691E00E944F050E94D4
:10325000FB09FDCC8091DE0180610630ECE51E07A4
:1032600009F491C08091DE01886007301C4508F4A4
:103270008AC08091DE01806286C08091DE018D7FF0
:103280000C302CE5120709F47EC070F48091DE0149
:103290008C600A304CE5140709F475C008F488C046
:1032A0008091DE018E7F6FC00E308CE5180709F427
:1032B00085C08091DE018B7F0F301C4508F463C010
:1032C0008091DE018F7E5FC00C3FACE51A0709F4E8
:1032D00079C068F50431ECE51E0709F48BC080F471
:1032E00002312CE5120709F475C08091DE018F7B55
:1032F00003311C4508F447C08091DE01837F43C041
:103300000A3F4CE5140709F445C008F049C00531EF
:103310001C4509F031CF8091DE0182FB992790F99D
:1033200021E0922790FB82F990FB83F92CC00115D4
:103330009DE5190709F454C088F48091DF0183608A
:103340000E3FBCE51B0749F18091DF018D7F0F3FE8
:103350001C4518F18091DF018C7F1FC00230FDE514
:103360001F0709F456C008F44EC001361D4509F088
:1033700003CF9091DE01892F8F7E94FF806103C07F
:103380008091DE0181608093DE01F6CE8091DE01C6
:103390008460F9CF8091DF0181608093DF01ECCE02
:1033A0008091DF018260F9CF8091DE018064EBCFF4
:1033B0000E94C3148091DE018068E5CF8091DE0118
:1033C000877FE1CF8091DF018E7FE7CF8091DE01A3
:1033D0008F7DD9CF0E94C3148091DE018F77D3CF28
:1033E0008091DF01982F909591708E7F892B90FBB3
:1033F00081F9D3CF0E94C3149091DE01892F97FBEE
:1034000087F98058C0CF61E08EE090E00E94DD2D0A
:10341000B3CE60E0F9CF80916E0181110FC089E2D7
:10342000E8E6F1E02EE631E09191891303C0DF0177
:1034300011971C922E173F07B9F709CF85E3F0CFFC
:103440000A354DE5140709F469C008F044C00115B8
:103450008CE5180709F451C00E3D1C4509F45BC00A
:10346000F70186819781009709F45CC00E941F08CC
:10347000182F092FF701D280C580C2943FE0C322E4
:103480008091CD018770C1F0AD2CDD20B1F0892F86
:10349000807F803421F080E2810F883068F0809155
:1034A000DF0182FD09C082E00E94160D8091CD01EE
:1034B0008770AA24A3948111A12C902E92942FE0BE
:1034C0009222FBE0F91508F4BAC0E92DF0E0E75DBF
:1034D000F14D0C948C2D0B35ADE51A0709F10C3527
:1034E0001D4509F0BDCF8091DF0182FB882780F95F
:1034F00091E089270E944513B3CF0E94C314EFEFD8
:10350000F4E32CE0E150F0402040E1F700C000007F
:103510000E941F059CCB0E94CE1499CB81E0EACF7C
:1035200080E0E8CF828100811181882369F0C801A1
:103530000E94E311D82E682FC8010E94180BB80111
:103540008D2D0E94C71192CFC8010E94EB0AD82E80
:10355000F6CF202F2F70B22E802F807F19F0B294DB
:1035600090EFB922DD20A9F0BB2059F080E2810F55
:10357000883010F0111107C08B2D0E94D4090E94D1
:10358000FB09812F5AC08091E004B82AB092E00470
:10359000F6CF812F0E94A70BBB2009F450C080E218
:1035A000810F883010F0111104C08B2D0E94CD09BD
:1035B00003C08B2D0E94C6090E94FB0940C0302F1A
:1035C0003F70B32E802F807F803219F0B29480EF4D
:1035D000B822112321F1113009F4A4C0DD2009F42F
:1035E000ADC0CC2009F47DC020E0D7014C911196EC
:1035F0005C91119712966C91129713967C91139788
:1036000014968C910E942C1280915F0381FDB9CF9A
:10361000F701858180FFB5CF8F70858362C080916F
:10362000DF0182FF40C0DD20C1F1BB2029F08B2DDE
:103630000E94D4090E94FB0980E00E94E00BA92DA2
:10364000A850BB0B149710F40E949505812F902F62
:103650000E94480B8111C4C11092700110926F0139
:10366000AA20B1F08091CD0180FD12C0D701129641
:103670001C928595859585950E94320DC7010E9403
:1036800038158091CD018595859585950E940A0D07
:1036900060E0C7010E945512EACA80E00E94A70BB1
:1036A000BB2069F282CFDD2001F1C11004C08091FE
:1036B000D1018B2917C041E0C41206C08091D1010D
:1036C0008B290E94B209BBCF80915E03823078F3D0
:1036D000C812EDCF0E94A7098091CA01B812B0921A
:1036E000CA018B2D0E94A00BAACFC11006C00E9458
:1036F000A7098B2D0E94990BA2CF80915E0351E008
:10370000C5120BC0823008F49ACF809175028B21CC
:1037100009F495CF0E94BB0AEACF823040F3C81269
:10372000E6CF8DCFDD2029F085E08C1508F487CF1A
:10373000D8CF94E09C1508F482CFDBCFCC20C9F21F
:103740008091620390916303193321F080916003AB
:10375000909161030E947C0F812F0E94A70B6FCF75
:10376000802F86958695837069F0813009F067CF48
:10377000812F902F9370D11002C090E080E00E94C2
:1037800069055DCF812F902F9370D11002C090E01A
:1037900080E00E947F0553CF812FDD2029F00E9419
:1037A0005B070E9419064BCF0E944006FACF802F7C
:1037B000837091F5D11043CF412F429546954770C4
:1037C000440F440F812F8F70042E01C0880F0A947C
:1037D000EAF7212F207114FF07C02FE030E001C06D
:1037E000220F4A95EAF72095302F3695369533709B
:1037F000323069F050F44091D201313029F0822BFF
:1038000084230E94840B1BCF842B822BFACF282B7E
:103810008091D2018227F5CF8695DD2011F0802F8F
:103820008170882309F40BCF412F4295469547704C
:10383000440F440F812F8F70042E01C0880F0A940B
:10384000EAF7212F207114FF07C02FE030E001C0FC
:10385000220F4A95EAF72095302F3695369533702A
:10386000323069F050F44091DF04313029F0822B7E
:1038700084230E94F90CE3CE842B822BFACF282BD1
:103880008091DF048227F5CFF02FFF70BF2EDD205F
:1038900029F08F2F0E94320D812F24CF812F0E947B
:1038A000990B8B2D0E940A0DCACE123F89F160F44C
:1038B000103FB9F0113F81F0DD2009F48CC0C11038
:1038C00060CE802F8F7128C0133F49F1143FA1F7BC
:1038D0008091DF0182FF2FC0802F8F71DD2011F3D7
:1038E0001BC0DD2081F024E02C1508F4A8CE202F89
:1038F0002F7181E090E001C0880F2A95EAF790913E
:10390000DF048927B6CF35E03C1508F498CEEFCF19
:10391000802F8F71D110C6CF0E94320D90CE80E0E3
:10392000DD2009F4A6CF81E0902F9F7101C0880FA0
:103930009A95EAF79ECF80915E038230A0F1809144
:10394000CA01DD20F1F00E94CD098091CD01877080
:10395000843041F40E94DA09802F8F710E940A0D91
:10396000A12C6DCE80915E03C816D0F7402F4F7109
:10397000B42E842F0E94320D63E08B2D0E943D0DEA
:10398000EFCF0E94D40980915E03C81640F00E94D8
:10399000DA090E94BB0A64E0802F8F71EFCF81E0CB
:1039A0000E94160DDDCFDD2059F0502F5F71B52E2E
:1039B000852F0E94320D63E08B2D0E943D0D3FCE7E
:1039C00081E00E94160D81E08C1508F038CE82E06F
:1039D0000E94160D34CEC110B3CE802F8F7162CFEE
:1039E000DD2019F0C11038CE3BCEC11035CE20E01D
:1039F000F701408151816281738184810E942C1280
:103A000080915F0383FF28CE80916F0190917001B8
:103A1000029709F021CE812F0E9442101DCE003165
:103A2000FFE51F0709F4A5C901312FE5120709F0C9
:103A300055C882E09FC906311C4509F011CDDACB8B
:103A4000CF92DF92EF92FF920F931F93CF93DF936A
:103A500080918501807F31F480918201C091C901FC
:103A600081110BC0DF91CF911F910F91FF90EF90CB
:103A7000DF90CF9008952196C770809188018C17B0
:103A800089F3F0908001E0908101C0908301D09093
:103A90008401A6016E2D8F2D0E94A105D0E0811119
:103AA000EACF8E0183E0000F111F8A95E1F7F8013C
:103AB000E757FE4F81818E11DECF80818F11DBCFE2
:103AC00082818111D8CFE380F480EC18FD0860E09A
:103AD00080E891E00E94551280915A0390915B0317
:103AE000E816F90640F6809185018F708061809319
:103AF0008501F801E257FE4F80818F7080618083DD
:103B000080E891E00E943815DF91CF911F910F91CD
:103B1000FF90EF90DF90CF900C94E10A3F924F928C
:103B20005F926F927F928F929F92AF92BF92CF924D
:103B3000DF92EF92FF920F931F93CF93DF93CDB756
:103B4000DEB765970FB6F894DEBF0FBECDBF8C0110
:103B500085E0F801DE01519601900D928A95E1F71A
:103B6000D8014C9011965C9011971296EC90129798
:103B70001396CD90DC9060E080E891E00E945512B1
:103B800080E8A82E81E0B82E809083019090840177
:103B9000A40160918101809180010E94A1058111A1
:103BA000CAC1F0908201F601E819F9094F0160E0FD
:103BB000FF2009F46DC1C5010E94551260905A039F
:103BC00070905B03309085018614970408F013C150
:103BD0004091830150918401B0908001A0908101B7
:103BE000832D807F6A2D09F0ADC08B2D0E94A10529
:103BF000FE2C81113BC0D80111968C9111978A112E
:103C000035C08C918B1132C0209186013091870193
:103C100016968D919C912817390741F5E11026C021
:103C2000832D8F7080618093850180E891E00E94F0
:103C3000381580918501F80185838F2D65960FB623
:103C4000F894DEBF0FBECDBFDF91CF911F910F91D2
:103C5000FF90EF90DF90CF90BF90AF909F908F90AC
:103C60007F906F905F904F903F900895F4EF6F16A4
:103C7000F1E07F0620F480915F0380FF21C0A60160
:103C8000652D842D0E94A105811118C081E08E252B
:103C900080FF16C04E2D652D842D0E94C10A8823F9
:103CA00079F080E891E00E94381588E0E0E8F1E0E2
:103CB000DF011D928A95E9F7F12CBFCF80E0E8CFB4
:103CC000A601652D842D0E94A105811124C081E0EB
:103CD0008E25B82FB170CB2E80FF2BC04E2D652DB9
:103CE000842D0E94C10AD82E811123C0498A5A8A84
:103CF00089899A890E941212292F22952F702230C9
:103D000060F0243088F49F7061F0F8019581907F15
:103D100041F4FD2C92CF80E0DCCF9F7011F088231E
:103D2000C1F3805E8830A8F3C8010E943815DC2CEE
:103D3000F0CFEE2009F481CF8091850181608093DE
:103D40008501BACF8B2D0E94A105811124C0D80115
:103D500011968C9111978A111EC08C918B111BC0EA
:103D6000209186013091870116968D919C9117972D
:103D70002817390781F4E1100EC015963C92C8014E
:103D80000E94381588E0F801A0E8B1E001900D929A
:103D90008A95E1F752CFC8010E941E12882339F19B
:103DA000EE2029F1809185018032A0F020918001E0
:103DB000309181013A8729871B86DD86CC868E87E4
:103DC0008091860190918701988B8F87CE0109960B
:103DD0000E94381588E0F801A0E8B1E001900D924A
:103DE0008A95E1F70E94201DFF24F39426CFC80195
:103DF0000E943815F9CF832D807F09F452CF90901F
:103E00008001809081014091830150918401682D4F
:103E1000892D0E94A10581111CC0F80181818811A2
:103E200018C08081891115C02091860130918701C9
:103E3000868197812817390761F4E1100AC035821D
:103E4000C8010E94381588E0D5011D928A95E9F7CE
:103E5000F4CEC8010E941E12882349F2EE2039F2E6
:103E600080918501803208F4B5CF20918001309196
:103E700081013A8329831B82DD82CC828E838091EB
:103E800086019091870198878F83CE010196A0CFFC
:103E900080E891E00E94551280915A0390915B0353
:103EA0008816990680F6FE2CEE2009F4A0CFE0904B
:103EB0008001D090810140918301509184016D2D4A
:103EC0008E2D0E94A105811128C0F80181818D11DC
:103ED00024C080818E1121C02091860130918701FC
:103EE0008681978128173907C1F480915F0382FD8D
:103EF00049CF9091850190FD45CF907F09F442CF45
:103F0000809185018583903F09F439CF982F907F68
:103F1000905F8F70892B858332CFC8010E941E125B
:103F2000811158CF80918501816080938501C801FE
:103F30000E94381582CEEE2009F459CFC8010E94A4
:103F40001E12F82E882309F452CF88E0F801A0E869
:103F5000B1E001900D928A95E1F7809180019091F6
:103F600081010E9412120E94201D67CECF93DF9321
:103F7000CDB7DEB760970FB6F894DEBF0FBECDBFEA
:103F800029873A874B875C876D877E878F87988BD9
:103F9000CE0109960E948E1D81112FC088E0FE017E
:103FA0003996DE01119601900D928A95E1F74C85C4
:103FB0005D856A8589850E94A10581111EC0A09139
:103FC0008801B0E0CD010196877099272091C90141
:103FD0002817190609F193E0AA0FBB1F9A95E1F77C
:103FE000A757BE4F98E0FE01319601900D929A9529
:103FF000E1F7809388010E94E10A8091C9019091C4
:104000008801891317C060960FB6F894DEBF0FBE03
:10401000CDBFDF91CF9108950E94C3141092880103
:104020001092C90188E0E0E8F1E0DF011D928A9575
:10403000E9F7E3CFB8E08B9FC001112487579E4F6B
:104040000E948E1D8823F9F28091C90190E00196AB
:10405000877099278093C901D0CFEF92FF920F9379
:104060001F93CF93DF9380919D02882361F0C091CD
:104070009C028CE0F82E80919D02C81758F0109297
:104080009D0210929C02DF91CF911F910F91FF90A2
:10409000EF900895EE24E394EC0EE0929C020C2F36
:1040A00010E0CF9DE0011124C256DD4F4B815C81B1
:1040B000698188810E94A10581111BC08E819F8129
:1040C000892B21F488859985019651F428813981BD
:1040D0004A815B816C817D818E819F810E94B61FA8
:1040E000F09EF001F19EF00D1124E256FD4F148276
:1040F0001382CE2DC0CF1092410310924003109234
:10410000190180913F0380933E030E94DA050C94CD
:104110002D203F924F925F926F927F928F929F924B
:10412000AF92BF92CF92DF92EF92FF920F931F93C5
:10413000CF93DF93C0913E0397E0892E01E010E01A
:104140002CE0322E3EEF932E4424439480913F0383
:104150008C1315C00E942D20DF91CF911F910F91DC
:10416000FF90EF90DF90CF90BF90AF909F908F9097
:104170007F906F905F904F903F900C94DA05D0E065
:10418000FE01EE0FFF1FEA5CFC4F80819181889E4B
:10419000D001899EB00D1124A250BD4F14962C91D0
:1041A0001497211157C050909D02EEE9F2E030E0E3
:1041B00020E0712C5D01251508F04AC0E284F384EB
:1041C000D501CD90DC906FEF7FEF612C462D50E054
:1041D000DA01AA0FBB1FAC0DBD1D0D90BC91A02D27
:1041E000109731F0EA16FB0609F4BA016394EECF9A
:1041F0006F3F7607A1F1D80102C0AA0FBB1F6A95D5
:10420000E2F77A2AB80102C0660F771F6A94E2F7D4
:10421000AB014150510974161506F9F4329EF001B4
:10422000339EF00D1124E256FD4F889ED001899EE9
:10423000B00D1124A250BD4F12962D913C911397B1
:1042400037832683908291829187808715964C923E
:104250000E94AC052196C37079CF148213822F5F20
:104260003F4F3C96A8CF6F927F928F929F92AF92D2
:10427000BF92CF92DF92EF92FF920F931F93CF9353
:10428000DF93CDB7DEB728970FB6F894DEBF0FBE29
:10429000CDBF8E010F5F1F4F88E0F80111928A9504
:1042A000E9F795E5E92E91E0F92E6801662463941B
:1042B000712C33E6832E31E0932EF70181917F013B
:1042C0008F3F09F445C0F894E82FE295EF70F0E0D5
:1042D00021A18F70A30102C0440F551F8A95E2F7F8
:1042E000CA01922F982B91A392A18095892382A332
:1042F000789400C0E9E5F1E021E030E0B12CA12C98
:1043000041914F3F09F478C0A42FA295AF70B0E05F
:1043100090968C9190E04F7002C0959587954A9544
:10432000E2F780FD69C0C901A82AB92A220F331F0C
:104330008E169F0629F7F701319780818F3F11F084
:104340000E94C50750EA5A95F1F7F601B182A082A2
:10435000F2E0CF0ED11C29E5E21621E0F20609F0C9
:10436000ACCF48E050E0B80180EE91E00E94A22D71
:10437000DD24D394009709F4D12C892B09F43FC094
:1043800088E0F801A0EEB1E001900D928A95E1F786
:1043900081E08093D5010E9443059093D4018093DE
:1043A000D3018091D3019091D4010E9434050597E7
:1043B00050F18091E0019091E1019093F701809399
:1043C000F6018091E2019091E3019093F9018093CD
:1043D000F8018091E4019091E5019093FB018093B5
:1043E000FA018091E6019091E7019093FD0180939D
:1043F000FC011092D50107C090E080E095CF80913C
:10440000D5018111CECF809100019091010110E082
:1044100006E1019609F06BC080911901811171C00C
:1044200080915D0380FF1EC08091180182FF1AC039
:104430000E9443052091960230919702AC01421BE5
:10444000530B20911601309117014217530750F07A
:1044500026ED31E041E0BC018091980290919902F3
:104460000E94860F8D2D28960FB6F894DEBF0FBEE2
:10447000CDBFDF91CF911F910F91FF90EF90DF9013
:10448000CF90BF90AF909F908F907F906F90089546
:10449000089FF001099FF00D1124E759FC4FE288B5
:1044A000F388E114F10421F4E0905A03F0905B03E7
:1044B000089FF001099FF00D1124E759FC4F8681F8
:1044C0008823A1F0858596850E943405E816F906B3
:1044D00068F4109F70011124C70187599C4F0E94F6
:1044E0007C0AC70181599C4F0E94370A1F5F812FA8
:1044F00090E020910001309101012817390744F61E
:104500008BCF8091400390914103009709F488CFAD
:104510000E94340520919A0230919B022817390796
:1045200008F07ECF90913E0380913F03981759F099
:104530000E94892010929B0210929A0210924103CD
:10454000109240036DCF0E942D20109241031092D3
:1045500040030E94DA0564CF2F923F924F925F9200
:104560006F927F928F929F92AF92BF92CF92DF9283
:10457000EF92FF920F931F93CF93DF93CDB7DEB7E8
:1045800069970FB6F894DEBF0FBECDBF942F498B4D
:10459000252F5A8B6B8B7C8B8D8B4C895D89622F81
:1045A000892F0E94A105811109C080916F0190910E
:1045B000700101969093700180936F018B89811136
:1045C0001092E0041D861E861F86188A85E0FE0173
:1045D0007196DE01199601900D928A95E1F780910E
:1045E000DF0182FD1EC08091440390914503892B19
:1045F000C1F00E9443052091CB013091CC01821B78
:10460000930B20914403309145038217930720F0C8
:104610008091CD0182FFF5C10E94E10981110E94C4
:10462000A7094C855D856A8589850E94A105811150
:1046300011C061E0CE0109960E9455126C018B8574
:1046400027EFC2162CE5D20681F4882321F181E000
:104650008093190129853A854B855C856D857E851A
:104660008F8598890E94B61FC5C038EFC3163CE5F8
:10467000D30629F4882379F00E947B20EBCF49EF01
:10468000C4164CE5D40639F4882329F08091190129
:104690008111F2CFDCCF0EEF12E0512CB12CA12C06
:1046A00022242394312C2EEF422EF8014081518197
:1046B00088248A94982C20E0822F90E0FC01EE0F51
:1046C000FF1FE40FF51F608171816115710531F0E5
:1046D000C616D70609F44C012F5FEECFF12CFFEF81
:1046E0008F169F0609F448C0F8014481F090190123
:1046F0008F2D411180E0F82FF170FF2EF801E58039
:1047000086819B85992309F40CC1FF2009F409C116
:104710006090580370905903E11012C0A10101C0CC
:10472000440F8A94EAF7842B868380919A029091B1
:104730009B028615970520F470929B0260929A0264
:10474000C10102C0880F991F2A95E2F70197F8016D
:1047500026812817190681F4809140039091410326
:10476000009709F460C00E9434056816790608F0C5
:104770005AC021E0F80124835F28FFEFAF1ABF0A77
:10478000095F1F4F28E0A216B10409F08ECF8B8578
:10479000882309F421C1552009F41EC10E94430554
:1047A000909341038093400380919D02883010F5DF
:1047B00091E0980F90939D0298E0FE013996DE01FA
:1047C000119601900D929A95E1F73CE0839FC0010C
:1047D000112482569D4F28E0FE013196DC010190A4
:1047E0000D922A95E1F72FEF3FEFFC0131872087EB
:1047F000D386C28669960FB6F894DEBF0FBECDBFD2
:10480000DF91CF911F910F91FF90EF90DF90CF90AC
:10481000BF90AF909F908F907F906F905F904F90E0
:104820003F902F90089580913E0350913F03982F21
:10483000F0E0E0E0851314C090933E03E017F10729
:1048400009F49ACF90E0FC01EE0FFF1FEA5CFC4FE9
:10485000B182A08201968370992780933F038CCF09
:10486000682E712CF301EE0FFF1FEA5CFC4F2081D4
:10487000318147E0429FD001439FB00D1124A250E7
:10488000BD4F6D917C911197798F688F40E020E04A
:1048900030E0E32FF0E0EE0FFF1F688D798DE60F1B
:1048A000F71F8080918081149104E1F0F80101905C
:1048B000F081E02DFF8BEE8B20E005C08616970679
:1048C00009F44F2D2F5FE22FF0E0EE0FFF1F6E89EE
:1048D0007F89E60FF71F608171816115710571F79E
:1048E0003F5FD7CF4423D1F0F801231708F0FD0133
:1048F00021E024830E171F0721F490933E03F42E2A
:104900003BCF981305C0AE17BF0711F49F5F93709C
:1049100093012F5F3F4F822F83708CCFF0E0E0E058
:10492000F7CF90E0E1101FC0B10102C0660F771F02
:104930002A95E2F79B01215031098217930731F440
:10494000442309F447C0C5010E94AC05C10101C060
:10495000880F8A94EAF7982F9095F8018681892329
:104960008683FE2C09CF9C01082C02C03595279523
:104970000A94E2F7A90141705527BC016150710901
:1049800086239723892B11F5452B01F1F8018281AC
:104990009381892BC1F01B821C821D821E82498259
:1049A0004A820E9443058160582F9D838C83F801C1
:1049B000828193818F83988729813A814B816D8190
:1049C0007E810E94B61FF8011582C0CFF22FF170D0
:1049D000EF2EBCCFEF2CBACF90913E0380913F03D6
:1049E000981731F00E948920552009F433CE02CF68
:1049F0000E942D2010924103109240030E94DA057C
:104A0000F3CF82E00E94160D07CECF93DF9300D044
:104A100000D00F92CDB7DEB79093720280937102EF
:104A2000811520E2920748F40F900F900F900F909D
:104A30000F90DF91CF910C94A40C8EEF89838A8321
:104A40001B820E9443058160782F9D838C8349815E
:104A50005A816B818D810F900F900F900F900F9066
:104A6000DF91CF910C94AC220F931F93CF93DF93E0
:104A70008C01EB0165E172E08C2F0E940014892B00
:104A8000A1F480916003909161030E947C0FDD2767
:104A9000C35FDD4F8881F80110821882833009F1ED
:104AA00048F4813059F0823081F0DF91CF911F912D
:104AB0000F9108958430D1F08530B9F780911502B7
:104AC00090911602009789F306C080911702909189
:104AD0001802009799F3DF91CF911F910F910C94D9
:104AE00005258091190290911A02F3CF80911B0243
:104AF00090911C02009779F72091150230911602CF
:104B0000809117029091180221153105D9F2009772
:104B100011F7C901E0CFCF93DF9300D000D00F92FF
:104B2000CDB7DEB79093720280937102811520E2B7
:104B3000920748F40F900F900F900F900F90DF9115
:104B4000CF910C94BC0C8EEF89838A8381E08B8398
:104B50000E9443058160782F9D838C8349815A810F
:104B60006B818D810F900F900F900F900F90DF91C0
:104B7000CF910C94AC22CF93DF93EC010E948B2554
:104B800080916003909161030E947C0FCE01DF91C0
:104B9000CF910C9405250F931F93CF93DF938C0136
:104BA000862F65E172E00E940014892BC9F4C09140
:104BB0001502D0911602209799F0F8018081833078
:104BC00069F4CE010E94BB25CE010E94BB25CE0117
:104BD000DF91CF911F910F910C94BB258430B8F7D2
:104BE000DF91CF911F910F9108950F931F93CF9352
:104BF000DF938C01EB0165E172E08C2F0E940014C1
:104C0000892B09F064C0FE01FF27D8018C91E35F76
:104C1000FD4F8130D9F419969C911997992311F081
:104C200080830CC01A969C919923D1F382E08083F3
:104C300080911702909118020097D9F48091150283
:104C400090911602009709F442C013C08230E9F532
:104C500019968C91199781112DC01A968C918111FA
:104C60000EC083E080838091190290911A02009710
:104C700019F1DF91CF911F910F910C948B2584E056
:104C8000808380911B0290911C02009791F7809184
:104C90001502909116020097F9F00E94BB258091B1
:104CA000170290911802009721F7809115029091B8
:104CB0001602DFCF85E08083809115029091160265
:104CC000009729F00E94BB25F0CF86E08083DF911A
:104CD000CF911F910F910895809117029091180222
:104CE000B1CF78941F921FB61F9211248F939F9378
:104CF000AF93BF938091210490912204A09123044B
:104D0000B09124040196A11DB11D809321049093BC
:104D10002204A0932304B0932404BF91AF919F91E8
:104D20008F911F901FBE1F9018951F921FB61F9244
:104D300011248F939F93AF93BF938091200481118F
:104D400013C08091210490912204A0912304B0917A
:104D500024044196A11DB11D809321049093220447
:104D6000A0932304B0932404BF91AF919F918F919E
:104D70001F901FBE1F901895CDB7DEB768970FB66E
:104D8000F894DEBF0FBECDBF0E9443059093FF0194
:104D90008093FE0180E890E00FB6F8948093610064
:104DA000909361000FBE83EC97E090936501809330
:104DB00064010E9414140E946A140E94721180916E
:104DC0006900886080936900E99A8BE48093ED0420
:104DD000809322058093F9048AE58093EC04809304
:104DE00021058093F804539A80E0815009F0B9C0FE
:104DF0005398789482E084BD93E095BD9AEF97BD77
:104E000080936E000E946312811102C00E94F11310
:104E100081E30E94C50783E30E94C50780E60E94E4
:104E2000C50784E60E94C50709E511E073E6E72E91
:104E300071E0F72EF80181918F018F3F11F00E94F0
:104E4000C507E016F106B1F788E0E6EFF1E0DF0113
:104E5000282F1D922A95E9F7E0EEF1E0DF011D927F
:104E60008A95E9F790E080E00E94D72D8A3E9E4F18
:104E700021F40E946312811102C00E94CE1482E0CC
:104E800090E00E94CF2D8093E9010E947C129093C4
:104E9000DF018093DE010E943321EFE3FCE93197CB
:104EA000F1F700C000000E9433218091F60180FFDD
:104EB00008C06FEF7FEF90E080E00E94FB2D0E9422
:104EC0001F0583E090E00E94CF2D0E94840B80910B
:104ED000DF040E94E70C82E091E090931C04809331
:104EE0001B04FFEF20E742E0F15020404040E1F793
:104EF00000C00000CE0101962C0133243A945AE000
:104F0000252E62E3862E912C8091070510911F04B7
:104F1000882379F1109207050E9443059093FF01C1
:104F20008093FE01112309F4E6C410921F040E942D
:104F3000C3140E94950580911F04882309F4DBC4E3
:104F40000E94390C0E943321E6EFF1E081919191AA
:104F5000892B09F073C4AEEFB1E0AE17BF07B1F70C
:104F6000D3CFA895AFE9BFE01197F1F700C00000DB
:104F70003CCF1111E5CF8091FE019091FF010E947D
:104F80003405069708F4B7C481E080931F040E949B
:104F9000390CD6CF6F5FEE0CFF1C6A3009F0DAC413
:104FA0000F5F1F4F0430110509F0C5C4388A398AD4
:104FB0001A8A0E9443058160782F9C8B8B8B4889CD
:104FC00059896A898C890E94AC22EBC42091150111
:104FD000229D900111242417350708F00FC59F5F0B
:104FE0009093010202C09F3FD1F7EE2059F00E943A
:104FF000FC069FEF1E140CF491E0899F802D112474
:1050000080930902FF2059F00E94FC069FEF1F14B5
:105010000CF491E0899F802D112480930A02309135
:105020000902332309F4EAC420910A02222309F475
:10503000E5C445EB3403C0011124992359F0909342
:10504000090255EB250390011124332339F03093E5
:105050000A02D4C481E080930902F3CF81E08093F7
:105060000A02CCC420911101229D90011124241721
:10507000350708F0D8C49F5F9093000202C09F3F9D
:10508000D1F7002359F00E94C3069FEF10160CF4CD
:1050900091E0899F802D112480930B02112359F0F8
:1050A0000E94C3069FEF11160CF491E0899F802D9A
:1050B000112480930C0230910B02332309F4B3C402
:1050C00020910C02222309F4AEC445EB3403C00145
:1050D0001124992359F090930B0255EB250390016D
:1050E0001124332339F030930C029DC481E0809366
:1050F0000B02F3CF81E080930C0295C48C3009F44D
:1051000007C158F5843009F4E0C058F4823009F43E
:1051100071C008F0C6C0813009F466C03092BF0487
:1051200088C0863009F4F1C008F4DFC08B30B1F7D5
:1051300080916F0290917002892B09F47AC00E94CD
:10514000C60EEFEFF1EE24E0E150F0402040E1F731
:1051500000C000000E941F056CC0803109F410C11E
:10516000B8F58E3009F4DDC008F4D6C080916F0226
:1051700090917002892B09F45CC0E090C204F12C7C
:10518000FDE1EF16F10408F054C00091C004109145
:10519000C1041027012710275FEBC52E54E0D52E40
:1051A000E00EF11EC801875D9D4FE016F10609F47F
:1051B00040C0073D21E0120728F4D60114966C91F7
:1051C0000E94DD2DBFEFCB1ADB0A0F5F1F4FEACF26
:1051D000823109F4DAC008F4D6C0833109F403C17E
:1051E0008E3F09F09BCF66C41092C00489E0809383
:1051F000C1041FC08091C004823009F471C38330A0
:10520000E9F0813009F08ACF2FB7F894609121043A
:105210007091220480912304909124042FBF0E9456
:10522000922D6093C1047093C2048093C304909341
:10523000C4040E94C60E1092AD0466CE80916F0227
:1052400090917002892BA9F38091F6019091F7015A
:105250009827892798279093C2048093C10480914E
:10526000F8019091F9019827892798279093C40411
:105270008093C3048091FA019091FB0198278927BC
:1052800098279093C6048093C5048091FC01909167
:10529000FD019827892798279093C8048093C70415
:1052A000C8CF8091C004823009F038CF6091C1042A
:1052B0007091C2048091C3049091C4040E94922D05
:1052C00086E290E00E94DD2DB4CF4091C20460914F
:1052D000C1048091C0040E949811982789279827BB
:1052E0009093C4048093C304A4CF2091C30430914D
:1052F000C4043227232732274091C2046091C1049D
:105300008091C0040E94F81294CF0E94621391CF42
:1053100080E18093C0048DCF81E08093C00487ED4D
:1053200066CF0091C20410E00D31110508F081CF65
:10533000E090C004F090C104FE24EF24FE246FEB43
:10534000C62E64E0D62E01541B4FC701875D9D4FCA
:105350000C151D0509F46DCFA7EDEA16A1E0FA06BC
:1053600058F40E94CF2DF6018483BFEFEB1AFB0A9D
:10537000EFEFCE1ADE0AE9CFD60114961C92F5CFD4
:105380000E94E81256CF84E0C4CF0091C20410E01E
:105390000D31110508F04DCFE090C004F090C1042C
:1053A000FE24EF24FE244FEBC42E44E0D42E0154FF
:1053B0001B4FC7018796C016D10609F43ACFE0E427
:1053C000EE16E1E0FE0660F40E94CF2DD6011496A1
:1053D0008C93FFEFEF1AFF0A2FEFC21AD20AE9CF20
:1053E000F6011482F6CFE090C204F12C4DE1E416F0
:1053F000F10408F01ECF0091C0041091C1041027E1
:1054000001271027003451E0150708F012CF80E47F
:1054100091E0801B910B8E159F0508F40ACFC801FF
:105420008796988F8F8B80916F02909170023701D1
:10543000600E711E892BA1F5680191E0C922DD245F
:1054400000FF0EC0C80186960E94CF2D9091C30424
:1054500089279827892781159C4511F43092C30428
:10546000570160FE17C0B1E0AB1AB108F501ED536A
:10547000FB4FFE8BED8B8F89988D8E0D9F1D0E94AB
:10548000CF2DAD89BE899C9181159C4519F4ED897C
:10549000FE893082F601E154FB4FCA14DB0428F088
:1054A0003FEBE32E34E0F32E1AC094818581811501
:1054B0009C4511F43482358242E0C40ED11C3296F0
:1054C000ECCF003451E0150728F4D70114966C9105
:1054D0000E94DD2DBFEFEB1AFB0A0F5F1F4FC801C3
:1054E00087966016710669F7A4CE88E0ECE1F1E0DA
:1054F000D20101900D928A95E1F7EFEBF4E080E2A2
:10550000DF011D928A95E9F784E08093BF0488E06B
:10551000F201A3ECB4E001900D928A95E1F789CEF7
:105520008CE68093BF0481E08093C0041092C10494
:105530001092C2047ECE8091C204682F70E0762F54
:1055400066278091C104860F972F911D092E000CAC
:10555000AA0BBB0B25E0880F991FAA1FBB1F2A951A
:10556000D1F7AC01BD01405E5F4F6F4F7F4F4817D1
:1055700059076A077B0708F45CCE8C36E1E09E078A
:10558000A105B10508F055CE4D36F1E05F07610584
:10559000710520F04CE651E060E070E0481B590BCB
:1055A000BC01685E7E4F8FEB94E00E94992D41CE46
:1055B0004AE150E06FEF70E085EC94E00E94B82D76
:1055C00080916F028093BF040093C0041092C104C5
:1055D0001092C2041092C30489E08093C40429CEBF
:1055E00041E050E050937402409373029092F501B1
:1055F0008092F4010E9443059093F3018093F2019D
:1056000018CE012B61F11091F6010091F701809104
:10561000F2019091F3010E9434058536910550F115
:1056200001FF28C010FF26C00E9443059093F3019C
:105630008093F2018091F4019091F501019790938C
:10564000F5018093F401892B51F4109274021092A9
:10565000730281E090E09093700280936F028091DA
:105660006F028093BF04809173028093C004809185
:10567000F401BDCD9092F5018092F401F0CF10922B
:10568000700210926F02D5CD0091C1041091C20436
:1056900040E250E06FEF70E08FEB94E00E94B82D95
:1056A00024EC33E090E080E0AC014E5F5F4F41328C
:1056B000510508F0BECDF9016591749106171707E1
:1056C00030F481549B4FDC016D937C93CA01285FB9
:1056D0003F4FECE5F4E0E217F30731F7AACD209154
:1056E000C1043091C20484EC93E0FC0145915491D3
:1056F0004217530709F4BCC00896F4E08C359F07A5
:10570000A1F78FEFCBC08091C1049091C20404EC4B
:1057100013E0F801259134918217930709F4C1C071
:10572000085F1F4F24E00C35120799F7EACF0E945B
:10573000A7127FCD8091C104823009F446C0B0F435
:105740008823B9F1813009F074CD8091C204D2016F
:10575000E22D1D92EA95E9F7B2010E9400148093B0
:10576000BF04F201A0ECB4E0822DD5CE833009F461
:1057700049C0843009F05DCD6091C2048AE0E3EC59
:10578000F4E0D20101900D928A95E1F78FEF683035
:1057900058F4629DB001112467527E4F4AE050E0F8
:1057A000C2010E94012E80E08093BF040E946A140F
:1057B00040CDA1ECB4E0EEE11D92EA95E9F7F8E006
:1057C000F093BF04F093C00434CD6091C2048AE02A
:1057D000E3ECF4E0D20101900D928A95E1F78FEFAE
:1057E000683058F4629DB001112467577E4F4AE03B
:1057F00050E0C2010E94012E80E08093BF040E940D
:10580000141417CD6091C204D201E22D1D92EA95C5
:10581000E9F78FEF683058F4629DB00111246752A8
:105820007E4F4AE050E0C2010E94BF2D80E080938D
:10583000BF048AE0F201A0ECB4E06DCEF8942AB186
:105840005B9A822F8C608AB99BB13CE093279BB90D
:10585000FFE748E351E0F15040405040E1F700C01D
:1058600000008BB183278BB92AB95B9878944CCB15
:105870009C012E5F3F4FF9014591549140325105F3
:1058800008F03FCFF90145915491FC0134966591A0
:10589000749180EC94E00E94AF2D80E08093BF046F
:1058A000C8CCC8010296FC01259134912D313105F7
:1058B00008F027CFFC0145915491F8013496859169
:1058C000949163EC74E00E94AF2D0E948A12F8015B
:1058D000369685919491009701F3FC010995DDCFEF
:1058E00086E290E00E94CF2D1092C1041092C20473
:1058F0001092C30472CE0E94530D8091B704882386
:1059000009F4B1C08091EC0484FFADC00E94332142
:10591000882359F08FB7F8944091210450912204C4
:1059200060912304709124048FBFA6EFB1E0EAEEEA
:10593000F1E010E000E0702F8D919D912191319167
:105940002817390709F42CCB60E0EE24E394F12CFE
:1059500028273927A9014E215F21452B09F41ACBAD
:105960006B877C879C012E213F2191E0232B09F43A
:1059700090E09D870E9443058160782F9F878E87E6
:105980004B855C856D858F850E94AC22000F111FB1
:10599000F801E651FE4F80819181E826F926F182D7
:1059A000E08286E0E7E0F2E0D20101900D928A9574
:1059B000E1F7E0900902F0900A0200910B021091C9
:1059C0000C021092090210920A0210920B0210921D
:1059D0000C028E2D8F2991F0809105029091060284
:1059E0000E943405AC0190910102992309F4EECA9A
:1059F000809114018417150608F4F5CA802F812BB5
:105A000091F080910302909104020E943405AC0150
:105A100090910002992309F425CB809110018417FD
:105A2000150608F42CCB8091090290910A02892B6B
:105A300090910B02892B90910C02892B11F00E94FE
:105A4000190686E0F201A7E0B2E001900D928A9576
:105A5000E1F70E9495059091E801891721F00E94D5
:105A600095058093E8010E94210F0E94530D8091BB
:105A7000B704882309F448CA8091210584FF44CAE9
:105A80008091AD04803209F03FCA009173021091F9
:105A900074028091BF040115110509F42FCB8E3FCC
:105AA00009F0C7CB8091C004833020F0855083304B
:105AB00008F0BFCBE091C004EE3008F0BACBF0E0C4
:105AC000EB5CF14D0C948C2DAA1BBB1B51E107C064
:105AD000AA1FBB1FA617B70710F0A61BB70B881F7E
