:100000000C94FB020C9418030C9433030C94180307
:100010000C9418030C9418030C9448290C9418039E
:100020000C9418030C9418030C9418030C941803E4
:100030000C9418030C9418030C9424290C941803A2
:100040000C9418030C9418030C9418030C941803C4
:100050000C9418030C9418030C9418030C941803B4
:100060000C9418030C94180300000000000000001A
:100070000000000000000000000000000000000080
:100080000000000000000000000000007E0F00D40F
:10009000FFFFFFC700000078000000000000000024
:1000A0002A2B2800000000000000000000000000D3
:1000B00000000029000000002C1E342021222434DE
:1000C0002627252E362D3738271E1F2021222324B0
:1000D00025263333362E37381F0405060708090A4C
:1000E0000B0C0D0E0F101112131415161718191AE8
:1000F0001B1C1D2F3130232D350405060708090A66
:100100000B0C0D0E0F101112131415161718191AC7
:100110001B1C1D2F3130354CFD377A585A00000416
:10012000E6D6B4460200210116000000742FE5A3B4
:10013000E002A2012B5D003D8889C65436C3174FEB
:10014000E4E20E164D853C533C3A18756871F4C7CD
:1001500044ABE53413BAED6CC98780653A10650A83
:100160007DAC3202D439F09C6CFDE264E7F136C814
:10017000B17FCF0013D128BBF1FE7430170B3F9C29
:100180009E1819E543C1ECA326B34C0C3E237150D5
:10019000F730024BEA629848923944D89B69ACA583
:1001A000765F541C2DCA247D64AF4BB05F50900025
:1001B0008A5851F23215DDBC408B67C573B00B8B8A
:1001C00048568C1A3F1E9FB772C246B5648B7B8A15
:1001D00080468020D2B60C68C6BADD942046564EC2
:1001E000B22EEFD6F4C0CA30E84877978578DD4262
:1001F000C75A358F13A91EF71737A7044CF7F7B462
:10020000EE88C5A7E532B07E5CC0CCB7515F32C97D
:1002100066FDBB0081FCC2FFE17B93784936BA4999
:10022000BBE4A52562AA76A0AB3D1F702082D180D9
:10023000366B53278BB737ADE42FD4453D1CE429EB
:10024000351210FAFB1D0E05911D1DF0A6BDA75B12
:1002500011AE5E9DBB92DE33FA28D8AC3588DC0D3A
:10026000BAA10000617D5B177AB879AB0001C702C3
:10027000A3050000B1DD6DECB1C467FB0200000016
:100280000004595A14001A000800150017001C0039
:1002900018000C00120013000400160007000900EB
:1002A0000A000B000D000E000F0028001D001B00AF
:1002B0000600190005001100100036003700380054
:1002C000010001000100010001002C002C000100D0
:1002D00001000251010001000100010001000100C4
:1002E0000100010001000100010001000100010006
:1002F00001000100010001000100010001000100F6
:1003000001000100010001000100010001000100E5
:1003100001000100010001000100010001000100D5
:1003200001000100010001000100010001000100C5
:10033000010001000100005C01000100010001005A
:1003400001000100010001000100010001000100A5
:100350000100010001000100010001000100010095
:100360000100010001000100010001000100010085
:100370000100010001000100010001000100010075
:100380000100010001000100010001000100010065
:100390000100010001000100010001000100010055
:1003A0000100010001000100010001000100010045
:1003B0000100010001000100010001000100010035
:1003C0000100010001000100FB0300000200020027
:1003D000F703000003000100FC030000040002001A
:1003E000E103640605000100FD03000006000200B1
:1003F000E303000007000200F90300000800010009
:10040000FE03000009000200E5033F060A000200A7
:10041000E7033F060B000200E9033F060C00020061
:10042000EB033F060D000200ED033F060E00020045
:10043000EF033F060F000200F1033F061000020029
:10044000F3033F0611000200F5033F06120002000D
:10045000FF0300001300020001040000140001006B
:100460000304000005010902A10185020901A100A0
:100470000509190129081500250195087501810252
:100480000501093009311581257F9502750881061E
:1004900009381581257F950175088106050C0A38F4
:1004A000021581257F950175088106C0C0050109E7
:1004B00080A101850319012AB700150126B700950F
:1004C0000175108100C0050C0901A1018504190105
:1004D0002AA002150126A002950175108100C00610
:1004E00060FF0961A1010962150026FF00952075D2
:1004F0000881020963150026FF0095207508910206
:10050000C005010906A101050719E029E715002525
:100510000195087501810295017508810305071988
:100520000029FF150026FF009506750881000508C3
:10053000190129059505750191029501750391032E
:10054000C01C037600690061006C003A006600364A
:1005500000340063003200620033006300000010CA
:10056000034C00450053004F0056004F005A000056
:100570000012037300710075006100730068006B66
:1005800000620000000403090409025B000301008B
:10059000A0FA090400000103010100092101010082
:1005A000012240000705810308000109040100023F
:1005B0000300000009210101000122220007058437
:1005C00003080001070504030800010904020001F3
:1005D00003000000092101010001227B00070583BF
:1005E0000308000112011001000000085153534C90
:1005F00001000102030111241FBECFEFD8E0DEBFCE
:10060000CDBF25E0A4E6B1E001C01D92AE3CB2072B
:10061000E1F711E0A0E0B1E0E4EBF3E602C0059001
:100620000D92A436B107D9F70E946F290C94B73107
:100630000C940000A82FB92F80E090E041E050EA30
:10064000609530E009C02D9182279795879510F02D
:1006500084279527305EC8F36F5FA8F30895EADF1B
:100660008D939D930895CF93CFB7CF93DF93C39589
:100670004B9BE9F74B9B10C04B9B0EC04B9B0CC098
:100680004B9B0AC04B9B08C04B9B06C0C091A80562
:10069000C395C093A8058EC06F93C091A705DD27B1
:1006A000C455DA4F2F9365E54B9B03C02F916F9193
:1006B000E1CF0F931F934F9320E040E15F9309B187
:1006C0000C7003FB27F93F9350E03BE039C01C70EE
:1006D00040642F77012F5F5F1EC0406819B11C7006
:1006E0002F7752501FC0406409B12F770C70D1F1A1
:1006F0005F5F00C023C0406219B12F771C7091F179
:100700005F5F00C025C00C701027515012F45D5F70
:100710000000115027952C3F19B1C8F61C70012715
:10072000015027952C3FC8F64227499309B10C7018
:1007300010274F73115027952C3FA8F646954695E4
:1007400019B11C7079F00127015027952C3F98F6BC
:100750006B5A60F3315009B1B0F600C012E01CBB17
:1007600000271CC03B503195C31BD04012E01CBB7E
:100770000881033C21F10B3411F12091A505198169
:10078000110F1213EDCF4A81441F093679F10D3252
:1007900011F0013E29F74F7009F0042F0093AB05CB
:1007A0003F915F914F911F910F912F916F91CCB31A
:1007B000C1FD5DCFDF91CF91CFBFCF911895209133
:1007C000AB05222369F31091A905112309F049C053
:1007D00034300AF448C03093A9052093A60510913F
:1007E000A7053BE0311B3093A7053DC00091A9054B
:1007F0000130BCF50AE54F7049F430911C0134FD1D
:1008000033C000931C01C2E8D5E032C0433059F038
:10081000443091F030918D0534FD26C000938D0554
:10082000CEE8D5E025C03091C20534FD1DC000934F
:10083000C205C3ECD5E01CC03091990534FD14C04D
:1008400000939905CAE9D5E013C0052710E000C060
:1008500000000BB91AC0052710E0221F1DC010E0D0
:1008600021C04AE502C032ED432FC4E1D0E032E0BE
:100870001AB11C605B9A0BB11AB95CE020E865E321
:1008800020FF05270BB9279517951C3FF0F66695B5
:10089000B8F7B1F720FF05270BB9279517951C3F2F
:1008A000D0F62795179517FF052700001C3F0BB9B9
:1008B000B0F629913A9519F7037F1091AA05110F07
:1008C000C651D0400BB911F01093A50512E01CBB26
:1008D00008601AB1137F402F437F54E05A95F1F717
:1008E0000BB91AB94BB95CCFFC018381833089F114
:1008F00030F48130F1F0823021F180E008958132CE
:1009000009F44BC08232C9F7248135812130310589
:1009100009F461C02115310509F455C022303105B3
:1009200061F784E694E090935F0580935E058BE722
:10093000089584EE95E090935F0580935E0582E1D3
:10094000089589E895E090935F0580935E058BE5B7
:10095000089582818130B1F0882361F08230A9F05E
:10096000833059F681E495E090935F0580935E05AE
:100970008CE1089585E895E090935F0580935E058E
:1009800084E0089581E795E0D6CF8FE595E09093D8
:100990005F0580935E0580E108958281813081F05A
:1009A000882331F0823009F0A8CF84ED95E002C0B1
:1009B0008BE995E090935F0580935E0589E008954B
:1009C00084EB95E0F7CF81E095E090935F0580930D
:1009D0005E0580E408952FED34E030935F052093A9
:1009E0005E050895089580915905089588E198E07D
:1009F0000FB6F894A895809360000FBE90936000A6
:100A0000A895F894D8E0CEEF28E3299320E0299325
:100A100014BEFFCF08959C014FB7F8948091C20493
:100A20009091C304A091C404B091C5044FBF821B30
:100A3000930B08952FB7F8946091C2047091C3048A
:100A40008091C4049091C5042FBF08952FB7F894E6
:100A50008091C2049091C304A091C404B091C504D4
:100A60002FBF08959C01FC0132969FEF80E04191D9
:100A7000461751F09F3F19F4411101C0982F8F5F25
:100A80008630A9F79F3F09F40895290F311D97FD7E
:100A90003A95F901628308952091BE043091BF0414
:100AA0002817390771F09093BF048093BE04E0913A
:100AB000BC04F091BD04309721F00084F185E02D55
:100AC000099408952091BA043091BB04281739077E
:100AD00071F09093BB048093BA04E091BC04F09150
:100AE000BD04309721F00680F781E02D0994089528
:100AF000E091BC04F091BD04309721F00190F081A9
:100B0000E02D099480E00895CF93DF93EC014091AC
:100B1000D6035091D7036091D8037091D9032FB7B2
:100B2000F8948091C2049091C304A091C404B09140
:100B3000C5042FBF841B950BA60BB70B843F9140B8
:100B4000A105B10518F58091D6039091D703A09126
:100B5000D803B091D9038093D2039093D303A09389
:100B6000D403B093D50384EF91E0A0E0B0E080938C
:100B7000CE039093CF03A093D003B093D103D0932F
:100B8000DE03C093DD03DF91CF9108950E941A0523
:100B90006093D2037093D3038093D4039093D503CF
:100BA00082E390E0A0E0B0E0E2CFFC018481862304
:100BB00051F492819923B9F06923808583FF05C0A0
:100BC00081E061110FC080E00895892F8F709295A8
:100BD0009F70982B862F8F7062956F70682B81E0C5
:100BE0009613F1CF089581E0FDCF452B39F06823AE
:100BF00081E06F3F09F080E08170089581E0FCCFD3
:100C0000DC016091CA038091CB03962F891301C048
:100C10000895292F30E0F901EE0FFF1FEE53FC4F2E
:100C2000408151814A175B07A1F487E08A9FA001A8
:100C30008B9F500D112446575C4F81E0FA0184834D
:100C40009613E6CF2F5F3F4F237033272093CA03BD
:100C500008952F5F3F4F922F9370D8CF10922703A4
:100C600010922603EAE8F3E08581811102C0148224
:100C70001682379683E0E23CF807B1F70895E1EE7B
:100C8000F3E0848195812AE030E0B9010E940231CD
:100C900060931601868180931501828580931401EB
:100CA00084858093130186859785B9010E9402315E
:100CB00060931201808980931101828980931001D1
:100CC000848980930F0108958091E1039091E2035C
:100CD000909318018093170108950E9426059C01A6
:100CE00090910A0280910B02982B21F03093070219
:100CF0002093060290910C0280910D02982B21F016
:100D00003093050220930402E091BC04F091BD04ED
:100D1000309749F082E0809308020480F581E02D4D
:100D200088E092E00994089590910A02803F59F476
:100D300080910B0287FF0DC010920B0291110BC026
:100D40001092020208C0813F81F480910B021816B4
:100D50009CF3992381F080910C0290910D02892BD4
:100D600009F064C0109201020895823F49F497FF90
:100D7000F0CF10920A0280910B028111ECCFE0CFEC
:100D8000833F19F41916ACF3E4CF20910C02893F8C
:100D900029F41216F4F610920C02DBCF8A3F19F4F4
:100DA00027FFD7CFF8CF20910D028B3F29F427FFE3
:100DB000D0CF10920D02CDCF8C3F19F41216CCF388
:100DC000C8CF843F31F4809109028E7F809309025D
:100DD000C0CF853F21F4809109028D7FF7CF863FF8
:100DE00021F4809109028B7FF1CF873F21F480911C
:100DF0000902877FEBCF883F21F4809109028F7E23
:100E0000E5CF8D3F31F4809103028E7F8093030202
:100E1000A0CF8E3F21F4809103028D7FF7CF8F3FCB
:100E200009F097CF809103028B7FF0CF08958091D6
:100E3000030280FF0CC06091100170E0759567950A
:100E4000759567956115710549F1862F089581FFA4
:100E500006C06091100170E075956795F3CF6091C1
:100E6000100182FD0BC0909101029923A1F06091C5
:100E70000F0180911001961738F0682F70E06038EC
:100E8000710500F38FE70895899FC001112470E078
:100E90000E941631F4CF61E070E0D7CF81E0089571
:100EA000809103026091E9037091EA0380FF16C00C
:100EB00020911401269FC001279F900D1124BC0191
:100EC00076956795769567956038710508F043C00B
:100ED0006115710509F441C0862F089581FF0BC08B
:100EE00020911401269FC001279F900D1124BC0161
:100EF00076956795E9CF82FF09C0809114019B0127
:100F0000829FB001839F700D1124DECF20910202D9
:100F10002223D1F29091130180911401482F50E0C7
:100F2000291748F0CB01849FB001859F700D949FD5
:100F3000700D1124C9CF289F90011124269FA00174
:100F4000279F500D369F500D1124692F70E0CA0164
:100F50000E940231B9CF8FE7089581E00895803F64
:100F600031F40E945007819580930B020895813FD0
:100F700019F40E945007F8CF823F31F40E945007C5
:100F8000819580930A020895833F19F40E945007C7
:100F9000F8CF893F29F40E94170780930C02089527
:100FA0008A3F21F40E9417078195F7CF8B3F31F4D8
:100FB0000E941707819580930D0208958C3F19F4C4
:100FC0000E941707F8CF843F31F4809109028160B5
:100FD000809309020895853F21F48091090282607F
:100FE000F7CF863F21F4809109028460F1CF873FDB
:100FF00021F4809109028860EBCF883F21F4809131
:1010000009028061E5CF8D3F31F480910302816058
:101010008093030208958E3F21F480910302826041
:10102000F7CF8F3FB9F7809103028460F1CF80E062
:101030000895F894E82FE295EF70F0E031A1282FA1
:101040002F7081E090E001C0880F2A95EAF7982F71
:101050009095932391A392A1892B82A378940895CC
:101060009091DF0192FF06C0282F28712830F9F4F3
:10107000877F846093FF06C0282F28712831F1F400
:10108000877E84612091E00120FF06C0382F3871EF
:101090003830D9F4877F816021FF06C0282F28715E
:1010A0002831D1F4877E816194FD877E0895282FB1
:1010B00024712430F9F68B7F8860DCCF282F2471CF
:1010C000243101F78B7E8861DDCF382F31713130CB
:1010D00019F78E7F8860E0CF282F2171213121F709
:1010E0008E7E8861E1CFCF93DF93EC01823891054A
:1010F000A9F1D8F58133910509F496C048F58932F4
:10110000910509F48AC08A9709F495C0C11521E5B3
:10111000D20708F0BCC0C11530E5D30708F014C1F0
:10112000C83ED10508F09CC0C03ED10560F5C83A64
:10113000D10508F087C0C53AD10508F0FDC0C1301F
:10114000D10509F12097F9F0C430D105E0F440C091
:101150008533910509F45AC0C997C1F68091DF0122
:10116000837089F0C0EED0E00EC0833E910599F106
:1011700070F4803E910501F1823E910539F680912F
:10118000DF0182FD21C0CE01DF91CF910895863E1F
:10119000910561F1873E910571F1843E910509F059
:1011A000B5CF8091E00181FFEECF8091DF01C7EEE6
:1011B000D0E084FD0DC0E7CF8091DF0180FD12C13A
:1011C0009091E00190FFDFCFC3EED0E084FFDBCF52
:1011D000D0E0C0E0D8CF8091DF0182FD06C19091C0
:1011E000E00190FDBFCF84FFCECFF2CF8091DF0131
:1011F00083FDDDCFC8CF8091DF0183FDF9C09091E1
:10120000E00191FFF0CFC4EED0E0BDCF8091DF01CF
:1012100085FFB9CFC9E2D0E0B6CF8091DF0185FF6D
:10122000B2CFC5E3D0E0AFCF8091DF0186FFABCF77
:10123000CAE2D0E0A8CF8091DF0186FFA4CFC1E34E
:10124000D0E0A1CFCF3BD10518F6C85AD0E0CC0FE3
:10125000DD1FC85DDE4F0990D881C02DD46493CFC7
:10126000C11540E2D40758F4C11581E0D80708F051
:101270008ACFC03FD10508F4ABCFD06584CFC1156C
:1012800090E4D90708F4A4CFDF70D06A7CCFC115F1
:1012900025E5D20700F5C11534E5D30708F08AC06B
:1012A000C11543E5D40708F071C0C11582E5D80720
:1012B00008F467C0CE018370992721E030E002C0B6
:1012C000220F331F8A95E2F7C695C69580E2C89F24
:1012D000E001112452C0C11599E5D907A8F4C11540
:1012E00028E5D20708F06BC0C11536E5D30708F032
:1012F0006FCF8C2F0E943008C82FD0E0DC2FCC2776
:10130000CC27DF71D0623FCFC1154AE5D40708F47E
:101310005BC0CE0190568115904208F059CF8D2FB9
:101320008F710E94300890E0982F882788279F713E
:101330009C012C2BE901E6CFC55AD0E0CB5DDE4FF6
:10134000C881D0E0D0641FCFCE01E4E096958795A8
:10135000EA95E1F783702C2F26952695237040E2BD
:10136000249F90011124382B8C2F8370C1E0D0E092
:1013700002C0CC0FDD1F8A95E2F7C22BD32BDC68AD
:1013800002CFDC2FCC27C16FD06AFDCECE01837097
:10139000992721E030E002C0220F331F8A95E2F73F
:1013A000C695C69590E2C99FE0011124C22BD32BAC
:1013B000DA68E9CEDC2FCC27C46FD06AE4CEDC2F0C
:1013C000CC27C06FD06ADFCE8C2F8F700E94300880
:1013D00034E0D695C7953A95E1F7CF709C2FEC0194
:1013E000D069D1CEC9E3D0E0CECEC2EED0E0CBCE34
:1013F000C6EED0E0C8CE8091D201882331F01092A1
:10140000D2011092D1011092D0010895CF93C82F2C
:101410008091E00182FD0CC08091D2018C1741F0D7
:101420000E9426059093D1018093D001C093D201F0
:10143000CF9108958095909181059823909381058F
:101440000895809590910103982390930103089546
:1014500090910103892B8093010308951092CF018D
:101460001092CE011092CD0108958091E3039091E6
:10147000E403892B89F00E9426052091D001309148
:10148000D101AC01421B530B81E02091E303309169
:10149000E4034217530708F480E0817008958091B7
:1014A000010390918105892B809366018091D2017F
:1014B000882309F18091E3039091E403892B29F0BB
:1014C0000E94350A81110E94FB098091660190916A
:1014D000D201892B8093660120E088E691E0FC012F
:1014E0003191CF0131112F5FF1E08E369F07B9F7AF
:1014F00021110E94FB098091DA0380959091660189
:1015000089239091DB03892B80936601E091BC04D1
:10151000F091BD04309731F00280F381E02D86E632
:1015200091E009940895EF92FF920F931F93CF9348
:10153000DF93EC018A85811134C0EB80FC8087E564
:10154000F81A26E12E9DC0012F9D900D1124DC017B
:10155000A65FBB4F1496ED91FC911597309731F033
:1015600054966D917C91805F9B4F099586E18E9D8D
:1015700080018F9D100D1124065F1B4FF80187819C
:101580000E94210AF80180850E941A0A0E944F0ACF
:10159000188219861B861E821D82109209041092E1
:1015A0000804DF91CF911F910F91FF90EF90089564
:1015B000CF93DF93EC018989811118C081E0898B79
:1015C0008F810E94280A809181059885892B8093BC
:1015D00081050E944F0AEA81FB81309739F06C89BE
:1015E0007D89CE010696DF91CF910994DF91CF914D
:1015F000089580911901877F8093190182E00E94EC
:101600001A0A8091190184FF06C08F7E8093190108
:1016100082E00E94280A8091190185FF06C08F7D13
:101620008093190180E20E94280A0C944F0A80914D
:10163000CC0181111092CC010895E8E6F1E091917E
:10164000891303C0DF0111971C9291E0EE36F90770
:10165000B1F708952091CB0190918A01291302C01E
:1016600080E0089530E0F90153E0EE0FFF1F5A9536
:10167000E1F7E557FE4F5181561306C050815813CC
:1016800003C05281541304C02F5F3F4F2770E6CF31
:1016900081E008958091CB0190918A01981301C057
:1016A00008958F5F8770FACF9E3F49F1E82F2AE0B7
:1016B000929FE00D11249E2F9770E695E695E69592
:1016C00083E0E89FF0011124ED58FE4F50E040E028
:1016D00080E0219130E0092E02C0369527950A94CA
:1016E000E2F721703327042E01C0220F0A94EAF793
:1016F000822B4F5F5F4F4330510559F7089580E0CB
:1017000008959E3F69F1E82F2AE0929FE00D112491
:101710008E2F877041E001C0440F8A95EAF7E69565
:10172000E695E69583E0E89FF0011124ED58FE4F21
:1017300030E020E070E05191DF011197CB01022EE3
:1017400002C0969587950A94E2F781708195852766
:10175000842385278C932F5F3F4F2330310559F722
:10176000089592959F70963091F058F4925F9F7013
:10177000923058F4803F19F030F4883E30F481E024
:1017800008959A5FF4CF843FD1F380E00895883EB6
:10179000B0F3813FD1F7F3CF90E080E00E94620583
:1017A00090E080E00E944C05109281050E944F0A53
:1017B00086E0E8E0F2E0DF011D928A95E9F71092F9
:1017C000020210920102109203020C946D068093A3
:1017D000D3010C94CC0B882321F00E941A0A0C949C
:1017E0004F0A0895882339F090918105982B9093A2
:1017F00081050C944F0A0895882321F00E94210A44
:101800000C944F0A0895882321F00E94280A0C9412
:101810004F0A0895882361F19CEF980F913A20F4C4
:101820000E941D0B0C944F0A90E2980F983050F4D0
:10183000877091E001C0990F8A95EAF7892F0E947D
:10184000210AF0CF9BE5980F933020F490E080E0E0
:101850000C94620598E5980F973120F490E080E0B1
:101860000C944C05803F20F00E9494060C946D0669
:101870000895FF920F931F93CF93DF93F82E00915B
:10188000DF031091E0030115110509F449C010921E
:10189000DE031092DD031092DA031092DB03D8010D
:1018A0001696CD91DC919E013A9521153F4108F4A1
:1018B000D07ED1E0C11101C0D0E0D8011996ED91E0
:1018C000FC911A97309731F01B966D917C9180E0D6
:1018D0000995D823DD2339F08CEF8C0F813A38F548
:1018E0008C2F0E941D0BFF2099F0E091DF03F091F7
:1018F000E003808584FD0CC08091DC03882341F0E7
:10190000808191819C0121503109253A3D45A8F003
:101910000E944F0A1092E0031092DF031092DC0342
:10192000C801DF91CF911F910F91FF9008950E9400
:101930004F0A8C2F0E940A0CD6CF0E948405E8CF54
:10194000CF93C82F882309F44AC08CEF8C0F813ABB
:1019500088F4E8E6F1E08191C817D9F181E0EE362C
:10196000F807C9F76C2F86E691E00E943205CF9107
:101970000C944F0A80E28C0F883048F4C77081E0E5
:1019800001C0880FCA95EAF70E94280AF0CFEBE55C
:10199000EC0FE33040F4F0E0EB5DFE4F808190E02F
:1019A000CF910C946205E8E5EC0FE73150F4F0E0DC
:1019B000EE0FFF1FE85DFE4F80819181CF910C9467
:1019C0004C05C03F60F08C2F0E94AF07CF910C9464
:1019D0006D068C2F0E941D0B0E944F0AC3CFCF9122
:1019E00008958091C104882321F11092C00488E1F8
:1019F00090E020E40FB6F894A895809360000FBEA5
:101A00002093600083B7817F846083BF83B7816048
:101A100083BF7894889583B78E7F83BF0FB6F89481
:101A2000A8958091600088618093600010926000AA
:101A30000FBE0895982F92959F7011F0892F94E012
:101A4000282F2695269511F09E5F822F869509F006
:101A50009F5F892F08959C013A9521153F4150F5CC
:101A6000FC01EE27F170BC0166277270AC014427BF
:101A700054709C012227387094FF0EC080E1EF2B38
:101A800009F480E0672B09F08062452B09F080643F
:101A9000232B89F08068089581E0EF2B09F480E022
:101AA000672B09F08260452B09F08460232B19F025
:101AB0008860089580E00895CF93DF93EC010E9441
:101AC0000A0CCE010E942B0D9E01205E31092830A8
:101AD000310510F0CD2B21F4DF91CF910C94FC0B4C
:101AE000DF91CF910C94EB0BCF93DF93EC010E942D
:101AF0002B0D9E01205E31092830310510F0209712
:101B000039F40E94030C8C2FDF91CF910C94A00C20
:101B10000E94F20BF8CF662329F020918105226004
:101B2000209381059C013056211540E2340720F0B6
:101B3000305E2115304108F499270C94740DCF9331
:101B4000C82F5F9828980E941A0D823021F08330A8
:101B500011F0813021F4289A8C2FCF9108955F9A4B
:101B6000FBCF0E949F0D809380050C94CC0B80913D
:101B70008005982F9670963019F488600C94B10DFA
:101B8000877FFCCF21E030E001C0220F8A95EAF781
:101B900020958091800582230C94B10D9091CF0106
:101BA000809589238093CF01282F277091F4282FC7
:101BB000082E000C330B9217130659F09091E00198
:101BC00092FD07C08595859585950E94C20D0C9460
:101BD0002E0A089521E030E001C0220F8A95EAF72D
:101BE00080918005822B0C94B10D9091E00192FDC3
:101BF00010C098E0899F90011124622B6093CF015F
:101C00000E94EA0D0E9426059093CE018093CD019B
:101C100008950C94EA0DCF93DF938091A90583502A
:101C200087FD14C09091A705CCE0D0E0C91BD10975
:101C3000C455DA4F9091A605903108F06BC08830FA
:101C400009F453C010924E051092A90580911C0111
:101C500084FF3EC080911B018F3FD1F1C82F893096
:101C600008F0C8E0982F9C1B90931B01909182056F
:101C700028E89227909382058823E9F080915E05F9
:101C800090915F0520915D0526FF06C1FC012C2F78
:101C9000A3E8B5E034913D9331962150D9F79C01EA
:101CA0002F5F3F4F8FEF8C0F820F932F911D9093DB
:101CB0005F0580935E056C2F83E895E00E942F03FB
:101CC000CC5FCC3019F08FEF80931B01C0931C01C7
:101CD00084E199B19C7031F48150D9F71092AA0532
:101CE0001092A505DF91CF91089580914E0589311D
:101CF00008F0A8CFE82FF0E0E05AFA4F9E01285FE5
:101D00003F4F99919193C217D307D9F7885F80937A
:101D10004E059ACF9D3209F0A3C0883009F094CFC8
:101D200083EC809382058AE580931C0110925D0507
:101D30008881807609F447C0803229F58981813015
:101D400099F48C819D81892BF1F480E595E0909345
:101D50005F0580935E0588E09F81911131C09E816F
:101D6000981770F5892F2CC0823041F48FE495E0EC
:101D700090935F0580935E0581E0EECF8A3029F471
:101D80008B8180934F0580E0E7CF8930E1F78A812E
:101D90009B818115924069F48C819D81892B49F446
:101DA00081E080935C058E819F8190935B05809399
:101DB0005A05888187FF52C08E8190E890935D0517
:101DC00080931B0141CF2A8110928B05998191113B
:101DD0000AC010928C052BE835E082E030935F0555
:101DE00020935E05B9CF953029F42093AA052BE8FE
:101DF00035E0F4CF9630C1F49B81913049F4CE01A7
:101E00000E94740490E490935D058F3F91F2A4CFFB
:101E10009230A9F3933099F3913289F3923279F3A6
:101E200090E490935D0598CF983089F0993019F43B
:101E300020935805DCCF9A3071F09B30C1F69BE4BB
:101E400090938E059093C30590939A05D0CF28E583
:101E500035E081E0C3CF2BE835E0FBCF8FEFADCF8E
:101E600080915D0587FFF0CE80915A0590915B05CA
:101E7000892B71F080915C05813051F488818093C9
:101E8000590510925B0510925A0510921B01DCCE89
:101E90008EE180931C01D8CEDC012C2FE3E8F5E025
:101EA0003D9131932150E1F7FACE1F93CF93DF9309
:101EB000E82F792F162FEA01888184FF1CC0298121
:101EC00088E828272983CE010296DC012E2F372FA0
:101ED000512F5E0FF90121912D939F01452F4E1B2C
:101EE0001416C4F3612F0E942F031C5F1883DF9127
:101EF000CF911F9108958AE58883E5CFCF93DF9333
:101F0000C0E6D5E08091990584FF18C049E955E005
:101F100068E0CE010E94550F289685E0C038D807AA
:101F200089F78091990584FF0CC049E955E060E08C
:101F300090E080E0DF91CF910C94550F0E940B0E42
:101F4000E1CF0E940B0EEDCF2091C20524FF05C00A
:101F500042EC55E066E00C94550F089590914D05C4
:101F6000981307C020914B0530914C052617370771
:101F7000B9F080934D0570934C0560934B058093A9
:101F8000480570934A05609349058091C20584FF16
:101F900007C042EC55E063E088E495E00C94550FEF
:101FA0000895BC0184E00C94AE0FBC0183E00C9456
:101FB000AE0FCF93DF93CAE0D0E080918D0584FF10
:101FC0001CC08091460590914705981799F028E02C
:101FD000829FC00111244DE855E068E08A539B4F71
:101FE0000E94550F8091460590E001968F709927C9
:101FF00080934605DF91CF9108950E940B0E8FE9E3
:102000009FE00197F1F700C000002197B1F6F2CFF1
:10201000CF93DF93EC01A0914705B0E0CD0101968D
:102020008F70992720914605281779F093E0AA0F21
:10203000BB1F9A95E1F7AA53BB4F98E0FE010190B0
:102040000D929A95E1F7809347050E940B0E0E942E
:10205000D90F88E0FE01A0E5B5E001900D928A95C8
:10206000E1F7DF91CF910895019708F40895EFE922
:10207000FFE03197F1F700C00000F6CFDF92EF925A
:10208000FF920F931F93CF93DF937C018B01D42E8C
:102090008091190182FF8CC0C0912403D091250347
:1020A000CE15DF0521F0E114F10409F081C0809123
:1020B00019018B7F8093190181FD73C080912203E8
:1020C00090912303A801481B590B81E0209117012F
:1020D000309118014217530708F480E08170F82E00
:1020E00080911901F0FA81F980931901FE0183E0D2
:1020F000F695E7958A95E1F7EE71FF27EE5FFC4FC5
:1021000020813181AE014F70552781E090E002C0FF
:10211000880F991F4A95E2F7FF2009F444C0822BEB
:10212000932B918380838091010381FF08C080916C
:10213000190180618093190182E00E94210A809137
:10214000010385FF08C08091190180628093190105
:1021500080E20E94210A6F2DCE010E948B0DDD20AE
:1021600031F08091FC0385FF02C086FF3BC0809167
:10217000FF03909100040E943410809124039091F9
:1021800025039C013056211540E2340720F0305ED3
:102190002115304108F499270E945C0D0E94F90A2C
:1021A0001DC081E09BCF8095909582239323B9CF6A
:1021B000C701992797013056211540E2340728F0CE
:1021C000305E2115304108F0C7010E945C0D8091FE
:1021D0002403909125038E159F0501F3109323038B
:1021E00000932203DF91CF911F910F91FF90EF9009
:1021F000DF9008951F93CF93DF93182FC0910104B0
:10220000D0910204893321F0C091FF03D0910004E2
:10221000812F0E94A00C209731F4812FDF91CF9164
:102220001F910C940A0C8FE99FE00197F1F700C011
:1022300000002197F0CF0F931F93CF93DF93C42F0C
:10224000D22FFC0182818823A1F0409307040E94D1
:1022500026059093060480930504C77081E001C0B1
:10226000880FCA95EAF7DF91CF911F910F910C94D7
:10227000030C10910704141339C080910504909148
:1022800006040E940B052091F9033091FA0382178E
:10229000930760F5C0E2CD0F1D17B9F080E2810F02
:1022A000883040F4177081E001C0880F1A95EAF772
:1022B0000E94FC0BC83048F481E09D2F977001C04C
:1022C000880F9A95EAF70E94030C802F0E94FA105B
:1022D000C83098F4D77081E001C0880FDA95EAF72A
:1022E000DF91CF911F910F910C94FC0BC77081E08F
:1022F00001C0880FCA95EAF7F3CFDF91CF911F9104
:102300000F910895AF92BF92CF92DF92EF92FF921A
:102310000F931F93CF93DF93EC018AE0A82E2881BF
:10232000222309F48CC02130C9F599818A8191302A
:1023300021F422960E94FA1005C0923029F42296C8
:102340000E94A00C2196EBCF933021F422960E949C
:102350000A0CF8CF943011F02196F4CF229630E099
:1023600020E0AE014F5F5F4F8053990B8A3091059B
:1023700050F02150310930F38FE99FE00197F1F7D8
:1023800000C00000F6CFA29EB001A39E700D1124E4
:102390009C01260F371F8981EA01E3CFE22FF0E08D
:1023A000E856FF4FB490822F86958695869590E0EB
:1023B000FC01E857FF4FE4902770F12C022E02C079
:1023C000F594E7940A94E2F731E0E322FF24FC015C
:1023D000E858FF4FC490D12C022E02C0D594C79468
:1023E0000A94E2F731E0C322DD24FC01E859FF4FF3
:1023F000049110E002C0159507952A95E2F7017047
:102400001127E114F10419F081EE0E94A00CC1140F
:10241000D10419F086EE0E94A00C8B2D0E94FA10B8
:10242000CD2819F086EE0E940A0CEF2819F081EEF3
:102430000E940A0C012B09F485CF8CE27BCFDF913F
:10244000CF911F910F91FF90EF90DF90CF90BF90B1
:10245000AF9008950F931F93CF93DF9301EE13E096
:10246000C7E6D1E0CE010E946D31F80181938F0162
:102470002196CB38F1E0DF07A9F7CAECD3E0FE01E3
:1024800085919491009711F0FC0109952896F4E04C
:10249000CA36DF07A1F7DF91CF911F910F91089501
:1024A0000F931F93CF93DF93843030F5643020F582
:1024B0004A3010F5C42FD0E0CC0FDD1F24E1629F1D
:1024C000C00DD11D112430E5839FC00DD11D1124F5
:1024D000CE0187960E946D31082F10E0102F002743
:1024E000CE0188960E946D319801282BC901DF9199
:1024F000CF911F910F91089590E080E0F8CF462F83
:102500002091FF0230910003232B91F47E3F39F498
:102510006E3F71F48091FD029091FE020895843027
:1025200038F4743028F46A3018F4672F0C94501281
:1025300090E080E00895CF92DF92FF920F931F9377
:10254000CF93DF936C01009180058091D301082B1C
:10255000C7E0D0E010E0FC2EC8010C2E02C095951B
:1025600087950A94E2F780FD0CC02197A0F7F12C23
:102570008F2DDF91CF911F910F91FF90DF90CF9022
:102580000895B6018C2F0E947F120E947308019754
:1025900061F3EECFCF93DF93EC010E949B12BE015B
:1025A0000E947F12DF91CF910C947308FC01868109
:1025B0009781009721F00E9473080C94B10B8081E1
:1025C00091810E94CA12F9CF1F93CF93DF9300D05D
:1025D00000D00F92CDB7DEB749835A8389819A81A3
:1025E0006623B9F02223A9F00E949B12182F682FAE
:1025F00089819A810E94810B69817A81812F0F9054
:102600000F900F900F900F90DF91CF911F910C942E
:102610007F120E94540B182FEFCFFC01262F8681CA
:102620009781009739F4408151816281738184815F
:102630000C94E412089583E290E00E946D31883991
:1026400089F484E290E00E946D318F3E59F485E276
:1026500090E00E946D3191E08B3E09F090E0892F6F
:102660008170089580E0FCCFCF9384E090E00E94D9
:102670006D31C82F82E290E00E946D31982F8C2F2F
:10268000CF9108950F931F93CF93DF9301EE13E043
:10269000C7E6D1E0CE010E946D31F80161918F0152
:1026A000681719F0CE010E947B312196CB38F1E0FA
:1026B000DF0781F7DF91CF911F910F910895E1EE30
:1026C000F3E0128E138E8FEA90E09183808325E0F1
:1026D000248F88E893E1938382838AE090E0958356
:1026E000848344E150E05783468368E070E071875B
:1026F0006087938782874EE150E0558744879787AC
:10270000868740E550E0518B408B738B628B68E28B
:1027100070E0758B648B62E370E0778B668B68EC9E
:1027200070E0718F608F158E978F868F51A340A3B5
:1027300022A30E9442130C942A12CF93DF93CBE77B
:10274000D2E060E0CE010E947B312196C11584E089
:10275000D807B9F7DF91CF9108950F931F93CF93C7
:10276000DF938901843048F5643038F54A3028F524
:1027700021153C4531F42091FB023091FC02232BC2
:10278000E1F0C42FD0E0CC0FDD1F94E1699FC00DB4
:10279000D11D112490E5899FC00DD11D1124612FF9
:1027A000CE0187960E947B31602FCE018896DF9103
:1027B000CF911F910F910C947B31DF91CF911F919D
:1027C0000F910895CF93C82F6FEF811168E983E2CD
:1027D00090E00E947B316FEFC1116FEE84E290E0D8
:1027E0000E947B316FEFC1116BEE85E290E0CF91DB
:1027F0000C947B31CF93C091E001C2FB992790F9F3
:10280000981799F080FBC2F9C093E0016091DF0155
:1028100084E090E00E947B316C2F82E290E00E9485
:102820007B3182E0CF910C94CE0DCF9108957F92B1
:102830008F929F92AF92BF92CF92DF92EF92FF92D0
:102840000F931F93CF93DF93CDB7DEB76E970FB67D
:10285000F894DEBF0FBECDBFA090FB02B090FC028B
:1028600081E090E09093FC028093FB0284E8C82E04
:1028700082E0D82E00E0760110E015C0F401259129
:102880003491472D612F802F0E94AD1382E0880E76
:10289000911C7394EAE07E12F1CFF4E1EF0EF11C8B
:1028A0001F5F143019F04701712CE8CF0F5F80E5EE
:1028B000C80ED11C0430F9F60E945F131A821982E7
:1028C0001C821B821E821D8218861F8288EC90E06B
:1028D0009A8789870BE811E04AE050E0B801CE0101
:1028E00001960E949F31065F1F4F0B3DE1E01E07DE
:1028F00099F77E01FBE0EF0EF11C8AE0F7011192DF
:102900008A95E9F74AE050E0B801C7010E949F317B
:10291000065F1F4F0B32F2E01F07A1F77E0185E132
:10292000E80EF11C8AE0F70111928A95E9F78FEF22
:102930009FEF9A8F898F87E08E8F4AE050E0B80131
:10294000C7010E949F31065F1F4F0B37F2E01F0740
:10295000A1F7B092FC02A092FB026E960FB6F8941B
:10296000DEBF0FBECDBFDF91CF911F910F91FF90C2
:10297000EF90DF90CF90BF90AF909F908F907F901F
:10298000089580E00E94E21360E086E290E00E94F9
:102990007B310E9417140E949D1381E00C94E21376
:1029A0009B01883070F49AE0899FB001112465572B
:1029B0007E4F4AE050E0C9010E945D3190E080E026
:1029C00008958FEF9FEF08958F929F92AF92BF92DD
:1029D000CF92DF92EF92FF920F931F93CF93DF93EB
:1029E000CDB7DEB72A970FB6F894DEBF0FBECDBFC6
:1029F0000AE014E0F12CE12C8EE7C82E88E2D82EF4
:102A000098EAA92E98E2B92E27EE822E27E2922E7E
:102A1000F801D182C082B382A28295828482F58A33
:102A2000E48ABE016F5F7F4F8E2D0E94D014892BE8
:102A300029F489859A85F801938B828BFFEFEF1A31
:102A4000FF0A0A5E1F4F88E0E816F10409F72A968C
:102A50000FB6F894DEBF0FBECDBFDF91CF911F91AF
:102A60000F91FF90EF90DF90CF90BF90AF909F902D
:102A70008F9008958F929F92AF92BF92CF92DF92E4
:102A8000EF92FF920F931F93CF93DF93CDB7DEB7F3
:102A90002A970FB6F894DEBF0FBECDBF03E812E051
:102AA00081E7C82E82E0D82E9BE2E92E92E0F92E33
:102AB00027E0922E30E7A32E32E0B32E88248394B1
:102AC000D6010D931D936D014AE050E0B701CE0190
:102AD00001960E945D31F8013896DF01892D1D9223
:102AE0008A95E9F789819A81D80111969C938E93F2
:102AF0008F8112968C9312978D8113968C931397D6
:102B0000888514968C931497898515968C931597C0
:102B10008B819C8117969C938E93169718961C9286
:102B200018978A8587FF4BC01E961C921E921D9790
:102B300080FF03C0D80118968C9281FF04C0F80171
:102B400090859260908782FF07C0D80118969C916B
:102B50001897946018969C9383FF04C0F8019085A1
:102B60009860908784FF07C0D80118969C911897A9
:102B7000906118969C9385FF04C0F801808580625F
:102B80008087015F1F4FFAE0EF0EF11C8BE7E8161C
:102B900082E0F80609F094CF2A960FB6F894DEBFCB
:102BA0000FBECDBFDF91CF911F910F91FF90EF909E
:102BB000DF90CF90BF90AF909F908F900895F801D5
:102BC000B686A586B5CFCF92DF92EF92FF920F9394
:102BD0001F93CF93DF93CDB7DEB72A970FB6F89444
:102BE000DEBF0FBECDBFE0E2F2E080E5DF011D9267
:102BF0008A95E9F7EAE8F3E088E3DF011D928A9518
:102C0000E9F780E2C82E82E0D82E7F010BED11E0BB
:102C1000F701D182C0824AE050E0B801CE010196AE
:102C20000E945D3188E0FE013196D60101900D923F
:102C30008A95E1F789859A85D70113969C938E939F
:102C40001297BAE0CB0ED11CE7E0EE0EF11C065F46
:102C50001F4F0B32F2E01F07D9F62A960FB6F894F1
:102C6000DEBF0FBECDBFDF91CF911F910F91FF90BF
:102C7000EF90DF90CF90089510920103E8E6F1E025
:102C800086E0DF011D928A95E9F70C94CC0B8F92B8
:102C90009F92AF92BF92CF92DF92EF92FF920F93EB
:102CA0001F93CF93DF93CDB7DEB728970FB6F89475
:102CB000DEBF0FBECDBF8E010F5F1F4F88E0F80152
:102CC00011928A95E9F796E5E92E91E0F92E6801CF
:102CD000AA24A394B12CF70181917F018F3F09F4BD
:102CE00046C0F894E82FE295EF70F0E021A18F70D4
:102CF000A50102C0440F551F8A95E2F7CA01922F21
:102D0000982B91A392A18095892382A3789400C0E7
:102D1000EAE5F1E021E030E0912C812C41914F3F38
:102D200009F479C0A42FA295AF70B0E090968C9171
:102D300090E04F7002C0959587954A95E2F780FD27
:102D40006AC0C901882A992A220F331F51E0E4364C
:102D5000F50721F7F701319780818F3F11F00E942D
:102D6000190880EA8A95F1F7F60191828082F2E0F3
:102D7000CF0ED11C4AE5E41641E0F40609F0ABCFD2
:102D800048E050E0B80187ED91E00E944031FF2417
:102D9000F394009709F4F12C892B09F43FC088E0E3
:102DA000F801A7EDB1E001900D928A95E1F781E07D
:102DB0008093D6010E9426059093D5018093D4017B
:102DC0008091D4019091D5010E940B05059750F197
:102DD0008091D7019091D8019093F8018093F701E9
:102DE0008091D9019091DA019093FA018093F901D1
:102DF0008091DB019091DC019093FC018093FB01B9
:102E00008091DD019091DE019093FE018093FD01A0
:102E10001092D60107C090E080E094CF8091D60157
:102E20008111CECF8F2D28960FB6F894DEBF0FBE3E
:102E3000CDBFDF91CF911F910F91FF90EF90DF9069
:102E4000CF90BF90AF909F908F90089569EE7EEFE6
:102E500090E080E00E94993160E082E090E00E9482
:102E60007B3160E083E090E00E947B311092D301DF
:102E700060E084E090E00E947B3160E082E290E0DC
:102E80000E947B3160E085E090E00E947B3160E051
:102E900086E090E00E947B316FEF87E090E00E9437
:102EA0007B3140E050E0BA0188E090E00E948D3133
:102EB00060E08DE090E00E947B3140E050E0BA019C
:102EC00088E190E00E948D3160E087E190E00E940F
:102ED0007B3140E050E0BA018CE190E00E948D31FE
:102EE00070E060E080E290E00E94993140E050E0C4
:102EF000BA0188E190E00E948D3180E00E94E213E7
:102F00000E94C11440E050E0BA018FE090E00E94BE
:102F10008D3140E050E0BA0183E190E00C948D31B6
:102F20002F923F924F925F926F927F928F929F92D9
:102F3000AF92BF92CF92DF92EF92FF920F931F93C7
:102F4000CF93DF9300D000D000D00F92CDB7DEB783
:102F50007C01DC0113964D915C91149711966C9154
:102F600011978C910E94F5058111CBC061E0C701DA
:102F70000E940D138C01F7018281811161C0D7017C
:102F800012968C9181119BC000313FE5130709F423
:102F900073C101314FE5140709F472C16801E7E517
:102FA000DE1AFFEFCF16D10409F060F566E172E09A
:102FB0008C2D0E94D014892B29F586E18C9DF0017F
:102FC0008D9DF00D1124E65FFB4F8681813009F065
:102FD00059C18091160290911702892B99F0809126
:102FE000180290911902892B69F080911A02909130
:102FF0001B0220911C0230911D02822B932B892BE6
:1030000009F44AC1F7015280552009F457C10F3520
:10301000FDE51F0709F44EC100362DE5120751F0FA
:103020000E353DE5130709F049C180910001882361
:1030300009F440C11092000180E00E94390C51C097
:1030400080910D0190910E01019609F498CFEAE06C
:10305000CE2EE4E0DE2EB12CA12C99249394809105
:103060000D0190910E018A159B050CF488CFF60195
:1030700086818823E9F0818592850817190739F43C
:1030800080910804909109040817190789F0D60166
:103090001F969C921F971C961C930E931B97C6011C
:1030A0000E94D80AC60106960E94930A10928105D2
:1030B000BFEFAB1ABB0AE6E1CE0ED11CD0CFC801E0
:1030C00082519F45409710F00C94B2208FEF93E00F
:1030D0000E946D317EEED72ED00E0BE712E08823D2
:1030E000A9F18091CF01877061F0D70112968C9180
:1030F000882339F08091E00182FD03C082E00E94C4
:10310000CE0D27960FB6F894DEBF0FBECDBFDF9170
:10311000CF911F910F91FF90EF90DF90CF90BF90D4
:10312000AF909F908F907F906F905F904F903F9067
:103130002F9008950115F4E01F0799F2C8010E942D
:103140006D31811101C0DA940F5F1F4FD110F2CFA2
:1031500019821A821B821C8299249A9468012FEF8B
:10316000C21AD20AC8010E946D3189831A8288234B
:1031700009F4B7CF813009F073C0580132E0A30ED3
:10318000B11CC6010E946D31C82E8A83882309F4C0
:10319000A8CFC5010E946D31D82E8FEF8C0D8330E2
:1031A00068F4580143E0A40EB11CDB82DD2021F05D
:1031B000CE0101960E9482118501D0CF8BEF8C0D3C
:1031C000833030F5C8010396DB825C01DD20A1F37A
:1031D000580154E0A50EB11C0E946D318C838823E8
:1031E00059F38B819C818130AFEF9A0710F0982FB3
:1031F0008827B6E0CB1631F0E7E0CE1631F00E941A
:103200006E28DACF0E943E28D7CF0E94B827D4CFAD
:10321000F4E0CF12D1CF580124E0A20EB11CC801B6
:1032200003960E946D31DD2009F45BCF882309F4F9
:1032300058CF8150990B989E9001999E300D112482
:103240004D2D4150550BCA01820F931F019708F471
:10325000B3CFAFE9BFE01197F1F700C00000F6CFA0
:10326000CE0101960E9482115601A6CF81E00E94F4
:10327000EA0D0E94B70D35CF81E00E94C20DF9CF53
:1032800082E0FBCF823009F0BDCE80911A0290918E
:103290001B02892B09F4B6CE26E12C9DC0012D9D81
:1032A000900D1124865F9B4FDC0150961C920E946A
:1032B000D80AA8CE81E08093000113CF809100014D
:1032C000882309F477C6480140EE841A910840909B
:1032D000D2018091CC01482A80910103482A58E00C
:1032E0008516910408F086C098012770332781E085
:1032F00090E001C0880F2A95EAF7552009F477C0BD
:10330000482AD7018D919C910E94540B21E030E016
:10331000390102C0660C771C8A95E2F7E091DF0361
:10332000F091E003FF83EE8320906E0130906F01F7
:103330001D822D81E22FF0E0EE0FFF1FEF58FD4FB1
:10334000C080D180C114D10409F4F7C6411005C072
:10335000D60112968C91811189C0F601838190E08B
:1033600086219721892B09F481C08085982F977039
:1033700009F487E0F8E08F16910408F055C0552055
:1033800009F44EC086958170882309F46FC0D60178
:10339000AD90BC900A151B0519F4552009F466C0C0
:1033A000EE81FF81CE16DF0609F460C0D6011D96BE
:1033B000ED91FC91309721F08081882309F456C06B
:1033C000642DC6010E94D505882309F44FC00A1553
:1033D0001B0509F0D4C60115110509F4D5C6511015
:1033E000D5C6A214B30409F041C0512CCFC68095B4
:1033F000482287CF552009F489C610936F010093A6
:103400006E010E941A056093D6037093D7038093D0
:10341000D8039093D9031092DE031092DD0371CF8D
:1034200082FB882780F9B0CF552001F18170ACCFA5
:103430000E940A0CC9C60497813A910558F46A2D76
:1034400086E691E00E943205552009F4B3C50E943A
:103450004F0A47CE0E944F0A8FE39CE90197F1F78C
:1034600000C000008A2D0E94A00CEECF9D819F5FBE
:103470009D835FCFFC01208131810217130709F082
:1034800092C5511092C51092DC0380E068C6882373
:1034900009F4DFC5FA018189882309F4DAC5C50179
:1034A000805F9B4F0E94930AD4C58091190181606F
:1034B00080931901FCC5809119018E7F80931901B9
:1034C0000E94F90AF4C5809119018F7E013E110511
:1034D00031F0053E1105C9F4809119018F7D80936B
:1034E00019018091190180FFF1C5D70112968C91C5
:1034F0000832110528F50E31110508F074C00430AA
:10350000110580F58111DEC5E1C5C8019056811510
:1035100040E2940720F0905E8115904110F7809171
:10352000190182FFD3C58091FE0381FDCFC52AEE2C
:1035300031E040E0B60190E080E00E943E10C6C558
:103540000933110558F40D32110518F40B32110529
:10355000C9F69091FC0392FDD5CF08C00436110541
:10356000C1F3D0CF9091FC0394FDCCCF882309F414
:10357000A1C0909101038091D201282F292B322FD5
:103580003D7FB1F110922503109224033091FC038A
:1035900031FD2EC0F80143E0F695E7954A95E1F735
:1035A000EE71FF27EE5FFC4F98012F70332781E00B
:1035B00090E002C0880F991F2A95E2F780959095B8
:1035C00020813181822393239183808360E0C8012D
:1035D0000E948B0D8091D2018D7F0E94060A82E0AD
:1035E0000E94CE0D7ECD9091FC0393FD8BCFBECF7C
:1035F00038E0F701AAEEB1E001900D923A95E1F7BB
:103600001092EC011092EE011092ED01A0902403B3
:10361000B09025030A151B05B1F53091FC0335FF69
:1036200032C04091190141FB992490F841FF02C03A
:1036300036FF29C04091220350912303B601641B39
:10364000750B4091F9035091FA0364177507D8F48C
:1036500091FF08C08091190180618093190182E077
:103660000E94210A8091010385FF08C08091190101
:1036700080628093190180E20E94210A692DC501B0
:103680000E948B0D2ECD9091190121FB91F9909301
:1036900019018D7F0E94060A1093250300932403CD
:1036A000D0922303C09222038091190184608093F9
:1036B000190195CF970140E0B601C8010E943E1064
:1036C00010CD053F4CE5140709F469C008F461C04A
:1036D000063F8CE5180709F468C0D70112963C91A3
:1036E000332309F4A5C5109207040330BDE51B0779
:1036F00008F067C00A3FECE51E0730F4C8018250AD
:103700009C45449708F067C00E9434139093E001F1
:103710008093DF0101313CE5130709F46CC108F027
:10372000E9C009305CE5150709F453C108F0B6C0DB
:1037300005309CE5190709F444C108F09CC003302A
:10374000BCE51B0709F433C108F037C18091DF01E4
:10375000816002301C4509F42DC16091DF01109198
:10376000E00184E090E00E947B31612F82E290E0F2
:103770000E947B310E943C16B4CC07E225EE45EE58
:1037800068ED7CE5BEC406E221EE40EE63EF7CE529
:10379000B8C407E225EE44EE64EF7CE5B2C406E26D
:1037A00021EE42EE65EF7CE5ACC407E225EE46EE85
:1037B00066EF7CE5A6C408E221E045EE69ED7CE514
:1037C000A0C40136FDE51F0709F49ECF053A2DE59B
:1037D000120709F499CF06318CE5180709F42CC5B6
:1037E0000A358DE5180709F45DC108F038C10115E7
:1037F000ACE51A0709F445C10E3D1C4509F44FC15B
:10380000F70186819781009709F450C10E947308DF
:10381000182F092FF701D280C580C2943FE0C32240
:103820008091CF018770C1F0AD2CDD20B1F0892FE0
:10383000807F803421F080E2810F883068F08091B1
:10384000E00182FD09C082E00E94CE0D8091CF018F
:103850008770AA24A3948111A12C902E92942FE01A
:103860009222FBE0F91508F4AEC1E92DF0E0E7542F
:10387000FE4C0C942A318091DF01806207302CE5E8
:10388000120709F497C08091DF01806108301C4560
:1038900008F490C08091DF0180648CC08091DF01CA
:1038A0008B7F0D304CE5140709F484C080F40B3095
:1038B0008CE5180709F493C08091DF018C600C300F
:1038C0001C4508F477C08091DF018D7F73C0809123
:1038D000DF018F7E0F30ACE51A0709F46BC08091D1
:1038E000DF01877F00311C4508F464C08091DF014F
:1038F0008F7D60C00D3FECE51E0709F478C050F5E0
:1039000005312CE5120709F480C098F48091DF019D
:10391000837F03314CE5140709F44CC008F46FC0F1
:103920000E943C169091DF01892F97FB87F9805800
:1039300041C00B3F8CE5180709F447C008F053C09D
:103940008091E00181600A3F1C4509F006CF809319
:10395000E00103CF0130BDE51B0709F462C0B8F4F4
:103960008091E0018C7F0F3FFCE51F0781F3809180
:10397000E001836001151D4550F38091E001982F0F
:10398000909591708E7F892B90FB81F9E0CF013665
:103990003DE5130709F44BC0053A4DE5140709F45A
:1039A0004DC002301D4509F0D8CE60E03BC080918B
:1039B000DF0182608093DF01D0CE8091DF018460DF
:1039C000F9CF8091DF018860F5CF8091E0018260BE
:1039D000BECF0E943C168091DF018068EBCF8091C2
:1039E000DF018E7FE7CF8091E0018E7FB0CF8091A5
:1039F000E0018D7FACCF8091DF018F7BDBCF0E9418
:103A00003C168091DF018F77D5CF8091DF0182FB5B
:103A1000992790F921E0922790FB82F990FB83F996
:103A2000C9CF61E08EE090E00E947B3196CE90910C
:103A3000DF01892F8F7E94FF8061BCCF9091DF01E1
:103A4000892F8E7F90FF8160B5CF809170018111A9
:103A500004C089E20E941D0BFACC85E3FBCF0B3535
:103A6000EDE51E0709F10C351D4509F0C9CE809121
:103A7000E00182FB882780F991E089270E94FA13F0
:103A8000BFCE0E943C162FEF34E34CE02150304073
:103A90004040E1F700C000000E94F60422CB0E94E3
:103AA00026171FCB81E0EACF80E0E8CF828100813A
:103AB0001181882369F0C8010E949B12D82E682FBB
:103AC000C8010E94810BB8018D2D0E947F129ECEED
:103AD000C8010E94540BD82EF6CF202F2F70B22E83
:103AE000802F807F19F0B29490EFB922DD20A9F0E9
:103AF000BB2059F080E2810F883010F0111107C00F
:103B00008B2D0E94280A0E944F0A812F5AC0809153
:103B10008105B82AB0928105F6CF812F0E940A0C48
:103B2000BB2009F450C080E2810F883010F01111E1
:103B300004C08B2D0E94210A03C08B2D0E941A0AFB
:103B40000E944F0A40C0302F3F70B32E802F807FDD
:103B5000803219F0B29480EFB822112321F1113094
:103B600009F4A4C0DD2009F4ADC0CC2009F47DC067
:103B700020E0D7014C9111965C91119712966C91AF
:103B8000129713967C91139714968C910E94E412CD
:103B90008091FE0381FDB9CFF701858180FFB5CF0C
:103BA0008F70858362C08091E00182FF40C0DD207C
:103BB000C1F1BB2029F08B2D0E94280A0E944F0AD8
:103BC00080E00E94A00CA92DA850BB0B149710F404
:103BD0000E947805812F902F0E94B10B8111C4C1E2
:103BE0001092720110927101AA20B1F08091CF0160
:103BF00080FD12C0D70112961C92859585958595FA
:103C00000E94EA0DC7010E9490178091CF0185950F
:103C1000859585950E94C20D60E0C7010E940D1335
:103C200070CA80E00E940A0CBB2069F282CFDD20BE
:103C300001F1C11004C08091D2018B2917C041E06D
:103C4000C41206C08091D2018B290E94060ABBCF04
:103C50008091FD03823078F3C812EDCF0E94FB09FA
:103C60008091CC01B812B092CC018B2D0E94030C34
:103C7000AACFC11006C00E94FB098B2D0E94FC0B2D
:103C8000A2CF8091FD0351E0C5120BC0823008F431
:103C90009ACF809101038B2109F495CF0E94170BD5
:103CA000EACF823040F3C812E6CF8DCF8091030473
:103CB000DD2021F08C1508F486CFD7CFC81608F088
:103CC00082CFDBCFCC20C9F2809101049091020415
:103CD000193321F08091FF03909100040E94341069
:103CE000812F0E940A0C6FCF802F86958695837056
:103CF00069F0813009F067CF812F902F9370D11038
:103D000002C090E080E00E944C055DCF812F902F93
:103D10009370D11002C090E080E00E94620553CF02
:103D2000812FDD2029F00E94AF070E946D064BCF46
:103D30000E949406FACF802F837091F5D11043CF63
:103D4000412F429546954770440F440F812F8F7045
:103D5000042E01C0880F0A94EAF7212F207114FF66
:103D600007C02FE030E001C0220F4A95EAF7209506
:103D7000302F369536953370323069F050F44091DB
:103D8000D301313029F0822B84230E94E70B1BCF13
:103D9000842B822BFACF282B8091D3018227F5CF59
:103DA0008695DD2011F0802F8170882309F40BCFD8
:103DB000412F429546954770440F440F812F8F70D5
:103DC000042E01C0880F0A94EAF7212F207114FFF6
:103DD00007C02FE030E001C0220F4A95EAF7209596
:103DE000302F369536953370323069F050F440916B
:103DF0008005313029F0822B84230E94B10DE3CE5F
:103E0000842B822BFACF282B809180058227F5CF37
:103E1000F02FFF70BF2EDD2029F08F2F0E94EA0DBA
:103E2000812F24CF812F0E94FC0B8B2D0E94C20D6D
:103E3000CACE123F89F160F4103FB9F0113F81F012
:103E4000DD2009F48CC0C11060CE802F8F7128C096
:103E5000133F49F1143FA1F78091E00182FF2FC089
:103E6000802F8F71DD2011F31BC080910304DD20B2
:103E700079F0C81608F0A7CE202F2F7181E090E0CE
:103E800001C0880F2A95EAF7909180058927B5CF60
:103E90008C1508F498CEF0CF802F8F71D110C6CF3B
:103EA0000E94EA0D90CE80E0DD2009F4A6CF81E0EB
:103EB000902F9F7101C0880F9A95EAF79ECF80914D
:103EC000FD038230A0F18091CC01DD20F1F00E9451
:103ED000210A8091CF018770843041F40E942E0A1C
:103EE000802F8F710E94C20DA12C6DCE8091FD0399
:103EF000C816D0F7202F2F71B22E822F0E94EA0D04
:103F000063E08B2D0E94F50DEFCF0E94280A80916F
:103F1000FD03C81640F00E942E0A0E94170B64E0B1
:103F2000802F8F71EFCF81E00E94CE0DDDCFDD209D
:103F300059F0302F3F71B32E832F0E94EA0D63E0BA
:103F40008B2D0E94F50D3FCE81E00E94CE0D41E009
:103F50004C1508F038CE82E00E94CE0D34CEC11050
:103F6000B3CE802F8F7162CFDD2019F0C11038CE13
:103F70003BCEC11035CE20E0F701408151816281F6
:103F8000738184810E94E4128091FE0383FF28CE16
:103F90008091710190917201029709F021CE812FD9
:103FA0000E94FA101DCE552029F0DC0118968C9144
:103FB00085FF6BCAC80197558F3F910511F008F036
:103FC00048C020910D0130910E012817390724F4C3
:103FD00090930E0180930D01F701228136E1389F05
:103FE0005001399FB00C1124A501465F5B4F6A0157
:103FF000DA0150962C935097928116968C911697D1
:10400000992309F444CA1A961C930E9319978F5F4B
:1040100016968C930E942605F601968785878091D7
:10402000D20187838091810590910103892B80873C
:104030000190F081E02D309741F0D60154966D91BA
:104040007C91C501805F9B4F0995109309040093F3
:1040500008048091FC0380FF39C00E9426056C0192
:10406000D70112968C91882309F42DCA80911901E9
:1040700082FF08C02AEE31E040E0B60190E080E027
:104080000E943E100B31BCE51B0709F40ECA0C312F
:10409000ECE51E0709F40FCA90911901892F8E7F54
:1040A00090FF81600A31FCE51F0709F407CAC801C7
:1040B0009056811520E2920728F0905E811590417C
:1040C00008F00FCA1092250310922403033FBCE5A9
:1040D0001B0709F458CB08F0F4CA083DFCE51F079C
:1040E00009F44BCB093D2CE5120709F464CB073DDD
:1040F0003CE5130709F0F1CA06E221EE41EE67ED57
:104100007CE5C7010E941B110C94711880916E010F
:1041100090916F010817190781F410926F011092A6
:104120006E011092D6031092D7031092D80310920A
:10413000D9031092DE031092DD038091DF0390918A
:10414000E003009709F436CFA8E08A16910408F03E
:1041500091C9642D0E94D50581112CCF81E00E9468
:10416000390C28CF0031FFE51F0709F47FC8013162
:104170002FE5120711F00C94021882E078C8A11400
:10418000B10409F02EC9512CB12CA12C80E00E9461
:10419000390CD092E003C092DF0381E08093DC030E
:1041A000F60185818093DA0351100EC0AB2861F0CF
:1041B000F601808191819C0124503109213A310519
:1041C00008F036C90E941D0BD6011696AD90BC9022
:1041D000C5019A9581159F4110F4E0EEBE22772427
:1041E0007394C5010197853A9D4508F0712CD6015D
:1041F0001996ED91FC911A97309731F01B966D91BD
:104200007C9181E009957822772079F0F60186810A
:1042100097810E942B0D8093DB03C501F8E08F1678
:10422000910408F008C90E9484050E944F0A0CC935
:1042300006311C4509F0E4CA80910103982F9A7A4F
:104240002091FB0320FF04C0482F447409F090E044
:1042500021FF04C0482F417109F090E022FF04C003
:10426000482F487809F090E023FF03C0827209F0DC
:1042700090E0332309F4E9CB81E0911101C080E0A3
:104280008093700169E2911165E386E691E00E94F6
:104290003205DDC8CF92DF92EF92FF920F931F930A
:1042A000CF93DF9380918701807F31F480918401E7
:1042B000C091CB0181110BC0DF91CF911F910F9164
:1042C000FF90EF90DF90CF9008952196C770809176
:1042D0008A018C1789F3F0908201E0908301C090ED
:1042E0008501D0908601A6016E2D8F2D0E94F505C7
:1042F000D0E08111EACF8E0183E0000F111F8A9573
:10430000E1F7F801E557FE4F81818E11DECF808104
:104310008F11DBCF82818111D8CFE380F480EC183C
:10432000FD0860E082E891E00E940D138091F9039E
:104330009091FA03E816F90640F6809187018F7094
:10434000806180938701F801E057FE4F80818F7074
:104350008061808382E891E00E949017DF91CF9185
:104360001F910F91FF90EF90DF90CF900C944A0B2C
:104370003F924F925F926F927F928F929F92AF92F5
:10438000BF92CF92DF92EF92FF920F931F93CF9342
:10439000DF93CDB7DEB765970FB6F894DEBF0FBEDB
:1043A000CDBF8C0185E0F801DE01519601900D92A0
:1043B0008A95E1F7D8014C9011965C90119712966E
:1043C000EC9012971396CD90DC9060E082E891E03B
:1043D0000E940D1382E8A82E81E0B82E80908501FE
:1043E00090908601A40160918301809182010E94D6
:1043F000F5058111CAC1F0908401F601E819F909A7
:104400004F0160E0FF2009F46DC1C5010E940D134A
:104410006090F9037090FA03309087018614970436
:1044200008F013C14091850150918601B09082013E
:10443000A0908301832D807F6A2D09F0ADC08B2D64
:104440000E94F505FE2C81113BC0D80111968C917C
:1044500011978A1135C08C918B1132C0209188013F
:104460003091890116968D919C912817390741F555
:10447000E11026C0832D8F7080618093870182E8D0
:1044800091E00E94901780918701F80185838F2D1C
:1044900065960FB6F894DEBF0FBECDBFDF91CF910A
:1044A0001F910F91FF90EF90DF90CF90BF90AF9052
:1044B0009F908F907F906F905F904F903F90089566
:1044C000F4EF6F16F1E07F0620F48091FE0380FF89
:1044D00021C0A601652D842D0E94F505811118C00B
:1044E00081E08E2580FF16C04E2D652D842D0E9403
:1044F0002A0B882379F082E891E00E94901788E0E7
:10450000E2E8F1E0DF011D928A95E9F7F12CBFCFD7
:1045100080E0E8CFA601652D842D0E94F50581116C
:1045200024C081E08E25B82FB170CB2E80FF2BC028
:104530004E2D652D842D0E942A0BD82E811123C06B
:10454000498A5A8A89899A890E94CA12292F2295F2
:104550002F70223060F0243088F49F7061F0F801F1
:104560009581907F41F4FD2C92CF80E0DCCF9F704D
:1045700011F08823C1F3805E8830A8F3C8010E943F
:104580009017DC2CF0CFEE2009F481CF80918701C9
:10459000816080938701BACF8B2D0E94F505811130
:1045A00024C0D80111968C9111978A111EC08C914C
:1045B0008B111BC0209188013091890116968D9135
:1045C0009C9117972817390781F4E1100EC01596B2
:1045D0003C92C8010E94901788E0F801A2E8B1E07F
:1045E00001900D928A95E1F752CFC8010E94D61230
:1045F000882339F1EE2029F1809187018032A0F0E3
:1046000020918201309183013A8729871B86DD86BC
:10461000CC868E878091880190918901988B8F87B5
:10462000CE0109960E94901788E0F801A2E8B1E057
:1046300001900D928A95E1F70E944A21FF24F3949C
:1046400026CFC8010E949017F9CF832D807F09F4EF
:1046500052CF9090820180908301409185015091CA
:104660008601682D892D0E94F50581111CC0F80175
:104670008181881118C08081891115C0209188011D
:1046800030918901868197812817390761F4E110FB
:104690000AC03582C8010E94901788E0D5011D929A
:1046A0008A95E9F7F4CEC8010E94D612882349F210
:1046B000EE2039F280918701803208F4B5CF209145
:1046C0008201309183013A8329831B82DD82CC826F
:1046D0008E83809188019091890198878F83CE0184
:1046E0000196A0CF82E891E00E940D138091F9031A
:1046F0009091FA038816990680F6FE2CEE2009F4B4
:10470000A0CFE0908201D09083014091850150912B
:1047100086016D2D8E2D0E94F505811128C0F801AE
:1047200081818D1124C080818E1121C0209188014A
:10473000309189018681978128173907C1F48091CA
:10474000FE0382FD49CF9091870190FD45CF907F78
:1047500009F442CF809187018583903F09F439CFD6
:10476000982F907F905F8F70892B858332CFC801FF
:104770000E94D612811158CF809187018160809369
:104780008701C8010E94901782CEEE2009F459CF0C
:10479000C8010E94D612F82E882309F452CF88E06F
:1047A000F801A2E8B1E001900D928A95E1F78091BD
:1047B0008201909183010E94CA120E944A2167CE11
:1047C000CF93DF93CDB7DEB760970FB6F894DEBF17
:1047D0000FBECDBF29873A874B875C876D877E8761
:1047E0008F87988BCE0109960E94B82181112FC026
:1047F00088E0FE013996DE01119601900D928A95AE
:10480000E1F74C855D856A8589850E94F5058111F2
:104810001EC0A0918A01B0E0CD0101968770992752
:104820002091CB012817190609F193E0AA0FBB1FAD
:104830009A95E1F7A557BE4F98E0FE013196019099
:104840000D929A95E1F780938A010E944A0B80911C
:10485000CB0190918A01891317C060960FB6F89426
:10486000DEBF0FBECDBFDF91CF9108950E943C16F1
:1048700010928A011092CB0188E0E2E8F1E0DF01BA
:104880001D928A95E9F7E3CFB8E08B9FC001112410
:1048900085579E4F0E94B8218823F9F28091CB0161
:1048A00090E00196877099278093CB01D0CFEF924B
:1048B000FF920F931F93CF93DF9380912903882357
:1048C00061F0C09128038CE0F82E80912903C8176D
:1048D00058F01092290310922803DF91CF911F9175
:1048E0000F91FF90EF900895EE24E394EC0EE09288
:1048F00028030C2F10E0CF9DE0011124C65DDC4F92
:104900004B815C81698188810E94F50581111DC000
:104910008E819F81892B21F488859985019651F498
:10492000288139814A815B816C817D818E819F8163
:104930000E94E023F09EF001F19EF00D1124E65D4F
:10494000FC4F1482138210928105CE2DBECF10929F
:10495000CD031092CC0310921A018091CB03809367
:10496000CA030E942E060C9457243F924F925F92E6
:104970006F927F928F929F92AF92BF92CF92DF926F
:10498000EF92FF920F931F93CF93DF93C091CA03CF
:1049900097E0892E01E010E02CE0322E3EEF932EBE
:1049A000442443948091CB038C1315C00E94572458
:1049B000DF91CF911F910F91FF90EF90DF90CF90FB
:1049C000BF90AF909F908F907F906F905F904F902F
:1049D0003F900C942E06D0E0FE01EE0FFF1FEE5329
:1049E000FC4F80819181889ED001899EB00D112459
:1049F000A657BC4F14962C911497211157C0509074
:104A00002903EAE2F3E030E020E0712C5D01251596
:104A100008F04AC0E284F384D501CD90DC906FEFBA
:104A20007FEF612C462D50E0DA01AA0FBB1FAC0DC1
:104A3000BD1D0D90BC91A02D109731F0EA16FB061C
:104A400009F4BA016394EECF6F3F7607A1F1D80164
:104A500002C0AA0FBB1F6A95E2F77A2AB80102C00A
:104A6000660F771F6A94E2F7AB0141505109741643
:104A70001506F9F4329EF001339EF00D1124E65D27
:104A8000FC4F889ED001899EB00D1124A657BC4FC3
:104A900012962D913C9113973783268390829182B1
:104AA0009187808715964C920E9400062196C370CC
:104AB00079CF148213822F5F3F4F3C96A8CF2F925D
:104AC0003F924F925F926F927F928F929F92AF929E
:104AD000BF92CF92DF92EF92FF920F931F93CF93EB
:104AE000DF93CDB7DEB769970FB6F894DEBF0FBE80
:104AF000CDBF942F498B252F5A8B6B8B7C8B8D8B45
:104B00004C895D89622F892F0E94F505811109C0AA
:104B1000809171019091720101969093720180933E
:104B200071018B898111109281051D861E861F8659
:104B3000188A85E0FE017196DE01199601900D92AA
:104B40008A95E1F78091E00182FD1EC08091E30328
:104B50009091E403892BC1F00E9426052091CD019C
:104B60003091CE01821B930B2091E3033091E4033B
:104B70008217930720F08091CF0182FFF5C10E9438
:104B8000350A81110E94FB094C855D856A858985FE
:104B90000E94F505811111C061E0CE0109960E94C5
:104BA0000D136C018B8527EFC2162CE5D20681F41C
:104BB000882321F181E080931A0129853A854B856C
:104BC0005C856D857E858F8598890E94E023C5C0B0
:104BD00038EFC3163CE5D30629F4882379F00E9408
:104BE000A724EBCF49EFC4164CE5D40639F488234B
:104BF00029F080911A018111F2CFDCCF0AE813E08D
:104C0000512CB12CA12C22242394312C2EEF422E96
:104C1000F8014081518188248A94982C20E0822FC9
:104C200090E0FC01EE0FFF1FE40FF51F6081718122
:104C30006115710531F0C616D70609F44C012F5FD6
:104C4000EECFF12CFFEF8F169F0609F448C0F80154
:104C50004481F0901A018F2D411180E0F82FF170FE
:104C6000FF2EF801E58086819B85992309F40CC10C
:104C7000FF2009F409C16090F7037090F803E11078
:104C800012C0A10101C0440F8A94EAF7842B8683E5
:104C900080912603909127038615970520F4709242
:104CA000270360922603C10102C0880F991F2A952D
:104CB000E2F70197F80126812817190681F48091FF
:104CC000CC039091CD03009709F460C00E940B05BE
:104CD0006816790608F05AC021E0F80124835F289D
:104CE000FFEFAF1ABF0A095F1F4F28E0A216B104F9
:104CF00009F08ECF8B85882309F421C1552009F452
:104D00001EC10E9426059093CD038093CC03809111
:104D10002903883010F591E0980F9093290398E0CB
:104D2000FE013996DE01119601900D929A95E1F7F8
:104D30003CE0839FC0011124865D9C4F28E0FE016A
:104D40003196DC0101900D922A95E1F72FEF3FEFAC
:104D5000FC0131872087D386C28669960FB6F89406
:104D6000DEBF0FBECDBFDF91CF911F910F91FF909E
:104D7000EF90DF90CF90BF90AF909F908F907F90FB
:104D80006F905F904F903F902F9008958091CA034D
:104D90005091CB03982FF0E0E0E0851314C090937E
:104DA000CA03E017F10709F49ACF90E0FC01EE0F77
:104DB000FF1FEE53FC4FB182A082019683709927AA
:104DC0008093CB038CCF682E712CF301EE0FFF1F65
:104DD000EE53FC4F2081318147E0429FD001439F39
:104DE000B00D1124A657BC4F6D917C911197798F0E
:104DF000688F40E020E030E0E32FF0E0EE0FFF1F8F
:104E0000688D798DE60FF71F808091808114910461
:104E1000E1F0F8010190F081E02DFF8BEE8B20E0B6
:104E200005C08616970609F44F2D2F5FE22FF0E09C
:104E3000EE0FFF1F6E897F89E60FF71F608171817A
:104E40006115710571F73F5FD7CF4423D1F0F801A9
:104E5000231708F0FD0121E024830E171F0721F41A
:104E60009093CA03F42E3BCF981305C0AE17BF072B
:104E700011F49F5F937093012F5F3F4F822F8370D8
:104E80008CCFF0E0E0E0F7CF90E0E1101FC0B1017F
:104E900002C0660F771F2A95E2F79B012150310966
:104EA0008217930731F4442309F447C0C5010E94D7
:104EB0000006C10101C0880F8A94EAF7982F9095E7
:104EC000F801868189238683FE2C09CF9C01082C5A
:104ED00002C0359527950A94E2F7A901417055273C
:104EE000BC016150710986239723892B11F5452B4D
:104EF00001F1F80182819381892BC1F01B821C8210
:104F00001D821E8249824A820E9426058160582F96
:104F10009D838C83F801828193818F839887298177
:104F20003A814B816D817E810E94E023F8011582D8
:104F3000C0CFF22FF170EF2EBCCFEF2CBACF9091F3
:104F4000CA038091CB03981731F00E94B5245520F5
:104F500009F433CE02CF0E9457241092CD03109251
:104F6000CC030E942E06F3CF82E00E94CE0D07CE26
:104F7000CF93DF9300D000D00F92CDB7DEB79093E0
:104F8000FE028093FD02811520E2920748F40F9003
:104F90000F900F900F900F90DF91CF910C945C0DBC
:104FA0008EEF89838A831B820E9426058160782F79
:104FB0009D838C8349815A816B818D810F900F90E5
:104FC0000F900F900F90DF91CF910C945F250F936E
:104FD0001F93CF93DF938C01EB0166E172E08C2F7E
:104FE0000E94D014892BA1F48091FF0390910004BA
:104FF0000E943410DD27C25FDD4F8881F8011082E6
:105000001882833009F148F4813059F0823081F000
:10501000DF91CF911F910F9108958430D1F08530A9
:10502000B9F78091160290911702009789F306C094
:105030008091180290911902009799F3DF91CF9116
:105040001F910F910C94B82780911A0290911B0226
:10505000F3CF80911C0290911D02009779F7209167
:1050600016023091170280911802909119022115B1
:105070003105D9F2009711F7C901E0CFCF93DF9343
:1050800000D000D00F92CDB7DEB79093FE02809390
:10509000FD02811520E2920748F40F900F900F90C7
:1050A0000F900F90DF91CF910C94740D8EEF898348
:1050B0008A8381E08B830E9426058160782F9D83FF
:1050C0008C8349815A816B818D810F900F900F9055
:1050D0000F900F90DF91CF910C945F25CF93DF93CA
:1050E000EC010E943E288091FF03909100040E94F1
:1050F0003410CE01DF91CF910C94B8270F931F93FA
:10510000CF93DF938C01862F66E172E00E94D0146A
:10511000892BC9F4C0911602D0911702209799F0FB
:10512000F8018081833069F4CE010E946E28CE019F
:105130000E946E28CE01DF91CF911F910F910C94A8
:105140006E288430B8F7DF91CF911F910F910895A9
:105150000F931F93CF93DF938C01EB0166E172E015
:105160008C2F0E94D014892B09F064C0FE01FF2708
:10517000D8018C91E25FFD4F8130D9F419969C9152
:105180001997992311F080830CC01A969C9199234A
:10519000D1F382E0808380911802909119020097E8
:1051A000D9F48091160290911702009709F442C039
:1051B00013C08230E9F519968C91199781112DC091
:1051C0001A968C9181110EC083E0808380911A021F
:1051D00090911B02009719F1DF91CF911F910F91D0
:1051E0000C943E2884E0808380911C0290911D02E3
:1051F000009791F780911602909117020097F9F0AD
:105200000E946E288091180290911902009721F750
:105210008091160290911702DFCF85E08083809104
:10522000160290911702009729F00E946E28F0CF85
:1052300086E08083DF91CF911F910F910895809137
:10524000180290911902B1CF78941F921FB61F9245
:1052500011248F939F93AF93BF938091C204909139
:10526000C304A091C404B091C5040196A11DB11D51
:105270008093C2049093C304A093C404B093C50464
:10528000BF91AF919F918F911F901FBE1F90189556
:105290001F921FB61F9211248F939F93AF93BF93BA
:1052A0008091C004811113C08091C2049091C30405
:1052B000A091C404B091C5044196A11DB11D809375
:1052C000C2049093C304A093C404B093C504BF91D7
:1052D000AF919F918F911F901FBE1F901895CDB7D2
:1052E000DEB768970FB6F894DEBF0FBECDBF0E9441
:1052F0002605909300028093FF0180E890E00FB6AE
:10530000F89480936100909361000FBE87E198E06C
:1053100090936501809364010E94E4140E94E31558
:105320000E943A150E942A12809169008860809339
:105330006900E99A8BE480938E058093C30580937E
:105340009A058AE580938D058093C205809399051F
:10535000539A80E0815009F0B9C05398789482E064
:1053600084BD93E095BD9AEF97BD80936E000E9437
:105370001B13811102C00E94C11481E30E9419080D
:1053800083E30E94190880E60E94190884E60E94BF
:1053900019080AE511E074E6E72E71E0F72EF8012E
:1053A00081918F018F3F11F00E941908E016F106DC
:1053B000B1F788E0E7EFF1E0DF01282F1D922A9591
:1053C000E9F7E7EDF1E0DF011D928A95E9F790E05A
:1053D00080E00E947531893E9E4F21F40E941B138C
:1053E000811102C00E94261782E090E00E946D3178
:1053F0008093E1010E9434139093E0018093DF01D8
:105400000E944716EFE3FCE93197F1F700C0000076
:105410000E9447168091F70180FF08C06FEF7FEF71
:1054200090E080E00E9499310E94F60483E090E0D1
:105430000E946D310E94E70B809180050E949F0DB4
:1054400081E091E09093BD048093BC04FFEF20E7DE
:1054500042E0F15020404040E1F700C00000CE01A2
:1054600001962C0122242A945AE0352E62E3862EDE
:10547000912C8091A8051091C104882379F1109294
:10548000A8050E942605909300028093FF01112336
:1054900009F469C51092C1040E943C160E94780567
:1054A0008091C104882309F45EC50E94F10C0E941A
:1054B0004716E7EFF1E081919191892B09F0F6C44D
:1054C000AFEFB1E0AE17BF07B1F7D3CFA895AFE903
:1054D000BFE01197F1F700C000003CCF1111E5CFFC
:1054E0008091FF01909100020E940B05069708F43D
:1054F0003AC581E08093C1040E94F10CD6CF6F5F62
:10550000EE0CFF1C6A3009F053C50F5F1F4F0430CB
:10551000110509F03EC5288A298A1A8A0E942605A3
:105520008160782F9C8B8B8B488959896A898C89FB
:105530000E945F2564C526E1289FF001299FF00D98
:105540001124E65FFB4F028913890115110521F42F
:105550000091F9031091FA0346E1489FF001499F39
:10556000F00D1124E65FFB4F86818823A9F0858525
:1055700096850E940B050817190770F456E1F59EF1
:1055800080011124C801865F9B4F0E94D80AC80180
:10559000805F9B4F0E94930AF3948F2D90E020919F
:1055A0000D0130910E01281739072CF675C5809131
:1055B000CC039091CD03009709F472C50E940B05AE
:1055C00020912603309127032817390708F068C572
:1055D0009091CA038091CB03981759F00E94B5248B
:1055E00010922703109226031092CD031092CC0341
:1055F00057C50E9457241092CD031092CC030E94ED
:105600002E064EC520911601239D900111242417CA
:10561000350708F094C59F5F9093020202C09F3F38
:10562000D1F7EE2059F00E9450079FEF1E140CF4A2
:1056300091E0899F802D112480930A02FF2059F068
:105640000E9450079FEF1F140CF491E0899F802D5A
:10565000112480930B0230910A02332309F46FC5A1
:1056600020910B02222309F46AC545EB3403C001E3
:105670001124992359F090930A0255EB25039001C8
:105680001124332339F030930B0259C581E0809304
:105690000A02F3CF81E080930B0251C520911201E1
:1056A000239D900111242417350708F05DC59F5FE5
:1056B0009093010202C09F3FD1F7002359F00E944E
:1056C00017079FEF10160CF491E0899F802D11248D
:1056D00080930C02112359F00E9417079FEF1116B7
:1056E0000CF491E0899F802D112480930D0230915C
:1056F0000C02332309F438C520910D02222309F44A
:1057000033C545EB3403C0011124992359F090931C
:105710000C0255EB250390011124332339F030930B
:105720000D0222C581E080930C02F3CF81E08093CB
:105730000D021AC58C3009F4FDC058F5843009F407
:10574000D6C058F4823009F470C008F0BCC0813073
:1057500009F465C0209260057EC0863009F4E7C078
:1057600008F4D5C08B30B1F78091FB029091FC0218
:10577000892B09F470C00E947E0FEFEFF1EE24E058
:10578000E150F0402040E1F700C000000E94F60424
:1057900062C0803109F406C1B0F58E3009F4D3C07F
:1057A00008F4CCC08091FB029091FC02892B09F493
:1057B00052C0E0906305F12CFDE1EF16F10408F012
:1057C0004AC000916105109162051027012710273A
:1057D00050E6C52E55E0D52EE00EF11EC8018558C5
:1057E0009D4FE016F106B9F1053821E0120728F4C3
:1057F000D60114966C910E947B31BFEFCB1ADB0A65
:105800000F5F1F4FEBCF823109F4D1C008F4CDC038
:10581000833109F4FAC08E3F09F09CCFE9C410929D
:10582000610589E08093620516C080916105823030
:1058300009F48EC38330A1F0813009F08BCF0E9430
:105840001A050E943031609362057093630580935E
:105850006405909365050E947E0F10924E0509CE57
:105860008091FB029091FC02892BA9F38091F701B2
:105870009091F80198278927982790936305809342
:1058800062058091F9019091FA019827892798275C
:1058900090936505809364058091FB019091FC01D4
:1058A00098278927982790936705809366058091AC
:1058B000FD019091FE01982789279827909369050B
:1058C00080936805C8CF80916105823009F042CF8E
:1058D0006091620570916305809164059091650502
:1058E0000E94303186E290E00E947B31B4CF40913B
:1058F000630560916205809161050E9450129827AE
:10590000892798279093650580936405A4CF2091FB
:1059100064053091650532272327322740916305BE
:1059200060916205809161050E94AD1394CF0E9441
:10593000171491CF80E1809361058DCF81E0809332
:10594000610585E86FCF0091630510E00D31110509
:1059500008F081CFE0906105F0906205FE24EF240D
:10596000FE2460E6C62E65E0D62E005A1A4FC70107
:1059700085589D4F0C151D0509F46DCFA5E8EA1655
:10598000A1E0FA0658F40E946D31F6018483BFEF5E
:10599000EB1AFB0AEFEFCE1ADE0AE9CFD601149616
:1059A0001C92F5CF0E949D1356CF84E0C4CF009186
:1059B000630510E00D31110508F04DCFE090610551
:1059C000F0906205FE24EF24FE2440E6C42E45E05C
:1059D000D42E005A1A4FC7018796C016D10609F473
:1059E0003ACFE0E4EE16E1E0FE0660F40E946D318D
:1059F000D60114968C93FFEFEF1AFF0A2FEFC21A0D
:105A0000D20AE9CFF6011482F6CFE0906305F12CBB
:105A10004DE1E416F10408F01ECF009161051091EC
:105A20006205102701271027003451E0150708F000
:105A300012CF80E491E0801B910B8E159F0508F436
:105A40000ACFC8018796988F8F8B8091FB02909127
:105A5000FC023701600E711E892BA1F5680191E0EF
:105A6000C922DD2400FF0EC0C80186960E946D3158
:105A70009091640589279827892781159C4511F401
:105A800020926405570160FE17C0B1E0AB1AB1085F
:105A9000F501EC59FA4FFE8BED8B8F89988D8E0DA9
:105AA0009F1D0E946D31AD89BE899C9181159C45D9
:105AB00019F4ED89FE892082F601E05AFA4FCA14E2
:105AC000DB0428F030E6E32E35E0F32E1AC0948193
:105AD000858181159C4511F42482258242E0C40E03
