:100000000C9450030C9497030C9497030C9497034F
:100010000C9497030C9497030C9497030C949703F8
:100020000C9497030C9497030C94E32D0C94B92E25
:100030000C94982D0C9497030C9497030C949703AD
:100040000C9497030C9497030C9497030C949703C8
:100050000C9497030C94BF2D0C9497030C94970366
:100060000C9497030C9497030C9497030C949703A8
:100070000C9497030C9497030C9497030C94970398
:100080000C9497030C9497030C9497030C94970388
:100090000C9497030C9497030C9497030C94970378
:1000A0000C9497030C9497030C9497030501090291
:1000B000A10185020901A100050919012905150001
:1000C00025019505750181029501750381010501E1
:1000D000093009311581257F950275088106093897
:1000E0001581257F950175088106050C0A380215D2
:1000F00081257F950175088106C0C005010980A191
:1001000001850319012AB700150126B7009501756D
:10011000108100C0050C0901A101850419012AA064
:1001200002150126A002950175108100C005010984
:1001300006A1018505050719E029E71500250195A8
:1001400008750181020507190029EF1500250195A1
:10015000F0750181020508190129059505750191C0
:1001600002950175039101C00660FF0961A10109B3
:1001700062150026FF0095207508810209631500AD
:1001800026FF00952075089102C005010906A1010E
:10019000050719E029E71500250195087501810279
:1001A0009501750881010507190029FF150026FF33
:1001B0000095067508810005081901290595057542
:1001C000019102950175039101C009025B000301D1
:1001D00000A0FA0904000001030101000921110136
:1001E00000012240000705810308000A09040100FC
:1001F000020300000009211101000122220007056D
:100200008203200001070503032000010904020006
:10021000010300000009211101000122BC000705B3
:10022000840320000A1201000200000008EDFE66AF
:10023000550200010203011C037600690061006C95
:10024000003A00660036003400630032006200337A
:10025000006300000010034D0069006E0069007328
:10026000007500620000000A035200610069006E20
:1002700000000004030904165C14001A00080015AD
:100280000017001C0018000C00120013002A002B9D
:100290006104001600070009000A000B000D000EA3
:1002A000000F0034002842E1001D001B0006001969
:1002B00000050011001000360037005200E500E094
:1002C00000E300E20000000000000000002C4100FC
:1002D00000500052004F0035001E001F002000217A
:1002E0000022002300240025002600270001000131
:1002F000002D002E0031000100010052005000517D
:10030000004F003300010001000100010001000165
:1003100000010001002F00300038004B00310001C7
:1003200000010001000000000000000000010000CA
:10033000004A004B004D0001001E021F0220022156
:1003400002220223022402250226022702AE000115
:10035000002D022E02310201000100A900AC00AA0A
:1003600000AB0033020100010001000100010001A7
:1003700000010001002F0230023802A90031020101
:10038000000100010000000000000000000100006A
:1003900000AC00A900AB00005C01000100010001FD
:1003A0000001000100010001000100010001000145
:1003B0000001000100010001000100010001000135
:1003C0000001000100010001000100010001000125
:1003D0000001000100010001000100010001000115
:1003E000000100010000000000000000000100000A
:1003F00000010001000100010001005104000002A1
:100400000002004D0400000300010052040000043B
:100410000002003704E20705000100530400000653
:1004200000020039040000070002004F0400000829
:1004300000010054040000090002003B04EB070A1D
:100440000002003D04EB070B0002003F04EB070C29
:100450000002004104EB070D0002004304EB070E0D
:100460000002004504EB070F0002004704EB0710F1
:100470000002004904EB07110002004B04EB0712D5
:10048000000200550400001300020057040000FDA4
:10049000377A585A000004E6D6B446020021011605
:1004A000000000742FE5A3E0027B011F5D003D8882
:1004B00089C65436C3174FE4E2A55FD4C5BF32994D
:1004C0009C6352A1F4B0924826C995E0872BE2A61E
:1004D00037B7C7568DDB6C0C6EEDD6FE0F9C8225B0
:1004E000DAF7F84103D7C6DD83146121DAF259EF58
:1004F0008BE7DF7435AE85F3826683160FD9C5F3BB
:100500002973F99844D168C25FAF1E032C9DA6637E
:100510003FA9AEDD9150D78FF9C0B5482EE75F1BDC
:100520000AA2F39FB542589D748771DAE1AEBCDA36
:10053000716EBF4D1428855CC15BB370ED315E11E7
:10054000BC845580ED821673A03C0BE6A16E3B9BEC
:1005500071C9487C858E4C56D7ED7DAFE820E7A960
:1005600006E01E16917DF917648BA6C9C12CCC9CA0
:10057000C6F89414D55CFDAAEA420E6B3A23EEF25B
:10058000001F9EC2A218D50EE089EA4375B2D1437E
:1005900024AB1F7613F143B0CEEB99C56191CD2406
:1005A0006B2F1EDBCAEF2B92443D1E9D238A6A32BD
:1005B000A916A97B5B94492FF37348C2F13E6207E9
:1005C000A3588ECBD6BB567A322438EF610000F5A3
:1005D00004D51F109330A90001BB02FC040000C821
:1005E000652102B1C467FB020000000004595A00F3
:1005F00000000000000000000000000000000000FB
:1006000000000000000000000000000000000000EA
:100610000000007E0F00D4FFFFFFC700000078003D
:10062000000000000000002A2B280000000000004D
:100630000000000000000000000029000000002C65
:100640001E3420212224342627252E362D37382704
:100650001E1F202122232425263333362E37381F10
:100660000405060708090A0B0C0D0E0F10111213D2
:100670001415161718191A1B1C1D2F3130232D3570
:100680000405060708090A0B0C0D0E0F10111213B2
:100690001415161718191A1B1C1D2F3130354C0054
:1006A00011241FBECFEFDAE0DEBFCDBF04B603FEDC
:1006B00027C080915B0490915C04A0915D04B0918F
:1006C0005E048730904BA740B04BD1F410925B048E
:1006D00010925C0410925D0410925E0414BE84B704
:1006E000877F84BF0FB6F894A895809160008861D9
:1006F00080936000109260000FBEE0E0F8E309957F
:1007000011E0A0E0B1E0ECECF0E602C005900D9243
:10071000A237B107D9F724E0A2E7B1E001C01D92EA
:10072000AB35B207E1F70E9420270C94B72F0C9449
:1007300000009C01FB019A9581159F4118F5D90194
:10074000AA27B270832F8170B90166277470A9013E
:100750004427587034FF0CC08295807FAB2B09F082
:100760008062672B09F08064452B09F0806809944A
:10077000AB2B09F08260672B09F08460452BB9F33D
:100780008860F5CF80E0F3CF282F892F82958F7076
:10079000903C80F48A30B0F4843020F4823090F4BD
:1007A00080E008958630E1F781E0283E88F0213F1F
:1007B000B9F70EC08C3011F08F3091F793FB88277A
:1007C00080F9089581E0203F39F018F4283E40F781
:1007D0000895243F29F7FCCF0895E82F9E3F61F14B
:1007E0008CE0989FE00D11248E2F877041E001C0AE
:1007F000440F8A95EAF7E695E695E69583E0E89F4B
:10080000F0011124E555FD4F30E020E070E05191FA
:10081000DF011197CB01022E02C0969587950A94AD
:10082000E2F7817081958527842385278C932F5F3C
:100830003F4F2330310559F70895E82F9E3F41F18E
:100840008CE0989FE00D11249E2F9770E695E69519
:10085000E69583E0E89FF0011124E555FD4F50E057
:1008600040E080E0219130E0092E02C036952795C6
:100870000A94E2F721703327042E01C0220F0A9454
:10088000EAF7822B4F5F5F4F4330510559F70895C8
:1008900080E008958091620290916102981301C0F6
:1008A00008958F5F8770FACF909114019923E1F03A
:1008B0009091850397FF18C0E82FE695E695E69599
:1008C000803FF0F4F0E0EC58FE4F877021E030E01C
:1008D000A90102C0440F551F8A95E2F7CA0180950D
:1008E0009281892382830895E6E7F1E0919189134B
:1008F00003C0DF0111971C9251E0EC37F507B1F707
:100900000895982F909580918A03892380938A0374
:100910000895982F909580918C03892380938C0360
:10092000089580918703882331F0109287031092F5
:1009300084031092830308959091850392FF06C06B
:10094000282F28712830F9F4877F846093FF06C030
:10095000282F28712831F1F4877E84612091860345
:1009600020FF06C0382F38713830D9F4877F816076
:1009700021FF06C0282F28712831D1F4877E81619C
:1009800094FD877E0895282F24712430F9F68B7FFB
:100990008860DCCF282F2471243101F78B7E886199
:1009A000DDCF382F3171313019F78E7F8860E0CF7D
:1009B000282F2171213121F78E7E8861E1CFCF93DD
:1009C000DF93EC01803E910509F460C050F581335E
:1009D000910509F4A6C090F48932910509F49AC0F2
:1009E0008A9709F4A5C0C130D10509F462C0CE01CF
:1009F0000497813A910508F055C05BC08933910591
:100A0000F1F182389105D9F1C59709F47CC0C83A53
:100A1000D10508F094C0C53AD10528F3A497D06455
:100A200048C0843E910509F453C068F4823E9105A4
:100A3000E1F1833E910509F440C0CE01805E910949
:100A4000089780F536C0863E910509F44CC0873E74
:100A5000910509F44DC0811523E5920708F09AC06D
:100A6000811532E5930708F000C18F3F910511F021
:100A700008F074C0803F910550F2D0651AC0809193
:100A800085038370B1F0C0EED0E013C08091850380
:100A900080FD15C19091860390FF0BC0C3EED0E09E
:100AA00084FF07C0D0E0C0E004C08091850382FDD0
:100AB000F5CFCE01DF91CF9108958091850382FD1E
:100AC00001C19091860390FDDECF84FFF2CFEACF83
:100AD0008091860381FFEDCF80918503C7EED0E042
:100AE00084FDE0CFE6CF8091850383FDF7CFE1CF92
:100AF0008091850383FDE9C09091860391FFE5CF46
:100B0000C4EED0E0D6CF8091850385FFD2CFC9E275
:100B1000D0E0CFCF8091850385FFCBCFC5E3D0E078
:100B2000C8CF8091850386FFC4CFCAE2D0E0C1CF91
:100B30008091850386FFBDCFC1E3D0E0BACFCF3B24
:100B4000D10508F07ACFC85AD0E0CC0FDD1FCC5BBE
:100B5000DE4F0990D881C02DD464ABCFC11581E59B
:100B6000D80798F4C11520E5D20708F061C0C11577
:100B700030E2D30708F49DCFCE0190548115904107
:100B800008F090CFDF70D06A94CFDC2FCC27C16FF4
:100B9000D06A8FCF811539E59307A0F5C11588E597
:100BA000D80708F07AC0C11525E5D207C8F4C115E9
:100BB00034E5D30708F06CC09E012370332781E031
:100BC00090E002C0880F991F2A95E2F7C695C69556
:100BD00020E2C29FE0011124C82BD92BDA6869CF2B
:100BE000CE0195558F3F910511F008F05BCF8C2F0A
:100BF0000E949C04C82FD0E0DC2FCC27CC27DF71CB
:100C0000D06257CF81153AE5930708F44BC0905650
:100C10008115904208F046CF8D2F8F710E949C0461
:100C200090E0982F882788279F718C2BEC01E8CFC4
:100C30009E0174E0369527957A95E1F723708C2F05
:100C400086958695837030E2839FC0011124922B94
:100C5000C37021E030E002C0220F331FCA95E2F7D3
:100C6000822B932BEC01DC6824CF9C01237033276B
:100C700081E090E002C0880F991F2A95E2F7C6959F
:100C8000C69520E2C29FE0011124C82BD92BEBCFDF
:100C9000DC2FCC27C46FD06A0CCFDC2FCC27C06FE1
:100CA000D06A07CF8F700E949C0434E0D695C79518
:100CB0003A95E1F7CF709C2FEC01D069FACEC9E3E9
:100CC000D0E0F7CEC2EED0E0F4CEC6EED0E0F1CE6A
:100CD00080E00895F894E82FE295EF70F0E041A1EC
:100CE0008F7021E030E0B90102C0660F771F8A954E
:100CF000E2F7CB01962F9095942391A392A1892B93
:100D000082A3789408958091BE0260913F0470910F
:100D1000400480FF16C020911101269FC001279F2B
:100D2000900D1124BC01769567957695679560388E
:100D3000710508F043C06115710509F441C0862FA3
:100D4000089581FF0BC020911101269FC001279FAC
:100D5000900D1124BC0176956795E9CF82FF09C0FB
:100D6000809111019B01829FB001839F700D11241E
:100D7000DECF2091C0022223D1F290911001809108
:100D80001101482F50E0291748F0CB01849FB00192
:100D9000859F700D949F700D1124C9CF289F9001DD
:100DA0001124269FA001279F500D369F500D11241E
:100DB000692F70E0CA010E94022FB9CF8FE7089512
:100DC00081E008958091BE0280FF0CC060910F0108
:100DD00070E075956795759567956115710549F191
:100DE000862F089581FF06C060910F0170E0759510
:100DF0006795F3CF60910F0182FD0BC09091BF0208
:100E00009923A1F060910E0180910F01961738F09F
:100E1000682F70E06038710500F38FE70895899FAF
:100E2000C001112470E00E94162FF4CF61E070E041
:100E3000D7CF81E00895805F803108F045C0E82F6A
:100E4000F0E0E754F04D0C942A2F0E948306819520
:100E50008093C40208950E948306FACF0E948306FD
:100E600081958093C30208950E948306FACF0E9461
:100E7000E2068093C50208950E94E2068195F9CFAB
:100E80000E94E20681958093C60208950E94E206C0
:100E9000FACF8091C20281608093C202089580914E
:100EA000C2028260F9CF8091C2028460F5CF809146
:100EB000C2028860F1CF8091C2028061EDCF809143
:100EC000BE0281608093BE0208958091BE0282605E
:100ED000F9CF8091BE028460F5CFE82F3091C40233
:100EE0002091C3029091C5028091C602E03FA1F417
:100EF00037FD1092C4028091C3029091C402892BE5
:100F000011F41092C0028091C5029091C602892B03
:100F100011F41092BF020895E13F19F413164CF337
:100F2000EACFE23F29F427FFE6CF1092C302E3CFD6
:100F3000E33F19F41216CCF3DECFE93F29F419167A
:100F4000D4F61092C502D7CFEA3F19F497FFD3CF5A
:100F5000F8CFEB3F29F487FFCECF1092C602CBCF5C
:100F6000EC3F19F41816CCF3C6CFE45FEC3008F070
:100F7000C2CFF0E0E753F04D0C942A2F8091C202CB
:100F80008E7F8093C202B7CF8091C2028D7FF9CF4E
:100F90008091C2028B7FF5CF8091C202877FF1CF13
:100FA0008091C2028F7EEDCF8091BE028E7F8093B2
:100FB000BE02A1CF8091BE028D7FF9CF8091BE028B
:100FC0008B7FF5CF809137049091380490930D0179
:100FD00080930C010895E7E3F4E0848195812AE091
:100FE00030E0B9010E94022F609313018681809343
:100FF000120182858093110184858093100186857A
:101000009785B9010E94022F60930A01808980931D
:101010000B01828980930F01848980930E010895CA
:101020001092990310929803EFEFF3E085818111FC
:1010300002C014821682379684E0E733F807B1F7CE
:101040000895AC0130919B0360919A03232F6213A2
:1010500001C00895822F90E0FC01EE0FFF1FE057C2
:10106000FC4F0190F081E02DE417F50791F467E063
:10107000649FF001659FF00D1124E150FC4F41E0A9
:1010800044832313E6CF01968370992780939B03B3
:1010900008950196282F2370DACFE0915F02F09136
:1010A0006002309721F00190F081E02D099480E0FA
:1010B00008952091C8013091C9012817390771F0AE
:1010C0009093C9018093C801E0915F02F0916002A2
:1010D000309721F00680F781E02D09940895209142
:1010E000C6013091C7012817390771F09093C701E5
:1010F0008093C601E0915F02F0916002309721F089
:101100000084F185E02D099408959C0180911401DB
:101110008823C1F08091850387FF14C0862F8695B0
:1011200086958695603FF8F4F901E80FF11D677028
:1011300021E030E001C0220F6A95EAF78281822B1C
:1011400082830895F90132968FEF90E04191641700
:1011500051F08F3F19F4411101C0892F9F5F9630E4
:10116000A9F78F3F09F40895280F311D87FD3A959F
:10117000F901628308952FB7F8948091420290910B
:101180004302A0914402B09145022FBF089580917F
:10119000390490913A04892B91F00E94BB08209168
:1011A000830330918403AC01421B530B9A0181E00D
:1011B0004091390450913A042417350708F480E02F
:1011C0008170089580918A0390918C03892B90916E
:1011D000BD02892B8093740180918703882319F1C4
:1011E0008091390490913A04892B29F00E94C70814
:1011F00081110E9491048091740190918703892B41
:101200008093740180911401882341F180918503BA
:1012100087FF24C08EE1E6E7F1E090E0815000F521
:1012200091110E949104E0915F02F0916002309769
:10123000E1F080911401882359F08091850387FFA4
:1012400007C0809174018093750185E080937401DB
:101250000280F381E02D84E791E0099486E0DBCF02
:1012600021912223D9F29F5FD9CF0895882339F0A5
:1012700090918A03892B80938A030C94E208089545
:10128000882321F00E9481040C94E20808958823A9
:1012900039F090918C03892B80938C030C94E20895
:1012A0000895882321F00E9489040C94E20808958F
:1012B000EF92FF920F931F93CF93DF93EC018A85F8
:1012C000811134C0EB80FC8087E5F81A26E12E9D61
:1012D000C0012F9D900D1124DC01A353BD4F149626
:1012E000ED91FC911597309731F054966D917C916A
:1012F0008D529D4F099586E18E9D80018F9D100D29
:10130000112403531D4FF80187810E948104F801C5
:1013100080850E9489040E94E208188219861B8633
:101320001E821D821092CC021092CB02DF91CF91CF
:101330001F910F91FF90EF900895CF93DF93EC01F1
:1013400081E0898B80918A039F81892B80938A0316
:1013500080918C039885892B80938C030E94E208EE
:10136000EA81FB81309739F06C897D89CE01069640
:10137000DF91CF910994DF91CF9108950E94BB082E
:101380002091C3023091C402232B21F080933202BA
:10139000909333022091C5023091C602232B21F095
:1013A0008093300290933102E0915F02F0916002ED
:1013B000309749F082E08093C1020480F581E02DEE
:1013C00081EC92E009940895882361F19CEF980FD5
:1013D000913A20F40E9454040C94E20890E2980F91
:1013E000983050F4877091E001C0990F8A95EAF720
:1013F000892F0E948104F0CF9BE5980F933020F451
:1014000090E080E00C94590898E5980F973120F40B
:1014100090E080E00C946F08803F20F00E946D0700
:101420000C94BE09089590E080E00E94590890E075
:1014300080E00E946F0810928C031092BD020E94FF
:10144000E20886E0E1ECF2E0DF011D928A95E9F71F
:101450001092C0021092BF021092BE020C94BE09FC
:10146000809388030C94130A809389030C94130AC5
:1014700021E030E001C0220F8A95EAF780918903CC
:10148000822B0C94340A9091860392FD10C098E050
:10149000899F90011124622B60938D030E94380A6A
:1014A0000E94BB0890938F0380938E0308950C9441
:1014B000380A21E030E001C0220F8A95EAF7209532
:1014C0008091890382230C94340A90918D03809536
:1014D000892380938D03282F277039F4282F082E15
:1014E000000C330B9217130621F49091860392FFA0
:1014F0000BC08595859585950E94590A10928D039C
:1015000010928F0310928E0308959C014FB7F894A8
:101510008091420290914302A0914402B091450211
:101520004FBF821B930B08958091C5010895FC0164
:10153000CB012091A0013091A1012617370790F02F
:10154000009729F42091E8002E772093E80040E0EE
:10155000009751F4411108C08091E80082FF31C02A
:1015600080E00895C901F3CF20914B022223A9F115
:101570002530A9F12091E80023FD2DC02091E8003D
:1015800022FDEACF2091E80020FFE2CF3091F30066
:101590002091F200009719F02830310558F041E011
:1015A0002830310509F040E02091E8002E772093A3
:1015B000E800CECF41914093F10001972F5F3F4F5C
:1015C000E9CF80914B02882341F0853041F0809132
:1015D000E80083FFC1CF81E0089582E0089583E0B1
:1015E000089580919A0187FF13C08091E80082FFDF
:1015F00006C08091E8008B778093E80004C080915A
:101600004B028111F2CF089580914B028823D9F3C8
:101610008091E80080FFF8CF8091E8008E77ECCFD2
:101620002091E4003091E50095E6A9012091EC00BD
:10163000822F817020FF06C08091E80080FF06C0E5
:1016400080E008952091E80022FD1AC080914B02AD
:10165000882389F0853089F08091EB0085FD0FC0EB
:101660002091E4003091E50042175307F9F29150C0
:10167000E1F684E0089582E0089583E0089581E032
:101680000895E8EDF0E080818E7F80831092E20083
:101690001092DA001092E100A0EEB0E08C9181602F
:1016A0008C9380818F77808319BCA7EDB0E08C91FB
:1016B0008E7F8C9380818F7E808310929901089514
:1016C000EF92FF920F931F93CF937C018B010E94A7
:1016D000100BC82F811117C08091E80085FD0BC049
:1016E0008091E8008E778093E8000E94100B882399
:1016F00099F3C82F08C0F70181917F018093F10011
:101700000150110949F78C2FCF911F910F91FF9034
:10171000EF900895CF9320914B022430F1F4209163
:10172000E900C091EC00C795CC27C7952F70C22B5C
:1017300022E02093E9002091E80020FF0BC050E058
:1017400040E060E270E00E94600B8091E8008E77DC
:101750008093E800CF70C093E900CF910895809105
:101760008903982F9670963019F488600C94340A87
:10177000877FFCCF982F9093E900242F762F50E09D
:10178000891731F07091EC002091ED005091F0003C
:1017900021FD06C09F5F973071F78093E90008959F
:1017A0003091EB003E7F3093EB003091ED003D7FB8
:1017B0003093ED003091EB0031603093EB0070938B
:1017C000EC002093ED005093F0002091EE0027FDF7
:1017D000E1CF0895CF92DF92EF92FF920F931F9384
:1017E000CF93DF93C8EDD0E088818F7E8883E7EDCB
:1017F000F0E080818160808384E082BF81E080931B
:10180000990188818E7F888302EE10E0F8011082B2
:101810001092DA0081EEC82ED12CF6011082888158
:101820008F77888388818068888388818F7D88838B
:1018300019BC10924B021092980110924A02109219
:10184000970190EEE92EF12CF70180818B7F808348
:1018500088818160888342E060E080E00E94BA0B6A
:10186000F60180818E7F8083F80180818160808392
:10187000808188608083F70180818E7F808388816A
:1018800080618883DF91CF911F910F91FF90EF903E
:10189000DF90CF9008959C012115310509F408953A
:1018A0008FE99FE00197F1F700C000002150310956
:1018B000F3CF81E08093E00080E28093D800109223
:1018C000C9008FE19EE40197F1F700C0000087E0B6
:1018D00090EBDC0180935B0490935C04A0935D0427
:1018E000B0935E0488E19CE00FB6F894A8958093CD
:1018F00060000FBE90936000FFCFCF93DF93D82F8F
:10190000C92F809114018823C1F18091850387FF3D
:1019100034C060E284E08093E9008FEF9091E800AA
:10192000815095FD06C095ED9A95F1F70000811163
:10193000F5CF8091E80085FF1DC08091140170E013
:1019400050E040E0811104C050E040E068E070E009
:101950008D2F9C2F0E94600B8091E8008E778093E2
:10196000E80080E2ED2FFC2FA5EAB1E001900D9296
:101970008A95E1F7DF91CF91089568E081E0CBCFC0
:1019800024E02093E9002FEF3091E800215035FD4D
:1019900006C035ED3A95F1F700002111F5CF209101
:1019A000E80025FF0BC050E040E066E070E00E94D8
:1019B000600B8091E8008E778093E8000895909105
:1019C0004B02943029F58093A2016093A301709398
:1019D000A4019093E9008FEF9091E800815095FD6C
:1019E00006C095ED9A95F1F700008111F5CF809131
:1019F000E80085FF0DC050E040E063E070E082EA5F
:101A000091E00E94600B8091E8008E778093E8005F
:101A10000895BC0183E00C94DF0CBC0184E00C94BD
:101A2000DF0CCF93C0918603C2FB992790F99817DA
:101A300081F080FBC2F9C09386036091850384E046
:101A400090E00E947B2F6C2F82E290E0CF910C946B
:101A50007B2FCF910895CF93C82F6FEF811162EB49
:101A600083E290E00E947B2F6FEFC11165E384E277
:101A700090E00E947B2F6FEFC11166EA85E290E053
:101A8000CF910C947B2F0F931F93CF93DF938901FA
:101A9000982F962B943038F54C3028F521153C457D
:101AA00031F42091460230914702232BE1F0C42FFC
:101AB000D0E0CC0FDD1F98E1699FC00DD11D11242E
:101AC00090E6899FC00DD11D1124612FCE0187960C
:101AD0000E947B2F602FCE018896DF91CF911F91BE
:101AE0000F910C947B2FDF91CF911F910F9108954F
:101AF000CF93DF93C9E6D2E060E0CE010E947B2F56
:101B00002196C11584E0D807B9F7DF91CF910895E8
:101B1000CF9384E090E00E946D2FC82F82E290E086
:101B20000E946D2F982F8C2FCF91089583E290E023
:101B30000E946D2F823B89F484E290E00E946D2F19
:101B4000853359F485E290E00E946D2F91E0863A4A
:101B500009F090E0892F8170089580E0FCCF0F9309
:101B60001F93CF93DF93982F962B943020F54C3012
:101B700010F5C42FD0E0CC0FDD1F28E1629FC00D0F
:101B8000D11D112430E6839FC00DD11D1124CE013B
:101B900087960E946D2F082F10E0102F0027CE018E
:101BA00088960E946D2F9801282BC901DF91CF9153
:101BB0001F910F91089590E080E0F8CF462F672F96
:101BC0002091480230914902232B89F47E3F39F459
:101BD0004E3F69F480912D0290912E020895982F26
:101BE000972B943020F44C3010F40C94AF0D90E00F
:101BF00080E00895DF92EF92FF920F931F93CF93AF
:101C0000DF937C010091890380918803082BC7E052
:101C1000D0E010E0DC2EC8010C2E02C0959587950F
:101C20000A94E2F780FD0CC02197A0F7D12C8D2DEE
:101C3000DF91CF911F910F91FF90EF90DF9008956A
:101C4000B7018C2F0E94DE0D0E94DF04019761F323
:101C5000EECFCF93DF93D82FC92F0E94FA0D6D2FAF
:101C60007C2F0E94DE0DDF91CF910C94DF04FC01EC
:101C700086819781009721F00E94DF040C94C403B1
:101C8000808191810E94290EF9CF1F93CF93DF931A
:101C9000182FD92F662391F0442381F00E94FA0D6A
:101CA000C82F682F812F9D2F0E94ED03612F7D2F5C
:101CB0008C2FDF91CF911F910C94DE0D0E941D049B
:101CC000C82FF4CFFC01462F86819781009729F415
:101CD0006281808191810C94450E08950F931F932A
:101CE000CF93DF9307E314E0C7EAD1E0CE010E946F
:101CF0006D2FF80161918F01681719F0CE010E94D4
:101D00007B2F2196C93CF1E0DF0781F7DF91CF916E
:101D10001F910F9108950F931F93CF93DF9307E3C4
:101D200014E0C7EAD1E0CE010E946D2FF801819343
:101D30008F012196C93CF1E0DF07A9F7CDEFD3E091
:101D4000FE0185919491009711F0FC010995289668
:101D5000F4E0C539DF07A1F7DF91CF911F910F9113
:101D60000895E7E3F4E0128E138E8FEA90E09183FA
:101D7000808385E0848F88E893E1938382834CE2BB
:101D800051E05583448322E330E03783268385E0A6
:101D900090E0918780878AE090E09387828764E172
:101DA00070E0758764875787468744E650E0518B1B
:101DB000408B48E050E0538B428B48E250E0558B1B
:101DC000448B378B268B28EC30E0318F208F158E9B
:101DD000978F868F80E590E091A380A30E946E0E7E
:101DE0000C948B0E10928A0380911401E6E7F1E0C7
:101DF000882359F08091850387FF07C08EE1DF01BA
:101E00001D928A95E9F70C94130A86E0F8CF1F9388
:101E1000CF93DF93CDB7DEB7AA970FB6F894DEBFA6
:101E20000FBECDBF8AE991E0FC0101962091F1003F
:101E3000208321E0823A9207B9F780919B01893093
:101E400009F456C0C8F4823009F4B2C0833009F4F2
:101E500081C0813071F18091E80083FF8EC2809152
:101E60009A0190919B019A3008F087C2E92FF0E027
:101E7000EB52F04D0C942A2F8A3009F488C08B3035
:101E800051F780919A01813231F780919E019091B2
:101E90009F01892B01F78091E800877F8093E800FC
:101EA0000E94F10A80919C01809314010E94F20E1D
:101EB000D2CF80919A01813A71F68091E800877FB4
:101EC0008093E80080919E0190919F01892B61F49D
:101ED00060E285EA91E070E00E94970A8091E80054
:101EE0008B778093E800B7CF60E090E080E0F3CF9D
:101EF00080919A01813209F0AECF80919E0190913C
:101F00009F018D7F892B09F0A6CF8091E800877F04
:101F10008093E8008091E80082FF17C09091F30061
:101F20008091F200029729F48091F1008B7F81303B
:101F300021F48091F1008093C5018091E8008B77B6
:101F40008093E8000E94F10A86CF80914B028111B4
:101F5000E1CF81CF80919A01813A09F07CCF8091C5
:101F60009E0190919F01892B09F075CF8091E80027
:101F7000877F8093E8008091E80080FFFCCF80910C
:101F800014018093F1008091E8008E77D9CF809181
:101F90009A01813209F05FCF8091E800877F8093BA
:101FA000E8000E94F10A80919D018093960153CF31
:101FB00080919A01813A09F04ECF8091E800877FA5
:101FC0008093E8008091E80080FFFCCF809196012B
:101FD000D8CF803899F0823809F0CFC180919E0126
:101FE0008F70873008F0C9C18093E9008091EB00C1
:101FF00085FB882780F91092E90006C0809197013F
:1020000090914A02911182609091E800977F90939D
:10201000E8008093F1001092F1008091E8008E7743
:10202000A8C1882309F496C1823009F0A6C1809125
:102030009C01811199C180919E018F702FEF280F13
:10204000263008F09AC18093E9002091EB0020FF30
:102050008BC1933031F48091EB0080628093EB0070
:1020600083C19091EB0090619093EB0021E030E010
:1020700001C0220F8A95EAF72093EA001092EA0045
:102080008091EB008860EACF811177C110919C01AB
:102090001F778091E3008078812B8093E30080910B
:1020A000E800877F8093E8000E94F10A8091E800B1
:1020B00080FFFCCF8091E30080688093E30082E0A2
:1020C000111183E080934B0258C18058823008F090
:1020D00054C140919C0150919D014C3D83E05807B3
:1020E00099F583E08A838AE289834FB7F894DE0109
:1020F000139620E03EE051E2E32FF0E050935700CA
:10210000849120FF03C082958F703F5F8F708A306B
:10211000C8F0895C90E08D939D932F5F243161F727
:102120004FBF8091E800877F8093E8006AE270E00B
:10213000CE0101960E94970A8091E8008B778093E8
:10214000E8001BC1805DE6CF80919E0190919F01C8
:10215000252F33272330310509F44AC078F5213083
:10216000310509F486C08BE590E0EAECF1E022301D
:10217000310509F002C12091E800277F2093E80093
:102180002091A0013091A1018217930708F49C01CE
:1021900040E02115310509F071C041116FC08091F7
:1021A000E80082FDC9CF80914B02882329F2853057
:1021B00019F28091E80083FFF2CFBECF21323105C2
:1021C00009F448C02232310509F0D7C083309105A7
:1021D00008F0D3C0FC01EE0FFF1FE85DFE4F019039
:1021E000F081E02D8B5D9E4FDC018C9190E026C04C
:1021F000CA019927423031F18330910568F4009784
:10220000B1F0019709F0B9C0E7E6F2E0E4918E2F52
:1022100090E0E7E6F2E012C0039709F0AEC0E7E312
:10222000F2E0E4918E2F90E0E7E3F2E007C0E3E70D
:10223000F2E0E4918E2F90E0E3E7F2E0009709F4FA
:102240009CC099CFE5E5F2E0E4918E2F90E0E5E5C2
:10225000F2E0F4CF8330910508F08FC0880F991F0A
:10226000FC01E25DFE4F0190F081E02D89E090E0FD
:1022700082CF82E190E0E5E2F2E07DCF80914B02F7
:10228000882309F459CF853009F456CF8091E800AE
:1022900083FD52CF8091E80082FD81CF8091E800DC
:1022A00080FF77CF9091F3008091F20021153105E6
:1022B00019F08830910550F041E0089709F040E0AE
:1022C0008091E8008E778093E80063CF449140933B
:1022D000F1003196215031090196E8CF803809F09C
:1022E0004CC08091E800877F8093E800809198013E
:1022F0008093F10092CE811140C010919C01123068
:10230000E0F58091E800877F8093E80010939801C2
:102310000E94F10A112311F084E005C08091E300CE
:1023200087FDFACF81E080934B0242E061EC81E0CF
:102330000E94BA0B42E261EC84E00E94BA0B42E2D6
:1023400061EC82E00E94BA0B42E260EC83E00E9402
:10235000BA0B13C080919C01813079F481E09330F5
:1023600009F080E080934A021092E9008091E80031
:10237000877F8093E8000E94F10A8091E80083FF44
:102380000AC08091E800877F8093E8008091EB008D
:1023900080628093EB00AA960FB6F894DEBF0FBE62
:1023A000CDBFDF91CF911F9108957F928F929F9221
:1023B000AF92BF92CF92DF92EF92FF920F931F9353
:1023C000CF93DF93CDB7DEB764970FB6F894DEBF37
:1023D0000FBECDBFA0904602B090470281E090E0D2
:1023E0009093470280934602912C812CE12C64014A
:1023F000F12C15C0F80125913491472D6F2D8E2DAC
:102400000E94430D0E5F1F4F73948CE07812F2CF41
:10241000ACE0CA0ED11CF394B4E0FB1639F086018F
:10242000000F111F09581D4F712CE4CFE39480E376
:10243000880E911CA4E0EA12DACF0E94B10E1A8233
:1024400019821C821B821E821D8218861F8288ECC4
:1024500090E09A87898709EC11E04AE050E0B801E2
:10246000CE0101960E949F2F065F1F4F0931B2E0F7
:102470001B0799F7FE013B968AE0DF011D928A95C2
:10248000E9F77F014AE050E0B801C7010E949F2FA1
:10249000065F1F4F0936B2E01B07A1F7B092470253
:1024A000A092460264960FB6F894DEBF0FBECDBF71
:1024B000DF91CF911F910F91FF90EF90DF90CF9020
:1024C000BF90AF909F908F907F90089580E00E9482
:1024D0002B0D60E086E290E00E947B2F0E94D511D8
:1024E0000E94780D81E00C942B0D6AEE7EEF90E057
:1024F00080E00E94992F60E082E090E00E947B2FB4
:1025000060E083E090E00E947B2F1092880360E0FF
:1025100084E090E00E947B2F60E082E290E00E94E5
:102520007B2F60E085E090E00E947B2F60E086E0FA
:1025300090E00E947B2F6FEF87E090E00E947B2F5E
:1025400040E050E0BA0188E090E00E948D2F60E00A
:102550008DE090E00E947B2F40E050E0BA0188E1DE
:1025600090E00E948D2F60E087E190E00E947B2F39
:1025700040E050E0BA018CE190E00E948D2F70E0C5
:1025800060E080E290E00E94992F40E050E0BA01C4
:1025900088E190E00E948D2F80E00E942B0D0E9428
:1025A000661240E050E0BA018FE090E00E948D2F6B
:1025B00040E050E0BA0183E190E00C948D2FEBEF06
:1025C000E80FEF3308F072C0F0E0E152F04D0C94E8
:1025D0002A2F0E94751281E0089580913502807F34
:1025E0008093350281E08093CA020895809146026B
:1025F00090914702892B79F30E94F20E2FEF84E32A
:102600009CE0215080409040E1F700C000000E9413
:10261000590C90913502892F8E7F90FF81608093B5
:10262000350280FDD8CF817F80933502D4CF909141
:102630003502892F8D7F91FF82608093350281FF63
:10264000CACF809135028160EFCF90913502892FFA
:102650008B7F92FF84608093350282FDF2CFBBCFE7
:1026600090913502892F877F93FF88608093350290
:1026700083FDE7CFB0CF0E94F20E90918503892FA2
:1026800097FB87F9805880938503A5CF81E00E944E
:10269000300A0E94F20E9FCF895391E001C0990F3A
:1026A0008A95EAF7892FF3CF8D51F7CF80E008950F
:1026B000CF93C82F882309F441C08CEF8C0F813A47
:1026C00008F0E1C08091CA02813079F0823049F18E
:1026D0008111A2C080918A03823209F09FC08C2FA1
:1026E0000E94DF1281112AC099C080918A03823230
:1026F000B1F3C43171F030F4CB3089F0C03161F006
:1027000080E005C0C93229F081E0C833C9F7817083
:10271000E9CF1092CA02F4CF82E08093CA0281E02E
:10272000F6CFCF3409F470C0C0F4C83248F4CE31CB
:1027300088F5C73009F455C0C43121F0CF91089510
:10274000C932E1F78091C9028823C1F31092C9020E
:102750001092C8021092C702F1CFC13509F456C0D9
:1027600081E0C23519F086EFC03541F7E091C7022C
:10277000F091C802309711F32081082E000C990BBC
:10278000820F911D8F3F910509F00CF441C08FEF2E
:102790008083D4CFCD51C093C902C430E1F068F436
:1027A000C230B1F081E191E0C33069F083E191E0A2
:1027B000C13049F01092C902C1CFC53079F08EE026
:1027C00091E0C630B9F79093C8028093C702B6CFA4
:1027D00082E191E0F8CF80E191E0F5CF8FE091E0E8
:1027E000F2CF8EE18093130182E3809312018AE09D
:1027F0008093110184E18093100188E080930F01A0
:1028000088E280930E019ACF8AE0B0CF8FEFAECFEF
:1028100097FFBECF108292CF1092CA02809114010E
:10282000882301F18091850387FF1CC0EC2FE6957A
:10283000E695E695F0E0EC58FE4F828190E04C2F53
:10284000477021E030E002C0220F331F4A95E2F7C3
:1028500082239323892B79F08C2F0E9454040E94A9
:10286000E20809C0E6E7F1E08191C817A9F321E089
:10287000EC37F207C9F76C2F84E791E00E948508D6
:10288000CF910C94E20880E28C0F883068F4C77016
:1028900021E030E001C0220FCA95EAF780918A0357
:1028A000822B80938A03ECCF8BE58C0F833038F436
:1028B0002C2F2452330BC901CF910C945908E8E511
:1028C000EC0FE73150F4F0E0EE0FFF1FEC5BFE4F32
:1028D00080819181CF910C946F08C03F08F42ECF76
:1028E0008C2F0E941B07CF910C94BE090F931F934E
:1028F000CF93C82F0091570410915804893321F0C9
:1029000000915504109156048C2F0E945813011504
:10291000110531F48C2FCF911F910F910C94E40984
:102920008FE99FE00197F1F700C000000150110905
:10293000EECFAF92BF92CF92DF92EF92FF920F93C2
:102940001F93CF93DF93EC018AE0A82E8881882320
:1029500009F48EC08130D9F599818A81913021F4B2
:1029600022960E94761405C0923029F422960E9485
:1029700058132196EBCF933021F422960E94E4095C
:10298000F8CF943011F02196F4CF229620E030E079
:10299000AE014F5F5F4F8053990B8A30910560F015
:1029A0002115310531F38FE99FE00197F1F700C060
:1029B000000021503109F4CFA29EB001A39E700DFA
:1029C00011249C01260F371F8981EA01E1CFE82FEE
:1029D000F0E0E15EF94FB490282F269526952695D4
:1029E00030E0F901E15FF94FE4908770F12C082E97
:1029F00002C0F594E7940A94E2F791E0E922FF24FB
:102A0000F901E150FA4FC490D12C082E02C0D594A0
:102A1000C7940A94E2F791E0C922DD24F901E1515B
:102A2000FA4F049110E002C0159507958A95E2F7D8
:102A300001701127E114F10419F081EE0E9458137E
:102A4000C114D10419F086EE0E9458138B2D0E94F8
:102A50007614CD2819F086EE0E94E409EF2819F0CB
:102A600081EE0E94E409012B09F483CF8CE279CF37
:102A7000DF91CF911F910F91FF90EF90DF90CF905A
:102A8000BF90AF900895FF920F931F93CF93DF9362
:102A9000C62FD42F122F8823A9F0609381030E94A0
:102AA000BB089093950180939401C77081E001C0A9
:102AB000880FCA95EAF7DF91CF911F910F91FF9090
:102AC0000C94360980918103681338C08091940179
:102AD000909195010E94850A20914F0430915004F5
:102AE0008217930758F500E20D0FCD17A9F0C770B4
:102AF000FF24F3948F2D01C0880FCA95EAF70E9436
:102B00004009083048F48D2F877001C0FF0C8A956A
:102B1000EAF78F2D0E943609812F0E947614083023
:102B2000A0F4D77081E001C0880FDA95EAF7DF9151
:102B3000CF911F910F91FF900C944009C77081E0D5
:102B400001C0880FCA95EAF7F2CFDF91CF911F91AC
:102B50000F91FF900895FF920F931F93CF93DF93F0
:102B60008C01EB01F42E8091160182FF43C08B7F14
:102B70008093160180917D0320917F033091800323
:102B8000AB01421B530B9A0140910C0150910D0176
:102B900024173507A8F40E945813809116018D7FE1
:102BA0008093160180915504909156040E944B0C1D
:102BB00080917D030E94E40982E00E94890424C080
:102BC00090918C03926090938C030E945813809193
:102BD00016018260809316018091520485FFE2CF36
:102BE00086FDE0CFFF20F1F2DF91CF911F910F9191
:102BF000FF900895802F0E94E40980917D039091B9
:102C00007E0380179107C1F20E94E208D0938003EF
:102C1000C0937F03E9CF8F929F92AF92BF92CF92E2
:102C2000DF92EF92FF920F931F93CF93DF9300D029
:102C300000D0CDB7DEB77C01DC019C9111968C9160
:102C4000119713962D913C91232B21F089238F3FCF
:102C500009F02EC60F900F900F900F90DF91CF913B
:102C60001F910F91FF90EF90DF90CF90BF90AF90AA
:102C70009F908F900895D60116968C911697882371
:102C8000E9F019968D919C910817190739F48091F4
:102C9000CB029091CC020817190781F0F6019786B4
:102CA000148703878189811103C0C6010E949D0991
:102CB000C60106960E94580910928C03FFEFAF1AC6
:102CC000BF0A26E1C20ED11C09C6C80182519F4528
:102CD000409708F045C58FEF93E00E946D2F3EEEC0
:102CE000D32ED00E09E612E0882351F180918D0396
:102CF000877009F4AFCFD70112968C91882309F41D
:102D0000A9CF82E00F900F900F900F90DF91CF919D
:102D10001F910F91FF90EF90DF90CF90BF90AF90F9
:102D20009F908F900C94650A011544E01407F1F20E
:102D3000C8010E946D2F811101C0DA940F5F1F4FEF
:102D4000D110F2CF8091180190911901A0911A0130
:102D5000B0911B0189839A83AB83BC8399249A9495
:102D600068015FEFC51AD50AC8010E946D2F8983DB
:102D70001A82882309F4BACF813009F048C058017B
:102D800082E0A80EB11CC6010E946D2FC82E8A8356
:102D9000882309F4ABCFC5010E946D2FD82E8FEF89
:102DA0008C0D833068F4580193E0A90EB11CDB82CE
:102DB000DD2021F0CE0101960E9499148501D0CF2B
:102DC000A4E0CA12FBCF5801B4E0AB0EB11CC8019D
:102DD00003960E946D2FDD2009F488CF882309F423
:102DE00085CF8150990B989E9001999E300D1124AA
:102DF000ED2DE150FF0BCF01820F931F0197F0F2F1
:102E0000AFE9BFE01197F1F700C00000F7CFCE01A6
:102E100001960E9499145601D1CF81E00E94380A90
:102E20000E94AF0B63CF81E00E94590AF9CF82E084
:102E3000F5CF882309F4E4C48189882309F4E0C428
:102E4000C5018D529D4F0E945809DAC48091160128
:102E5000816080931601F7013281332309F457C54D
:102E6000109281030631FCE51F0708F0BCC0023058
:102E70002CE5120708F4C9C00E94880D90938603C0
:102E80008093850306314CE5140708F00AC102302F
:102E90005CE5150708F0F8C0609185031091860382
:102EA00084E090E00E947B2F612F82E290E00E94FC
:102EB0007B2F0E94F20E1ACF809116018E7F809395
:102EC000160182E00E948904C6CF0933110560F41F
:102ED0000D32110520F40B32110509F0CCC480919C
:102EE000520482FDC8C408C004361105C1F3C3C42E
:102EF0008091520484FDBFC4D70112968C9188231F
:102F000009F446C08091160180FFB5C49091520427
:102F100091FD04C020918A032111ADC495FF27C003
:102F200020917F0330918003F601E21BF30B9F0198
:102F300096FD02C081FD1BC0283C3105C0F42091E4
:102F40007D0330917E030217130789F481FD09C0C8
:102F5000802F0E945813CACE8091520483FD8BC4E7
:102F6000CBCF80918C03826080938C03F1CF109340
:102F70007E0300937D03D0928003C0927F038091F3
:102F8000160184608093160182E00E94650AAECE2D
:102F900040E0B601C8010E94AB15A8CE053F5CE534
:102FA0001507D1F027E245EE66EE063F9CE51907CE
:102FB00041F027E245EE64EE043FACE51A0709F064
:102FC0004ACF0E94431592CE27E245EE65EEF9CF37
:102FD00026E241EE60EEF5CF26E241EE62EEF1CF61
:102FE00028E241E0F3CFC8018A5F9C45099708F4C5
:102FF00043CF0631BCE51B0709F48DC40A358DE5C6
:10300000180709F415C108F0F1C00115ACE51A075D
:1030100009F4FEC00E3D1C4509F407C1F701868185
:103020009781009709F408C10E94DF04182F092F27
:10303000F701C280D580D2942FE0D22280918D03F7
:103040008770A1F0AC2CCC2091F0892F807F803448
:1030500021F080E2810F883048F082E00E94650A0A
:1030600080918D038770AA24A3948111A12C802FB5
:1030700082958F70882E912C8C3008F028C1F40135
:10308000E25EFF4C0C942A2FF801E350FC4580913E
:1030900085038160E331F105B8F4E65DFF4C0C94E3
:1030A0002A2FC8018A5F9C45099708F0F5CEF801E0
:1030B000EB5FFC45E830F10590F4E35CFF4C0C94C9
:1030C0002A2F80918503826080938503E5CE8091CD
:1030D00085038460F9CF809185038860F5CF809166
:1030E0008603816080938603D7CE809186038260B9
:1030F000F9CF809185038061E7CF8091850380625D
:10310000E3CF809185038064DFCF0E94F20E80912F
:1031100085038068D9CF809185038C60D5CF80915D
:1031200086038360DFCF809185038E7FCDCF809132
:1031300085038D7FC9CF809185038B7FC5CF80911B
:103140008503877FC1CF809186038E7FCBCF80910F
:1031500086038D7FC7CF809185038F7EB5CF809109
:1031600085038F7DB1CF809185038F7BADCF0E948A
:10317000F20E809185038F77A7CF80918503837F9F
:10318000A3CF809186038C7FADCF8091850382FB96
:10319000992790F921E0922790FB82F990FB83F91F
:1031A00093CF80918603982F909591708E7F892B75
:1031B00090FB81F997CF0E94F20E90918503892FA1
:1031C00097FB87F9805880CF61E08EE090E00E9405
:1031D0007B2F62CE60E0F9CF80918203811104C021
:1031E00089E20E945404C4C385E3FBCF0B35EDE5AF
:1031F0001E0701F10C351D4509F010CF80918603A3
:1032000082FB882780F991E089270E94110D06CF63
:103210000E94F20E2FEF44E35CE02150404050400A
:10322000E1F700C000000E94590C0E9475125ECDAB
:1032300081E0EBCF80E0E9CF8281C080D18088231C
:1032400069F0C6010E94FA0D182F682FC6010E946E
:10325000ED03B601812F0E94DE0DE6CEC6010E946D
:103260001D04182FF6CFF02FFF70BF2E802F807F08
:1032700019F0B29490EFB922CC20C9F0BB2069F0CC
:1032800080E2810F883010F011110BC080918A0309
:103290008B2980938A030E94E208812F0E94581391
:1032A00016C080918C038B2980938C03F4CF812FDF
:1032B0000E94E409BB2059F080E2810F883010F0B1
:1032C000111144C08B2D0E9481040E94E208A8E0E5
:1032D0008A1A9108B4E08B16910410F40E944D08EC
:1032E000812F902F0E94C40381111DC210925A0495
:1032F00010925904AA20B1F080918D0380FD12C074
:10330000D70112961C928595859585950E94380A5D
:10331000C7010E940B1680918D0385958595859533
:103320000E94590A60E0C7010F900F900F900F9014
:10333000DF91CF911F910F91FF90EF90DF90CF9091
:10334000BF90AF909F908F900C94620E8B2D0E9437
:103350008904BBCF202F2F70B22E802F807F803228
:1033600019F0B29480EFB8221123E9F0113009F47A
:103370006AC0CC2009F473C0DD2009F441C040E0EC
:10338000D70112966C9112978D919C910E94450ED7
:103390008091540481FD81CFF701858180FF7DCF2D
:1033A0008F7085832DC0CC2069F1D11006C080912B
:1033B00087038B290E9436098ACF41E0D41213C0BB
:1033C0008091860382FD83CF80918703B82AB81647
:1033D00009F47DCF0E94BB089093840380938303FC
:1033E000B092870374CF80915304823000F3D812D7
:1033F000DECF0E94910480918B03B812B0928B03B0
:103400008B2DD8CFD11006C00E9491048B2D0E9425
:1034100040095DCF8091530451E0D5120FC0823036
:1034200008F455CF80918A038B2109F450CF809105
:103430008B03882349F310928B03E6CF823020F36D
:10344000D812E2CF44CFCC2029F085E08D1508F4C6
:103450003ECFD6CF94E09D1508F439CFD7CFDD20ED
:10346000A9F28091570490915804193321F080916A
:103470005504909156040E944B0C812F0E94E40940
:1034800026CF802F86958695837069F0813009F06C
:103490001ECF812F902F9370C11002C090E080E06A
:1034A0000E946F0814CF812F902F9370C11002C01B
:1034B00090E080E00E9459080ACF812FCC2039F09B
:1034C0000E941B070E94BE090E94BE0900CF0E94F5
:1034D0006D07FACF802F8370A9F5C110F8CE812F28
:1034E000829586958770880F880F412F4F70082E20
:1034F00001C0440F0A94EAF7212F207114FF07C07E
:103500002FE030E001C0220F8A95EAF72095902F36
:10351000969596959370923081F0822F842B9330FC
:1035200031F080918803913029F0242B82230E946E
:10353000300ACDCE842B822BFACF242B80918803A6
:103540008227F5CFCC2069F100FFC1CE812F829573
:1035500086958770880F880F412F4F70082E01C005
:10356000440F0A94EAF7212F207114FF07C02FE0BF
:1035700030E001C0220F8A95EAF72095902F9695AA
:1035800096959370923099F0822F842B933031F07E
:1035900080918903913041F0242B82230E94340AC8
:1035A00096CE01FF94CED2CF842B822BF7CF242B43
:1035B000809189038227F2CFF02FFF70BF2ECC209D
:1035C00029F08F2F0E94380A812FF4CE812F0E947C
:1035D00040098B2D0E94590A7ACE123F09F44FC040
:1035E00068F4103F69F1113F09F441C0CC2009F49F
:1035F00095C0D11052CE802F8F713EC0133F09F479
:1036000043C0143F99F720915304223008F46FC04F
:1036100080918B03CC2009F452C00E9481048091D8
:103620008D0387708430E1F510928D0310928F0323
:1036300010928E03802F8F710E94590AA12C47CEC1
:10364000CC2081F024E02D1508F441CE202F2F71DD
:1036500081E090E001C0880F2A95EAF790918903F4
:1036600089279CCF45E04D1508F431CEEFCF802F50
:103670008F71CC2009F4AECF0E94380A28CE802F5B
:103680008F71CC20C9F3A6CF80E0CC2009F486CF7F
:1036900081E0902F9F7101C0880F9A95EAF77ECF45
:1036A00080915304D81650F6502F5F71B52E852F98
:1036B0000E94380A63E08B2D0E94430ABFCF90918D
:1036C0008A03982B90938A03D21668F010928D0388
:1036D00010928F0310928E03811110928B0364E07D
:1036E000802F8F71E9CF81E00E94650AA7CFCC209F
:1036F00051F0802F8F71B82E0E94380A63E08B2D15
:103700000E94430AE4CD81E00E94650A91E09D1584
:1037100008F0DDCD82E00E94650AD9CDD110A1CE9E
:10372000802F8F7157CFCC2019F0D110DFCDE2CD93
:10373000D110DCCD40E0F7016281808191810E944F
:10374000450E8091540483FFD1CD8091590490910E
:103750005A04029709F0CACD812F0E947614C6CD73
:103760000031BFE51B0709F458CB0131EFE51E0717
:1037700009F45DCBC80197558F3F910511F008F012
:103780003FC020911501022E000C330B281739077A
:1037900014F48093150126E1289F5001299FB00C55
:1037A0001124F501E353FD4F6F01408BD7011296B1
:1037B0009C918681992309F43CCB128701878F5F06
:1037C00086830E94BB08F6019687858780918703D0
:1037D000878380918C0390918A03892B8087019045
:1037E000F081E02D309741F0D60154966D917C9197
:1037F000C5018D529D4F09951093CC020093CB02C9
:103800008091520480FF37C00E94BB086C01D70131
:1038100012968C91882311F18091160182FF06C0C7
:1038200040E0B60190E080E00E94AB1582E00E948B
:1038300089040B31BCE51B0709F408CB0C31ECE51E
:103840001E0709F439CB90911601892F8E7F90FFC6
:1038500081600A31FCE51F0709F431CB08321105FC
:1038600008F033CB0E31110508F076CBC801049770
:103870004A9708F43DCBD70112968C91033FBCE5E3
:103880001B0709F4A5CB08F089CB083DFCE51F0711
:1038900009F49ACB093D2CE5120709F4A1CB073DA9
:1038A0004CE5140709F0D7CA26E241EE61EE89CB58
:1038B00061E0C7010E94620E8C01D70112968C91C3
:1038C0008823A9F0809115018F3F89F04DECC42E1B
:1038D00042E0D42EB12CA12C99249394809115010F
:1038E000082E000C990B8A159B050CF0C4C9F70132
:1038F00042814111EAC90031FFE51F0709F493CA6B
:1039000001312FE5120709F035CF82E08DCA06316B
:103910001C4509F083CB80918A03982F9A7A2091D5
:10392000510420FF04C0482F447409F090E021FFA7
:1039300004C0482F417109F090E022FF04C0482FD5
:10394000487809F090E023FF03C0827209F090E00C
:10395000332309F441CC81E0911101C080E08093D0
:10396000820369E2911165E384E791E00E94850892
:103970000E94E208BBC9EF92FF920F931F93CF936F
:10398000DF938091A802807F31F48091A502C091DD
:103990006202811119C0DF91CF911F910F91FF90A9
:1039A000EF9008958091A3029091A4022091A60225
:1039B0003091A702D0E02115310521F0492F48238D
:1039C0004F3F39F42196C770809161028C13EACF82
:1039D000E2CF8E0143E0000F111F4A95E1F7F80195
:1039E000ED59FD4F41819413EDCF90819813EACFAB
:1039F00082818111E7CFE380F480E21AF30A60E06C
:103A000083EA92E00E94620E80914F0490915004EC
:103A1000E816F906B8F68091A8028F70806180934D
:103A2000A802F801E859FD4F80818F708061808382
:103A300083EA92E00E940B16DF91CF911F910F91C4
:103A4000FF90EF900C944A047F928F929F92AF92D6
:103A5000BF92CF92DF92EF92FF920F931F93CF937B
:103A6000DF93CDB7DEB72D970FB6F894DEBF0FBE4C
:103A7000CDBF8C0185E0F801DE01199601900D9211
:103A80008A95E1F7D801BC901196AC9011971296E7
:103A9000EC9012971396CD90DC909091A3028091B8
:103AA000A4022091A6023091A7022115310521F030
:103AB00089238F3F09F0A7C1EE2009F4A0C0C801F7
:103AC0000E94370EF82E882309F499C088E0F80187
:103AD000A3EAB2E001900D928A95E1F70E94BB1C27
:103AE00027C160E083EA92E00E94620E8091540454
:103AF00080FDC1C1CD2829F08B2D8A218F3F09F08F
:103B0000EEC080E0A82FA170DA2EE0916202209131
:103B1000610280FD1EC0EE2009F40AC18091A80256
:103B200081608093A802F12C03C18E2F90E0B8E051
:103B3000EB9FF0011124ED59FD4F31813A1106C080
:103B400030813B1103C032813E11E5CF0196E82F51
:103B5000E770E213EACF89859A850E94290E292F02
:103B600022952F70903260F0225F2F70223078F40F
:103B70009F7051F0F8019581907F31F4D12C0AC0EB
:103B80009F7011F08823D1F3805E8830B8F3C801AC
:103B90000E940B16FD2CCCC0452B29F0282F292381
:103BA0002F3F09F0DAC0C8010E94370E882339F18F
:103BB000EE2029F18091A8028032A0F08091A3022A
:103BC0009091A4029A8389831B82DD82CC827E82BB
:103BD0008091A9029091AA0298878F83CE010196C5
:103BE0000E940B1688E0F801A3EAB2E001900D9262
:103BF0008A95E1F70E94BB1CFF24F39499C0C80189
:103C00000E940B16F9CF872D807F61F483EA92E042
:103C10000E940B1688E0E3EAF2E0DF011D928A952C
:103C2000E9F781CF8091A3029091A4022091A6028E
:103C30003091A702232B09F4B6CF282F29232F3F39
:103C400009F4B1CFF80121812913ADCFF80190819A
:103C50009813A9CF2091A9023091AA028681978159
:103C60002817390709F09FCFE1109DCF7582C80151
:103C70000E940B16E3EAF2E088E0DF011D928A95CC
:103C8000E9F756C060E083EA92E00E94620E8091FC
:103C90004F04909150048816990660F7FE2CEE2090
:103CA00009F4ADCF8091A3029091A4022091A602C5
:103CB0003091A702232B29F0282F29232F3F09F029
:103CC00071C0C8010E94370E81118CCF8091A8026B
:103CD00081608093A802C8010E940B1629C081E070
:103CE0008E2510CF81E08E25CFC0F80121812913C8
:103CF000B5C0F80190819813B1C02091A90230910C
:103D0000AA02868197812817390709F0A7C0E11018
:103D1000A5C08091A8028F7080618093A80283EA79
:103D200092E00E940B168091A802D80115968C9300
:103D30008F2D2D960FB6F894DEBF0FBECDBFDF914D
:103D4000CF911F910F91FF90EF90DF90CF90BF9098
:103D5000AF909F908F907F900895D80111962C91ED
:103D6000291321CFD8019C9198131DCF2091A9022E
:103D70003091AA0216968D919C91179728173907B2
:103D800009F011CFE1100FCF15967C92C8010E9467
:103D90000B1688E0F801A3EAB2E001900D928A9533
:103DA000E1F7C6CFD80111962C9129138ACFF801DB
:103DB0009081981386CF2091A9023091AA02868122
:103DC00097812817390709F07CCF60E083EA92E0F9
:103DD0000E94620E8091540482FDDBCF8091A80284
:103DE00080FDD7CF982F907FA1F2D80115968C93A4
:103DF0001597903F59F2982F907F905F8F70892B85
:103E000015968C93C3CFF090A5024601821A930AAF
:103E1000FF2009F437CF60E083EA92E00E94620E4F
:103E200080914F04909150047090A80288169906D2
:103E300008F0E9CE8091A3029091A4024091A602DD
:103E40005091A702272D207F09F0A6CEFE2C452BEE
:103E500029F0282F29232F3F09F047CF60E083EA7C
:103E600092E00E94620E80914F0490915004843F32
:103E7000914008F436CEC114D10429F08B2D8A214B
:103E80008F3F09F02FCF80E0E09162022091610224
:103E900080FF30CEE21709F42DCE8E2F90E038E06F
:103EA000E39FF0011124ED59FD4F31813A1106C015
:103EB00030813B1103C032813E11A8CE0196E82F1C
:103EC000E770E8CFCF93DF93CDB7DEB760970FB63B
:103ED000F894DEBF0FBECDBF29873A874B875C873A
:103EE0006D877E878F87988BCE0109960E94241D4F
:103EF000811116C088E0FE013996DE01119601900D
:103F00000D928A95E1F799858A85A09161022091A9
:103F100062024C855D85452B19F089238F3FA9F5F9
:103F2000809162029091610289131CC060960FB665
:103F3000F894DEBF0FBECDBFDF91CF91089593E01F
:103F4000AA0FBB1F9A95E1F7AD59BD4F98E0FE014E
:103F5000319601900D929A95E1F7809361020E944B
:103F60004A04DECFB8E08B9FC00111248D599D4FCC
:103F70000E94241D8823D1F28091620290E0019674
:103F80008770992780936202CBCFB0E0CD01019674
:103F9000877099272817190691F60E94F20E109241
:103FA00061021092620288E0E3EAF2E0DF011D9212
:103FB0008A95E9F7B5CF0F931F93CF93DF93809145
:103FC000FC03E091CA011CE081111EC0DF91CF917A
:103FD0001F910F91089501E00E0F0093CA01CE2F9B
:103FE000D0E01E9FD0011124A456BC4F13968D9192
:103FF0009C911497892B39F08C9111969C91119773
:1040000089238F3F51F4E02F8091FC03E81718F3C8
:104010001092FC031092CA01D9CF16968D919C91F3
:104020001797892B29F418968D919C91019679F414
:10403000E19FF0011124E456FC4F2081318142813F
:10404000538164817581868197810E94621F1C9FC4
:10405000F0011D9FF00D1124E456FC4F14821382D1
:10406000D2CF3F924F925F926F927F928F929F92A8
:10407000AF92BF92CF92DF92EF92FF920F931F9376
:10408000CF93DF9300D000D0CDB7DEB720919B0354
:10409000298317E0812E01E010E08CE0382E9EEF9E
:1040A000992E4424439480919A03F9818F1319C067
:1040B0000E94DB1F0F900F900F900F90DF91CF9118
:1040C0001F910F91FF90EF90DF90CF90BF90AF9036
:1040D0009F908F907F906F905F904F903F900C9447
:1040E00010089981892F90E09C838B83FC01EE0F4F
:1040F000FF1FE057FC4F80819181889ED001899EEF
:10410000B00D1124FD01E150FC4FFA83E9832481B5
:10411000211157C05090FC03ECE9F3E050E040E07F
:10412000712C451508F04BC0A284B384A981BA81D3
:10413000CD90DC902FEF3FEF612C662D70E07B017E
:10414000EE0CFF1CEC0CFD1CD701ED90FC90E11473
:10415000F10431F0AE14BF0409F49B016394EDCF78
:104160002F3F3207C1F1D80102C0AA0FBB1F2A9509
:10417000E2F77A2A980102C0220F331F6A94E2F70D
:10418000215031097216130621F5349EF001359E37
:10419000F00D1124E456FC4F889ED001899EB00D8D
:1041A0001124A150BC4F12962D913C911397378347
:1041B0002683908291829187808715964C920E94E7
:1041C0002108EB81FC813196FA83E983E370E9836E
:1041D0006ACF148213824F5F5F4F3C96A2CF10923A
:1041E000FE031092FD031092170180919A038093B1
:1041F0009B030E9410080C94DB1F2F923F924F925A
:104200005F926F927F928F929F92AF92BF92CF9266
:10421000DF92EF92FF920F931F93CF93DF93CDB76F
:10422000DEB76A970FB6F894DEBF0FBECDBF498BDD
:104230005A8B262F6B8B7C8B8D8B8C899D89892B40
:1042400029F0852F84238F3F09F029C22111109274
:104250008C031E861F86188A85E0FE017196DE019A
:10426000199601900D928A95E1F780913904909109
:104270003A04892BC1F00E94BB0820918E03309133
:104280008F03821B930B2091390430913A048217DB
:10429000930720F080918D0382FFFDC10E94C70823
:1042A00081110E94910489859A852C853D85232B57
:1042B00021F089238F3F09F0DAC129853A854B85A2
:1042C0005C856D857E858F8598890E94621FC6C03A
:1042D00028EFC2162CE5D20629F4882379F00E9433
:1042E000EF20EBCF39EFC3163CE5D30639F4882332
:1042F00029F0809117018111F2CFC9C10FEF13E0AE
:10430000512C912C812C22242394312C9EEF492E68
:10431000F80140815181AA24AA94BB24BA9420E0D8
:10432000822F90E0FC01EE0FFF1FE40FF51F60816C
:1043300071816115710531F0C616D70609F45C016B
:104340002F5FEECFF12CFFEFAF16BF0609F448C088
:10435000F8014481F09017018F2D411180E0F82F72
:10436000F170FF2EF801E58086819B85992309F481
:1043700011C1FF2009F40EC160904D0470904E04ED
:10438000E11012C0A10101C0440FAA94EAF7842BE6
:10439000868380919803909199038615970520F460
:1043A0007092990360929803C10102C0880F991F0F
:1043B0002A95E2F70197F80126812817190681F45A
:1043C0008091FD039091FE03009709F460C00E9464
:1043D000850A6816790608F05AC021E0F80124839E
:1043E0005F28FFEF8F1A9F0A095F1F4F28E0821690
:1043F000910409F08DCF8B85882309F423C15520C2
:1044000009F420C10E94BB089093FE038093FD0332
:104410008091FC03883010F591E0980F9093FC0395
:1044200098E0FE013996DE01119601900D929A9561
:10443000E1F73CE0839FC001112484569C4F28E0A3
:10444000FE013196DC0101900D922A95E1F72FEFE4
:104450003FEFFC0131872087D386C2866A960FB66C
:10446000F894DEBF0FBECDBFDF91CF911F910F91AA
:10447000FF90EF90DF90CF90BF90AF909F908F9084
:104480007F906F905F904F903F902F900895809114
:104490009B0330919A033E8B982FE0E0F0E0E02EF2
:1044A000512F2E89821314C090939B030E171F0760
:1044B00009F496CF90E0FC01EE0FFF1FE057FC4F90
:1044C0009182808201968370992780939A0388CF86
:1044D000A82EB12CF501EE0FFF1FE057FC4F6081B5
:1044E0007181E7E0E69FD001E79FB00D1124A15054
:1044F000BC4F2D913C9111973A8F298F40E020E0DD
:1045000030E0E32FF0E0EE0FFF1F698D7A8DE60FAC
:10451000F71F6080718061147104E1F0F80101906F
:10452000F081E02DF88FEF8B20E005C0661677064E
:1045300009F44F2D2F5FE22FF0E0EE0FFF1F6F8980
:10454000788DE60FF71F608171816115710571F734
:104550003F5FD7CF4423D9F0EE2DF52F231708F076
:10456000FD0121E024830E171F0721F490939B0384
:10457000F42E36CF891305C0AE17BF0711F49F5F25
:10458000937095012F5F3F4F822F83708ACFE0E0B9
:10459000F0E0F7CF90E0E1101FC0B10102C0660F5C
:1045A000771F2A95E2F79B01215031098217930763
:1045B00031F4442309F444C0C4010E942108C1011C
:1045C00001C0880FAA94EAF7982F9095F801868188
:1045D00089238683FE2C04CFAC010A2C02C055959A
:1045E00047950A94E2F79C012150310982239323D5
:1045F000892B11F540FF20C0F80182819381892B1E
:10460000C1F01B821C821D821E8249824A820E9446
:10461000BB088160582F692F9D838C83F8018281AC
:1046200093818F83988729813A814B817E810E9473
:10463000621FF8011582C3CFF42FF170EF2EBFCFA8
:10464000EF2CBDCF90919B0380919A03981731F086
:104650000E943120552009F430CE00CF0E94DB1F8C
:104660001092FE031092FD030E941008F3CF61E048
:10467000CE0109960E94620E6C018B8537EFC3163E
:104680003CE5D30609F024CE882309F437CE81E037
:104690008093170112CE82E00E94650AFFCD8091BF
:1046A000590490915A04019690935A0480935904A6
:1046B000CDCD0F931F93CF93DF9300D000D00F92F7
:1046C000CDB7DEB78C0190932E0280932D02011599
:1046D00080E21807D8F4C801805E9109089728F095
:1046E00067E479E00115110511F466E379E0C8018A
:1046F0000E949903802F0F900F900F900F900F90B2
:10470000DF91CF911F910F910C9458138EEF8983F5
:104710008A8381E08B830E94BB088160782F498166
:104720005A816B81892F0F900F900F900F900F90EF
:10473000DF91CF911F910F910C94FD200F931F9348
:10474000CF93DF9300D000D00F92CDB7DEB78C01AE
:1047500090932E0280932D02011580E21807D8F461
:10476000802F0E94E409C801805E9109089728F013
:1047700061E579E00115110511F460E479E0C80103
:104780000F900F900F900F900F90DF91CF911F918E
:104790000F910C9499038EEF89838A831B820E9468
:1047A000BB088160782F49815A816B81892F0F90D6
:1047B0000F900F900F900F90DF91CF911F910F915D
:1047C0000C94FD20CF93DF93D82FC92F0E9459233B
:1047D00080915504909156040E944B0C8D2F9C2F74
:1047E000DF91CF910C949E236F927F928F929F9234
:1047F000AF92BF92CF92DF92EF92FF920F931F93EF
:10480000CF93DF93CDB7DEB728970FB6F894DEBF0E
:104810000FBECDBFFE01319688E0DF011D928A9563
:10482000E9F794E3E92E91E0F92E8F0128E3822E37
:1048300021E0922E3F01AA24A394B12CF70181918B
:104840007F018F3F09F44BC0F894E82FE295EF7099
:10485000F0E021A18F70A50102C0440F551F8A9579
:10486000E2F7CA01922F982B91A392A180958923F8
:1048700082A3789400C0E8E3F1E030E020E0D12C9E
:10488000C12C81918F3F09F464C0A82FA295AF700D
:10489000A05EB0E04C9150E08F7002C055954795F6
:1048A0008A95E2F740FD55C0C501022E02C0880F6F
:1048B000991F0A94E2F7C82AD92A2F5F3F4F2C305C
:1048C0003105F9F6F701319780818F3F11F00E9491
:1048D0006A0650EA5A95F1F7D801CD92DC920E5F44
:1048E0001F4F8E149F0409F0A9CF48E050E0B30198
:1048F00087E592E00E94402F9C01FF24F394892BCE
:1049000009F4F12C232B41F188E0F301A7E5B2E093
:1049100001900D928A95E1F781E080934E020E940A
:10492000BB0890934D0280934C0280914C02909171
:104930004D020E94850A059798F088E0E7E5F2E0CD
:10494000AFE4B2E001900D928A95E1F710924E0229
:1049500007C080E090E0AFCF80914E028111E5CF9B
:10496000809115018F3F09F07AC080911701811164
:104970007AC08091520480FF1CC08091160182FF92
:1049800018C00E94BB08BC0180917F0390918003F6
:104990009B01281B390B80910C0190910D01281768
:1049A000390738F041E080917D0390917E030E94A9
:1049B000AB158F2D28960FB6F894DEBF0FBECDBF76
:1049C000DF91CF911F910F91FF90EF90DF90CF90EB
:1049D000BF90AF909F908F907F906F900895D29EE0
:1049E000F001D39EF00D1124E353FD4FA288B3884C
:1049F000A114B10421F4A0904F04B0905004D29EB1
:104A00008001D39E100D112403531D4FF8018681A0
:104A10008823C9F0858596850E94850AA816B9065F
:104A200090F4ED9C50011124D80151968C91811184
:104A300005C0C50183539D4F0E949D09C5018D523C
:104A40009D4F0E945809E3942E2D30E0809115016E
:104A5000082E000C990B821793070CF686CFE12CD9
:104A600086E1D82EF1CF8091FD039091FE0300974F
:104A700009F47FCF0E94850A209198033091990311
:104A80002817390708F075CF90919B0380919A03FE
:104A9000981759F00E9431201092990310929803B0
:104AA0001092FE031092FD0364CF0E94DB1F109250
:104AB000FE031092FD030E9410085BCFCF92DF929D
:104AC000EF92FF920F931F93CF93DF93CDB7DEB793
:104AD0002A970FB6F894DEBF0FBECDBFEBECF1E026
:104AE00080E5DF011D928A95E9F7EFEFF3E088E3B7
:104AF000DF011D928A95E9F78BECC82E81E0D82E54
:104B00007F0109E112E0F701D182C0824AE050E062
:104B1000B801CE0101960E945D2F88E0FE0131961A
:104B2000D60101900D928A95E1F789859A85D70182
:104B300013969C938E931297BAE0CB0ED11CE7E0AC
:104B4000EE0EF11C065F1F4F0936F2E01F07D9F683
:104B50002A960FB6F894DEBF0FBECDBFDF91CF917E
:104B60001F910F91FF90EF90DF90CF900895282F25
:104B7000CB01283068F43AE0239FB0011124675339
:104B80007E4F4AE050E00E945D2F90E080E0089563
:104B90008FEF9FEF08950F931F93CF93DF938C01B7
:104BA000862F63E272E00E94B725892BC9F4C09179
:104BB0002302D0912402209799F0F801808183305C
:104BC00069F4CE010E94E223CE010E94E223CE01CD
:104BD000DF91CF911F910F910C94E2238430B8F7AD
:104BE000DF91CF911F910F9108950F931F93CF9352
:104BF000DF938C01EB0163E272E08C2F0E94B725FA
:104C0000892B09F063C0FE01FF27D8018C91E55E76
:104C1000FD4F8130D1F419968C91199781115BC0A9
:104C20001A968C91882309F456C082E08083809183
:104C30002502909126020097D9F480912302909149
:104C40002402009709F442C013C08230E9F5199696
:104C50008C91199781112DC01A968C9181110EC0DB
:104C600083E080838091270290912802009719F1B8
:104C7000DF91CF911F910F910C94592384E0808391
:104C80008091290290912A02009791F78091230246
:104C900090912402009711F10E94E2238091250255
:104CA00090912602009721F780912302909124028F
:104CB000DFCF85E0808380912302909124020097CA
:104CC00029F00E94E223F0CF86E08083DF91CF912C
:104CD0001F910F91089581E08083AFCF80912502CD
:104CE00090912602AECF0F931F93CF93DF938C0149
:104CF000EB0163E272E08C2F0E94B725892BA1F4AF
:104D000080915504909156040E944B0CDD27C55E9E
:104D1000DD4F8881F80110821882833009F148F450
:104D2000813059F0823081F0DF91CF911F910F9146
:104D300008958430D1F08530B9F7809123029091A5
:104D40002402009789F306C08091250290912602E3
:104D5000009799F3DF91CF911F910F910C949E23AF
:104D60008091270290912802F3CF8091290290919F
:104D70002A02009779F72091230230912402809132
:104D800025029091260221153105D9F2009711F7DD
:104D9000C901E0CF8F929F92AF92BF92CF92DF92E4
:104DA000EF92FF920F931F93CF93DF93CDB7DEB7B0
:104DB0002A970FB6F894DEBF0FBECDBF0DEC12E000
:104DC000F12CE12C8BECC82E85E2D82E95EFA92E84
:104DD00095E2B92E23E7822E26E2922EF801D182A7
:104DE000C082B382A28295828482F58AE48ABE015F
:104DF0006F5F7F4F8E2D0E94B725892B29F48985FF
:104E00009A85F801938B828BFFEFEF1AFF0A0A5EF7
:104E10001F4F88E0E816F10409F72A960FB6F894B8
:104E2000DEBF0FBECDBFDF91CF911F910F91FF90DD
:104E3000EF90DF90CF90BF90AF909F908F900895AC
:104E4000CDB7DEB7AE970FB6F894DEBF0FBECDBFBD
:104E500084B7877F84BF0FB6F894A89580916000CF
:104E6000886180936000109260000FBE80E890E03F
:104E70000FB6F89480936100909361000FBE85B7E0
:104E8000806885BF85B7806885BF88E696E0909387
:104E90007301809372010E94CA260E945E250E94BF
:104EA0008B0E0E94410B0E94EA0B8091E20084600D
:104EB0008093E200789480914B02882399F080914E
:104EC000E9001091EC001795112717958F70182B9A
:104ED0001092E9008091E80083FD0E94070F1F7087
:104EE0001093E90082E084BD93E095BD9AEF97BDF1
:104EF00080936E000E94960D811102C00E9466127E
:104F000087E90E946A0685E30E946A0687EF0E948D
:104F10006A0684E90E946A0608E311E0D8018D91CF
:104F20008D018F3F11F00E946A06B1E004341B0727
:104F3000A9F7109258021092570210925002109244
:104F40004F0210925A02109259021092520210927D
:104F5000510210925C0210925B0210925402109265
:104F6000530210925E0210925D021092560210924D
:104F7000550290E080E00E94752F8A3E9E4F21F4FA
:104F80000E94960D811102C00E94751282E090E08D
:104F90000E946D2F809335020E94880D90938603A6
:104FA000809385030E94F4238FE39CE90197F1F736
:104FB00000C000000E94F42380914F0280FF08C0CF
:104FC0006FEF7FEF90E080E00E94992F0E94590CD4
:104FD00083E090E00E946D2F0E94300A80E091E013
:104FE0009093600280935F0268E1262E312C77E572
:104FF000472E72E0572E80914B0200E112E185307E
:1050000009F429C10E94F423882359F08FB7F8943A
:1050100040914202509143026091440270914502D6
:105020008FBF5FE4E52E52E0F52EE6E3F2E0D70114
:1050300010E000E0702F8D919D9121913191281702
:10504000390709F418C12827392760E0CC24C39414
:10505000D12CA60142235323452B09F406C16983B1
:105060007A8396012823392391E0232B09F490E0D9
:105070009B830E94BB088160782F9D838C8349812C
:105080005A816B81892F0E94FD20000F111FF801AA
:10509000EA5CFD4F808191818C259D2591838083E1
:1050A00086E0E1ECF2E0DE01119601900D928A9526
:1050B000E1F7C090C302D090C4020091C5021091E4
:1050C000C6021092C3021092C4021092C50210923E
:1050D000C6028C2D8D2991F080913202909133027D
:1050E0000E94850A9C018091C002882309F4DAC0DD
:1050F000909112019217130608F4E2C0802F812BC1
:1051000091F080913002909131020E94850A9C01B9
:105110008091BF02882309F412C190910B0192176C
:10512000130608F41AC18091C3029091C402892B1E
:105130009091C502892B9091C602892B11F00E9493
:10514000BE0986E0FE013196A1ECB2E001900D921D
:105150008A95E1F70E944D0890913402891721F059
:105160000E944D088093340280914B02843009F0F4
:1051700042CF83E08093E9008091E80082FF3BCF3B
:105180008091E80090E085FF0CC00E94100B50E277
:10519000C52ED12C8E010F5F1F4F882309F426C125
:1051A00091E08091E8008B778093E800992309F4DF
:1051B00022CF0091480210914902E98101151105A1
:1051C00009F422C1EE3F09F055C18A81833020F0F5
:1051D0008550833008F04EC1EA81EE3008F04AC1B4
:1051E000F0E0EB5BFF4C0C942A2F80914B02843053
:1051F00011F110922F0290E40FB6F894A895209226
:1052000060000FBE9093600083B7817F846083BF8E
:1052100083B7816083BF7894889583B78E7F83BF7F
:105220000FB6F894A8958091600088618093600023
:10523000109260000FBE80914A02882361F00E94A4
:10524000F423EFE4F2E081919191892B09F01AC4E3
:105250004E165F06C1F780914B02853009F4C5CF29
:105260000E94F20E0E944D08CDCE6F5FCC0CDD1C6B
:105270006C3009F0EECE0F5F1F4F0430110509F0BE
:10528000D9CE8FEF89A38AA31BA20E94BB0881609D
:10529000782F9DA38CA349A15AA16BA1892F0E94AD
:1052A000FD20FECE40911301AAE04A9FA0011124E7
:1052B0004217530708F022CF8F5F8093C00202C0CD
:1052C0008F3FD1F7CC2059F00E9483069FEF1C142A
:1052D0000CF491E0899F802D11248093C302DD207E
:1052E00059F00E9483069FEF1D140CF491E0899FF2
:1052F000802D11248093C4023091C302332309F41A
:10530000FDCE2091C402222309F4F8CE45EB3403EC
:10531000C0011124992359F09093C30255EB250342
:1053200090011124332339F03093C402E7CE81E099
:105330008093C302F3CF81E08093C402DFCE40911B
:105340000A019AE0499FA00111244217530708F06F
:10535000EACE8F5F8093BF0202C08F3FD1F7002358
:1053600059F00E94E2069FEF10160CF491E0899F1D
:10537000802D11248093C502112359F00E94E2066A
:105380009FEF11160CF491E0899F802D11248093DA
:10539000C6023091C5022091C602332309F4C3CE60
:1053A000222309F4C0CE45EB3403C0011124992314
:1053B00059F09093C50255EB250390011124332336
:1053C00039F03093C602AFCE81E08093C502F3CFAF
:1053D00081E08093C602A7CE8091F100D8018D9321
:1053E0008D01B1E0CB1AD10809F4DACE8091E80042
:1053F00085FDF2CF8091E8008B778093E8000E94D2
:10540000100B882399F3CCCEE43150F4EE2359F0FD
:10541000E150E33140F4F0E0ED5AFF4C0C942A2FB8
:10542000EE3F09F4D9CE8FEF59C31A8289E08B83FE
:1054300021C08A81823009F473C3833001F1813045
:1054400091F78FB7F8942091420230914302409136
:105450004402509145022BA73CA74DA75EA78FBFE2
:105460006BA57CA58DA59EA50E94302F6B837C83A8
:105470008D839E83CE0101960E948A0BBCCD8091C4
:10548000460290914702892BA9F3FE013196D7017C
:105490008C9111969C91B2E0EB0EF11C9283838368
:1054A000329627E5E21622E0F20689F7E3CF8A81F9
:1054B000823009F0B8CF8B819C81AD81BE818BA7F2
:1054C0009CA7ADA7BEA7BC01CD010E94302F86E2EC
:1054D00090E00E947B2FCECF4C816B818A810E940D
:1054E000AF0D9827892798279E838D83C3CF2D8161
:1054F0003E813227232732274C816B818A810E948B
:10550000430DB8CF0E94D511B5CF80E18A83B2CFC9
:1055100081E08A8387E98BCF8C81082F10E08D3161
:1055200008F0A8CFCA80DB80DC24CD24DC240C0D5D
:105530001D1D7E0195E0E90EF11CC60187599D4FA6
:105540000C151D0509F496CFA7E9CA16A1E0DA06E5
:1055500048F40E946D2FF70181937F01FFEFCF1A6E
:10556000DF0AEBCF80E0F7CF8091460290914702AF
:10557000892B09F47FCF8C81E82EF12C8D3108F036
:1055800079CF0A811B811027012710279E012F5FE9
:105590003F4F6901E20EF31EC80187599D4FEC147D
:1055A000FD0409F467CF073951E0150728F4D60147
:1055B00014966C910E947B2F0F5F1F4FBFEFCB1A89
:1055C000DB0AEACF0E94780D55CF84E09FCF8C8113
:1055D000082F10E08D3108F04DCFCA80DB80DC242D
:1055E000CD24DC240C0D1D1D7E01E5E0EE0EF11C2A
:1055F000C6018796C016D10609F43CCFF0E8CF1655
:10560000F1E0DF0648F40E946D2FD7018D937D01F4
:10561000BFEFCB1ADB0AECCF80E0F7CF8C81E82E0E
:10562000F12C8D3108F026CF0A811B81102701272C
:1056300010270038E1E01E0708F01CCF80E891E059
:10564000801B910B8E159F0508F414CF4801F7E2DB
:105650008F0E911C8091460290914702892BD1F5C3
:10566000680121E0C222DD2400FF0DC0C80186963A
:105670000E946D2F9D8189279827892781159C4538
:1056800011F48FEF8D83C8018E0D9F1D570180FF90
:1056900017C041E0A41AB10845E0642E712C6C0ECD
:1056A0007D1E6A0C7B1CC4018E0D9F1D0E946D2FF8
:1056B000D3019C9181159C4519F48FEFF3018083F0
:1056C000E1E0F0E0EC0FFD1FEC0DFD1D2FEFCA1423
:1056D000DB0430F0FE0131966F01EE0EFF1E1AC0A2
:1056E0009481858181159C4511F42483258342E0B2
:1056F000C40ED11C3296EBCF003851E0150728F4C8
:10570000D60114966C910E947B2F0F5F1F4FBFEF45
:10571000CB1ADB0AC8018796EC14FD0469F7AACE00
:105720008091460290914702892B09F4A3CECE01C5
:1057300001960E948A0B3FEF41EE54E03150404009
:105740005040E1F700C0000041CC88E0ECE1F1E01E
:10575000DE01919601900D928A95E1F7FE01329655
:105760008FE1DF011D928A95E9F784E0898388E063
:105770007F96DE01159601900D928A95E1F77ACE1B
:1057800080E6898381E08A831B821C8273CE8C81B0
:1057900090E0982F88272B81820F911D092E000CF5
:1057A000AA0BBB0B35E0880F991FAA1FBB1F3A95A8
:1057B000D1F7AC01BD01405E5F4F6F4F7F4F48177F
:1057C00059076A077B0708F455CE8036E1E09E074B
:1057D000A105B10508F04ECE4136F1E05F07610545
:1057E000710510F040E651E0481B590BBC016157B0
:1057F0007B4FCE0101960E94372F3CCE4AE150E00C
:105800006FEF70E0CE0107960E94562F80914602FE
:1058100089830A8381E08B831C828D838BE08E8356
:1058200029CE81E090E0909349028093480282E380
:1058300090E090934102809340020E94BB089093B5
:105840003F0280933E0216CE012B61F1109151026E
:105850000091520280913E0290913F020E94850A7F
:105860008536910540F103FF26C010FF24C00E9439
:10587000BB0890933F0280933E028091400290913A
:10588000410201979093410280934002892B51F489
:10589000109249021092480281E090E090934702F2
:1058A00080934602809146028983809148028A83D0
:1058B00080914002BCCD82E390E0909341028093BE
:1058C0004002F0CF1092470210924602D3CD0B81D6
:1058D0001C8140E250E06FEF70E0CE0101960E9423
:1058E000562F27EF33E090E080E0AC014E5F5F4F32
:1058F0004132510508F0BECDF9016591749106174A
:10590000170750F4A1E0B0E0AC0FBD1F8A0F9B1F3A
:10591000FC0171836083CA01285F3F4FF4E02F3898
:105920003F0719F7A7CD4B815C8187EF93E02FE804
:1059300034E0FC01659174914617570709F4B8C02B
:10594000089628173907A9F76ECD8B819C8107EF40
:1059500013E0F801259134918217930709F4C0C030
:10596000085F1F4F24E00F38120799F75CCD0E94A3
:10597000B10E80CD8B81823009F448C060F4811172
:105980002EC0FE0133968EE1DF011D928A95E9F764
:1059900088E08983BBCD833009F456C0843009F098
:1059A00069CD6C818AE0FE013596DE019196019009
:1059B0000D928A95E1F78FEF683068F4FAE06F9FF7
:1059C000B0011124675E7D4F4AE050E0CE01819620
:1059D0000E949F2F80E089830E945E254BCD8C81A1
:1059E0009AE0F92E8E010F5D1F4FF8012F2D1192B5
:1059F0002A95E9F7B8010E94B7258983F801DE01ED
:105A0000129601900D92FA94E1F734CD6C818AE000
:105A1000FE013596DE01919601900D928A95E1F78F
:105A20008FEF683068F43AE0639FB0011124675348
:105A30007E4F4AE050E0CE0181960E949F2F80E089
:105A400089830E94CA2616CD6C812AE0CE018196F8
:105A5000DC01E22F1D92EA95E9F7683088F4629F35
:105A6000B0011124675E7D4F4AE050E00E945D2F37
:105A700080E089838AE0FE01B196DE0112967BCE3A
:105A80008FEFF7CF09BD19BD09B400FEFDCF80919E
:105A9000D8008F7D8093D8008091E0008260809351
:105AA000E0008091E00081FDFCCF0E94F20ED3CB9C
:105AB0009C012E5F3F4FF9014591549140325105B1
:105AC00008F0B1CCF901459154910496FC0165911F
:105AD0007491CE0102960E944D2F80E08983CACC3A
