:100000000C9439050C9471050C9471050C947105D0
:100010000C9471050C9471050C9471050C94710588
:100020000C9471050C9471050C94FF2C0C94BB2C52
:100030000C94FC2D0C9471050C9471050C947105B5
:100040000C9471050C9471050C9471050C94710558
:100050000C9471050C94D82D0C9471050C947105B9
:100060000C9471050C9471050C9471050C94710538
:100070000C9471050C9471050C9471050C94710528
:100080000C9471050C9471050C9471050C94710518
:100090000C9471050C9471050C9471050C94710508
:1000A0000C9471050C9471050C94710505010902FD
:1000B000A10185020901A100050919012905150001
:1000C00025019505750181029501750381010501E1
:1000D000093009311581257F950275088106093897
:1000E0001581257F950175088106050C0A380215D2
:1000F00081257F950175088106C0C005010980A191
:1001000001850319012AB700150126B7009501756D
:10011000108100C0050C0901A101850419012AA064
:1001200002150126A002950175108100C00660FF2E
:100130000961A1010962150026FF0095207508815B
:10014000020963150026FF00952075089102C0057D
:10015000010906A101050719E029E7150025019508
:1001600008750181029501750881010507190029AB
:10017000FF150026FF009506750881000508190186
:100180002905950575019102950175039101C0003E
:10019000000000000000000000000000000000005F
:1001A000000000000000000000000000000000004F
:1001B0000000007E0F00D4FFFFFFC70000007800A2
:1001C000000000000000002A2B28000000000000B2
:1001D0000000000000000000000029000000002CCA
:1001E0001E3420212224342627252E362D37382769
:1001F0001E1F202122232425263333362E37381F75
:100200000405060708090A0B0C0D0E0F1011121336
:100210001415161718191A1B1C1D2F3130232D35D4
:100220000405060708090A0B0C0D0E0F1011121316
:100230001415161718191A1B1C1D2F3130354C6454
:100240003214783C1E1E140A05FD377A585A0000F5
:1002500004E6D6B4460200210116000000742FE522
:10026000A3E009CB02305D003D8889C65436C31730
:100270004FE4E2A73DAC73831FB1E521EA73C55992
:100280006CF951C8925CE0C5B726F35756C948B21D
:100290001384F8BC892941DA845EFABA7397F7A00F
:1002A000A8986F3ED4C24301AB849A7684D1523A67
:1002B0004EBCE244193FBEABB36E0AEA7A7961EFF5
:1002C000DF5AF753EECF5A567F4C3E9BAC2932058E
:1002D00004C5430873C427B4E555C646224A7FF7D0
:1002E000478017583CF03F309685665B5D93843DB0
:1002F00009AFFE25E747A71E95A5FD8CF6AAEBCF13
:10030000BCD96ADD695352DA52697097298F444427
:100310002C75C6E70C2C1D4CE30EB41D0005CEED6C
:10032000B9B586C7345F58AC7C55A418319183FCAD
:10033000BFAC76EDDFCBA016E110D303D0576946F2
:100340001D410E1DD17E9E8B533F7D9AE777FB4B5F
:1003500072545E7BFB0F44E1F0EBF4D425D34ABF2B
:100360009169DA97FC32E8E2041DBE3FD669B958BC
:10037000D7FA52C7DDFDB5D151E4F6E722A62D0C20
:100380007F9C72D831165737387B48674B237E20C5
:100390008959B0AE624875DD231073BDC072DCE3CD
:1003A000CC33581DD213A95391D593D6223A5989EB
:1003B0003515E4970A47AFBBEE198B0E85A24FE1C6
:1003C0005A26313EE230AC4661566974966418A9EB
:1003D000391E67742AE64F32854A67B9E3FF610424
:1003E000CC706E4E6BFACAB3AE0E1B6236B6D4DF5B
:1003F000EC7393E6F91C5496810077F0FEFD52A74A
:100400005994D9FB10A5A747B59CD24B78E81AF6AA
:10041000156F9293861D7C414CC80925F5921AC030
:100420008C52782B5EAE716CFC640217D7D19F940E
:100430007CCED611904FC13ED7677C98FD21118BA1
:1004400015E900EB6298166ADA2BF10D1122E59C92
:10045000BFE17FDBA2945BB7DA9C4A4C80E92CD9E0
:100460000613A8804525585B17290C8D37981B72F9
:10047000318CEE3FC2334A74052887865211E5F667
:100480001DE1FAA6A33525B8A8F7EC3E57C12ED634
:10049000BCDBD0848A35449B00B72E7F697D0A403F
:1004A000410001CC04CC13000045E00472B1C467E4
:1004B000FB020000000004595A0001010101010182
:1004C000010101020202020202020202030303030B
:1004D00003030303040404040404040505050505DB
:1004E0000606060606070707070708080808090999
:1004F00009090A0A0A0B0B0B0C0C0C0D0D0D0E0E44
:100500000E0F0F0F101011111112121313141415D6
:100510001516161717181819191A1A1B1B1C1D1D4A
:100520001E1E1F20202122222324242526262728A0
:1005300029292A2B2C2D2D2E2F30313232333435D0
:10054000363738393A3B3C3D3E3F404142434445D3
:10055000464748494A4C4D4E4F50515354555658B2
:10056000595A5B5D5E5F616264656668696B6C6D5C
:100570006F7072737577787A7B7D7E8082838587D2
:10058000888A8C8E8F91939596989A9C9EA0A2A310
:10059000A5A7A9ABADAFB1B3B5B7BABCBEC0C2C415
:1005A000C6C9CBCDCFD1D4D6D8DBDDDFE2E4E7E9D5
:1005B000EBEEF0F3F5F8FAFDFF2223252628292A91
:1005C0002C2D2F3032333536383A3B3D3E404243B6
:1005D0004547494A4C4E5051535557595A5C5E60F5
:1005E00062646668696B6D6F71737577797B7D7F07
:1005F00081838587898A8C8E90929496989A9C9E06
:100600009FA1A3A5A7A8AAACAEAFB1B3B4B6B8B921
:10061000BBBCBEBFC1C2C3C5C6C7C9CACBCCCDCE89
:10062000D0D1D2D2D3D4D5D6D7D7D8D9D9DADADB6C
:10063000DBDBDCDCDCDCDCDDDDDDDDDCDCDCDCDCF8
:10064000DBDBDBDADAD9D9D8D7D7D6D5D4D3D2D237
:10065000D1D0CECDCCCBCAC9C7C6C5C3C2C1BFBE1F
:10066000BCBBB9B8B6B4B3B1AFAEACAAA8A7A5A38A
:10067000A19F9E9C9A98969492908E8C8A89878549
:1006800083817F7D7B79777573716F6D6B69686628
:100690006462605E5C5A5957555351504E4C4A49FA
:1006A00047454342403E3D3B3A3836353332302FA2
:1006B0002D2C2A29282625232201000100010001D2
:1006C0000001000100010001000100010001000122
:1006D0000001000100010001000100010001000112
:1006E0000001000100010001000100010001000102
:1006F00000010001000100010001000100010001F2
:1007000000010001000100010001000000010000E3
:1007100000010001000100010001000100010001D1
:1007200000010001000000000000000000000000C7
:1007300000010001000100010001000100010001B1
:1007400000010001000100010001000100010001A1
:100750000001000100010001000100010001000191
:100760000001000100010001000100010001000181
:100770000001000100010001000100010001000171
:100780000001000000010000000100010001000163
:100790000001000100010001000100010000000053
:1007A0000000000000000000000100010001000145
:1007B0000001000100010001000100010001000131
:1007C0000001000100010001000100010001000121
:1007D0000001000100010001000100010001000111
:1007E0000001000100010001000100010001000101
:1007F00000010001000100010001000000010000F3
:1008000000010001000100010001000100010001E0
:1008100000010001000000000000000000000000D6
:1008200000010001000100010001000100010001C0
:1008300000010001000100010001000100010001B0
:1008400000010001000100010001000100010001A0
:100850000001000100010001000100010001000190
:100860000001000100010001000100010001000180
:100870000001000000010000000100010001000172
:100880000001000100010001000100010000000062
:100890000000000000000000000100010001000154
:1008A0000001000100010001000100010001000140
:1008B0000001000100010001000100010001000130
:1008C0000001000100010001000100010001000120
:1008D0000001000100010001000100010001000110
:1008E0000001000100010001000100000001000002
:1008F00000010001000100010001000100010001F0
:1009000000010001000000000000000000000000E5
:1009100000010001007A03000002000200760300DB
:1009200000030001007B03000004000200600305D7
:1009300008050001007C03000006000200620300BD
:10094000000700020078030000080001007D03009A
:1009500000090002006403E0070A0002006603E0E9
:10096000070B0002006803E0070C0002006A03E0C6
:10097000070D0002006C03E0070E0002006E03E0AA
:10098000070F0002007003E007100002007203E08E
:1009900007110002007403E007120002007E03004A
:1009A0000013000200800300001400010082030015
:1009B0000009025B00030100A0FA09040000010322
:1009C00001010009211101000122400007058103F6
:1009D00008000109040100020300000009211101BF
:1009E00000012222000705820320000107050303FE
:1009F0002000010904020001030000000921110187
:100A00000001228100070584032000011201000279
:100A100000000008444B724D0100010203011C0359
:100A20007600690061006C003A0066003600340010
:100A300063003200620033006300000012034D00C7
:100A40006F006E006F007200610069006C000000B2
:100A50001C034B0069007300650072002000440015
:100A600065007300690067006E00730000000403F6
:100A7000090411241FBECFEFDAE0DEBFCDBF04B6FC
:100A800003FE18C08091080490910904A0910A0403
:100A9000B0910B048730904BA740B04B59F41092A3
:100AA00008041092090410920A0410920B04E0E06A
:100AB000F8E3099511E0A0E0B1E0EEEBFEE602C03C
:100AC00005900D92A438B107D9F724E0A4E8B1E06D
:100AD00001C01D92A830B207E1F70E94232E0C94AA
:100AE00039370C940000E8EDF0E080818E7F808340
:100AF0001092E2001092DA001092E100A0EEB0E055
:100B00008C9181608C9380818F77808319BCA7ED55
:100B1000B0E08C918E7F8C9380818F7E8083109249
:100B2000EF0308952091E4003091E50095E6A901D6
:100B30002091EC00822F817020FF06C08091E80098
:100B400080FF06C080E008952091E80022FD1AC0D1
:100B500080910504882389F0853089F08091EB002D
:100B600085FD0FC02091E4003091E5004217530746
:100B7000F9F29150E1F684E0089582E0089583E06F
:100B8000089581E00895EF92FF920F931F93CF9302
:100B90007C018B010E949205C82F811117C08091A2
:100BA000E80085FD0BC08091E8008E778093E80017
:100BB0000E949205882399F3C82F08C0F7018191FC
:100BC0007F018093F1000150110949F78C2FCF91DB
:100BD0001F910F91FF90EF900895CF93FC018091AA
:100BE0000504843001F5C091E900CF702091EC003C
:100BF000922F917020FD90E8C92B82E08093E9004C
:100C00008091E80080FF0CC050E040E060E270E0BE
:100C1000CF010E94C3058091E8008E778093E800A1
:100C2000CF70C093E900CF9108958091FD0387FFB5
:100C300013C08091E80082FF06C08091E8008B77A6
:100C40008093E80004C0809105048111F2CF0895DB
:100C5000809105048823D9F38091E80080FFF8CFC4
:100C60008091E8008E77ECCF982F9093E900242FA5
:100C7000762F50E0891731F07091EC002091ED0053
:100C80005091F00021FD07C09F5F973071F780936E
:100C9000E90081E008953091EB003E7F3093EB0056
:100CA0003091ED003D7F3093ED003091EB003160ED
:100CB0003093EB007093EC002093ED005093F00024
:100CC0002091EE0027FDE0CF80E00895CF92DF92E3
:100CD000EF92FF920F931F93CF93DF93C8EDD0E075
:100CE00088818F7E8883E7EDF0E08081816080835A
:100CF00084E082BF81E08093EF0388818E7F8883C8
:100D000002EE10E0F80110821092DA0081EEC82E97
:100D1000D12CF601108288818F7788838881806842
:100D2000888388818F7D888319BC10920504109276
:100D3000FC031092FB031092FA0390EEE92EF12CC3
:100D4000F70180818B7F808388818160888342E086
:100D500060E080E00E943406F60180818E7F80830F
:100D6000F801808181608083808188608083F701C1
:100D700080818E7F8083888180618883DF91CF919D
:100D80001F910F91FF90EF90DF90CF900895FC019D
:100D9000809103049091040486179707A0F06115D1
:100DA000710529F49091E8009E779093E80090E017
:100DB0006115710551F4911108C08091E80082FF1E
:100DC00034C080E00895BC01F2CF809105048823EF
:100DD000C1F18530C1F18091E80083FD30C0809180
:100DE000E80082FDEACF8091E80080FFE1CF8091AA
:100DF000F3002091F200382F6115710519F02830A9
:100E0000310558F091E02830310509F090E020914B
:100E1000E8002E772093E800CBCF81918093F100FA
:100E2000615071092F5F3F4FE7CF80910504882300
:100E300041F0853041F08091E80083FFBECF81E032
:100E4000089582E0089583E0089508958091F10364
:100E500008959C014FB7F8948091E8039091E903BD
:100E6000A091EA03B091EB034FBF821B930B08954F
:100E70002FB7F8948091E8039091E903A091EA03D9
:100E8000B091EB032FBF08959C01FC0132969FEFB8
:100E900080E04191461751F09F3F19F4411101C084
:100EA000982F8F5F8630A9F79F3F09F40895290F87
:100EB000311D97FD3A95F901628308952091E5036C
:100EC0003091E6032817390771F09093E603809379
:100ED000E503E091E303F091E403309721F000840F
:100EE000F185E02D099408952091E1033091E2030A
:100EF0002817390771F09093E2038093E103E091A2
:100F0000E303F091E403309721F00680F781E02DB0
:100F100009940895E091E303F091E403309721F000
:100F20000190F081E02D099480E00895452B39F07F
:100F3000682381E06F3F09F080E08170089581E0CF
:100F4000FCCFDC0160915C0380915D03962F8913D7
:100F500001C00895292F30E0F901EE0FFF1FEC5A70
:100F6000FC4F408151814A175B07A1F487E08A9FBB
:100F7000A0018B9F500D1124485C5C4F81E0FA0169
:100F800084839613E6CF2F5F3F4F23703327209340
:100F90005C0308952F5F3F4F922F9370D8CF10922C
:100FA000D5021092D402E8E3F3E08581811102C0FA
:100FB00014821682379683E0E435F807B1F7089576
:100FC000E0E6F3E0848195812AE030E0B9010E94F7
:100FD0007136609316018681809315018285809316
:100FE000140184858093130186859785B9010E9439
:100FF00071366093120180898093110182898093F8
:101000001001848980930F0108958091600390916D
:10101000610390931801809317010895FA018111DB
:1010200001C0FB010994089580916E02982F9E7F64
:1010300029F48170826080936E0208958E31E8F306
:1010400081708C61F8CFAF92BF92DF92EF92FF92E6
:101050000F931F93CF93DF93082F162FE901E42FEF
:10106000F0E0E754FB4F611110C0E4915E2F4E2F6A
:101070004983E8835A83DF91CF911F910F91FF90AD
:10108000EF90DF90BF90AF900895E62EF12C449141
:10109000D42EE42FF0E026E0829FC00111242FEF30
:1010A00030E0B9010E947136802F90E0880F991FBF
:1010B00055E5569FD001579FB00D11248A1B9B0BFD
:1010C000982F990F890F5901AE18BF08AE9ED00115
:1010D000AF9EB00DBE9EB00D11245B2F189F8001F6
:1010E0001124012F11275901A01AB10AAE9E8001C7
:1010F000AF9E100DBE9E100D11245901A81AB10803
:10110000AE9CC001AF9C900DBE9C900D1124892F08
:101110009927281B390B2E9FC0012F9F900D3E9FB2
:10112000900D1124E92F62307105A1F050F4611582
:10113000710509F49DCF6130710581F0EB2F512FBE
:1011400097CF6430710569F080F06630710509F45D
:101150008FCFF4CFE42F4B2F592F8ACFE42F412F7D
:1011600087CFEB2F542F492F83CF4B2F5D2DE12FAE
:101170007FCF0E9438079C0190913E0280913F02F0
:10118000982B21F030933B0220933A029091400239
:1011900080914102982B21F030933902209338023C
:1011A000E091E303F091E403309749F082E080930B
:1011B0003C020480F581E02D8CE392E009940895CF
:1011C00090913E02803F59F480913F0287FF0DC00D
:1011D00010923F0291110BC01092360208C0813F5D
:1011E00081F480913F0218169CF3992381F080913D
:1011F000400290914102892B09F064C0109235029F
:101200000895823F49F497FFF0CF10923E028091FB
:101210003F028111ECCFE0CF833F19F41916ACF3F4
:10122000E4CF20914002893F29F41216F4F610927F
:101230004002DBCF8A3F19F427FFD7CFF8CF2091A8
:1012400041028B3F29F427FFD0CF10924102CDCF2E
:101250008C3F19F41216CCF3C8CF843F31F480913F
:101260003D028E7F80933D02C0CF853F21F4809167
:101270003D028D7FF7CF863F21F480913D028B7F29
:10128000F1CF873F21F480913D02877FEBCF883FEC
:1012900021F480913D028F7EE5CF8D3F31F4809126
:1012A00037028E7F80933702A0CF8E3F21F480914A
:1012B00037028D7FF7CF8F3F09F097CF80913702AC
:1012C0008B7FF0CF08958091370280FF0CC0609132
:1012D000100170E0759567957595679561157105B5
:1012E00049F1862F089581FF06C06091100170E0DA
:1012F00075956795F3CF6091100182FD0BC09091B9
:1013000035029923A1F060910F0180911001961789
:1013100038F0682F70E06038710500F38FE70895AA
:10132000899FC001112470E00E948536F4CF61E0EE
:1013300070E0D7CF81E00895809137026091680313
:101340007091690380FF16C020911401269FC0018F
:10135000279F900D1124BC0176956795769567952A
:101360006038710508F043C06115710509F441C08A
:10137000862F089581FF0BC020911401269FC00184
:10138000279F900D1124BC0176956795E9CF82FFC8
:1013900009C0809114019B01829FB001839F700D51
:1013A0001124DECF209136022223D1F29091130135
:1013B00080911401482F50E0291748F0CB01849FF9
:1013C000B001859F700D949F700D1124C9CF289F87
:1013D00090011124269FA001279F500D369F500D8C
:1013E0001124692F70E0CA010E947136B9CF8FE7CE
:1013F000089581E00895803F31F40E949C09819511
:1014000080933F020895813F19F40E949C09F8CF10
:10141000823F31F40E949C09819580933E02089599
:10142000833F19F40E949C09F8CF893F29F40E9458
:1014300063098093400208958A3F21F40E94630962
:101440008195F7CF8B3F31F40E946309819580939A
:10145000410208958C3F19F40E946309F8CF843F3C
:1014600031F480913D02816080933D020895853F73
:1014700021F480913D028260F7CF863F21F4809174
:101480003D028460F1CF873F21F480913D02886066
:10149000EBCF883F21F480913D028061E5CF8D3F05
:1014A00031F48091370281608093370208958E3F36
:1014B00021F4809137028260F7CF8F3FB9F7809196
:1014C00037028460F1CF80E00895F894E82FE29528
:1014D000EF70F0E031A1282F2F7081E090E001C083
:1014E000880F2A95EAF7982F9095932391A392A1BC
:1014F000892B82A3789408959091100292FF06C0E0
:10150000282F28712830F9F4877F846093FF06C064
:10151000282F28712831F1F4877E846120911102EF
:1015200020FF06C0382F38713830D9F4877F8160AA
:1015300021FF06C0282F28712831D1F4877E8161D0
:1015400094FD877E0895282F24712430F9F68B7F2F
:101550008860DCCF282F2471243101F78B7E8861CD
:10156000DDCF382F3171313019F78E7F8860E0CFB1
:10157000282F2171213121F78E7E8861E1CFCF9311
:10158000DF93EC0182389105A9F1D8F581339105FB
:1015900009F496C048F58932910509F48AC08A9702
:1015A00009F495C0C11521E5D20708F0BCC0C115EA
:1015B00030E5D30708F014C1C83ED10508F09CC03F
:1015C000C03ED10560F5C83AD10508F087C0C53ADC
:1015D000D10508F0FDC0C130D10509F12097F9F01F
:1015E000C430D105E0F440C08533910509F45AC0F8
:1015F000C997C1F680911002837089F0C0EED0E0E7
:101600000EC0833E910599F170F4803E910501F181
:10161000823E910539F68091100282FD21C0CE01F3
:10162000DF91CF910895863E910561F1873E910546
:1016300071F1843E910509F0B5CF8091110281FFCF
:10164000EECF80911002C7EED0E084FD0DC0E7CF51
:101650008091100280FD12C19091110290FFDFCFA6
:10166000C3EED0E084FFDBCFD0E0C0E0D8CF8091E4
:10167000100282FD06C19091110290FDBFCF84FF40
:10168000CECFF2CF8091100283FDDDCFC8CF809105
:10169000100283FDF9C09091110291FFF0CFC4EECA
:1016A000D0E0BDCF8091100285FFB9CFC9E2D0E074
:1016B000B6CF8091100285FFB2CFC5E3D0E0AFCFA7
:1016C0008091100286FFABCFCAE2D0E0A8CF809114
:1016D000100286FFA4CFC1E3D0E0A1CFCF3BD1055C
:1016E00018F6C85AD0E0CC0FDD1FC95DDE4F099057
:1016F000D881C02DD46493CFC11540E2D40758F4EB
:10170000C11581E0D80708F08ACFC03FD10508F4A1
:10171000ABCFD06584CFC11590E4D90708F4A4CF2E
:10172000DF70D06A7CCFC11525E5D20700F5C11561
:1017300034E5D30708F08AC0C11543E5D40708F0A3
:1017400071C0C11582E5D80708F467C0CE01837067
:10175000992721E030E002C0220F331F8A95E2F77B
:10176000C695C69580E2C89FE001112452C0C115FC
:1017700099E5D907A8F4C11528E5D20708F06BC090
:10178000C11536E5D30708F06FCF8C2F0E947C0A75
:10179000C82FD0E0DC2FCC27CC27DF71D0623FCF21
:1017A000C1154AE5D40708F45BC0CE0190568115F7
:1017B000904208F059CF8D2F8F710E947C0A90E0E3
:1017C000982F882788279F719C012C2BE901E6CF51
:1017D000C55AD0E0CC5DDE4FC881D0E0D0641FCFC9
:1017E000CE01E4E096958795EA95E1F783702C2F7A
:1017F00026952695237040E2249F90011124382BD2
:101800008C2F8370C1E0D0E002C0CC0FDD1F8A9521
:10181000E2F7C22BD32BDC6802CFDC2FCC27C16FC1
:10182000D06AFDCECE018370992721E030E002C05E
:10183000220F331F8A95E2F7C695C69590E2C99F9D
:10184000E0011124C22BD32BDA68E9CEDC2FCC27A0
:10185000C46FD06AE4CEDC2FCC27C06FD06ADFCE55
:101860008C2F8F700E947C0A34E0D695C7953A95EC
:10187000E1F7CF709C2FEC01D069D1CEC9E3D0E065
:10188000CECEC2EED0E0CBCEC6EED0E0C8CE8091B8
:101890000102882331F0109201021092000210928E
:1018A000FF010895CF93C82F8091110282FD0CC0D3
:1018B000809101028C1741F00E943807909300023A
:1018C0008093FF01C0930102CF910895809590917C
:1018D0000704982390930704089580959091AF0290
:1018E00098239093AF0208959091AF02892B809333
:1018F000AF0208951092F6011092F5011092F401D2
:1019000008958091620390916303892B89F00E946E
:1019100038072091FF0130910002AC01421B530BAC
:1019200081E020916203309163034217530708F46A
:1019300080E0817008958091F30181111092F3018C
:1019400008952091F2019091B101291302C080E025
:10195000089530E0F90153E0EE0FFF1F5A95E1F7CB
:10196000EE54FE4F5181561306C05081581303C0E8
:101970005281541304C02F5F3F4F2770E6CF81E0A0
:1019800008958091F2019091B101981301C00895DA
:101990008F5F8770FACF9E3F49F1E82F2CE0929F2E
:1019A000E00D11249E2F9770E695E695E69583E06D
:1019B000E89FF0011124EF56FE4F50E040E080E038
:1019C000219130E0092E02C0369527950A94E2F75E
:1019D00021703327042E01C0220F0A94EAF7822BCC
:1019E0004F5F5F4F4330510559F7089580E00895E8
:1019F0009E3F69F1E82F2CE0929FE00D11248E2F7D
:101A0000877041E001C0440F8A95EAF7E695E695B4
:101A1000E69583E0E89FF0011124EF56FE4F30E099
:101A200020E070E05191DF011197CB01022E02C03E
:101A3000969587950A94E2F781708195852784238E
:101A400085278C932F5F3F4F2330310559F7089539
:101A500092959F70963091F058F4925F9F709230FB
:101A600058F4803F19F030F4883E30F481E0089556
:101A70009A5FF4CF843FD1F380E00895883EB0F3BD
:101A8000813FD1F7F3CF81FD02C08C9A08958C98E5
:101A90000895982F92959F7011F0892F94E0282F28
:101AA0002695269511F09E5F822F869509F09F5FFF
:101AB000892F08959C013A9521153F4150F5FC016D
:101AC000EE27F170BC0166277270AC014427547098
:101AD0009C012227387094FF0EC080E1EF2B09F49F
:101AE00080E0672B09F08062452B09F08064232B8E
:101AF00089F08068089581E0EF2B09F480E0672B7E
:101B000009F08260452B09F08460232B19F088606E
:101B1000089580E00895CF93C82F0E94490D823028
:101B200039F0833051F0813051F4889A899802C09D
:101B30008898899A8C2FCF910895889AFACF88989F
:101B4000F5CF8093EC037093EE036093ED038091E7
:101B500005048430F9F48093E9008FEF9091E80058
:101B6000815095FD06C095ED9A95F1F70000811121
:101B7000F5CF8091E80085FF0DC050E040E063E0C4
:101B800070E08CEE93E00E94C3058091E8008E77B0
:101B90008093E8000895BC0184E00C94A10DBC0181
:101BA00083E00C94A10D9C0184E08093E9009FEFF9
:101BB0008091E800915085FD06C085ED8A95F1F78A
:101BC00000009111F5CF8091E80085FF0CC050E036
:101BD00040E066E070E0C9010E94C3058091E80022
:101BE0008E778093E8000895CF93DF93EC0181E036
:101BF0008093E9008FEF9091E800815095FD06C039
:101C000095ED9A95F1F700008111F5CF8091E800EC
:101C100085FF14C050E040E068E070E0CE010E9413
:101C2000C3058091E8008E778093E80088E0FE018C
:101C3000A2EFB3E001900D928A95E1F7DF91CF9189
:101C4000089581E08093E00080E28093D8001092B4
:101C5000C9008FE19EE40197F1F700C0000087E022
:101C600090EBDC018093080490930904A0930A048C
:101C7000B0930B0488E19CE00FB6F894A89580938C
:101C800060000FBE90936000FFCF019708F40895A5
:101C9000EFE9FFE03197F1F700C00000F6CF809147
:101CA0006E0280FD0AC0EAE4F2E011821082128224
:101CB000339652E0EE36F507C1F7209A35B13E7FF4
:101CC00025B121604FB7F8948AE492E0FC0151916C
:101CD000CF0168E025B9000000C057FF35B9550FA6
:101CE000000000C000C000C035B900C06A9591F77F
:101CF000F2E08E369F0751F74FBF8FE594E00197D2
:101D0000F1F700C000000895EF92FF921F93CF9368
:101D1000DF93EC018AE4E82E82E0F82E10E08C815B
:101D200097014091710260917002810F0E94230817
:101D30001B5E83E0E80EF11C1C3F89F70E944F0EEA
:101D40009A818C8190FF08C08F5F8C83DF91CF9147
:101D50001F91FF90EF9008958150F7CF90916E0200
:101D600090FF0CC0EAE4F2E0818360834283339603
:101D700092E0EE36F907C1F70C944F0E0895CF9319
:101D8000DF9300D00F92CDB7DEB790916E0290FF37
:101D90000AC09E012F5F3F4F0E9423084B8169813B
:101DA0008A810E94AE0E0F900F900F90DF91CF911D
:101DB0000895CF93DF93EC01EEE6F2E04381628178
:101DC0008C810E94BF0E8C818F5F8C83DF91CF91BD
:101DD0000895CF93DF93EC01EC81F0E0E754FA4FE4
:101DE0004491EEE6F2E0628181810E94BF0E8C8117
:101DF0008F5F8C83DF91CF9108950F931F93CF93C3
:101E0000DF9300E613E0C7E0D2E0CE010E94E9369E
:101E1000F80181938F012196CB32F2E0DF07A9F719
:101E2000C7E1D9E0FE0185919491009711F0FC0182
:101E300009952896F9E0C73BDF07A1F7DF91CF911D
:101E40001F910F9108950F931F93CF93DF938430C9
:101E500030F5653020F54C3010F5C42FD0E0CC0FB4
:101E6000DD1F28E1629FC00DD11D112438E7839F3B
:101E7000C00DD11D1124CE0187960E94E936082F8E
:101E800010E0102F0027CE0188960E94E9369801B5
:101E9000282BC901DF91CF911F910F91089590E0F8
:101EA00080E0F8CF462F2091AD023091AE02232B77
:101EB00091F47E3F39F46E3F71F48091AB029091C2
:101EC000AC020895843038F4753028F46C3018F47E
:101ED000672F0C94230F90E080E00895CF92DF925B
:101EE000FF920F931F93CF93DF936C010091060431
:101EF00080910202082BC7E0D0E010E0FC2EC80160
:101F00000C2E02C0959587950A94E2F780FD0CC0CF
:101F10002197A0F7F12C8F2DDF91CF911F910F9179
:101F2000FF90DF90CF900895B6018C2F0E94520F42
:101F30000E94BF0A019761F3EECFCF93DF93EC01CC
:101F40000E946E0FBE010E94520FDF91CF910C9440
:101F5000BF0AFC0186819781009721F00E94BF0A89
:101F60000C94280D808191810E949D0FF9CF1F93C1
:101F7000CF93DF9300D000D00F92CDB7DEB7498367
:101F80005A8389819A816623B9F02223A9F00E949D
:101F90006E0F182F682F89819A810E94F80C698131
:101FA0007A81812F0F900F900F900F900F90DF91FB
:101FB000CF911F910C94520F0E94CB0C182FEFCF92
:101FC000FC01262F86819781009739F44081518149
:101FD0006281738184810C94B70F089583E290E04D
:101FE0000E94E936883989F484E290E00E94E9365B
:101FF0008F3E59F485E290E00E94E93691E08B3EF5
:1020000009F090E0892F8170089580E0FCCFCF9394
:1020100084E090E00E94E936C82F82E290E00E94BE
:10202000E936982F8C2FCF9108950F931F93CF935C
:10203000DF9300E613E0C7E0D2E0CE010E94E9366C
:10204000F80161918F01681719F0CE010E94FD36E9
:102050002196CB32F2E0DF0781F7DF91CF911F911C
:102060000F910895E0E6F3E0128E138E8FEA90E070
:102070009183808325E0248F88E893E19383828392
:102080008AE090E09583848344E150E0578346835F
:1020900068E070E071876087938782874EE150E047
:1020A000558744879787868740E550E0518B408B62
:1020B000738B628B68E270E0758B648B62E370E017
:1020C000778B668B68EC70E0718F608F158E978FC1
:1020D000868F51A340A322A30E9415100C94FD0EDD
:1020E000CF93DF93CBE7D2E060E0CE010E94FD36D4
:1020F0002196C11584E0D807B9F7DF91CF910895F3
:102100000F931F93CF93DF938901843048F5653097
:1021100038F54C3028F521153C4531F42091A902C1
:102120003091AA02232BE1F0C42FD0E0CC0FDD1FA9
:1021300098E1699FC00DD11D112498E7899FC00DBA
:10214000D11D1124612FCE0187960E94FD36602F8C
:10215000CE018896DF91CF911F910F910C94FD369F
:10216000DF91CF911F910F910895CF93C82F6FEFFB
:10217000811168E983E290E00E94FD366FEFC111A2
:102180006FEE84E290E00E94FD366FEFC1116BEEBE
:1021900085E290E0CF910C94FD367F928F929F92D2
:1021A000AF92BF92CF92DF92EF92FF920F931F9365
:1021B000CF93DF93CDB7DEB764970FB6F894DEBF49
:1021C0000FBECDBFA090A902B090AA0281E090E01E
:1021D0009093AA028093A90289EBC82E86E0D82E9C
:1021E00000E0760110E015C0F40125913491472DEF
:1021F000612F802F0E94801082E0880E911C7394C2
:10220000ECE07E12F1CFF8E1EF0EF11C1F5F15300C
:1022100019F04701712CE8CF0F5F88E7C80ED11C79
:102220000430F9F60E9432101A8219821C821B8235
:102230001E821D8218861F8288EC90E09A8789870B
:102240004AE050E06BE272E0CE0101960E94213735
:102250004AE050E065E372E0CE0101960E9421372A
:102260004AE050E06FE372E0CE0101960E94213710
:102270004AE050E069E472E0CE0101960E94213705
:102280008E01055F1F4F8AE0F80111928A95E9F7E8
:102290004AE050E063E572E0C8010E9421374AE05D
:1022A00050E06DE572E0C8010E9421374AE050E03D
:1022B00067E672E0C8010E9421374AE050E061E71A
:1022C00072E0C8010E942137B092AA02A092A9022E
:1022D00064960FB6F894DEBF0FBECDBFDF91CF91ED
:1022E0001F910F91FF90EF90DF90CF90BF90AF9034
:1022F0009F908F907F90089580E00E94B51060E0DD
:1023000086E290E00E94FD360E94CD100E9470107F
:1023100081E00C94B5109B01843070F49AE0899FA1
:10232000B0011124655D7D4F4AE050E0C9010E9473
:10233000D93690E080E008958FEF9FEF08958F9257
:102340009F92AF92BF92CF92DF92EF92FF920F9344
:102350001F93CF93DF93CDB7DEB72A970FB6F894CC
:10236000DEBF0FBECDBF09E813E0F12CE12C8AE0FF
:10237000C82E8CE2D82E94E3A92E9CE2B92E23E736
:10238000822E2BE2922EF801D182C082B382A282E9
:1023900095828482F58AE48ABE016F5F7F4F8E2D1D
:1023A0000E948B11892B29F489859A85F801938BDA
:1023B000828BFFEFEF1AFF0A0A5E1F4F84E0E816D8
:1023C000F10409F72A960FB6F894DEBF0FBECDBF11
:1023D000DF91CF911F910F91FF90EF90DF90CF9001
:1023E000BF90AF909F908F900895CF92DF92EF9221
:1023F000FF920F931F93CF93DF93CDB7DEB72A974A
:102400000FB6F894DEBF0FBECDBFE1E8F2E088E280
:10241000DF011D928A95E9F7E8E3F3E08CE1DF0143
:102420001D928A95E9F781E8C82E82E0D82E7F01B7
:1024300003E512E0F701D182C0824AE050E0B80122
:10244000CE0101960E94D93688E0FE013196D60170
:1024500001900D928A95E1F789859A85D7011396A7
:102460009C938E931297BAE0CB0ED11CE7E0EE0E50
:10247000F11C065F1F4F0B37F2E01F07D9F62A96B3
:102480000FB6F894DEBF0FBECDBFDF91CF911F9185
:102490000F91FF90EF90DF90CF900895CF92DF9251
:1024A000EF92FF926B017C010E941408B701A60114
:1024B00088E090E0FF90EF90DF90CF900C940F3782
:1024C000EF92FF920F931F93CF93DF9300D00F9261
:1024D000CDB7DEB7082FF62E142FE22E80916E02B4
:1024E00080FF28C0E82FE695F0E0EA59FE4F908182
:1024F000909348028E7F823039F59E012F5F3F4FC7
:10250000802F0E9423084B8169818A810E94AE0E30
:1025100000936F02F092700210937102EE2051F05E
:1025200060916E0270916F028091700290917102C1
:102530000E944E120F900F900F90DF91CF911F913C
:102540000F91FF90EF900895923019F4109171025D
:10255000DFCF963019F400916F02DACF9930C1F6CF
:10256000FACFEEE6F2E0438128E0421B08F440E0B7
:1025700021E0628181810C946012EEE6F2E04381F9
:1025800028E0420F08F44FEF21E0628181810C9432
:102590006012EEE6F2E0628128E0621B08F460E07F
:1025A00021E0438181810C946012EEE6F2E06281C9
:1025B00028E0620F08F46FEF21E0438181810C94E1
:1025C0006012EEE6F2E0818121E043816281885071
:1025D0000C946012EEE6F2E0818121E04381628199
:1025E000885F0C94601280917202882319F08150E8
:1025F0008093720260916E0270916F0280917002FE
:10260000909171020C944E1280917202833018F4F2
:102610008F5F8093720260916E0270916F02809161
:102620007002909171020C944E1290916E0290FF84
:102630003DC09170811129C0926090936E02662313
:1026400051F060916E0270916F02809170029091D2
:1026500071020E944E1260916E02669570E041E038
:1026600050E08EE091E00E94AF36892BA9F01092E5
:10267000490281E08093450220E04091710260911F
:10268000700280916F020C9460128F3010F09C6188
:10269000D4CF880F982BD1CF81E0809349020E943C
:1026A00038079093430280934202E3CF08958091CC
:1026B0006E028695815009F48EE061E00C9415134A
:1026C00080916E0286958F5F8F3008F081E061E027
:1026D0000C94151390916E0290FF07C09695981771
:1026E00020F0961710F40C94601361E00C9415130D
:1026F000EEE6F2E083E0808311828FEF82838383B2
:10270000148260817181828193810C944E1269EEF2
:102710007EEF90E080E00E941B3760E082E090E076
:102720000E94FD3660E083E090E00E94FD3610924A
:10273000020260E084E090E00E94FD3660E082E208
:1027400090E00E94FD3660E085E090E00E94FD365A
:1027500060E086E090E00E94FD366FEF87E090E059
:102760000E94FD3640E050E0BA0188E090E00E940F
:102770000F3760E08DE090E00E94FD3640E050E0D1
:10278000BA0188E190E00E940F3760E087E190E0B5
:102790000E94FD3640E050E0BA018CE190E00E94DA
:1027A0000F3770E060E080E290E00E941B3740E06D
:1027B00050E0BA0188E190E00E940F3780E00E946B
:1027C000B5100E947C1140E050E0BA018FE090E02B
:1027D0000E940F3740E050E0BA0183E190E00C9492
:1027E0000F378F929F92AF92BF92CF92DF92EF926C
:1027F000FF920F931F93CF93DF93CDB7DEB72A9746
:102800000FB6F894DEBF0FBECDBF8E010F5F1F4F16
:102810008AE0F80111928A95E9F795E5E92E91E0B1
:10282000F92E6801AA24A394B12CF70181917F01AC
:102830008F3F09F446C0F894E82FE295EF70F0E07E
:1028400021A18F70A50102C0440F551F8A95E2F7A0
:10285000CA01922F982B91A392A18095892382A3DC
:10286000789400C0EAE5F1E021E030E0912C812C81
:1028700041914F3F09F481C0A42FA295AF70B0E001
:1028800090968C9190E04F7002C0959587954A95EF
:10289000E2F780FD72C0C901882A992A220F331FEE
:1028A00051E0E636F50721F7F701319780818F3F38
:1028B00011F00E94650A80EA8A95F1F7F60191828B
:1028C0008082F2E0CF0ED11C4AE5E41641E0F40626
:1028D00009F0ABCF4AE050E0B80186E092E00E94F8
:1028E000BC36FF24F394009709F4F12C892B09F4EA
:1028F00047C08AE0F801A6E0B2E001900D928A9507
:10290000E1F781E0809305020E943807909304026A
:102910008093030280910302909104020E94290790
:10292000059790F1809106029091070290932C02F6
:1029300080932B02809108029091090290932E02BD
:1029400080932D0280910A0290910B0290933002A5
:1029500080932F0280910C0290910D02909332028D
:102960008093310280910E0290910F029093340275
:10297000809333021092050207C090E080E08CCF74
:10298000809105028111C6CF8F2D2A960FB6F8943B
:10299000DEBF0FBECDBFDF91CF911F910F91FF9092
:1029A000EF90DF90CF90BF90AF909F908F90089561
:1029B0008091AF0290910704892B809386018091CA
:1029C0000102882309F18091620390916303892BAE
:1029D00029F00E94810C81110E94470C8091860190
:1029E00090910102892B8093860120E088E891E094
:1029F000FC013191CF0131112F5FF1E08E389F073B
:102A0000B9F721110E94470C48E050E067EF71E0F0
:102A100086E891E00E94BC36892BA9F088E0E6E8C0
:102A2000F1E0A7EFB1E001900D928A95E1F7E09116
:102A3000E303F091E403309731F00280F381E02D5D
:102A400086E891E009940895EF92FF920F931F9307
:102A5000CF93DF93EC018A85811134C0EB80FC8039
:102A600087E5F81A26E12E9DC0012F9D900D1124B7
:102A7000DC01A757BC4F1496ED91FC911597309748
:102A800031F054966D917C9181579C4F099586E168
:102A90008E9D80018F9D100D112407571C4FF8014A
:102AA00087810E946D0CF80180850E94660C0E944F
:102AB000D814188219861B861E821D8210928803E4
:102AC00010928703DF91CF911F910F91FF90EF90AC
:102AD0000895CF93DF93EC018989811118C081E0BB
:102AE000898B8F810E94740C809107049885892BB3
:102AF000809307040E94D814EA81FB81309739F053
:102B00006C897D89CE010696DF91CF910994DF9182
:102B1000CF91089580911901877F8093190182E0F8
:102B20000E94660C8091190184FF06C08F7E8093FD
:102B3000190182E00E94740C8091190185FF06C082
:102B40008F7D8093190180E20E94740C0C94D8143C
:102B500090E080E00E94740790E080E00E945E07B1
:102B6000109207040E94D81486E0ECE3F2E0DF0143
:102B70001D928A95E9F71092360210923502109252
:102B800037020C94B9080E948B0D809306040C94B4
:102B9000A81580910604982F9670963019F48860D5
:102BA0000C94C315877FFCCF21E030E001C0220FD9
:102BB0008A95EAF720958091060482230C94C31528
:102BC0009091F601809589238093F601282F277034
:102BD00091F4282F082E000C330B9217130659F08E
:102BE0009091110292FD07C08595859585950E946B
:102BF000D4150C947A0C0895CF93C0911102C2FBA6
:102C0000992790F9981799F080FBC2F9C0931102A7
:102C10006091100284E090E00E94FD366C2F82E209
:102C200090E00E94FD3682E0CF910C94E015CF91A8
:102C3000089521E030E001C0220F8A95EAF78091E3
:102C40000604822B0C94C3159091110292FD10C0C2
:102C500098E0899F90011124622B6093F6010E94F5
:102C600019160E9438079093F5018093F401089596
:102C70000C941916809302020C94A8151092AF02BE
:102C8000E8E8F1E086E0DF011D928A95E9F70C940F
:102C9000A8151F93CF93DF93CDB7DEB7AA970FB6D2
:102CA000F894DEBF0FBECDBF8DEF93E02091F10011
:102CB000DC012D93CD01B4E085309B07B9F78091FD
:102CC000FE03833009F472C0B8F4813009F449C0BE
:102CD000823009F4B3C08091E80083FF96C28091EE
:102CE000FD039091FE039A3008F08FC2E92FF0E0C7
:102CF000E55CF84C0C9499368A3009F48EC08B3020
:102D000009F471C0893039F78091FD03813219F7D8
:102D10008091010490910204009711F00297D9F676
:102D20008091E800877F8093E8008091E80082FF2F
:102D300038C09091F3008091F200029731F48091B5
:102D4000F100813011F0863021F48091F100809300
:102D5000F1038091E8008B778093E8000E941506CC
:102D6000BACF8091FD03813A09F0B5CF8091E80098
:102D7000877F8093E8008091010490910204892B61
:102D800061F468E082EF93E070E00E94C7068091F2
:102D9000E8008B778093E8009ECF60E090E080E0D1
:102DA000F3CF809105048111C0CF95CF8091FD03B1
:102DB000813A09F090CF8091010490910204892B0F
:102DC00009F089CF8091E800877F8093E8008091A7
:102DD000E80080FFFCCF80911B018093F10080917F
:102DE000E8008E77B9CF8091FD03813209F073CF6F
:102DF0008091010490910204892B09F06CCF80919D
:102E0000E800877F8093E8000E9415068091FF0309
:102E100080931B010E943E165ECF8091FD0381329C
:102E200009F059CF8091E800877F8093E8000E94E5
:102E30001506809100048093F0034DCF8091FD032F
:102E4000813A09F048CF8091E800877F8093E800BD
:102E50008091E80080FFFCCF8091F003BECF8038E6
:102E600099F0823809F0D1C1809101048F708730C8
:102E700008F0CBC18093E9008091EB0085FB8827A7
:102E800080F91092E90006C08091FA039091FB034B
:102E9000911182609091E800977F9093E800809371
:102EA000F1001092F1008091E8008E77AAC188238A
:102EB00009F498C1823009F0A8C18091FF03811103
:102EC0009BC1809101048F702FEF280F263008F0EE
:102ED0009CC18093E9002091EB0020FF8DC19330CD
:102EE00031F48091EB0080628093EB0085C190917A
:102EF000EB0090619093EB0021E030E001C0220FE5
:102F00008A95EAF72093EA001092EA008091EB009C
:102F10008860EACF811179C11091FF031F778091FA
:102F2000E3008078812B8093E3008091E800877F25
:102F30008093E8000E9415068091E80080FFFCCF96
:102F40008091E30080688093E30082E0111183E0C8
:102F5000809305045AC18058823008F056C12091F0
:102F6000FF03309100042C3DE3E03E07A1F583E030
:102F70008A838AE289834FB7F894DE01139620E0B2
:102F80003EE051E2E32FF0E050935700E49120FF40
:102F900003C0E295EF703F5FEF708E2F90E0EA3054
:102FA000C0F0C7968D939D932F5F243159F74FBF83
:102FB0008091E800877F8093E8006AE270E0CE01AC
:102FC00001960E94C7068091E8008B778093E80005
:102FD0001CC1C096E7CF8091010490910204432F59
:102FE00055274330510509F44AC078F54130510561
:102FF00009F485C08BE590E0E1EBF9E04230510542
:1030000009F003C12091E800277F2093E800209178
:103010000304309104048217930708F49C0140E0F4
:103020002115310509F070C041116EC08091E80092
:1030300082FDC9CF80910504882329F2853019F2D9
:103040008091E80083FFF2CFBECF4132510509F4F1
:1030500047C04232510509F0D8C08330910508F0CD
:10306000D4C0FC01EE0FFF1FE858FE4F0190F08125
:10307000E02D8B589E4FDC018C9190E01DC03327D2
:1030800021303105E9F02115310579F02230310583
:10309000F9F02330310509F0B8C0EEE1FAE0E4912F
:1030A0008E2F90E0EEE1FAE007C0EEE6FAE0E49160
:1030B0008E2F90E0EEE6FAE0009709F4A6C0A2CFCA
:1030C000E0E5FAE0E4918E2F90E0E0E5FAE0F4CF5D
:1030D000ECE3FAE0E4918E2F90E0ECE3FAE0ECCF41
:1030E0008330910508F091C0880F991FFC01E258C8
:1030F000FE4F0190F081E02D89E090E083CF82E1E6
:1031000090E0ECE0FAE07ECF80910504882309F49A
:103110005ACF853009F457CF8091E80083FD53CF13
:103120008091E80082FD82CF8091E80080FF78CF17
:103130009091F3008091F2002115310519F088304B
:10314000910550F041E0089709F040E08091E800D7
:103150008E778093E80064CF44914093F1003196DC
:10316000215031090196E8CF803809F04EC0809196
:10317000E800877F8093E8008091FC038093F10052
:1031800092CE811142C01091FF031230F0F5809170
:10319000E800877F8093E8001093FC030E941506E7
:1031A000112311F084E005C08091E30087FDFACF80
:1031B00081E08093050442E061EC81E00E943406E6
:1031C00042E261EC84E00E94340642E261EC82E07B
:1031D0000E94340642E260EC83E00E943406809153
:1031E000050413C08091FF03813079F481E09330AE
:1031F00009F080E08093FB031092E9008091E800E1
:10320000877F8093E8000E9415068091E80083FF85
:103210000AC08091E800877F8093E8008091EB00EE
:1032200080628093EB00AA960FB6F894DEBF0FBEC3
:10323000CDBFDF91CF911F910895882321F00E9487
:10324000660C0C94D8140895882339F090910704E3
:10325000982B909307040C94D8140895882321F098
:103260000E946D0C0C94D8140895882321F00E94BC
:10327000740C0C94D81408958823B1F19CEF980F26
:10328000913A70F4E8E8F1E09191891303C0DF010D
:1032900011971C9291E0EE38F907B1F70C94D8140D
:1032A00090E2980F983050F4877091E001C0990F28
:1032B0008A95EAF7892F0E946D0CF0CF9BE5980F55
:1032C000933020F490E080E00C94740798E5980F18
:1032D000973120F490E080E00C945E07803F20F06E
:1032E0000E94E0080C94B9080895CF93DF93EC0195
:1032F0000E943C19CE010E945A0D9E01205E3109A8
:103300002830310510F0CD2B21F4DF91CF910C94B2
:103310002E19DF91CF910C941D19CF93C82F8823BC
:1033200009F452C08CEF8C0F813AF8F4E8E8F1E030
:103330008EE891E0DF012D91C21759F08A179B07A3
:10334000D1F76C2F86E891E00E944407CF910C944E
:10335000D8142191C21303C0DF0111971C928E175C
:103360009F07B9F70E94D814ECCF80E28C0F883009
:1033700048F4C77081E001C0880FCA95EAF70E943F
:10338000740CE4CFEBE5EC0FE33040F4F0E0EC5DDF
:10339000FE4F808190E0CF910C947407E8E5EC0F2C
:1033A000E73150F4F0E0EE0FFF1FE95DFE4F808142
:1033B0009181CF910C945E07C03F30F08C2F0E941A
:1033C000FB09CF910C94B908CF9108951F93CF9327
:1033D000DF93182FC0918003D0918103893321F0AE
:1033E000C0917E03D0917F03812F0E948D19209779
:1033F00031F4812FDF91CF911F910C943C198FE90B
:103400009FE00197F1F700C000002197F0CF0F93E4
:103410001F93CF93DF93C42FD22FFC018281882387
:10342000A1F0409386030E94380790938503809310
:103430008403C77081E001C0880FCA95EAF7DF9165
:10344000CF911F910F910C9435191091860314138D
:1034500039C080918403909185030E9429072091AF
:103460007803309179038217930760F5C0E2CD0F9E
:103470001D17B9F080E2810F883040F4177081E0A9
:1034800001C0880F1A95EAF70E942E19C83048F437
:1034900081E09D2F977001C0880F9A95EAF70E94EE
:1034A0003519802F0E94E619C83098F4D77081E052
:1034B00001C0880FDA95EAF7DF91CF911F910F9144
:1034C0000C942E19C77081E001C0880FCA95EAF7E5
:1034D000F3CFDF91CF911F910F910895AF92BF92DB
:1034E000CF92DF92EF92FF920F931F93CF93DF93D0
:1034F000EC018AE0A82E2881222309F48CC0213017
:10350000C9F599818A81913021F422960E94E619A9
:1035100005C0923029F422960E948D192196EBCF96
:10352000933021F422960E943C19F8CF943011F088
:103530002196F4CF229630E020E0AE014F5F5F4F3E
:103540008053990B8A30910550F02150310930F3A6
:103550008FE99FE00197F1F700C00000F6CFA29E2F
:10356000B001A39E700D11249C01260F371F898185
:10357000EA01E3CFE22FF0E0E154FE4FB490822F56
:1035800086958695869590E0FC01E155FE4FE49086
:103590002770F12C022E02C0F594E7940A94E2F70A
:1035A00031E0E322FF24FC01E156FE4FC490D12C10
:1035B000022E02C0D594C7940A94E2F731E0C322E8
:1035C000DD24FC01E157FE4F049110E002C0159587
:1035D00007952A95E2F701701127E114F10419F01B
:1035E00081EE0E948D19C114D10419F086EE0E945B
:1035F0008D198B2D0E94E619CD2819F086EE0E94B8
:103600003C19EF2819F081EE0E943C19012B09F4B6
:1036100085CF8CE27BCFDF91CF911F910F91FF90EF
:10362000EF90DF90CF90BF90AF900895CF93DF934E
:10363000EC010E945A0D9E01205E310928303105AF
:1036400010F0209739F40E9435198C2FDF91CF911B
:103650000C948D190E942419F8CF662329F020912B
:1036600007042260209307049C013056211540E294
:10367000340720F0305E2115304108F499270C946E
:10368000161BDF92EF92FF920F931F93CF93DF935E
:103690007C018B01D42E8091190182FF8CC0C091D6
:1036A000D202D091D302CE15DF0521F0E114F1044E
:1036B00009F081C0809119018B7F8093190181FDF0
:1036C00073C08091D0029091D102A801481B590B80
:1036D00081E020911701309118014217530708F437
:1036E00080E08170F82E80911901F0FA81F98093C1
:1036F0001901FE0183E0F695E7958A95E1F7EE71F1
:10370000FF27E055FD4F20813181AE014F705527D5
:1037100081E090E002C0880F991F4A95E2F7FF20F0
:1037200009F444C0822B932B918380838091AF0254
:1037300081FF08C08091190180618093190182E0A6
:103740000E946D0C8091AF0285FF08C08091190125
:1037500080628093190180E20E946D0C6F2DCE0172
:103760000E942D1BDD2031F080917B0385FF02C07C
:1037700086FF3BC080917E0390917F030E94450E9F
:103780008091D2029091D3029C013056211540E2E3
:10379000340720F0305E2115304108F499270E944B
:1037A00075190E948A151DC081E09BCF8095909568
:1037B00082239323B9CFC70199279701305621154A
:1037C00040E2340728F0305E2115304108F0C7018F
:1037D0000E9475198091D2029091D3028E159F0597
:1037E00001F31093D1020093D002DF91CF911F918A
:1037F0000F91FF90EF90DF9008959F92AF92BF924C
:10380000CF92DF92EF92FF920F931F93CF93DF93AC
:1038100000D000D0CDB7DEB77C01DC0113964D910E
:103820005C91149711966C9111978C910E94960758
:10383000811178C061E0C7010E94E00F8C01F7019F
:103840008281811111C0D70112968C91811149C0DA
:103850000031FFE51F0709F416C101312FE51207FA
:1038600009F0DBC782E010C180910C0190910D013D
:10387000019649F379E8C72E73E0D72EB12CA12C1D
:103880009924939480910C0190910D018A159B05C8
:10389000D4F2F60186818823E9F0818592850817A4
:1038A000190739F480918703909188030817190745
:1038B00089F0D6011F969C921F971C961C930E931D
:1038C0001B97C6010E946915C60106960E94241521
:1038D00010920704BFEFAB1ABB0AE6E1CE0ED11C73
:1038E000D1CF980122513F452031310508F08BC7D7
:1038F0008FEF93E00E94E9366EEED62ED00E0BE7E6
:1039000012E0882359F18091F601877059F0F70190
:103910008281882339F08091110282FD03C082E008
:103920000E94E0150F900F900F900F90DF91CF91B4
:103930001F910F91FF90EF90DF90CF90BF90AF90CD
:103940009F9008950115F4E01F07E9F2C8010E9455
:10395000E936811101C0DA940F5F1F4FD110F2CF09
:1039600019821A821B821C8299249A9468012FEF73
:10397000C21AD20AC8010E94E93689831A828823B2
:1039800011F2813009F073C0580132E0A30EB11C6E
:10399000C6010E94E936C82E8A83882309F4B3CF72
:1039A000C5010E94E936D82E8FEF8C0D833068F464
:1039B000580143E0A40EB11CDB82DD2021F0CE01D2
:1039C00001960E946E1A8501D1CF8BEF8C0D83304A
:1039D00030F5C8010396DB825C01DD20A1F35801BC
:1039E00054E0A50EB11C0E94E9368C83882359F35C
:1039F0008B819C818130AFEF9A0710F0982F882738
:103A0000B6E0CB1631F0E7E0CE1631F00E94FA2B8B
:103A1000DACF0E94CA2BD7CF0E94442BD4CFF4E038
:103A2000CF12D1CF580124E0A20EB11CC8010396D9
:103A30000E94E936DD2009F466CF882309F463CFBC
:103A40008150990B989E9001999E300D11244D2D17
:103A50004150550BCA01820F931F019708F4B3CF51
:103A6000AFE9BFE01197F1F700C00000F6CFCE013B
:103A700001960E946E1A5601A6CF81E00E94191687
:103A80000E94C91540CF81E00E94D415F9CF82E091
:103A9000F5CF2FEFC216D10411F008F0CAC667E7C0
:103AA00072E08C2D0E948B11892B29F586E18C9D6B
:103AB000F0018D9DF00D1124E757FC4F8681813078
:103AC00009F062C08091770290917802892B99F079
:103AD0008091790290917A02892B69F080917B0222
:103AE00090917C0220917D0230917E02822B932B5B
:103AF000892B09F453C080910C0190910D018C1514
:103B00009D0524F4D0920D01C0920C01F701828131
:103B100096E19C9D50019D9DB00C11249501275765
:103B20003C4F6901D90150968C935097928116961B
:103B30008C911697992309F43FC01A961C930E9303
:103B400019978F5F16968C930E943807F601968717
:103B50008587809101028783809107049091AF024D
:103B6000892B80870190F081E02D309741F0D601BC
:103B700054966D917C91C50181579C4F0995109386
:103B800088030093870355C6823009F0B4CF809133
:103B90007B0290917C02892B09F4ADCF26E12C9D0C
:103BA000C0012D9D900D112487579C4FDC0150962C
:103BB0001C920E9469159FCF882309F43AC6F90127
:103BC0008189882309F435C6C50181579C4F0E941D
:103BD00024152FC68091190181608093190157C661
:103BE000809119018E7F809319010E948A154FC61A
:103BF000809119018F7E013E110531F0053E1105BE
:103C0000C9F4809119018F7D809319018091190168
:103C100080FF4CC6D70112968C910832110528F509
:103C20000E31110508F074C00430110580F58111C2
:103C300039C63CC6C8019056811540E2940720F071
:103C4000905E8115904110F78091190182FF2EC678
:103C500080917D0381FD2AC62EE132E040E0B6016D
:103C600090E080E00E94411B21C60933110558F401
:103C70000D32110518F40B321105C9F690917B0332
:103C800092FDD5CF08C004361105C1F3D0CF909175
:103C90007B0394FDCCCF882309F4A1C09091AF029F
:103CA00080910102282F292B322F3D7FB1F11092F4
:103CB000D3021092D20230917B0331FD2EC0F80165
:103CC00043E0F695E7954A95E1F7EE71FF27E05559
:103CD000FD4F98012F70332781E090E002C0880FDC
:103CE000991F2A95E2F78095909520813181822352
:103CF00093239183808360E0C8010E942D1B8091F3
:103D000001028D7F0E94520C82E00E94E015FBCDE3
:103D100090917B0393FD8BCFBECF38E0F701AEE1EE
:103D2000B2E001900D923A95E1F7109220021092C4
:103D3000220210922102A090D202B090D3020A1562
:103D40001B05B1F530917B0335FF32C0409119015D
:103D500041FB992490F841FF02C036FF29C04091F1
:103D6000D0025091D102B601641B750B40917803CB
:103D70005091790364177507D8F491FF08C08091BA
:103D8000190180618093190182E00E946D0C80917D
:103D9000AF0285FF08C080911901806280931901EC
:103DA00080E20E946D0C692DC5010E942D1BABCDD8
:103DB0009091190121FB91F9909319018D7F0E9437
:103DC000520C1093D3020093D202D092D102C0922F
:103DD000D0028091190184608093190195CF9701D9
:103DE00040E0B601C8010E94411B8DCD053F4CE566
:103DF000140709F469C008F461C0063F8CE5180790
:103E000009F468C0D70112963C91332309F46EC5BA
:103E1000109286030330BDE51B0708F067C00A3F18
:103E2000ECE51E0730F4C80182509C45449708F029
:103E300067C00E9407109093110280931002013115
:103E40003CE5130709F451C108F0CEC009305CE528
:103E5000150709F438C108F09BC005309CE5190727
:103E600009F429C108F081C00330BCE51B0709F43F
:103E700018C108F01CC180911002816002301C45FD
:103E800009F412C1609110021091110284E090E0D7
:103E90000E94FD36612F82E290E00E94FD360E9472
:103EA0003E1631CD07E225EE45EE68ED7CE519C5FD
:103EB00006E221EE40EE63EF7CE513C507E225EE56
:103EC00044EE64EF7CE50DC506E221EE42EE65EFBF
:103ED0007CE507C507E225EE46EE66EF7CE501C509
:103EE00008E221E045EE69ED7CE5FBC40136FDE525
:103EF0001F0709F49ECF053A2DE5120709F499CF63
:103F000006318CE5180709F0CBC18091AF02982FDC
:103F10009A7A20917A0320FF04C0482F447409F054
:103F200090E021FF04C0482F417109F090E022FF8A
:103F300004C0482F487809F090E023FF03C0827244
:103F400009F090E0332309F4FAC081E0911101C037
:103F500080E080938E0169E2911165E386E891E04B
:103F60000E9444070E94D814CECC80911002806237
:103F700007302CE5120709F497C080911002806188
:103F800008301C4508F490C08091100280648CC0F9
:103F9000809110028B7F0D304CE5140709F484C02A
:103FA00080F40B308CE5180709F493C0809110025F
:103FB0008C600C301C4508F477C0809110028D7F16
:103FC00073C0809110028F7E0F30ACE51A0709F4A0
:103FD0006BC080911002877F00311C4508F464C0DB
:103FE000809110028F7D60C00D3FECE51E0709F443
:103FF00078C050F505312CE5120709F480C098F41B
:1040000080911002837F03314CE5140709F44CC002
:1040100008F46FC00E943E1690911002892F97FB02
:1040200087F9805841C00B3F8CE5180709F447C059
:1040300008F053C08091110281600A3F1C4509F0CD
:1040400021CF809311021ECF0130BDE51B0709F47B
:1040500062C0B8F4809111028C7F0F3FFCE51F070E
:1040600081F380911102836001151D4550F3809109
:104070001102982F909591708E7F892B90FB81F97A
:10408000E0CF01363DE5130709F44BC0053A4DE595
:10409000140709F44DC002301D4509F0F3CE60E06D
:1040A0003BC080911002826080931002EBCE809121
:1040B00010028460F9CF809110028860F5CF809162
:1040C00011028260BECF0E943E168091100280686D
:1040D000EBCF809110028E7FE7CF809111028E7F0F
:1040E000B0CF809111028D7FACCF809110028F7B79
:1040F000DBCF0E943E16809110028F77D5CF809142
:10410000100282FB992790F921E0922790FB82F917
:1041100090FB83F9C9CF61E08EE090E00E94FD360C
:10412000B1CE90911002892F8F7E94FF8061BCCF19
:1041300090911002892F8E7F90FF8160B5CF809182
:104140008E0181110FC089E2E8E8F1E02EE831E04C
:104150009191891303C0DF0111971C922E173F071D
:10416000B9F700CF85E3F0CF073C4CE5140709F41D
:1041700078C008F471C0083C9CE5190709F476C0C2
:1041800041EB52E16DEB72E1093C1C4509F0CFC3F4
:104190000E940E08B8CB0F3CBCE51B0709F47DC09C
:1041A000A8F40C3CFCE51F0709F46FC008F468C0D4
:1041B0000D3C3CE5130709F46DC065E082E00E3C60
:1041C0001C4509F0B4C30E946A139DCB063D5CE513
:1041D000150738F4013D1C4508F095CB6EE089E0E9
:1041E000F2CF0D351D4509F48ECBA1C380916E022F
:1041F00080FF1BC08E7F80936E0260916E02709173
:104200006F0280917002909171020E944E12109282
:104210004902AFEFB0E7E2E0A150B040E040E1F783
:1042200000C000000E944F0E6ECB816080936E0232
:1042300061E086950E94151366CB47E553E160E681
:1042400073E1A6CF40E653E167E573E1A1CF41EE0C
:1042500052E16AEE72E19CCF4AEE52E161EE72E108
:1042600097CF49EC52E165ED72E192CF45ED52E115
:1042700069EC72E18DCF4DEB52E161EB72E188CFD9
:1042800043EF52E164E073E183CF44E053E163EF35
:1042900072E17ECF61E081E0CDCF68E086E093CF30
:1042A0000A35FDE51F0759F158F401153CE51307E0
:1042B000C9F00E3D1C4509F03AC30E94871323CB79
:1042C0000B355DE51507E9F00C351D4509F02FC3E9
:1042D0008091110282FB882780F991E089270E9452
:1042E000FC1525C30E943E169FEFA4E3BCE091504D
:1042F000A040B040E1F700C000000E94210E81E024
:10430000EECF80E0ECCFF70182810081118188231C
:1043100069F0C8010E946E0FD82E682FC8010E9454
:10432000F80CB8018D2D0E94520F08C3C8010E94DD
:10433000CB0CD82EF6CFE02FEF70BE2E802F807FD3
:1043400019F0B29490EFB922DD20A9F0BB2059F00A
:1043500080E2810F883010F0111107C08B2D0E9470
:10436000740C0E94D814812F5AC080910704B82A77
:10437000B0920704F6CF812F0E943C19BB2009F4AC
:1043800050C080E2810F883010F0111104C08B2DD5
:104390000E946D0C03C08B2D0E94660C0E94D814E5
:1043A00040C0F02FFF70BF2E802F807F803219F029
:1043B000B29480EFB822112321F1113009F4A6C084
:1043C000DD2009F4AFC0CC2009F47FC020E0D70184
:1043D0004C9111965C91119712966C9112971396CD
:1043E0007C91139714968C910E94B70F80917D0356
:1043F00081FDB9CFF701858180FFB5CF8F708583AF
:1044000064C08091110282FF42C0DD20D1F1BB2047
:1044100029F08B2D0E94740C0E94D81480E00E9419
:104420008D19A92DA850BB0B149720F40E948A0760
:104430000E94430D812F902F0E94280D8111C4C12D
:104440001092900110928F01AA20B1F08091F60194
:1044500080FD12C0D70112961C9285958595859591
:104460000E941916C7010E94FD1B8091F6018595D7
:10447000859585950E94D41560E0C7010E94E00FE4
:1044800051CA80E00E943C19BB2059F280CFDD2048
:1044900001F1C11004C0809101028B2917C021E0F5
:1044A000C21206C0809101028B290E94520CB9CF22
:1044B00080917C03823078F3C812EDCF0E94470CC4
:1044C0008091F301B812B092F3018B2D0E9435193F
:1044D000A8CFC11006C00E94470C8B2D0E942E1938
:1044E000A0CF80917C0331E0C3120BC0823008F46E
:1044F00098CF8091AF028B2109F493CF0E949B0C3F
:10450000EACF823040F3C812E6CF8BCF809182038E
:10451000DD2021F08C1508F484CFD7CFC81608F021
:1045200080CFDBCFCC20C9F28091800390918103B2
:10453000193321F080917E0390917F030E94450EF4
:10454000812F0E943C196DCF802F869586958370B0
:1045500069F0813009F065CF812F902F9370D110D1
:1045600002C090E080E00E945E075BCF812F902F19
:104570009370D11002C090E080E00E94740751CF88
:10458000812FDD2029F00E94FB090E94B90849CF44
:104590000E94E008FACF802F837091F5D11041CFAF
:1045A000412F429546954770440F440F812F8F70DD
:1045B000042E01C0880F0A94EAF7212F207114FFFE
:1045C00007C02FE030E001C0220F4A95EAF720959E
:1045D000302F369536953370323069F050F4409173
:1045E0000202313029F0822B84230E943A1619CF1F
:1045F000842B822BFACF282B809102028227F5CFC1
:104600008695DD2011F0802F8170882309F409CF71
:10461000412F429546954770440F440F812F8F706C
:10462000042E01C0880F0A94EAF7212F207114FF8D
:1046300007C02FE030E001C0220F4A95EAF720952D
:10464000302F369536953370323069F050F4409102
:104650000604313029F0822B84230E94C315E1CE59
:10466000842B822BFACF282B809106048227F5CF4A
:10467000F02FFF70BF2EDD2029F08F2F0E9419161A
:10468000812F24CF812F0E942E198B2D0E94D415AB
:10469000C8CE123F89F160F4103FB9F0113F81F0AC
:1046A000DD2009F48CC0C1105ECE802F8F7128C030
:1046B000133F49F1143FA1F78091110282FF2FC0EF
:1046C000802F8F71DD2011F31BC080918203DD20CC
:1046D00079F0C81608F0A5CE202F2F7181E090E068
:1046E00001C0880F2A95EAF7909106048927B5CF73
:1046F0008C1508F496CEF0CF802F8F71D110C6CFD5
:104700000E9419168ECE80E0DD2009F4A6CF81E04C
:10471000902F9F7101C0880F9A95EAF79ECF8091E4
:104720007C038230A0F18091F301DD20F1F00E9442
:104730006D0C8091F6018770843041F40E947A0CF0
:10474000802F8F710E94D415A12C6BCE80917C0399
:10475000C816D0F7202F2F71B22E822F0E94191663
:1047600063E08B2D0E942416EFCF0E94740C809181
:104770007C03C81640F00E947A0C0E949B0C64E0F7
:10478000802F8F71EFCF81E00E94E015DDCFDD201B
:1047900059F0302F3F71B32E832F0E94191663E01A
:1047A0008B2D0E9424163DCE81E00E94E01541E051
:1047B0004C1508F036CE82E00E94E01532CEC110D2
:1047C000B3CE802F8F7162CFDD2019F0C11038CEAB
:1047D0003BCEC11035CE20E0F7014081518162818E
:1047E000738184810E94B70F80917D0383FF28CE5F
:1047F00080918F0190919001029709F021CE812F35
:104800000E94E6191DCE0031BFE51B0709F435C92A
:104810000131EFE51E0709F43AC96801E7E5DE1A40
:10482000882309F436C9FFEFCF16D10409F008F444
:1048300062C980917B0380FF39C00E9438076C01F8
:10484000D70112968C91882309F4D2C9809119015D
:1048500082FF08C02EE132E040E0B60190E080E047
:104860000E94411B0B31BCE51B0709F4B3C90C3195
:10487000ECE51E0709F4B4C990911901892F8E7FC8
:1048800090FF81600A31FCE51F0709F4ACC9C8013B
:104890009056811520E2920728F0905E8115904194
:1048A00008F0B4C91092D3021092D202033FBCE5C3
:1048B0001B0709F4FDCA08F099CA083DFCE51F076B
:1048C00009F4F0CA093D2CE5120709F409CB073DAC
:1048D0003CE5130709F096CA06E221EE41EE67EDCA
:1048E0007CE5C7010E94071A0C94831C06314CE535
:1048F000140709F40ACB8091AF0282720A3C9CE54E
:10490000190709F4B8CC08F046CC053CBCE51B07F8
:1049100009F49DCC08F028CC033CFCE51F0709F402
:104920008CCC08F08FCC023C1C4509F45FCCD7013D
:1049300016968D919C91009709F4E5CC0E94BF0AD0
:10494000182F092FD7011296DC9012971596CC904C
:10495000C2943FE0C3228091F6018770C1F0AD2C74
:10496000DD20B1F0892F807F803421F080E2810F3B
:10497000883068F08091110282FD09C082E00E94B7
:10498000E0158091F6018770AA24A3948111A12CCF
:10499000902E92942FE09222BBE0B91508F441CDFD
:1049A000E92DF0E0EB5BF84C0C949936CF92DF9256
:1049B000EF92FF920F931F93CF93DF938091AE01FD
:1049C000807F31F48091AB01C091F20181110BC065
:1049D000DF91CF911F910F91FF90EF90DF90CF90DB
:1049E00008952196C7708091B1018C1789F3F090DA
:1049F000A901E090AA01C090AC01D090AD01A60140
:104A00006E2D8F2D0E949607D0E08111EACF8E0186
:104A100083E0000F111F8A95E1F7F801EE54FE4F75
:104A200081818E11DECF80818F11DBCF8281811158
:104A3000D8CFE380F480EC18FD0860E089EA91E0CB
:104A40000E94E00F8091780390917903E816F906AF
:104A500040F68091AE018F7080618093AE01F801C5
:104A6000E954FE4F80818F708061808389EA91E0F4
:104A70000E94FD1BDF91CF911F910F91FF90EF904E
:104A8000DF90CF900C94C10C3F924F925F926F9247
:104A90007F928F929F92AF92BF92CF92DF92EF92CE
:104AA000FF920F931F93CF93DF93CDB7DEB7659738
:104AB0000FB6F894DEBF0FBECDBF8C0185E0F801C4
:104AC000DE01519601900D928A95E1F7D8014C9044
:104AD00011965C9011971296EC9012971396CD90C8
:104AE000DC9060E089EA91E00E94E00F89EAA82E5C
:104AF00081E0B82E8090AC019090AD01A40160914E
:104B0000AA018091A9010E9496078111CAC1F09063
:104B1000AB01F601E819F9094F0160E0FF2009F443
:104B20006DC1C5010E94E00F609078037090790319
:104B30003090AE018614970408F013C14091AC0187
:104B40005091AD01B090A901A090AA01832D807F62
:104B50006A2D09F0ADC08B2D0E949607FE2C8111A5
:104B60003BC0D80111968C9111978A1135C08C9158
:104B70008B1132C02091AF013091B00116968D910A
:104B80009C912817390741F5E11026C0832D8F70BD
:104B900080618093AE0189EA91E00E94FD1B8091C3
:104BA000AE01F80185838F2D65960FB6F894DEBFB0
:104BB0000FBECDBFDF91CF911F910F91FF90EF906E
:104BC000DF90CF90BF90AF909F908F907F906F902D
:104BD0005F904F903F900895F4EF6F16F1E07F06DD
:104BE00020F480917D0380FF21C0A601652D842DD6
:104BF0000E949607811118C081E08E2580FF16C0A3
:104C00004E2D652D842D0E94A10C882379F089EA10
:104C100091E00E94FD1B88E0E9EAF1E0DF011D92CE
:104C20008A95E9F7F12CBFCF80E0E8CFA601652D8A
:104C3000842D0E949607811124C081E08E25B82F13
:104C4000B170CB2E80FF2BC04E2D652D842D0E9480
:104C5000A10CD82E811123C0498A5A8A89899A8940
:104C60000E949D0F292F22952F70223060F0243052
:104C700088F49F7061F0F8019581907F41F4FD2CDC
:104C800092CF80E0DCCF9F7011F08823C1F3805E6B
:104C90008830A8F3C8010E94FD1BDC2CF0CFEE2069
:104CA00009F481CF8091AE0181608093AE01BACFCB
:104CB0008B2D0E949607811124C0D80111968C91EA
:104CC00011978A111EC08C918B111BC02091AF01CE
:104CD0003091B00116968D919C911797281739073E
:104CE00081F4E1100EC015963C92C8010E94FD1B94
:104CF00088E0F801A9EAB1E001900D928A95E1F708
:104D000052CFC8010E94A90F882339F1EE2029F162
:104D10008091AE018032A0F02091A9013091AA01CA
:104D20003A8729871B86DD86CC868E878091AF01E6
:104D30009091B001988B8F87CE0109960E94FD1B40
:104D400088E0F801A9EAB1E001900D928A95E1F7B7
:104D50000E94D624FF24F39426CFC8010E94FD1B95
:104D6000F9CF832D807F09F452CF9090A9018090D4
:104D7000AA014091AC015091AD01682D892D0E948E
:104D8000960781111CC0F8018181881118C08081AB
:104D9000891115C02091AF013091B00186819781B2
:104DA0002817390761F4E1100AC03582C8010E9452
:104DB000FD1B88E0D5011D928A95E9F7F4CEC80164
:104DC0000E94A90F882349F2EE2039F28091AE01AA
:104DD000803208F4B5CF2091A9013091AA013A831D
:104DE00029831B82DD82CC828E838091AF019091DA
:104DF000B00198878F83CE010196A0CF89EA91E018
:104E00000E94E00F809178039091790388169906AB
:104E100080F6FE2CEE2009F4A0CFE090A901D090FE
:104E2000AA014091AC015091AD016D2D8E2D0E94D3
:104E30009607811128C0F80181818D1124C08081DD
:104E40008E1121C02091AF013091B00186819781F0
:104E500028173907C1F480917D0382FD49CF9091D5
:104E6000AE0190FD45CF907F09F442CF8091AE0115
:104E70008583903F09F439CF982F907F905F8F7092
:104E8000892B858332CFC8010E94A90F811158CF89
:104E90008091AE0181608093AE01C8010E94FD1B2C
:104EA00082CEEE2009F459CFC8010E94A90FF82E36
:104EB000882309F452CF88E0F801A9EAB1E0019013
:104EC0000D928A95E1F78091A9019091AA010E9423
:104ED0009D0F0E94D62467CECF93DF93CDB7DEB768
:104EE00060970FB6F894DEBF0FBECDBF29873A8713
:104EF0004B875C876D877E878F87988BCE0109965D
:104F00000E94442581112FC088E0FE013996DE0100
:104F1000119601900D928A95E1F74C855D856A8521
:104F200089850E94960781111EC0A091B101B0E051
:104F3000CD010196877099272091F2012817190653
:104F400009F193E0AA0FBB1F9A95E1F7AE54BE4F4B
:104F500098E0FE01319601900D929A95E1F78093C9
:104F6000B1010E94C10C8091F2019091B1018913AD
:104F700017C060960FB6F894DEBF0FBECDBFDF91AD
:104F8000CF9108950E943E161092B1011092F20145
:104F900088E0E9EAF1E0DF011D928A95E9F7E3CFC5
:104FA000B8E08B9FC00111248E549E4F0E9444256F
:104FB0008823F9F28091F20190E001968770992799
:104FC0008093F201D0CFEF92FF920F931F93CF9374
:104FD000DF938091D702882361F0C091D6028CE0E4
:104FE000F82E8091D702C81758F01092D70210926D
:104FF000D602DF91CF911F910F91FF90EF9008950E
:10500000EE24E394EC0EE092D6020C2F10E0CF9D3C
:10501000E0011124C852DD4F4B815C816981888198
:105020000E94960781111DC08E819F81892B21F4DA
:1050300088859985019651F4288139814A815B815F
:105040006C817D818E819F810E946C27F09EF00192
:10505000F19EF00D1124E852FD4F1482138210923C
:105060000704CE2DBECF10925F0310925E03109204
:105070001A0180915D0380935C030E94CF070C941A
:10508000E3273F924F925F926F927F928F929F920F
:10509000AF92BF92CF92DF92EF92FF920F931F9346
:1050A000CF93DF93C0915C0397E0892E01E010E07D
:1050B0002CE0322E3EEF932E4424439480915D03E6
:1050C0008C1315C00E94E327DF91CF911F910F91A0
:1050D000FF90EF90DF90CF90BF90AF909F908F9018
:1050E0007F906F905F904F903F900C94CF07D0E0EF
:1050F000FE01EE0FFF1FEC5AFC4F80819181889ECC
:10510000D001899EB00D1124A85CBC4F14962C913F
:105110001497211157C05090D702E8EDF2E030E02B
:1051200020E0712C5D01251508F04AC0E284F3846B
:10513000D501CD90DC906FEF7FEF612C462D50E0D4
:10514000DA01AA0FBB1FAC0DBD1D0D90BC91A02DA7
:10515000109731F0EA16FB0609F4BA016394EECF1A
:105160006F3F7607A1F1D80102C0AA0FBB1F6A9555
:10517000E2F77A2AB80102C0660F771F6A94E2F755
:10518000AB014150510974161506F9F4329EF00135
:10519000339EF00D1124E852FD4F889ED001899E68
:1051A000B00D1124A85CBC4F12962D913C91139721
:1051B00037832683908291829187808715964C92BF
:1051C0000E94A1072196C37079CF148213822F5FAA
:1051D0003F4F3C96A8CF2F923F924F925F926F9293
:1051E0007F928F929F92AF92BF92CF92DF92EF9277
:1051F000FF920F931F93CF93DF93CDB7DEB76997DD
:105200000FB6F894DEBF0FBECDBF942F498B252F6C
:105210005A8B6B8B7C8B8D8B4C895D89622F892F90
:105220000E949607811109C080918F019091900191
:1052300001969093900180938F018B898111109238
:1052400007041D861E861F86188A85E0FE0171965A
:10525000DE01199601900D928A95E1F78091110275
:1052600082FD1EC08091620390916303892BC1F07F
:105270000E9438072091F4013091F501821B930BB5
:1052800020916203309163038217930720F080918D
:10529000F60182FFF5C10E94810C81110E94470C2A
:1052A0004C855D856A8589850E949607811111C0AC
:1052B00061E0CE0109960E94E00F6C018B8527EF1B
:1052C000C2162CE5D20681F4882321F181E0809377
:1052D0001A0129853A854B855C856D857E858F858C
:1052E00098890E946C27C5C038EFC3163CE5D306E9
:1052F00029F4882379F00E943328EBCF49EFC416B4
:105300004CE5D40639F4882329F080911A018111E3
:10531000F2CFDCCF08E313E0512CB12CA12C2224D6
:105320002394312C2EEF422EF801408151818824A4
:105330008A94982C20E0822F90E0FC01EE0FFF1F52
:10534000E40FF51F608171816115710531F0C6169A
:10535000D70609F44C012F5FEECFF12CFFEF8F162B
:105360009F0609F448C0F8014481F0901A018F2D7E
:10537000411180E0F82FF170FF2EF801E580868161
:105380009B85992309F40CC1FF2009F409C16090A1
:10539000760370907703E11012C0A10101C0440FA1
:1053A0008A94EAF7842B86838091D4029091D50267
:1053B0008615970520F47092D5026092D402C1013F
:1053C00002C0880F991F2A95E2F70197F8012681FC
:1053D0002817190681F480915E0390915F0300976E
:1053E00009F460C00E9429076816790608F05AC0BF
:1053F00021E0F80124835F28FFEFAF1ABF0A095F9D
:105400001F4F24E0A216B10409F08ECF8B858823AC
:1054100009F421C1552009F41EC10E943807909358
:105420005F0380935E038091D702883010F591E08E
:10543000980F9093D70298E0FE013996DE011196FD
:1054400001900D929A95E1F73CE0839FC0011124F1
:1054500088529D4F28E0FE013196DC0101900D92AB
:105460002A95E1F72FEF3FEFFC0131872087D386A4
:10547000C28669960FB6F894DEBF0FBECDBFDF912E
:10548000CF911F910F91FF90EF90DF90CF90BF9041
:10549000AF909F908F907F906F905F904F903F90D4
:1054A0002F90089580915C0350915D03982FF0E058
:1054B000E0E0851314C090935C03E017F10709F452
:1054C0009ACF90E0FC01EE0FFF1FEC5AFC4FB18227
:1054D000A08201968370992780935D038CCF682EFC
:1054E000712CF301EE0FFF1FEC5AFC4F208131812C
:1054F00047E0429FD001439FB00D1124A85CBC4FF0
:105500006D917C911197798F688F40E020E030E0B9
:10551000E32FF0E0EE0FFF1F688D798DE60FF71F88
:105520008080918081149104E1F0F8010190F08174
:10553000E02DFF8BEE8B20E005C08616970609F460
:105540004F2D2F5FE22FF0E0EE0FFF1F6E897F8956
:10555000E60FF71F608171816115710571F73F5F7B
:10556000D7CF4423D1F0F801231708F0FD0121E043
:1055700024830E171F0721F490935C03F42E3BCF76
:10558000981305C0AE17BF0711F49F5F9370930186
:105590002F5F3F4F822F83708CCFF0E0E0E0F7CF9A
:1055A00090E0E1101FC0B10102C0660F771F2A957D
:1055B000E2F79B01215031098217930731F444230C
:1055C00009F447C0C5010E94A107C10101C0880FAD
:1055D0008A94EAF7982F9095F8018681892386832B
:1055E000FE2C09CF9C01082C02C0359527950A9402
:1055F000E2F7A90141705527BC016150710986236A
:105600009723892B11F5452B01F1F80182819381B4
:10561000892BC1F01B821C821D821E8249824A8214
:105620000E9438078160582F9D838C83F801828106
:1056300093818F83988729813A814B816D817E8107
:105640000E946C27F8011582C0CFF22FF170EF2E67
:10565000BCCFEF2CBACF90915C0380915D0398177B
:1056600031F00E944128552009F433CE02CF0E9428
:10567000E32710925F0310925E030E94CF07F3CFDF
:1056800082E00E94E01507CECF93DF9300D000D0D8
:105690000F92CDB7DEB79093AC028093AB02811529
:1056A00020E2920748F40F900F900F900F900F9008
:1056B000DF91CF910C9475198EEF89838A831B82B9
:1056C0000E9438078160782F9D838C8349815A819D
:1056D0006B818D810F900F900F900F900F90DF9145
:1056E000CF910C94EB280F931F93CF93DF938C01F2
:1056F000EB0167E772E08C2F0E948B11892BA1F4DC
:1057000080917E0390917F030E94450EDD27CD5846
:10571000DD4F8881F80110821882833009F148F446
:10572000813059F0823081F0DF91CF911F910F913C
:1057300008958430D1F08530B9F780917702909147
:105740007802009789F306C08091790290917A02DD
:10575000009799F3DF91CF911F910F910C94442BF7
:1057600080917B0290917C02F3CF80917D02909199
:105770007E02009779F7209177023091780280912C
:10578000790290917A0221153105D9F2009711F72B
:10579000C901E0CFCF93DF9300D000D00F92CDB7F7
:1057A000DEB79093AC028093AB02811520E29207A2
:1057B00048F40F900F900F900F900F90DF91CF91C2
:1057C0000C94161B8EEF89838A8381E08B830E9461
:1057D00038078160782F9D838C8349815A816B8142
:1057E0008D810F900F900F900F900F90DF91CF91C0
:1057F0000C94EB28CF93DF93EC010E94CA2B80918D
:105800007E0390917F030E94450ECE01DF91CF91E0
:105810000C94442B0F931F93CF93DF938C01862F0F
:1058200067E772E00E948B11892BC9F4C09177025F
:10583000D0917802209799F0F8018081833069F443
:10584000CE010E94FA2BCE010E94FA2BCE01DF91ED
:10585000CF911F910F910C94FA2B8430B8F7DF9100
:10586000CF911F910F9108950F931F93CF93DF93C3
:105870008C01EB0167E772E08C2F0E948B11892B62
:1058800009F064C0FE01FF27D8018C91ED58FD4F4F
:105890008130D9F419969C911997992311F080833E
:1058A0000CC01A969C919923D1F382E08083809159
:1058B000790290917A020097D9F4809177029091C1
:1058C0007802009709F442C013C08230E9F51996B6
:1058D0008C91199781112DC01A968C9181110EC04F
:1058E00083E0808380917B0290917C02009719F184
:1058F000DF91CF911F910F910C94CA2B84E080838C
:1059000080917D0290917E02009791F780917702BD
:10591000909178020097F9F00E94FA2B8091790219
:1059200090917A02009721F7809177029091780206
:10593000DFCF85E080838091770290917802009795
:1059400029F00E94FA2BF0CF86E08083DF91CF917F
:105950001F910F9108958091790290917A02B1CFB1
:1059600090E080E00E94F736893E9E4F11F40C943F
:10597000EE0F80E008951F920F920FB60F92112440
:105980002F933F934F935F936F937F938F939F9347
:10599000AF93BF93CF93DF93EF93FF93D091E90041
:1059A000DF708091EC00C82FC17080FDC0E81092BC
:1059B000E9008091F000877F8093F00078940E9446
:1059C00049161092E9008091F00088608093F00001
:1059D000CD2BCF70C093E900FF91EF91DF91CF9174
:1059E000BF91AF919F918F917F916F915F914F91F7
:1059F0003F912F910F900FBE0F901F9018951F92FF
:105A00000F920FB60F9211242F933F934F935F93F2
:105A10006F937F938F939F93AF93BF93EF93FF9376
:105A20008091E10082FF09C08091E20082FF05C001
:105A30008091E1008B7F8093E1008091DA0080FF0C
:105A400024C08091D80080FF20C08091DA008E7F32
:105A50008093DA008091D90080FF9DC080E189BDEC
:105A600082E189BD09B400FEFDCF81E08093050489
:105A70008091EF03811109C00E9473050E946606A0
:105A80008091E20084608093E2008091E10080FFD9
:105A900017C08091E20080FF13C08091E2008E7FEA
:105AA0008093E2008091E20080618093E200809127
:105AB000D80080628093D80019BC85E080930504EB
:105AC0008091E10084FF2BC08091E20084FF27C019
:105AD00080E189BD82E189BD89B5982F917080FFF1
