:100000000C94E8040C9420050C9420050C94200515
:100010000C9420050C9420050C9420050C942005CC
:100020000C9420050C9420050C941A320C94D631B3
:100030000C9417330C9420050C9420050C94200587
:100040000C9420050C9420050C9420050C9420059C
:100050000C9420050C94F3320C9420050C9420058C
:100060000C9420050C9420050C9420050C9420057C
:100070000C9420050C9420050C9420050C9420056C
:100080000C9420050C9420050C9420050C9420055C
:100090000C9420050C9420050C9420050C9420054C
:1000A0000C9420050C9420050C94200505010902F0
:1000B000A10185020901A100050919012905150001
:1000C00025019505750181029501750381010501E1
:1000D000093009311581257F950275088106093897
:1000E0001581257F950175088106050C0A380215D2
:1000F00081257F950175088106C0C005010980A191
:1001000001850319012AB700150126B7009501756D
:10011000108100C0050C0901A101850419012AA064
:1001200002150126A002950175108100C00660FF2E
:100130000961A1010962150026FF0095207508815B
:10014000020963150026FF00952075089102C0057D
:10015000010906A101050719E029E7150025019508
:1001600008750181029501750881010507190029AB
:10017000FF150026FF009506750881000508190186
:100180002905950575019102950175039101C0003E
:10019000000000000000000000000000000000005F
:1001A000000000000000000000000000000000004F
:1001B0000000007E0F00D4FFFFFFC70000007800A2
:1001C000000000000000002A2B28000000000000B2
:1001D0000000000000000000000029000000002CCA
:1001E0001E3420212224342627252E362D37382769
:1001F0001E1F202122232425263333362E37381F75
:100200000405060708090A0B0C0D0E0F1011121336
:100210001415161718191A1B1C1D2F3130232D35D4
:100220000405060708090A0B0C0D0E0F1011121316
:100230001415161718191A1B1C1D2F3130354C6454
:100240003214783C1EFD377A585A000004E6D6B4C2
:10025000460200210116000000742FE5A3E009CB3F
:1002600002305D003D8889C65436C3174FE4E2A7CB
:100270003DAC73831FB1E521EA73C5596CF951C8D0
:10028000925CE0C5B726F35756C948B21384F8BC50
:10029000892941DA845EFABA7397F7A0A8986F3E6D
:1002A000D4C24301AB849A7684D1523A4EBCE24424
:1002B000193FBEABB36E0AEA7A7961EFDF5AF753A2
:1002C000EECF5A567F4C3E9BAC29320504C54308FD
:1002D00073C427B4E555C646224A7FF747801758AE
:1002E0003CF03F309685665B5D93843D09AFFE250B
:1002F000E747A71E95A5FD8CF6AAEBCFBCD96ADD12
:10030000695352DA52697097298F44442C75C6E7B5
:100310000C2C1D4CE30EB41D0005CEEDB9B586C7FF
:10032000345F58AC7C55A418319183FCBFAC76ED9A
:10033000DFCBA016E110D303D05769461D410E1D37
:10034000D17E9E8B533F7D9AE777FB4B72545E7B49
:10035000FB0F44E1F0EBF4D425D34ABF9169DA975F
:10036000FC32E8E2041DBE3FD669B958D7FA52C73D
:10037000DDFDB5D151E4F6E722A62D0C7F9C72D8A5
:1003800031165737387B48674B237E208959B0AEEA
:10039000624875DD231073BDC072DCE3CC33581D99
:1003A000D213A95391D593D6223A59893515E4979A
:1003B0000A47AFBBEE198B0E85A24FE15A26313E9C
:1003C000E230AC4661566974966418A9391E6774A8
:1003D0002AE64F32854A67B9E3FF6104CC706E4E5E
:1003E0006BFACAB3AE0E1B6236B6D4DFEC7393E67B
:1003F000F91C5496810077F0FEFD52A75994D9FB61
:1004000010A5A747B59CD24B78E81AF6156F9293C2
:10041000861D7C414CC80925F5921AC08C52782B58
:100420005EAE716CFC640217D7D19F947CCED6115E
:10043000904FC13ED7677C98FD21118B15E900EBE9
:100440006298166ADA2BF10D1122E59CBFE17FDB81
:10045000A2945BB7DA9C4A4C80E92CD90613A88099
:100460004525585B17290C8D37981B72318CEE3F50
:10047000C2334A74052887865211E5F61DE1FAA6B3
:10048000A33525B8A8F7EC3E57C12ED6BCDBD084E7
:100490008A35449B00B72E7F697D0A40410001CC1C
:1004A00004CC13000045E00472B1C467FB020000F5
:1004B000000004595A00010101010101010101027A
:1004C0000202020202020202030303030303030304
:1004D00004040404040404050505050506060606CF
:1004E00006070707070708080808090909090A0A8B
:1004F0000A0B0B0B0C0C0C0D0D0D0E0E0E0F0F0F2F
:1005000010101111111212131314141515161617B9
:1005100017181819191A1A1B1B1C1D1D1E1E1F2027
:1005200020212222232424252626272829292A2B74
:100530002C2D2D2E2F303132323334353637383999
:100540003A3B3C3D3E3F4041424344454647484993
:100550004A4C4D4E4F50515354555658595A5B5D65
:100560005E5F616264656668696B6C6D6F70727303
:100570007577787A7B7D7E8082838587888A8C8E6A
:100580008F91939596989A9C9EA0A2A3A5A7A9AB9C
:10059000ADAFB1B3B5B7BABCBEC0C2C4C6C9CBCD8E
:1005A000CFD1D4D6D8DBDDDFE2E4E7E9EBEEF0F340
:1005B000F5F8FAFDFFFFAA7F554001000100010098
:1005C0000100010001000100010001000100010023
:1005D0000100010001000100010001000100010013
:1005E0000100010001000100010001000100010003
:1005F00001000100010001000100010001000100F3
:1006000001000100010001000100010000000100E3
:1006100000000100010001000100010001000100D3
:1006200001000100010000000000000000000000C7
:1006300000000100010001000100010001000100B3
:1006400001000100010001000100010001000100A2
:100650000100010001000100010001000100010092
:100660000100010001000100010001000100010082
:100670000100010001000100010001000100010072
:100680000100010000000100000001000100010064
:100690000100010001000100010001000100000053
:1006A0000000000000000000000001000100010047
:1006B0000100010001000100010001000100010032
:1006C0000100010001000100010001000100010022
:1006D0000100010001000100010001000100010012
:1006E0000100010001000100010001000100010002
:1006F00001000100010001000100010000000100F3
:1007000000000100010001000100010001000100E2
:1007100001000100010000000000000000000000D6
:1007200000000100010001000100010001000100C2
:1007300001000100010001000100010001000100B1
:1007400001000100010001000100010001000100A1
:100750000100010001000100010001000100010091
:100760000100010001000100010001000100010081
:100770000100010000000100000001000100010073
:100780000100010001000100010001000100000062
:100790000000000000000000000001000100010056
:1007A0000100010001000100010001000100010041
:1007B0000100010001000100010001000100010031
:1007C0000100010001000100010001000100010021
:1007D0000100010001000100010001000100010011
:1007E0000100010001000100010001000000010002
:1007F00000000100010001000100010001000100F2
:1008000001000100010000000000000000000000E5
:100810000000010001007504A110D41000000200C6
:1008200002007104A110D41000000300010076043E
:10083000A110D4100000040002005B04A110D41029
:100840008C08050001007704A110D41000000600F8
:1008500002005D04A110D410000007000200730420
:10086000A110D4100000080001007804A110D410D9
:100870000000090002005F04A110D41067080A00FC
:1008800002006104A110D41067080B000200630489
:10089000A110D41067080C0002006504A110D41048
:1008A00067080D0002006704A110D41067080E004D
:1008B00002006904A110D41067080F0002006B0445
:1008C000A110D4106708100002006D04A110D4100C
:1008D0006708110002006F04A110D410670812000D
:1008E00002007904A110D4100000130002007B0460
:1008F000A110D4100000140001007D04A110D41038
:100900000000150000000000E407EA1A00000902D8
:100910005B00030100A0FA090400000103010100CB
:10092000092111010001224000070581030800018F
:100930000904010002030000000921110100012245
:1009400022000705820320000107050303200001A0
:100950000904020001030000000921110100012225
:10096000810007058403200001120100020000003D
:1009700008444B724D0100010203011C037600691B
:100980000061006C003A00660036003400630032FB
:1009900000620033006300000012034D006F006E20
:1009A000006F007200610069006C0000001C034BC6
:1009B0000069007300650072002000440065007348
:1009C00000690067006E0073000000040309040062
:1009D00011241FBECFEFDAE0DEBFCDBF04B603FEA9
:1009E00018C08091030590910405A0910505B09170
:1009F00006058730904BA740B04B59F41092030581
:100A0000109204051092050510920605E0E0F8E347
:100A1000099511E0A0E0B1E0E0E0F9E702C005903F
:100A20000D92A839B107D9F725E0A8E9B1E001C0D6
:100A30001D92A330B207E1F70E943E330C94533C61
:100A40000C940000E8EDF0E080818E7F80831092AE
:100A5000E2001092DA001092E100A0EEB0E08C917A
:100A600081608C9380818F77808319BCA7EDB0E083
:100A70008C918E7F8C9380818F7E80831092EA048C
:100A800008952091E4003091E50095E6A9012091B8
:100A9000EC00822F817020FF06C08091E80080FF6B
:100AA00006C080E008952091E80022FD1AC08091E0
:100AB000F704882389F0853089F08091EB0085FD6B
:100AC0000FC02091E4003091E50042175307F9F27E
:100AD0009150E1F684E0089582E0089583E008955E
:100AE00081E00895EF92FF920F931F93CF937C01C3
:100AF0008B010E944105C82F811117C08091E80029
:100B000085FD0BC08091E8008E778093E8000E94FD
:100B10004105882399F3C82F08C0F70181917F010F
:100B20008093F1000150110949F78C2FCF911F914B
:100B30000F91FF90EF9008958091F90487FF13C003
:100B40008091E80082FF06C08091E8008B77809357
:100B5000E80004C08091F7048111F2CF08958091DC
:100B6000F7048823D9F38091E80080FFF8CF8091C3
:100B7000E8008E77ECCF982F9093E900242F762F02
:100B800050E0891731F07091EC002091ED00509108
:100B9000F00021FD07C09F5F973071F78093E90057
:100BA00081E008953091EB003E7F3093EB0030916F
:100BB000ED003D7F3093ED003091EB0031603093DC
:100BC000EB007093EC002093ED005093F000209127
:100BD000EE0027FDE0CF80E00895CF92DF92EF9204
:100BE000FF920F931F93CF93DF93C8EDD0E08881DE
:100BF0008F7E8883E7EDF0E080818160808384E0F0
:100C000082BF81E08093EA0488818E7F888302EE30
:100C100010E0F80110821092DA0081EEC82ED12C7B
:100C2000F601108288818F77888388818068888325
:100C300088818F7D888319BC1092F7041092F80484
:100C40001092F6041092F50490EEE92EF12CF701C3
:100C500080818B7F808388818160888342E060E02F
:100C600080E00E94BB05F60180818E7F8083F801C1
:100C7000808181608083808188608083F7018081AA
:100C80008E7F8083888180618883DF91CF911F91DF
:100C90000F91FF90EF90DF90CF900895FC0180912D
:100CA000FF049091000586179707A0F06115710564
:100CB00029F49091E8009E779093E80090E0611508
:100CC000710551F4911108C08091E80082FF34C091
:100CD00080E00895BC01F2CF8091F7048823C1F130
:100CE0008530C1F18091E80083FD30C08091E8003B
:100CF00082FDEACF8091E80080FFE1CF8091F30090
:100D00002091F200382F6115710519F02830310556
:100D100058F091E02830310509F090E02091E8008A
:100D20002E772093E800CBCF81918093F100615022
:100D300071092F5F3F4FE7CF8091F704882341F07F
:100D4000853041F08091E80083FFBECF81E00895B7
:100D500082E0089583E0089508958091EC04089559
:100D60009C014FB7F8948091E3049091E404A09122
:100D7000E504B091E6044FBF821B930B08952FB793
:100D8000F8946091E3047091E4048091E5049091FB
:100D9000E6042FBF08952FB7F8948091E304909153
:100DA000E404A091E504B091E6042FBF08959C01EE
:100DB000FC0132969FEF80E04191461751F09F3F32
:100DC00019F4411101C0982F8F5F8630A9F79F3F1A
:100DD00009F40895290F311D97FD3A95F9016283B1
:100DE00008952091E0043091E1042817390771F04B
:100DF0009093E1048093E004E091DE04F091DF043D
:100E0000309721F00084F185E02D09940895209118
:100E1000DC043091DD042817390771F09093DD046C
:100E20008093DC04E091DE04F091DF04309721F040
:100E30000680F781E02D09940895E091DE04F09199
:100E4000DF04309721F00190F081E02D099480E0DB
:100E50000895CF93DF93EC014091500450915104D9
:100E600060915204709153042FB7F8948091E30479
:100E70009091E404A091E504B091E6042FBF841B97
:100E8000950BA60BB70B843F9140A105B10518F552
:100E90008091500490915104A0915204B091530458
:100EA00080934C0490934D04A0934E04B0934F0450
:100EB00084EF91E0A0E0B0E080934804909349046F
:100EC000A0934A04B0934B04D0935804C0935704A2
:100ED000DF91CF9108950E94BF0660934C047093F8
:100EE0004D0480934E0490934F0482E390E0A0E081
:100EF000B0E0E2CFFC018481862351F492819923F2
:100F0000B9F06923808583FF05C081E061110FC0BE
:100F100080E00895892F8F7092959F70982B862F6F
:100F20008F7062956F70682B81E09613F1CF0895F2
:100F300081E0FDCF452B39F0682381E06F3F09F058
:100F400080E08170089581E0FCCFDC016091440471
:100F500080914504962F891301C00895292F30E010
:100F6000F901EE0FFF1FE45CFB4F408151814A17EE
:100F70005B07A1F487E08A9FA0018B9F500D11248D
:100F80004C5F5B4F81E0FA0184839613E6CF2F5FBD
:100F90003F4F237033272093440408952F5F3F4F22
:100FA000922F9370D8CF1092A1031092A003E4E087
:100FB000F4E08581811102C014821682379684E0A4
:100FC000EC33F807B1F70895AF92BF92CF92DF925A
:100FD000EF92FF920F931F93CF93DF938FEF9FEFCB
:100FE0004430510508F468C04091790341FB8827DB
:100FF00080F990E0880F991F42FB002700F910E06C
:10100000000F111F000F111F802B912B40FBCC24D0
:10101000C0F8D12C8C299D2943FB222720F9C22F0F
:10102000E0E0DE2F53E0CC0FDD1F5A95E1F78C2B6B
:101030009D2B44FBAA27A0F9B0E0E4E0AA0FBB1F58
:10104000EA95E1F78A2B9B2B45FBEE27E0F9F0E0D0
:10105000A5E0EE0FFF1FAA95E1F78E2B9F2B46FB15
:10106000222720F930E0B6E0220F331FBA95E1F7CE
:10107000822B932B47FB222720F930E03695322F25
:10108000222737952795822B932B20917A03322F95
:101090003170F32EF92A26952170B22EBB0CA82EA2
:1010A000BF28C501BB0CAA0BBB0BFB01808391833E
:1010B000A283B38390E080E0DF91CF911F910F91E5
:1010C000FF90EF90DF90CF90BF90AF900895EBE549
:1010D000F4E0848195812AE030E0B9010E948B3BE5
:1010E0006093230186818093220182858093210170
:1010F00084858093200186859785B9010E948B3B6A
:1011000060931F01808980931E01828980931D0155
:10111000848980931C01089580915B0490915C0404
:101120009093250180932401089581152CE5920761
:1011300041F420911A0130911B01232B11F490E00E
:1011400080E00895FA01811101C0FB01099408951E
:1011500080918702982F9E7F29F48170826080930E
:10116000870208958A32E8F381708862F8CFAF92DF
:10117000BF92DF92EF92FF920F931F93CF93DF9373
:10118000082F162FE901E42FF0E0EB54FB4F61111B
:1011900010C0E4915E2F4E2F4983E8835A83DF917C
:1011A000CF911F910F91FF90EF90DF90BF90AF9084
:1011B0000895E62EF12C4491D42EE42FF0E026E0A1
:1011C000829FC00111242FEF30E0B9010E948B3BB8
:1011D000802F90E0880F991F55E5569FD001579FAB
:1011E000B00D11248A1B9B0B982F990F890F590161
:1011F000AE18BF08AE9ED001AF9EB00DBE9EB00D22
:1012000011245B2F189F80011124012F11275901F0
:10121000A01AB10AAE9E8001AF9E100DBE9E100DA9
:1012200011245901A81AB108AE9CC001AF9C900DC1
:10123000BE9C900D1124892F9927281B390B2E9FB6
:10124000C0012F9F900D3E9F900D1124E92F623019
:101250007105A1F050F46115710509F49DCF61305D
:10126000710581F0EB2F512F97CF6430710569F034
:1012700080F06630710509F48FCFF4CFE42F4B2F47
:10128000592F8ACFE42F412F87CFEB2F542F492F8F
:1012900083CF4B2F5D2DE12F7FCF0E94CB069C018A
:1012A0009091570280915802982B21F0309354026C
:1012B000209353029091590280915A02982B21F069
:1012C0003093520220935102E091DE04F091DF044A
:1012D000309749F082E0809355020480F581E02D3B
:1012E00085E592E00994089590915702803F59F462
:1012F0008091580287FF0DC01092580291110BC0C7
:1013000010924F0208C0813F81F480915802181654
:101310009CF3992381F08091590290915A02892B74
:1013200009F064C010924E020895823F49F497FF7D
:10133000F0CF10925702809158028111ECCFE0CF8C
:10134000833F19F41916ACF3E4CF20915902893F79
:1013500029F41216F4F610925902DBCF8A3F19F4E1
:1013600027FFD7CFF8CF20915A028B3F29F427FFD0
:10137000D0CF10925A02CDCF8C3F19F41216CCF375
:10138000C8CF843F31F4809156028E7F80935602FD
:10139000C0CF853F21F4809156028D7FF7CF863FE5
:1013A00021F4809156028B7FF1CF873F21F4809109
:1013B0005602877FEBCF883F21F4809156028F7EC3
:1013C000E5CF8D3F31F4809150028E7F80935002A3
:1013D000A0CF8E3F21F4809150028D7FF7CF8F3FB9
:1013E00009F097CF809150028B7FF0CF08958091C4
:1013F000500280FF0CC060911D0170E075956795EB
:10140000759567956115710549F1862F089581FFDE
:1014100006C060911D0170E075956795F3CF6091EE
:101420001D0182FD0BC090914E029923A1F06091A5
:101430001C0180911D01961738F0682F70E060380C
:10144000710500F38FE70895899FC001112470E0B2
:101450000E949F3BF4CF61E070E0D7CF81E0089518
:1014600080915002609163047091640480FF16C003
:1014700020912101269FC001279F900D1124BC01BE
:1014800076956795769567956038710508F043C045
:101490006115710509F441C0862F089581FF0BC0C5
:1014A00020912101269FC001279F900D1124BC018E
:1014B00076956795E9CF82FF09C0809121019B0154
:1014C000829FB001839F700D1124DECF20914F02C7
:1014D0002223D1F29091200180912101482F50E0E8
:1014E000291748F0CB01849FB001859F700D949F10
:1014F000700D1124C9CF289F90011124269FA001AF
:10150000279F500D369F500D1124692F70E0CA019E
:101510000E948B3BB9CF8FE7089581E00895803F0B
:1015200031F40E94300A8195809358020895813FDA
:1015300019F40E94300AF8CF823F31F40E94300A39
:101540008195809357020895833F19F40E94300AD1
:10155000F8CF893F29F40E94F70980935902089532
:101560008A3F21F40E94F7098195F7CF8B3F31F430
:101570000E94F709819580935A0208958C3F19F4CF
:101580000E94F709F8CF843F31F4809156028160C0
:10159000809356020895853F21F48091560282601F
:1015A000F7CF863F21F4809156028460F1CF873FC8
:1015B00021F4809156028860EBCF883F21F480911E
:1015C00056028061E5CF8D3F31F4809150028160F9
:1015D0008093500208958E3F21F4809150028260E2
:1015E000F7CF8F3FB9F7809150028460F1CF80E050
:1015F0000895F894E82FE295EF70F0E031A1282FDC
:101600002F7081E090E001C0880F2A95EAF7982FAB
:101610009095932391A392A1892B82A37894089506
:101620009091790392FF06C0282F28712830F9F491
:10163000877F846093FF06C0282F28712831F1F43A
:10164000877E846120917A0320FF06C0382F38718D
:101650003830D9F4877F816021FF06C0282F287198
:101660002831D1F4877E816194FD877E0895282FEB
:1016700024712430F9F68B7F8860DCCF282F247109
:10168000243101F78B7E8861DDCF382F3171313005
:1016900019F78E7F8860E0CF282F2171213121F743
:1016A0008E7E8861E1CFCF93DF93EC018238910584
:1016B000A9F1D8F58133910509F496C048F589322E
:1016C000910509F48AC08A9709F495C0C11521E5EE
:1016D000D20708F0BCC0C11530E5D30708F014C12B
:1016E000C83ED10508F09CC0C03ED10560F5C83A9F
:1016F000D10508F087C0C53AD10508F0FDC0C1305A
:10170000D10509F12097F9F0C430D105E0F440C0CB
:101710008533910509F45AC0C997C1F680917903C0
:10172000837089F0C0EED0E00EC0833E910599F140
:1017300070F4803E910501F1823E910539F6809169
:10174000790382FD21C0CE01DF91CF910895863EBD
:10175000910561F1873E910571F1843E910509F093
:10176000B5CF80917A0381FFEECF80917903C7EEE8
:10177000D0E084FD0DC0E7CF8091790380FD12C1D8
:1017800090917A0390FFDFCFC3EED0E084FFDBCFF0
:10179000D0E0C0E0D8CF8091790382FD06C190915E
:1017A0007A0390FDBFCF84FFCECFF2CF8091790333
:1017B00083FDDDCFC8CF8091790383FDF9C090917F
:1017C0007A0391FFF0CFC4EED0E0BDCF80917903D2
:1017D00085FFB9CFC9E2D0E0B6CF8091790385FF0C
:1017E000B2CFC5E3D0E0AFCF8091790386FFABCF16
:1017F000CAE2D0E0A8CF8091790386FFA4CFC1E3ED
:10180000D0E0A1CFCF3BD10518F6C85AD0E0CC0F1D
:10181000DD1FCC5CDE4F0990D881C02DD46493CFFE
:10182000C11540E2D40758F4C11581E0D80708F08B
:101830008ACFC03FD10508F4ABCFD06584CFC115A6
:1018400090E4D90708F4A4CFDF70D06A7CCFC1152B
:1018500025E5D20700F5C11534E5D30708F08AC0A5
:10186000C11543E5D40708F071C0C11582E5D8075A
:1018700008F467C0CE018370992721E030E002C0F0
:10188000220F331F8A95E2F7C695C69580E2C89F5E
:10189000E001112452C0C11599E5D907A8F4C1157A
:1018A00028E5D20708F06BC0C11536E5D30708F06C
:1018B0006FCF8C2F0E94100BC82FD0E0DC2FCC27CD
:1018C000CC27DF71D0623FCFC1154AE5D40708F4B9
:1018D0005BC0CE0190568115904208F059CF8D2FF4
:1018E0008F710E94100B90E0982F882788279F7196
:1018F0009C012C2BE901E6CFC55AD0E0CF5CDE4F2E
:10190000C881D0E0D0641FCFCE01E4E096958795E2
:10191000EA95E1F783702C2F26952695237040E2F7
:10192000249F90011124382B8C2F8370C1E0D0E0CC
:1019300002C0CC0FDD1F8A95E2F7C22BD32BDC68E7
:1019400002CFDC2FCC27C16FD06AFDCECE018370D1
:10195000992721E030E002C0220F331F8A95E2F779
:10196000C695C69590E2C99FE0011124C22BD32BE6
:10197000DA68E9CEDC2FCC27C46FD06AE4CEDC2F46
:10198000CC27C06FD06ADFCE8C2F8F700E94100BD7
:1019900034E0D695C7953A95E1F7CF709C2FEC01CE
:1019A000D069D1CEC9E3D0E0CECEC2EED0E0CBCE6E
:1019B000C6EED0E0C8CE80911A02882331F0109292
:1019C0001A0210921902109218020895CF93C82F8C
:1019D00080917A0382FD0CC080911A028C1741F02D
:1019E0000E94CB069093190280931802C0931A02AA
:1019F000CF910895809590910205982390930205C8
:101A00000895809590917B03982390937B0308958C
:101A100090917B03892B80937B03089510920F0292
:101A200010920E0210920D02089580915D04909123
:101A30005E04892B89F00E94CB0620911802309118
:101A40001902AC01421B530B81E020915D043091DF
:101A50005E044217530708F480E081700895809176
:101A60000C02811110920C020895ECE9F1E09191C1
:101A7000891303C0DF0111971C9291E0E23AF90744
:101A8000B1F7089520910B029091CA01291302C069
:101A900080E0089530E0F90153E0EE0FFF1F5A9502
:101AA000E1F7E553FE4F5181561306C0508158139C
:101AB00003C05281541304C02F5F3F4F2770E6CFFD
:101AC00081E0089580910B029091CA01981301C0A2
:101AD00008958F5F8770FACF9E3F49F1E82F2CE081
:101AE000929FE00D11249E2F9770E695E695E6955E
:101AF00083E0E89FF0011124E655FE4F50E040E0FE
:101B000080E0219130E0092E02C0369527950A9495
:101B1000E2F721703327042E01C0220F0A94EAF75E
:101B2000822B4F5F5F4F4330510559F7089580E096
:101B300008959E3F69F1E82F2CE0929FE00D11245B
:101B40008E2F877041E001C0440F8A95EAF7E69531
:101B5000E695E69583E0E89FF0011124E655FE4FF7
:101B600030E020E070E05191DF011197CB01022EAF
:101B700002C0969587950A94E2F781708195852732
:101B8000842385278C932F5F3F4F2330310559F7EE
:101B9000089592959F70963091F058F4925F9F70DF
:101BA000923058F4803F19F030F4883E30F481E0F0
:101BB00008959A5FF4CF843FD1F380E00895883E82
:101BC000B0F3813FD1F7F3CF81FD02C08C9A089525
:101BD0008C980895982F92959F7011F0892F94E01A
:101BE000282F2695269511F09E5F822F869509F065
:101BF0009F5F892F08959C013A9521153F4150F52B
:101C0000FC01EE27F170BC0166277270AC0144271D
:101C100054709C012227387094FF0EC080E1EF2B96
:101C200009F480E0672B09F08062452B09F080649D
:101C3000232B89F08068089581E0EF2B09F480E080
:101C4000672B09F08260452B09F08460232B19F083
:101C50008860089580E00895CF93C82F0E94EA0D10
:101C6000823039F0833051F0813051F4889A89986C
:101C700002C08898899A8C2FCF910895889AFACFBC
:101C80008898F5CF8093E7047093E9046093E804A3
:101C90008091F7048430F9F48093E9008FEF9091FC
:101CA000E800815095FD06C095ED9A95F1F700008A
:101CB0008111F5CF8091E80085FF0DC050E040E034
:101CC00063E070E087EE94E00E9472058091E80086
:101CD0008E778093E8000895BC0184E00C94420E56
:101CE000BC0183E00C94420E9C0184E08093E900E7
:101CF0009FEF8091E800915085FD06C085ED8A95A3
:101D0000F1F700009111F5CF8091E80085FF0CC03C
:101D100050E040E066E070E0C9010E9472058091E9
:101D2000E8008E778093E8000895CF93DF93EC016D
:101D300081E08093E9008FEF9091E800815095FD5C
:101D400006C095ED9A95F1F700008111F5CF8091CD
:101D5000E80085FF14C050E040E068E070E0CE018C
:101D60000E9472058091E8008E778093E80088E0F9
:101D7000FE01ADEEB4E001900D928A95E1F7DF919E
:101D8000CF91089581E08093E00080E28093D800B5
:101D90001092C9008FE19EE40197F1F700C00000A6
:101DA00087E090EBDC018093030590930405A093FA
:101DB0000505B093060588E19CE00FB6F894A89558
:101DC000809360000FBE90936000FFCF019708F4EE
:101DD0000895EFE9FFE03197F1F700C00000F6CF7A
:101DE0008091870280FD0AC0E3E6F2E01182108252
:101DF0001282339652E0E738F507C1F7209A35B1E1
:101E00003E7F25B121604FB7F89483E692E0FC0154
:101E10005191CF0168E025B9000000C057FF35B9E6
:101E2000550F000000C000C000C035B900C06A9561
:101E300091F7F2E087389F0751F74FBF8FE594E0A5
:101E40000197F1F700C000000895EF92FF921F93F1
:101E5000CF93DF93EC0183E6E82E82E0F82E10E0CA
:101E60008C81970140918A0260918902810F0E94C2
:101E7000B7081B5E83E0E80EF11C1C3F89F70E9447
:101E8000F00E9A818C8190FF08C08F5F8C83DF9168
:101E9000CF911F91FF90EF9008958150F7CF9091CF
:101EA000870290FF0CC0E3E6F2E081836083428307
:101EB000339692E0E738F907C1F70C94F00E0895D5
:101EC0000F931F93CF93DF9300D00F92CDB7DEB760
:101ED0008C018091870280FF10C09E012F5F3F4FD1
:101EE00040918A0260918902F80184810E94B708BA
:101EF0004B8169818A810E944F0FF80184818F5F35
:101F000084830F900F900F90DF91CF911F910F91CD
:101F100008950F931F93CF93DF930BE514E0CFE762
:101F2000D2E0CE010E94033CF80181938F012196FB
:101F3000C33AF2E0DF07A9F7CCE1D8E0FE018591D2
:101F40009491009711F0FC0109952C96F9E0C831A5
:101F5000DF07A1F7DF91CF911F910F9108950F93A4
:101F60001F93CF93DF93853030F5653020F54C30EB
:101F700010F5C42FD0E0CC0FDD1F28E1629FC00D0B
:101F8000D11D112438E7839FC00DD11D1124CE012E
:101F900087960E94033C082F10E0102F0027CE01E7
:101FA00088960E94033C9801282BC901DF91CF91AC
:101FB0001F910F91089590E080E0F8CF462F209177
:101FC000770330917803232B91F47E3F39F46E3FF1
:101FD00071F480917503909176030895853038F4FB
:101FE000753028F46C3018F4672F0C94AF0F90E024
:101FF00080E00895CF92DF92FF920F931F93CF93CB
:10200000DF936C010091010580911B02082BC7E052
:10201000D0E010E0FC2EC8010C2E02C095958795EB
:102020000A94E2F780FD0CC02197A0F7F12C8F2DC8
:10203000DF91CF911F910F91FF90DF90CF90089586
:10204000B6018C2F0E94DE0F0E94530B019761F3A3
:10205000EECFCF93DF93EC010E94FA0FBE010E94F6
:10206000DE0FDF91CF910C94530BFC018681978199
:10207000009721F00E94530B0C94C90D808191812F
:102080000E942910F9CF1F93CF93DF9300D000D087
:102090000F92CDB7DEB749835A8389819A8166232F
:1020A000B9F02223A9F00E94FA0F182F682F898116
:1020B0009A810E94990D69817A81812F0F900F90EA
:1020C0000F900F900F90DF91CF911F910C94DE0F26
:1020D0000E946C0D182FEFCFFC01262F868197816F
:1020E000009739F4408151816281738184810C941D
:1020F0004310089583E290E00E94033C883989F4FC
:1021000084E290E00E94033C8F3E59F485E290E027
:102110000E94033C91E08B3E09F090E0892F817092
:10212000089580E0FCCFCF9384E090E00E94033CD0
:10213000C82F82E290E00E94033C982F8C2FCF9111
:102140000895DB01FC013296259134914217530723
:1021500058F0FC01349665917491A901CD010E945B
:10216000E33B90E080E008958FEF9FEF08950F9399
:102170001F93CF93DF930BE514E0CFE7D2E0CE01BE
:102180000E94033CF80161918F01681719F0CE019C
:102190000E94173C2196C33AF2E0DF0781F7DF91F6
:1021A000CF911F910F910895DA019C012E5F3F4F4F
:1021B000F90145915491F90125913491A217B30782
:1021C00058F0FC013496859194910E94E33B0E9463
:1021D000B71090E080E008958FEF9FEF0895CF93C0
:1021E000DF93CBE6D3E060E0CE010E94173C21965E
:1021F000C11584E0D807B9F7DF91CF9108950F9307
:102200001F93CF93DF938901853048F5653038F50A
:102210004C3028F521153C4531F420911A013091BC
:102220001B01232BE1F0C42FD0E0CC0FDD1F98E180
:10223000699FC00DD11D112498E7899FC00DD11D44
:102240001124612FCE0187960E94173C602FCE018A
:102250008896DF91CF911F910F910C94173CDF91DD
:10226000CF911F910F910895CF93C82F6FEF8111D8
:1022700068E983E290E00E94173C6FEFC1116FEEB6
:1022800084E290E00E94173C6FEFC1116BEE85E293
:1022900090E0CF910C94173CCF93C92F682F84E026
:1022A00090E00E94173C6C2F82E290E0CF910C945A
:1022B000173C9B01843070F49AE0899FB00111248F
:1022C0006D557D4F4AE050E0C9010E94F33B90E01C
:1022D00080E008958FEF9FEF08958F929F92AF92C5
:1022E000BF92CF92DF92EF92FF920F931F93CF9303
:1022F000DF93CDB7DEB72A970FB6F894DEBF0FBED7
:10230000CDBF04E814E0F12CE12C85E2C82E81E376
:10231000D82E9FE4A92E91E3B92E2EE8822E20E339
:10232000922EF801D182C082B382A28295828482E9
:10233000F58AE48ABE016F5F7F4F8E2D0E9459118E
:10234000892B29F489859A85F801938B828BFFEF7D
:10235000EF1AFF0A0A5E1F4F84E0E816F10409F73E
:102360002A960FB6F894DEBF0FBECDBFDF91CF9196
:102370001F910F91FF90EF90DF90CF90BF90AF90A3
:102380009F908F9008958F929F92AF92BF92CF921D
:10239000DF92EF92FF920F931F93CF93DF93CDB70E
:1023A000DEB72A970FB6F894DEBF0FBECDBF0DEF94
:1023B00012E08BEEC82E82E0D82E9BE1E92E93E04E
:1023C000F92E27E0922E3AEEA32E32E0B32E882487
:1023D0008394D6010D931D936D014AE050E0B7013F
:1023E000CE0101960E94F33BF8013896DF01892D5A
:1023F0001D928A95E9F789819A81D80111969C935B
:102400008E938F8112968C9312978D8113968C9355
:102410001397888514968C931497898515968C93B9
:1024200015978B819C8117969C938E93169718967F
:102430001C9218978A8587FF4BC01E961C921E928D
:102440001D9780FF03C0D80118968C9281FF04C0AD
:10245000F80190859260908782FF07C0D801189696
:102460009C911897946018969C9383FF04C0F80180
:1024700090859860908784FF07C0D80118969C913A
:102480001897906118969C9385FF04C0F801808589
:1024900080628087015F1F4FFAE0EF0EF11C8BE630
:1024A000E81683E0F80609F094CF2A960FB6F89460
:1024B000DEBF0FBECDBFDF91CF911F910F91FF9077
:1024C000EF90DF90CF90BF90AF909F908F90089546
:1024D000F801B686A586B5CFCF92DF92EF92FF9234
:1024E0000F931F93CF93DF93CDB7DEB72A970FB625
:1024F000F894DEBF0FBECDBFEAE9F2E080E5DF0170
:102500001D928A95E9F7E4E0F4E088E3DF011D928B
:102510008A95E9F78AE9C82E82E0D82E7F010BEC74
:1025200012E0F701D182C0824AE050E0B801CE014A
:1025300001960E94F33B88E0FE013196D60101909E
:102540000D928A95E1F789859A85D70113969C9318
:102550008E931297BAE0CB0ED11CE7E0EE0EF11C81
:10256000065F1F4F0B31F3E01F07D9F62A960FB60F
:10257000F894DEBF0FBECDBFDF91CF911F910F91B9
:10258000FF90EF90DF90CF900895CF92DF92EF927F
:10259000FF926B017C010E94A808B701A60188E0A8
:1025A00090E0FF90EF90DF90CF900C94293C5F92E9
:1025B0006F927F928F929F92AF92BF92CF92DF9253
:1025C000EF92FF920F931F93CF93DF9300D00F9260
:1025D000CDB7DEB7182F762E042F622E809187029A
:1025E00080FF29C0E82FE695AE2FB0E0AD58BE4F72
:1025F0009C91909361028E7F823081F59E012F5FC6
:102600003F4F812F0E94B7084B8169818A810E94C8
:102610004F0F109388027092890200938A026620FD
:1026200051F06091870270918802809189029091A7
:102630008A020E94C5120F900F900F90DF91CF91E8
:102640001F910F91FF90EF90DF90CF90BF90AF90D0
:102650009F908F907F906F905F900895923019F4C3
:1026600010918802D6CF9530D9F39B3091F6EB507C
:102670008E2F8170582EE695F0E0EB54FA4FA5901E
:10268000B490BB2483E6E82E82E0F82ED12CC12C36
:102690009CE0892E912CC601B4010E948B3B812FB6
:1026A000511013C0860F9701402F672D0E94B70865
:1026B000CA0CDB1C83E0E80EF11C87E8E81682E018
:1026C000F80649F70E94F00EA4CF861BECCFE7E88E
:1026D000F2E0438128E0421B08F440E021E06281FF
:1026E00081810C94D712E7E8F2E0438128E0420FA1
:1026F00008F44FEF21E0628181810C94D712E7E862
:10270000F2E0628128E0621B08F460E021E043818E
:1027100081810C94D712E7E8F2E0628128E0620F31
:1027200008F46FEF21E0438181810C94D712E7E830
:10273000F2E0818121E04381628188500C94D712BC
:10274000E7E8F2E0818121E043816281885F0C94B7
:10275000D71280918B02882319F0815080938B02CD
:1027600060918702709188028091890290918A021B
:102770000C94C51280918B02833018F48F5F809384
:102780008B026091870270918802809189029091FA
:102790008A020C94C5129091870290FF3DC09170FF
:1027A000811129C0926090938702662351F0609155
:1027B0008702709188028091890290918A020E941A
:1027C000C51260918702669570E04BE050E08FE0A3
:1027D00091E00E94C93B892BA9F01092620281E02E
:1027E00080935E0220E040918A026091890280918C
:1027F00088020C94D712853110F09862D4CF880FDC
:10280000982BD1CF81E0809362020E94CB069093F7
:102810005C0280935B02E3CF0895809187028695E6
:10282000815009F484E161E00C94CB13809187021C
:1028300086958F5F853108F081E061E00C94CB13C1
:102840009091870290FF07C09695981720F09617F1
:1028500010F40C94161461E00C94CB13E7E8F2E04A
:1028600083E0808311828FEF82838383148260816F
:102870007181828193810C94C5128F929F92AF9245
:10288000BF92CF92DF92EF92FF920F931F93CF935D
:10289000DF93CDB7DEB72A970FB6F894DEBF0FBE31
:1028A000CDBF8E010F5F1F4F8AE0F80111928A950C
:1028B000E9F792E6E92E91E0F92E6801AA24A394A3
:1028C000B12CF70181917F018F3F09F446C0F89444
:1028D000E82FE295EF70F0E021A18F70A50102C012
:1028E000440F551F8A95E2F7CA01922F982B91A3A6
:1028F00092A18095892382A3789400C0E7E6F1E055
:1029000021E030E0912C812C41914F3F09F481C0AE
:10291000A42FA295AF70B0E090968C9190E04F708C
:1029200002C0959587954A95E2F780FD72C0C9016E
:10293000882A992A220F331F51E0E337F50721F740
:10294000F701319780818F3F11F00E94F90A80EAE8
:102950008A95F1F7F60191828082F2E0CF0ED11CC8
:1029600047E6E41641E0F40609F0ABCF4AE050E058
:10297000B8018FE192E00E94D63BFF24F3940097C8
:1029800009F4F12C892B09F447C08AE0F801AFE182
:10299000B2E001900D928A95E1F781E080931E02EA
:1029A0000E94CB0690931D0280931C0280911C0212
:1029B00090911D020E94B006059790F180911F0230
:1029C00090912002909345028093440280912102CD
:1029D00090912202909347028093460280912302B5
:1029E000909124029093490280934802809125029D
:1029F0009091260290934B0280934A028091270285
:102A00009091280290934D0280934C0210921E02E6
:102A100007C090E080E08CCF80911E028111C6CF6C
:102A20008F2D2A960FB6F894DEBF0FBECDBFDF9173
:102A3000CF911F910F91FF90EF90DF90CF90BF90BB
:102A4000AF909F908F90089580917B0390910205A5
:102A5000892B80939A0180911A02882309F1809131
:102A60005D0490915E04892B29F00E94150D81115F
:102A70000E94DB0C80919A0190911A02892B80931D
:102A80009A0120E08CE991E0FC013191CF013111F4
:102A90002F5FF1E0823A9F07B9F721110E94DB0C0A
:102AA00080915404809590919A01892390915504C6
:102AB000892B80939A0148E050E060E172E08AE956
:102AC00091E00E94D63B892BA9F088E0EAE9F1E089
:102AD000A0E1B2E001900D928A95E1F7E091DE0469
:102AE000F091DF04309731F00280F381E02D8AE924
:102AF00091E009940895EF92FF920F931F93CF9363
:102B0000DF93EC018A85811134C0EB80FC8087E57E
:102B1000F81A26E12E9DC0012F9D900D1124DC0195
:102B2000AC57BB4F1496ED91FC911597309731F04F
:102B300054966D917C9186579B4F099586E18E9DA9
:102B400080018F9D100D11240C571B4FF8018781B8
:102B50000E94010DF80180850E94FA0C0E94241544
:102B6000188219861B861E821D8210928304109281
:102B70008204DF91CF911F910F91FF90EF90089504
:102B8000CF93DF93EC018989811118C081E0898B93
:102B90008F810E94080D809102059885892B809372
:102BA00002050E942415EA81FB81309739F06C8977
:102BB0007D89CE010696DF91CF910994DF91CF9167
:102BC000089580912601877F8093260182E00E94EC
:102BD000FA0C8091260184FF06C08F7E8093260127
:102BE00082E00E94080D8091260185FF06C08F7D3E
:102BF0008093260180E20E94080D0C94241590E039
:102C000080E00E94070790E080E00E94F1061092A9
:102C100002050E94241586E0E5E5F2E0DF011D9241
:102C20008A95E9F710924F0210924E0210925002CC
:102C30000C944D090E942C0E809301050C94FF15F5
:102C400080910105982F9670963019F488600C9445
:102C50001A16877FFCCF21E030E001C0220F8A9551
:102C6000EAF720958091010582230C941A16909121
:102C70000F028095892380930F02282F277091F4EB
:102C8000282F082E000C330B9217130659F0909141
:102C90007A0392FD07C08595859585950E942B1630
:102CA0000C940E0D089590917A0392FB222720F93F
:102CB000281769F080FB92F990937A038091790349
:102CC00090917A030E944C1182E00C94371608957B
:102CD00021E030E001C0220F8A95EAF780910105DA
:102CE000822B0C941A1690917A0392FD10C098E0F2
:102CF000899F90011124622B60930F020E94681635
:102D00000E94CB0690930E0280930D0208950C94BE
:102D1000681680931B020C94FF1510927B03ECE95C
:102D2000F1E086E0DF011D928A95E9F70C94FF152A
:102D30001F93CF93DF93CDB7DEB7AA970FB6F89462
:102D4000DEBF0FBECDBF89EF94E02091F100DC0122
:102D50002D93CD01B5E081309B07B9F78091FA043E
:102D6000833009F472C0B8F4813009F449C082306C
:102D700009F4B3C08091E80083FF96C28091F90402
:102D80009091FA049A3008F08FC2E92FF0E0EB5AE4
:102D9000F34C0C94B33B8A3009F48EC08B3009F4A9
:102DA00071C0893039F78091F904813219F7809127
:102DB000FD049091FE04009711F00297D9F68091DE
:102DC000E800877F8093E8008091E80082FF38C0A8
:102DD0009091F3008091F200029731F48091F1001C
:102DE000813011F0863021F48091F1008093EC0461
:102DF0008091E8008B778093E8000E949C05BACF11
:102E00008091F904813A09F0B5CF8091E800877F7D
:102E10008093E8008091FD049091FE04892B61F479
:102E200068E08DEE94E070E00E944E068091E8002C
:102E30008B778093E8009ECF60E090E080E0F3CF56
:102E40008091F7048111C0CF95CF8091F904813A28
:102E500009F090CF8091FD049091FE04892B09F038
:102E600089CF8091E800877F8093E8008091E80017
:102E700080FFFCCF809128018093F1008091E800D1
:102E80008E77B9CF8091F904813209F073CF8091A8
:102E9000FD049091FE04892B09F06CCF8091E8002D
:102EA000877F8093E8000E949C058091FB048093BB
:102EB00028010E948D165ECF8091F904813209F0BD
:102EC00059CF8091E800877F8093E8000E949C059D
:102ED0008091FC048093EB044DCF8091F904813AFA
:102EE00009F048CF8091E800877F8093E8008091C7
:102EF000E80080FFFCCF8091EB04BECF803899F0D2
:102F0000823809F0D1C18091FD048F70873008F0BC
:102F1000CBC18093E9008091EB0085FB882780F985
:102F20001092E90006C08091F5049091F604911189
:102F300082609091E800977F9093E8008093F10081
:102F40001092F1008091E8008E77AAC1882309F4DD
:102F500098C1823009F0A8C18091FB0481119BC106
:102F60008091FD048F702FEF280F263008F09CC150
:102F70008093E9002091EB0020FF8DC1933031F464
:102F80008091EB0080628093EB0085C19091EB0013
:102F900090619093EB0021E030E001C0220F8A9510
:102FA000EAF72093EA001092EA008091EB00886033
:102FB000EACF811179C11091FB041F778091E30062
:102FC0008078812B8093E3008091E800877F809355
:102FD000E8000E949C058091E80080FFFCCF809172
:102FE000E30080688093E30082E0111183E0809326
:102FF000F7045AC18058823008F056C12091FB0472
:103000003091FC042C3DE3E03E07A1F583E08A8388
:103010008AE289834FB7F894DE01139620E03EE000
:1030200051E2E32FF0E050935700E49120FF03C0FA
:10303000E295EF703F5FEF708E2F90E0EA30C0F0C6
:10304000C7968D939D932F5F243159F74FBF809181
:10305000E800877F8093E8006AE270E0CE01019685
:103060000E944E068091E8008B778093E8001CC197
:10307000C096E7CF8091FD049091FE04432F552721
:103080004330510509F44AC078F54130510509F43F
:1030900085C08BE590E0EEE0F9E04230510509F0A3
:1030A00003C12091E800277F2093E8002091FF04CE
:1030B000309100058217930708F49C0140E0211528
:1030C000310509F070C041116EC08091E80082FDA9
:1030D000C9CF8091F704882329F2853019F28091B5
:1030E000E80083FFF2CFBECF4132510509F447C05B
:1030F0004232510509F0D8C08330910508F0D4C0A0
:10310000FC01EE0FFF1FE557FE4F0190F081E02D0F
:1031100088579E4FDC018C9190E01DC033272130F1
:103120003105E9F02115310579F022303105F9F04A
:103130002330310509F0B8C0EBE7F9E0E4918E2FB8
:1031400090E0EBE7F9E007C0EBECF9E0E4918E2FBB
:1031500090E0EBECF9E0009709F4A6C0A2CFEDEA0D
:10316000F9E0E4918E2F90E0EDEAF9E0F4CFE9E99F
:10317000F9E0E4918E2F90E0E9E9F9E0ECCF8330BB
:10318000910508F091C0880F991FFC01EF56FE4F82
:103190000190F081E02D89E090E083CF82E190E022
:1031A000E9E6F9E07ECF8091F704882309F45ACF4D
:1031B000853009F457CF8091E80083FD53CF80918B
:1031C000E80082FD82CF8091E80080FF78CF909167
:1031D000F3008091F2002115310519F08830910536
:1031E00050F041E0089709F040E08091E8008E77C8
:1031F0008093E80064CF44914093F10031962150D0
:1032000031090196E8CF803809F04EC08091E8007E
:10321000877F8093E8008091F8048093F10092CE3C
:10322000811142C01091FB041230F0F58091E8004A
:10323000877F8093E8001093F8040E949C05112377
:1032400011F084E005C08091E30087FDFACF81E0B2
:103250008093F70442E061EC81E00E94BB0542E20A
:1032600061EC84E00E94BB0542E261EC82E00E94D6
:10327000BB0542E260EC83E00E94BB058091F7044D
:1032800013C08091FB04813079F481E0933009F020
:1032900080E08093F6041092E9008091E800877F37
:1032A0008093E8000E949C058091E80083FF0AC09B
:1032B0008091E800877F8093E8008091EB00806236
:1032C0008093EB00AA960FB6F894DEBF0FBECDBF79
:1032D000DF91CF911F910895EBE5F4E0128E138EEC
:1032E0008FEA90E09183808325E0248F88E893E142
:1032F000938382838AE090E09583848344E150E065
:103300005783468368E070E0718760879387828780
:103310004EE150E0558744879787868740E550E027
:10332000518B408B738B628B68E270E0758B648B82
:1033300062E370E0778B668B68EC70E0718F608F72
:10334000158E978F868F51A340A322A30E94B7109A
:103350000E948D1610927A031092790390E080E01B
:103360000E944C110C94890F7F928F929F92AF9282
:10337000BF92CF92DF92EF92FF920F931F93CF9362
:10338000DF93CDB7DEB76E970FB6F894DEBF0FBEF2
:10339000CDBFA0901A01B0901B0181E090E0909306
:1033A0001B0180931A018AEBC82E85E0D82E00E01D
:1033B000760110E015C0F40125913491472D612F5D
:1033C000802F0E94FF1082E0880E911C7394ECE025
:1033D0007E12F1CFF8E1EF0EF11C1F5F153019F0EE
:1033E0004701712CE8CF0F5F88E7C80ED11C05306C
:1033F000F9F60E946C191A8219821C821B821E82A5
:103400001D8218861F8288EC90E09A8789874AE09F
:1034100050E063EA72E0CE0101960E943B3C4AE034
:1034200050E06DEA72E0CE0101960E943B3C4AE01A
:1034300050E067EB72E0CE0101960E943B3C4AE00F
:1034400050E061EC72E0CE0101960E943B3C7E01AF
:10345000EBE0EE0EF11C8AE0F70111928A95E9F794
:103460000BEC12E04AE050E0B801C7010E943B3C7F
:10347000065F1F4F0B31F3E01F07A1F77E0185E1C7
:10348000E80EF11C8AE0F70111928A95E9F78FEFB7
:103490009FEF9A8F898F87E08E8F4AE050E0B801C6
:1034A000C7010E943B3C065F1F4F0B36F3E01F072E
:1034B000A1F7B0921B01A0921A016E960FB6F89474
:1034C000DEBF0FBECDBFDF91CF911F910F91FF9057
:1034D000EF90DF90CF90BF90AF909F908F907F90B4
:1034E000089580E00E94341160E086E290E00E943E
:1034F000173C0E94B4190E94EF1081E00C94341123
:1035000069EE7EEF90E080E00E94353C60E082E072
:1035100090E00E94173C60E083E090E00E94173C3E
:1035200010921B0260E084E090E00E94173C60E093
:1035300082E290E00E94173C60E085E090E00E940B
:10354000173C60E086E090E00E94173C6FEF87E058
:1035500090E00E94173C40E050E0BA0188E090E023
:103560000E94293C60E08DE090E00E94173C40E022
:1035700050E0BA0188E190E00E94293C60E087E1D8
:1035800090E00E94173C40E050E0BA018CE190E0EE
:103590000E94293C70E060E080E290E00E94353CAF
:1035A00040E050E0BA0188E190E00E94293C80E0D0
:1035B0000E9434110E94711A40E050E0BA018FE07D
:1035C00090E00E94293C40E050E0BA0183E190E0A5
:1035D0000C94293CCF92DF92EF92FF928FEF9FEFF6
:1035E0004430510508F46AC0FB01C080D180E280FC
:1035F000F3800E948D1680917903C0FA80F9B7019B
:10360000A601769567955795479540FB81F9B701D7
:10361000A60122E076956795579547952A95D1F7AB
:1036200040FB82F9B701A60133E07695679557957F
:1036300047953A95D1F740FB83F9B701A601E4E03D
:103640007695679557954795EA95D1F740FB84F9AC
:10365000B701A601F5E07695679557954795FA95D8
:10366000D1F740FB85F9B701A601A6E076956795ED
:1036700057954795AA95D1F740FB86F9B701A60162
:10368000B7E07695679557954795BA95D1F740FB82
:1036900087F98093790380917A03D0FA80F9D1FA7F
:1036A000CC24C0F8C0FA81F980937A038091790321
:1036B00090917A030E944C1190E080E0FF90EF908F
:1036C000DF90CF900895882321F00E94FA0C0C948B
:1036D00024150895882339F090910205982B909332
:1036E00002050C9424150895882321F00E94010DF1
:1036F0000C9424150895882321F00E94080D0C9441
:1037000024150895882361F19CEF980F913A20F4D5
:103710000E94350D0C94241590E2980F983050F4C7
:10372000877091E001C0990F8A95EAF7892F0E946E
:10373000010DF0CF9BE5980F933020F490E080E0EE
:103740000C94070798E5980F973120F490E080E0FB
:103750000C94F106803F20F00E9474090C944D09EE
:103760000895FF920F931F93CF93DF93F82E00914C
:10377000590410915A040115110509F449C0109219
:103780005804109257041092540410925504D80112
:103790001696CD91DC919E013A9521153F4108F492
:1037A000D07ED1E0C11101C0D0E0D8011996ED91D1
:1037B000FC911A97309731F01B966D917C9180E0C7
:1037C0000995D823DD2339F08CEF8C0F813A38F539
:1037D0008C2F0E94350DFF2099F0E0915904F09153
:1037E0005A04808584FD0CC080915604882341F0E2
:1037F000808191819C0121503109253A3D45A8F0F5
:103800000E94241510925A041092590410925604E2
:10381000C801DF91CF911F910F91FF9008950E94F1
:1038200024158C2F0E94821BD6CF0E942907E8CF37
:10383000CF93DF93EC010E94821BCE010E94FB0D0F
:103840009E01205E31092830310510F0CD2B21F486
:10385000DF91CF910C94741BDF91CF910C94631B7B
:10386000CF93C82F882309F44AC08CEF8C0F813A7C
:1038700088F4ECE9F1E08191C817D9F181E0E23AEE
:10388000F807C9F76C2F8AE991E00E94D706CF911B
:103890000C94241580E28C0F883048F4C77081E0C6
:1038A00001C0880FCA95EAF70E94080DF0CFEBE53A
:1038B000EC0FE33040F4F0E0EF5CFE4F808190E0ED
:1038C000CF910C940707E8E5EC0FE73150F4F0E0F6
:1038D000EE0FFF1FEC5CFE4F80819181CF910C9425
:1038E000F106C03F60F08C2F0E948F0ACF910C949C
:1038F0004D098C2F0E94350D0E942415C3CFCF9106
:1039000008951F93CF93DF93182FC0917B04D0911C
:103910007C04893321F0C0917904D0917A04812FFD
:103920000E94301C209731F4812FDF91CF911F919D
:103930000C94821B8FE99FE00197F1F700C0000013
:103940002197F0CF0F931F93CF93DF93C42FD22FE4
:10395000FC0182818823A1F0409381040E94CB0660
:103960009093800480937F04C77081E001C0880F2A
:10397000CA95EAF7DF91CF911F910F910C947B1BB1
:1039800010918104141339C080917F0490918004B8
:103990000E94B0062091730430917404821793073B
:1039A00060F5C0E2CD0F1D17B9F080E2810F8830BD
:1039B00040F4177081E001C0880F1A95EAF70E9461
:1039C000741BC83048F481E09D2F977001C0880FA8
:1039D0009A95EAF70E947B1B802F0E94811CC830B9
:1039E00098F4D77081E001C0880FDA95EAF7DF918B
:1039F000CF911F910F910C94741BC77081E001C08F
:103A0000880FCA95EAF7F3CFDF91CF911F910F91FD
:103A10000895DF92EF92FF920F931F93CF93DF935E
:103A2000E82FF0E0E154FE4FD490282F26952695FC
:103A3000269530E0F901E155FE4F0491877010E0C2
:103A4000082E02C0159507950A94E2F70170112718
:103A5000F901E156FE4FE490F12C082E02C0F594D6
:103A6000E7940A94E2F791E0E922FF24F901E15793
:103A7000FE4FC491D0E002C0D595C7958A95E2F774
:103A8000C170DD270115110519F081EE0E94301C6F
:103A9000E114F10419F086EE0E94301C8D2D0E9475
:103AA000811CEF2819F086EE0E94821B012B19F071
:103AB00081EE0E94821BCD2B51F08CE2DF91CF91E1
:103AC0001F910F91FF90EF90DF900C94811CDF917C
:103AD000CF911F910F91FF90EF90DF9008951F936A
:103AE000CF93DF93EC011AE08881882309F43EC06C
:103AF0008130C9F599818A81913029F422960E94FA
:103B0000811C2196F1CF923021F422960E94301C24
:103B1000F8CF933021F422960E94821BF2CF94308A
:103B200011F02196EECF229630E020E0AE014F5FFB
:103B30005F4F8053990B8A30910550F02150310925
:103B400000F38FE99FE00197F1F700C00000F6CF86
:103B5000129FB001139F700D11249C01260F371F77
:103B60008981EA01E3CF0E94091DCBCFDF91CF917C
:103B70001F910895CF93DF93EC010E94FB0D9E01EE
:103B8000205E31092830310510F0209739F40E9469
:103B90007B1B8C2FDF91CF910C94301C0E946A1BF1
:103BA000F8CF662329F020910205226020930205B8
:103BB0009C013056211540E2340720F0305E21157B
:103BC000304108F499270C94BA1DDF92EF92FF92CE
:103BD0000F931F93CF93DF937C018B01D42E8091A1
:103BE000260182FF8CC0C0919E03D0919F03CE1509
:103BF000DF0521F0E114F10409F081C08091260174
:103C00008B7F8093260181FD73C080919C039091EE
:103C10009D03A801481B590B81E02091240130919C
:103C200025014217530708F480E08170F82E809137
:103C30002601F0FA81F980932601FE0183E0F695D2
:103C4000E7958A95E1F7EE71FF27E458FC4F208154
:103C50003181AE014F70552781E090E002C0880F9E
:103C6000991F4A95E2F7FF2009F444C0822B932B59
:103C70009183808380917B0381FF08C0809126011E
:103C800080618093260182E00E94010D80917B0378
:103C900085FF08C08091260180628093260180E222
:103CA0000E94010D6F2DCE010E94D11DDD2031F04B
:103CB0008091760485FF02C086FF3BC08091790425
:103CC00090917A040E94E60E80919E0390919F034A
:103CD0009C013056211540E2340720F0305E21155A
:103CE000304108F499270E94181C0E94E1151DC05C
:103CF00081E09BCF8095909582239323B9CFC70114
:103D0000992797013056211540E2340728F0305E9C
:103D10002115304108F0C7010E94181C80919E03B4
:103D200090919F038E159F0501F310939D030093BF
:103D30009C03DF91CF911F910F91FF90EF90DF9047
:103D400008952F923F924F925F926F927F928F923F
:103D50009F92AF92BF92CF92DF92EF92FF920F931A
:103D60001F93CF93DF9300D000D000D00F92CDB738
:103D7000DEB77C01DC0113964D915C91149711968E
:103D80006C9111978C910E949A078111CBC061E0D0
:103D9000C7010E946C108C01F7018281811161C002
:103DA000D70112968C9181119BC000313FE513071A
:103DB00009F473C101314FE5140709F472C16801B8
:103DC000E7E5DE1AFFEFCF16D10409F060F560E9F0
:103DD00072E08C2D0E945911892B29F586E18C9D6A
:103DE000F0018D9DF00D1124EC57FB4F8681813041
:103DF00009F059C18091900290919102892B99F01C
:103E00008091920290919302892B69F080919402A3
:103E1000909195022091960230919702822B932BDC
:103E2000892B09F44AC1F7015280552009F457C182
:103E30000F35FDE51F0709F44EC100362DE51207C9
:103E400051F00E353DE5130709F049C1809100019D
:103E5000882309F440C11092000180E00E94B11B48
:103E600051C080910D0190910E01019609F498CFF7
:103E7000A4E8CA2EA4E0DA2EB12CA12C99249394A4
:103E800080910D0190910E018A159B050CF488CF4D
:103E9000F60186818823E9F0818592850817190744
:103EA00039F480918204909183040817190789F0EE
:103EB000D6011F969C921F971C961C930E931B97DE
:103EC000C6010E94C015C60106960E947B1510927D
:103ED0000205BFEFAB1ABB0AE6E1CE0ED11CD0CF74
:103EE000C80182519F45409710F00C9429298FEF0B
:103EF00093E00E94033CFEEEDF2ED00E0BE613E0B3
:103F00008823A9F180910F02877061F0D701129682
:103F10008C91882339F080917A0382FD03C082E07E
:103F20000E94371627960FB6F894DEBF0FBECDBF9E
:103F3000DF91CF911F910F91FF90EF90DF90CF9085
:103F4000BF90AF909F908F907F906F905F904F90B9
:103F50003F902F9008950115F4E01F0799F2C801D2
:103F60000E94033C811101C0DA940F5F1F4FD110F2
:103F7000F2CF19821A821B821C8299249A946801BA
:103F80002FEFC21AD20AC8010E94033C89831A8209
:103F9000882309F4B7CF813009F073C0580132E0AB
:103FA000A30EB11CC6010E94033CC82E8A8388233D
:103FB00009F4A8CFC5010E94033CD82E8FEF8C0DC9
:103FC000833068F4580143E0A40EB11CDB82DD208D
:103FD00021F0CE0101960E946F1D8501D0CF8BEF9D
:103FE0008C0D833030F5C8010396DB825C01DD2047
:103FF000A1F3580154E0A50EB11C0E94033C8C8330
:10400000882359F38B819C818130AFEF9A0710F0A0
:10401000982F8827B6E0CB1631F0E7E0CE1631F0C6
:104020000E941531DACF0E94E530D7CF0E945F3071
:10403000D4CFF4E0CF12D1CF580124E0A20EB11CAE
:10404000C80103960E94033CDD2009F45BCF88235E
:1040500009F458CF8150990B989E9001999E300D8C
:1040600011244D2D4150550BCA01820F931F01970A
:1040700008F4B3CFAFE9BFE01197F1F700C000003B
:10408000F6CFCE0101960E946F1D5601A6CF81E0AA
:104090000E9468160E94201635CF81E00E942B16E0
:1040A000F9CF82E0FBCF823009F0BDCE809194023F
:1040B00090919502892B09F4B6CE26E12C9DC00182
:1040C0002D9D900D11248C579B4FDC0150961C9216
:1040D0000E94C015A8CE81E08093000113CF80918B
:1040E0000001882309F4C9C7480140EE841A9108E9
:1040F00040901A0280910C02482A80917B03482A42
:1041000058E08516910408F08BC09801277033277A
:1041100081E090E001C0880F2A95EAF7552009F464
:104120007CC0482AD7018D919C910E946C0D21E0A2
:1041300030E0390102C0660C771C8A95E2F7E09105
:104140005904F0915A04FF83EE832090A20130902D
:10415000A3011D822D81E22FF0E0EE0FFF1FE5513C
:10416000FD4FC080D180C114D10411F40C941429E6
:10417000411005C0D60112968C9181118FC0F601B5
:10418000838190E086219721892B09F487C080855F
:10419000982F977009F487E0F8E08F16910408F0E3
:1041A0005AC0552009F453C086958170882309F4BC
:1041B00075C0D601AD90BC900A151B0519F45520A9
:1041C00009F46CC0EE81FF81CE16DF0609F466C0EB
:1041D000D6011D96ED91FC91309721F080818823C6
:1041E00009F45CC0642DC6010E947A07882309F493
:1041F00055C00A151B0511F00C94942901151105E1
:1042000011F40C949A2951100C949C29A214B30413
:1042100009F044C0512C0C949C298095482282CFEF
:10422000552011F40C94FD281093A3010093A201D2
:104230000E94BF066093500470935104809352040F
:104240009093530410925804109257046BCF82FB42
:10425000882780F9ABCF552009F18170A7CF0E9444
:10426000821B0C94BB290497813A910558F46A2D5E
:104270008AE991E00E94D706552009F4FEC60E9403
:10428000241540CE0E9424158FE39CE90197F1F795
:1042900000C000008A2D0E94301CEECF9D819F5FE0
:1042A0009D8358CFFC01208131810217130709F04B
:1042B000DDC65110DDC61092560480E0C7C78823C2
:1042C00009F42AC7FA018189882309F425C7C501A1
:1042D00086579B4F0E947B151FC717FF32C7882345
:1042E00009F42FC70E941D07869581708093A6014F
:1042F0000E941D0781708093A50180912902813061
:1043000039F48091A601882319F089E30E94811C69
:1043100080917B038093A40110927B0380912902FA
:10432000813009F44EC0882309F447C0823009F473
:1043300051C0843009F462C08FE39CE90197F1F722
:1043400000C000005801E894B7F85CE0C52ED12CFD
:104350006AE0862E912CC5010C2C02C0969587959B
:104360000A94E2F78F7090912902923009F04DC0C3
:104370008A3008F048C090E00996B4010E949F3B43
:10438000875A0E94811C94E0C91AD108ACEFCA1662
:10439000AFEFDA0601F780912902813009F443C0BA
:1043A0008823E9F1823009F44AC0843009F450C00E
:1043B0008091A40180937B03C4C682EE0E94301CCE
:1043C000BBCF88E193E00E94BA1D88E193E00E9490
:1043D000181CB2CF8091A501811103C083E50E9412
:1043E000811C82EE0E94301CEFE3FCE93197F1F76B
:1043F00000C0000087E50E94811C9ECF86EE0E94CF
:10440000811C88E1F8CF8650BCCF96EF980F96308C
:1044100020F0805D0E94091DB6CF895AFBCF82EE45
:104420000E94821BC5CF8CE20E94811C8091A60154
:10443000882309F4BDCF89E30E94811CB9CF82EEA5
:104440000E94821B8091A5018111B2CF83E5F4CF38
:1044500088E2F2CF809126018160809326019EC67A
:10446000809126018E7F809326010E94E11596C6D9
:10447000809126018F7E013E110531F0053E110528
:10448000C1F4809126018F7D8093260180912601C1
:1044900080FF93C6F70182810832110528F50E319D
:1044A000110508F074C00430110580F5811181C632
:1044B00084C6C80190568115A0E29A0720F0905E4C
:1044C0008115904118F78091260182FF76C6809170
:1044D000780481FD72C629E332E040E0B60190E045
:1044E00080E00E94E51D69C60933110558F40D32BC
:1044F000110518F40B321105C9F69091760492FD5E
:10450000D5CF08C004361105C1F3D0CF9091760401
:1045100094FDCCCF882309F4A1C090917B038091B6
:104520001A02282F292B322F3D7FB1F110929F03C1
:1045300010929E033091760431FD2EC0F80143E0C5
:10454000F695E7954A95E1F7EE71FF27E458FC4FA1
:1045500098012F70332781E090E002C0880F991FE7
:104560002A95E2F7809590952081318182239323CB
:104570009183808360E0C8010E94D11D80911A025E
:104580008D7F0E94E60C82E00E943716BBCC909192
:10459000760493FD8BCFBECF38E0F701A9E3B2E0FC
:1045A00001900D923A95E1F710923B0210923D0274
:1045B00010923C02A0909E03B0909F030A151B0529
:1045C000B1F53091760435FF32C04091260141FBB0
:1045D000992490F841FF02C036FF29C040919C0306
:1045E00050919D03B601641B750B4091730450916B
:1045F000740464177507D8F491FF08C080912601F0
:1046000080618093260182E00E94010D80917B03EE
:1046100085FF08C08091260180628093260180E298
:104620000E94010D692DC5010E94D11D6BCC909196
:10463000260121FB91F9909326018D7F0E94E60CC3
:1046400010939F0300939E03D0929D03C0929C03FE
:104650008091260184608093260195CF970140E0E8
:10466000B601C8010E94E51D4DCC053F8CE5180739
:1046700009F461C008F459C0063FACE51A0709F413
:1046800060C0F7013281332309F4F2C5109281042E
:104690000330FDE51F0708F060C00A3F2CE5120754
:1046A00030F4C80182509C45449708F060C00E94D5
:1046B000931090937A038093790301318CE5180766
:1046C00009F446C108F0C3C00930ACE51A0709F483
:1046D00031C108F08DC00530ECE51E0709F41EC19C
:1046E00008F078C003302CE5120709F40DC108F07A
:1046F00011C180917903816002301C4509F407C122
:104700008091790390917A030E944C110E948D163A
:10471000F9CB07E225EE45EE68ED7CE569C506E2DA
:1047200021EE40EE63EF7CE563C507E225EE44EE43
:1047300064EF7CE55DC506E221EE42EE65EF7CE5C7
:1047400057C507E225EE46EE66EF7CE551C508E267
:1047500021E045EE69ED7CE54BC501364DE51407DA
:1047600009F4A5CF053A5DE5150709F4A0CF063198
:10477000BCE51B0709F0C8C180917B03982F9A7A8A
:104780002091750420FF04C0482F447409F090E084
:1047900021FF04C0482F417109F090E022FF04C0BE
:1047A000482F487809F090E023FF03C0827209F097
:1047B00090E0332309F4F6C081E0911101C080E05C
:1047C0008093A70169E2911165E38AE991E00E9473
:1047D000D70655CD80917903806207305CE51507D7
:1047E00009F495C008F4A2C08091790380648FC059
:1047F000809179038B7F0D309CE5190709F487C000
:1048000098F4809179038E7F0B30BCE51B0709F487
:104810007EC0809179038C600C301C4508F477C011
:10482000809179038D7F73C0809179038F7E0F30E3
:10483000FCE51F0709F46BC080917903877F003185
:104840001C4508F464C0809179038F7D60C00D3FE2
:104850003CE5130709F478C050F505315CE5150710
:1048600009F480C098F480917903837F03319CE53B
:10487000190709F44CC008F46FC00E948D1690917E
:104880007903892F97FB87F9805841C00B3FBCE51E
:104890001B0709F447C008F053C080917A03816078
:1048A0000A3F1C4509F02CCF80937A0329CF0130B1
:1048B0002DE5120709F462C0B8F480917A038C7F69
:1048C0000F3F4CE5140781F380917A038360011553
:1048D0001D4550F380917A03982F909591708E7FAB
:1048E000892B90FB81F9E0CF01368DE5180709F49B
:1048F0004BC0053A9DE5190709F44DC002301D452E
:1049000009F0FECE60E03BC0809179038260809325
:104910007903F6CE809179038460F9CF8091790391
:104920008860F5CF80917A038260BECF8091790351
:104930008061EDCF0E948D16809179038068E7CF6A
:1049400080917A038E7FB0CF80917A038D7FACCF38
:10495000809179038F7BDBCF0E948D168091790344
:104960008F77D5CF8091790382FB992790F921E049
:10497000922790FB82F990FB83F9C9CF61E08EE02A
:1049800090E00E94173CBCCE90917903892F8F7ED6
:1049900094FF8061BCCF90917903892F8E7F90FF27
:1049A0008160B5CF8091A701811104C089E20E9486
:1049B000350D65CC85E3FBCF043C9CE5190709F474
:1049C00077C047E953E160EA73E1053C1C4509F013
:1049D00070C40E94A20896CA083CBCE51B0709F4F3
:1049E00076C008F46FC0093CFCE51F0709F474C0E9
:1049F00043E753E167E673E10A3C1C4551F359C4B0
:104A0000003D3CE5130709F479C0A8F40D3C5CE5D2
:104A1000150709F470C008F469C00E3CACE51A072C
:104A200009F470CA64E082E00F3C1C4509F041C4FF
:104A30000E94201467CA043DECE51E0709F461C01A
:104A400008F460CA053D2CE5120709F45BCA0D3570
:104A50001D4509F457CA2DC48091870280FF1BC0F1
:104A60008E7F809387026091870270918802809187
:104A7000890290918A020E94C512109262024FEF41
:104A800050E782E0415050408040E1F700C0000014
:104A90000E94F00E37CA81608093870261E086959C
:104AA0000E94CB132FCA4DE054E166E174E191CF2F
:104AB00046E154E16DE074E18CCF40EA53E167E9EF
:104AC00073E187CF4FE753E16BE873E182CF4BE8A7
:104AD00053E16FE773E17DCF47E653E163E773E1AD
:104AE00078CF49EA53E16AEB73E173CF4AEB53E1C4
:104AF00069EA73E16ECF61E081E0D2CF6AE085E0E0
:104B000097CF64E18BE094CF0A359DE5190759F101
:104B100058F40115BCE51B07C9F00E3D1C4509F012
:104B2000C8C30E94801AEEC90B35FDE51F07E9F0E6
:104B30000C351D4509F0BDC380917A0382FB88279F
:104B400080F991E089270E945316B3C30E948D1605
:104B50003FEF44E35CE0315040405040E1F700C09B
:104B600000000E94C20E81E0EECF80E0ECCF828197
:104B700000811181882369F0C8010E94FA0FD82EA4
:104B8000682FC8010E94990DB8018D2D0E94DE0F7B
:104B900096C3C8010E946C0DD82EF6CF202F2F701F
:104BA000B22E802F807F19F0B29490EFB922DD20D1
:104BB000A9F0BB2059F080E2810F883010F011116C
:104BC00007C08B2D0E94080D0E942415812F5AC00A
:104BD00080910205B82AB0920205F6CF812F0E947B
:104BE000821BBB2009F450C080E2810F883010F096
:104BF000111104C08B2D0E94010D03C08B2D0E944A
:104C0000FA0C0E94241540C0302F3F70B32E802F25
:104C1000807F803219F0B29480EFB822112321F105
:104C2000113009F4A6C0DD2009F4AFC0CC2009F48E
:104C30007FC020E0D7014C9111965C91119712969C
:104C40006C91129713967C91139714968C910E94F5
:104C500043108091780481FDB9CFF701858180FFF1
:104C6000B5CF8F70858364C080917A0382FF42C084
:104C7000DD20D1F1BB2029F08B2D0E94080D0E9470
:104C8000241580E00E94301CA92DA850BB0B14975E
:104C900020F40E941D070E94E40D812F902F0E9496
:104CA000C90D8111C4C11092A9011092A801AA20B6
:104CB000B1F080910F0280FD12C0D70112961C92B4
:104CC0008595859585950E946816C7010E94A11E4D
:104CD00080910F028595859585950E942B1660E041
:104CE000C7010E946C101EC980E00E94821BBB207D
:104CF00059F280CFDD2001F1C11004C080911A0269
:104D00008B2917C041E0C41206C080911A028B297A
:104D10000E94E60CB9CF80917704823078F3C812F4
:104D2000EDCF0E94DB0C80910C02B812B0920C0205
:104D30008B2D0E947B1BA8CFC11006C00E94DB0CEC
:104D40008B2D0E94741BA0CF8091770451E0C51277
:104D50000BC0823008F498CF80917B038B2109F43B
:104D600093CF0E942F0DEACF823040F3C812E6CFD6
:104D70008BCF80917D04DD2021F08C1508F484CF49
:104D8000D7CFC81608F080CFDBCFCC20C9F28091F6
:104D90007B0490917C04193321F0809179049091E7
:104DA0007A040E94E60E812F0E94821B6DCF802F15
:104DB00086958695837069F0813009F065CF812FE3
:104DC000902F9370D11002C090E080E00E94F10615
:104DD0005BCF812F902F9370D11002C090E080E0C4
:104DE0000E94070751CF812FDD2029F00E948F0AF2
:104DF0000E944D0949CF0E947409FACF802F837019
:104E000091F5D11041CF412F429546954770440FFF
:104E1000440F812F8F70042E01C0880F0A94EAF787
:104E2000212F207114FF07C02FE030E001C0220FB6
:104E30004A95EAF72095302F369536953370323003
:104E400069F050F440911B02313029F0822B842309
:104E50000E94891619CF842B822BFACF282B8091A0
:104E60001B028227F5CF8695DD2011F0802F8170FF
:104E7000882309F409CF412F429546954770440F86
:104E8000440F812F8F70042E01C0880F0A94EAF717
:104E9000212F207114FF07C02FE030E001C0220F46
:104EA0004A95EAF72095302F369536953370323093
:104EB00069F050F440910105313029F0822B8423B0
:104EC0000E941A16E1CE842B822BFACF282B8091D8
:104ED00001058227F5CFF02FFF70BF2EDD2029F0CE
:104EE0008F2F0E946816812F24CF812F0E94741B60
:104EF0008B2D0E942B16C8CE123F89F160F4103F13
:104F0000B9F0113F81F0DD2009F48CC0C1105ECEF4
:104F1000802F8F7128C0133F49F1143FA1F7809172
:104F20007A0382FF2FC0802F8F71DD2011F31BC009
:104F300080917D04DD2079F0C81608F0A5CE202FE1
:104F40002F7181E090E001C0880F2A95EAF79091D7
:104F500001058927B5CF8C1508F496CEF0CF802FA8
:104F60008F71D110C6CF0E9468168ECE80E0DD20F2
:104F700009F4A6CF81E0902F9F7101C0880F9A9508
:104F8000EAF79ECF809177048230A0F180910C02E5
:104F9000DD20F1F00E94010D80910F0287708430B6
:104FA00041F40E940E0D802F8F710E942B16A12CB0
:104FB0006BCE80917704C816D0F7202F2F71B22EB8
:104FC000822F0E94681663E08B2D0E947316EFCF2C
:104FD0000E94080D80917704C81640F00E940E0DC3
:104FE0000E942F0D64E0802F8F71EFCF81E00E942F
:104FF0003716DDCFDD2059F0302F3F71B32E832FD0
:105000000E94681663E08B2D0E9473163DCE81E0EE
:105010000E94371641E04C1508F036CE82E00E941F
:10502000371632CEC110B3CE802F8F7162CFDD2004
:1050300019F0C11038CE3BCEC11035CE20E0F701BB
:10504000408151816281738184810E9443108091EB
:10505000780483FF28CE8091A8019091A90102973E
:1050600009F021CE812F0E94811C1DCE552029F0F0
:10507000DC0118968C9185FF20C9C80197558F3F98
:10508000910511F008F048C020910D0130910E01FA
:105090002817390724F490930E0180930D01F7012E
:1050A000228136E1389F5001399FB00C1124A501AF
:1050B0004C575B4F6A01DA0150962C9350979281BE
:1050C00016968C911697992309F4F9C81A961C9391
:1050D0000E9319978F5F16968C930E94CB06F6015C
:1050E0009687858780911A02878380910205909127
:1050F0007B03892B80870190F081E02D309741F070
:10510000D60154966D917C91C50186579B4F0995A8
:105110001093830400938204D70112968C91882304
:1051200009F4DBC89801215E3C452530310508F0C3
:10513000D4C86FE1600F609329028CE090E00E9478
:10514000173C8091760480FF38C00E94CB066C012A
:10515000F7018281882309F48BC98091260182FF9F
:1051600008C029E332E040E0B60190E080E00E9410
:10517000E51D0B31FCE51F0709F46CC90C312CE56A
:10518000120709F46DC990912601892F8E7F90FF37
:1051900081600A313CE5130709F465C9C8019056DE
:1051A000811540E2940728F0905E8115904108F047
:1051B0006DC910929F0310929E03033FFCE51F07E9
:1051C00009F4ADCA08F051CA083D3CE5130709F4DB
:1051D000A0CA093D4CE5140709F4B9CA073D5CE5CE
:1051E000150709F04ECA06E221EE41EE67ED7CE5B7
:1051F000C7010E94A21C0C94821F8091A201909171
:10520000A3010817190781F41092A3011092A201BB
:1052100010925004109251041092520410925304B0
:1052200010925804109257048091590490915A0496
:10523000009709F422CFA8E08A16910408F032C83A
:10524000642D0E947A07811118CF81E00E94B11B62
:1052500014CF0031FFE51F0711F40C9447200131F2
:105260002FE5120711F00C94131F82E00C944820D4
:1052700006315CE5150709F47FCA80917B038272D1
:105280000B3CECE51E0709F42CCC08F0B9CB063C2E
:105290002CE5120709F411CC08F09ECB033C4CE539
:1052A000140709F400CC08F087CB023C1C4509F434
:1052B000D3CBF70186819781009709F458CC0E94DF
:1052C000530B182F092FF701D280C580C2943FE0FD
:1052D000C32280910F028770C1F0AD2CDD20B1F0A8
:1052E000892F807F803421F080E2810F883068F040
:1052F00080917A0382FD09C082E00E943716809176
:105300000F028770AA24A3948111A12C902E92944D
:105310002FE09222FBE0F91508F4B6CCE92DF0E07D
:10532000E15AF34C0C94B33BA114B10411F00C946A
:105330000621512CB12CA12C80E00E94B11BD092EF
:105340005A04C092590481E080935604F601858185
:105350008093540451100FC0AB2869F0F60180818E
:1053600091819C0124503109213A310510F00C94AF
:105370002F210E94350DD6011696AD90BC90C50127
:105380009A9581159F4110F4E0EEBE227724739424
:10539000C5010197853A9D4508F0712CD6011996F3
:1053A000ED91FC911A97309731F01B966D917C919D
:1053B00081E009957822772081F0F6018681978136
:1053C0000E94FB0D80935504C501F8E08F169104EF
:1053D00010F00C9433210E9429070E9424150C948C
:1053E0003C21CF92DF92EF92FF920F931F93CF93C6
:1053F000DF938091C701807F31F48091C401C09117
:105400000B0281110BC0DF91CF911F910F91FF9083
:10541000EF90DF90CF9008952196C7708091CA01D8
:105420008C1789F3F090C201E090C301C090C501D0
:10543000D090C601A6016E2D8F2D0E949A07D0E054
:105440008111EACF8E0183E0000F111F8A95E1F7E9
:10545000F801E553FE4F81818E11DECF80818F11DF
:10546000DBCF82818111D8CFE380F480EC18FD0876
:1054700060E082EC91E00E946C1080917304909146
:105480007404E816F90640F68091C7018F708061B8
:105490008093C701F801E053FE4F80818F708061D7
:1054A000808382EC91E00E94A11EDF91CF911F9139
:1054B0000F91FF90EF90DF90CF900C94620D3F9290
:1054C0004F925F926F927F928F929F92AF92BF9214
:1054D000CF92DF92EF92FF920F931F93CF93DF93C0
:1054E000CDB7DEB765970FB6F894DEBF0FBECDBF60
:1054F0008C0185E0F801DE01519601900D928A95AC
:10550000E1F7D8014C9011965C9011971296EC90AF
:1055100012971396CD90DC9060E082EC91E00E94AF
:105520006C1082ECA82E81E0B82E8090C50190907E
:10553000C601A4016091C3018091C2010E949A0733
:105540008111CAC1F090C401F601E819F9094F01AF
:1055500060E0FF2009F46DC1C5010E946C106090ED
:105560007304709074043090C7018614970408F097
:1055700013C14091C5015091C601B090C201A090E5
:10558000C301832D807F6A2D09F0ADC08B2D0E9451
:105590009A07FE2C81113BC0D80111968C9111976E
:1055A0008A1135C08C918B1132C02091C801309185
:1055B000C90116968D919C912817390741F5E11084
:1055C00026C0832D8F7080618093C70182EC91E0AB
:1055D0000E94A11E8091C701F80185838F2D6596D9
:1055E0000FB6F894DEBF0FBECDBFDF91CF911F91F4
:1055F0000F91FF90EF90DF90CF90BF90AF909F9072
:105600008F907F906F905F904F903F900895F4EF50
:105610006F16F1E07F0620F48091780480FF21C0AE
:10562000A601652D842D0E949A07811118C081E082
:105630008E2580FF16C04E2D652D842D0E94420DB3
:10564000882379F082EC91E00E94A11E88E0E2ECD0
:10565000F1E0DF011D928A95E9F7F12CBFCF80E0E0
:10566000E8CFA601652D842D0E949A07811124C0E0
:1056700081E08E25B82FB170CB2E80FF2BC04E2D30
:10568000652D842D0E94420DD82E811123C0498A98
:105690005A8A89899A890E942910292F22952F7068
:1056A000223060F0243088F49F7061F0F801958119
:1056B000907F41F4FD2C92CF80E0DCCF9F7011F001
:1056C0008823C1F3805E8830A8F3C8010E94A11E20
:1056D000DC2CF0CFEE2009F481CF8091C7018160EE
:1056E0008093C701BACF8B2D0E949A07811124C0E5
:1056F000D80111968C9111978A111EC08C918B1133
:105700001BC02091C8013091C90116968D919C91C2
:1057100017972817390781F4E1100EC015963C92AF
:10572000C8010E94A11E88E0F801A2ECB1E001903E
:105730000D928A95E1F752CFC8010E943510882357
:1057400039F1EE2029F18091C7018032A0F020913B
:10575000C2013091C3013A8729871B86DD86CC863A
:105760008E878091C8019091C901988B8F87CE0157
:1057700009960E94A11E88E0F801A2ECB1E0019018
:105780000D928A95E1F70E94F129FF24F39426CF28
:10579000C8010E94A11EF9CF832D807F09F452CF4A
:1057A0009090C2018090C3014091C5015091C60103
:1057B000682D892D0E949A0781111CC0F8018181F2
:1057C000881118C08081891115C02091C8013091BD
:1057D000C901868197812817390761F4E1100AC051
:1057E0003582C8010E94A11E88E0D5011D928A95CC
:1057F000E9F7F4CEC8010E943510882349F2EE2063
:1058000039F28091C701803208F4B5CF2091C201EE
:105810003091C3013A8329831B82DD82CC828E833F
:105820008091C8019091C90198878F83CE0101961C
:10583000A0CF82EC91E00E946C1080917304909153
:1058400074048816990680F6FE2CEE2009F4A0CF89
:10585000E090C201D090C3014091C5015091C601B2
:105860006D2D8E2D0E949A07811128C0F80181812B
:105870008D1124C080818E1121C02091C8013091EA
:10588000C9018681978128173907C1F4809178046E
:1058900082FD49CF9091C70190FD45CF907F09F4DB
:1058A00042CF8091C7018583903F09F439CF982F6B
:1058B000907F905F8F70892B858332CFC8010E94C3
:1058C0003510811158CF8091C70181608093C70145
:1058D000C8010E94A11E82CEEE2009F459CFC80152
:1058E0000E943510F82E882309F452CF88E0F80181
:1058F000A2ECB1E001900D928A95E1F78091C2018E
:105900009091C3010E9429100E94F12967CECF9384
:10591000DF93CDB7DEB760970FB6F894DEBF0FBE4A
:10592000CDBF29873A874B875C876D877E878F87B6
:10593000988BCE0109960E945F2A81112FC088E0C2
:10594000FE013996DE01119601900D928A95E1F7DC
:105950004C855D856A8589850E949A0781111EC0E4
:10596000A091CA01B0E0CD010196877099272091DE
:105970000B022817190609F193E0AA0FBB1F9A958D
:10598000E1F7A553BE4F98E0FE01319601900D92CC
:105990009A95E1F78093CA010E94620D80910B02F3
:1059A0009091CA01891317C060960FB6F894DEBFB4
:1059B0000FBECDBFDF91CF9108950E948D1610923A
:1059C000CA0110920B0288E0E2ECF1E0DF011D92C7
:1059D0008A95E9F7E3CFB8E08B9FC0011124855386
:1059E0009E4F0E945F2A8823F9F280910B0290E07B
:1059F00001968770992780930B02D0CFEF92FF9288
:105A00000F931F93CF93DF938091A303882361F0BB
:105A1000C091A2038CE0F82E8091A303C81758F020
:105A20001092A3031092A203DF91CF911F910F91C7
:105A3000FF90EF900895EE24E394EC0EE092A20321
:105A40000C2F10E0CF9DE0011124CC55DC4F4B8191
:105A50005C81698188810E949A0781111DC08E81B5
:105A60009F81892B21F488859985019651F428819D
:105A700039814A815B816C817D818E819F810E9409
:105A8000872CF09EF001F19EF00D1124EC55FC4F97
:105A90001482138210920205CE2DBECF10924704BD
:105AA000109246041092270180914504809344048B
:105AB0000E94D3070C94FE2C3F924F925F926F92FC
:105AC0007F928F929F92AF92BF92CF92DF92EF928E
:105AD000FF920F931F93CF93DF93C091440497E0FD
