:100000000C9435040C946D040C946D040C946D04E4
:100010000C946D040C946D040C946D040C946D049C
:100020000C946D040C946D040C94F4290C94B02978
:100030000C94F12A0C946D040C946D040C946D04D2
:100040000C946D040C946D040C946D040C946D046C
:100050000C946D040C94CD2A0C946D040C946D04D6
:100060000C946D040C946D040C946D040C946D044C
:100070000C946D040C946D040C946D040C946D043C
:100080000C946D040C946D040C946D040C946D042C
:100090000C946D040C946D040C946D040C946D041C
:1000A0000C946D040C946D040C946D04050109808E
:1000B000A101850319012AB700150126B700950192
:1000C00075108100C0050C0901A101850419012AE0
:1000D000A002150126A002950175108100C00660DE
:1000E000FF0961A1010962150026FF00952075082E
:1000F00081020963150026FF00952075089102C052
:1001000005010906A101050719E029E715002501E8
:10011000950875018102950175088101050719008F
:1001200029FF150026FF00950675088100050819AE
:10013000012905950575019102950175039101C08D
:10014000643214783C1E1E140A05FD377A585A0092
:100150000004E6D6B4460200210116000000742F08
:10016000E5A3E0050101815D003D8889C65436C3E1
:10017000174FE4E7E954216F66A3454351D6319503
:10018000C0501472BFB4447A2852B5CABBE6D2E359
:1001900037F5BDE72E51FEB8D99B3DB024A5ED72D1
:1001A0003B7DBF22549A1894309528C26CE4EDF838
:1001B0003D7AF2F128BAC625142DAD7BA99DAB6D11
:1001C0006ADBDF9642B910EF16677A2838E9552DB9
:1001D0000354DA1722791BB32925F3B93640BA68DC
:1001E000E8BFAC4CC3C0911FAC37D3918B94B29095
:1001F000027DD2CD959B4630F1D5BF67895C0671F3
:1002000024E0159524C8BBE9C37B17D2BDAB96117A
:100210007975324EE1DA871CB6C615B33F7F4B6164
:100220004C6F43833762AD43D1835946CB6DD7863C
:100230006463E76192DD1D5FB540CE0A4404CD9B47
:1002400060029E7085D147A4364358089A84D0F93D
:1002500063125FC19FBDE8BE0B760C4312FE4A21BC
:1002600088E5D83C78BD81D8836E80CBEB47ADEC78
:10027000230BF0A9A47C95889DC1D34311067CDD96
:1002800014826ECA9D6514099439C56E973CCAC71D
:100290001B22589A48764EDA1ECB04605A1CE6435D
:1002A0002DBAC1D86D82F4FA079D3F0A6844E83838
:1002B0009A7A7E7E34F94852BBD303E1AD06C8D1A9
:1002C00099959F30782254C431F1472B2B513640F9
:1002D000BFDC4599362FFB12AB8D271B1E579CCBDD
:1002E000C64C0914796C089240210000000096B3B6
:1002F0005859B53CFF4700019D03820A0000F650A3
:10030000CA6FB1C467FB020000000004595A000123
:1003100001010101010101010202020202020202C5
:100320000203030303030303030404040404040497
:10033000050505050506060606060707070707085B
:10034000080808090909090A0A0A0B0B0B0C0C0C0E
:100350000D0D0D0E0E0E0F0F0F10101111111212A8
:1003600013131414151516161717181819191A1A25
:100370001B1B1C1D1D1E1E1F202021222223242486
:10038000252626272829292A2B2C2D2D2E2F3031C2
:100390003232333435363738393A3B3C3D3E3F40D4
:1003A0004142434445464748494A4C4D4E4F5051BF
:1003B0005354555658595A5B5D5E5F616264656679
:1003C00068696B6C6D6F7072737577787A7B7D7E00
:1003D0008082838587888A8C8E8F91939596989A50
:1003E0009C9EA0A2A3A5A7A9ABADAFB1B3B5B7BA68
:1003F000BCBEC0C2C4C6C9CBCDCFD1D4D6D8DBDD3C
:10040000DFE2E4E7E9EBEEF0F3F5F8FAFDFF222393
:10041000252628292A2C2D2F3032333536383A3BE1
:100420003D3E4042434547494A4C4E505153555733
:10043000595A5C5E6062646668696B6D6F71737552
:1004400077797B7D7F81838587898A8C8E90929452
:1004500096989A9C9E9FA1A3A5A7A8AAACAEAFB15F
:10046000B3B4B6B8B9BBBCBEBFC1C2C3C5C6C7C9A9
:10047000CACBCCCDCED0D1D2D2D3D4D5D6D7D7D863
:10048000D9D9DADADBDBDBDCDCDCDCDCDDDDDDDDB5
:10049000DCDCDCDCDCDBDBDBDADAD9D9D8D7D7D6BD
:1004A000D5D4D3D2D2D1D0CECDCCCBCAC9C7C6C574
:1004B000C3C2C1BFBEBCBBB9B8B6B4B3B1AFAEACBA
:1004C000AAA8A7A5A3A19F9E9C9A98969492908E65
:1004D0008C8A89878583817F7D7B79777573716F3E
:1004E0006D6B6968666462605E5C5A59575553511A
:1004F000504E4C4A4947454342403E3D3B3A3836D0
:10050000353332302F2D2C2A29282625232214007A
:100510001A000800150017001C0018000C0012003B
:1005200013002A0004001600070009000A000B004F
:100530000D000E000F00340000001D001B0006001F
:1005400019000500110010003600370038000000C7
:100550000000E30001512A002C002C000251005C35
:100560000000000000000100010001000100010086
:100570000100010001000100010001000100010073
:100580000100010001000100010001000100010063
:100590000000010001000100010001000100010054
:1005A0000100010001000000000001000100010045
:1005B0000100010001000100000000000000010036
:1005C0000100010001000100010001000100010023
:1005D0000100010001000100010001000100010013
:1005E0000100010001000100000001000100010004
:1005F00001000100010001000100010001000000F4
:1006000000000100010001000100010001000100E3
:1006100000000000000001000100010001000100D5
:1006200001000100010001000100010001000100C2
:1006300001000100010001000100010001000100B2
:1006400000000100010001000100010001000100A3
:100650000100010001000000000001000100010094
:100660000100010001000100000000000000010085
:1006700001007903C10DF40D0000020002007503B2
:10068000C10DF40D0000030001007A03C10DF40D4B
:100690000000040002005F03C10DF40D45070500D2
:1006A00001007B03C10DF40D000006000200610390
:1006B000C10DF40D0000070002007703C10DF40D19
:1006C0000000080001007C03C10DF40D00001200C1
:1006D00002007D03C10DF40D0000130002007F0332
:1006E000C10DF40D0000140001008103C10DF40DD3
:1006F0000000150000000000CB06001600000902F3
:100700005B00030100A0FA090400000103010100DD
:1007100009211101000122400007058103080001A1
:100720000904010002030000000921110100012257
:1007300022000705820320000107050303200001B2
:100740000904020001030000000921110100012237
:10075000320007058403200001120100020000009E
:1007600008464D11000100010203011C03760069D7
:100770000061006C003A006600360034006300320D
:100780000062003300630000001003760061007512
:10079000006C007400330035000000180370007214
:1007A000006F006A00650063007400630061006907
:1007B000006E0000000403090400000000000000B7
:1007C0000000000000000000000000000000000029
:1007D000000000000000000000000000007E0F008C
:1007E000D4FFFFFFC70000007800000000000000F9
:1007F000002A2B280000000000000000000000007C
:100800000000000029000000002C1E3420212224BA
:10081000342627252E362D3738271E1F2021222348
:100820002425263333362E37381F040506070809DA
:100830000A0B0C0D0E0F10111213141516171819A0
:100840001A1B1C1D2F3130232D35040506070809FE
:100850000A0B0C0D0E0F1011121314151617181980
:100860001A1B1C1D2F3130354C0011241FBECFEF39
:10087000DAE0DEBFCDBF04B603FE18C080915B0492
:1008800090915C04A0915D04B0915E048730904B20
:10089000A740B04B59F410925B0410925C04109284
:1008A0005D0410925E04E0E0F8E3099511E0A0E039
:1008B000B1E0ECEFF7E602C005900D92A838B10761
:1008C000D9F724E0A8E8B1E001C01D92AB35B2072A
:1008D000E1F70E94182B0C94D8330C940000E8ED3B
:1008E000F0E080818E7F80831092E2001092DA0027
:1008F0001092E100A0EEB0E08C9181608C93808139
:100900008F77808319BCA7EDB0E08C918E7F8C939C
:1009100080818F7E80831092420408952091E400AC
:100920003091E50095E6A9012091EC00822F8170BD
:1009300020FF06C08091E80080FF06C080E0089597
:100940002091E80022FD1AC080915804882389F084
:10095000853089F08091EB0085FD0FC02091E40087
:100960003091E50042175307F9F29150E1F684E027
:10097000089582E0089583E0089581E00895EF925C
:10098000FF920F931F93CF937C018B010E948E04E3
:10099000C82F811117C08091E80085FD0BC08091A0
:1009A000E8008E778093E8000E948E04882399F3F4
:1009B000C82F08C0F70181917F018093F100015099
:1009C000110949F78C2FCF911F910F91FF90EF9054
:1009D0000895CF93FC0180915804843001F5C091B3
:1009E000E900CF702091EC00922F917020FD90E8EB
:1009F000C92B82E08093E9008091E80080FF0CC061
:100A000050E040E060E270E0CF010E94BF048091BE
:100A1000E8008E778093E800CF70C093E900CF9113
:100A200008958091500487FF13C08091E80082FFF1
:100A300006C08091E8008B778093E80004C0809125
:100A400058048111F2CF0895809158048823D9F376
:100A50008091E80080FFF8CF8091E8008E77ECCF9E
:100A6000982F9093E900242F762F50E0891731F0CA
:100A70007091EC002091ED005091F00021FD07C035
:100A80009F5F973071F78093E90081E0089530917E
:100A9000EB003E7F3093EB003091ED003D7F3093D3
:100AA000ED003091EB0031603093EB007093EC007F
:100AB0002093ED005093F0002091EE0027FDE0CF51
:100AC00080E00895B0E0A0E0E8E6F5E00C9418338B
:100AD000C8EDD0E088818F7E8883E7EDF0E08081EB
:100AE0008160808384E082BF81E0809342048881BA
:100AF0008E7F888302EE10E0F80110821092DA00F7
:100B000081EEC82ED12CF601108288818F778883E0
:100B100088818068888388818F7D888319BC109242
:100B2000580410924F0410924E0410924D0490EE0F
:100B3000E92EF12CF70180818B7F80838881816091
:100B4000888342E060E080E00E943005F601808109
:100B50008E7F8083F80180818160808380818860BE
:100B60008083F70180818E7F808388818061888384
:100B7000CDB7DEB7E8E00C943433FC018091560425
:100B80009091570486179707A0F06115710529F415
:100B90009091E8009E779093E80090E061157105D0
:100BA00051F4911108C08091E80082FF34C080E0C8
:100BB0000895BC01F2CF809158048823C1F185309B
:100BC000C1F18091E80083FD30C08091E80082FD92
:100BD000EACF8091E80080FFE1CF8091F30020917F
:100BE000F200382F6115710519F02830310558F0E1
:100BF00091E02830310509F090E02091E8002E774F
:100C00002093E800CBCF81918093F100615071096E
:100C10002F5F3F4FE7CF80915804882341F0853004
:100C200041F08091E80083FFBECF81E0089582E02B
:100C3000089583E0089508950895089580914404E7
:100C400008959C014FB7F89480913B0490913C0427
:100C5000A0913D04B0913E044FBF821B930B0895B9
:100C60002FB7F89460913B0470913C0480913D044F
:100C700090913E042FBF08952FB7F89480913B04C4
:100C800090913C04A0913D04B0913E042FBF089583
:100C900020913804309139042817390771F0909366
:100CA000390480933804E0913604F091370430978A
:100CB00021F00084F185E02D0995089520913404F8
:100CC000309135042817390771F0909335048093DB
:100CD0003404E0913604F0913704309721F0068017
:100CE000F781E02D09950895E0913604F0913704DD
:100CF000309729F00190F081E02D0995089580E06A
:100D00000895452B39F0682381E06F3F09F080E0BA
:100D10008170089581E0FCCFDC0160912B0480910B
:100D20002C04962F891301C00895292F30E0F90172
:100D3000EE0FFF1FED5DFB4F408151814A175B07AE
:100D4000A1F487E08A9FA0018B9F500D112445518B
:100D50005C4F81E0FA0184839613E6CF2F5F3F4F0B
:100D60002370332720932B0408952F5F3F4F922F3A
:100D70009370D8CF1092880310928703EBEEF3E0C4
:100D80008581811102C014821682379684E0E33295
:100D9000F807B1F70895B0E0A0E0E1EDF6E00C94BB
:100DA00016338FEF9FEF4430510508F469C040912E
:100DB0003C0341FB882780F990E0880F991F42FB94
:100DC000002700F910E0000F111F000F111F802BEA
:100DD000912B40FBCC24C0F8D12C8C299D2943FBBE
:100DE000222720F9C22FE0E0DE2F53E0CC0FDD1FD9
:100DF0005A95E1F78C2B9D2B44FBAA27A0F9B0E074
:100E0000E4E0AA0FBB1FEA95E1F78A2B9B2B45FB79
:100E1000EE27E0F9F0E0A5E0EE0FFF1FAA95E1F75D
:100E20008E2B9F2B46FB222720F930E0B6E0220FC5
:100E3000331FBA95E1F7822B932B47FB222720F92A
:100E400030E03695322F222737952795822B932B2A
:100E500020913D03322F3170F32EE82EF92A26958A
:100E60002170B22EBB0CA82EBF28C501BB0CAA0B4B
:100E7000BB0BFB0180839183A283B38390E080E06E
:100E8000CDB7DEB7EAE00C94323380915F039091E6
:100E9000600390930E0180930D010895E6E7F2E060
:100EA00090E080E069E079E240E359E22EE738E241
:100EB0007783668351874087338722879587848726
:100EC00001963E968830910599F7089581152CE595
:100ED000920741F42091360330913703232B11F40C
:100EE00090E080E00895FA01811101C0FB010995AD
:100EF000089580915F02982F9E7F61F481708260D7
:100F000080935F0280916202873918F086E98093AE
:100F1000620208958E31B0F381708C61F1CFAF928F
:100F2000BF92DF92EF92FF920F931F93CF93DF93C5
:100F3000082F162FE901E42FF0E0E25FFC4F61116A
:100F400010C0E4915E2F4E2F4983E8835A83DF91CE
:100F5000CF911F910F91FF90EF90DF90BF90AF90D6
:100F60000895E62EF12C4491D42EE42FF0E026E0F3
:100F7000829FC00111242FEF30E0B9010E94D932C5
:100F8000802F90E0880F991F55E5569FD001579FFD
:100F9000B00D11248A1B9B0B982F990F890F5901B3
:100FA000AE18BF08AE9ED001AF9EB00DBE9EB00D74
:100FB00011245B2F189F80011124012F1127590143
:100FC000A01AB10AAE9E8001AF9E100DBE9E100DFC
:100FD00011245901A81AB108AE9CC001AF9C900D14
:100FE000BE9C900D1124892F9927281B390B2E9F09
:100FF000C0012F9F900D3E9F900D1124E92F62306C
:101000007105A1F050F46115710509F49DCF6130AF
:10101000710581F0EB2F512F97CF6430710569F086
:1010200080F06630710509F48FCFF4CFE42F4B2F99
:10103000592F8ACFE42F412F87CFEB2F542F492FE1
:1010400083CF4B2F5D2DE12F7FCF80E00895F89463
:10105000E82FE295EF70F0E031A1282F2F7081E0AA
:1010600090E001C0880F2A95EAF7982F9095932376
:1010700091A392A1892B82A37894089590913C0327
:1010800092FF06C0282F28712830F9F4877F8460EA
:1010900093FF06C0282F28712831F1F4877E8461E0
:1010A00020913D0320FF06C0382F38713830D9F425
:1010B000877F816021FF06C0282F28712831D1F455
:1010C000877E816194FD877E0895282F24712430C6
:1010D000F9F68B7F8860DCCF282F2471243101F74B
:1010E0008B7E8861DDCF382F3171313019F78E7FDB
:1010F0008860E0CF282F2171213121F78E7E886111
:10110000E1CFCF93DF93EC0182389105B1F108F084
:1011100040C08133910509F49DC048F5893291059D
:1011200009F48DC08A9709F49CC0C11522E5D20745
:1011300008F0BDC0C11531E5D30708F025C1C83E90
:10114000D10508F0A3C0C13ED10588F5C83AD10544
:1011500008F08EC0C53AD10508F0F6C0C130D105FF
:1011600031F1209721F1C430D10508F545C0853310
:10117000910509F45FC0C997C1F680913C03837063
:1011800009F037C180913D0383FF11C0C9E2D0E06F
:101190000EC0833E910599F170F4803E910501F1F6
:1011A000823E910511F680913C0382FD21C0CE0163
:1011B000DF91CF910895863E910561F1873E9105BB
:1011C00071F1843E910509F0B0CF80913D0381FF1C
:1011D000EECF80913C03C7EED0E084FD0DC0E7CF99
:1011E00080913C0380FD33C090913D0390FFDFCFA1
:1011F000C3EED0E084FFDBCFD0E0C0E0D8CF809159
:101200003C0382FDF3C090913D0390FDF2C084FF4A
:10121000CECFF2CF80913C0383FDDDCFC8CF80914C
:101220003C0383FDE9C090913D0391FFF0CFC4EEF4
:10123000D0E0BDCF80913C0385FFB9CFA7CF80918F
:101240003C0385FDDCC080913D0383FFB0CFC9E343
:10125000D0E0ADCF80913C0386FFA9CFCAE2D0E0B9
:10126000A6CF80913C0386FFA2CFC1E3D0E09FCF01
:10127000CF3BD10508F6C85AD0E0CC0FDD1FC35EC6
:10128000DE4F0990D881C02DD46491CFC11540E5BF
:10129000D40708F064C0C11580E4D80708F05CC02A
:1012A000CE019A9581159F4108F481CFA5CFC11534
:1012B00036E5D30718F5C11545E5D40708F07DC01C
:1012C000C11584E5D80708F073C09C2F96959695B4
:1012D0009E0123703327C115D34508F45AC0C1E0DD
:1012E000D0E002C0CC0FDD1F2A95E2F730E2939FD9
:1012F000C0011124C82BD92BDA6859CFC1158AE552
:10130000D80778F4C11529E5D20708F061C0C115E6
:1013100038E5D30708F470CFDC2FCC27C06FD06A34
:1013200046CFCE0190568115904208F065CF8D2FA3
:101330008F710E943E0890E0982F882788279F7120
:101340009C012C2BE90142C0C55AD0E0C65EDE4F9D
:10135000C881D0E0D0642BCFDF70D06A28CF2C2F8B
:1013600026952695237080E2289F900111248C2FCA
:101370008370C1E0D0E002C0CC0FDD1F8A95E2F798
:10138000C22BD32BDD6813CFDC2FCC27C16FD06AE3
:101390000ECFC1E0D0E002C0CC0FDD1F2A95E2F7EE
:1013A00020E2929FC0011124C82BD92BDC68FFCE0C
:1013B000DC2FCC27C46FD06AFACE8C2F0E943E0857
:1013C000C82FD0E0DC2FCC27CC27DF71D062EFCE46
:1013D0008C2F8F700E943E0834E0D695C7953A95C1
:1013E000E1F7CF709C2FEC01D069E1CEC2EED0E0E6
:1013F000DECEC0EED0E0DBCEC6EED0E0D8CEC5E388
:10140000D0E0D5CE8091FF01882331F01092FF010A
:101410001092FE011092FD010895CF93C82F809184
:101420003D0382FF0CC08091FF018C1741F00E94A8
:101430003C069093FE018093FD01C093FF01CF9184
:101440000895809590915A04982390935A04089592
:10145000809590913E03982390933E030895909138
:101460003E03892B80933E0308951092F40110925D
:10147000F3011092F201089580916103909162034B
:10148000892B89F00E943C062091FD013091FE01DC
:10149000AC01421B530B81E0209161033091620348
:1014A0004217530708F480E081700895ECE8F1E0FA
:1014B0009191891303C0DF0111971C9291E0E239E9
:1014C000F907B1F70895ACE8B1E0EFEF90E02D91A6
:1014D000821751F0EF3F19F4211101C0E92F9F5FEE
:1014E0009630A9F7EF3F09F408950E2E000CFF0B7C
:1014F000E657FE4F828308952091F1019091B0014B
:10150000291302C080E0089530E0F90153E0EE0FA6
:10151000FF1F5A95E1F7EF54FE4F5181561306C055
:101520005081581303C05281541304C02F5F3F4FA2
:101530002770E6CF81E008958091F1019091B0018C
:10154000981301C008958F5F8770FACF292F9430C8
:1015500078F58B3068F590E03BE0239F800D911D7E
:101560001124682F677023E0969587952A95E1F7F7
:10157000FC01EE0FFF1FE80FF91FEA56FE4F50E087
:1015800040E080E0219130E0062E02C0369527959C
:101590000A94E2F721703327042E01C0220F0A9427
:1015A000EAF7822B4F5F5F4F4330510559F708959B
:1015B00080E00895292F943098F58B3088F590E0DD
:1015C0003BE0239F800D911D1124282F277041E0BF
:1015D00001C0440F2A95EAF723E0969587952A954E
:1015E000E1F7FC01EE0FFF1FE80FF91FEA56FE4F6F
:1015F00030E020E070E05191DF011197CB01022E25
:1016000002C0969587950A94E2F7817081958527A7
:10161000842385278C932F5F3F4F2330310559F763
:10162000089592959F70963091F058F4925F9F7054
:10163000923058F4803F19F030F4883E30F481E065
:1016400008959A5FF4CF843FD1F380E00895883EF7
:10165000B0F3813FD1F7F3CF9C013A9521153F417B
:1016600050F5FC01EE27F170BC0166277270AC01E9
:10167000442754709C012227387094FF0EC080E1EB
:10168000EF2B09F480E0672B09F08062452B09F00D
:101690008064232B89F08068089581E0EF2B09F4A2
:1016A00080E0672B09F08260452B09F08460232BD2
:1016B00019F08860089580E0089580933F04709346
:1016C000410460934004809158048430F9F480937D
:1016D000E9008FEF9091E800815095FD06C095EDEF
:1016E0009A95F1F700008111F5CF8091E80085FF10
:1016F0000DC050E040E063E070E08FE394E00E94B2
:10170000BF048091E8008E778093E8000895BC01C3
:1017100084E00E945D0B0895BC0183E00E945D0B94
:101720000895CF93DF93EC0181E08093E9008FEF80
:101730009091E800815095FD06C095ED9A95F1F7DE
:1017400000008111F5CF8091E80085FF14C050E0C2
:1017500040E068E070E0CE010E94BF048091E800A4
:101760008E778093E80088E0FE01A5E4B4E0019064
:101770000D928A95E1F7DF91CF91089581E08093F2
:10178000E00080E28093D8001092C9008FE19EE4CF
:101790000197F1F700C0000087E090EBDC01809337
:1017A0005B0490935C04A0935D04B0935E0488E1B5
:1017B0009CE00FB6F894A895809360000FBE9093BC
:1017C0006000FFCF019708F40895EFE9FFE031973B
:1017D000F1F700C00000F6CF80915F0280FD0AC0E3
:1017E000EBE3F2E0118210821282339652E0EF3581
:1017F000F507C1F7559A3BB13F7D2BB120624FB73A
:10180000F8948BE392E0FC015191CF0168E02BB991
:10181000000000C057FF3BB9550F000000C000C0DA
:1018200000C03BB900C06A9591F7F2E08F359F0781
:1018300051F74FBF8FE594E00197F1F700C000002A
:101840000895EF92FF921F93CF93DF93EC018BE308
:10185000E82E82E0F82E10E040916202473908F04D
:1018600046E98C81970160916102810F0E948F0788
:101870001B5E83E0E80EF11C1C3F71F70E94EC0B2D
:101880009A818C8190FF08C08F5F8C83DF91CF910C
:101890001F91FF90EF9008958150F7CF90915F02D4
:1018A00090FF0CC0EBE3F2E08183608342833396C8
:1018B00092E0EF35F907C1F70E94EC0B0895A3E021
:1018C000B0E0E5E6FCE00C941E3390915F0290FFDF
:1018D0000DC0473908F046E99E012F5F3F4F0E9437
:1018E0008F074B8169818A810E944E0C2396E2E02A
:1018F0000C943A33CF93DF93EC01EFE5F2E04381B0
:1019000062818C810E945F0C8C818F5F8C83DF9160
:10191000CF910895CF93DF93EC01EC81F0E0E25F8B
:10192000FB4F4491EFE5F2E0628181810E945F0C00
:101930008C818F5F8C83DF91CF9108950F931F93DC
:10194000CF93DF930FE513E0C7E9D1E0CE010E940A
:101950008833F80181938F012196CB3BF1E0DF07BB
:10196000A9F7C8E7D6E0FE0185919491009711F0A0
:10197000FC0109952C96F7E0C830DF07A1F7DF914D
:10198000CF911F910F9108950F931F93CF93DF93E2
:10199000843030F5643020F54B3010F5C42FD0E0A2
:1019A000CC0FDD1F26E1629FC00DD11D112438E54B
:1019B000839FC00DD11D1124CE0187960E948833CC
:1019C000082F10E0102F0027CE0188960E94883340
:1019D0009801282BC901DF91CF911F910F91089594
:1019E00090E080E0F8CF462F20913A0330913B03FE
:1019F000232B99F4703F39F4603F79F480913803D8
:101A0000909139030895843040F4743030F46B3091
:101A100020F4672F0E94C40C089590E080E00895A0
:101A2000CF92DF92FF920F931F93CF93DF936C01BE
:101A30000091590480910002082BC7E0D0E010E02B
:101A4000FC2EC8010C2E02C0959587950A94E2F7EA
:101A500080FD0CC02197A0F7F12C8F2DDF91CF9145
:101A60001F910F91FF90DF90CF900895B6018C2FBA
:101A70000E94F30C0E948108019761F3EECFCF938F
:101A8000DF93EC010E94100DBE010E94F30C0E9436
:101A90008108DF91CF910895CF93DF93EC014B81C3
:101AA0005C81698188810E948106811110C08E81CC
:101AB0009F81009739F00E9481080E94110BDF91ED
:101AC000CF910895888199810E943F0DF6CF80E0E3
:101AD000F6CFA5E0B0E0EFE6FDE00C941D334983BE
:101AE0005A8389819A81662399F0222389F00E9482
:101AF000100D182F682F89819A810E94DA0A698156
:101B00007A81812F0E94F30C2596E3E00C943933FF
:101B10000E94A60A182FF3CFFC01262F86819781F9
:101B2000009739F4408151816281738184810E94E0
:101B3000690D089583E290E00E948833803E89F425
:101B400084E290E00E9488338B3459F485E290E07F
:101B50000E94883391E08B3A09F090E0892F8170E0
:101B6000089580E0FCCFCF9384E090E00E9488331A
:101B7000C82F82E290E00E948833982F8C2FCF915B
:101B80000895DB01FC0132962591349142175307E9
:101B900058F0FC01349665917491A901CD010E9421
:101BA000683390E080E008958FEF9FEF08950F93E2
:101BB0001F93CF93DF930FE513E0C7E9D1E0CE0188
:101BC0000E948833F80161918F01681719F0CE01E6
:101BD0000E949C332196CB3BF1E0DF0781F7DF9138
:101BE000CF911F910F910895DA019C012E5F3F4F15
:101BF000F90145915491F90125913491A217B30748
:101C000058F0FC013496859194910E9468330E94AB
:101C1000D70D90E080E008958FEF9FEF0895CF9368
:101C2000DF93CBE5D2E060E0CE010E949C332196A9
:101C3000C11584E0D807B9F7DF91CF9108951F93BC
:101C4000CF93DF93122F8430E0F46430D0F44B3024
:101C5000C0F4C42FD0E0CC0FDD1F96E1699FC00D0A
:101C6000D11D112498E5899FC00DD11D1124632F2A
:101C7000CE0187960E949C33612FCE0188960E94E8
:101C80009C33DF91CF911F910895CF93C82F6FEFB1
:101C9000811160EE83E290E00E949C336FEFC111EE
:101CA0006BE484E290E00E949C336FEFC1116BEA19
:101CB00085E290E00E949C33CF910895CF93C92F85
:101CC000682F84E090E00E949C336C2F82E290E0C9
:101CD0000E949C33CF9108959B01883070F49AE064
:101CE000899FB001112465547E4F4AE050E0C9013C
:101CF0000E94783390E080E008958FEF9FEF089581
:101D0000AAE0B0E0E6E8FEE00C941E339C013755F3
:101D10002F3F310509F068F4BE016F5F7F4F0E94CD
:101D20006C0E892B31F489859A852A96E2E00C9411
:101D30003A338091770390917803F7CFAAE0B0E02F
:101D4000E4EAFEE00C941833E6EEF2E080E5DF0111
:101D50001D928A95E9F7EBEEF3E088E3DF011D922F
:101D60008A95E9F786EEC82E82E0D82E7F010BE037
:101D700012E0F701D182C0824AE050E0B801CE0102
:101D800001960E94783388E0FE013196D6010190D9
:101D90000D928A95E1F789859A85D70113969C93D0
:101DA0008E931297BAE0CB0ED11CE7E0EE0EF11C39
:101DB000065F1F4F0B35F2E01F07D9F62A96E8E0C1
:101DC0000C943433CF92DF92EF92FF926B017C013F
:101DD0000E947907B701A60188E090E00E94AE3327
:101DE000FF90EF90DF90CF900895A3E0B0E0EBEF8D
:101DF000FEE00C941A33082FF62E142FE22E809159
:101E00005F0280FF2CC0E82FE695F0E0E659FE4F18
:101E10009081909339028E7F823029F5473908F0FE
:101E200046E99E012F5F3F4F6F2D802F0E948F0745
:101E30004B8169818A810E944E0C00936002F0926E
:101E4000610210936202EE2051F060915F02709186
:101E5000600280916102909162020E94E20E2396DC
:101E6000E6E00C943633923019F410916202E5CF1B
:101E7000963019F400916002E0CF9930F1F6FACF74
:101E8000EFE5F2E0438128E0421B08F440E021E066
:101E9000628181810E94F50E0895EFE5F2E04381B1
:101EA00028E0420F08F44FEF21E0628181810E9417
:101EB000F50E0895EFE5F2E0628128E0621B08F478
:101EC00060E021E0438181810E94F50E0895EFE5F5
:101ED000F2E0628128E0620F08F46FEF21E04381B5
:101EE00081810E94F50E0895EFE5F2E0818121E005
:101EF0004381628188500E94F50E0895EFE5F2E07B
:101F0000818121E043816281885F0E94F50E0895FE
:101F100080916302882319F081508093630260915D
:101F20005F027091600280916102909162020E9452
:101F3000E20E089580916302833018F48F5F8093DE
:101F4000630260915F0270916002809161029091E2
:101F500062020E94E20E089590915F0290FF2CC0F1
:101F6000917081112AC0926090935F02662351F0B4
:101F700060915F02709160028091610290916202B3
:101F80000E94E20E60915F02669570E041E050E0D1
:101F90008CE091E00E944E33892BB1F010923A020E
:101FA00081E08093360220E04091620260916102FC
:101FB000809160020E94F50E08958F3010F09C61B0
:101FC000D3CF880F982BD0CF81E080933A020E9424
:101FD0003C069093340280933302E2CF80915F02FB
:101FE0008695815009F48EE061E00E94AC0F08955F
:101FF00080915F0286958F5F8F3008F081E061E00D
:102000000E94AC0F089590915F0290FF08C09695D2
:10201000981728F0961718F40E94F80F089561E0B9
:102020000E94AC0F0895EFE5F2E083E08083118217
:102030008FEF828386E9838314826081718182813C
:1020400093810E94E20E0895A8E0B0E0EAE2F0E198
:102050000C9410338E010F5F1F4F88E0F80111922E
:102060008A95E9F79BE4E92E91E0F92E68012FE4C7
:10207000422E21E0522E66246394712C4AE5842E70
:1020800041E0942EF70181917F018F3F09F445C013
:10209000F894E82FE295EF70F0E021A18F70A30192
:1020A00002C0440F551F8A95E2F7CA01922F982B60
:1020B00091A392A18095892382A3789400C0EFE434
:1020C000F1E021E030E0B12CA12C41914F3F09F427
:1020D00064C0A42FA295AF70B0E090968C9190E070
:1020E0004F7002C0959587954A95E2F780FD55C0DF
:1020F000C901A82AB92A220F331F8E169F0629F775
:10210000F701319780818F3F11F00E94270850EA34
:102110005A95F1F7F601B182A082F2E0CF0ED11C00
:102120004E145F0409F0AECF48E050E0B80184E0FF
:1021300092E00E945B33892B99F188E0F801A4E0DA
:10214000B2E001900D928A95E1F781E0809303025D
:102150000E943C069093020280930102809101024A
:10216000909102020E9421060597F0F048E050E0AD
:1021700064E072E08BE292E00E945B33892BC9F04D
:1021800088E0E4E0F2E0ABE2B2E001900D928A95E3
:10219000E1F781E01092030208C090E080E0A9CF4F
:1021A000809103028111DACF80E02896E0E10C945F
:1021B0002C3380E0EFCF80913E0390915A04892B1D
:1021C00080938A018091FF01882309F18091610346
:1021D00090916203892B29F00E943C0A81110E9490
:1021E000020A80918A019091FF01892B80938A01D4
:1021F00020E08CE891E0FC013191CF0131112F5F9B
:10220000F1E082399F07B9F721110E94020A48E0E4
:1022100050E065EF71E08AE891E00E945B33892B22
:10222000A9F088E0EAE8F1E0A5EFB1E001900D92B5
:102230008A95E1F7E0913604F0913704309731F058
:102240000280F381E02D8AE891E009950895CF930B
:10225000DF93EC01EA85FB85309719F06C857D856D
:1022600009958B810E94210A8C810E94280A0E9474
:10227000DB1086E0FE0111928A95E9F7DF91CF919C
:102280000895CF93DF93EC018D8181FD15C08260AD
:102290008D8380915A049B81892B80935A048C8171
:1022A0000E942F0A0E94DB10E885F985309721F003
:1022B0006C857D85CE01099510923304109232040D
:1022C0008D8180FD03C0CE010E942711DF91CF9147
:1022D000089580910F01877F80930F0182E00E9413
:1022E000210A80910F0184FF06C08F7E80930F0129
:1022F00082E00E942F0A80910F0185FF06C08F7D2A
:1023000080930F0180E20E942F0A0E94DB10089543
:1023100090E080E00E945E0690E080E00E94480627
:1023200010925A040E94DB100895809359040E9471
:102330008811089580915904982F9670963021F451
:1023400088600E9495110895877FFBCF21E030E0DF
:1023500001C0220F8A95EAF72095809159048223C3
:102360000E94951108959091F4018095892380939E
:10237000F401282F277091F4282F082E000C330B1E
:102380009217130659F090913D0392FF07C085956F
:10239000859585950E94A6110E94350A0895909111
:1023A0003D0392FB222720F9281769F080FB92F960
:1023B00090933D0380913C0390913D030E945E0EFB
:1023C00082E00E94B311089521E030E001C0220FA5
:1023D0008A95EAF780915904822B0E9495110895FD
:1023E00090913D0392FF10C098E0899F90011124C5
:1023F000622B6093F4010E94E4110E943C069093CA
:10240000F3018093F20108950E94E41108958093EE
:1024100000020E948811089510923E03ECE8F1E05A
:1024200086E0DF011D928A95E9F70E9488110895E0
:10243000AAE2B0E0EEE1F2E10C941D3380E594E015
:102440002091F100DC012D93CD01B4E088359B078C
:10245000B9F780915104833009F472C0B8F4813027
:1024600009F449C0823009F4B3C08091E80083FFC9
:1024700096C280915004909151049A3008F08FC216
:10248000E92FF0E0E652FC4C0C9401338A3009F459
:102490008EC08B3009F471C0893039F780915004B7
:1024A000813219F78091540490915504009711F0EE
:1024B0000297D9F68091E800877F8093E8008091A9
:1024C000E80082FF38C09091F3008091F2000297FB
:1024D00031F48091F100813011F0863021F4809147
:1024E000F100809344048091E8008B778093E800AA
:1024F0000E941105BACF80915004813A09F0B5CFFE
:102500008091E800877F8093E80080915404909147
:102510005504892B61F468E085E494E070E00E9442
:10252000BD058091E8008B778093E8009ECF60E046
:1025300090E080E0F3CF809158048111C0CF95CF17
:1025400080915004813A09F090CF80915404909189
:102550005504892B09F089CF8091E800877F80930B
:10256000E8008091E80080FFFCCF8091110180930A
:10257000F1008091E8008E77B9CF809150048132CC
:1025800009F073CF8091540490915504892B09F080
:102590006CCF8091E800877F8093E8000E9411054E
:1025A00080915204809311010E940C125ECF8091A1
:1025B0005004813209F059CF8091E800877F8093E1
:1025C000E8000E94110580915304809343044DCF8D
:1025D00080915004813A09F048CF8091E800877FCC
:1025E0008093E8008091E80080FFFCCF8091430455
:1025F000BECF803899F0823809F0D1C1809154045F
:102600008F70873008F0CBC18093E9008091EB0098
:1026100085FB882780F91092E90006C080914D045F
:1026200090914E04911182609091E800977F909371
:10263000E8008093F1001092F1008091E8008E771D
:10264000AAC1882309F498C1823009F0A8C18091F9
:10265000520481119BC1809154048F702FEF280F79
:10266000263008F09CC18093E9002091EB0020FF08
:102670008DC1933031F48091EB0080628093EB0048
:1026800085C19091EB0090619093EB0021E030E0E8
:1026900001C0220F8A95EAF72093EA001092EA001F
:1026A0008091EB008860EACF811179C110915204CA
:1026B0001F778091E3008078812B8093E3008091E5
:1026C000E800877F8093E8000E9411058091E80070
:1026D00080FFFCCF8091E30080688093E30082E07C
:1026E000111183E0809358045AC18058823008F059
:1026F00056C120915204309153042C3DE3E03E0733
:10270000A1F583E08A838AE289834FB7F894DE01DA
:10271000139620E03EE051E2E32FF0E050935700A3
:10272000E49120FF03C0E295EF703F5FEF708E2FC2
:1027300090E0EA30C0F0C7968D939D932F5F2431CF
:1027400059F74FBF8091E800877F8093E8006AE2E5
:1027500070E0CE0101960E94BD058091E8008B7764
:102760008093E8001CC1C096E7CF809154049091FB
:102770005504432F55274330510509F44AC078F5D5
:102780004130510509F485C08BE590E0EEEFF6E0AD
:102790004230510509F003C12091E800277F2093C2
:1027A000E80020915604309157048217930708F4EB
:1027B0009C0140E02115310509F070C041116EC047
:1027C0008091E80082FDC9CF80915804882329F2C6
:1027D000853019F28091E80083FFF2CFBECF4132FD
:1027E000510509F447C04232510509F0D8C0833081
:1027F000910508F0D4C0FC01EE0FFF1FE458FE4F16
:102800000190F081E02D87589E4FDC018C9190E083
:102810001DC0332721303105E9F02115310579F04C
:1028200022303105F9F02330310509F0B8C0EBE66C
:10283000F7E0E4918E2F90E0EBE6F7E007C0E5EBE0
:10284000F7E0E4918E2F90E0E5EBF7E0009709F4D4
:10285000A6C0A2CFEBE9F7E0E4918E2F90E0EBE980
:10286000F7E0F4CFE9E8F7E0E4918E2F90E0E9E8B3
:10287000F7E0ECCF8330910508F091C0880F991FE5
:10288000FC01EE57FE4F0190F081E02D89E090E0D1
:1028900083CF82E190E0E9E5F7E07ECF80915804B4
:1028A000882309F45ACF853009F457CF8091E80086
:1028B00083FD53CF8091E80082FD82CF8091E800B4
:1028C00080FF78CF9091F3008091F20021153105BF
:1028D00019F08830910550F041E0089709F040E088
:1028E0008091E8008E778093E80064CF4491409314
:1028F000F1003196215031090196E8CF803809F076
:102900004EC08091E800877F8093E80080914F045B
:102910008093F10092CE811142C010915204123086
:10292000F0F58091E800877F8093E80010934F04D2
:102930000E941105112311F084E005C08091E3008D
:1029400087FDFACF81E08093580442E061EC81E09A
:102950000E94300542E261EC84E00E94300542E2D0
:1029600061EC82E00E94300542E260EC83E00E946C
:1029700030058091580413C080915204813079F45D
:1029800081E0933009F080E080934E041092E900DA
:102990008091E800877F8093E8000E941105809174
:1029A000E80083FF0AC08091E800877F8093E800F9
:1029B0008091EB0080628093EB00AA96E3E00C9498
:1029C0003933EFE5F3E0128E138E8FEA90E09183B6
:1029D000808385E0848F28E833E13383228322E3F8
:1029E00030E0378B268B28EC30E0318F208F158E2E
:1029F000178E168E20E530E031A320A382A30E941B
:102A0000D70D0E940C1210923D0310923C03EDE38F
:102A1000F3E080818460808380913C0390913D034A
:102A20000E945E0E0E949E0C0895A4E1B0E0EBE1CE
:102A3000F5E10C941333A0903603B090370381E096
:102A400090E090933703809336038EE0C82E85E0A4
:102A5000D82E00E0760110E015C0F40125913491E4
:102A6000472D612F802F0E941F0E82E0880E911C3F
:102A70007394EBE07E12F1CFF6E1EF0EF11C1F5FD5
:102A8000143019F04701712CE8CF0F5F88E5C80EAC
:102A9000D11C0430F9F60E94E1141A8219821C82BA
:102AA0001B821E821D8218861F8288EC90E09A8706
:102AB00089870BEB11E04AE050E0B801CE010196A6
:102AC0000E94C033065F1F4F0B30E2E01E0799F7EC
:102AD0007E01FBE0EF0EF11C8AE0F70111928A956E
:102AE000E9F74AE050E0B801C7010E94C033065F31
:102AF0001F4F0B35F2E01F07A1F7B0923703A092EA
:102B000036036496EDE00C942F3380E00E94450E6E
:102B100060E086E290E00E949C330E9415150E94BE
:102B20000F0E81E00E94450E089568EE7EEF90E062
:102B300080E00E94BA3360E082E090E00E949C3323
:102B400060E083E090E00E949C331092000260E01D
:102B500084E090E00E949C3364E082E290E00E9476
:102B60009C3360E085E090E00E949C3360E086E06A
:102B700090E00E949C336FEF87E090E00E949C33CE
:102B800040E050E0BA0188E090E00E94AE3360E09F
:102B90008DE090E00E949C3340E050E0BA0188E173
:102BA00090E00E94AE3360E087E190E00E949C33A9
:102BB00040E050E0BA018CE190E00E94AE3370E05A
:102BC00060E080E290E00E94BA3340E050E0BA0159
:102BD00088E190E00E94AE3380E00E94450E0E94A2
:102BE000851540E050E0BA018FE090E00E94AE33DE
:102BF00040E050E0BA0183E190E00E94AE330895D6
:102C0000CF92DF92EF92FF928FEF9FEF443051050A
:102C100008F46AC0FB01C080D180E280F3800E948A
:102C20000C1280913C03C0FA80F9B701A601769599
:102C300067955795479540FB81F9B701A60122E0BA
:102C400076956795579547952A95D1F740FB82F978
:102C5000B701A60133E076956795579547953A9564
:102C6000D1F740FB83F9B701A601E4E076956795BB
:102C700057954795EA95D1F740FB84F9B701A6012E
:102C8000F5E07695679557954795FA95D1F740FB0E
:102C900085F9B701A601A6E0769567955795479502
:102CA000AA95D1F740FB86F9B701A601B7E0769562
:102CB000679557954795BA95D1F740FB87F980936B
:102CC0003C0380913D03D0FA80F9D1FACC24C0F8BE
:102CD000C0FA81F980933D0380913C0390913D03BC
:102CE0000E945E0E90E080E0FF90EF90DF90CF902A
:102CF00008950E940C122FEF84E39CE02150804045
:102D00009040E1F700C0000088E19CE00FB6F89425
:102D1000A895809360000FBE90936000FFCF88233A
:102D200021F00E94210A0E94DB100895882339F0C7
:102D300090915A04982B90935A040E94DB100895A6
:102D4000882321F00E94280A0E94DB10089588231E
:102D500021F00E942F0A0E94DB100895882309F4B5
:102D60004DC0823879F40E94740681FF47C089E320
:102D70000E94630A0E94DB1089E30E94560A0E94A7
:102D8000DB100895833859F40E94740680FF36C022
:102D900083E50E94630A0E94DB1083E5EECF84384E
:102DA00059F40E94740682FF29C087E40E94630AD6
:102DB0000E94DB1087E4E1CF9CEF980F913AE8F294
:102DC00090E2980F983050F4877091E001C0990F0D
:102DD0008A95EAF7892F0E94280AD1CF9BE5980FA0
:102DE000933028F490E080E00E945E060895885AAF
:102DF000873120F490E080E00E9448060895CF9348
:102E0000DF93EC010E94AE16CE010E942C0B9E01B6
:102E1000205E31092830310510F0CD2B29F40E94B5
:102E2000A016DF91CF9108950E948F16FACFCF930D
:102E3000C82F8823C9F08238C9F40E94740681FD26
:102E400013C089E30E94630A0E94DB102FEF87EE14
:102E500093E0215080409040E1F700C0000089E3FA
:102E60000E94560A0E94DB10CF9108958338A1F486
:102E70000E94740680FDF8CF83E50E94630A0E94D9
:102E8000DB102FEF81EE94E0215080409040E1F77D
:102E900000C0000083E5E4CF8438A1F40E947406EA
:102EA00082FDE2CF87E40E94630A0E94DB102FEFCD
:102EB00081EE94E0215080409040E1F700C0000096
:102EC00087E4CECF8CEF8C0F813A68F4ECE8F1E028
:102ED0008191C81781F121E0E239F207C9F78C2FFF
:102EE0000E94630ABFCF80E28C0F883048F4C7701D
:102EF00081E001C0880FCA95EAF70E942F0AB2CF7D
:102F0000EBE5EC0FE33040F4F0E0E65EFE4F80814D
:102F100090E00E945E06A8CFC85AC73108F0A4CF3F
:102F2000EC2FF0E0EE0FFF1FE35EFE4F80819181FA
:102F30000E94480699CF8C2F0E94560A0E94DB10EF
:102F4000CECF1F93CF93DF93182FC0917F03D091E3
:102F50008003893321F0C0917D03D0917E03812FBE
:102F60000E941717209739F4812F0E94AE16DF9127
:102F7000CF911F9108958FE99FE00197F1F700C06D
:102F800000002197EFCFB0E0A0E0E9ECF7E10C946E
:102F90001633EC018AE0A82E2881222309F48FC081
:102FA0002130C9F599818A81913021F422960E94BD
:102FB000A11705C0923029F422960E941717219676
:102FC000EBCF933021F422960E94AE16F8CF9430C6
:102FD00011F02196F4CF229630E020E0AE014F5F51
:102FE0005F4F8053990B8A30910550F02150310981
:102FF00030F38FE99FE00197F1F700C00000F6CFB2
:10300000A29EB001A39E700D11249C01260F371FB4
:103010008981EA01E3CFE22FF0E0E751F84FB49065
:10302000822F86958695869590E0FC01E752F84FB1
:10303000E4902770F12C022E02C0F594E7940A94D4
:10304000E2F731E0E322FF24FC01E753F84FC4909C
:10305000D12C022E02C0D594C7940A94E2F731E035
:10306000C322DD24FC01E754F84F049110E002C0B4
:10307000159507952A95E2F701701127E114F104DF
:1030800019F081EE0E941717C114D10419F086EED1
:103090000E9417178B2D0E94A117C114D10419F09B
:1030A00086EE0E94AE16E114F10419F081EE0E9442
:1030B000AE160115110509F482CF8CE278CFCDB799
:1030C000DEB7EAE00C943233B0E0A0E0EAE6F8E1E3
:1030D0000C9416337C015B01C42FD22FFC0182813A
:1030E0008823A9F0409331040E943C069093300459
:1030F00080932F04C77081E001C0880FCA95EAF75A
:103100000E94A716CDB7DEB7EAE00C9432331091D7
:103110003104141338C080912F04909130040E9420
:1031200021066C01B701C5010E94800EC816D906A0
:1031300050F5C0E2CD0F1D17C1F080E2810F88303D
:1031400048F4177081E0012E01C0880F0A94EAF755
:103150000E94A016C83048F481E09D2F977001C0EE
:10316000880F9A95EAF70E94A716802F0E94A11750
:10317000C83040F6D77081E001C0880FDA95EAF7D1
:103180000E94A016BFCFC77081E001C0880FCA950A
:10319000EAF7F6CFCF93DF93EC010E942C0B9E0150
:1031A000205E31092830310510F0209741F40E944B
:1031B000A7168C2F0E941717DF91CF9108950E94B8
:1031C0009616F7CF662329F020915A0422602093A7
:1031D0005A049C013056211540E2340720F0305E3D
:1031E0002115304108F499270E94CA180895B0E0CB
:1031F000A0E0EDEFF8E10C9419337C018B01D42EA3
:1032000080910F0182FF8CC0C0918503D09186030D
:10321000CE15DF0521F0E114F10409F081C08091A1
:103220000F018B7F80930F0181FD73C08091830319
:1032300090918403A801481B590B81E020910D0156
:1032400030910E014217530708F480E08170F82E88
:1032500080910F01F0FA81F980930F01FE0183E064
:10326000F695E7958A95E1F7EE71FF27E15CFC4F53
:1032700020813181AE014F70552781E090E002C07E
:10328000880F991F4A95E2F7FF2009F444C0822B6A
:10329000932B9183808380913E0381FF08C08091AE
:1032A0000F01806180930F0182E00E94280A8091C3
:1032B0003E0385FF08C080910F01806280930F015B
:1032C00080E20E94280A6F2DCE010E94E218DD20C4
:1032D00031F080917A0385FF02C086FF3BC0809168
:1032E0007D0390917E030E94E20B80918503909173
:1032F00086039C013056211540E2340720F0305EF1
:103300002115304108F499270E94FF160E94691187
:103310001DC081E09BCF8095909582239323B9CFE8
:10332000C701992797013056211540E2340728F04C
:10333000305E2115304108F0C7010E94FF168091D0
:103340008503909186038E159F0501F310938403E6
:1033500000938303CDB7DEB7E7E00C943533A4E0E8
:10336000B0E0E5EBF9E10C9415337C01DC01139638
:103370004D915C91149711966C9111978C910E94CC
:1033800081068111EEC061E0C7010E948C0D8C01A5
:10339000F70182818823E1F0809132049091330417
:1033A0000097B1F00817190799F0FEE08F9FC00150
:1033B0001124FC01E558FD4F2081246020838A58A8
:1033C0009D4FDC010D931C930E94411110925A04F1
:1033D000F7018281882311F40C940B229801225169
:1033E0003F452031310508F087C78FEF93E00E94F9
:1033F00088338111A6C06EEED62ED00E0BE512E0FA
:10340000D11036C019821A821B821C8299249A9488
:1034100068012FEFC21AD20AC8010E94883389833B
:103420001A82882309F48DC0813009F07FC05801C9
:1034300032E0A30EB11CC6010E948833C82E8A83D5
:10344000882309F47EC0C5010E948833D82E8FEFEF
:103450008C0D8330D8F4580143E0A40EB11CDB82FC
:10346000DD2021F0CE0101960E94C3178501D0CF47
:103470000115F4E01F0709F464C0C8010E948833F5
:10348000811101C0DA940F5F1F4FBACF8BEF8C0D03
:10349000833030F5C8010396DB825C01DD2031F317
:1034A000580154E0A50EB11C0E9488338C838823F8
:1034B000E9F28B819C818130AFEF9A0710F0982F51
:1034C0008827B6E0CB1631F0E7E0CE1631F00E9447
:1034D000F828CCCF0E94D228C9CF0E945928C6CF45
:1034E000F4E0CF12C3CF580124E0A20EB11CC801F2
:1034F00003960E948833DD2021F1882311F1815049
:10350000990B989E9001999E300D11244D2D41509C
:10351000550BCA01820F931F019708F4A7CFAFE99B
:10352000BFE01197F1F700C00000F6CFCE01019681
:103530000E94C31756019ACF81E00E94E4110E94B5
:103540009A118091F401877061F0D70112968C91E5
:10355000882339F080913D0382FF03C082E00E94FE
:10356000B3112496EBE00C94313381E00E94A61154
:10357000E6CF82E0E2CF823009F0FFC68091700290
:1035800090917102892B09F4F8C62EE02C9DC001A0
:103590002D9D900D1124FC01E558FD4F20812E7FBB
:1035A00020838A589D4F0E944111E7C62FEFC21613
:1035B000D10409F008F4E1C680917A0380FF39C094
:1035C0000E943C066C01D70112968C91882309F465
:1035D00068C080910F0182FF08C02AE132E040E01C
:1035E000B60190E080E00E94F7180B31BCE51B07A4
:1035F00009F449C00C31ECE51E0709F44AC090916A
:103600000F01892F8E7F90FF81600A31FCE51F0733
:1036100009F442C0C8019056811520E2920728F0B3
:10362000905E8115904108F04AC010928603109276
:103630008503033FBCE51B0709F494C108F036C1BC
:10364000083DFCE51F0709F487C1093D2CE5120779
:1036500009F4A0C1073D3CE5130709F033C106E2B8
:1036600021EE41EE67ED7CE5C7010E94641869CF49
:10367000902F812FCBC6F601858181FF9DCFC6019A
:103680000E94271199CF80910F01816080930F01D3
:10369000C1CF80910F018E7F80930F010E9469112D
:1036A000B9CF80910F018F7E013E110531F0053EAB
:1036B0001105C9F480910F018F7D80930F018091D6
:1036C0000F0180FFB6CFD70112968C9108321105F9
:1036D00028F50E31110508F072C00430110580F58F
:1036E0008111A3CFA6CFC8019056811540E294075F
:1036F00020F0905E8115904110F780910F0182FFBC
:1037000098CF80917C0381FD94CF2AE132E040E0A4
:10371000B60190E080E00E94F7188BCF09331105C5
:1037200058F40D32110518F40B321105C9F69091B9
:103730007A0392FDD5CF08C004361105C1F3D0CF6E
:1037400090917A0394FDCCCF882309F4A8C080918E
:10375000FF0190913E03892B8D7FB1F1109286037A
:103760001092850380917A0381FD2EC0F80143E019
:10377000F695E7954A95E1F7EE71FF27E15CFC4F7E
:1037800098012F70332781E090E002C0880F991FC5
:103790002A95E2F7809590952081318182239323A9
:1037A0009183808360E0C8010E94E2188091FF014C
:1037B0008D7F0E940D0A82E00E94B311C2CE9091CB
:1037C0007A0393FD8DCFC0CF88E0F701AAE1B2E084
:1037D00001900D928A95E1F710921C0210921E0240
:1037E00010921D0280918503909186030817190796
:1037F000D1F520917A0325FF36C030910F0131FFBA
:1038000002C026FF30C0209183033091840356010B
:10381000A21AB30AB7010E94800EA816B90618F5BD
:1038200080913E0381FF08C080910F0180618093E9
:103830000F0182E00E94280A80913E0385FF08C0A4
:1038400080910F01806280930F0180E20E94280A1C
:1038500060910F0166956170809185039091860358
:103860000E94E2186ECE8091FF0190913E03982B4A
:1038700020910F0191FB21F920930F018D7F0E9470
:103880000D0A1093860300938503D0928403C0929F
:10389000830380910F01846080930F018CCF970187
:1038A00040E0B601C8010E94F7184BCE053F4CE539
:1038B000140709F463C008F45BC0063F8CE51807E1
:1038C00009F462C0D70112963C91332309F4AFC5C5
:1038D000109231040330BDE51B0708F061C00A3FB8
:1038E000ECE51E0730F4C80182509C45449708F06F
:1038F00062C00E94B30D90933D0380933C0302315C
:103900005CE5150709F47FC108F0CFC009309CE5DC
:10391000190709F456C108F099C00530BCE51B072A
:1039200009F443C108F080C00330FCE51F0709F427
:1039300034C108F036C180913C03816002303CE51F
:10394000130709F4AFC080913C0390913D030E949E
:103950005E0E0E940C12F5CD07E225EE45EE68EDF5
:103960007CE582CE06E221EE40EE63EF7CE57CCE84
:1039700007E225EE44EE64EF7CE576CE06E221EE2A
:1039800042EE65EF7CE570CE07E225EE46EE66EF8F
:103990007CE56ACE08E221E045EE69ED7CE564CE87
:1039A000053AFDE51F0709F4A4CFC0F501364DE542
:1039B000140709F49ECF06315CE5150709F0F6C13E
:1039C00080913E03982F9A7A2091790320FF04C0BA
:1039D000482F447409F090E021FF04C0482F417142
:1039E00009F090E022FF04C0482F487809F090E0E9
:1039F00023FF03C0827209F090E0332309F42DC144
:103A000081E0911101C080E08093920189E29111DF
:103A100085E30E94630A0E94DB1093CDC8018D5A92
:103A20009D45039740F665CF80913C038062073047
:103A30004CE51407B9F180913C03806108305CE5E6
:103A4000150780F180913C0380642CC00D308CE51B
:103A5000180709F4C0C090F480913C038E7F0B30AE
:103A6000ACE51A07F9F080913C038C600C30BCE5A2
:103A70001B07C0F080913C038D7F14C00F30ECE534
:103A80001E0709F4B8C008F4AAC000312CE51207DB
:103A900009F4B5C080913C038F7B01313CE51307ED
:103AA00009F051CF80933C034ECF0F3F4CE51407F4
:103AB00009F4B3C0A8F50A3F8CE5180709F479C0EA
:103AC000C0F40431ACE51A0709F4B5C008F4A1C08C
:103AD0000531ECE51E0709F036CF80913C0382FBEF
:103AE000992790F921E0922790FB82F990FB83F9C6
:103AF000D9CF0C3FFCE51F0709F475C008F45DC081
:103B00000D3F3CE5130709F472C080913D038360CB
:103B10000E3F4CE5140709F016CF80933D0313CFF9
:103B200001365DE5150709F491C090F401309DE57B
:103B3000190709F489C008F474C060E00230BDE5DB
:103B40001B0709F000CF8EE090E00E949C33FBCE73
:103B50000D3AEDE51E07E9F060F490913C03892FE2
:103B60008E7F90FF8160053A2DE5120709F49ACF08
:103B7000EACE0E3A3DE5130751F10F3A4DE5140731
:103B800009F0E1CE90913D03892F877F93FF8860F4
:103B9000C4CF80913D038860C0CF80913C03826098
:103BA00081CF80913C0384607DCF80913C0388600D
:103BB00079CF80913D038160B0CF80913D038260D9
:103BC000ACCF0E940C1280913C0380686BCF809137
:103BD0003D03877FA2CF80913C038B7F63CF809191
:103BE0003C03877F5FCF80913D038E7F96CF80918E
:103BF0003D038D7F92CF80913C038F7E53CF809188
:103C00003C038F7D4FCF0E940C1280913C038F7735
:103C100049CF80913C03837F45CF80913D038C7FCA
:103C20007CCF80913D03982F909591708E7F892B4A
:103C300090FB81F972CF0E940C1290913C03892F66
:103C400097FB87F980582ECF61E07DCF90913C03A0
:103C5000892F8F7E94FF806125CF80919201811101
:103C600004C089E20E94560AD6CE85E3FBCF073C0A
:103C70004CE5140709F47BC008F474C0083C9CE5CB
:103C8000190709F479C040E45FE06DE47FE0093C86
:103C9000ACE51A0709F0EDC30E94730752CC0F3C44
:103CA000BCE51B0709F47FC0B0F40C3CFCE51F0722
:103CB00009F471C008F46AC00D3C3CE5130709F42F
:103CC0006FC065E082E00E3C4CE5140709F0D1C3FB
:103CD0000E94031036CC063D5CE5150740F4013D1B
:103CE0008CE5180708F02DCC6EE089E0F1CF0D359A
:103CF000100709F426CCBDC380915F0280FF1BC072
:103D00008E7F80935F0260915F027091600280916C
:103D10006102909162020E94E20E10923A02AFEFAD
:103D2000B0E7E2E0A150B040E040E1F700C00000A1
:103D30000E94EC0B06CC816080935F0261E0869567
:103D40000E94AC0FFECB4EEE5FE068EF7FE0A4CFA9
:103D500048EF5FE06EEE7FE09FCF44E75FE06EE705
:103D60007FE09ACF4EE75FE064E77FE095CF4AE5DA
:103D70005FE067E67FE090CF47E65FE06AE57FE0DF
:103D80008BCF4DE45FE060E47FE086CF48E85FE002
:103D90006AE97FE081CF4AE95FE068E87FE07CCFB5
:103DA00061E081E0CDCF68E086E092CF0A35FDE5A5
:103DB0001F0771F158F401153CE5130791F00E3D12
:103DC0001C4509F056C30E94951509C00C355DE5E8
:103DD0001507A1F0F8F0073A1D4509F04AC30E9403
:103DE00079160E940C12AFEFB4E3ECE0A150B040A2
:103DF000E040E1F700C000000E94BE0B80913D034F
:103E000082FB882780F991E089270E94CF1131C376
:103E100081E0FBCF80E0F9CF82810081118188238E
:103E200069F0C8010E94100DD82E682FC8010E94A9
:103E3000DA0AB8018D2D0E94F30C21C3C8010E943B
:103E4000A60AD82EF6CF202F2F70B22E802F807F7B
:103E500019F0B29490EFB922CC20A9F0BB2059F010
:103E600080E2810F883010F0111107C08B2D0E9465
:103E70002F0A0E94DB10812F5AC080915A04B82A61
:103E8000B0925A04F6CF812F0E94AE16BB2009F4DF
:103E900050C080E2810F883010F0111104C08B2DCA
:103EA0000E94280A03C08B2D0E94210A0E94DB1069
:103EB00040C0302F3F70B32E802F807F803219F0AA
:103EC000B29480EFB822112321F1113009F4AEC071
:103ED000CC2009F4B7C0DD2009F47FC020E0D70171
:103EE0004C9111965C91119712966C9112971396C2
:103EF0007C91139714968C910E94690D80917C039C
:103F000081FDB9CFF701858180FFB5CF8F708583A3
:103F100064C080913D0382FD40C0CC20C1F1BB2034
:103F200029F08B2D0E942F0A0E94DB1080E00E9456
:103F30001717A92DA850BB0B149710F40E947406F4
:103F4000812F902F0E94110B8111B7C11092950102
:103F500010929401AA20B1F08091F40180FD12C06A
:103F6000D70112961C928595859585950E94E4113E
:103F7000C7010E94AF198091F401859585958595BB
:103F80000E94A61160E0C7010E948C0DEACA80E081
:103F90000E94AE16BB2069F282CFCC2011F1D11065
:103FA00004C08091FF018B2919C041E0D41206C0E2
:103FB0008091FF018B290E940D0ABBCF80917B036A
:103FC000823078F3D812EDCF0E94020A90919301CB
:103FD0008B2D892B8913809393018B2D0E94A7161B
:103FE000A8CFD11003C00E94020A17C080917B03A2
:103FF00051E0D51216C0823008F49BCF80913E0369
:104000008B2109F496CF0E94020A909193018B2D87
:10401000809589238913809393018B2D0E94A0168C
:1040200088CF823000F3D812DECF83CF8091810316
:10403000CC2021F08D1508F47CCFCFCFD81608F016
:1040400078CFEBCFDD2049F380917F0390918003FF
:10405000193321F080917D0390917E030E94E20B41
:10406000812F0E94AE1665CF802F8695869583702E
:1040700069F0813009F05DCF812F902F9370C110CE
:1040800002C090E080E00E94480653CF812F902F1D
:104090009370C11002C090E080E00E945E0649CF9C
:1040A000802F837091F5C11044CF412F42954695E2
:1040B0004770440F440F812F8F70042E01C0880F6A
:1040C0000A94EAF7212F207114FF07C02FE030E097
:1040D00001C0220F4A95EAF72095302F3695369584
:1040E0003370323069F050F440910002313029F0E1
:1040F000822B84230E9407121CCF842B822BFACFA1
:10410000282B809100028227F5CF8695CC2011F0D4
:10411000802F8170882309F40CCF412F429546955A
:104120004770440F440F812F8F70042E01C0880FF9
:104130000A94EAF7212F207114FF07C02FE030E026
:1041400001C0220F4A95EAF72095302F3695369513
:104150003370323069F050F440915904313029F015
:10416000822B84230E949511E4CE842B822BFACFDC
:10417000282B809159048227F5CFF02FFF70BF2E96
:10418000CC2029F08F2F0E94E411812F27CF812F7F
:104190000E94A0168B2D0E94A611CBCE123F89F152
:1041A00060F4103FB9F0113F81F0CC2009F480C0D9
:1041B000D11061CE802F8F7128C0133F49F1143F79
:1041C000A1F780913D0382FD2FC0802F8F71CC20FD
:1041D00011F31BC080918103CC2079F0D81608F030
:1041E000A8CE202F2F7181E090E001C0880F2A9582
:1041F000EAF7909159048927B5CF8D1508F499CE27
:10420000F0CF802F8F71C110C6CF0E94E41191CEE4
:1042100080E0CC2009F4A6CF81E0902F9F7101C0EF
:10422000880F9A95EAF79ECF80917B03823040F108
:10423000CC20D1F09091F4019770943041F40E9419
:10424000350A802F8F710E94A611A12C72CED8162C
:10425000E0F7202F2F71B22E822F0E94E41163E02D
:104260008B2D0E94F011F1CFD81630F00E94350A44
:1042700064E0802F8F71F5CF81E00E94B311E5CF0C
:10428000CC2059F0302F3F71B32E832F0E94E411C0
:1042900063E08B2D0E94F0114CCE81E00E94B3119F
:1042A00041E04D1508F045CE82E00E94B31141CEA9
:1042B000D110CACE802F8F716ECFCC2019F0D110C3
:1042C00045CE48CED11042CE20E0F7014081518149
:1042D0006281738184810E94690D80917C0383FFD8
:1042E00035CE8091940190919501029709F02ECEE0
:1042F000812F0E94A1172ACE0031BFE51B0709F4C8
:104300001BC90131EFE51E0709F433C96801E7E570
:10431000DE1A81114BC9FFEFCF16D10411F008F05E
:104320004BC96CE672E08C2D0E946C0E892B29F52E
:104330008EE08C9DF0018D9DF00D1124EA58FD4F0B
:104340008281813009F017C980916C0290916D02D1
:10435000892B99F080916E0290916F02892B69F000
:1043600080917002909171022091720230917302DB
:10437000822B932B892B09F408C95801BB243EE0FA
:10438000039FF0011124AF014A585D4F6A01D70124
:1043900012968C91E558FD4F908180FB90F99083A7
:1043A000882309F468C90E943C06909319028093FF
:1043B0001802D60112968C9112978F5F12968C93E9
:1043C000129780915A0490913E03892B13968C93F7
:1043D00013978091FF0114968C9314971696ED9184
:1043E000FC911797309729F01C966D917C91C6012E
:1043F00009958EE08A9DF0018B9DF00D1124EA58FD
:10440000FD4F858181FF34C990E080E090933204B4
:1044100080933304D1C80031FFE51F0709F4A5C814
:1044200001312FE5120709F071CF82E09FC80631F4
:10443000BCE51B0709F4C4CA80913E0382720A3CA2
:104440009CE5190709F49DCC08F029CC053CBCE596
:104450001B0709F482CC08F00ACC033CFCE51F07DB
:1044600009F471CC08F074CC023C3CE5130709F464
:1044700043CCF70186819781009709F4CDCC0E9447
:104480008108182F092FF701C280D580D2943FE010
:10449000D3228091F4018770C1F0AC2CCC20B1F014
:1044A000892F807F803421F080E2810F883068F08E
:1044B00080913D0382FF09C082E00E94B311809188
:1044C000F4018770AA24A3948111A12C902E9294B8
:1044D0002FE09222FBE0F91508F42BCDE92DF0E056
:1044E000EC51FC4C0C940133B0E0A0E0EAE7F2E2BE
:1044F0000C9418338091AD01807F31F48091AA0132
:10450000C091F101811107C0CDB7DEB7E8E00C948E
:1045100034332196C7708091B0018C17A9F3F090C5
:10452000A801E090A901C090AB01D090AC01A60118
:104530006E2D8F2D0E948106D0E08111EACF8E0171
:1045400083E0000F111F8A95E1F7F801EF54FE4F49
:1045500081818E11DECF80818F11DBCF828181112D
:10456000D8CFE380F480EC18FD0860E088EA91E0A1
:104570000E948C0D68EA71E00E94800EE816F90630
:1045800040F68091AD018F7080618093AD01F8019C
:10459000EA54FE4F80818F708061808388EA91E0C9
:1045A0000E94AF190E949C0AAFCFA5E1B0E0EBEDED
:1045B000F2E20C9411338C0185E0F801DE01519692
:1045C00001900D928A95E1F7D8015C9011966C905C
:1045D00011971296EC9012971396CD90DC9060E0B4
:1045E00088EA91E00E948C0D88EAA82E81E0B82E1E
:1045F0008090AB019090AC01A4016091A9018091E1
:10460000A8010E9481068111A8C1F090AA01F601BB
:10461000E819F9094F0160E0FF2009F44BC1C50119
:104620000E948C0DB5010E94800E7090AD0188161D
:10463000990608F0F2C04091AB015091AC01B090E6
:10464000A801A090A901872D807F6A2D09F08CC058
:104650008B2D0E948106FE2C811127C0D801119656
:104660008C9111978A1121C08C918B111EC02091C1
:10467000AE013091AF0116968D919C9128173907A4
:10468000A1F4E11012C0872D8F7080618093AD017D
:1046900088EA91E00E94AF198091AD01F80185830D
:1046A0008F2D6596EFE00C942D33A601662D852D98
:1046B0000E948106D82E81E08E25D11080E080FFF7
:1046C00018C04E2D662D852D0E947C0A882389F006
:1046D00080917C0380FF0DC088EA91E00E94AF19B1
:1046E00088E0E8EAF1E0DF011D928A95E9F7F12C14
:1046F000D7CF81E08E25D11080E0B82FB170CB2EBE
:1047000080FF29C04E2D662D852D0E947C0AD82E53
:10471000811121C0598A6A8A89899A890E943F0D2C
:10472000292F22952F70223050F0243078F49F707A
:1047300051F0F8019581907F31F4FD2CB1CF9F703D
:1047400011F08823D1F3805E8830B8F3C8010E944D
:10475000AF19DC2CF2CFEE2009F4A2CF8091AD018D
:1047600081608093AD01C3CF8B2D0E9481068111A2
:1047700024C0D80111968C9111978A111EC08C917A
:104780008B111BC02091AE013091AF0116968D9117
:104790009C9117972817390781F4E1100EC01596E0
:1047A0007C92C8010E94AF1988E0F801A8EAB1E044
:1047B00001900D928A95E1F773CFC8010E944C0DCC
:1047C000882339F1EE2029F18091AD018032A0F0EB
:1047D0002091A8013091A9013A8729871B86DD869F
:1047E000CC868E878091AE019091AF01988B8F8798
:1047F000CE0109960E94AF1988E0F801A8EAB1E05D
:1048000001900D928A95E1F70E947422FF24F3949F
:1048100047CFC8010E94AF19F9CF872D807F09F4D7
:104820005BCF9090A8018090A9014091AB0150917D
:10483000AC01682D892D0E94810681111CC0F801F0
:104840008181881118C08081891115C02091AE0125
:104850003091AF01868197812817390761F4E11003
:104860000AC07582C8010E94AF1988E0D5011D9267
:104870008A95E9F715CFC8010E944C0D882349F2AB
:10488000EE2039F28091AD01803208F4B5CF20914D
:10489000A8013091A9013A8329831B82DD82CC8251
:1048A0008E838091AE019091AF0198878F83CE0166
:1048B0000196A0CF88EA91E00E948C0D68EA71E031
:1048C0000E94800E8816990680F6FE2CEE2009F4D0
:1048D000A0CFE090A801D090A9014091AB015091E8
:1048E000AC016D2D8E2D0E948106811128C0F8012A
:1048F00081818D1124C080818E1121C02091AE0153
:104900003091AF018681978128173907C1F48091D2
:104910007C0382FD49CF9091AD0190FD45CF907F02
:1049200009F442CF8091AD018583903F09F439CFDE
:10493000982F907F905F8F70892B858332CFC8012D
:104940000E944C0D811158CF8091AD018160809300
:10495000AD01C8010E94AF19A3CEEE2009F459CFD2
:10496000C8010E944C0DF82E882309F452CF88E02C
:10497000F801A8EAB1E001900D928A95E1F78091E3
:10498000A8019091A9010E943F0D0E94742288CE37
:10499000A0E1B0E0EEECF4E20C941E3329873A87F4
:1049A0004B875C876D877E878F87988BCE010996B2
:1049B0000E94D52281112FC088E0FE013996DE01C8
:1049C000119601900D928A95E1F74C855D856A8577
:1049D00089850E94810681111EC0A091B001B0E0BE
:1049E000CD010196877099272091F10128171906AA
:1049F000E1F093E0AA0FBB1F9A95E1F7AF54BE4FC9
:104A000098E0FE01319601900D929A95E1F780931E
:104A1000B0010E949C0A8091F1019091B00189132C
:104A200012C06096E2E00C943A330E940C1210928D
:104A3000B0011092F10188E0E8EAF1E0DF011D9297
:104A40008A95E9F7E8CFB8E08B9FC00111248F5415
:104A50009E4F0E94D522882321F38091F10190E09E
:104A60000196877099278093F101D5CFEF92FF923D
:104A70000F931F93CF93DF9380918A03882361F074
:104A8000C09189038CE0F82E80918A03C81748F002
:104A900010928A0310928903CDB7DEB7E6E00C943A
:104AA0003633EE24E394EC0EE09289030C2F10E0F1
:104AB000CF9DE0011124C557DC4F4B815C8169819A
:104AC00088810E94810681111DC08E819F81892B62
:104AD00021F488859985019651F4288139814A818C
:104AE0005B816C817D818E819F810E94C824F09EB4
:104AF000F001F19EF00D1124E557FC4F1482138252
:104B000010925A04CE2DC0CF10922E0410922D0474
:104B10001092100180912C0480932B040E94BA06FD
:104B20000E9436250895B0E0A0E0E9E9F5E20C9492
:104B30000F33C0912B0497E0892E01E010E02CE0A8
:104B4000322E3EEF932E4424439480912C048C13F8
:104B500009C00E9436250E94BA06CDB7DEB7E1E152
:104B60000C942B33D0E0FE01EE0FFF1FED5DFB4FE9
:104B700080819181889ED001899EB00D1124A5511C
:104B8000BC4F14962C911497211158C050908A0351
:104B9000EBE8F3E030E020E0712C5D01251508F032
:104BA0004BC0E284F384D501CD90DC906FEF7FEFB2
:104BB000612C462D50E0DA01AA0FBB1FAC0DBD1DC4
:104BC0000D90BC91A02D109731F0EA16FB0609F468
:104BD000BA016394EECF6F3F7607A9F1D80102C006
:104BE000AA0FBB1F6A95E2F77A2AB801062C02C009
:104BF000660F771F0A94E2F7AB0141505109741612
:104C00001506F9F4329EF001339EF00D1124E5579C
:104C1000FC4F889ED001899EB00D1124A551BC4F38
:104C200012962D913C91139737832683908291821F
:104C30009187808715964C920E948C062196C370AE
:104C400084CF148213822F5F3F4F3C96A7CFA9E1F8
:104C5000B0E0EDE2F6E20C940E33942F498B252F51
:104C60005A8B6B8B7C8B8D8B4C895D89622F892F46
:104C70000E948106811109C0809194019091950153
:104C8000019690939501809394018B8981111092E4
:104C90005A041D861E861F86188A85E0FE017196BD
:104CA000DE01199601900D928A95E1F780913D03FE
:104CB00082FF1EC08091610390916203892BC1F035
:104CC0000E943C062091F2013091F301821B930B6C
:104CD00020916103309162038217930720F0809145
:104CE000F40182FFE2C10E943C0A81110E94020A83
:104CF0004C855D856A8589850E948106811111C078
:104D000061E0CE0109960E948C0D6C018B8527EF26
:104D1000C2162CE5D20681F4882321F181E080932C
:104D2000100129853A854B855C856D857E858F854B
:104D300098890E94C824C6C038EFC3163CE5D30644
:104D400029F4882379F00E948425EBCF49EFC4161B
:104D50004CE5D40639F4882329F0809110018111A3
:104D6000F2CFDCCF0BEE13E0512CB12CA12C22247E
:104D70002394312C2EEF422EF8014081518188245A
:104D80008A94982C20E0822F90E0FC01EE0FFF1F08
:104D9000E40FF51F608171816115710531F0C61650
:104DA000D70609F44C012F5FEECFF12CFFEF8F16E1
:104DB0009F0609F449C0F8014481F09010018F2D3D
:104DC000411180E0F82FF170FF2EF801E580868117
:104DD0009B85992309F4F8C0FF2009F4F5C0609081
:104DE000750370907603E11013C0A101082C01C077
:104DF000440F0A94EAF7842B86838091870390916D
:104E000088038615970520F47092880360928703C3
:104E1000C10102C0880F991F2A95E2F70197F80196
:104E200026812817190681F480912D0490912E0473
:104E3000009709F44BC00E9421066816790608F015
:104E400045C021E0F80124835F28FFEFAF1ABF0AB5
:104E5000095F1F4F28E0A216B10409F08DCF8B85A2
:104E6000882309F40DC1552009F40AC10E943C06AB
:104E700090932E0480932D0480918A03883010F53E
:104E800091E0980F90938A0398E0FE013996DE0135
:104E9000119601900D929A95E1F73CE0839FC00135
:104EA000112485579C4F28E0FE013196DC010190CA
:104EB0000D922A95E1F72FEF3FEFFC013187208714
:104EC000D386C2866996E2E10C942A3380912B0442
:104ED00050912C04982FF0E0E0E0851314C09093DB
:104EE0002B04E017F10709F4AFCF90E0FC01EE0FBF
:104EF000FF1FED5DFB4FB182A08201968370992761
:104F000080932C04A1CF682E712CF301EE0FFF1FAC
:104F1000ED5DFB4F2081318147E0429FD001439FEF
:104F2000B00D1124A551BC4F6D917C911197798FD3
:104F3000688F40E020E030E0E32FF0E0EE0FFF1F4D
:104F4000688D798DE60FF71F808091808114910420
:104F5000E1F0F8010190F081E02DFF8BEE8B20E075
:104F600005C08616970609F44F2D2F5FE22FF0E05B
:104F7000EE0FFF1F6E897F89E60FF71F6081718139
:104F80006115710571F73F5FD7CF4423D1F0F80168
:104F9000231708F0FD0121E024830E171F0721F4D9
:104FA00090932B04F42E50CF981305C0AE17BF0773
:104FB00011F49F5F937093012F5F3F4F822F837097
:104FC0008CCFF0E0E0E0F7CF90E0E11020C0B1013D
:104FD00002C0660F771F2A95E2F79B012150310925
:104FE0008217930731F4442309F448C0C5010E9495
:104FF0008C06C101082C01C0880F0A94EAF7982F8B
:105000009095F801868189238683FE2C1DCF9C0113
:10501000082C02C0359527950A94E2F7A901417042
:105020005527BC016150710986239723892B11F5FF
:10503000452B01F1F80182819381892BC1F01B82FC
:105040001C821D821E8249824A820E943C06816027
:10505000582F9D838C83F801828193818F83988759
:1050600029813A814B816D817E810E94C824F8019B
:105070001582BFCFF22FF170EF2EBBCFEF2CB9CF3F
:1050800090912B0480912C04981731F00E94932565
:10509000552009F446CE16CF0E94362510922E04D4
:1050A00010922D040E94BA06F3CF82E00E94B31141
:1050B0001ACEA5E0B0E0EFE5F8E20C941E33909331
:1050C000390380933803811520E2920730F40E945F
:1050D000FF162596E2E00C943A3380EF89838A83A9
:1050E0001B820E943C068160782F9D838C834981BE
:1050F0005A816B818D810E942726EBCF0F931F93DE
:10510000CF93DF938C01EB016CE672E08C2F0E9451
:105110006C0E892BA1F480917D0390917E030E94F7
:10512000E20BDD27CC59DD4F8881F801128218820D
:105130008330F1F048F4813059F0823081F0DF9112
:10514000CF911F910F9108958430B9F08530B9F750
:1051500080916C0290916D02009789F306C0809156
:105160006E0290916F02009799F30E945928E7CF41
:105170008091700290917102F6CF809172029091AD
:105180007302009791F720916C0230916D0280912B
:105190006E0290916F0221153105F1F2009729F707
:1051A000C901E3CFA5E0B0E0E8EDF8E20C941E33CE
:1051B0009093390380933803811520E2920730F4ED
:1051C0000E94CA182596E2E00C943A3380EF898356
:1051D0008A8381E08B830E943C068160782F9D83C7
:1051E0008C8349815A816B818D810E942726EACF69
:1051F000CF93DF93EC010E94D22880917D039091A0
:105200007E030E94E20BCE010E945928DF91CF91CC
:1052100008950F931F93CF93DF938C01862F6CE635
:1052200072E00E946C0E892BB1F4C0916C02D09197
:105230006D02209781F0F8018281833051F4CE0114
:105240000E94F828CE010E94F828CE010E94F8287A
:1052500002C08430D0F7DF91CF911F910F91089554
:105260000F931F93CF93DF938C01EB016CE672E0F9
:105270008C2F0E946C0E892B09F05CC0FE01FF2769
:10528000D80112968C911297EC59FD4F8130B9F4E8
:1052900015969C9192FF02C080830AC090FFFCCFBC
:1052A00082E0808380916E0290916F020097B9F442
:1052B00080916C0290916D020097E1F110C08230F4
:1052C000B9F515968C9182FD28C080FD0BC083E056
:1052D00080838091700290917102009701F10E9489
:1052E000D22828C084E0808380917202909173025A
:1052F0000097A9F780916C0290916D020097F9F0E8
:105300000E94F82880916E0290916F02009739F701
:1053100080916C0290916D02E2CF85E08083809154
:105320006C0290916D02009729F00E94F828F0CF4E
:1053300086E08083DF91CF911F910F910895809136
:105340006E0290916F02B8CF90E080E00E94963399
:10535000883E9E4F19F40E949A0D089580E00895AA
:105360001F920F920FB60F9211242F933F934F93DA
:105370005F936F937F938F939F93AF93BF93CF93DD
:10538000DF93EF93FF93D091E900DF708091EC0001
:10539000C82FC17080FDC0E81092E9008091F00034
:1053A000877F8093F00078940E9418121092E90091
:1053B0008091F00088608093F000CD2BCF70C09377
:1053C000E900FF91EF91DF91CF91BF91AF919F9154
:1053D0008F917F916F915F914F913F912F910F909E
:1053E0000FBE0F901F9018951F920F920FB60F923D
:1053F00011242F933F934F935F936F937F938F93DA
:105400009F93AF93BF93EF93FF938091E10082FF4F
:1054100009C08091E20082FF05C08091E1008B7F8E
:105420008093E1008091DA0080FF24C08091D80051
:1054300080FF20C08091DA008E7F8093DA00809117
:10544000D90080FF9DC080E189BD82E189BD09B49A
:1054500000FEFDCF81E080935804809142048111C9
:1054600009C00E946F040E9462058091E20084607E
:105470008093E2008091E10080FF17C08091E200FC
:1054800080FF13C08091E2008E7F8093E2008091C4
:10549000E20080618093E2008091D8008062809376
:1054A000D80019BC85E0809358048091E10084FF06
:1054B0002BC08091E20084FF27C080E189BD82E19A
:1054C00089BD89B5982F917080FFFBCF8091D8005E
:1054D0008F7D8093D8008091E1008F7E8093E100E2
:1054E0008091E2008F7E8093E2008091E2008160F3
:1054F0008093E20080914F04882309F447C084E040
:1055000080935804809158048091E10083FF27C064
:105510008091E20083FF23C08091E100877F809328
:10552000E10082E08093580410924F048091E100E2
:105530008E7F8093E1008091E2008E7F8093E20075
:105540008091E20080618093E20042E060E080E0D0
:105550000E9430058091F00088608093F000FF91F8
:10556000EF91BF91AF919F918F917F916F915F91DB
:105570004F913F912F910F900FBE0F901F90189554
:1055800019BC109258041092420474CF8091E30029
:1055900087FD93E090935804B5CF78941F921FB67F
:1055A0001F9211248F939F93AF93BF9380913B04DD
:1055B00090913C04A0913D04B0913E040196A11D40
:1055C000B11D80933B0490933C04A0933D04B093A1
:1055D0003E04BF91AF919F918F911F901FBE1F906E
:1055E00018951F921FB61F9211248F939F93AF930C
:1055F000BF9380913A04811113C080913B04909134
:105600003C04A0913D04B0913E044196A11DB11D02
:1056100080933B0490933C04A0933D04B0933E04DC
:10562000BF91AF919F918F911F901FBE1F901895B2
:10563000CDB7DEB7EC970FB6F894DEBF0FBECDBF87
:1056400085B7806885BF85B7806885BF84B7877F49
:1056500084BF0FB6F894A89580916000886180930C
:105660006000109260000FBE80E890E00FB6F894E2
:1056700080936100909361000FBE85E298E0909363
:105680008901809388010E944E070E949E0E0E940D
:105690009E0C0E946F040E9462058091E20084606B
:1056A0008093E2007894809158048823A1F01091AF
:1056B000E9001F709091EC00892F817090FD80E8C7
:1056C000182B1092E9008091E80083FD0E941812C7
:1056D0001F701093E90082E084BD93E095BD9AEFBE
:1056E00097BD80936E000E949A0D811102C00E94A6
:1056F000851584E30E94270884E90E94270880E337
:105700000E94270887E60E9427080FE411E0D801CD
:105710008D918D018F3F11F00E942708B1E00A356D
:105720001B07A9F788E0EBE2F2E0DF01282F1D92CA
:105730002A95E9F7E4E0F2E0DF011D928A95E9F7A6
:105740000E94A429811102C00E94951582E090E078
:105750000E94883380930F020E94B30D90933D0303
:1057600080933C030E942410EFE3FCE93197F1F7AA
:1057700000C000000E94241080912B0280FF08C00E
:105780006FEF7FEF90E080E00E94BA330E94BE0B83
:1057900083E090E00E9488330E94071280910C02FF
:1057A000811133C00E94A429811104C00E94951563
:1057B0000E94131088E090E00E94903360935F0293
:1057C0007093600280936102909362026E7F71F425
:1057D0000E94131088E090E00E94903360935F0273
:1057E0007093600280936102909362020E94790735
:1057F00010923A0280915F0280FF04C060E08695BB
:105800000E94AC0F81E080930C0281E0809324021F
:1058100057985F9A56985E9A8FE891E00197F1F752
:1058200000C000003091240245E252E0FA018E2FC0
:10583000841B831708F467C080E091E090933704DD
:105840008093360484E0282E312C8091580400E1A6
:1058500012E1853009F49FC00E94241010E1A12EAE
:1058600012E0B12E0BE2802E02E0902E48E152E0D1
:10587000D401F501219131918D919D914E175F07D2
:1058800009F493C028173907A9F3712CD4010D919D
:105890001D914D01F501C190D1905F01C016D10657
:1058A00059F1612CEE24E394F12CC026D126C601D7
:1058B0008E219F21892BB1F068AE79AE21E0C8011D
:1058C0008E219F21892B09F420E02AAF0E943C06FB
:1058D0008160782F9CAF8BAF48AD59AD6AAD8CAD70
:1058E0000E9427266394EE0CFF1CFBE06F12DFCFB3
:1058F000F501329711830083739424E07212C6CFAE
:105900000E94300674C089B190E0880F892F881FEB
:10591000990B4E9904C020E0822B819388CF22E01E
:10592000FBCF80915804843021F110923A04A8E111
:10593000B0E0E0E40FB6F894A895A09360000FBE25
:10594000E093600083B7817F846083BF83B7816009
:1059500083BF7894889583B78E7F83BF0FB6F89402
:10596000A89580916000886180936000109260002B
:105970000FBE80914E04882371F00E942410EBE248
:10598000F2E081919191892B09F0C7C523E332E0C0
:105990002E173F07B1F780915804853009F4C1CF25
:1059A0000E940C120E94740657CF2817390709F07D
:1059B0006CCF0E943C068C0180910D0290910E02EA
:1059C00008171907A1F08FEF8BAB8CAB1DAA0E94B3
:1059D0003C068160782F9FAB8EAB4BA95CA96DA96B
:1059E0008FA90E94272610930E0200930D02E090CB
:1059F0003204F0903304E114F10429F1809118028B
:105A0000909119020E9421068C01BE01655D7F4FB5
:105A100088E0DB011D928A95E9F7C7010E94800E9C
:105A20008017910780F480913204BEE08B9FC00103
:105A30001124FC01E558FD4F208122FD04C08A5845
:105A40009D4F0E94411180911001882301F18091A6
:105A50002D0490912E040097D1F00E9421062091F0
:105A60008703309188032817390788F490912B0415
:105A700080912C04981709F46CC00E949325109211
:105A800088031092870310922E0410922D048091A7
:105A90007A0380FF1EC080910F0182FF1AC00E940E
:105AA0003C062091830330918403AC01421B530BCD
:105AB00020910D0130910E014217530750F02AE159
:105AC00032E041E0BC0180918503909186030E9401
:105AD000F71880913A028823C9F180913902E09148
