:100000000C9417040C944F040C944F040C944F045C
:100010000C944F040C944F040C944F040C944F0414
:100020000C944F040C944F040C94282A0C94E4294B
:100030000C94252B0C944F040C944F040C944F04F7
:100040000C944F040C944F040C944F040C944F04E4
:100050000C944F040C94012B0C944F040C944F04FB
:100060000C944F040C944F040C944F040C944F04C4
:100070000C944F040C944F040C944F040C944F04B4
:100080000C944F040C944F040C944F040C944F04A4
:100090000C944F040C944F040C944F040C944F0494
:1000A0000C944F040C944F040C944F0405010980E8
:1000B000A101850319012AB700150126B700950192
:1000C00075108100C0050C0901A101850419012AE0
:1000D000A002150126A002950175108100C00660DE
:1000E000FF0961A1010962150026FF00952075082E
:1000F00081020963150026FF00952075089102C052
:1001000005010906A101050719E029E715002501E8
:10011000950875018102950175088101050719008F
:1001200029FF150026FF00950675088100050819AE
:10013000012905950575019102950175039101C08D
:1001400000000000000000000000000000000000AF
:10015000000000000000000000000000000000009F
:10016000000000007E0F00D4FFFFFFC700000078F2
:1001700000000000000000002A2B28000000000002
:100180000000000000000000000000290000000046
:100190002C1E3420212224342627252E362D3738B4
:1001A000271E1F202122232425263333362E3738BD
:1001B0001F0405060708090A0B0C0D0E0F1011127B
:1001C000131415161718191A1B1C1D2F3130232D47
:1001D000350405060708090A0B0C0D0E0F10111245
:1001E000131415161718191A1B1C1D2F3130354CF6
:1001F000783C1E1E140A05FD377A585A000004E6A2
:10020000D6B4460200210116000000742FE5A3E0D9
:10021000050101815D003D8889C65436C3174FE44E
:10022000E7E954216F66A3454351D63195C0501478
:1002300072BFB4447A2852B5CABBE6D2E337F5BDE3
:10024000E72E51FEB8D99B3DB024A5ED723B7DBF92
:1002500022549A1894309528C26CE4EDF83D7AF255
:10026000F128BAC625142DAD7BA99DAB6D6ADBDFE5
:100270009642B910EF16677A2838E9552D0354DAFB
:100280001722791BB32925F3B93640BA68E8BFAC09
:100290004CC3C0911FAC37D3918B94B290027DD2E6
:1002A000CD959B4630F1D5BF67895C067124E0157A
:1002B0009524C8BBE9C37B17D2BDAB9611797532C3
:1002C0004EE1DA871CB6C615B33F7F4B614C6F43D6
:1002D000833762AD43D1835946CB6DD7866463E7DC
:1002E0006192DD1D5FB540CE0A4404CD9B60029E45
:1002F0007085D147A4364358089A84D0F963125FB9
:10030000C19FBDE8BE0B760C4312FE4A2188E5D89A
:100310003C78BD81D8836E80CBEB47ADEC230BF0EE
:10032000A9A47C95889DC1D34311067CDD14826EFF
:10033000CA9D6514099439C56E973CCAC71B2258DB
:100340009A48764EDA1ECB04605A1CE6432DBAC199
:10035000D86D82F4FA079D3F0A6844E8389A7A7E9D
:100360007E34F94852BBD303E1AD06C8D199959FBD
:1003700030782254C431F1472B2B513640BFDC4535
:1003800099362FFB12AB8D271B1E579CCBC64C09F1
:1003900014796C089240210000000096B35859B5BA
:1003A0003CFF4700019D03820A0000F650CA6FB16E
:1003B000C467FB020000000004595A00010101015A
:1003C0000101010101020202020202020202030310
:1003D00003030303030304040404040404050505E0
:1003E00005050606060606070707070708080808A2
:1003F000090909090A0A0A0B0B0B0C0C0C0D0D0D4F
:100400000E0E0E0F0F0F10101111111212131314E4
:1004100014151516161717181819191A1A1B1B1C5C
:100420001D1D1E1E1F2020212222232424252626B6
:10043000272829292A2B2C2D2D2E2F3031323233EB
:100440003435363738393A3B3C3D3E3F40414243F4
:100450004445464748494A4C4D4E4F5051535455D8
:100460005658595A5B5D5E5F616264656668696B88
:100470006C6D6F7072737577787A7B7D7E80828306
:100480008587888A8C8E8F91939596989A9C9EA04A
:10049000A2A3A5A7A9ABADAFB1B3B5B7BABCBEC057
:1004A000C2C4C6C9CBCDCFD1D4D6D8DBDDDFE2E420
:1004B000E7E9EBEEF0F3F5F8FAFDFF222325262815
:1004C000292A2C2D2F3032333536383A3B3D3E40E9
:1004D00042434547494A4C4E5051535557595A5C2F
:1004E0005E6062646668696B6D6F71737577797B46
:1004F0007D7F81838587898A8C8E90929496989A45
:100500009C9E9FA1A3A5A7A8AAACAEAFB1B3B4B659
:10051000B8B9BBBCBEBFC1C2C3C5C6C7C9CACBCCB4
:10052000CDCED0D1D2D2D3D4D5D6D7D7D8D9D9DA87
:10053000DADBDBDBDCDCDCDCDCDDDDDDDDDCDCDCFC
:10054000DCDCDBDBDBDADAD9D9D8D7D7D6D5D4D324
:10055000D2D2D1D0CECDCCCBCAC9C7C6C5C3C2C1F9
:10056000BFBEBCBBB9B8B6B4B3B1AFAEACAAA8A756
:10057000A5A3A19F9E9C9A98969492908E8C8A890E
:10058000878583817F7D7B79777573716F6D6B69EB
:1005900068666462605E5C5A5957555351504E4CC0
:1005A0004A4947454342403E3D3B3A38363533326F
:1005B000302F2D2C2A29282625232214001A000842
:1005C00000150017001C0018000C00120013002A70
:1005D0000004001600070009000A000B000D000EC1
:1005E000000F00340000001D001B0006001900056C
:1005F000001100100036003700380000000000E352
:100600000001512A002C002C000251005C00000067
:1006100000000001000100010001000100010001D3
:1006200000010001000100010001000100010001C2
:1006300000010001000100010001000100000001B3
:1006400000010001000100010001000100010001A2
:100650000001000000000001000100010001000194
:100660000001000100000000000000010001000185
:100670000001000100010001000100010001000172
:100680000001000100010001000100010001000162
:100690000001000100000001000100010001000153
:1006A0000001000100010001000100000000000144
:1006B0000001000100010001000100010000000034
:1006C0000000000100010001000100010001000123
:1006D0000001000100010001000100010001000112
:1006E0000001000100010001000100010000000103
:1006F00000010001000100010001000100010001F2
:1007000000010000000000010001000100010001E3
:10071000000100010000000000000001000100993C
:100720000300000200020095030000030001009A8C
:10073000030000040002007F03A606050001009BE1
:10074000030000060002008103000007000200977A
:10075000030000080001009C030000120002009D3D
:10076000030000130002009F03000014000100A119
:1007700003000009025B00030100A0FA0904000065
:1007800001030101000921110100012240000705B8
:10079000810308000109040100020300000009218F
:1007A0001101000122220007058203200001070534
:1007B00003032000010904020001030000000921D5
:1007C00011010001223200070584032000011201FB
:1007D000000200000008464D110001000102030163
:1007E0001C037600690061006C003A006600360068
:1007F0003400630032006200330063000000100325
:100800007600610075006C00740033003500000054
:100810001803700072006F006A00650063007400C6
:100820006300610069006E000000040309041124E4
:100830001FBECFEFDAE0DEBFCDBF04B603FE18C0A7
:100840008091800490918104A0918204B0918304EE
:100850008730904BA740B04B59F41092800410920F
:1008600081041092820410928304E0E0F8E3099579
:1008700011E0A0E0B1E0E4ECF7E602C005900D92D3
:10088000A438B107D9F724E0A4E8B1E001C01D9273
:10089000A038B207E1F70E944C2B0C94BC330C94A7
:1008A0000000E8EDF0E080818E7F80831092E2000E
:1008B0001092DA001092E100A0EEB0E08C9181601D
:1008C0008C9380818F77808319BCA7EDB0E08C91E9
:1008D0008E7F8C9380818F7E808310926604089532
:1008E0002091E4003091E50095E6A9012091EC000B
:1008F000822F817020FF06C08091E80080FF06C033
:1009000080E008952091E80022FD1AC080917C04C7
:10091000882389F0853089F08091EB0085FD0FC038
:100920002091E4003091E50042175307F9F291500D
:10093000E1F684E0089582E0089583E0089581E07F
:100940000895EF92FF920F931F93CF937C018B0139
:100950000E947004C82F811117C08091E80085FDA6
:100960000BC08091E8008E778093E8000E947004AD
:10097000882399F3C82F08C0F70181917F018093E4
:10098000F1000150110949F78C2FCF911F910F9160
:10099000FF90EF900895CF93FC0180917C04843008
:1009A00001F5C091E900CF702091EC00922F917079
:1009B00020FD90E8C92B82E08093E9008091E80057
:1009C00080FF0CC050E040E060E270E0CF010E9488
:1009D000A1048091E8008E778093E800CF70C093E7
:1009E000E900CF9108958091740487FF13C080912E
:1009F000E80082FF06C08091E8008B778093E800D2
:100A000004C080917C048111F2CF089580917C0410
:100A10008823D9F38091E80080FFF8CF8091E80027
:100A20008E77ECCF982F9093E900242F762F50E00B
:100A3000891731F07091EC002091ED005091F00099
:100A400021FD07C09F5F973071F78093E90081E037
:100A500008953091EB003E7F3093EB003091ED0034
:100A60003D7F3093ED003091EB0031603093EB002F
:100A70007093EC002093ED005093F0002091EE0075
:100A800027FDE0CF80E00895CF92DF92EF92FF92B2
:100A90000F931F93CF93DF93C8EDD0E088818F7EB3
:100AA0008883E7EDF0E080818160808384E082BF0D
:100AB00081E08093660488818E7F888302EE10E057
:100AC000F80110821092DA0081EEC82ED12CF601C6
:100AD000108288818F778883888180688883888165
:100AE0008F7D888319BC10927C041092730410923D
:100AF00072041092710490EEE92EF12CF7018081BE
:100B00008B7F808388818160888342E060E080E021
:100B10000E941205F60180818E7F8083F80180811A
:100B200081608083808188608083F70180818E7FEF
:100B30008083888180618883DF91CF911F910F919D
:100B4000FF90EF90DF90CF900895FC0180917A04A0
:100B500090917B0486179707A0F06115710529F421
:100B60009091E8009E779093E80090E06115710500
:100B700051F4911108C08091E80082FF34C080E0F8
:100B80000895BC01F2CF80917C048823C1F18530A7
:100B9000C1F18091E80083FD30C08091E80082FDC2
:100BA000EACF8091E80080FFE1CF8091F3002091AF
:100BB000F200382F6115710519F02830310558F011
:100BC00091E02830310509F090E02091E8002E777F
:100BD0002093E800CBCF81918093F100615071099F
:100BE0002F5F3F4FE7CF80917C04882341F0853011
:100BF00041F08091E80083FFBECF81E0089582E05C
:100C0000089583E0089508950895089580916804F3
:100C100008959C014FB7F89480915F04909160040F
:100C2000A0916104B09162044FBF821B930B0895A1
:100C30002FB7F89480915F0490916004A0916104B3
:100C4000B09162042FBF089520915C0430915D043F
:100C50002817390771F090935D0480935C04E0914C
:100C60005A04F0915B04309721F00084F185E02D67
:100C70000994089520915804309159042817390790
:100C800071F09093590480935804E0915A04F091C4
:100C90005B04309721F00680F781E02D09940895D8
:100CA000E0915A04F0915B04309721F00190F081BB
:100CB000E02D099480E00895452B39F0682381E008
:100CC0006F3F09F080E08170089581E0FCCFDC0186
:100CD00060917B0380917C03962F891301C0089556
:100CE000292F30E0F901EE0FFF1FED58FC4F408136
:100CF00051814A175B07A1F487E08A9FA0018B9F6F
:100D0000500D1124455C5C4F81E0FA0184839613F9
:100D1000E6CF2F5F3F4F2370332720937B03089547
:100D20002F5F3F4F922F9370D8CF1092D80210921E
:100D3000D702EBE3F3E08581811102C014821682B1
:100D4000379683E0E337F807B1F7089580917F0382
:100D5000909180039093100180930F010895FA0100
:100D6000811101C0FB01099480914502982F9E7F5B
:100D700061F48170826080934502809148028739D6
:100D800018F086E98093480208958231B0F38170AB
:100D90008061F1CFAF92BF92DF92EF92FF920F93FB
:100DA0001F93CF93DF93082F162FE901E42FF0E074
:100DB000E554FC4F611110C0E4915E2F4E2F498322
:100DC000E8835A83DF91CF911F910F91FF90EF90AD
:100DD000DF90BF90AF900895E62EF12C4491D42E71
:100DE000E42FF0E026E0829FC00111242FEF30E0D5
:100DF000B9010E94F432802F90E0880F991F55E5C9
:100E0000569FD001579FB00D11248A1B9B0B982F22
:100E1000990F890F5901AE18BF08AE9ED001AF9E41
:100E2000B00DBE9EB00D11245B2F189F80011124C0
:100E3000012F11275901A01AB10AAE9E8001AF9E61
:100E4000100DBE9E100D11245901A81AB108AE9CB8
:100E5000C001AF9C900DBE9C900D1124892F992745
:100E6000281B390B2E9FC0012F9F900D3E9F900D88
:100E70001124E92F62307105A1F050F4611571055C
:100E800009F49DCF6130710581F0EB2F512F97CF81
:100E90006430710569F080F06630710509F48FCF18
:100EA000F4CFE42F4B2F592F8ACFE42F412F87CF38
:100EB000EB2F542F492F83CF4B2F5D2DE12F7FCF69
:100EC00080E00895F894E82FE295EF70F0E031A10A
:100ED000282F2F7081E090E001C0880F2A95EAF753
:100EE000982F9095932391A392A1892B82A3789414
:100EF00008959091070292FF06C0282F287128308C
:100F0000F9F4877F846093FF06C0282F2871283169
:100F1000F1F4877E84612091080220FF06C0382FFB
:100F200038713830D9F4877F816021FF06C0282FBF
:100F300028712831D1F4877E816194FD877E0895E0
:100F4000282F24712430F9F68B7F8860DCCF282F7E
:100F50002471243101F78B7E8861DDCF382F317108
:100F6000313019F78E7F8860E0CF282F2171213131
:100F700021F78E7E8861E1CFCF93DF93EC01823839
:100F80009105A9F1D8F58133910509F496C048F58A
:100F90008932910509F48AC08A9709F495C0C11570
:100FA00022E5D20708F0B6C0C11531E5D30708F035
:100FB00026C1C83ED10508F09CC0C03ED10560F5F1
:100FC000C83AD10508F087C0C53AD10508F0EFC08E
:100FD000C130D10509F12097F9F0C430D105E0F412
:100FE00040C08533910509F45AC0C997C1F6809174
:100FF0000702837089F0C0EED0E00EC0833E9105F9
:1010000099F170F4803E910501F1823E910539F627
:101010008091070282FD21C0CE01DF91CF9108951A
:10102000863E910561F1873E910571F1843E9105FF
:1010300009F0B5CF8091080281FFEECF80910702C1
:10104000C7EED0E084FD0DC0E7CF8091070280FDA0
:1010500007C19091080290FFDFCFC3EED0E084FF7C
:10106000DBCFD0E0C0E0D8CF8091070282FDFBC08B
:101070009091080290FDBFCF84FFCECFF2CF809138
:10108000070283FDDDCFC8CF8091070283FDEEC04C
:101090009091080291FFF0CFC4EED0E0BDCF8091D7
:1010A000070285FFB9CFC9E2D0E0B6CF8091070231
:1010B00085FFB2CFC5E3D0E0AFCF8091070286FFB6
:1010C000ABCFCAE2D0E0A8CF8091070286FFA4CFC1
:1010D000C1E3D0E0A1CFCF3BD10518F6C85AD0E08C
:1010E000CC0FDD1FC15EDE4F0990D881C02DD464C6
:1010F00093CFC11540E5D40708F064C0C11580E462
:10110000D80708F05CC0CE019A9581159F4108F47C
:1011100083CFA7CFC11536E5D30718F5C11545E52F
:10112000D40708F084C0C11584E5D80708F07AC058
:101130009C2F969596959E0123703327C115D34514
:1011400008F462C0C1E0D0E002C0CC0FDD1F2A95D8
:10115000E2F730E2939FC0011124C82BD92BDA6843
:101160005BCFC1158AE5D80778F4C11599E5D90791
:1011700008F068C0C11528E5D20708F472CFDC2F4B
:10118000CC27C06FD06A48CFCE01905681159042CF
:1011900008F067CF8D2F8F710E94790790E0982F0C
:1011A000882788279F719C012C2BE90149C0C55ACB
:1011B000D0E0C45EDE4FC881D0E0D0642DCFDF70B8
:1011C000D06A2ACFCE01E4E096958795EA95E1F7BB
:1011D00083702C2F26952695237040E2249F900142
:1011E0001124382B8C2F8370C1E0D0E002C0CC0FCB
:1011F000DD1F8A95E2F7C22BD32BDC680DCFDC2FE5
:10120000CC27C16FD06A08CFC1E0D0E002C0CC0FBC
:10121000DD1F2A95E2F720E2929FC0011124C82B1E
:10122000D92BEBCFDC2FCC27C46FD06AF5CE8C2F17
:101230000E947907C82FD0E0DC2FCC27CC27DF71A4
:10124000D062EACE8C2F8F700E94790734E0D69559
:10125000C7953A95E1F7CF709C2FEC01D069DCCEB1
:10126000C9E3D0E0D9CEC2EED0E0D6CEC6EED0E013
:10127000D3CE8091FB01882331F01092FB011092B4
:10128000FA011092F9010895CF93C82F80910802B6
:1012900082FD0CC08091FB018C1741F00E94180662
:1012A0009093FA018093F901C093FB01CF910895C7
:1012B000809590917F04982390937F040895809562
:1012C0009091B20298239093B20208959091B20245
:1012D000892B8093B20208951092F0011092EF01D1
:1012E0001092EE0108958091810390918203892BE1
:1012F00089F00E9418062091F9013091FA01AC01A1
:10130000421B530B81E020918103309182034217ED
:10131000530708F480E0817008958091ED018111F8
:101320001092ED010895E8E8F1E09191891303C06E
:10133000DF0111971C9291E0EE38F907B1F708959B
:10134000A8E8B1E0EFEF90E02D91821751F0EF3F68
:1013500019F4211101C0E92F9F5F9630A9F7EF3FE3
:1013600009F408950E2E000CFF0BEA57FE4F8283FE
:1013700008952091EC019091AB01291302C080E007
:10138000089530E0F90153E0EE0FFF1F5A95E1F7A1
:10139000E455FE4F5181561306C05081581303C0C7
:1013A0005281541304C02F5F3F4F2770E6CF81E076
:1013B00008958091EC019091AB01981301C00895BC
:1013C0008F5F8770FACF9E3F49F1E82F2BE0929F05
:1013D000E00D11249E2F9770E695E695E69583E043
:1013E000E89FF0011124EF56FE4F50E040E080E00E
:1013F000219130E0092E02C0369527950A94E2F734
:1014000021703327042E01C0220F0A94EAF7822BA1
:101410004F5F5F4F4330510559F7089580E00895BD
:101420009E3F69F1E82F2BE0929FE00D11248E2F53
:10143000877041E001C0440F8A95EAF7E695E6958A
:10144000E69583E0E89FF0011124EF56FE4F30E06F
:1014500020E070E05191DF011197CB01022E02C014
:10146000969587950A94E2F7817081958527842364
:1014700085278C932F5F3F4F2330310559F708950F
:1014800092959F70963091F058F4925F9F709230D1
:1014900058F4803F19F030F4883E30F481E008952C
:1014A0009A5FF4CF843FD1F380E00895883EB0F393
:1014B000813FD1F7F3CF9C013A9521153F4150F57B
:1014C000FC01EE27F170BC0166277270AC01442765
:1014D00054709C012227387094FF0EC080E1EF2BDE
:1014E00009F480E0672B09F08062452B09F08064E5
:1014F000232B89F08068089581E0EF2B09F480E0C8
:10150000672B09F08260452B09F08460232B19F0CA
:101510008860089580E00895809363047093650463
:101520006093640480917C048430F9F48093E90032
:101530008FEF9091E800815095FD06C095ED9A954A
:10154000F1F700008111F5CF8091E80085FF0DC013
:1015500050E040E063E070E083E694E00E94A10484
:101560008091E8008E778093E8000895BC0184E0C4
:101570000C948C0ABC0183E00C948C0ACF93DF930B
:10158000EC0181E08093E9008FEF9091E8008150B9
:1015900095FD06C095ED9A95F1F700008111F5CF04
:1015A0008091E80085FF14C050E040E068E070E002
:1015B000CE010E94A1048091E8008E778093E8001C
:1015C00088E0FE01A9E6B4E001900D928A95E1F76A
:1015D000DF91CF91089581E08093E00080E28093D5
:1015E000D8001092C9008FE19EE40197F1F700C086
:1015F000000087E090EBDC018093800490938104ED
:10160000A0938204B093830488E19CE00FB6F89421
:10161000A895809360000FBE90936000FFCF019764
:1016200008F40895EFE9FFE03197F1F700C00000FA
:10163000F6CF8091450280FD0AC0E3E3F2E011821B
:1016400010821282339652E0E534F507C1F7559ABD
:101650003BB13F7D2BB120624FB7F89483E392E01A
:10166000FC015191CF0168E02BB9000000C057FF89
:101670003BB9550F000000C000C000C03BB900C01E
:101680006A9591F7F2E085349F0751F74FBF8FE5D8
:1016900094E00197F1F700C0000008959091450291
:1016A00090FF0CC0E3E3F2E08183608342833396D2
:1016B00092E0E534F907C1F70C94190B0895CF9324
:1016C000DF9300D00F92CDB7DEB79091450290FF27
:1016D0000DC0473908F046E99E012F5F3F4F0E9439
:1016E000CA064B8169818A810E944E0B0F900F9030
:1016F0000F90DF91CF910895CF93DF93EC01E5E454
:10170000F2E0438162818C810E945F0B8C818F5F4C
:101710008C83DF91CF910895CF93DF93EC01EC811F
:10172000F0E0E554FB4F4491E5E4F2E06281818111
:101730000E945F0B8C818F5F8C83DF91CF91089526
:101740000F931F93CF93DF930FE713E0C7E9D1E027
:10175000CE010E946C33F80181938F012196CB3B1F
:10176000F1E0DF07A9F7C1E2D7E0FE01859194918E
:10177000009711F0FC0109952896F7E0C937DF07BB
:10178000A1F7DF91CF911F910F9108950F931F93B0
:10179000CF93DF93843000F561111EC024E0829F57
:1017A0008001112450E0440F551F040F151F0957E5
:1017B0001E4FC8010E946C33C82FD0E0DC2FCC270D
:1017C000C80101960E946C339E01282BC901DF914C
:1017D000CF911F910F91089590E080E0F8CF0F9383
:1017E0001F93CF93DF93843030F5643020F54B3076
:1017F00010F5C42FD0E0CC0FDD1F26E1629FC00D95
:10180000D11D112438E5839FC00DD11D1124CE01B7
:1018100087960E946C33082F10E0102F0027CE010E
:1018200088960E946C339801282BC901DF91CF91D3
:101830001F910F91089590E080E0F8CF462F2091FE
:10184000B0023091B102232B91F47E3F39F46E3F08
:1018500071F48091AE029091AF020895843038F413
:10186000743028F46B3018F4672F0C94EF0B90E071
:1018700080E00895CF92DF92FF920F931F93CF9352
:10188000DF936C0100917E0480917D04082BC7E0FA
:10189000D0E010E0FC2EC8010C2E02C09595879573
:1018A0000A94E2F780FD0CC02197A0F7F12C8F2D50
:1018B000DF91CF911F910F91FF90DF90CF9008950E
:1018C000B6018C2F0E941E0C0E94BC07019761F389
:1018D000EECFCF93DF93EC010E943A0CBE010E9441
:1018E0001E0CDF91CF910C94BC07FC01868197817F
:1018F000009721F00E94BC070C94400A80819181DE
:101900000E94690CF9CF1F93CF93DF9300D000D0D2
:101910000F92CDB7DEB749835A8389819A816623B6
:10192000B9F02223A9F00E943A0C182F682F898160
:101930009A810E94100A69817A81812F0F900F90FD
:101940000F900F900F90DF91CF911F910C941E0C70
:101950000E94E309182FEFCFFC01262F8681978183
:10196000009739F4408151816281738184810C94A4
:10197000830C089583E290E00E946C33883989F4E7
:1019800084E290E00E946C338F3E59F485E290E04F
:101990000E946C3391E08B3E09F090E0892F8170BA
:1019A000089580E0FCCFCF9384E090E00E946C33F8
:1019B000C82F82E290E00E946C33982F8C2FCF9139
:1019C00008950F931F93CF93DF930FE713E0C7E9B9
:1019D000D1E0CE010E946C33F80161918F0168174C
:1019E00019F0CE010E9480332196CB3BF1E0DF0756
:1019F00081F7DF91CF911F910F910895EFE7F3E009
:101A0000128E138E8FEA90E09183808385E0848F1D
:101A100028E833E13383228322E330E0378B268BBF
:101A200028EC30E0318F208F158E2AE030E0378FA0
:101A3000268F20E530E031A320A382A30E94E10C91
:101A40000C94A00BCF93DF93CBE5D2E060E0CE0106
:101A50000E9480332196C11584E0D807B9F7DF9141
:101A6000CF9108950F931F93CF93DF938901843013
:101A700028F5611123C0423008F521153C4531F4A9
:101A80002091AC023091AD02232BC1F094E0899FEC
:101A9000E001112450E0440F551FC40FD51FC95752
:101AA000DE4F612FCE010E948033602FCE01019660
:101AB000DF91CF911F910F910C948033DF91CF91E3
:101AC0001F910F9108950F931F93CF93DF93890177
:101AD000843048F5643038F54B3028F521153C4505
:101AE00031F42091AC023091AD02232BE1F0C42FF0
:101AF000D0E0CC0FDD1F96E1699FC00DD11D1124F0
:101B000098E5899FC00DD11D1124612FCE018796C4
:101B10000E948033602FCE018896DF91CF911F9174
:101B20000F910C948033DF91CF911F910F91089505
:101B3000CF93C82F6FEF811168E983E290E00E9494
:101B400080336FEFC1116FEE84E290E00E9480332A
:101B50006FEFC1116BEE85E290E0CF910C94803372
:101B60007F928F929F92AF92BF92CF92DF92EF922D
:101B7000FF920F931F93CF93DF93CDB7DEB7649798
:101B80000FB6F894DEBF0FBECDBFA090AC02B090F0
:101B9000AD0281E090E09093AD028093AC028BEBBC
:101BA000C82E85E0D82E10E0760100E015C0F401C3
:101BB00025913491472D602F812F0E94630D82E083
:101BC000880E911C7394EBE07E12F1CFF6E1EF0EDC
:101BD000F11C0F5F043019F04701712CE8CF21E0B0
:101BE00030E040E060E0812F0E94320D21E030E0E3
:101BF00041E060E0812F0E94320D1F5F88E5C80E32
:101C0000D11C143089F60E94FE0C1A8219821C82A3
:101C10001B821E821D8218861F8288EC90E09A87A4
:101C200089870BEB11E04AE050E0B801CE01019644
:101C30000E94A433065F1F4F0B30E2E01E0799F7A6
:101C40007E01FBE0EF0EF11C8AE0F70111928A950C
:101C5000E9F74AE050E0B801C7010E94A433065FEB
:101C60001F4F0B35F2E01F07A1F7B092AD02A09213
:101C7000AC0264960FB6F894DEBF0FBECDBFDF9105
:101C8000CF911F910F91FF90EF90DF90CF90BF9079
:101C9000AF909F908F907F90089580E00E94980D64
:101CA00060E086E290E00E9480330E94B00D0E94C6
:101CB000220D81E00C94980D9B01883070F49AE01D
:101CC000899FB001112465547E4F4AE050E0C9015C
:101CD0000E945C3390E080E008958FEF9FEF0895BD
:101CE0008F929F92AF92BF92CF92DF92EF92FF922C
:101CF0000F931F93CF93DF93CDB7DEB72A970FB61D
:101D0000F894DEBF0FBECDBF08EA13E0F12CE12C42
:101D100083E3C82E89E2D82E9DE5A92E99E2B92E3B
:101D20002BE4822E28E2922EF801D182C082B38267
:101D3000A28295828482F58AE48ABE016F5F7F4F1A
:101D40008E2D0E945C0E892B29F489859A85F801D5
:101D5000938B828BFFEFEF1AFF0A0A5E1F4F88E01A
:101D6000E816F10409F72A960FB6F894DEBF0FBE05
:101D7000CDBFDF91CF911F910F91FF90EF90DF903A
:101D8000CF90BF90AF909F908F900895CF92DF92A9
:101D9000EF92FF920F931F93CF93DF93CDB7DEB7F0
:101DA0002A970FB6F894DEBF0FBECDBFECE5F2E088
:101DB00080E5DF011D928A95E9F7EBE3F3E088E324
:101DC000DF011D928A95E9F78CE5C82E82E0D82EB6
:101DD0007F010BE012E0F701D182C0824AE050E0BF
:101DE000B801CE0101960E945C3388E0FE01319675
:101DF000D60101900D928A95E1F789859A85D701E0
:101E000013969C938E931297BAE0CB0ED11CE7E009
:101E1000EE0EF11C065F1F4F0B35F2E01F07D9F6DF
:101E20002A960FB6F894DEBF0FBECDBFDF91CF91DB
:101E30001F910F91FF90EF90DF90CF900895CF9278
:101E4000DF92EF92FF926B017C010E94B406B70112
:101E5000A60188E090E0FF90EF90DF90CF900C9487
:101E60009233EF92FF920F931F93CF93DF9300D0A3
:101E70000F92CDB7DEB7082FF62E142FE22E8091E9
:101E8000450280FF2CC0E82FE695F0E0E459FE4FB4
:101E90009081909331028E7F823059F5473908F056
:101EA00046E99E012F5F3F4F6F2D802F0E94CA068B
:101EB0004B8169818A810E944E0B00934602F09209
:101EC000470210934802EE2051F060914502709154
:101ED000460280914702909148020E941F0F0F9086
:101EE0000F900F90DF91CF911F910F91FF90EF9086
:101EF0000895923019F410914802DFCF9630E9F638
:101F000000914602DACFE5E4F2E0438128E0421B8B
:101F100008F440E021E0628181810C94310FE5E416
:101F2000F2E0438128E0420F08F44FEF21E06281A4
:101F300081810C94310FE5E4F2E0628128E0621BBC
:101F400008F460E021E0438181810C94310FE5E4E5
:101F5000F2E0628128E0620F08F46FEF21E0438134
:101F600081810C94310FE5E4F2E0818121E043812D
:101F7000628188500C94310FE5E4F2E0818121E028
:101F800043816281885F0C94310F809149028823DC
:101F900019F0815080934902609145027091460288
:101FA00080914702909148020C941F0F8091490242
:101FB000833018F48F5F80934902609145027091DD
:101FC000460280914702909148020C941F0F909115
:101FD000450290FF3DC09170811129C0926090939D
:101FE0004502662351F0609145027091460280914E
:101FF0004702909148020E941F0F6091450266952A
:1020000070E041E050E08EE091E00E943233892B95
:10201000A9F01092320281E080932E0220E04091DC
:10202000480260914702809146020C94310F89303A
:1020300010F09061D4CF880F982BD1CF81E080939E
:1020400032020E94180690932C0280932B02E3CF59
:102050000895809145028695815009F488E061E0F9
:102060000C94E70F8091450286958F5F893008F0C8
:1020700081E061E00C94E70F9091450290FF07C06A
:102080009695981720F0961710F40C94321061E092
:102090000C94E70FE5E4F2E083E0808311828FEF98
:1020A000828386E983831482608171818281938136
:1020B0000C941F0F69EE7EEF90E080E00E949E334B
:1020C00060E082E090E00E94803360E083E090E096
:1020D0000E94803310927D0460E084E090E00E94D2
:1020E000803360E082E290E00E94803360E085E02F
:1020F00090E00E94803360E086E090E00E948033B0
:102100006FEF87E090E00E94803340E050E0BA013A
:1021100088E090E00E94923360E08DE090E00E94C1
:10212000803340E050E0BA0188E190E00E949233B1
:1021300060E087E190E00E94803340E050E0BA0127
:102140008CE190E00E94923370E060E080E290E0E9
:102150000E949E3340E050E0BA0188E190E00E9486
:10216000923380E00E94980D0E944D0E40E050E0B6
:10217000BA018FE090E00E94923340E050E0BA0153
:1021800083E190E00C9492338F929F92AF92BF9232
:10219000CF92DF92EF92FF920F931F93CF93DF9333
:1021A000CDB7DEB728970FB6F894DEBF0FBECDBF10
:1021B0008E010F5F1F4F88E0F80111928A95E9F7B1
:1021C0009DE4E92E91E0F92E6801AA24A394B12C94
:1021D000F70181917F018F3F09F446C0F894E82F01
:1021E000E295EF70F0E021A18F70A50102C0440FCD
:1021F000551F8A95E2F7CA01922F982B91A392A1BD
:102200008095892382A3789400C0E1E5F1E021E084
:1022100030E0912C812C41914F3F09F479C0A42FDB
:10222000A295AF70B0E090968C9190E04F7002C094
:10223000959587954A95E2F780FD6AC0C901882A7D
:10224000992A220F331F51E0EC35F50721F7F701EA
:10225000319780818F3F11F00E94620780EA8A9552
:10226000F1F7F60191828082F2E0CF0ED11C41E5B8
:10227000E41641E0F40609F0ABCF48E050E0B801C5
:102280008FEF91E00E943F33FF24F394009709F40D
:10229000F12C892B09F43FC088E0F801AFEFB1E0E1
:1022A00001900D928A95E1F781E08093FE010E94F2
:1022B00018069093FD018093FC018091FC019091A0
:1022C000FD010E940906059750F18091FF01909150
:1022D0000002909324028093230280910102909146
:1022E000020290932602809325028091030290912E
:1022F0000402909328028093270280910502909116
:10230000060290932A02809329021092FE0107C0D0
:1023100090E080E094CF8091FE018111CECF8F2D8F
:1023200028960FB6F894DEBF0FBECDBFDF91CF91D8
:102330001F910F91FF90EF90DF90CF90BF90AF90E3
:102340009F908F9008958091B20290917F04892B85
:10235000809386018091FB01882309F1809181039C
:1023600090918203892B29F00E94730981110E94A8
:102370003909809186019091FB01892B8093860118
:1023800020E088E891E0FC013191CF0131112F5F0D
:10239000F1E08E389F07B9F721110E94390948E012
:1023A00050E061EF71E086E891E00E943F33892BB5
:1023B000A9F088E0E6E8F1E0A1EFB1E001900D922C
:1023C0008A95E1F7E0915A04F0915B04309731F07F
:1023D0000280F381E02D86E891E009940895EF9260
:1023E000FF920F931F93CF93DF93EC018A858111A6
:1023F00034C0EB80FC8087E5F81A26E12E9DC001F1
:102400002F9D900D1124DC01A855BC4F1496ED9121
:10241000FC911597309731F054966D917C918255CF
:102420009C4F099586E18E9D80018F9D100D112492
:1024300008551C4FF80187810E945F09F8018085CB
:102440000E9458090E94A311188219861B861E82B9
:102450001D821092A7031092A603DF91CF911F91C6
:102460000F91FF90EF900895CF93DF93EC0189894E
:10247000811118C081E0898B8F810E94660980914B
:102480007F049885892B80937F040E94A311EA81A1
:10249000FB81309739F06C897D89CE010696DF91FA
:1024A000CF910994DF91CF91089580911101877F99
:1024B0008093110182E00E9458098091110184FFEC
:1024C00006C08F7E8093110182E00E946609809190
:1024D000110185FF06C08F7D8093110180E20E946B
:1024E00066090C94A31190E080E00E943A0690E007
:1024F00080E00E94240610927F040C94A311809324
:102500007E040C94731280917E04982F96709630FE
:1025100019F488600C947F12877FFCCF21E030E0B3
:1025200001C0220F8A95EAF7209580917E048223CC
:102530000C947F129091F001809589238093F00193
:10254000282F277091F4282F082E000C330B921798
:10255000130659F09091080292FD07C08595859564
:1025600085950E948E120C946C090895CF93C091AA
:102570000802C2FB992790F9981799F080FBC2F9DD
:10258000C09308026091070284E090E00E948033CB
:102590006C2F82E290E00E94803382E0CF910C9415
:1025A0009A12CF91089521E030E001C0220F8A9560
:1025B000EAF780917E04822B0C947F12909108029E
:1025C00092FD10C098E0899F90011124622B6093C6
:1025D000F0010E94D3120E9418069093EF0180939D
:1025E000EE0108950C94D31280937D040C94731221
:1025F0001092B202E8E8F1E086E0DF011D928A95D0
:10260000E9F70C9473121F93CF93DF93CDB7DEB726
:10261000AA970FB6F894DEBF0FBECDBF84E794E053
:102620002091F100DC012D93CD01B4E08C379B07A4
:10263000B9F780917504833009F472C0B8F4813021
:1026400009F449C0823009F4B3C08091E80083FFE7
:1026500096C280917404909175049A3008F08FC2EC
:10266000E92FF0E0E254FC4C0C941C338A3009F45E
:102670008EC08B3009F471C0893039F780917404B1
:10268000813219F78091780490917904009711F0C4
:102690000297D9F68091E800877F8093E8008091C7
:1026A000E80082FF38C09091F3008091F200029719
:1026B00031F48091F100813011F0863021F4809165
:1026C000F100809368048091E8008B778093E800A4
:1026D0000E94F304BACF80917404813A09F0B5CF17
:1026E0008091E800877F8093E80080917804909142
:1026F0007904892B61F468E089E694E070E00E9437
:10270000A5058091E8008B778093E8009ECF60E07C
:1027100090E080E0F3CF80917C048111C0CF95CF11
:1027200080917404813A09F090CF8091780490915F
:102730007904892B09F089CF8091E800877F809305
:10274000E8008091E80080FFFCCF80911301809326
:10275000F1008091E8008E77B9CF809174048132C6
:1027600009F073CF8091780490917904892B09F056
:102770006CCF8091E800877F8093E8000E94F3048B
:1027800080917604809313010E94F8125ECF8091AD
:102790007404813209F059CF8091E800877F8093DB
:1027A000E8000E94F30480917704809367044DCF82
:1027B00080917404813A09F048CF8091E800877FC6
:1027C0008093E8008091E80080FFFCCF809167044F
:1027D000BECF803899F0823809F0D1C18091780459
:1027E0008F70873008F0CBC18093E9008091EB00B7
:1027F00085FB882780F91092E90006C0809171045A
:1028000090917204911182609091E800977F90936B
:10281000E8008093F1001092F1008091E8008E773B
:10282000AAC1882309F498C1823009F0A8C1809117
:10283000760481119BC1809178048F702FEF280F4F
:10284000263008F09CC18093E9002091EB0020FF26
:102850008DC1933031F48091EB0080628093EB0066
:1028600085C19091EB0090619093EB0021E030E006
:1028700001C0220F8A95EAF72093EA001092EA003D
:102880008091EB008860EACF811179C110917604C4
:102890001F778091E3008078812B8093E300809103
:1028A000E800877F8093E8000E94F3048091E800AD
:1028B00080FFFCCF8091E30080688093E30082E09A
:1028C000111183E080937C045AC18058823008F053
:1028D00056C120917604309177042C3DE3E03E0709
:1028E000A1F583E08A838AE289834FB7F894DE01F9
:1028F000139620E03EE051E2E32FF0E050935700C2
:10290000E49120FF03C0E295EF703F5FEF708E2FE0
:1029100090E0EA30C0F0C7968D939D932F5F2431ED
:1029200059F74FBF8091E800877F8093E8006AE203
:1029300070E0CE0101960E94A5058091E8008B779A
:102940008093E8001CC1C096E7CF809178049091F5
:102950007904432F55274330510509F44AC078F5CF
:102960004130510509F485C08BE590E0E3E7F7E0DD
:102970004230510509F003C12091E800277F2093E0
:10298000E80020917A0430917B048217930708F4C1
:102990009C0140E02115310509F070C041116EC065
:1029A0008091E80082FDC9CF80917C04882329F2C0
:1029B000853019F28091E80083FFF2CFBECF41321B
:1029C000510509F447C04232510509F0D8C083309F
:1029D000910508F0D4C0FC01EE0FFF1FE858FE4F30
:1029E0000190F081E02D8B589E4FDC018C9190E09E
:1029F0001DC0332721303105E9F02115310579F06B
:102A000022303105F9F02330310509F0B8C0E0EE8D
:102A1000F7E0E4918E2F90E0E0EEF7E007C0EAE205
:102A2000F8E0E4918E2F90E0EAE2F8E0009709F4F4
:102A3000A6C0A2CFE0E1F8E0E4918E2F90E0E0E1C3
:102A4000F8E0F4CFEEEFF7E0E4918E2F90E0EEEFB8
:102A5000F7E0ECCF8330910508F091C0880F991F03
:102A6000FC01E258FE4F0190F081E02D89E090E0FA
:102A700083CF82E190E0EEECF7E07ECF80917C04A2
:102A8000882309F45ACF853009F457CF8091E800A4
:102A900083FD53CF8091E80082FD82CF8091E800D2
:102AA00080FF78CF9091F3008091F20021153105DD
:102AB00019F08830910550F041E0089709F040E0A6
:102AC0008091E8008E778093E80064CF4491409332
:102AD000F1003196215031090196E8CF803809F094
:102AE0004EC08091E800877F8093E8008091730456
:102AF0008093F10092CE811142C010917604123081
:102B0000F0F58091E800877F8093E80010937304CC
:102B10000E94F304112311F084E005C08091E300CA
:102B200087FDFACF81E080937C0442E061EC81E094
:102B30000E94120542E261EC84E00E94120542E22A
:102B400061EC82E00E94120542E260EC83E00E94A8
:102B5000120580917C0413C080917604813079F451
:102B600081E0933009F080E0809372041092E900D4
:102B70008091E800877F8093E8000E94F3048091B1
:102B8000E80083FF0AC08091E800877F8093E80017
:102B90008091EB0080628093EB00AA960FB6F894C8
:102BA000DEBF0FBECDBFDF91CF911F910895882367
:102BB00021F00E9458090C94A3110895882339F03C
:102BC00090917F04982B90937F040C94A311089507
:102BD000882321F00E945F090C94A3110895882393
:102BE00021F00E9466090C94A3110895882309F42A
:102BF0004BC0823871F40E94500681FF45C089E3C2
:102C00000E94A0090E94A31189E30E9493090C94D9
:102C1000A311833859F40E94500680FF35C083E524
:102C20000E94A0090E94A31183E5EFCF843859F4D4
:102C30000E94500682FF28C087E40E94A0090E94DB
:102C4000A31187E4E2CF9CEF980F913AF0F290E263
:102C5000980F983050F4877091E001C0990F8A95D1
:102C6000EAF7892F0E945F09D2CF9BE5980F933036
:102C700020F490E080E00C943A06885A873120F4E2
:102C800090E080E00C9424060895CF93DF93EC014C
:102C90000E94F615CE010E945B0A9E01205E31095A
:102CA0002830310510F0CD2B21F4DF91CF910C9419
:102CB000E815DF91CF910C94D715CF93C82F8823B7
:102CC00009F484C08238C1F40E94500681FD7EC0A0
:102CD00089E30E94A0090E94A3112FEF81EE94E0E6
:102CE000215080409040E1F700C0000089E30E943D
:102CF0009309CF910C94A3118338A1F40E9450063C
:102D000080FD64C083E50E94A0090E94A3112FEFFB
:102D100081EE94E0215080409040E1F700C0000037
:102D200083E5E5CF8438A1F40E94500682FD4EC0B1
:102D300087E40E94A0090E94A3112FEF81EE94E086
:102D4000215080409040E1F700C0000087E4CFCFE1
:102D50008CEF8C0F813A68F4E8E8F1E08191C817B4
:102D600079F121E0EE38F207C9F78C2F0E94A00913
:102D7000C0CF80E28C0F883048F4C77081E001C07A
:102D8000880FCA95EAF70E946609B3CFEBE5EC0F0E
:102D9000E33040F4F0E0E45EFE4F808190E0CF91BC
:102DA0000C943A06C85AC73188F4EC2FF0E0EE0FC5
:102DB000FF1FE15EFE4F80819181CF910C9424062C
:102DC0008C2F0E9493090E94A311CFCFCF91089519
:102DD0001F93CF93DF93182FC0919F03D091A0032F
:102DE000893321F0C0919D03D0919E03812F0E94D1
:102DF0005D16209731F4812FDF91CF911F910C94B4
:102E0000F6158FE99FE00197F1F700C000002197C8
:102E1000F0CF0F931F93CF93DF93C42FD22FFC01DA
:102E200082818823A1F04093A5030E941806909305
:102E3000A4038093A303C77081E001C0880FCA95E3
:102E4000EAF7DF91CF911F910F910C94EF1510913C
:102E5000A503141339C08091A3039091A4030E9489
:102E6000090620919703309198038217930760F524
:102E7000C0E2CD0F1D17B9F080E2810F883040F419
:102E8000177081E001C0880F1A95EAF70E94E815D3
:102E9000C83048F481E09D2F977001C0880F9A9543
:102EA000EAF70E94EF15802F0E94E816C83098F4C8
:102EB000D77081E001C0880FDA95EAF7DF91CF91F2
:102EC0001F910F910C94E815C77081E001C0880F25
:102ED000CA95EAF7F3CFDF91CF911F910F91089533
:102EE000AF92BF92CF92DF92EF92FF920F931F9318
:102EF000CF93DF93EC018AE0A82E2881222309F4E6
:102F00008CC02130C9F599818A81913021F42296B3
:102F10000E94E81605C0923029F422960E945D16A0
:102F20002196EBCF933021F422960E94F615F8CF2C
:102F3000943011F02196F4CF229630E020E0AE01DB
:102F40004F5F5F4F8053990B8A30910550F02150AD
:102F5000310930F38FE99FE00197F1F700C00000DD
:102F6000F6CFA29EB001A39E700D11249C01260FE6
:102F7000371F8981EA01E3CFE22FF0E0E059FE4FED
:102F8000B490822F86958695869590E0FC01E05A54
:102F9000FE4FE4902770F12C022E02C0F594E794C6
:102FA0000A94E2F731E0E322FF24FC01E05BFE4FEC
:102FB000C490D12C022E02C0D594C7940A94E2F793
:102FC00031E0C322DD24FC01E05CFE4F049110E0FF
:102FD00002C0159507952A95E2F701701127E114B3
:102FE000F10419F081EE0E945D16C114D10419F0AC
:102FF00086EE0E945D168B2D0E94E816CD2819F0F2
:1030000086EE0E94F615EF2819F081EE0E94F61563
:10301000012B09F485CF8CE27BCFDF91CF911F91FB
:103020000F91FF90EF90DF90CF90BF90AF900895F9
:10303000CF93DF93EC010E945B0A9E01205E310971
:103040002830310510F0209739F40E94EF158C2FAD
:10305000DF91CF910C945D160E94DE15F8CF6623A8
:1030600029F020917F04226020937F049C01305638
:10307000211540E2340720F0305E2115304108F47C
:1030800099270C941818DF92EF92FF920F931F93D9
:10309000CF93DF937C018B01D42E8091110182FFAD
:1030A0008CC0C091D502D091D602CE15DF0521F09B
:1030B000E114F10409F081C0809111018B7F8093AC
:1030C000110181FD73C08091D3029091D402A801B7
:1030D000481B590B81E020910F01309110014217DC
:1030E000530708F480E08170F82E80911101F0FA06
:1030F00081F980931101FE0183E0F695E7958A95A9
:10310000E1F7EE71FF27ED54FD4F20813181AE01D3
:103110004F70552781E090E002C0880F991F4A95B3
:10312000E2F7FF2009F444C0822B932B9183808324
:103130008091B20281FF08C080911101806180936B
:10314000110182E00E945F098091B20285FF08C0F0
:103150008091110180628093110180E20E945F09D9
:103160006F2DCE010E942F18DD2031F080919A033F
:1031700085FF02C086FF3BC080919D0390919E0316
:103180000E940F0B8091D5029091D6029C0130567F
:10319000211540E2340720F0305E2115304108F45B
:1031A00099270E9445160E9455121DC081E09BCFB1
:1031B0008095909582239323B9CFC70199279701D2
:1031C0003056211540E2340728F0305E2115304199
:1031D00008F0C7010E9445168091D5029091D60251
:1031E0008E159F0501F31093D4020093D302DF9153
:1031F000CF911F910F91FF90EF90DF9008959F92D4
:10320000AF92BF92CF92DF92EF92FF920F931F93F4
:10321000CF93DF9300D000D0CDB7DEB77C01DC01C7
:1032200013964D915C91149711966C9111978C9116
:103230000E945C06811179C061E0C7010E94AC0C5C
:103240008C01F7018281811111C0D70112968C91F6
:10325000811149C00031FFE51F0709F418C1013190
:103260002FE5120709F0B6C782E012C180910C0168
:1032700090910D01019649F378EAC72E73E0D72E9D
:10328000B12CA12C9924939480910C0190910D0163
:103290008A159B05D4F2F60186818823E9F08185A1
:1032A00092850817190739F48091A6039091A70316
:1032B0000817190789F0D6011F969C921F971C9634
:1032C0001C930E931B97C6010E943412C6010696EA
:1032D0000E94EF1110927F04BFEFAB1ABB0AE6E128
:1032E000CE0ED11CD1CF980122513F45203131055E
:1032F00008F066C78FEF93E00E946C336EEED62E17
:10330000D00E0BE512E0882361F18091F001877007
:1033100061F0D70112968C91882339F080910802D0
:1033200082FD03C082E00E949A120F900F900F90CE
:103330000F90DF91CF911F910F91FF90EF90DF9051
:10334000CF90BF90AF909F9008950115F4E01F07B4
:10335000E1F2C8010E946C33811101C0DA940F5F61
:103360001F4FD110F2CF19821A821B821C8299241E
:103370009A9468012FEFC21AD20AC8010E946C33D6
:1033800089831A82882309F4C0CF813009F073C081
:10339000580132E0A30EB11CC6010E946C33C82E46
:1033A0008A83882309F4B1CFC5010E946C33D82EDB
:1033B0008FEF8C0D833068F4580143E0A40EB11CEC
:1033C000DB82DD2021F0CE0101960E94701785017D
:1033D000D0CF8BEF8C0D833030F5C8010396DB82A4
:1033E0005C01DD20A1F3580154E0A50EB11C0E9440
:1033F0006C338C83882359F38B819C818130AFEFB0
:103400009A0710F0982F8827B6E0CB1631F0E7E046
:10341000CE1631F00E942329DACF0E94A228D7CFFE
:103420000E941C28D4CFF4E0CF12D1CF580124E061
:10343000A20EB11CC80103960E946C33DD2009F472
:1034400064CF882309F461CF8150990B989E900135
:10345000999E300D11244D2D4150550BCA01820FFC
:10346000931F019708F4B3CFAFE9BFE01197F1F7CD
:1034700000C00000F6CFCE0101960E9470175601E1
:10348000A6CF81E00E94D3120E9483123ECF81E03A
:103490000E948E12F9CF82E0F5CF2FEFC216D10431
:1034A00011F008F0A3C662E572E08C2D0E945C0E5C
:1034B000892B29F586E18C9DF0018D9DF00D11245D
:1034C000E855FC4F8681813009F062C0809152023C
:1034D00090915302892B99F080915402909155025A
:1034E000892B69F0809156029091570220915802E1
:1034F00030915902822B932B892B09F453C0809170
:103500000C0190910D018C159D0524F4D0920D01B4
:10351000C0920C01F701828196E19C9D50019D9D16
:10352000B00C1124950128553C4F6901D9015096E2
:103530008C935097928116968C911697992309F443
:103540003FC01A961C930E9319978F5F16968C9313
:103550000E941806F601968785878091FB01878374
:1035600080917F049091B202892B80870190F08135
:10357000E02D309741F0D60154966D917C91C501B4
:1035800082559C4F09951093A7030093A6032EC65E
:10359000823009F0B4CF8091560290915702892B66
:1035A00009F4ADCF26E12C9DC0012D9D900D112475
:1035B00088559C4FDC0150961C920E9434129FCF7C
:1035C000882309F413C6F9018189882309F40EC6FA
:1035D000C50182559C4F0E94EF1108C680911101D0
:1035E00081608093110130C6809111018E7F80939C
:1035F00011010E94551228C6809111018F7E013E53
:10360000110531F0053E1105C9F4809111018F7D3E
:10361000809311018091110180FF25C6D701129678
:103620008C910832110528F50E31110508F074C08F
:103630000430110580F5811112C615C6C8019056D7
:10364000811540E2940720F0905E8115904110F7BB
:103650008091110182FF07C680919C0381FD03C602
:1036600023E132E040E0B60190E080E00E944318A0
:10367000FAC50933110558F40D32110518F40B324F
:103680001105C9F690919A0392FDD5CF08C0043672
:103690001105C1F3D0CF90919A0394FDCCCF88232C
:1036A00009F4A1C09091B2028091FB01282F292B2F
:1036B000322F3D7FB1F11092D6021092D502309197
:1036C0009A0331FD2EC0F80143E0F695E7954A953F
:1036D000E1F7EE71FF27ED54FD4F98012F7033276E
:1036E00081E090E002C0880F991F2A95E2F780954B
:1036F000909520813181822393239183808360E0A0
:10370000C8010E942F188091FB018D7F0E944409FF
:1037100082E00E949A12F9CD90919A0393FD8BCF8B
:10372000BECF38E0F701A3E1B2E001900D923A95E7
:10373000E1F7109215021092170210921602A09053
:10374000D502B090D6020A151B05B1F530919A0347
:1037500035FF32C04091110141FB992490F841FF9F
:1037600002C036FF29C04091D3025091D402B60165
:10377000641B750B4091970350919803641775076C
:10378000D8F491FF08C080911101806180931101EC
:1037900082E00E945F098091B20285FF08C080919B
:1037A000110180628093110180E20E945F09692DFE
:1037B000C5010E942F18A9CD9091110121FB91F90B
:1037C000909311018D7F0E9444091093D6020093BB
:1037D000D502D092D402C092D302809111018460AC
:1037E0008093110195CF970140E0B601C8010E9476
:1037F00043188BCD053F4CE5140709F469C008F464
:1038000061C0063F8CE5180709F468C0D70112961D
:103810003C91332309F446C51092A5030330BDE55E
:103820001B0708F067C00A3FECE51E0730F4C8012B
:1038300082509C45449708F067C00E94D30C909337
:1038400008028093070201313CE5130709F44FC1D8
:1038500008F0CCC009305CE5150709F436C108F062
:1038600099C005309CE5190709F427C108F07FC00D
:103870000330BCE51B0709F416C108F01AC180919A
:103880000702816002301C4509F410C160910702F3
:103890001091080284E090E00E948033612F82E260
:1038A00090E00E9480330E94F8122FCD07E225EEAF
:1038B00045EE68ED7CE5F2C406E221EE40EE63EFF2
:1038C0007CE5ECC407E225EE44EE64EF7CE5E6C45B
:1038D00006E221EE42EE65EF7CE5E0C407E225EE6C
:1038E00046EE66EF7CE5DAC408E221E045EE69EDDC
:1038F0007CE5D4C40136FDE51F0709F49ECF053AE7
:103900002DE5120709F499CF06318CE5180709F067
:10391000B2C18091B202982F9A7A2091990320FF28
:1039200004C0482F447409F090E021FF04C0482FE0
:10393000417109F090E022FF04C0482F487809F057
:1039400090E023FF03C0827209F090E0332309F472
:10395000F8C081E0911101C080E080938E0189E27E
:10396000911185E30E94A0090E94A311CECC809101
:103970000702806207302CE5120709F497C0809196
:103980000702806108301C4508F490C0809107024E
:1039900080648CC0809107028B7F0D304CE514074A
:1039A00009F484C080F40B308CE5180709F493C047
:1039B000809107028C600C301C4508F477C0809120
:1039C00007028D7F73C0809107028F7E0F30ACE5B8
:1039D0001A0709F46BC080910702877F00311C45EC
:1039E00008F464C0809107028F7D60C00D3FECE554
:1039F0001E0709F478C050F505312CE5120709F4CB
:103A000080C098F480910702837F03314CE514074E
:103A100009F44CC008F46FC00E94F812909107029C
:103A2000892F97FB87F9805841C00B3F8CE5180719
:103A300009F447C008F053C08091080281600A3F32
:103A40001C4509F023CF8093080220CF0130BDE54B
:103A50001B0709F462C0B8F4809108028C7F0F3F05
:103A6000FCE51F0781F380910802836001151D4565
:103A700050F380910802982F909591708E7F892B3A
:103A800090FB81F9E0CF01363DE5130709F44BC007
:103A9000053A4DE5140709F44DC002301D4509F003
:103AA000F5CE60E03BC08091070282608093070200
:103AB000EDCE809107028460F9CF80910702886083
:103AC000F5CF809108028260BECF0E94F8128091EB
:103AD00007028068EBCF809107028E7FE7CF80914D
:103AE00008028E7FB0CF809108028D7FACCF80918D
:103AF00007028F7BDBCF0E94F812809107028F773D
:103B0000D5CF8091070282FB992790F921E0922777
:103B100090FB82F990FB83F9C9CF61E08EE090E0E1
:103B20000E948033B3CE90910702892F8F7E94FF3D
:103B30008061BCCF90910702892F8E7F90FF8160BA
:103B4000B5CF80918E01811104C089E20E94930952
:103B50000BCF85E3FBCF073C4CE5140709F474C099
:103B600008F46DC0083C9CE5190709F472C043E8ED
:103B70005FE06FE87FE0093C1C4509F0B4C30E9498
:103B8000AF06C3CB0E3CBCE51B0709F471C078F44B
:103B90000C3CFCE51F0709F466C045EC5FE066EDF0
:103BA0007FE00D3C1C4558F361E081E036C0063DE6
:103BB0003CE5130748F468E086E0003D1C4508F04A
:103BC000A4CB0E943C10A1CB0D351D4509F49DCB23
:103BD0008AC38091450280FF1BC08E7F809345027F
:103BE000609145027091460280914702909148028F
:103BF0000E941F0F109232028FEF90E7A2E08150D7
:103C00009040A040E1F700C000000E94190B7DCB5E
:103C100081608093450261E086950E94E70F75CB35
:103C200049E250E162E370E1AACF42E350E169E288
:103C300070E1A5CF43EB5FE06CEB7FE0A0CF4CEBF6
:103C40005FE063EB7FE09BCF4BE95FE067EA7FE0FB
:103C500096CF47EA5FE06BE97FE091CF4FE85FE006
:103C600063E87FE08CCF46ED5FE065EC7FE087CFD7
:103C700065E082E0A6CF0A35BDE51B0759F158F48F
:103C80000115FCE51F07C9F00E3D1C4509F02BC3CB
:103C90000E945A103ACB0B353DE51307E9F00C357D
:103CA0001D4509F020C38091080282FB882780F916
:103CB00091E089270E94B61216C30E94F8125FEFA6
:103CC00084E39CE0515080409040E1F700C0000048
:103CD0000E94EB0A81E0EECF80E0ECCF8281008190
:103CE0001181882369F0C8010E943A0CD82E682FF0
:103CF000C8010E94100AB8018D2D0E941E0CF9C245
:103D0000C8010E94E309D82EF6CF202F2F70B22EC3
:103D1000802F807F19F0B29490EFB922CC20A9F0C7
:103D2000BB2059F080E2810F883010F0111107C0DC
:103D30008B2D0E9466090E94A311812F5AC0809189
:103D40007F04B82AB0927F04F6CF812F0E94F61527
:103D5000BB2009F450C080E2810F883010F01111AF
:103D600004C08B2D0E945F0903C08B2D0E9458094F
:103D70000E94A31140C0302F3F70B32E802F807F50
:103D8000803219F0B29480EFB822112321F1113062
:103D900009F4A4C0CC2009F4ADC0DD2009F47DC035
:103DA00020E0D7014C9111965C91119712966C917D
:103DB000129713967C91139714968C910E94830C02
:103DC00080919C0381FDB9CFF701858180FFB5CF3C
:103DD0008F70858362C08091080282FF40C0CC2032
:103DE000C1F1BB2029F08B2D0E9466090E94A3110E
:103DF00080E00E945D16A92DA850BB0B149710F40B
:103E00000E945006812F902F0E94400A8111B9C153
:103E10001092900110928F01AA20B1F08091F001D0
:103E200080FD12C0D70112961C92859585958595C7
:103E30000E94D312C7010E94FF188091F00185955E
:103E4000859585950E948E1260E0C7010E94AC0C9A
:103E50006CCA80E00E94F615BB2069F282CFCC20AC
:103E600001F1D11004C08091FB018B2917C041E002
:103E7000D41206C08091FB018B290E944409BBCF5C
:103E800080919B03823078F3D812EDCF0E943909DC
:103E90008091ED01B812B092ED018B2D0E94EF15CB
:103EA000AACFD11006C00E9439098B2D0E94E815B7
:103EB000A2CF80919B0351E0D5120BC0823008F451
:103EC0009ACF8091B2028B2109F495CF0E948D097F
:103ED000EACF823040F3D812E6CF8DCF8091A10394
:103EE000CC2021F08D1508F486CFD7CFD81608F056
:103EF00082CFDBCFDD20C9F280919F039091A00398
:103F0000193321F080919D0390919E030E940F0B25
:103F1000812F0E94F6156FCF802F8695869583702E
:103F200069F0813009F067CF812F902F9370C11015
:103F300002C090E080E00E9424065DCF812F902F88
:103F40009370C11002C090E080E00E943A0653CF07
:103F5000802F837091F5C1104ECF412F4295469529
:103F60004770440F440F812F8F70042E01C0880FBB
:103F70000A94EAF7212F207114FF07C02FE030E0E8
:103F800001C0220F4A95EAF72095302F36953695D5
:103F90003370323069F050F440917D04313029F0B3
:103FA000822B84230E94F41226CF842B822BFACFFB
:103FB000282B80917D048227F5CF8695CC2011F0A7
:103FC000802F8170882309F416CF412F42954695A2
:103FD0004770440F440F812F8F70042E01C0880F4B
:103FE0000A94EAF7212F207114FF07C02FE030E078
:103FF00001C0220F4A95EAF72095302F3695369565
:104000003370323069F050F440917E04313029F041
:10401000822B84230E947F12EECE842B822BFACF38
:10402000282B80917E048227F5CFF02FFF70BF2EC2
:10403000CC2029F08F2F0E94D312812F2FCF812FD8
:104040000E94E8158B2D0E948E12D5CE123F89F169
:1040500060F4103FB9F0113F81F0CC2009F48CC01E
:10406000D1106BCE802F8F7128C0133F49F1143FC0
:10407000A1F78091080282FF2FC0802F8F71CC2082
:1040800011F31BC08091A103CC2079F0D81608F061
:10409000B2CE202F2F7181E090E001C0880F2A95C9
:1040A000EAF790917E048927B5CF8D1508F4A3CE49
:1040B000F0CF802F8F71C110C6CF0E94D3129BCE3C
:1040C00080E0CC2009F4A6CF81E0902F9F7101C041
:1040D000880F9A95EAF79ECF80919B038230A0F1DA
:1040E0008091ED01CC20F1F00E945F098091F001F8
:1040F0008770843041F40E946C09802F8F710E9478
:104100008E12A12C78CE80919B03D816D0F7202F49
:104110002F71B22E822F0E94D31263E08B2D0E944A
:10412000DE12EFCF0E94660980919B03D81640F003
:104130000E946C090E948D0964E0802F8F71EFCF7F
:1041400081E00E949A12DDCFCC2059F0302F3F71D0
:10415000B32E832F0E94D31263E08B2D0E94DE12B8
:104160004ACE81E00E949A1241E04D1508F043CEFC
:1041700082E00E949A123FCED110BECE802F8F7166
:1041800062CFCC2019F0D11043CE46CED11040CE14
:1041900020E0F701408151816281738184810E9416
:1041A000830C80919C0383FF33CE80918F0190918B
:1041B0009001029709F02CCE812F0E94E81628CE9C
:1041C0000031BFE51B0709F45CC90131EFE51E07AB
:1041D00009F461C96801E7E5DE1A882309F45DC9BD
:1041E000FFEFCF16D10409F008F489C980919A0332
:1041F00080FF39C00E9418066C01D70112968C917D
:10420000882309F4F9C98091110182FF08C023E1D4
:1042100032E040E0B60190E080E00E9443180B31AC
:10422000BCE51B0709F4DAC90C31ECE51E0709F4FB
:10423000DBC990911101892F8E7F90FF81600A3137
:10424000FCE51F0709F4D3C9C8019056811520E287
:10425000920728F0905E8115904108F0DBC910921A
:10426000D6021092D502033FBCE51B0709F424CB0C
:1042700008F0C0CA083DFCE51F0709F417CB093D4B
:104280002CE5120709F430CB073D3CE5130709F094
:10429000BDCA06E221EE41EE67ED7CE5C7010E9452
:1042A000091733C806314CE5140709F432CB809165
:1042B000B20282720A3C9CE5190709F4CFCC08F0DF
:1042C00061CC053CBCE51B0709F4B4CC08F043CC39
:1042D000033CFCE51F0709F4A3CC08F0A6CC023C84
:1042E0001C4509F476CCF70186819781009709F483
:1042F000F5CC0E94BC07182F092FF701C280D5808A
:10430000D2943FE0D3228091F0018770C1F0AC2CB1
:10431000CC20B1F0892F807F803421F080E2810FA2
:10432000883068F08091080282FD09C082E00E9416
:104330009A128091F0018770AA24A3948111A12C74
:10434000902E92942FE09222FBE0F91508F453CDC1
:10435000E92DF0E0E853FC4C0C941C33CF92DF9233
:10436000EF92FF920F931F93CF93DF938091A80159
:10437000807F31F48091A501C091EC0181110BC0C7
:10438000DF91CF911F910F91FF90EF90DF90CF9031
:1043900008952196C7708091AB018C1789F3F09036
:1043A000A301E090A401C090A601D090A701A601AE
:1043B0006E2D8F2D0E945C06D0E08111EACF8E0118
:1043C00083E0000F111F8A95E1F7F801E455FE4FD5
:1043D00081818E11DECF80818F11DBCF82818111AF
:1043E000D8CFE380F480EC18FD0860E083EA91E028
:1043F0000E94AC0C8091970390919803E816F906FF
:1044000040F68091A8018F7080618093A801F80127
:10441000EF54FE4F80818F708061808383EA91E04A
:104420000E94FF18DF91CF911F910F91FF90EF90A5
:10443000DF90CF900C94D9093F924F925F926F9288
:104440007F928F929F92AF92BF92CF92DF92EF9224
:10445000FF920F931F93CF93DF93CDB7DEB765978E
:104460000FB6F894DEBF0FBECDBF8C0185E0F8011A
:10447000DE01519601900D928A95E1F7D8014C909A
:1044800011965C9011971296EC9012971396CD901E
:10449000DC9060E083EA91E00E94AC0C83EAA82EF5
:1044A00081E0B82E8090A6019090A701A4016091B0
:1044B000A4018091A3010E945C068111CAC1F09001
:1044C000A501F601E819F9094F0160E0FF2009F4A0
:1044D0006DC1C5010E94AC0C609097037090980369
:1044E0003090A8018614970408F013C14091A601EA
:1044F0005091A701B090A301A090A401832D807FCB
:104500006A2D09F0ADC08B2D0E945C06FE2C811136
:104510003BC0D80111968C9111978A1135C08C91AE
:104520008B1132C02091A9013091AA0116968D916C
:104530009C912817390741F5E11026C0832D8F7013
:1045400080618093A80183EA91E00E94FF18809126
:10455000A801F80185838F2D65960FB6F894DEBF0C
:104560000FBECDBFDF91CF911F910F91FF90EF90C4
:10457000DF90CF90BF90AF909F908F907F906F9083
:104580005F904F903F900895F4EF6F16F1E07F0633
:1045900020F480919C0380FF21C0A601652D842D0D
:1045A0000E945C06811118C081E08E2580FF16C034
:1045B0004E2D652D842D0E94B909882379F083EA58
:1045C00091E00E94FF1888E0E3EAF1E0DF011D922C
:1045D0008A95E9F7F12CBFCF80E0E8CFA601652DE1
:1045E000842D0E945C06811124C081E08E25B82FA5
:1045F000B170CB2E80FF2BC04E2D652D842D0E94D7
:10460000B909D82E811123C0498A5A8A89899A8981
:104610000E94690C292F22952F70223060F02430DF
:1046200088F49F7061F0F8019581907F41F4FD2C32
:1046300092CF80E0DCCF9F7011F08823C1F3805EC1
:104640008830A8F3C8010E94FF18DC2CF0CFEE20C0
:1046500009F481CF8091A80181608093A801BACF2D
:104660008B2D0E945C06811124C0D80111968C917B
:1046700011978A111EC08C918B111BC02091A9012A
:104680003091AA0116968D919C911797281739079A
:1046900081F4E1100EC015963C92C8010E94FF18EB
:1046A00088E0F801A3EAB1E001900D928A95E1F764
:1046B00052CFC8010E94750C882339F1EE2029F1F0
:1046C0008091A8018032A0F02091A3013091A40133
:1046D0003A8729871B86DD86CC868E878091A90143
:1046E0009091AA01988B8F87CE0109960E94FF189E
:1046F00088E0F801A3EAB1E001900D928A95E1F714
:104700000E94AE21FF24F39426CFC8010E94FF1817
:10471000F9CF832D807F09F452CF9090A301809030
:10472000A4014091A6015091A701682D892D0E94F6
:104730005C0681111CC0F8018181881118C080813C
:10474000891115C02091A9013091AA018681978114
:104750002817390761F4E1100AC03582C8010E94A8
:10476000FF1888E0D5011D928A95E9F7F4CEC801BB
:104770000E94750C882349F2EE2039F28091A8013D
:10478000803208F4B5CF2091A3013091A4013A837F
:1047900029831B82DD82CC828E838091A901909136
:1047A000AA0198878F83CE010196A0CF83EA91E07A
:1047B0000E94AC0C809197039091980388169906FB
:1047C00080F6FE2CEE2009F4A0CFE090A301D0905B
:1047D000A4014091A6015091A7016D2D8E2D0E943C
:1047E0005C06811128C0F80181818D1124C080816F
:1047F0008E1121C02091A9013091AA018681978153
:1048000028173907C1F480919C0382FD49CF90910C
:10481000A80190FD45CF907F09F442CF8091A80177
:104820008583903F09F439CF982F907F905F8F70E8
:10483000892B858332CFC8010E94750C811158CF16
:104840008091A80181608093A801C8010E94FF188F
:1048500082CEEE2009F459CFC8010E94750CF82EC3
:10486000882309F452CF88E0F801A3EAB1E001906F
:104870000D928A95E1F78091A3019091A4010E9485
:10488000690C0E94AE2167CECF93DF93CDB7DEB720
:1048900060970FB6F894DEBF0FBECDBF29873A8769
:1048A0004B875C876D877E878F87988BCE010996B3
:1048B0000E941C2281112FC088E0FE013996DE0182
:1048C000119601900D928A95E1F74C855D856A8578
:1048D00089850E945C0681111EC0A091AB01B0E0E9
:1048E000CD010196877099272091EC0128171906B0
:1048F00009F193E0AA0FBB1F9A95E1F7A455BE4FAB
:1049000098E0FE01319601900D929A95E1F780931F
:10491000AB010E94D9098091EC019091AB01891300
:1049200017C060960FB6F894DEBF0FBECDBFDF9103
:10493000CF9108950E94F8121092AB011092EC01F1
:1049400088E0E3EAF1E0DF011D928A95E9F7E3CF21
:10495000B8E08B9FC001112484559E4F0E941C22F9
:104960008823F9F28091EC0190E0019687709927F5
:104970008093EC01D0CFEF92FF920F931F93CF93D0
:10498000DF938091DA02882361F0C091D9028CE034
:10499000F82E8091DA02C81758F01092DA021092BD
:1049A000D902DF91CF911F910F91FF90EF90089561
:1049B000EE24E394EC0EE092D9020C2F10E0CF9D90
:1049C000E0011124C552DD4F4B815C8169818881F2
:1049D0000E945C0681111DC08E819F81892B21F46C
:1049E00088859985019651F4288139814A815B81B6
:1049F0006C817D818E819F810E944424F09EF00114
:104A0000F19EF00D1124E552FD4F14821382109295
:104A10007F04CE2DBECF10927E0310927D031092A4
:104A2000120180917C0380937B030E9495060C9475
:104A3000BB243F924F925F926F927F928F929F9290
:104A4000AF92BF92CF92DF92EF92FF920F931F939C
:104A5000CF93DF93C0917B0397E0892E01E010E0B4
:104A60002CE0322E3EEF932E4424439480917C031D
:104A70008C1315C00E94BB24DF91CF911F910F9121
:104A8000FF90EF90DF90CF90BF90AF909F908F906E
:104A90007F906F905F904F903F900C949506D0E080
:104AA000FE01EE0FFF1FED58FC4F80819181889E23
:104AB000D001899EB00D1124A55CBC4F14962C9199
:104AC0001497211157C05090DA02EBEDF2E030E07C
:104AD00020E0712C5D01251508F04AC0E284F384C2
:104AE000D501CD90DC906FEF7FEF612C462D50E02B
:104AF000DA01AA0FBB1FAC0DBD1D0D90BC91A02DFE
:104B0000109731F0EA16FB0609F4BA016394EECF70
:104B10006F3F7607A1F1D80102C0AA0FBB1F6A95AB
:104B2000E2F77A2AB80102C0660F771F6A94E2F7AB
:104B3000AB014150510974161506F9F4329EF0018B
:104B4000339EF00D1124E552FD4F889ED001899EC1
:104B5000B00D1124A55CBC4F12962D913C9113977A
:104B600037832683908291829187808715964C9215
:104B70000E9467062196C37079CF148213822F5F3B
:104B80003F4F3C96A8CF2F923F924F925F926F92E9
:104B90007F928F929F92AF92BF92CF92DF92EF92CD
:104BA000FF920F931F93CF93DF93CDB7DEB7699733
:104BB0000FB6F894DEBF0FBECDBF942F498B252FC3
:104BC0005A8B6B8B7C8B8D8B4C895D89622F892FE7
:104BD0000E945C06811109C080918F019091900123
:104BE00001969093900180938F018B89811110928F
:104BF0007F041D861E861F86188A85E0FE01719639
:104C0000DE01199601900D928A95E1F780910802D4
:104C100082FD1EC08091810390918203892BC1F097
:104C20000E9418062091EE013091EF01821B930B38
:104C300020918103309182038217930720F08091A5
:104C4000F00182FFF5C10E94730981110E943909A8
:104C50004C855D856A8589850E945C06811111C03D
:104C600061E0CE0109960E94AC0C6C018B8527EFA8
:104C7000C2162CE5D20681F4882321F181E08093CD
:104C8000120129853A854B855C856D857E858F85EA
:104C900098890E944424C5C038EFC3163CE5D3066A
:104CA00029F4882379F00E940B25EBCF49EFC41635
:104CB0004CE5D40639F4882329F080911201811142
:104CC000F2CFDCCF0BE313E0512CB12CA12C22242A
:104CD0002394312C2EEF422EF801408151818824FB
:104CE0008A94982C20E0822F90E0FC01EE0FFF1FA9
:104CF000E40FF51F608171816115710531F0C616F1
:104D0000D70609F44C012F5FEECFF12CFFEF8F1681
:104D10009F0609F448C0F8014481F09012018F2DDC
:104D2000411180E0F82FF170FF2EF801E5808681B7
:104D30009B85992309F40CC1FF2009F409C16090F7
:104D4000950370909603E11012C0A10101C0440FB9
:104D50008A94EAF7842B86838091D7029091D802B7
:104D60008615970520F47092D8026092D702C1018F
:104D700002C0880F991F2A95E2F70197F801268152
:104D80002817190681F480917D0390917E03009786
:104D900009F460C00E9409066816790608F05AC036
:104DA00021E0F80124835F28FFEFAF1ABF0A095FF3
:104DB0001F4F28E0A216B10409F08ECF8B858823FF
:104DC00009F421C1552009F41EC10E9418069093D0
:104DD0007E0380937D038091DA02883010F591E0A4
:104DE000980F9093DA0298E0FE013996DE01119651
:104DF00001900D929A95E1F73CE0839FC001112448
:104E000085529D4F28E0FE013196DC0101900D9204
:104E10002A95E1F72FEF3FEFFC0131872087D386FA
:104E2000C28669960FB6F894DEBF0FBECDBFDF9184
:104E3000CF911F910F91FF90EF90DF90CF90BF9097
:104E4000AF909F908F907F906F905F904F903F902A
:104E50002F90089580917B0350917C03982FF0E070
:104E6000E0E0851314C090937B03E017F10709F489
:104E70009ACF90E0FC01EE0FFF1FED58FC4FB1827E
:104E8000A08201968370992780937C038CCF682E33
:104E9000712CF301EE0FFF1FED58FC4F2081318183
:104EA00047E0429FD001439FB00D1124A55CBC4F49
:104EB0006D917C911197798F688F40E020E030E010
:104EC000E32FF0E0EE0FFF1F688D798DE60FF71FDF
:104ED0008080918081149104E1F0F8010190F081CB
:104EE000E02DFF8BEE8B20E005C08616970609F4B7
:104EF0004F2D2F5FE22FF0E0EE0FFF1F6E897F89AD
:104F0000E60FF71F608171816115710571F73F5FD1
:104F1000D7CF4423D1F0F801231708F0FD0121E099
:104F200024830E171F0721F490937B03F42E3BCFAD
:104F3000981305C0AE17BF0711F49F5F93709301DC
:104F40002F5F3F4F822F83708CCFF0E0E0E0F7CFF0
:104F500090E0E1101FC0B10102C0660F771F2A95D3
:104F6000E2F79B01215031098217930731F4442362
:104F700009F447C0C5010E946706C10101C0880F3E
:104F80008A94EAF7982F9095F80186818923868381
:104F9000FE2C09CF9C01082C02C0359527950A9458
:104FA000E2F7A90141705527BC01615071098623C0
:104FB0009723892B11F5452B01F1F801828193810B
:104FC000892BC1F01B821C821D821E8249824A826B
:104FD0000E9418068160582F9D838C83F80182817E
:104FE00093818F83988729813A814B816D817E815E
:104FF0000E944424F8011582C0CFF22FF170EF2EE9
:10500000BCCFEF2CBACF90917B0380917C03981793
:1050100031F00E941925552009F433CE02CF0E94A9
:10502000BB2410927E0310927D030E949506F3CF5D
:1050300082E00E949A1207CECF93DF9300D000D077
:105040000F92CDB7DEB79093AF028093AE02811579
:1050500020E2920748F40F900F900F900F900F905E
:10506000DF91CF910C9445168EEF89838A831B8242
:105070000E9418068160782F9D838C8349815A8114
:105080006B818D810F900F900F900F900F90DF919B
:10509000CF910C94C3250F931F93CF93DF938C0173
:1050A000EB0162E572E08C2F0E945C0E892BA1F46B
:1050B00080919D0390919E030E940F0BDD27C65B9C
:1050C000DD4F8881F80110821882833009F148F49D
:1050D000813059F0823081F0DF91CF911F910F9193
:1050E00008958430D1F08530B9F7809152029091C3
:1050F0005302009789F306C08091540290915502A3
:10510000009799F3DF91CF911F910F910C941C2878
:105110008091560290915702F3CF8091580290915E
:105120005902009779F720915202309153028091F1
:1051300054029091550221153105D9F2009711F7CB
:10514000C901E0CFCF93DF9300D000D00F92CDB74D
:10515000DEB79093AF028093AE02811520E29207F2
:1051600048F40F900F900F900F900F90DF91CF9118
:105170000C9418188EEF89838A8381E08B830E94B8
:1051800018068160782F9D838C8349815A816B81B9
:105190008D810F900F900F900F900F90DF91CF9116
:1051A0000C94C325BF92CF92DF92EF92FF920F93A0
:1051B0001F93CF93DF93B82EC0907E0480917D041F
:1051C000C82AC7E0D0E0D12CF12CE12CD701C601D0
:1051D0000C2E04C0B695A795979587950A94D2F79B
:1051E00080FF1FC04B2D60E08C2F0E94C60B8C01EE
:1051F00081309105B1F00E94A2288FE39CE90197CC
:10520000F1F700C00000C8010E941C2881E0DF9176
:10521000CF911F910F91FF90EF90DF90CF90BF90B3
:105220000895219798F64B2D60E080E00E94C60B10
:10523000EC010E94A2288FE39CE90197F1F700C0DE
:105240000000CE01E1CFCF93DF93EC010E94A228B2
:1052500080919D0390919E030E940F0BCE01DF91E0
:10526000CF910C941C280F931F93CF93DF938C0145
:10527000862F62E572E00E945C0E892BC9F4C09112
:105280005202D0915302209799F0F8018081833027
:1052900069F4CE010E942329CE010E942329CE0168
:1052A000DF91CF911F910F910C9423298430B8F78F
:1052B000DF91CF911F910F9108950F931F93CF937B
:1052C000DF938C01EB0162E572E08C2F0E945C0E93
:1052D000892B09F064C0FE01FF27D8018C91E65BA1
:1052E000FD4F8130D9F419969C911997992311F0AB
:1052F00080830CC01A969C919923D1F382E080831D
:1053000080915402909155020097D9F480915202F5
:1053100090915302009709F442C013C08230E9F51E
:1053200019968C91199781112DC01A968C91811123
:105330000EC083E0808380915602909157020097BF
:1053400019F1DF91CF911F910F910C94A22884E065
:1053500080838091580290915902009791F7809133
:105360005202909153020097F9F00E9423298091F4
:10537000540290915502009721F78091520290912A
:105380005302DFCF85E080838091520290915302D7
:10539000009729F00E942329F0CF86E08083DF91D7
:1053A000CF911F910F9108958091540290915502D1
:1053B000B1CF90E080E00E947A33893E9E4F11F495
:1053C0000C94BA0C80E008951F920F920FB60F92C2
:1053D00011242F933F934F935F936F937F938F93FA
:1053E0009F93AF93BF93CF93DF93EF93FF93D091AE
:1053F000E900DF708091EC00C82FC17080FDC0E82B
:105400001092E9008091F000877F8093F0007894FB
:105410000E9403131092E9008091F000886080934D
:10542000F000CD2BCF70C093E900FF91EF91DF9199
:10543000CF91BF91AF919F918F917F916F915F912C
:105440004F913F912F910F900FBE0F901F90189585
:105450001F920F920FB60F9211242F933F934F93E9
:105460005F936F937F938F939F93AF93BF93EF93CC
:10547000FF938091E10082FF09C08091E20082FFEA
:1054800005C08091E1008B7F8093E1008091DA007C
:1054900080FF24C08091D80080FF20C08091DA0076
:1054A0008E7F8093DA008091D90080FF9DC080E1DB
:1054B00089BD82E189BD09B400FEFDCF81E0809302
:1054C0007C0480916604811109C00E9451040E94ED
:1054D00044058091E20084608093E2008091E100C5
:1054E00080FF17C08091E20080FF13C08091E2002E
:1054F0008E7F8093E2008091E20080618093E200E1
:105500008091D80080628093D80019BC85E0809398
:105510007C048091E10084FF2BC08091E20084FF35
:1055200027C080E189BD82E189BD89B5982F91703E
:1055300080FFFBCF8091D8008F7D8093D800809131
:10554000E1008F7E8093E1008091E2008F7E809366
:10555000E2008091E20081608093E2008091730418
:10556000882309F447C084E080937C0480917C0404
:105570008091E10083FF27C08091E20083FF23C078
:105580008091E100877F8093E10082E080937C043A
:10559000109273048091E1008E7F8093E1008091EE
:1055A000E2008E7F8093E2008091E2008061809330
:1055B000E20042E060E080E00E9412058091F0008D
:1055C00088608093F000FF91EF91BF91AF919F9120
:1055D0008F917F916F915F914F913F912F910F909C
:1055E0000FBE0F901F90189519BC10927C0410925A
:1055F000660474CF8091E30087FD93E090937C0470
:10560000B5CF78941F921FB61F9211248F939F934A
:10561000AF93BF9380915F0490916004A091610467
:10562000B09162040196A11DB11D80935F04909317
:105630006004A0936104B0936204BF91AF919F9105
:105640008F911F901FBE1F9018951F921FB61F921B
:1056500011248F939F93AF93BF9380915E04811128
:1056600013C080915F0490916004A0916104B09197
:1056700062044196A11DB11D80935F049093600464
:10568000A0936104B0936204BF91AF919F918F91F9
:105690001F901FBE1F901895CDB7DEB7E4970FB6C9
:1056A000F894DEBF0FBECDBF84B7877F84BF0FB62F
:1056B000F894A895809160008861809360001092B2
:1056C00060000FBE80E890E00FB6F8948093610010
:1056D000909361000FBE85B7806885BF85B78068ED
:1056E00085BF80E697E090938501809384010E94B6
:1056F000700E0E94C60E0E94A00B0E9451040E94D0
:1057000044058091E20084608093E2007894809167
:105710007C048823A1F01091E9001F709091EC00A7
:10572000892F817090FD80E8182B1092E9008091FC
:10573000E80083FD0E9403131F701093E90082E0CC
:1057400084BD93E095BD9AEF97BD80936E000E9453
:10575000BA0C811102C00E944D0E84E30E946207C0
:1057600084E90E94620780E30E94620787E60E9444
:10577000620701E511E05CE5E52E51E0F52ED80168
:105780008D918D018F3F11F00E946207E016F106A6
:10579000B1F788E0E3E2F2E0DF01282F1D922A95BD
:1057A000E9F7EFEFF1E0DF011D928A95E9F70E943A
:1057B000D929811102C00E945A1082E090E00E9413
:1057C0006C3380930A020E94D30C9093080280935A
:1057D00007020E94C410EFE3FCE93197F1F700C023
:1057E00000000E94C4108091230280FF08C06FEF68
:1057F0007FEF90E080E00E949E330E94EB0A83E0FE
:1058000090E00E946C330E94F41280910902811191
:1058100033C00E94D929811104C00E945A100E94ED
:105820004A1088E090E00E947433609345027093C0
:10583000460280934702909348026E7F71F40E9463
:105840004A1088E090E00E947433609345027093A0
:10585000460280934702909348020E94B406109239
:1058600032028091450280FF04C060E086950E946C
:10587000E70F81E08093090257985F9A56985E9AE5
:105880008FE891E00197F1F700C0000089B190E046
:10589000880F892F881F990B4E9963C120E0822BB6
:1058A00080931D0280E091E090935B0480935A0402
:1058B0009E012F5F3F4F790180917C0400E112E14E
:1058C000853009F48AC10E94C410882359F08FB72B
:1058D000F89440915F04509160046091610470916C
:1058E00062048FBFA3E2B2E0EBE0F2E010E000E080
:1058F000702F8D919D91219131912817390709F4CD
:105900007CC160E0CC24C394D12C28273927A9017D
:105910004C215D21452B09F46AC16BA77CA79C0132
:105920002C213D2191E0232B09F490E09DA70E94BA
:1059300018068160782F9FA78EA74BA55CA56DA543
:105940008FA50E94C325000F111FF801E55FFD4FD1
:1059500080819181C826D926D182C08280910C0194
:1059600090910D0110E006E1019609F08CC1809143
:105970001201811192C180919A0380FF1EC0809113
:10598000110182FF1AC00E9418062091D3023091A3
:10599000D402AC01421B530B20910F013091100136
:1059A0004217530750F023E132E041E0BC018091FF
:1059B000D5029091D6020E9443188091320288232A
:1059C000D1F180913102E0914502E695E81BE09328
:1059D0002D02823009F08CC1F0E0ED50FE4FE491D1
:1059E0000E2F10E0ACE8CA2EABE0DA2E80912E022A
:1059F000882361F010922E020E94180690932C02C8
:105A000080932B021092300210922F020E941806EF
:105A1000E0912B02F0912C028E1B9F0B8F3F9F4732
:105A200050F40E0F1F1F10932C0200932B028BE2D9
:105A300092E0F6010995E0911D02EE0FEE0FE09362
:105A40001D0289B190E0880F892F881F990B4E990C
:105A500063C120E0822BE82BE0931D02EF70F0E0A1
:105A6000E45AFE4F808190911C02890F80931C02A2
:105A700020E084304CF080911B028F5F80931B02EA
:105A800080E00E94D22821E080911C028D3F4CF4DE
:105A900080911B02815080931B0281E00E94D228DA
:105AA00021E080911C02082E000C990B64E070E04C
:105AB0000E94083380931C02222359F08FB7F89478
:105AC00040915F04509160046091610470916204A0
:105AD0008FBF0E94500690911E02891380931E0270
