:100000000C9423040C945B040C945B040C945B042C
:100010000C945B040C945B040C945B040C945B04E4
:100020000C945B040C945B040C945B040C94F42817
:100030000C94B0280C94C3290C945B040C945B04BE
:100040000C945B040C945B040C945B040C949F294B
:100050000C945B040C945B040C945B040C945B04A4
:100060000C945B040C945B040C945B040C945B0494
:100070000C945B0405010902A10185020901A1009C
:10008000050919012905150025019505750181024C
:100090009501750381010501093009311581257F1D
:1000A00095027508810609381581257F9501750827
:1000B0008106050C0A38021581257F950175088196
:1000C00006C0C005010980A101850319012AB700F6
:1000D000150126B700950175108100C0050C0901B6
:1000E000A101850419012AA002150126A00295018B
:1000F00075108100C005010906A1018506050719D3
:10010000E029E71500250195087501810205071909
:100110000029EF1500250195F075018102050819E8
:10012000012905950575019102950175039101C09D
:100130000660FF0961A1010962150026FF009520F4
:10014000750881020963150026FF00952075089146
:1001500002C005010906A101050719E029E71500FC
:100160002501950875018102950175088101050732
:10017000190029FF150026FF009506750881000566
:1001800008190129059505750191029501750391DD
:1001900001C000000000000000000000000000009E
:1001A000000000000000000000000000000000004F
:1001B0000000000000007E0F00D4FFFFFFC700001A
:1001C000007800000000000000002A2B280000003A
:1001D00000000000000000000000000000290000F6
:1001E00000002C1E3420212224342627252E362DD3
:1001F0003738271E1F202122232425263333362E6D
:1002000037381F0405060708090A0B0C0D0E0F10DE
:100210001112131415161718191A1B1C1D2F313023
:10022000232D350405060708090A0B0C0D0E0F10C7
:100230001112131415161718191A1B1C1D2F313003
:10024000354C643214783C1E1E140A05FD377A586A
:100250005A000004E6D6B446020021011600000050
:10026000742FE5A3E001FA00E75D003D8889C654DC
:1002700036C3174FE4E74F2F415745EC9A6CFD5BAF
:1002800078D0DCF5C8FE20A674D6E099A85A7B9CED
:10029000F2265E1C175EA41B29A77E6D53D934AFCE
:1002A0000B02E20BDDCF62301F0F9C47D8440822BF
:1002B00020C7E512FC28698DF646D4C0A15F04DA98
:1002C000BE542633A88ED8170B3A53B1508C284E03
:1002D000B52B8AEAA18A47812CB5301B22A6D515F9
:1002E000D2690ED0848218633893818766340ADF1E
:1002F000F7F5ED63C81E3D8B0EFAEF9CDBA622508E
:10030000B28D61D97EB3CFA07A149D4DBF30011D4F
:1003100023C4458214830C0402490DBAA77B6B24C5
:10032000CCBF9FFC51E911EDE3E3E92CE85F0E94AB
:100330001255C0CC0460E5A00F7301C81ED92C4F24
:10034000E3CE2D4ABF2F531754CD3C234819F90E45
:10035000C6A10000B7B2D340F60A98130001830289
:10036000FB03000034CE9072B1C467FB02000000B2
:100370000004595A000101010101010101010202B9
:100380000202020202020203030303030303030443
:10039000040404040404050505050506060606060E
:1003A000070707070708080808090909090A0A0AC8
:1003B0000B0B0B0C0C0C0D0D0D0E0E0E0F0F0F106A
:1003C00010111111121213131414151516161717F4
:1003D000181819191A1A1B1B1C1D1D1E1E1F202060
:1003E000212222232424252626272829292A2B2CAA
:1003F0002D2D2E2F30313232333435363738393ACD
:100400003B3C3D3E3F404142434445464748494AC4
:100410004C4D4E4F50515354555658595A5B5D5E92
:100420005F616264656668696B6C6D6F707273752D
:1004300077787A7B7D7E8082838587888A8C8E8F91
:1004400091939596989A9C9EA0A2A3A5A7A9ABADBF
:10045000AFB1B3B5B7BABCBEC0C2C4C6C9CBCDCFAD
:10046000D1D4D6D8DBDDDFE2E4E7E9EBEEF0F3F55B
:10047000F8FAFDFF2223252628292A2C2D2F303299
:10048000333536383A3B3D3E4042434547494A4C76
:100490004E5051535557595A5C5E606264666869A4
:1004A0006B6D6F71737577797B7D7F8183858789AC
:1004B0008A8C8E90929496989A9C9E9FA1A3A5A7B1
:1004C000A8AAACAEAFB1B3B4B6B8B9BBBCBEBFC1DD
:1004D000C2C3C5C6C7C9CACBCCCDCED0D1D2D2D368
:1004E000D4D5D6D7D7D8D9D9DADADBDBDBDCDCDC7C
:1004F000DCDCDDDDDDDDDCDCDCDCDCDBDBDBDADA3F
:10050000D9D9D8D7D7D6D5D4D3D2D2D1D0CECDCCB5
:10051000CBCAC9C7C6C5C3C2C1BFBEBCBBB9B8B6CA
:10052000B4B3B1AFAEACAAA8A7A5A3A19F9E9C9A55
:1005300098969492908E8C8A89878583817F7D7B23
:1005400079777573716F6D6B6968666462605E5C04
:100550005A5957555351504E4C4A494745434240CA
:100560003E3D3B3A3836353332302F2D2C2A292860
:1005700026252322290014001A0008001500170060
:100580001C0018000C00120013002A002B4304006A
:100590001600070009000A000B000D000E000F00F6
:1005A00033003400E1001D001B00060019000500A7
:1005B00011001000360037003800D95CE000E2007E
:1005C000E300650002512C002C0001515000510045
:1005D00052004F0035001E001F00200021002200A5
:1005E000230024002500260027004C000100C25CE7
:1005F000C35CC95CCA5C010001002D002E002F0005
:1006000030003100010044004500680069006A00C4
:100610006B006C006D006E006F000100005C01005B
:100620000100390001000100010001004A004E00F4
:100630004B004D0035021E021F0220022102220241
:10064000230224022502260227024C000100010099
:10065000010001000100010001002D022E022F0205
:100660003002310201003A003B003C003D003E00F8
:100670003F00400041004200430001000100010032
:100680000100390001000100010001004A004E0094
:100690004B004D002900B200B500B100B3000100CD
:1006A00001000100010001004600010001000100FD
:1006B0000100010001000100010001000100010032
:1006C0000100010001000100010001000100010022
:1006D0000100010001000100010001000100010012
:1006E000010001000100010001000100F200F10021
:1006F000F000F30001000100C50300000200020049
:10070000C103000003000100C60300000400020052
:10071000AB03500605000100C703000006000200FD
:10072000AD03000007000200C30300000800010041
:10073000C803000009000200AF032B060A000200F4
:10074000B1032B060B000200B3032B060C000200C2
:10075000B5032B060D000200B7032B060E000200A6
:10076000B9032B060F000200BB032B06100002008A
:10077000BD032B0611000200BF032B06120002006E
:10078000C903000013000200CB03000014000100A5
:10079000CD03000009025B00030100A0FA09040078
:1007A000000103010100092111010001224000079D
:1007B000058103080001090401000203000000098B
:1007C00021110100012222000705820320000107F8
:1007D00005030320000109040200010300000009D1
:1007E000211101000122BC00070584032000011231
:1007F0000100020000000803A172040200010203CC
:10080000011C037600690061006C003A0066003646
:100810000034006300320062003300630000000E09
:100820000355005400340037002E00320000001041
:10083000034B0065007900680069007600650000E0
:1008400000040309040011241FBECFEFD4E0DEBF73
:10085000CDBF04B603FE18C080911204909113041A
:10086000A0911404B09115048730904BA740B04B71
:1008700059F410921204109213041092140410925E
:100880001504E0E0F8E3099524E0A2E8B1E001C036
:100890001D92A231B207E1F711E0A0E0B1E0EEEE67
:1008A000F5E602C005900D92A238B107D9F70E9473
:1008B000EA290C94D1320C9400002091E40030918C
:1008C000E50095E6A9012091EC00822F817020FFC0
:1008D00006C08091E80080FF06C080E00895209166
:1008E000E80022FD1AC080910F04882389F085302A
:1008F00089F08091EB0085FD0FC02091E4003091DC
:10090000E50042175307F9F29150E1F684E00895AB
:1009100082E0089583E0089581E00895EF92FF92C8
:100920000F931F93CF937C018B010E945D04C82F0E
:10093000811117C08091E80085FD0BC08091E8000F
:100940008E778093E8000E945D04882399F3C82F76
:1009500008C0F70181917F018093F10001501109D6
:1009600049F78C2FCF911F910F91FF90EF90089531
:10097000CF93FC0180910F04843001F5C091E90010
:10098000CF702091EC00922F917020FD90E8C92B40
:1009900082E08093E9008091E80080FF0CC050E085
:1009A00040E060E270E0CF010E948E048091E80098
:1009B0008E778093E800CF70C093E900CF910895BF
:1009C0008091070487FF13C08091E80082FF06C072
:1009D0008091E8008B778093E80004C080910F0439
:1009E0008111F2CF089580910F048823D9F380916B
:1009F000E80080FFF8CF8091E8008E77ECCF982F49
:100A00009093E900242F762F50E0891731F07091F0
:100A1000EC002091ED005091F00021FD07C09F5F98
:100A2000953071F78093E90081E008953091EB00F3
:100A30003E7F3093EB003091ED003D7F3093ED0031
:100A40003091EB0031603093EB007093EC00209319
:100A5000ED005093F0002091EE0027FDE0CF80E004
:100A60000895FC0180910D0490910E04861797075C
:100A7000A0F06115710529F49091E8009E7790939C
:100A8000E80090E06115710551F4911108C0809162
:100A9000E80082FF32C080E00895BC01F2CF80916F
:100AA0000F048823B1F18530B1F18091E80083FD16
:100AB0002EC08091E80082FDEACF8091E80080FF9F
:100AC000E1CF2091F20030E06115710519F0283076
:100AD000310558F091E02830310509F090E020917F
:100AE000E8002E772093E800CDCF81918093F1002C
:100AF000615071092F5F3F4FE7CF80910F0488232A
:100B000041F0853041F08091E80083FFC0CF81E063
:100B1000089582E0089583E0089508958091E303A5
:100B200008959C014FB7F8948091D9039091DA030E
:100B3000A091DB03B091DC034FBF821B930B0895A0
:100B40002FB7F8948091D9039091DA03A091DB0339
:100B5000B091DC032FBF08952091D6033091D703C5
:100B60002817390771F09093D7038093D603E0914B
:100B7000D403F091D503309721F00084F185E02D66
:100B8000099408952091D2033091D303281739078F
:100B900071F09093D3038093D203E091D403F0914A
:100BA000D503309721F00680F781E02D0994089550
:100BB000E091D403F091D503309721F00190F081BA
:100BC000E02D099480E00895452B39F0682381E0F9
:100BD0006F3F09F080E08170089581E0FCCFA09123
:100BE000A7035091A8034A2F541301C00895242F3E
:100BF00030E0F901EE0FFF1FE156FC4F608171817B
:100C00006817790791F467E070E00E94F83189591C
:100C10009C4F51E0FC0154834A13E8CF2F5F3F4FB4
:100C2000237033272093A70308952F5F3F4F422F50
:100C30004370DACF1092040310920303E7E6F3E067
:100C40008581811102C014821682379683E0EF39C4
:100C5000F807B1F70895EBEAF3E0848195812AE083
:100C600030E0B9010E9409326093140186818093BB
:100C700013018285809312018485809311018685FA
:100C80009785B9010E940932609310018089809391
:100C90000F01828980930E01848980930D0108954C
:100CA0008091AB039091AC03909316018093150152
:100CB0000895FA01811101C0FB0109940895809102
:100CC0008302982F9E7F29F4817082608093830233
:100CD00008958E31E8F381708C61F8CFAF92BF92A6
:100CE000CF92DF92EF92FF920F931F93CF93DF93F8
:100CF0008901E42FF0E0EC58FC4F611115C094918C
:100D0000392FE92FD8011196EC9311979C931296E5
:100D10003C93DF91CF911F910F91FF90EF90DF9067
:100D2000CF90BF90AF900895C82FD0E0E62EF12C61
:100D3000E4914E2FAE2EB12CCE0166E070E00E9401
:100D4000F831CC24CA94D12CB6010E940932DB01BF
:100D5000CC0FDD1FCB0165E570E00E94F831C81BA8
:100D6000D90B8C2F880FC80FC6018E199F09B501AA
:100D70000E94F831392FD0E0CE01B7010E94F8313E
:100D8000692F70E0C601861B970BB5010E94F831F0
:100D9000292FC6018C1B9D0BB7010E94F831692FCA
:100DA00070E0C601861B970BB5010E94F831892FB0
:100DB000A230B10589F040F4109709F4A3CF119740
:100DC00079F0932F322F9ECFA430B10561F078F0E7
:100DD000169709F497CFF5CF9E2FE32F382F92CF98
:100DE0009E2FE22F8FCF932F3E2FE82F8BCFE32F15
:100DF000342F922F87CF0E94A0059C0190915F0213
:100E000080916002982B21F030935C0220935B026A
:100E10009091610280916202982B21F030935A02E6
:100E200020935902E091D403F091D503309749F013
:100E300082E080935D020480F581E02D8DE592E0F3
:100E40000994089590915F02803F59F48091600267
:100E500087FF0DC01092600291110BC010925702D3
:100E600008C0813F81F48091600218169CF3992399
:100E700081F08091610290916202892B09F064C037
:100E8000109256020895823F49F497FFF0CF1092D6
:100E90005F02809160028111ECCFE0CF833F19F4B3
:100EA0001916ACF3E4CF20916102893F29F41216A0
:100EB000F4F610926102DBCF8A3F19F427FFD7CFF7
:100EC000F8CF209162028B3F29F427FFD0CF1092F8
:100ED0006202CDCF8C3F19F41216CCF3C8CF843FF9
:100EE00031F480915E028E7F80935E02C0CF853F99
:100EF00021F480915E028D7FF7CF863F21F48091AF
:100F00005E028B7FF1CF873F21F480915E02877F65
:100F1000EBCF883F21F480915E028F7EE5CF8D3F3D
:100F200031F4809158028E7F80935802A0CF8E3F7B
:100F300021F4809158028D7FF7CF8F3F09F097CF32
:100F4000809158028B7FF0CF08958091580280FFE6
:100F50000CC060910E0170E0759567957595679569
:100F60006115710559F1862F089581FF06C06091C2
:100F70000E0170E075956795F3CF60910E0170E0FA
:100F800082FD0CC0609156026623A9F020910D01EC
:100F900080910E0190E0621730F0BC01603871055D
:100FA000F8F28FE7089570E00E94F831622F70E048
:100FB0000E941D32F3CF61E070E0D5CF81E008954B
:100FC000809158022091B3033091B40380FF13C085
:100FD0008091120190E0B9010E94F8319C01369590
:100FE00027953695279520383105A0F5211531052F
:100FF00099F1822F089581FF0AC08091120190E03B
:10100000B9010E94F8319C0136952795ECCF82FFFB
:1010100008C08091120190E0B9010E94F8319C0152
:10102000E2CF809157028823F1F240911101609143
:10103000120170E0841710F0C901EFCF90E00E9418
:10104000F831B9010E94F831642F70E00E94093232
:101050009B01C9CF8FE7089581E00895803F31F467
:101060000E94E0078195809360020895813F19F402
:101070000E94E007F8CF823F31F40E94E00781959B
:1010800080935F020895833F19F40E94E007F8CF30
:10109000893F29F40E94A5078093610208958A3F41
:1010A00021F40E94A5078195F7CF8B3F31F40E9470
:1010B000A50781958093620208958C3F19F40E94E0
:1010C000A507F8CF843F31F480915E028160809360
:1010D0005E020895853F21F480915E028260F7CF21
:1010E000863F21F480915E028460F1CF873F21F436
:1010F00080915E028860EBCF883F21F480915E0290
:101100008061E5CF8D3F31F48091580281608093FA
:10111000580208958E3F21F4809158028260F7CFE3
:101120008F3FB9F7809158028460F1CF80E0089535
:10113000F894E82FE295EF70F0E031A1282F2F709E
:1011400081E090E001C0880F2A95EAF7982F9095EA
:10115000932391A392A1892B82A3789408959091CF
:10116000DD0392FF06C0282F28712830F9F4877F0D
:10117000846093FF06C0282F28712831F1F4877E00
:1011800084612091DE0320FF06C0382F387138308B
:10119000D9F4877F816021FF06C0282F287128316C
:1011A000D1F4877E816194FD877E0895282F247174
:1011B0002430F9F68B7F8860DCCF282F247124310E
:1011C00001F78B7E8861DDCF382F3171313019F70F
:1011D0008E7F8860E0CF282F2171213121F78E7E0C
:1011E0008861E1CFCF93DF93EC0182389105A9F1BB
:1011F000D8F58133910509F496C048F589329105F7
:1012000009F48AC08A9709F495C0C11521E5D2076F
:1012100008F0BCC0C11530E5D30708F016C1C83EC0
:10122000D10508F09CC0C03ED10560F5C83AD10593
:1012300008F087C0C53AD10508F0FFC0C130D1051C
:1012400009F12097F9F0C430D105E0F440C08533AE
:10125000910509F45AC0C997C1F68091DD038370E6
:1012600089F0C0EED0E00EC0833E910599F170F494
:10127000803E910501F1823E910539F68091DD03B2
:1012800082FD21C0CE01DF91CF910895863E910568
:1012900061F1873E910571F1843E910509F0B5CF6A
:1012A0008091DE0381FFEECF8091DD03C7EED0E0B9
:1012B00084FD0DC0E7CF8091DD0380FD18C19091C2
:1012C000DE0390FFDFCFC3EED0E084FFDBCFD0E0C2
:1012D000C0E0D8CF8091DD0382FD0CC19091DE0388
:1012E00090FDBFCF84FFCECFF2CF8091DD0383FD91
:1012F000DDCFC8CF8091DD0383FDFFC09091DE0379
:1013000091FFF0CFC4EED0E0BDCF8091DD0385FF2B
:10131000B9CFC9E2D0E0B6CF8091DD0385FFB2CF6F
:10132000C5E3D0E0AFCF8091DD0386FFABCFCAE24B
:10133000D0E0A8CF8091DD0386FFA4CFC1E3D0E049
:10134000A1CFCF3BD10518F6C85AD0E0CC0FDD1F96
:10135000CB5DDE4F0990D881C02DD46493CFC115E9
:1013600040E2D40758F4C11581E0D80708F08ACFCD
:10137000C03FD10508F4ABCFD06584CFC11520E4C0
:10138000D20708F4A4CFDF70D06A7CCFC11535E551
:10139000D30710F5C11544E5D40708F090C0C11576
:1013A00083E5D80708F075C0C11522E5D20708F417
:1013B0006BC0CE018370992721E030E002C0220F7C
:1013C000331F8A95E2F7C695C695D0E0E5E0CC0FCD
:1013D000DD1FEA95E1F754C0C11539E5D307A8F43C
:1013E000C11548E5D40708F06FC0C11586E5D807D8
:1013F00008F06DCF8C2F0E94AF08C82FD0E0DC2FF3
:10140000CC27CC27DF71D0623DCFC1152AE5D207AA
:1014100008F45FC0CE0190568115904208F057CF76
:101420008D2F8F710E94AF0890E0982F8827882712
:101430009F719C012C2BE901E6CFC55AD0E0CE5D0F
:10144000DE4FC881D0E0D0641DCFCE01A4E09695D8
:101450008795AA95E1F783702C2F26952695237002
:1014600030E0B5E0220F331FBA95E1F7382B8C2F0F
:101470008370C1E0D0E002C0CC0FDD1F8A95E2F797
:10148000C22BD32BDC68FECEDC2FCC27C16FD06AF9
:10149000F9CECE018370992721E030E002C0220FFF
:1014A000331F8A95E2F7C695C695D0E075E0CC0F5C
:1014B000DD1F7A95E1F7C22BD32BDA68E3CEDC2F60
:1014C000CC27C46FD06ADECEDC2FCC27C06FD06AA9
:1014D000D9CE8C2F8F700E94AF0834E0D695C79577
:1014E0003A95E1F7CF709C2FEC01D069CBCEC9E3E0
:1014F000D0E0C8CEC2EED0E0C5CEC6EED0E0C2CEBF
:1015000080912902882331F010922902109228023A
:10151000109227020895CF93C82F8091DE0382FD99
:101520000CC0809129028C1741F00E94A005909375
:10153000280280932702C0932902CF9108958095B5
:101540009091DE0298239093DE0208959091DE023E
:10155000892B8093DE0208951092060210920502F4
:101560001092040208958091AD039091AE03892BEF
:1015700089F00E94A0052091270230912802AC0139
:10158000421B530B81E02091AD033091AE03421713
:10159000530708F480E0817008958091030281115F
:1015A000109203020895909119019923D1F090911E
:1015B000DD0397FF16C0E82FE695E695E695EE3138
:1015C000E0F4F0E0EC57FE4F282F277081E090E028
:1015D00001C0880F2A95EAF780959281892382833A
:1015E0000895E6E8F1E09191891303C0DF011197B6
:1015F0001C9291E0EC38F907B1F708959091190128
:101600009923C1F09091DD0397FF14C0E82FE69570
:10161000E695E695EE31F8F4F0E0EC57FE4F877072
:1016200021E030E001C0220F8A95EAF78281822B07
:1016300082830895A6E8B1E0EFEF90E02D91821744
:1016400051F0EF3F19F4211101C0E92F9F5F96304F
:10165000A9F7EF3F09F408950E2E000CFF0BEC578D
:10166000FE4FE6CF209102029091C101291302C0E2
:1016700080E0089530E0F90153E0EE0FFF1F5A9526
:10168000E1F7EE53FE4F5181561306C050815813B7
:1016900003C05281541304C02F5F3F4F2770E6CF21
:1016A00081E00895809102029091C101981301C0D8
:1016B00008958F5F8770FACF282F892F9E3F51F1B1
:1016C0006CE00E94EF31820FA82FA7708695869557
:1016D000869590E063E070E00E94F831FC01E955E6
:1016E000FE4F50E040E080E0219130E00A2E02C041
:1016F000369527950A94E2F721703327042E01C00E
:10170000220F0A94EAF7822B4F5F5F4F4330510557
:1017100059F7089580E00895CF93DF93282F892FFC
:10172000362F9E3F79F16CE00E94EF31820F982FA7
:101730009770E1E001C0EE0F9A95EAF786958695DD
:10174000869590E063E070E00E94F831DC01A955D5
:10175000BE4F50E040E0632F70E08D91ED01219786
:101760009B01042E02C0369527950A94E2F721705A
:10177000219528272E23282728834F5F5F4F43304A
:10178000510559F7DF91CF91089592959F7096304A
:1017900091F058F4925F9F70923058F4803F19F0A6
:1017A00030F4883E30F481E008959A5FF4CF843FAE
:1017B000D1F380E00895883EB0F3813FD1F7F3CFB5
:1017C0009C013A9521153F4150F5FC01EE27F1703F
:1017D000BC0166277270AC01442754709C0122271B
:1017E000387094FF0EC080E1EF2B09F480E0672B86
:1017F00009F08062452B09F08064232B89F0806812
:10180000089581E0EF2B09F480E0672B09F08260F6
:10181000452B09F08460232B19F08860089580E03F
:1018200008958093DF037093E1036093E003809158
:101830000F048430F9F48093E9008FEF9091E80071
:10184000815095FD06C095ED9A95F1F70000811144
:10185000F5CF8091E80085FF0DC050E040E063E0E7
:1018600070E08FED93E00E948E048091E8008E7707
:101870008093E8000895BC0184E00C94110CBC0135
:1018800083E00C94110C9C0184E08093E9009FEFAD
:101890008091E800915085FD06C085ED8A95F1F7AD
:1018A00000009111F5CF8091E80085FF0CC050E059
:1018B00040E066E070E0C9010E948E048091E8007B
:1018C0008E778093E8000895CF93DF93EC018091A9
:1018D00019018823B1F18091DD0387FF32C060E2F6
:1018E00084E08093E9008FEF9091E800815095FDAE
:1018F00006C095ED9A95F1F700008111F5CF809122
:10190000E80085FF1BC08091190170E050E040E0C5
:10191000811104C050E040E068E070E0CE010E9418
:101920008E048091E8008E778093E80080E2FE01CB
:10193000A4EEB3E001900D928A95E1F7DF91CF918B
:10194000089568E081E0CDCF81E08093E00080E2FF
:101950008093D8001092C9008FE19EE40197F1F7BF
:1019600000C0000087E090EBDC01809312049093AC
:101970001304A0931404B093150488E19CE00FB6FF
:10198000F894A895809360000FBE90936000FFCFFD
:10199000019708F40895EFE9FFE03197F1F700C0EF
:1019A0000000F6CF8091830280FD0AC0EBE6F2E0F2
:1019B000118210821282339652E0E338F507C1F7A4
:1019C0003E9A38B13F7B28B120644FB7F8948BE63C
:1019D00092E0FC015191CF0168E028B9000000C0FD
:1019E00057FF38B9550F000000C000C000C038B91B
:1019F00000C06A9591F7F2E083389F0751F74FBF17
:101A00008FE594E00197F1F700C000000895EF9290
:101A1000FF921F93CF93DF93EC018BE6E82E82E0D9
:101A2000F82E10E08C81970140918602609185022A
:101A3000810F0E946E06115E83E0E80EF11C183FD4
:101A400089F70E94D20C9A818C8190FF08C08F5F29
:101A50008C83DF91CF911F91FF90EF90089581507B
:101A6000F7CF9091830290FF0CC0EBE6F2E0818308
:101A700060834283339692E0E338F907C1F70C9410
:101A8000D20C0895CF93DF9300D00F92CDB7DEB77D
:101A90009091830290FF0AC09E012F5F3F4F0E94EA
:101AA0006E064B8169818A810E94310D0F900F90E3
:101AB0000F90DF91CF910895CF93DF93EC01E3E88E
:101AC000F2E0438162818C810E94420D8C818F5FA4
:101AD0008C83DF91CF910895CF93DF93EC01EC815C
:101AE000F0E0EC58FB4F4491E3E8F2E06281818141
:101AF0000E94420D8C818F5F8C83DF91CF9108957E
:101B00000F931F93CF93DF930BEA13E0C7EAD1E063
:101B1000CE010E948132F80181938F012196CB3C46
:101B2000F1E0DF07A9F7CAEFD6E0FE0185919491B5
:101B3000009711F0FC0109952896F7E0CA39DF07F4
:101B4000A1F7DF91CF911F910F9108950F931F93EC
:101B5000CF93DF93282F843060F5643050F54C30FC
:101B600040F5862F90E068E170E00E94F831C42FC4
:101B7000D0E0CC0FDD1FC80FD91F822F90E060E6A8
:101B800070E00E94F831C80FD91FCE0187960E94DD
:101B90008132082F10E0102F0027CE0188960E9476
:101BA00081329801282BC901DF91CF911F910F91AC
:101BB000089590E080E0F8CF462F2091DC0230912C
:101BC000DD02232B91F47E3F39F46E3F71F4809156
:101BD000DA029091DB020895843038F4743028F4EE
:101BE0006C3018F4672F0C94A60D90E080E00895F7
:101BF000CF92DF92FF920F931F93CF93DF936C01ED
:101C00000091100480912A02082BC7E0D0E010E078
:101C1000FC2EC8010C2E02C0959587950A94E2F718
:101C200080FD0CC02197A0F7F12C8F2DDF91CF9173
:101C30001F910F91FF90DF90CF900895B6018C2FE8
:101C40000E94DC0D0E94F208019761F3EECFCF9362
:101C5000DF93EC010E94F80DBE010E94DC0DDF91C4
:101C6000CF910C94F208FC0186819781009721F0B6
:101C70000E94F2080C94C50B808191810E94270E6E
:101C8000F9CF1F93CF93DF9300D000D00F92CDB741
:101C9000DEB749835A8389819A816623B9F022236A
:101CA000A9F00E94F80D182F682F89819A810E944F
:101CB0008C0B69817A81812F0F900F900F900F907C
:101CC0000F90DF91CF911F910C94DC0D0E945C0B63
:101CD000182FEFCFFC01262F86819781009739F4CA
:101CE000408151816281738184810C94410E0895F9
:101CF00083E290E00E948132883989F484E290E0A6
:101D00000E9481328F3E59F485E290E00E94813238
:101D100091E08B3E09F090E0892F8170089580E07A
:101D2000FCCFCF9384E090E00E948132C82F82E202
:101D300090E00E948132982F8C2FCF9108950F93BD
:101D40001F93CF93DF930BEA13E0C7EAD1E0CE01F4
:101D50000E948132F80161918F01681719F0CE015C
:101D60000E9495322196CB3CF1E0DF0781F7DF91AD
:101D7000CF911F910F910895EBEAF3E0128E138E2D
:101D80008FEA90E09183808325E0248F88E893E1B7
:101D9000938382838AE090E09583848344E150E0DA
:101DA0005783468368E070E07187608793878287F6
:101DB0004EE150E0558744879787868740E550E09D
:101DC000518B408B738B628B68E270E0758B648BF8
:101DD00062E370E0778B668B68EC70E0718F608FE8
:101DE000158E978F868F51A340A322A30E949F0E2A
:101DF0000C94800DCF93DF93CBE1D2E060E0CE0175
:101E00000E9495322196C11584E0D807B9F7DF9179
:101E1000CF9108950F931F93CF93DF93E82F8901FC
:101E2000843078F5643068F54C3058F521153C4520
:101E300031F48091D8029091D902892B11F1862F2B
:101E400090E068E170E00E94F831C42FD0E0CC0F40
:101E5000DD1FC80FD91F8E2F90E060E670E00E9452
:101E6000F831C80FD91F612FCE0187960E94953295
:101E7000602FCE018896DF91CF911F910F910C9426
:101E80009532DF91CF911F910F910895CF93C82F75
:101E90006FEF811168E983E290E00E9495326FEF65
:101EA000C1116FEE84E290E00E9495326FEFC11194
:101EB0006BEE85E290E0CF910C9495327F928F92F9
:101EC0009F92AF92BF92CF92DF92EF92FF920F93C9
:101ED0001F93CF93DF93CDB7DEB72A970FB6F89451
:101EE000DEBF0FBECDBFA090D802B090D90281E076
:101EF00090E09093D9028093D80284E7C82E85E0C1
:101F0000D82E00E0760110E015C0F401259134913F
:101F1000472D612F802F0E940A0F82E0880E911CAE
:101F200073949CE07912F1CFE8E1EE0EF11C1F5F93
:101F3000143019F04701712CE8CF0F5FF0E6CF0E97
:101F4000D11C0430F9F60E94BC0ECE0101967C0132
:101F50008AE0F70111928A95E9F70BEC11E04AE06B
:101F600050E0B801C7010E94B932065F1F4F0B3124
:101F7000F2E01F07A1F7B092D902A092D8022A96E8
:101F80000FB6F894DEBF0FBECDBFDF91CF911F918A
:101F90000F91FF90EF90DF90CF90BF90AF909F9008
:101FA0008F907F90089580E00E94460F60E086E267
:101FB00090E00E9495320E945E0F0E94FA0E81E02E
:101FC0000C94460FCF92DF92EF92FF920F931F93E4
:101FD000CF93DF93CDB7DEB72A970FB6F894DEBF65
:101FE0000FBECDBFE8E8F2E080E5DF011D928A95E3
:101FF000E9F7E7E6F3E088E3DF011D928A95E9F768
:1020000088E8C82E82E0D82E7F010BEC11E0F701A2
:10201000D182C0824AE050E0B801CE0101960E9410
:10202000713288E0FE013196D60101900D928A95B9
:10203000E1F789859A85D70113969C938E93129721
:10204000BAE0CB0ED11CE7E0EE0EF11C065F1F4F8D
:102050000B31F2E01F07D9F62A960FB6F894DEBFCF
:102060000FBECDBFDF91CF911F910F91FF90EF90E9
:10207000DF90CF900895CF92DF92EF92FF926B01A5
:102080007C010E945F06B701A60188E090E0FF9006
:10209000EF90DF90CF900C94A732EF92FF920F93C6
:1020A0001F93CF93DF9300D00F92CDB7DEB7082FE9
:1020B000F62E142FE22E8091830280FF28C0E82F95
:1020C000E695F0E0ED59FE4F9081909369028E7F86
:1020D000823039F59E012F5F3F4F802F0E946E06A0
:1020E0004B8169818A810E94310D00938402F092B4
:1020F000850210938602EE2051F060918302709168
:10210000840280918502909186020E943B100F907C
:102110000F900F90DF91CF911F910F91FF90EF9053
:102120000895923019F410918602DFCF963019F499
:1021300000918402DACF9930C1F6FACFE3E8F2E0F9
:10214000438128E0421B08F440E021E06281818164
:102150000C944D10E3E8F2E0438128E0420F08F4CC
:102160004FEF21E0628181810C944D10E3E8F2E0B1
:10217000628128E0621B08F460E021E043818181F4
:102180000C944D10E3E8F2E0628128E0620F08F45D
:102190006FEF21E0438181810C944D10E3E8F2E080
:1021A000818121E04381628188500C944D10E3E8E5
:1021B000F2E0818121E043816281885F0C944D10BF
:1021C00080918702882319F0815080938702609163
:1021D00083027091840280918502909186020C9412
:1021E0003B1080918702833018F48F5F80938702C1
:1021F00060918302709184028091850290918602A1
:102200000C943B109091830290FF3DC0917081111E
:1022100029C0926090938302662351F060918302FB
:102220007091840280918502909186020E943B10F9
:1022300060918302669570E041E050E08CE091E0AF
:102240000E944732892BA9F010926A0281E08093A4
:10225000660220E0409186026091850280918402AE
:102260000C944D108F3010F09C61D4CF880F982BB8
:10227000D1CF81E080936A020E94A005909364020E
:1022800080936302E3CF0895809183028695815005
:1022900009F48EE061E00C9402118091830286952E
:1022A0008F5F8F3008F081E061E00C940211909113
:1022B000830290FF07C09695981720F0961710F4A8
:1022C0000C944D1161E00C940211E3E8F2E083E01C
:1022D000808311828FEF8283838314826081718176
:1022E000828193810C943B1069EE7EEF90E080E058
:1022F0000E94B33260E082E090E00E94953260E09C
:1023000083E090E00E94953210922A0260E084E01F
:1023100090E00E94953260E082E290E00E94953267
:1023200060E085E090E00E94953260E086E090E019
:102330000E9495326FEF87E090E00E94953240E076
:1023400050E0BA0188E090E00E94A73260E08DE0A2
:1023500090E00E94953240E050E0BA0188E190E0C0
:102360000E94A73260E087E190E00E94953240E051
:1023700050E0BA018CE190E00E94A73270E060E08A
:1023800080E290E00E94B33240E050E0BA0188E180
:1023900090E00E94A73280E00E94460F0E94D30F77
:1023A00040E050E0BA018FE090E00E94A73240E0A8
:1023B00050E0BA0183E190E00C94A7328F929F9293
:1023C000AF92BF92CF92DF92EF92FF920F931F9343
:1023D000CF93DF93CDB7DEB728970FB6F894DEBF63
:1023E0000FBECDBF8E010F5F1F4F88E0F801119225
:1023F0008A95E9F793E5E92E91E0F92E6801AA2480
:10240000A394B12CF70181917F018F3F09F446C05D
:10241000F894E82FE295EF70F0E021A18F70A5010C
:1024200002C0440F551F8A95E2F7CA01922F982BDC
:1024300091A392A18095892382A3789400C0E7E5B7
:10244000F1E021E030E0912C812C41914F3F09F4E3
:1024500079C0A42FA295AF70B0E090968C9190E0D7
:102460004F7002C0959587954A95E2F780FD6AC046
:10247000C901882A992A220F331F51E0E336F50754
:1024800021F7F701319780818F3F11F00E94980862
:1024900080EA8A95F1F7F60191828082F2E0CF0E10
:1024A000D11C47E5E41641E0F40609F0ABCF48E063
:1024B00050E0B8018FE292E00E945432FF24F3947E
:1024C000009709F4F12C892B09F43FC088E0F8014A
:1024D000AFE2B2E001900D928A95E1F781E080933E
:1024E0002D020E94A00590932C0280932B028091D4
:1024F0002B0290912C020E949105059750F180913A
:102500002F029091300290934F0280934E0280915F
:102510003102909132029093510280935002809147
:10252000330290913402909353028093520280912F
:102530003502909136029093550280935402109286
:102540002D0207C090E080E094CF80912D02811190
:10255000CECF8F2D28960FB6F894DEBF0FBECDBF1D
:10256000DF91CF911F910F91FF90EF90DF90CF906F
:10257000BF90AF909F908F9008958091DE029091D0
:102580001104892B8093840180912902882319F1F9
:102590008091AD039091AE03892B29F00E94B30A7C
:1025A00081110E94800A8091840190912902892BD7
:1025B00080938401809119018823D9F18091DD03F2
:1025C00087FF37C08EE1E6E8F1E090E0815098F5B2
:1025D00091110E94800A40E250E067E072E084E8D6
:1025E00091E00E945432892B59F180E2E4E8F1E055
:1025F000A7E0B2E001900D928A95E1F7E091D40353
:10260000F091D5033097E1F080911901882359F0BA
:102610008091DD0387FF07C080918401809385014D
:1026200086E0809384010280F381E02D84E891E0CC
:10263000099486E0C8CF2191222341F29F5FC6CF43
:10264000089580911701877F80931701909111045D
:102650009D7F9093110484FF06C08F7E80931701A5
:1026600082E00E94A60A8091170185FF06C08F7D37
:102670008093170180E20E94A60A0C94BD1290E09C
:1026800080E00E94C20590E080E00E94AC051092BC
:1026900011040E94BD1286E0EDE5F2E0DF011D921B
:1026A0008A95E9F71092570210925602109258023A
:1026B0000C94FB06809310040C943F13809110043B
:1026C000982F9670963019F488600C945A13877F6F
:1026D000FCCF21E030E001C0220F8A95EAF7209577
:1026E0008091100482230C945A13909106028095D5
:1026F000892380930602282F277091F4282F082E13
:10270000000C330B9217130659F09091DE0392FDE3
:1027100007C08595859585950E9469130C94AC0A30
:102720000895CF93C091DE03C2FB992790F99817C3
:1027300099F080FBC2F9C093DE036091DD0384E071
:1027400090E00E9495326C2F82E290E00E949532D8
:1027500082E0CF910C947513CF91089521E030E081
:1027600001C0220F8A95EAF780911004822B0C9405
:102770005A139091DE0392FD10C0982F990F990F74
:10278000990F962B909306020E94AE130E94A0050B
:10279000909305028093040208950C94AE138093E5
:1027A0002A020C943F131092DE0280911901E6E890
:1027B000F1E0882359F08091DD0387FF07C08EE1A7
:1027C000DF011D928A95E9F70C943F1386E0F8CF5C
:1027D0001F93CF93DF93CDB7DEB7AA970FB6F894C8
:1027E000DEBF0FBECDBF87E094E02091F100DC0199
:1027F0002D93CD01B4E08F309B07B9F78091080489
:10280000833009F470C0B8F4813009F447C08230D5
:1028100009F4B1C08091E80083FF93C2809107045E
:10282000909108049A3008F08CC2E92FF0E0ED5244
:10283000FD4C0C9431328A3009F48CC08B3009F491
:102840006FC0893039F780910704813219F7809180
:102850000B0490910C04009711F00297D9F6809127
:10286000E800877F8093E8008091E80082FF36C00F
:102870008091F200823031F48091F100813011F0CA
:10288000863021F48091F1008093E3038091E80089
:102890008B778093E8000E94E004BCCF809107040E
:1028A000813A09F0B7CF8091E800877F8093E800F4
:1028B00080910B0490910C04892B61F460E284EE0A
:1028C00093E070E00E9431058091E8008B7780935F
:1028D000E800A0CF60E090E080E0F3CF80910F04AB
:1028E0008111C2CF97CF80910704813A09F092CF2E
:1028F00080910B0490910C04892B09F08BCF80916F
:10290000E800877F8093E8008091E80080FFFCCF9B
:10291000809119018093F1008091E8008E77B9CF02
:1029200080910704813209F075CF80910B0490915A
:102930000C04892B09F06ECF8091E800877F80938B
:10294000E8000E94E00480910904809319010E942C
:10295000D31360CF80910704813209F05BCF80915F
:10296000E800877F8093E8000E94E00480910A04D9
:102970008093E2034FCF80910704813A09F04ACF58
:102980008091E800877F8093E8008091E80080FFD5
:10299000FCCF8091E203BECF803899F0823809F0F5
:1029A000D0C180910B048F70853008F0CAC180932C
:1029B000E9008091EB0085FB882780F91092E900FF
:1029C00006C0809104049091050491118260909159
:1029D000E800977F9093E8008093F1001092F10057
:1029E0008091E8008E77A9C1882309F497C18230CD
:1029F00009F0A7C18091090481119AC180910B044B
:102A00008F702FEF280F243008F09BC18093E900CE
:102A10002091EB0020FF8CC1933031F48091EB00CA
:102A200080628093EB0084C19091EB009061909361
:102A3000EB0021E030E001C0220F8A95EAF72093F5
:102A4000EA001092EA008091EB008860EACF8111E1
:102A500078C1109109041F778091E3008078812B61
:102A60008093E3008091E800877F8093E8000E94D4
:102A7000E0048091E80080FFFCCF8091E300806853
:102A80008093E30082E0111183E080930F0459C129
:102A90008058823008F055C12091090430910A0411
:102AA0002C3DE3E03E07A1F583E08A838AE2898337
:102AB0004FB7F894DE01139620E03EE051E2E32F99
:102AC000F0E050935700E49120FF03C0E295EF70CF
:102AD0003F5FEF708E2F90E0EA30C0F0C7968D9385
:102AE0009D932F5F243159F74FBF8091E800877F76
:102AF0008093E8006AE270E0CE0101960E94310501
:102B00008091E8008B778093E8001BC1C096E7CFE7
:102B100080910B0490910C04432F552743305105AD
:102B200009F44AC078F54130510509F485C08BE5B8
:102B300090E0E4E9F7E04230510509F002C120914C
:102B4000E800277F2093E80020910D0430910E04C7
:102B50008217930708F49C0140E02115310509F024
:102B600070C041116EC08091E80082FDC9CF809194
:102B70000F04882329F2853019F28091E80083FF41
:102B8000F2CFBECF4132510509F447C04232510560
:102B900009F0D7C08330910508F0D3C0FC01EE0FD7
:102BA000FF1FEB58FE4F0190F081E02D8E589E4F95
:102BB000DC018C9190E01DC0332721303105E9F014
:102BC0002115310579F022303105F9F02330310536
:102BD00009F0B7C0E1E0F8E0E4918E2F90E0E1E089
:102BE000F8E007C0E1E4F8E0E4918E2F90E0E1E442
:102BF000F8E0009709F4A5C0A2CFEFE2F8E0E49175
:102C00008E2F90E0EFE2F8E0F4CFEFE1F8E0E4910E
:102C10008E2F90E0EFE1F8E0ECCF8330910508F0E3
:102C200090C0880F991FFC01E558FE4F0190F0817C
:102C3000E02D89E090E083CF82E190E0EFEEF7E0D5
:102C40007ECF80910F04882309F45ACF853009F490
:102C500057CF8091E80083FD53CF8091E80082FD3B
:102C600082CF8091E80080FF78CF8091F20090E0E1
:102C70002115310519F08830910550F041E0089791
:102C800009F040E08091E8008E778093E80065CFFE
:102C900044914093F1003196215031090196E8CFDB
:102CA000803809F04EC08091E800877F8093E8006B
:102CB000809106048093F10093CE811142C010915F
:102CC00009041230F0F58091E800877F8093E800D6
:102CD000109306040E94E004112311F084E005C063
:102CE0008091E30087FDFACF81E080930F0442E0FA
:102CF00061EC81E00E94FF0442E261EC84E00E940A
:102D0000FF0442E261EC82E00E94FF0442E260ECD8
:102D100083E00E94FF0480910F0413C08091090496
:102D2000813079F481E0933009F080E080930504EC
:102D30001092E9008091E800877F8093E8000E946C
:102D4000E0048091E80083FF0AC08091E800877F5B
:102D50008093E8008091EB0080628093EB00AA965C
:102D60000FB6F894DEBF0FBECDBFDF91CF911F919C
:102D70000895882341F080959091110489238093D0
:102D800011040C94BD120895882339F09091110418
:102D9000982B909311040C94BD120895882321F070
:102DA0000E949F0A0C94BD120895882321F00E946E
:102DB000A60A0C94BD120895882309F452C08238E3
:102DC00071F40E94D80581FF4CC089E30E94FE0A7D
:102DD0000E94BD1289E30E94D30A0C94BD1283386D
:102DE00059F40E94D80580FF3CC083E50E94FE0A8A
:102DF0000E94BD1283E5EFCF843859F40E94D805B4
:102E000082FF2FC087E40E94FE0A0E94BD1287E461
:102E1000E2CF9CEF980F913AF0F290E2980F983041
:102E200050F4877091E001C0990F8A95EAF7892FD5
:102E30000E949F0AD2CF9BE5980F933020F490E038
:102E400080E00C94C20598E5980F973120F490E04B
:102E500080E00C94AC05803F20F00E9422070C9487
:102E6000FB060895CF93DF93EC010E94DC16CE01A0
:102E70000E94E00B9E01205E31092830310510F0E0
:102E8000CD2B21F4DF91CF910C94CE16DF91CF9111
:102E90000C94B916CF93C82F882309F4ABC082389D
:102EA000C1F40E94D80581FDA5C089E30E94FE0AF5
:102EB0000E94BD122FEF81EE94E02150804090409F
:102EC000E1F700C0000089E30E94D30ACF910C947F
:102ED000BD128338A1F40E94D80580FD8BC083E524
:102EE0000E94FE0A0E94BD122FEF81EE94E0215055
:102EF00080409040E1F700C0000083E5E5CF8438D2
:102F0000A1F40E94D80582FD75C087E40E94FE0AE4
:102F10000E94BD122FEF81EE94E02150804090403E
:102F2000E1F700C0000087E4CFCF8CEF8C0F813A2F
:102F300090F580911901882301F18091DD0387FFCD
:102F40001CC0EC2FE695E695E695F0E0EC57FE4FB9
:102F5000828190E04C2F477021E030E002C0220FC8
:102F6000331F4A95E2F782239323892B81F08C2F1C
:102F70000E94D30A0E94BD120AC0E6E8F1E08CE884
:102F800091E02191C21799F38E179F07D1F78C2FEB
:102F90000E94FE0A9BCF80E28C0F883048F4C770F5
:102FA00081E001C0880FCA95EAF70E94A60A8ECF79
:102FB000EBE5EC0FE33040F4F0E0EE5DFE4F808196
:102FC00090E0CF910C94C205E8E5EC0FE73150F4A6
:102FD000F0E0EE0FFF1FEB5DFE4F80819181CF91FE
:102FE0000C94AC05C03F30F08C2F0E942E08CF917E
:102FF0000C94FB06CF9108951F93CF93DF93182F66
:10300000C091CB03D091CC03893321F0C091C90387
:10301000D091CA03812F0E944A17209731F4812F43
:10302000DF91CF911F910C94DC168FE99FE00197FF
:10303000F1F700C000002197F0CF0F931F93CF93BB
:10304000DF93C42FD22FFC0182818823A1F040930B
:10305000D1030E94A0059093D0038093CF03C77043
:1030600081E001C0880FCA95EAF7DF91CF911F91E7
:103070000F910C94D5161091D103141339C080917F
:10308000CF039091D0030E9491052091C30330910A
:10309000C4038217930760F5C0E2CD0F1D17B9F086
:1030A00080E2810F883040F4177081E001C0880F02
:1030B0001A95EAF70E94CE16C83048F481E09D2F99
:1030C000977001C0880F9A95EAF70E94D516802F55
:1030D0000E94FC17C83098F4D77081E001C0880FB7
:1030E000DA95EAF7DF91CF911F910F910C94CE16EC
:1030F000C77081E001C0880FCA95EAF7F3CFDF916E
:10310000CF911F910F910895BF92CF92DF92EF92CE
:10311000FF920F931F93CF93DF93EC01288122231B
:1031200009F48DC02130D1F599818A81913021F443
:1031300022960E94FC1705C0923029F422960E9424
:103140004A172196EBCF933021F422960E94DC1689
:10315000F8CF943011F02196F4CF229650E040E061
:10316000FE013196682F6053770B9B016A30710521
:1031700050F04150510928F38FE99FE00197F1F792
:1031800000C00000F6CFCA016AE070E00E94F8318A
:10319000A901480F591F8981EF01E2CFE22FF0E02A
:1031A000EE53FE4FB490822F86958695869590E0DB
:1031B000FC01EE54FE4FE4902770F12C022E02C069
:1031C000F594E7940A94E2F731E0E322FF24FC014E
:1031D000EE55FE4FC490D12C022E02C0D594C79458
:1031E0000A94E2F761E0C622DD24FC01EE56FE4FB0
:1031F000049110E002C0159507952A95E2F7017039
:103200001127E114F10419F081EE0E944A17C1144C
:10321000D10419F086EE0E944A178B2D0E94FC17EC
:10322000CD2819F086EE0E94DC16EF2819F081EE09
:103230000E94DC16012B09F484CF8CE27ACFDF9157
:10324000CF911F910F91FF90EF90DF90CF90BF90A3
:103250000895CF93DF93EC010E94E00B9E01205E66
:1032600031092830310510F0209739F40E94D51625
:103270008C2FDF91CF910C944A170E94C416F8CF7F
:10328000662329F0209111042260209311049C01EF
:103290003056211540E2340720F0305E21153041D0
:1032A00008F499270C942919DF92EF92FF920F935B
:1032B0001F93CF93DF937C018B01D42E8091170154
:1032C00082FF8CC0C0910103D0910203CE15DF05AF
:1032D00021F0E114F10409F081C0809117018B7F86
:1032E0008093170181FD73C08091FF0290910003CC
:1032F000A801481B590B81E020911501309116015E
:103300004217530708F480E08170F82E809117016E
:10331000F0FA81F980931701FE0183E0F695E795B5
:103320008A95E1F7EE71FF27E152FD4F208131814F
:10333000AE014F70552781E090E002C0880F991FC1
:103340004A95E2F7FF2009F444C0822B932B918326
:1033500080838091DE0281FF08C080911701806127
:103360008093170182E00E949F0A8091DE0285FF10
:1033700008C08091170180628093170180E20E944B
:103380009F0A6F2DCE010E944019DD2031F08091FF
:10339000C60385FF02C086FF3BC08091C9039091A0
:1033A000CA030E94C80C80910103909102039C0102
:1033B0003056211540E2340720F0305E21153041AF
:1033C00008F499270E9432170E9421131DC081E042
:1033D0009BCF8095909582239323B9CFC7019927DE
:1033E00097013056211540E2340728F0305E211550
:1033F000304108F0C7010E9432178091010390917B
:1034000002038E159F0501F3109300030093FF0242
:10341000DF91CF911F910F91FF90EF90DF90089572
:103420009F92AF92BF92CF92DF92EF92FF920F9353
:103430001F93CF93DF9300D000D0CDB7DEB77C01D0
:10344000FC0143815481618180810E94E4058111E6
:103450002AC061E0C7010E946A0E8C01F7018281D7
:10346000882309F440C7C80182519F45409708F05E
:10347000D5C68FEF93E00E9481326EEED62ED00E2D
:103480000BE112E0882359F180910602877059F010
:10349000F7018281882339F08091DE0382FD03C029
:1034A00082E00E9475130F900F900F900F90DF91A4
:1034B000CF911F910F91FF90EF90DF90CF90BF9031
:1034C000AF909F9008950115F4E01F07E9F2C8013D
:1034D0000E948132811101C0DA940F5F1F4FD11019
:1034E000F2CF19821A821B821C8258012FEFA21A76
:1034F000B20AC8010E94813289831A82882321F28C
:10350000813009F079C0680132E0C30ED11CC501D9
:103510000E948132A82E8A83882309F4B5CFC60180
:103520000E948132B82E8FEF8A0D833068F46801D3
:1035300043E0C40ED11CBB82BB2021F0CE0101961A
:103540000E9484188601D1CF8BEF8A0D833070F5ED
:10355000C8010396BB826C01BB20A1F3680154E053
:10356000C50ED11C0E9481328C83882359F30B81B4
:103570001C8101308FEF180710F0102F002796E004
:10358000A91681F0E7E0AE1649F0C8010E9475283F
:103590008091C9039091CA030E94C80CC8010E947F
:1035A0004628D0CFC8010E947528CCCFF4E0AF12D6
:1035B000C9CF680124E0C20ED11CC80103960E9445
:1035C0008132BB2009F460CF882309F45DCF81509C
:1035D000990B6FEF70E00E94F8314B2D4150550B65
:1035E000840F951F019708F4ADCFEFE9FFE0319705
:1035F000F1F700C00000F6CFCE0101960E948418BA
:103600006501A0CF81E00E94AE130E945E133CCF03
:1036100081E00E946913F9CF82E0F5CF8091170114
:1036200081608093170131C6809117018E7F80934E
:1036300017010E94211329C6809117018F7E013E38
:10364000110531F0053E1105C1F4809117018F7D00
:10365000809317018091170180FF26C6F7018281B0
:103660000832110528F50E31110508F074C0043038
:10367000110580F5811114C617C6C8019056811531
:10368000E0E29E0720F0905E8115904118F780914E
:10369000170182FF09C68091C80381FD05C621E498
:1036A00032E040E0B60190E080E00E945419FCC591
:1036B0000933110558F40D32110518F40B321105B8
:1036C000C9F69091C60392FDD5CF08C00436110506
:1036D000C1F3D0CF9091C60394FDCCCF882309F4D9
:1036E000A1C09091DE0280912902282F292B322F30
:1036F0003D7FB1F110920203109201033091C60395
:1037000031FD2EC0F80143E0F695E7954A95E1F7C3
:10371000EE71FF27E152FD4F98012F70332781E0B2
:1037200090E002C0880F991F2A95E2F78095909546
:1037300020813181822393239183808360E0C801BB
:103740000E944019809129028D7F0E948B0A82E09D
:103750000E94751399CE9091C60393FD8BCFBECF77
:1037600038E0F701A1E4B2E001900D923A95E1F75B
:10377000109243021092450210924402A09001035D
:10378000B09002030A151B05B1F53091C60335FF51
:1037900032C04091170141FB992490F841FF02C0CB
:1037A00036FF29C04091FF0250910003B601641B0F
:1037B000750B4091C3035091C40364177507D8F487
:1037C00091FF08C08091170180618093170182E00A
:1037D0000E949F0A8091DE0285FF08C08091170138
:1037E00080628093170180E20E949F0A692DC501C3
:1037F0000E94401949CE9091170121FB91F99093B5
:1038000017018D7F0E948B0A10930203009301031E
:10381000D0920003C092FF028091170184608093D0
:10382000170195CF970140E0B601C8010E945419D5
:103830002BCE053F8CE5180709F465C008F45DC080
:10384000063FECE51E0709F464C0F701328133231B
:1038500009F455C51092D1030330FDE51F0708F0A8
:1038600064C00A3F2CE5120730F4C80182509C4521
:10387000449708F064C00E94910E9093DE038093F9
:10388000DD0301318CE5180709F44EC108F0C7C00B
:103890000930ECE51E0709F435C108F096C0053083
:1038A0002CE5120709F426C108F07CC003304CE572
:1038B000140709F417C108F019C102301C4509F4B6
:1038C0000BC16091DD031091DE0384E090E00E9463
:1038D0009532612F82E290E00E9495320E94D313CC
:1038E000D3CD07E225EE45EE68ED7CE5F8C406E2AF
:1038F00021EE40EE63EF7CE5F2C407E225EE44EEF4
:1039000064EF7CE5ECC406E221EE42EE65EF7CE577
:10391000E6C407E225EE46EE66EF7CE5E0C408E289
:1039200021E045EE69ED7CE5DAC401364DE514078A
:1039300009F4A1CF053A5DE5150709F49CCF0631DE
:103940009CE5190709F0BFC18091DE02982F9A7A91
:103950002091C50320FF04C0482F447409F090E073
:1039600021FF04C0482F417109F090E022FF04C0FC
:10397000482F487809F090E023FF03C0827209F0D5
:1039800090E0332309F4FAC081E0911101C080E096
:103990008093A40189E2911185E30E94FE0A0E94AE
:1039A000BD1272CD8091DD03806207309CE519075E
:1039B00009F495C08091DD03806108301C4508F44E
:1039C0008EC08091DD0380648AC08091DD038B7F8F
:1039D0000D30FCE51F0709F482C098F48091DD03E7
:1039E0008E7F0B303CE5130709F479C08091DD032D
:1039F0008C600C301C4508F472C08091DD038D7F13
:103A00006EC08091DD038F7E0F305CE5150709F4F1
:103A100066C008F47DC08091DD038F7D60C00D3FDE
:103A20009CE5190709F47CC050F50531FCE51F073A
:103A300009F484C098F48091DD03837F03313CE571
:103A4000130709F44CC008F473C00E94D31390917B
:103A5000DD03892F97FB87F9805841C00B3F5CE558
:103A6000150709F44BC008F057C08091DE03816050
:103A70000A3F1C4509F025CF8093DE0322CF013099
:103A8000EDE51E0709F466C0B8F48091DE038C7F73
:103A90000F3F2CE5120781F38091DE03836001154F
:103AA0001D4550F38091DE03982F909591708E7F85
:103AB000892B90FB81F9E0CF01364DE5140709F41D
:103AC0004FC0053A5DE5150709F451C002301D45A8
:103AD00009F0F7CE60E03FC08091DD038160809304
:103AE000DD03EFCE8091DD038260F9CF8091DD03AD
:103AF0008460F5CF8091DD038860F1CF8091DE0393
:103B00008260BACF0E94D3138091DD038068E7CF33
:103B10008091DD03877FE3CF8091DE038E7FACCF82
:103B20008091DE038D7FA8CF8091DD038F7BD7CF7F
:103B30000E94D3138091DD038F77D1CF8091DD0375
:103B400082FB992790F921E0922790FB82F990FB64
:103B500083F9C5CF61E08EE090E00E949532B1CE4E
:103B60009091DD03892F8F7E94FF8061B8CF909173
:103B7000DD03892F8E7F90FF8160B1CF8091A401FA
:103B8000811104C089E20E94D30A09CF85E3FBCFEB
:103B9000073C9CE5190709F477C008F470C0083C9D
:103BA000FCE51F0709F475C04EE950E16AEA70E1CF
:103BB000093C1C4509F0C4C30E94590665CC0F3C62
:103BC0003CE5130709F47CC0A8F40C3C5CE5150740
:103BD00009F46EC008F467C00D3CECE51E0709F45B
:103BE0006CC065E082E00E3C1C4509F0A9C30E9450
:103BF00057114ACC063D2CE5120730F46EE089E0FF
:103C0000013D1C45A0F340CC0D351D4509F43CCCCD
:103C100097C38091830280FF1BC08E7F80938302B5
:103C20006091830270918402809185029091860256
:103C30000E943B1010926A025FEF80E792E05150C1
:103C400080409040E1F700C000000E94D20C1CCCE4
:103C500081608093830261E086950E94021114CCFA
:103C600044E451E16DE471E1A7CF4DE451E164E436
:103C700071E1A2CF4EEC50E167ED70E19DCF47EDD1
:103C800050E16EEC70E198CF46EB50E162EC70E1F0
:103C900093CF42EC50E166EB70E18ECF4AEA50E1FF
:103CA0006EE970E189CF40EE50E161EF70E184CFC1
:103CB00041EF50E160EE70E17FCF61E081E0CDCF78
:103CC00068E086E094CF0A35EDE51E0759F158F417
:103CD00001152CE51207C9F00E3D1C4509F030C353
:103CE0000E947411D1CB0B354DE51407E9F00C356A
:103CF0001D4509F025C38091DE0382FB882780F9EA
:103D000091E089270E9491131BC30E94D3138FEF68
:103D100094E3ECE081509040E040E1F700C0000007
:103D20000E94A40C81E0EECF80E0ECCF8281008184
:103D30001181882369F0C8010E94F80DD82E682FE0
:103D4000C8010E948C0BB8018D2D0E94DC0DFEC2B3
:103D5000C8010E945C0BD82EF6CF202F2F70B22EF8
:103D6000802F807F19F0B29490EFB922DD20A9F066
:103D7000BB2059F080E2810F883010F0111107C08C
:103D80008B2D0E94A60A0E94BD12812F56C08091E1
:103D90001104B82AB0921104F6CF812F0E94DC16CC
:103DA000BB2009F44CC080E2810F883010F0111163
:103DB00004C08B2D0E949F0A06C0B094809111040C
:103DC000B822B09211040E94BD1239C0302F3F704A
:103DD000B32E802F807F803219F0B29480EFB8220A
:103DE0001123E9F0113009F49CC0DD2009F4A5C0CD
:103DF000CC2009F475C020E0F70140815181628137
:103E0000738184810E94410E8091C80381FDBDCFE2
:103E1000F701858180FFB9CF8F70858361C0809164
:103E2000DE0382FF3FC0DD20B9F1BB2029F08B2DDE
:103E30000E94A60A0E94BD1280E00E944A17E92D46
:103E4000E850FF0B349710F40E94D805812F902F73
:103E50000E94C50B8111C3C11092A6011092A50149
:103E6000AA20A9F08091060280FD11C0F7011282FC
:103E70008595859585950E94AE13C7010E94101AFD
:103E8000809106028595859585950E94691360E06D
:103E9000C7010E946A0E07CB80E00E94DC16BB209F
:103EA00071F287CFDD2001F1C11004C08091290299
:103EB0008B2917C041E0C41206C0809129028B29CA
:103EC0000E948B0ABCCF8091C703823078F3C8125E
:103ED000EDCF0E94800A80910302B812B0920302D3
:103EE0008B2D0E94D516ABCFC11006C00E94800A50
:103EF0008B2D0E94CE16A3CF8091C70351E0C5122F
:103F00000BC0823008F49BCF8091DE028B2109F434
:103F100096CF0E94CD0AEACF823040F3C812E6CF96
:103F20008ECF8091CD03DD2021F08C1508F487CF52
:103F3000D7CFC81608F083CFDBCFCC20C9F2809151
:103F4000CB039091CC03193321F08091C903909158
:103F5000CA030E94C80C812F0E94DC1670CF802FEC
:103F600086958695837069F0813009F068CF812F3E
:103F7000902F9370D11002C090E080E00E94AC05B9
:103F80005ECF812F902F9370D11002C090E080E01F
:103F90000E94C20554CF812FDD2029F00E942E08F7
:103FA0000E94FB064CCF0E942207FACF802F83701D
:103FB00091F5D11044CF412F429546954770440F5B
:103FC000440F812F8F70042E01C0880F0A94EAF7E6
:103FD000212F207114FF07C02FE030E001C0220F15
:103FE0004A95EAF72095302F369536953370323062
:103FF00069F050F440912A02313029F0822B842359
:104000000E94CF131CCF842B822BFACF282B8091B8
:104010002A028227F5CF8695DD2011F0802F81704E
:10402000882309F40CCF412F429546954770440FE1
:10403000440F812F8F70042E01C0880F0A94EAF775
:10404000212F207114FF07C02FE030E001C0220FA4
:104050004A95EAF72095302F3695369533703230F1
:1040600069F050F440911004313029F0822B842300
:104070000E945A13E4CE842B822BFACF282B8091F6
:1040800010048227F5CFF02FFF70BF2EDD2029F01E
:104090008F2F0E94AE13812F24CF812F0E94CE1626
:1040A0008B2D0E946913CBCE123F89F160F4103F33
:1040B000B9F0113F81F0DD2009F48CC0C11065CE4C
:1040C000802F8F7128C0133F49F1143FA1F78091D1
:1040D000DE0382FF2FC0802F8F71DD2011F31BC004
:1040E0008091CD03DD2079F0C81608F0A8CE202FEE
:1040F0002F7181E090E001C0880F2A95EAF7909136
:1041000010048927B5CF8C1508F499CEF0CF802FF5
:104110008F71D110C6CF0E94AE1391CE80E0DD200A
:1041200009F4A6CF81E0902F9F7101C0880F9A9566
:10413000EAF79ECF8091C7038230A0F180910302FD
:10414000DD20F1F00E949F0A809106028770843082
:1041500041F40E94AC0A802F8F710E946913A12C38
:104160006ECE8091C703C816D0F7202F2F71B22EC4
:10417000822F0E94AE1363E08B2D0E94B913EFCF04
:104180000E94A60A8091C703C81640F00E94AC0A9C
:104190000E94CD0A64E0802F8F71EFCF81E00E94F2
:1041A0007513DDCFDD2059F0302F3F71B32E832FF3
:1041B0000E94AE1363E08B2D0E94B91340CE81E0C4
:1041C0000E94751341E04C1508F039CE82E00E9440
:1041D000751335CEC110B3CE802F8F7162CFDD2025
:1041E00019F0C11039CE3CCEC11036CE20E0F70117
:1041F000408151816281738184810E94410E80914E
:10420000C80383FF29CE8091A5019091A601029752
:1042100009F022CE812F0E94FC171ECE0031FFE54F
:104220001F0709F4EFC901312FE5120709F4F4C99A
:104230008091C60380FF38C00E94A0056C01F70181
:104240008281882309F4F8C98091170182FF08C090
:1042500021E432E040E0B60190E080E00E94541991
:104260000B31FCE51F0709F4D9C90C312CE5120705
:1042700009F4DAC990911701892F8E7F90FF816030
:104280000A313CE5130709F4D2C9C80190568115DB
:1042900040E2940728F0905E8115904108F0DAC959
:1042A0001092020310920103033FFCE51F0709F47B
:1042B0001ECB08F0BECA083D3CE5130709F411CB3C
:1042C000093D4CE5140709F42ACB073D5CE51507C9
:1042D00009F0BBCA06E221EE41EE67ED7CE5C701BD
:1042E0000E941D18D1C800313FE5130709F490C999
:1042F00001314FE5140709F09BCF82E08AC90631EE
:104300005CE5150709F420CB8091DE0282720A3C3D
:10431000ECE51E0709F4C2CC08F051CC053C2CE5B5
:10432000120709F4A7CC08F033CC033C4CE5140782
:1043300009F496CC08F099CC023C1C4509F469CCF0
:10434000F70186819781009709F4F0CC0E94F2086A
:10435000182F092FF701D280C580C2943FE0C322F5
:10436000809106028770C1F0AD2CDD20B1F0892F5D
:10437000807F803421F080E2810F883068F0809166
:10438000DE0382FD09C082E00E947513809106025F
:104390008770AA24A3948111A12C902E92942FE0CF
:1043A0009222FBE0F91508F44ACDE92DF0E0E35242
:1043B000FD4C0C943132CF92DF92EF92FF920F932B
:1043C0001F93CF93DF938091BE01807F31F4809162
:1043D000BB01C091020281110BC0DF91CF911F91EF
:1043E0000F91FF90EF90DF90CF9008952196C770C6
:1043F0008091C1018C1789F3F090B901E090BA0166
:10440000C090BC01D090BD01A6016E2D8F2D0E94E1
:10441000E405D0E08111EACF8E0183E0000F111F87
:104420008A95E1F7F801EE53FE4F81818E11DECFC0
:1044300080818F11DBCF82818111D8CFE380F4801E
:10444000EC18FD0860E089EB91E00E946A0E809113
:10445000C3039091C403E816F90640F68091BE01AB
:104460008F7080618093BE01F801E953FE4F808117
:104470008F708061808389EB91E00E94101ADF9138
:10448000CF911F910F91FF90EF90DF90CF900C9400
:10449000520B3F924F925F926F927F928F929F92B8
:1044A000AF92BF92CF92DF92EF92FF920F931F9342
:1044B000CF93DF93CDB7DEB765970FB6F894DEBF25
:1044C0000FBECDBF8C0185E0F801DE015196019051
:1044D0000D928A95E1F7D8014C9011965C90119756
:1044E0001296EC9012971396CD90DC9060E089EBD9
:1044F00091E00E946A0E89EBA82E81E0B82E809090
:10450000BC019090BD01A4016091BA018091B901F4
:104510000E94E4058111CAC1F090BB01F601E819BF
:10452000F9094F0160E0FF2009F46DC1C5010E9447
:104530006A0E6090C3037090C4033090BE0186146D
:10454000970408F013C14091BC015091BD01B09097
:10455000B901A090BA01832D807F6A2D09F0ADC00A
:104560008B2D0E94E405FE2C81113BC0D8011196D1
:104570008C9111978A1135C08C918B1132C020918A
:10458000BF013091C00116968D919C912817390773
:1045900041F5E11026C0832D8F7080618093BE01AC
:1045A00089EB91E00E94101A8091BE01F801858389
:1045B0008F2D65960FB6F894DEBF0FBECDBFDF918D
:1045C000CF911F910F91FF90EF90DF90CF90BF9010
:1045D000AF909F908F907F906F905F904F903F90A3
:1045E0000895F4EF6F16F1E07F0620F48091C80380
:1045F00080FF21C0A601652D842D0E94E405811154
:1046000018C081E08E2580FF16C04E2D652D842DAB
:104610000E94320B882379F089EB91E00E94101AF6
:1046200088E0E9EBF1E0DF011D928A95E9F7F12CD2
:10463000BFCF80E0E8CFA601652D842D0E94E40560
:10464000811124C081E08E25B82FB170CB2E80FF60
:104650002BC04E2D652D842D0E94320BD82E81113A
:1046600023C0498A5A8A89899A890E94270E292F4C
:1046700022952F70223060F0243088F49F7061F012
:10468000F8019581907F41F4FD2C92CF80E0DCCF42
:104690009F7011F08823C1F3805E8830A8F3C801B1
:1046A0000E94101ADC2CF0CFEE2009F481CF80910B
:1046B000BE0181608093BE01BACF8B2D0E94E405BC
:1046C000811124C0D80111968C9111978A111EC0B6
:1046D0008C918B111BC02091BF013091C0011696A7
:1046E0008D919C9117972817390781F4E1100EC01E
:1046F00015963C92C8010E94101A88E0F801A9EBB7
:10470000B1E001900D928A95E1F752CFC8010E9465
:10471000330E882339F1EE2029F18091BE018032D9
:10472000A0F02091B9013091BA013A8729871B8600
:10473000DD86CC868E878091BF019091C001988BD9
:104740008F87CE0109960E94101A88E0F801A9EB24
:10475000B1E001900D928A95E1F70E94DB21FF24E0
:10476000F39426CFC8010E94101AF9CF832D807FC1
:1047700009F452CF9090B9018090BA014091BC01E8
:104780005091BD01682D892D0E94E40581111CC046
:10479000F8018181881118C08081891115C020918C
:1047A000BF013091C001868197812817390761F4D4
:1047B000E1100AC03582C8010E94101A88E0D501B4
:1047C0001D928A95E9F7F4CEC8010E94330E882322
:1047D00049F2EE2039F28091BE01803208F4B5CF63
:1047E0002091B9013091BA013A8329831B82DD827D
:1047F000CC828E838091BF019091C00198878F8376
:10480000CE010196A0CF89EB91E00E946A0E8091C3
:10481000C3039091C4038816990680F6FE2CEE20FF
:1048200009F4A0CFE090B901D090BA014091BC0149
:104830005091BD016D2D8E2D0E94E405811128C07F
:10484000F80181818D1124C080818E1121C02091B9
:10485000BF013091C0018681978128173907C1F4C3
:104860008091C80382FD49CF9091BE0190FD45CF54
:10487000907F09F442CF8091BE018583903F09F477
:1048800039CF982F907F905F8F70892B858332CF9F
:10489000C8010E94330E811158CF8091BE01816002
:1048A0008093BE01C8010E94101A82CEEE2009F446
:1048B00059CFC8010E94330EF82E882309F452CF35
:1048C00088E0F801A9EBB1E001900D928A95E1F73B
:1048D0008091B9019091BA010E94270E0E94DB21BC
:1048E00067CECF93DF93CDB7DEB760970FB6F8945E
:1048F000DEBF0FBECDBF29873A874B875C876D87A8
:104900007E878F87988BCE0109960E94492281115C
:104910002FC088E0FE013996DE01119601900D92BC
:104920008A95E1F74C855D856A8589850E94E40555
:1049300081111EC0A091C101B0E0CD010196877028
:104940009927209102022817190609F133E0AA0FCE
:10495000BB1F3A95E1F7AE53BE4F98E0FE0131968A
:1049600001900D929A95E1F78093C1010E94520B3C
:10497000809102029091C101891317C060960FB611
:10498000F894DEBF0FBECDBFDF91CF9108950E9496
:10499000D3131092C1011092020288E0E9EBF1E01A
:1049A000DF011D928A95E9F7E3CF90E023E0880FBD
:1049B000991F2A95E1F78E539E4F0E944922882322
:1049C000E9F28091020290E0019687709927809326
:1049D0000202CECFFF920F931F93CF93DF9380916C
:1049E00006030091050381113BC0DF91CF911F9118
:1049F0000F91FF900895FF24F394F00EF0920503B9
:104A000010E0C8016CE070E00E94F831EC01C95F71
:104A1000DC4F4B815C81698188810E94E4058111B2
:104A20001EC08E819F81892B21F4888599850196EE
:104A300051F4288139814A815B816C817D818E812D
:104A40009F810E947124C8016CE070E00E94F831DF
:104A5000895F9C4FFC0114821382109211040F2D68
:104A600080910603081738F210920603109205038E
:104A7000BCCF1092AA031092A90310921801809142
:104A8000A8038093A7030E941A060C94EA244F926D
:104A90005F927F928F929F92AF92BF92CF92DF925E
:104AA000EF92FF920F931F93CF93DF93C091A703D1
:104AB00001E010E08EEFA82E882483948091A80353
:104AC0008C1313C00E94EA24DF91CF911F910F91A4
:104AD000FF90EF90DF90CF90BF90AF909F908F901E
:104AE0007F905F904F900C941A064C2E512CF2013F
:104AF000EE0FFF1FE156FC4F20813181C90167E0B5
:104B000070E00E94F83189599C4FEC018C81811131
:104B100062C090900603A7E0B3E0F0E0E0E0B12CC3
:104B2000E91508F055C01A96ED90FC901B97C90145
:104B300067E070E00E94F83189599C4FEC01C88011
:104B4000D9804FEF5FEF712C872D90E0BC01660F8D
:104B5000771F6C0D7D1DEB016881798161157105F1
:104B600031F0E616F70609F4AC017394EDCF4F3F30
:104B70005407C9F1B80102C0660F771F4A95E2F7E2
:104B8000B62AE80102C0CC0FDD1F7A94E2F7CE010D
:104B90000197B816190619F5CF016CE070E00E9474
:104BA000F831FC01E95FFC4FC90167E070E00E9449
:104BB000F831DC01A959BC4F12968D919C91139745
:104BC00097838683A082A1823187208715968C9255
:104BD000C9010E94EF05E2012196C3706FCF1496C0
:104BE0001C921E92139731961C969ACF2F923F9249
:104BF0004F925F926F927F928F929F92AF92BF92ED
:104C0000CF92DF92EF92FF920F931F93CF93DF9398
:104C1000CDB7DEB767970FB6F894DEBF0FBECDBF36
:104C2000942F498B252F5A8B6B8B7C8B8D8B4C89CA
:104C30005D89622F892F0E94E405811109C080914E
:104C4000A5019091A60101969093A6018093A501DC
:104C50008B898111109211041D861E861F86188A69
:104C600085E0FE017196DE01199601900D928A95FC
:104C7000E1F78091DE0382FD1EC08091AD0390912B
:104C8000AE03892BC1F00E94A0052091040230914F
:104C90000502821B930B2091AD033091AE03821766
:104CA000930720F08091060282FFECC10E94B30AB4
:104CB00081110E94800A4C855D856A8589850E94E4
:104CC000E405811111C061E0CE0109960E946A0ECF
:104CD0007C018B8537EFE3163CE5F30681F48823EE
:104CE00021F181E08093180129853A854B855C8507
:104CF0006D857E858F8598890E947124C4C048EF98
:104D0000E4164CE5F40629F4882379F00E9439254D
:104D1000EBCF69EFE6166CE5F60639F4882329F047
:104D2000809118018111F2CFDCCF07E613E0412C0E
:104D3000D12CC12C88248394912CF801408151817D
:104D4000AA24AA94BA2C20E0822F90E0FC01EE0F56
:104D5000FF1FE40FF51F608171816115710531F04E
:104D6000E616F70609F45C012F5FEECF512CFFEF3A
:104D7000AF16BF0609F448C0F801448150901801ED
:104D8000852D411180E0F82FF1705F2EF8013580FC
:104D900086819B85992309F404C1552009F401C13A
:104DA0006090C1037090C203311012C0A40101C011
:104DB000440FAA94EAF7842B868380910303909191
:104DC00004038615970520F4709204036092030390
:104DD000C40102C0880F991F2A95E2F70197F801D4
:104DE00026812817190681F48091A9039091AA03BE
:104DF000009709F461C00E9491056816790608F0D1
:104E00005BC031E0F80134834528FFEFCF1ADF0A99
:104E1000095F1F4F38E0C316D10409F08ECF8B8590
:104E2000882309F41AC1442009F417C10E94A0057F
:104E30009093AA038093A90380910603883018F504
:104E400091E0980F9093060398E0FE013996DE01F9
:104E5000119601900D929A95E1F790E06CE070E068
:104E60000E94F831895F9C4F28E0FE013196DC01F9
:104E700001900D922A95E1F72FEF3FEFFC0131876A
:104E80002087F386E28667960FB6F894DEBF0FBEE2
:104E9000CDBFDF91CF911F910F91FF90EF90DF90E9
:104EA000CF90BF90AF909F908F907F906F905F90CA
:104EB0004F903F902F9008952091A7034091A80311
:104EC0004F8B322FF0E0E0E04F89241315C0309370
:104ED000A703E017F10709F497CF30E0F901EE0FCF
:104EE000FF1FE156FC4FD182C0822F5F3F4F2370DE
:104EF00033272093A80388CFA22FB0E0FD01EE0F47
:104F0000FF1FE156FC4F8081918167E070E00E94B5
:104F1000F83189599C4FFC01608071801E8AB12C48
:104F2000A12CEA2DF0E0EE0FFF1FE60DF71D4081EA
:104F3000518141155105B9F0F80120803180B12C23
:104F400005C04617570709F45E8AB394EB2DF0E0CD
:104F5000EE0FFF1FE20DF31D608171816115710578
:104F600081F7A394DECFFE89FF23C1F0F801BA14C4
:104F700008F0FC0141E044830E171F0721F4309331
:104F8000A7035E8841CF321305C08E179F0711F427
:104F90003F5F337011962A2F237096CFF0E0E0E048
:104FA000F9CF90E031101FC0B40102C0660F771F27
:104FB0002A95E2F79B01215031098217930731F4BA
:104FC000442309F448C0C6010E94EF05C40101C092
:104FD000880FAA94EAF7982F9095F8018681892383
:104FE0008683532C11CF9C010A2C02C0359527953E
:104FF0000A94E2F7A90141705527BC01615071097B
:1050000086239723892B19F5452B09F1F801828115
:105010009381892BC9F01B821C821D821E82FEEFA8
:10502000F983FA830E94A0058160582F9D838C83A9
:10503000F801828193818F83988729813A814B81FE
:105040006D817E810E947124F8011582BFCFF22FFD
:10505000F1703F2EBBCF352CB9CF9091A703809133
:10506000A803981731F00E944725442009F43CCE4C
:105070000ACF0E94EA241092AA031092A9030E9468
:105080001A06F3CF82E00E94751310CECF93DF9300
:1050900000D000D00F92CDB7DEB79093DB028093A3
:1050A000DA02811520E2920748F40F900F900F90DA
:1050B0000F900F90DF91CF910C9432178EEF898370
:1050C0008A831B820E94A0058160782F9D838C8338
:1050D00049815A816B818D810F900F900F900F90B5
:1050E0000F90DF91CF910C94F625CF93DF9300D0F2
:1050F00000D00F92CDB7DEB79093DB028093DA0237
:10510000811520E2920748F40F900F900F900F90B6
:105110000F90DF91CF910C9429198EEF89838A83A8
:1051200081E08B830E94A0058160782F9D838C8312
:1051300049815A816B818D810F900F900F900F9054
:105140000F90DF91CF910C94F62590E080E00E94C3
:105150008F32893E9E4F11F40C94780E80E00895B2
:105160001F920F920FB60F9211242F933F934F93DC
:105170005F936F937F938F939F93AF93BF93CF93DF
:10518000DF93EF93FF93D091E900DF708091EC0003
:10519000C82FC17080FDC0E81092E9008091F00036
:1051A000877F8093F00078940E94E8131092E900C2
:1051B0008091F00088608093F000CD2BCF70C09379
:1051C000E900FF91EF91DF91CF91BF91AF919F9156
:1051D0008F917F916F915F914F913F912F910F90A0
:1051E0000FBE0F901F9018951F920F920FB60F923F
:1051F00011242F933F934F935F936F937F938F93DC
:105200009F93AF93BF93EF93FF938091E10082FF51
:1052100009C08091E20082FF05C08091E1008B7F90
:105220008093E1008091E10080FF17C08091E2004F
:1052300080FF13C08091E2008E7F8093E200809116
:10524000E20080618093E2008091D80080628093C8
:10525000D80019BC85E080930F048091E10084FFA1
:105260002BC08091E20084FF27C084E089BD86E0E6
:1052700089BD89B5982F917080FFFBCF8091D800B0
:105280008F7D8093D8008091E1008F7E8093E10034
:105290008091E2008F7E8093E2008091E200816045
:1052A0008093E20080910604882309F441C084E0E1
:1052B00080930F0480910F048091E10083FF27C049
:1052C0008091E20083FF23C08091E100877F80937B
:1052D000E10082E080930F04109206048091E100C7
:1052E0008E7F8093E1008091E2008E7F8093E200C8
:1052F0008091E20080618093E20042E060E080E023
:105300000E94FF048091F00088608093F000FF917C
:10531000EF91BF91AF919F918F917F916F915F912D
:105320004F913F912F910F900FBE0F901F901895A6
:105330008091E30087FD93E090930F04BBCF7894B6
:105340001F921FB61F9211248F939F93AF93BF9309
:105350008091D9039091DA03A091DB03B091DC0333
:105360000196A11DB11D8093D9039093DA03A093F8
:10537000DB03B093DC03BF91AF919F918F911F909E
:105380001FBE1F9018951F921FB61F9211248F9356
:105390009F93AF93BF938091D803811113C08091E5
:1053A000D9039091DA03A091DB03B091DC0341961D
:1053B000A11DB11D8093D9039093DA03A093DB0361
:1053C000B093DC03BF91AF919F918F911F901FBE4F
:1053D0001F901895CDB7DEB7E6970FB6F894DEBFED
:1053E0000FBECDBF84B7877F84BF0FB6F894A89552
:1053F00080916000886180936000109260000FBE11
:1054000080E890E00FB6F89480936100909361007B
:105410000FBE86E998E090938301809382010E94F9
:10542000E20F0E94800D1092E2001092E100809144
:10543000E00081608093E0008091D8008F778093B6
:10544000D80019BC80916300816080936300109242
:105450002E02809163008E7F8093630081E08093B1
:105460002E021092E2001092E1008091D8008F7716
:105470008093D8008091D80080688093D800809174
:10548000D8008F7D8093D80084E089BD86E089BDF7
:1054900089B5282F2170322E80FFFACF10920F0489
:1054A00010920604109205041092040442E060E099
:1054B00080E00E94FF048091E1008E7F8093E100F4
:1054C0008091E20081608093E2008091E200886038
:1054D0008093E2008091E0008E7F8093E0008091D5
:1054E000E20084608093E200789480910F04882326
:1054F000A1F01091E9001F709091EC00892F81704C
:1055000090FD80E8182B1092E9008091E80083FD5F
:105510000E94E8131F701093E90082E084BD93E0BD
:1055200095BD9AEF97BD80936E000E94780E811111
:1055300002C00E94D30F81E90E94980882E90E946C
:10554000980883E90E94980884E90E94980807E572
:1055500011E0E3E6EE2EE1E0FE2ED8018D918D0103
:105560008F3F11F00E949808E016F106B1F788E02D
:10557000EEE4F2E0DF01282F1D922A95E9F7EFE231
:10558000F2E0DF011D928A95E9F70E94A5288111BA
:1055900002C00E94741182E090E00E9481328093E8
:1055A00038020E94910E9093DE038093DD030E94E7
:1055B000DE11EFE3FCE93197F1F700C000000E9433
:1055C000DE1180914E0280FF08C06FEF7FEF90E008
:1055D00080E00E94B3320E94A40C83E090E00E941D
:1055E00081320E94CF1380913702811133C00E9413
:1055F000A528811104C00E9474110E94651188E0E1
:1056000090E00E94893260938302709384028093B9
:105610008502909386026E7F71F40E94651188E086
:1056200090E00E9489326093830270938402809399
:105630008502909386020E945F0610926A02809112
:10564000830280FF04C060E086950E94021181E021
:105650008093370280E091E09093D5038093D40348
:1056600070E4272E8E010F5F1F4F80910F0454E0CE
:10567000E52E66E0F62E853009F4A6C10E94DE1103
:10568000882359F08FB7F8944091D9035091DA03E9
:105690006091DB037091DC038FBFAEE4B2E0E9E31D
:1056A000F2E0F12CE12C7E2D8D919D912191319193
:1056B0002817390709F498C160E0CC24C394D12C91
:1056C00028273927A9014C215D21452B09F486C1E2
:1056D0006BA77CA79C012C213D2191E0232B09F491
:1056E00090E09DA70E94A0058160782F9FA78EA7BC
:1056F0004BA55CA56DA58FA50E94F625F701EE0FC1
:10570000FF1FE75CFD4F80819181C826D926D18299
:10571000C08280911801882301F18091A9039091A2
:10572000AA030097D1F00E949105209103033091C4
:1057300004032817390788F49091A7038091A803E0
:10574000981709F46AC10E94472510920403109229
:1057500003031092AA031092A9038091C60380FF4D
:105760001EC08091170182FF1AC00E94A0052091DF
:10577000FF0230910003AC01421B530B2091150135
:10578000309116014217530750F021E432E041E016
:10579000BC0180910103909102030E9454198091F1
:1057A0006A028823D1F180916902E0918302E69533
:1057B000E81BE0936502823009F038C1F0E0E85B55
:1057C000FD4FE491EE2EF12CACE6CA2EADE0DA2EC0
:1057D00080916602882361F0109266020E94A00503
:1057E00090936402809363021092680210926702A1
:1057F0000E94A005E0916302F09164028E1B9F0B52
:105800008F3F9F4750F4EE0EFF1EF0926402E0922D
:10581000630283E692E0F601099586E0EDE5F2E0A9
:10582000D80101900D928A95E1F7C0905F02D09067
:105830006002E0906102F090620210925F021092AA
:10584000600210926102109262028C2D8D2991F0FB
:1058500080915B0290915C020E949105FC01209175
:105860005702222309F406C1809113018E171F06E7
:1058700008F40FC18E2D8F2991F0809159029091DB
:105880005A020E949105FC0120915602222309F43C
:1058900043C180910F018E171F0608F44CC18091FF
:1058A0005F0290916002892B90916102892B909107
:1058B0006202892B11F00E94FB0686E0F801ADE53B
:1058C000B2E001900D928A95E1F70E94D80590917F
:1058D000490289138093490280910F04843009F0B2
:1058E000C4CE83E08093E9008091E80082FFBDCEC2
:1058F0008091E80090E085FF0AC00E945D0450E2BC
:10590000C52ED12C7801882309F462C191E08091E1
:10591000E8008B778093E800992309F4A6CEE09005
:10592000DC02F090DD028981E114F10409F45EC12A
:105930008E3F09F0F6C18A81833020F08550833094
:1059400008F0EFC1EA81EE3008F0EBC1F0E0E7517A
:10595000FD4C0C94313280910F04843019F1109277
:10596000D80328E130E00FB6F894A89520936000A2
:105970000FBE2092600083B7817F846083BF83B7AE
:10598000816083BF7894889583B78E7F83BF0FB67D
:10599000F894A895809160008861809360001092CF
:1059A00060000FBE80910504882371F00E94DE1113
:1059B000EEE4F2E081919191892B09F0BAC486E579
:1059C00092E08E179F07B1F780910F04853009F49C
:1059D000C2CF0E94D3130E94D80550CE6F5FCC0C6B
:1059E000DD1C6C3009F06ECE9FEFE91AF90A24E055
:1059F000E216F10409F057CE8FEF88AB89AB1AAAF3
:105A00000E94A0058160782F9CAB8BAB48A959A957
:105A10006AA98CA90E94F6257CCE0E94EA241092E5
:105A2000AA031092A9030E941A0697CE863059F451
:105A3000F0E0EB5BFD4FE491EE2EF12CFCE5CF2E78
:105A4000FDE0DF2EC5CE60EDE62E67E0F62E7EE5AA
:105A5000C72E76E0D72E893009F0BACEE695F0E071
:105A6000EE5BFD4FE491EE2EF12CE7E0CE2EEDE063
:105A7000DE2EAECE8091140190E06AE070E00E94CC
:105A8000F8318E179F0708F0F5CE2F5F209357024D
:105A900002C02F3FD1F7CC2051F00E94E0076FEFFA
:105AA0001C140CF4632D0E94EF3180935F02DD2003
:105AB00051F00E94E0076FEF1D140CF4632D0E945B
:105AC000EF318093600280915F02882309F4D2CE87
:105AD00020916002222309F4CDCE082E000C990BF0
