:100000000C941F040C9466040C9466040C9466040F
:100010000C9466040C9466040C9466040C946604B8
:100020000C9466040C9466040C9466040C94602E84
:100030000C94082F0C94152E0C9466040C946604F2
:100040000C9466040C9466040C9466040C943C2E88
:100050000C9466040C9466040C9466040C94660478
:100060000C9466040C9466040C9466040C94660468
:100070000C94660405010902A10185020901A10091
:10008000050919012905150025019505750181024C
:100090009501750381010501093009311581257F1D
:1000A00095027508810609381581257F9501750827
:1000B0008106050C0A38021581257F950175088196
:1000C00006C0C005010980A101850319012AB700F6
:1000D000150126B700950175108100C0050C0901B6
:1000E000A101850419012AA002150126A00295018B
:1000F00075108100C005010906A1018505050719D4
:10010000E029E71500250195087501810205071909
:100110000029EF1500250195F075018102050819E8
:10012000012905950575019102950175039101C09D
:100130000660FF0961A1010962150026FF009520F4
:10014000750881020963150026FF00952075089146
:1001500002C005010906A101050719E029E71500FC
:100160002501950875018102950175088101050732
:10017000190029FF150026FF009506750881000566
:1001800008190129059505750191029501750391DD
:1001900001C009025B00030100A0FA09040000018C
:1001A000030101000921110100012240000705811E
:1001B0000308000A090401000203000000092111DC
:1001C0000100012222000705820320000107050328
:1001D00003200001090402000103000000092111AD
:1001E00001000122BC000705840320000A1201005F
:1001F000020000000803A172040200010203011CB6
:10020000037600690061006C003A00660036003435
:10021000006300320062003300630000000E0355EB
:10022000005400340037002E003200000010034B51
:100230000065007900680069007600650000000430
:10024000030904290014001A000800150017001CF7
:100250000018000C00120013002A002B43040016A3
:1002600000070009000A000B000D000E000F00330C
:10027000003400E1001D001B0006001900050011FC
:10028000001000360037003800D95CE000E200E3DF
:1002900000650002512C002C000151500051005209
:1002A000004F0035001E001F002000210022002307
:1002B0000024002500260027004C000100C25CC37A
:1002C0005CC95CCA5C010001002D002E002F0030CB
:1002D000003100010044004500680069006A006BBD
:1002E000006C006D006E006F000100005C010001F9
:1002F00000390001000100010001004A004E004BDE
:10030000004D0035021E021F02200221022202239C
:100310000224022502260227024C000100010001EE
:100320000001000100010001002D022E022F023009
:1003300002310201003A003B003C003D003E003F1C
:1003400000400041004200430001000100010001A3
:1003500000390001000100010001004A004E004B7D
:10036000004D002900B200B500B100B3000100014A
:100370000001000100010046000100010001000130
:100380000001000100010001000100010001000165
:100390000001000100010001000100010001000155
:1003A0000001000100010001000100010001000145
:1003B0000001000100010001000100F200F100F065
:1003C00000F3002223252628292A2C2D2F30323312
:1003D0003536383A3B3D3E4042434547494A4C4E0C
:1003E0005051535557595A5C5E6062646668696B38
:1003F0006D6F71737577797B7D7F81838587898A3E
:100400008C8E90929496989A9C9E9FA1A3A5A7A843
:10041000AAACAEAFB1B3B4B6B8B9BBBCBEBFC1C273
:10042000C3C5C6C7C9CACBCCCDCED0D1D2D2D3D406
:10043000D5D6D7D7D8D9D9DADADBDBDBDCDCDCDC24
:10044000DCDDDDDDDDDCDCDCDCDCDBDBDBDADAD9F2
:10045000D9D8D7D7D6D5D4D3D2D2D1D0CECDCCCB74
:10046000CAC9C7C6C5C3C2C1BFBEBCBBB9B8B6B492
:10047000B3B1AFAEACAAA8A7A5A3A19F9E9C9A9822
:10048000969492908E8C8A89878583817F7D7B79F3
:10049000777573716F6D6B6968666462605E5C5AD4
:1004A0005957555351504E4C4A4947454342403E97
:1004B0003D3B3A3836353332302F2D2C2A29282629
:1004C00025232200010101010101010101020202B3
:1004D00002020202020203030303030303030404F0
:1004E00004040404040505050505060606060607BA
:1004F0000707070708080808090909090A0A0A0B73
:100500000B0B0C0C0C0D0D0D0E0E0E0F0F0F101013
:10051000111111121213131414151516161717189A
:100520001819191A1A1B1B1C1D1D1E1E1F20202105
:100530002222232424252626272829292A2B2C2D4C
:100540002D2E2F30313232333435363738393A3B6D
:100550003C3D3E3F404142434445464748494A4C62
:100560004D4E4F50515354555658595A5B5D5E5F2E
:10057000616264656668696B6C6D6F7072737577C4
:10058000787A7B7D7E8082838587888A8C8E8F9126
:10059000939596989A9C9EA0A2A3A5A7A9ABADAF50
:1005A000B1B3B5B7BABCBEC0C2C4C6C9CBCDCFD13A
:1005B000D4D6D8DBDDDFE2E4E7E9EBEEF0F3F5F8E3
:1005C000FAFDFF643214783C1E1E140A0501000176
:1005D00000BD03000002000200B903000003000197
:1005E00000BE03000004000200A303590905000136
:1005F00000BF03000006000200A503000007000280
:1006000000BB03000008000100C003000009000255
:1006100000A70362090A000200A90362090B000295
:1006200000AB0362090C000200AD0362090D000279
:1006300000AF0362090E000200B10362090F00025D
:1006400000B303620910000200B503620911000241
:1006500000B703620912000200C103000013000288
:1006600000C3030000FD377A585A000004E6D6B4F0
:10067000460200210116000000742FE5A3E001FAF4
:1006800000E75D003D8889C65436C3174FE4E74F45
:100690002F415745EC9A6CFD5B78D0DCF5C8FE2005
:1006A000A674D6E099A85A7B9CF2265E1C175EA41D
:1006B0001B29A77E6D53D934AF0B02E20BDDCF624D
:1006C000301F0F9C47D844082220C7E512FC286938
:1006D0008DF646D4C0A15F04DABE542633A88ED866
:1006E000170B3A53B1508C284EB52B8AEAA18A4792
:1006F000812CB5301B22A6D515D2690ED084821864
:10070000633893818766340ADFF7F5ED63C81E3DD1
:100710008B0EFAEF9CDBA62250B28D61D97EB3CF4F
:10072000A07A149D4DBF30011D23C4458214830C53
:100730000402490DBAA77B6B24CCBF9FFC51E91181
:10074000EDE3E3E92CE85F0E941255C0CC0460E5BC
:10075000A00F7301C81ED92C4FE3CE2D4ABF2F53D3
:100760001754CD3C234819F90EC6A10000B7B2D3E7
:1007700040F60A981300018302FB03000034CE9078
:1007800072B1C467FB020000000004595A00000067
:100790000000000000000000000000000000000059
:1007A0000000000000000000000000000000000049
:1007B000007E0F00D4FFFFFFC7000000780000009C
:1007C00000000000002A2B280000000000000000AC
:1007D000000000000000000029000000002C1E3472
:1007E00020212224342627252E362D3738271E1F78
:1007F000202122232425263333362E37381F0405A3
:10080000060708090A0B0C0D0E0F10111213141510
:10081000161718191A1B1C1D2F3130232D350405EE
:10082000060708090A0B0C0D0E0F101112131415F0
:10083000161718191A1B1C1D2F3130354C001124A6
:100840001FBECFEFD4E0DEBFCDBF04B603FE27C08E
:100850008091C7039091C803A091C903B091CA03C6
:100860008730904BA740B04BD1F41092C703109241
:10087000C8031092C9031092CA0314BE84B7877FBD
:1008800084BF0FB6F894A89580916000886180932A
:100890006000109260000FBEE0E0F8E3099523E0ED
:1008A000A2E8B1E001C01D92A73CB207E1F711E058
:1008B000A0E0B1E0ECE6F1E602C005900D92A238AE
:1008C000B107D9F70E9479260C9433300C940000BC
:1008D000282F892F82958F70903C80F48A30B0F455
:1008E000843020F4823090F480E008958630E1F77F
:1008F00081E0283E88F0213FB9F70EC08C3011F01E
:100900008F3091F793FB882780F9089581E0203F8D
:1009100039F018F4283E40F70895243F29F7FCCF1A
:100920000895382F892F262F9E3F71F16CE00E9489
:10093000512F830F982F977041E001C0440F9A9573
:10094000EAF786958695869590E063E070E00E94D0
:100950005A2FFC01EA53FD4F90E080E0622F70E0D7
:100960005191DF0111979B01082E02C03695279502
:100970000A94E2F7217021952527242325272C931B
:1009800001968330910561F70895282F892F9E3FA6
:1009900051F16CE00E94512F820FA82FA77086950D
:1009A0008695869590E063E070E00E945A2FFC01E6
:1009B000EA53FD4F50E040E080E0219130E00A2E04
:1009C00002C0369527950A94E2F721703327042E4A
:1009D00001C0220F0A94EAF7822B4F5F5F4F43302A
:1009E000510559F7089580E0089580917D02909116
:1009F0007C02981301C008958F5F8770FACF9091A1
:100A000015019923C1F09091F10297FF14C0E82FCE
:100A1000E695E695E695803FF8F4F0E0EC57FE4F5A
:100A2000877021E030E001C0220F8A95EAF78281C9
:100A3000822B82830895A6E8B1E0EFEF90E02D913C
:100A4000821751F0EF3F19F4211101C0E92F9F5F88
:100A50009630A9F7EF3F09F408950E2E000CFF0B16
:100A6000EC57FE4FE6CF909115019923E1F090915C
:100A7000F10297FF18C0E82FE695E695E695803FCE
:100A8000F0F4F0E0EC57FE4F877021E030E0A90170
:100A900002C0440F551F8A95E2F7CA0180959281E2
:100AA000892382830895E6E8F1E09191891303C0D8
:100AB000DF0111971C9251E0EC38F507B1F708956A
:100AC000982F90958091F60289238093F6020895DD
:100AD0008091F302882331F01092F3021092F00219
:100AE0001092EF0208959091F10292FF06C0282F14
:100AF00028712830F9F4877F846093FF06C0282F7F
:100B000028712831F1F4877E84612091F20220FF60
:100B100006C0382F38713830D9F4877F816021FFC3
:100B200006C0282F28712831D1F4877E816194FD79
:100B3000877E0895282F24712430F9F68B7F8860F2
:100B4000DCCF282F2471243101F78B7E8861DDCF23
:100B5000382F3171313019F78E7F8860E0CF282F20
:100B60002171213121F78E7E8861E1CFCF93DF9310
:100B7000EC01803E910509F45FC050F58133910589
:100B800009F4A5C090F48932910509F499C08A97B7
:100B900009F4A4C0C130D10509F461C0CE010497A5
:100BA000813A910508F054C05AC089339105E9F1A2
:100BB00082389105D1F1C59709F47BC0C83AD105B7
:100BC00008F093C0C53AD10528F3A497D06447C074
:100BD000843E910509F452C068F4823E9105D9F132
:100BE000833E910509F43FC0CE01805E91090897CC
:100BF00078F535C0863E910509F44BC0873E9105D6
:100C000009F44CC08115934508F09AC0C11582E5DE
:100C1000D80708F005C1CF3FD10511F008F074C026
:100C2000C03FD10558F2D0651AC08091F10283709F
:100C3000B1F0C0EED0E013C08091F10280FD1DC183
:100C40009091F20290FF0BC0C3EED0E084FF07C08A
:100C5000D0E0C0E004C08091F10282FDF5CFCE016A
:100C6000DF91CF9108958091F10282FD09C19091A9
:100C7000F20290FDDECF84FFF2CFEACF8091F20244
:100C800081FFEDCF8091F102C7EED0E084FDE0CF8F
:100C9000E6CF8091F10283FDF7CFE1CF8091F102A1
:100CA00083FDF1C09091F20291FFE5CFC4EED0E058
:100CB000D6CF8091F10285FFD2CFC9E2D0E0CFCF6D
:100CC0008091F10285FFCBCFC5E3D0E0C8CF809102
:100CD000F10286FFC4CFCAE2D0E0C1CF8091F10219
:100CE00086FFBDCFC1E3D0E0BACFCF3BD10508F03E
:100CF0007BCFC85AD0E0CC0FDD1FCD5ADE4F099014
:100D0000D881C02DD464ABCFC11521E5D20798F4AA
:100D1000C11580E5D80708F064C0C11520E2D207EC
:100D200008F49DCFCE0190548115904108F090CFEA
:100D3000DF70D06A94CFDC2FCC27C16FD06A8FCF01
:100D4000C11589E5D807B0F5C11528E5D20708F027
:100D500081C0C11585E5D807D8F4C11524E5D207AF
:100D600008F073C09E012370332781E090E002C039
:100D7000880F991F2A95E2F7C695C695D0E0B5E091
:100D8000CC0FDD1FBA95E1F7C82BD92BDA6867CFF6
:100D9000CE0195558F3F910511F008F059CF8C2F5A
:100DA0000E947305C82FD0E0DC2FCC27CC27DF7141
:100DB000D06255CFC1158AE5D80708F450C0CE01DE
:100DC00090568115904208F043CF8D2F8F710E946D
:100DD000730590E0982F882788279F718C2BEC0152
:100DE000E7CF9E01E4E036952795EA95E1F7237079
:100DF0008C2F86958695837090E0F5E0880F991F7B
:100E0000FA95E1F7922BC37021E030E002C0220F87
:100E1000331FCA95E2F7822B932BEC01DC681FCFBE
:100E20009E012370332781E090E002C0880F991F54
:100E30002A95E2F7C695C695D0E075E0CC0FDD1F88
:100E40007A95E1F7C82BD92BE9CFDC2FCC27C46FDB
:100E5000D06A05CFDC2FCC27C06FD06A00CF8C2F93
:100E60008F700E94730534E0D695C7953A95E1F7E7
:100E7000CF709C2FEC01D069F2CEC9E3D0E0EFCE69
:100E8000C2EED0E0ECCEC6EED0E0E9CE80E0089530
:100E9000F894E82FE295EF70F0E041A18F7021E027
:100EA00030E0B90102C0660F771F8A95E2F7CB01E7
:100EB000962F9095942391A392A1892B82A3789445
:100EC000089508958091D9022091AB033091AC032D
:100ED00080FF13C08091040190E0B9010E945A2F55
:100EE0009C01369527953695279520383105A0F534
:100EF0002115310599F1822F089581FF0AC0809153
:100F0000040190E0B9010E945A2F9C013695279563
:100F1000ECCF82FF08C08091040190E0B9010E94EB
:100F20005A2F9C01E2CF8091DB028823F1F240919D
:100F300003016091040170E0841710F0C901EFCF44
:100F400090E00E945A2FB9010E945A2F642F70E03E
:100F50000E946B2F9B01C9CF8FE7089581E0089510
:100F60008091D90280FF0CC06091020170E07595FC
:100F70006795759567956115710559F1862F0895E7
:100F800081FF06C06091020170E075956795F3CF0F
:100F90006091020170E082FD0CC06091DA0266236C
:100FA000A9F0209101018091020190E0621730F0D8
:100FB000BC0160387105F8F28FE7089570E00E9477
:100FC0005A2F622F70E00E947F2FF3CF61E070E014
:100FD000D5CF81E00895805F803108F045C0E82FCB
:100FE000F0E0EB5CFF4C0C94932F0E94620781951C
:100FF0008093DF0208950E946207FACF0E94620781
:1010000081958093DE0208950E946207FACF0E94C4
:10101000B0078093E00208950E94B0078195F9CF50
:101020000E94B00781958093E10208950E94B00765
:10103000FACF8091DD0281608093DD020895809176
:10104000DD028260F9CF8091DD028460F5CF80916E
:10105000DD028860F1CF8091DD028061EDCF80916B
:10106000D90281608093D90208958091D90282606B
:10107000F9CF8091D9028460F5CFE82F3091DF025B
:101080002091DE029091E0028091E102E03FA1F424
:1010900037FD1092DF028091DE029091DF02892BF2
:1010A00011F41092DB028091E0029091E102892B11
:1010B00011F41092DA020895E13F19F413164CF37B
:1010C000EACFE23F29F427FFE6CF1092DE02E3CF1A
:1010D000E33F19F41216CCF3DECFE93F29F41916D9
:1010E000D4F61092E002D7CFEA3F19F497FFD3CF9E
:1010F000F8CFEB3F29F487FFCECF1092E102CBCFA0
:10110000EC3F19F41816CCF3C6CFE45FEC3008F0CE
:10111000C2CFF0E0EB5BFF4C0C94932F8091DD028B
:101120008E7F8093DD02B7CF8091DD028D7FF9CF76
:101130008091DD028B7FF5CF8091DD02877FF1CF3B
:101140008091DD028F7EEDCF8091D9028E7F8093DA
:10115000D902A1CF8091D9028D7FF9CF8091D90298
:101160008B7FF5CF9F92AF92BF92CF92DF92EF929B
:10117000FF920F931F93CF93DF938901E42FF0E049
:10118000ED53FB4F611113C03491232F432FF8010E
:10119000418330832283DF91CF911F910F91FF9084
:1011A000EF90DF90CF90BF90AF909F900895282F41
:1011B00030E0C62FD0E04491C42ED12CC90166E0A6
:1011C00070E00E945A2F7C01EFEFF0E0BF010E9417
:1011D0006B2FDB01220F331FCB0165E570E00E940E
:1011E0005A2F281B390BA22EAA0CA20ECF018C1B42
:1011F0009D0BB6010E945A2F392F992EB12CC50193
:10120000BE010E945A2F892F90E0BF01681B790B05
:10121000CB01B6010E945A2F292FCF018A199B09B1
:10122000BE010E945A2F892F90E0BF01681B790BE5
:10123000CB01B6010E945A2FA330B105C1F07CEF5B
:10124000E71673E0F70668F4A130B105A1F0129734
:10125000B1F08FEFE816F10408F099CF232F392F62
:1012600096CFA430B10571F01697C1F390CF322F0D
:10127000242F492D8CCF342F422F292D88CF292F71
:10128000342FF7CF242F492F82CF8091EA02982F55
:101290009E7F29F4817082608093EA0208958E31E6
:1012A000E8F381708C61F8CFFA0181110994FB0198
:1012B000FDCF8091A3039091A40390931401809398
:1012C00013010895E3EAF3E0848195812AE030E098
:1012D000B9010E946B2F60931101868180931201E6
:1012E0008285809304018485809303018685978598
:1012F000B9010E946B2F60930F01808980931001C8
:10130000828980930201848980930101089510925B
:10131000050310920403EBE6F3E08581811102C01E
:1013200014821682379683E0E33AF807B1F70895FE
:10133000A0910703509106034A2F541301C008954A
:10134000242F30E0F901EE0FFF1FE450FD4F6081C4
:1013500071816817790791F467E070E00E945A2F55
:10136000FC01E559FC4F81E084834A13E8CF2F5FED
:101370003F4F237033272093070308952F5F3F4F7C
:10138000422F4370DACFE0917A02F0917B023097DE
:1013900021F00190F081E02D099480E008952091E2
:1013A000D5013091D6012817390771F09093D601F5
:1013B0008093D501E0917A02F0917B02309721F081
:1013C0000680F781E02D099408952091D301309192
:1013D000D4012817390771F09093D4018093D30179
:1013E000E0917A02F0917B02309721F00084F18540
:1013F000E02D099408952FB7F89480915D029091A3
:101400005E02A0915F02B09160022FBF08958091AB
:10141000A5039091A603892B91F00E94FB092091CE
:10142000EF023091F002AC01421B530B9A0181E0B4
:101430004091A5035091A6032417350708F480E0D6
:10144000817008958091F6029091F802892B909115
:10145000D802892B809384018091F302882319F1AB
:101460008091A5039091A603892B29F00E94070A79
:1014700081110E946805809184019091F302892B6B
:101480008093840180911501882341F18091F102BC
:1014900087FF24C08EE1E6E8F1E090E0815000F59E
:1014A00091110E946805E0917A02F0917B023097D9
:1014B000E1F080911501882359F08091F10287FFB6
:1014C00007C0809184018093850185E08093840129
:1014D0000280F381E02D84E891E0099486E0DBCF7F
:1014E00021912223D9F29F5FD9CF0895882339F023
:1014F0009091F602892B8093F6020C94220A0895AB
:10150000882321F00E9460050C94220A08950E940D
:10151000FB092091DE023091DF02232B21F0809322
:101520004D0290934E022091E0023091E102232B74
:1015300021F080934B0290934C02E0917A02F0915B
:101540007B02309749F082E08093DC020480F581D1
:10155000E02D8CED92E009940895882309F452C09F
:10156000823871F40E94C30981FF4CC089E30E9454
:10157000FF040E94220A89E30E9433050C94220A88
:10158000833859F40E94C30980FF3CC083E50E9460
:10159000FF040E94220A83E5EFCF843859F40E94A9
:1015A000C30982FF2FC087E40E94FF040E94220A21
:1015B00087E4E2CF9CEF980F913AF0F290E2980F17
:1015C000983050F4877091E001C0990F8A95EAF73E
:1015D000892F0E946005D2CF9BE5980F933020F4AD
:1015E00090E080E00C94CF0998E5980F973120F4B3
:1015F00090E080E00C94E509803F20F00E943D08D7
:101600000C94870A089590E080E00E94CF0990E052
:1016100080E00E94E5091092F8021092D8020E9420
:10162000220A86E0ECEDF2E0DF011D928A95E9F7EF
:101630001092DB021092DA021092D9020C94870AFF
:101640008093F4020C94030B8093F5020C94030B2B
:1016500021E030E001C0220F8A95EAF78091F5027F
:10166000822B0C94240B962F2091F20222FD10C0A5
:10167000682F660F660F660F692B6093F9020E9450
:10168000280B0E94FB099093FB028093FA020895B5
:101690000C94280B21E030E001C0220F8A95EAF774
:1016A00020958091F50282230C94240B9091F902ED
:1016B000809589238093F902282F277039F4282FE9
:1016C000082E000C330B9217130621F49091F202AE
:1016D00092FF0BC08595859585950E944A0B1092C7
:1016E000F9021092FB021092FA0208959C014FB782
:1016F000F89480915D0290915E02A0915F02B0919A
:1017000060024FBF821B930B08958091D201089510
:10171000FC01CB012091AD013091AE0126173707B6
:1017200090F0009729F42091E8002E772093E800AC
:1017300040E0009751F4411108C08091E80082FF19
:1017400030C080E00895C901F3CF209166022223C2
:10175000A1F12530A1F12091E80023FD2CC02091BA
:10176000E80022FDEACF2091E80020FFE2CF20919F
:10177000F20030E0009719F02830310558F041E0D0
:101780002830310509F040E02091E8002E772093C1
:10179000E800CFCF41914093F10001972F5F3F4F79
:1017A000E9CF80916602882341F0853041F0809135
:1017B000E80083FFC2CF81E0089582E0089583E0CE
:1017C00008958091A70187FF13C08091E80082FFF0
:1017D00006C08091E8008B778093E80004C0809178
:1017E00066028111F2CF0895809166028823D9F3B1
:1017F0008091E80080FFF8CF8091E8008E77ECCFF1
:101800002091E4003091E50095E6A9012091EC00DB
:10181000822F817020FF06C08091E80080FF06C003
:1018200080E008952091E80022FD1AC080916602B0
:10183000882389F0853089F08091EB0085FD0FC009
:101840002091E4003091E50042175307F9F29150DE
:10185000E1F684E0089582E0089583E0089581E050
:101860000895EF92FF920F931F93CF937C018B010A
:101870000E94000CC82F811117C08091E80085FDDF
:101880000BC08091E8008E778093E8000E94000CE6
:10189000882399F3C82F08C0F70181917F018093B5
:1018A000F1000150110949F78C2FCF911F910F9131
:1018B000FF90EF900895CF93209166022430F1F4C9
:1018C0002091E900C091EC00C795CC27C7952F70F7
:1018D000C22B22E02093E9002091E80020FF0BC0FA
:1018E00050E040E060E270E00E94310C8091E8003E
:1018F0008E778093E800CF70C093E900CF91089570
:101900008091F502982F9670963019F488600C94A7
:10191000240B877FFCCF982F9093E900242F762FFC
:1019200050E0891731F07091EC002091ED0050915A
:10193000F00021FD06C09F5F953071F78093E900AC
:1019400008953091EB003E7F3093EB003091ED0035
:101950003D7F3093ED003091EB0031603093EB0030
:101960007093EC002093ED005093F0002091EE0076
:1019700027FDE1CF08959C012115310509F4089553
:101980008FE99FE00197F1F700C000002150310975
:10199000F3CFCF93C82F882309F4AEC08238C1F4A7
:1019A0000E94C30981FDA8C089E30E94FF040E9430
:1019B000220A2FEF31EE84E0215030408040E1F7E1
:1019C00000C0000089E30E943305CF910C94220AE5
:1019D0008338A1F40E94C30980FD8EC083E50E9474
:1019E000FF040E94220A9FEF21EE34E09150204034
:1019F0003040E1F700C0000083E5E5CF8438A1F472
:101A00000E94C30982FD78C087E40E94FF040E94FF
:101A1000220A8FEF91EE24E0815090402040E1F7C0
:101A200000C0000087E4CFCF8CEF8C0F813A90F597
:101A300080911501882301F18091F10287FF1CC07C
:101A4000EC2FE695E695E695F0E0EC57FE4F8281A7
:101A500090E04C2F477021E030E002C0220F331F8E
:101A60004A95E2F782239323892B81F08C2F0E94E1
:101A700033050E94220A0AC0E6E8F1E08CE891E012
:101A80002191C21799F38E179F07D1F78C2F0E94CF
:101A9000FF049BCF80E28C0F883068F4C77021E090
:101AA00030E001C0220FCA95EAF78091F602822B3E
:101AB0008093F6028ACF8BE58C0F833038F42C2F7D
:101AC0002452330BC901CF910C94CF09E8E5EC0FF8
:101AD000E73150F4F0E0EE0FFF1FED5AFE4F80812A
:101AE0009181CF910C94E509C03F30F08C2F0E947A
:101AF000EB07CF910C94870ACF910895FF920F9333
:101B00001F93CF93DF938C01EB01F42E809116018C
:101B100082FF45C08B7F809316018091E202209165
:101B2000E4023091E502AB01421B530B9A01409154
:101B300013015091140124173507B8F40E94C90C01
:101B4000809116018D7F809316018091C103909141
:101B5000C2030E94BB0C8091E2020E94AD0A8091F8
:101B6000F8028D7F8093F80224C09091F802926071
:101B70009093F8020E94C90C8091160182608093B4
:101B800016018091BE0385FFE0CF86FDDECFFF20EA
:101B9000E1F2DF91CF911F910F91FF900895802F77
:101BA0000E94AD0A8091E2029091E30280179107B2
:101BB000B1F20E94220AD093E502C093E402E9CF79
:101BC0000F931F93CF93C82F0091C3031091C403A9
:101BD000893321F00091C1031091C2038C2F0E9420
:101BE000C90C0115110531F48C2FCF911F910F9164
:101BF0000C94AD0A8FE99FE00197F1F700C0000057
:101C000001501109EECFBF92CF92DF92EF92FF9277
:101C10000F931F93CF93DF93EC018881882309F4FE
:101C20008FC08130E1F599818A81913021F422962B
:101C30000E94E00D05C0923029F422960E94C90C42
:101C40002196EBCF933021F422960E94AD0AF8CF73
:101C5000943011F02196F4CF229620E030E0DE019E
:101C60001196482F4053550BFA014A30510560F048
:101C70002115310529F38FE99FE00197F1F700C0A5
:101C8000000021503109F4CFC9016AE070E00E94E0
:101C90005A2F9F01280F391F8981ED01E0CFE82FCE
:101CA000F0E0E354F84FB490282F2695269526951A
:101CB00030E0F901E355F84FE4908770F12C082EDD
:101CC00002C0F594E7940A94E2F791E0E922FF2438
:101CD000F901E356F84FC490D12C082E02C0D594D8
:101CE000C7940A94E2F741E0C422DD24F901E357E6
:101CF000F84F049110E002C0159507958A95E2F718
:101D000001701127E114F10419F081EE0E94C90C51
:101D1000C114D10419F086EE0E94C90C8B2D0E94CB
:101D2000E00DCD2819F086EE0E94AD0AEF2819F0DB
:101D300081EE0E94AD0A012B09F482CF8CE278CFAC
:101D4000DF91CF911F910F91FF90EF90DF90CF9097
:101D5000BF900895FF920F931F93CF93DF93C62FE9
:101D6000D42F122F8823A9F06093E6020E94FB096A
:101D70009093A5018093A401C77081E001C0880FF2
:101D8000CA95EAF7DF91CF911F910F91FF900C94C4
:101D9000760A8091E602681338C08091A401909180
:101DA000A5010E94760B2091BB033091BC038217E2
:101DB000930758F500E20D0FCD17A9F0C770FF2467
:101DC000F3948F2D01C0880FCA95EAF70E94800A0C
:101DD000083048F48D2F877001C0FF0C8A95EAF710
:101DE0008F2D0E94760A812F0E94E00D0830A0F40A
:101DF000D77081E001C0880FDA95EAF7DF91CF91C3
:101E00001F910F91FF900C94800AC77081E001C070
:101E1000880FCA95EAF7F2CFDF91CF911F910F910A
:101E2000FF9008958091EA0280FD0AC0E8E2F2E0A6
:101E3000118210821282339652E0E034F507C1F726
:101E40003E9A38B13F7B28B120644FB7F89488E2BE
:101E500092E0FC010196508168E028B9000000C0C2
:101E600057FF38B9550F000000C000C000C038B996
:101E700000C06A9591F752E08034950751F74FBF43
:101E80008FE594E00197F1F700C000000895EF920C
:101E9000FF921F93CF93DF93EC0188E2E82E82E05C
:101EA000F82E10E08C8197014091ED026091EC02D8
:101EB000810F0E94B208115E83E0E80EF11C183F0A
:101EC00089F70E94120F9A818C8190FF08C08F5F62
:101ED0008C83DF91CF911F91FF90EF9008958150F7
:101EE000F7CF9091EA0290FF0CC0E8E2F2E0818324
:101EF00060834283339692E0E034F907C1F70C9493
:101F0000120F0895CF93DF9300D00F92CDB7DEB7B5
:101F10009091EA0290FF0FC09E012F5F3F4F0E94F9
:101F2000B2084B8169818A810F900F900F90DF91E9
:101F3000CF910C94710F0F900F900F90DF91CF9174
:101F40000895CF93DF93EC01EC81F0E0ED53FC4F6B
:101F50004491EAEEF2E0628181810E94820F8C81DD
:101F60008F5F8C83DF91CF910895CF93DF93EC0146
:101F7000EAEEF2E0438162818C810E94820F8C81C3
:101F80008F5F8C83DF91CF91089581E08093E00093
:101F900080E28093D8001092C9008FE19EE40197FF
:101FA000F1F700C0000087E090EBDC018093C703ED
:101FB0009093C803A093C903B093CA0388E19CE03F
:101FC0000FB6F894A895809360000FBE90936000C0
:101FD000FFCFCF93DF93D82FC92F8091150188238E
:101FE000C1F18091F10287FF34C060E284E0809308
:101FF000E9008FEF9091E800815095FD06C095EDC6
:102000009A95F1F700008111F5CF8091E80085FFE6
:102010001DC08091150170E050E040E0811104C0C6
:1020200050E040E068E070E08D2F9C2F0E94310C62
:102030008091E8008E778093E80080E2ED2FFC2FFE
:10204000A2EBB1E001900D928A95E1F7DF91CF917B
:10205000089568E081E0CBCF24E02093E9002FEFE2
:102060003091E800215035FD06C035ED3A95F1F785
:1020700000002111F5CF2091E80025FF0BC050E0B2
:1020800040E066E070E00E94310C8091E8008E77BD
:102090008093E800089590916602943029F580932A
:1020A000AF016093B0017093B1019093E9008FEF9D
:1020B0009091E800815095FD06C095ED9A95F1F755
:1020C00000008111F5CF8091E80085FF0DC050E040
:1020D00040E063E070E08FEA91E00E94310C809173
:1020E000E8008E778093E8000895BC0183E00C94AB
:1020F0004B10BC0184E00C944B10CF93C091F202C2
:10210000C2FB992790F9981781F080FBC2F9C09320
:10211000F2026091F10284E090E00E94F72F6C2FB0
:1021200082E290E0CF910C94F72FCF910895CF9356
:10213000C82F6FEF811166E983E290E00E94F72FCC
:102140006FEFC11169EB84E290E00E94F72F6FEF0F
:10215000C1116EEB85E290E0CF910C94F72F0F93B5
:102160001F93CF93DF93E82F8901862B843068F586
:102170004C3058F521153C4531F480916102909125
:102180006202892B11F1862F90E068E170E00E94D5
:102190005A2F50E0440F551FEC01C40FD51F8E2F4E
:1021A00090E060E670E00E945A2FC80FD91F612F9F
:1021B000CE0187960E94F72F602FCE018896DF917F
:1021C000CF911F910F910C94F72FDF91CF911F9119
:1021D0000F910895CF93DF93C9E1D2E060E0CE0183
:1021E0000E94F72F2196C11584E0D807B9F7DF9137
:1021F000CF910895CF9384E090E00E94E32FC82F01
:1022000082E290E00E94E32F982F8C2FCF910895C7
:1022100083E290E00E94E32F863989F484E290E023
:102220000E94E32F893B59F485E290E00E94E32F5E
:1022300091E08E3B09F090E0892F8170089580E055
:10224000FCCF0F931F93CF93DF93282F862B8430DF
:1022500050F54C3040F5862F90E068E170E00E9428
:102260005A2F50E0440F551F8C01040F151F822F69
:1022700090E060E670E00E945A2F080F191FC80115
:1022800087960E94E32FC82FD0E0DC2FCC27C8010F
:1022900088960E94E32F9E01282BC901DF91CF91E0
:1022A0001F910F91089590E080E0F8CF462F672F9F
:1022B0002091630230916402232B41F4982F972BD5
:1022C000943020F44C3010F40C94211190E080E014
:1022D0000895DF92EF92FF920F931F93CF93DF93B6
:1022E0007C010091F5028091F402082BC7E0D0E058
:1022F00010E0DC2EC8010C2E02C0959587950A943B
:10230000E2F780FD0CC02197A0F7D12C8D2DDF9135
:10231000CF911F910F91FF90EF90DF900895B7013B
:102320008C2F0E9456110E94B605019761F3EECFE3
:10233000CF93DF93D82FC92F0E9469116D2F7C2F67
:102340000E945611DF91CF910C94B605FC01868155
:102350009781009721F00E94B6050C946804808153
:1023600091810E949811F9CF1F93CF93DF93182F7B
:10237000D92F662391F0442381F00E946911C82F60
:10238000682F812F9D2F0E949104612F7D2F8C2F0C
:10239000DF91CF911F910C9456110E94C504C82F54
:1023A000F4CFFC01462F86819781009729F4628142
:1023B000808191810C94B41108950F931F93CF9352
:1023C000DF9303EA13E0C7EAD1E0CE010E94E32FD6
:1023D000F80161918F01681719F0CE010E94F72F63
:1023E0002196C93CF1E0DF0781F7DF91CF911F9182
:1023F0000F9108950F931F93CF93DF9303EA13E098
:10240000C7EAD1E0CE010E94E32FF80181938F014A
:102410002196C93CF1E0DF07A9F7C3EDD5E0FE0145
:1024200085919491009711F0FC0109952896F6E0AA
:10243000CB36DF07A1F7DF91CF911F910F91089560
:10244000E3EAF3E0128E138E8FEA90E091838083AB
:1024500085E0848F88E893E1938382834CE251E0A6
:102460005583448322E330E03783268385E090E080
:10247000918780878AE090E09387828764E170E0AB
:10248000758764875787468744E650E0518B408BB9
:1024900048E050E0538B428B48E250E0558B448B30
:1024A000378B268B28EC30E0318F208F158E978F5D
:1024B000868F80E590E091A380A30E94DD110C94AB
:1024C000FA111092F60280911501E6E8F1E08823F6
:1024D00059F08091F10287FF07C08EE1DF011D9264
:1024E0008A95E9F70C94030B86E0F8CF1F93CF93FE
:1024F000DF93CDB7DEB7AA970FB6F894DEBF0FBE55
:10250000CDBF87EA91E0FC0101962091F100208384
:1025100021E08F3A9207B9F78091A801893009F438
:1025200056C0C8F4823009F4B0C0833009F47FC0CB
:10253000813071F18091E80083FF8BC28091A70107
:102540009091A8019A3008F084C2E92FF0E0EF5A88
:10255000FF4C0C94932F8A3009F486C08B3051F7CE
:102560008091A701813231F78091AB019091AC014C
:10257000892B01F78091E800877F8093E8000E9413
:10258000E10B8091A901809315010E946112D2CFC5
:102590008091A701813A71F68091E800877F80934E
:1025A000E8008091AB019091AC01892B61F460E26D
:1025B00082EB91E070E00E94880B8091E8008B77BD
:1025C0008093E800B7CF60E090E080E0F3CF8091A7
:1025D000A701813209F0AECF8091AB019091AC019F
:1025E0008D7F892B09F0A6CF8091E800877F8093AB
:1025F000E8008091E80082FF15C08091F2008230EF
:1026000029F48091F1008B7F813021F48091F100D9
:102610008093D2018091E8008B778093E8000E943C
:10262000E10B88CF809166028111E3CF83CF809147
:10263000A701813A09F07ECF8091AB019091AC0166
:10264000892B09F077CF8091E800877F8093E8009D
:102650008091E80080FFFCCF809115018093F1000C
:102660008091E8008E77D9CF8091A701813209F05F
:1026700061CF8091E800877F8093E8000E94E10BA2
:102680008091AA018093A60155CF8091A701813A3C
:1026900009F050CF8091E800877F8093E800809117
:1026A000E80080FFFCCF8091A601D8CF803899F058
:1026B000823809F0CEC18091AB018F70853008F06F
:1026C000C8C18093E9008091EB0085FB882780F9E1
:1026D0001092E90006C0809140029091650291112C
:1026E00082609091E800977F9093E8008093F100DA
:1026F0001092F1008091E8008E77A7C1882309F439
:1027000095C1823009F0A5C18091A901811198C1BC
:102710008091AB018F702FEF280F243008F099C102
:102720008093E9002091EB0020FF8AC1933031F4BF
:102730008091EB0080628093EB0082C19091EB006E
:1027400090619093EB0021E030E001C0220F8A9568
:10275000EAF72093EA001092EA008091EB0088608B
:10276000EACF811176C11091A9011F778091E30012
:102770008078812B8093E3008091E800877F8093AD
:10278000E8000E94E10B8091E80080FFFCCF80917F
:10279000E30080688093E30082E0111183E080937E
:1027A000660257C18058823008F053C14091A90198
:1027B0005091AA014C3D83E0580799F583E08A8344
:1027C0008AE289834FB7F894DE01139620E03EE059
:1027D00051E2E32FF0E050935700849120FF03C0B3
:1027E00082958F703F5F8F708A30C8F0895C90E06F
:1027F0008D939D932F5F243161F74FBF8091E80047
:10280000877F8093E8006AE270E0CE0101960E9423
:10281000880B8091E8008B778093E8001AC1805D77
:10282000E6CF8091AB019091AC01252F3327233067
:10283000310509F44AC078F52130310509F486C024
:102840008BE590E0E2E9F1E02230310509F001C1C9
:102850002091E800277F2093E8002091AD0130917E
:10286000AE018217930708F49C0140E02115310561
:1028700009F071C041116FC08091E80082FDC9CF9D
:1028800080916602882329F2853019F28091E80050
:1028900083FFF2CFBECF2132310509F448C0223286
:1028A000310509F0D6C08330910508F0D2C0FC0193
:1028B000EE0FFF1FE85DFE4F0190F081E02D8B5D74
:1028C0009E4FDC018C9190E026C0CA0199274230CE
:1028D00031F18330910568F40097B1F0019709F068
:1028E000B8C0EDE2F2E0E4918E2F90E0EDE2F2E08C
:1028F00012C0039709F0ADC0EFEFF1E0E4918E2F25
:1029000090E0EFEFF1E007C0EFE3F2E0E4918E2F0B
:1029100090E0EFE3F2E0009709F49BC099CFEDE17E
:10292000F2E0E4918E2F90E0EDE1F2E0F4CF83301D
:10293000910508F08EC0880F991FFC01E25DFE4FE3
:102940000190F081E02D89E090E082CF82E190E07B
:10295000EDEEF1E07DCF80916602882309F459CF36
:10296000853009F456CF8091E80083FD52CF8091E5
:10297000E80082FD81CF8091E80080FF77CF8091D1
:10298000F20090E02115310519F08830910550F0E2
:1029900041E0089709F040E08091E8008E7780934D
:1029A000E80064CF44914093F10031962150310901
:1029B0000196E8CF803809F04CC08091E800877F0D
:1029C0008093E800809141028093F10093CE8111C1
:1029D00040C01091A9011230E0F58091E800877F96
:1029E0008093E800109341020E94E10B112311F043
:1029F00084E005C08091E30087FDFACF81E08093F9
:102A0000660242E061EC81E00E948B0C42E261ECE4
:102A100084E00E948B0C42E261EC82E00E948B0C0D
:102A200042E260EC83E00E948B0C13C08091A9010C
:102A3000813079F481E0933009F080E08093650281
:102A40001092E9008091E800877F8093E8000E945F
:102A5000E10B8091E80083FF0AC08091E800877F46
:102A60008093E8008091EB0080628093EB00AA964F
:102A70000FB6F894DEBF0FBECDBFDF91CF911F918F
:102A800008950F931F93CF93DF938B01D82FC92FF6
:102A90000E944509A8016D2F7C2F88E090E0DF910E
:102AA000CF911F910F910C940930EAEEF2E083E090
:102AB000808311828FEF82838383148263E070E0CE
:102AC0008FEF9FEF0C944115CF93DF9300D000D090
:102AD000CDB7DEB78091EE02833018F48F5F80931C
:102AE000EE028091EA029091EB02A091EC02B0918B
:102AF000ED0289839A83AB83BC83BC01CD010F9027
:102B00000F900F900F90DF91CF910C944115CF93C0
:102B1000DF9300D000D0CDB7DEB78091EE028823DE
:102B200019F081508093EE028091EA029091EB02BD
:102B3000A091EC02B091ED0289839A83AB83BC83B0
:102B4000BC01CD010F900F900F900F90DF91CF91AE
:102B50000C944115EF92FF920F931F93CF93DF9345
:102B600000D000D000D00F92CDB7DEB7082FF62EE0
:102B7000142FE22E8091EA0280FF47C0E82FE695ED
:102B8000F0E0EC5CFE4F90819093E8028E7F823003
:102B900079F59E012F5F3F4F802F0E94B2084B8135
:102BA00069818A810E94710F0093EB02F092EC021E
:102BB0001093ED02EE2049F18091EA029091EB0230
:102BC000A091EC02B091ED028C839D83AE83BF8314
:102BD000BC01CD0127960FB6F894DEBF0FBECDBF66
:102BE000DF91CF911F910F91FF90EF900C944115C1
:102BF000923019F41091ED02D7CF963019F400916C
:102C0000EB02D2CF993081F6FACF27960FB6F8941F
:102C1000DEBF0FBECDBFDF91CF911F910F91FF900F
:102C2000EF900895EAEEF2E0818121E04381628134
:102C3000885F0C94AA15EAEEF2E0818121E04381DD
:102C4000628188500C94AA15EAEEF2E0628128E0D5
:102C5000620F08F46FEF21E0438181810C94AA1583
:102C6000EAEEF2E0628128E0621B08F460E021E015
:102C7000438181810C94AA15EAEEF2E0438128E0B9
:102C8000420F08F44FEF21E0628181810C94AA1574
:102C9000EAEEF2E0438128E0421B08F440E021E044
:102CA000628181810C94AA1590E080E00E94F12F4E
:102CB0008A3E9E4F11F40C94081180E00895CF9243
:102CC000DF92EF92FF920F931F93CF93DF93CDB7D5
:102CD000DEB72A970FB6F894DEBF0FBECDBFE8ED82
:102CE000F1E080E5DF011D928A95E9F7EBE6F3E07C
:102CF00088E3DF011D928A95E9F788EDC82E81E00F
:102D0000D82E7F0109EC11E0F701D182C0824AE0A0
:102D100050E0B801CE0101960E94D32F88E0FE0159
:102D20003196D60101900D928A95E1F789859A85B1
:102D3000D70113969C938E931297BAE0CB0ED11CB9
:102D4000E7E0EE0EF11C065F1F4F0931F2E01F07AE
:102D5000D9F62A960FB6F894DEBF0FBECDBFDF912D
:102D6000CF911F910F91FF90EF90DF90CF9008953A
:102D70008F929F92AF92BF92CF92DF92EF92FF928B
:102D80000F931F93CF93DF93CDB7DEB72A970FB67C
:102D9000F894DEBF0FBECDBF8090610290906202BA
:102DA00081E090E09093620280936102F12CE12C2B
:102DB000C70160E370E00E945A2F8C01B12C15C04E
:102DC000F601259134914A2D6B2D8E2D0E94AF1066
:102DD00022E0C20ED11CA3943CE0A312F1CF045F09
:102DE0001F4FB39484E0B81649F0C801880F991FAB
:102DF000DC01AD5BBD4F6D01A12CE2CFBFEFEB1A43
:102E0000FB0A24E0E216F10499F60E942012FE016A
:102E100031968AE0DF011D928A95E9F709EC11E00D
:102E20007F014AE050E0B801C7010E941B30065FF5
:102E30001F4F0931B2E01B07A1F790926202809206
:102E400061022A960FB6F894DEBF0FBECDBFDF91A8
:102E5000CF911F910F91FF90EF90DF90CF90BF9097
:102E6000AF909F908F90089580E00E94971060E04F
:102E700086E290E00E94F72F0E94B8160E94EA10A6
:102E800081E00C9497106AEE7EEF90E080E00E9463
:102E9000153060E082E090E00E94F72F60E083E070
:102EA00090E00E94F72F1092F40260E084E090E03E
:102EB0000E94F72F60E082E290E00E94F72F60E02E
:102EC00085E090E00E94F72F60E086E090E00E94AD
:102ED000F72F6FEF87E090E00E94F72F40E050E07F
:102EE000BA0188E090E00E94093060E08DE090E057
:102EF0000E94F72F40E050E0BA0188E190E00E9484
:102F0000093060E087E190E00E94F72F40E050E058
:102F1000BA018CE190E00E94093070E060E080E24C
:102F200090E00E94153040E050E0BA0188E190E066
:102F30000E94093080E00E9497100E94341740E000
:102F400050E0BA018FE090E00E94093040E050E08C
:102F5000BA0183E190E00C940930CF93DF9300D065
:102F600000D0CDB7DEB79091EA0290FF4CC0882325
:102F7000E1F18F30E0F58F77880F9091EA02917040
:102F8000892B8093EA02662381F08091EA02909176
:102F9000EB02A091EC02B091ED0289839A83AB839E
:102FA000BC83BC01CD010E9441156091EA02669587
:102FB00070E041E050E080E091E00E94A92F892B71
:102FC000C1F01092E90281E08093480220E0409134
:102FD000ED026091EC028091EB020F900F900F9048
:102FE0000F90DF91CF910C94AA1581E0C5CF8EE0B0
:102FF000C3CF81E08093E9020E94FB0990934602CF
:1030000080934502E0CF0F900F900F900F90DF91CB
:10301000CF9108958091EA0286958F5F8F3008F0F6
:1030200081E061E00C94AD179091EA0296958FEFE4
:10303000890F913009F48EE061E00C94AD17909106
:10304000EA0290FF07C09695981720F0961710F4A3
:103050000C940A1861E00C94AD178F929F92AF9276
:10306000BF92CF92DF92EF92FF920F931F93CF9375
:10307000DF93CDB7DEB728970FB6F894DEBF0FBE4B
:10308000CDBF7C01DC019C9111968C911197139618
:103090002D913C91232B21F089238F3F09F03EC6CF
:1030A00028960FB6F894DEBF0FBECDBFDF91CF914B
:1030B0001F910F91FF90EF90DF90CF90BF90AF9056
:1030C0009F908F900895C80182519F45409708F0C6
:1030D000C1C58FEF93E00E94E32F025139E1A32E87
:1030E00032E0B32E882351F18091F9028770C1F24A
:1030F000F70182818823A1F282E028960FB6F89426
:10310000DEBF0FBECDBFDF91CF911F910F91FF901A
:10311000EF90DF90CF90BF90AF909F908F900C94E6
:10312000560BA114B4E0BB06F9F2C5010E94E32FCF
:10313000811101C00150EFEFAE1ABE0A0111F1CFAB
:103140008091180190911901A0911A01B0911B0171
:1031500089839A83AB83BC8385010F5F1F4FC501B1
:103160000E94E32F89831A82882309F4BDCF81301E
:1031700009F045C06501F2E0CF0ED11CC8010E94E4
:10318000E32F082F8A83882309F4AECFC6010E945B
:10319000E32F182F8FEF800F833068F4650123E051
:1031A000C20ED11C1B83112321F0CE0101960E9477
:1031B000030E5601D1CF0430E1F7650144E0C40E9F
:1031C000D11CC50103960E94E32F112309F48CCF73
:1031D000882309F489CF8150990B6FEF70E00E942A
:1031E0005A2FA12FA150BB0B8A0F9B1F019708F3E9
:1031F000EFE9FFE03197F1F700C00000F7CFCE0113
:1032000001960E94030E6801D4CF81E00E94280B32
:103210000E94800C69CF81E00E944A0BF9CF82E0C6
:10322000F5CF80911601816080931601F7013281FC
:10323000332309F489C51092E6020631FCE51F0725
:1032400008F0B7C002302CE5120708F4BDC00E9498
:10325000FA109093F2028093F10206314CE51407C4
:1032600008F0D7C002305CE5150708F0C5C06091D2
:10327000F1021091F20284E090E00E94F72F612F9A
:1032800082E290E00E94F72F0E9461122DCF809180
:1032900016018E7FC9CF0933110560F40D32110577
:1032A00020F40B32110509F01CC58091BE0382FD8C
:1032B00018C508C004361105C1F313C58091BE03BB
:1032C00084FD0FC5D70112968C91882309F446C05E
:1032D0008091160180FF05C59091BE0391FD04C049
:1032E0002091F6022111FDC495FF27C02091E40230
:1032F0003091E502F601E21BF30B9F0196FD02C03F
:1033000081FD1BC0283C3105C0F42091E2023091C0
:10331000E3020217130789F481FD09C0802F0E9480
:10332000C90CE2CE8091BE0383FDDBC4CBCF80917C
:10333000F80282608093F802F1CF1093E3020093C9
:10334000E202D092E502C092E4028091160184600C
:103350008093160182E00E94560BC6CE40E0B60173
:10336000C8010E947E0DC0CE053F5CE51507D1F077
:1033700027E245EE66EE063F9CE5190741F027E29D
:1033800045EE64EE043FACE51A0709F04FCF0E940A
:10339000AA0EAACE27E245EE65EEF9CF26E241EE6F
:1033A00060EEF5CF26E241EE62EEF1CF28E241E099
:1033B000F3CFC8018A5F9C45099708F448CF0631CE
:1033C000BCE51B0709F4C4C48091F6028272063D75
:1033D0009CE5190708F0C2C0023CACE51A0708F4E6
:1033E000C9C0F801E35CFC45E331F10508F005C113
:1033F000E55AFF4C0C94932FF801E350FC45809163
:10340000F1028160E331F105B8F4E259FF4C0C940C
:10341000932FC8018A5F9C45099708F028CFF801CF
:10342000EB5FFC45E830F10590F4EF57FF4C0C944E
:10343000932F8091F10282608093F10218CF8091E6
:10344000F1028460F9CF8091F1028860F5CF80911C
:10345000F20281608093F2020ACF8091F2028260D0
:10346000F9CF8091F1028061E7CF8091F102806213
:10347000E3CF8091F1028064DFCF0E9461128091DE
:10348000F1028068D9CF8091F1028C60D5CF809114
:10349000F2028360DFCF8091F1028E7FCDCF8091E9
:1034A000F1028D7FC9CF8091F1028B7FC5CF8091D2
:1034B000F102877FC1CF8091F2028E7FCBCF8091C6
:1034C000F2028D7FC7CF8091F1028F7EB5CF8091C0
:1034D000F1028F7DB1CF8091F1028F7BADCF0E9441
:1034E00061128091F1028F77A7CF8091F102837FE3
:1034F000A3CF8091F2028C7FADCF8091F10282FB4D
:10350000992790F921E0922790FB82F990FB83F9AB
:1035100093CF8091F202982F909591708E7F892B96
:1035200090FB81F997CF0E9461129091F102892F4F
:1035300097FB87F9805880CF61E08EE090E00E9491
:10354000F72F95CE60E0F9CF8091E702811104C09A
:1035500089E20E94330527C485E3FBCF0D351007B0
:1035600009F4C2CD81E00A35EDE51E0709F4C3C0B8
:1035700008F0B2C001152CE5120709F4BFC00E3DDA
:103580001C4509F4C8C0D70116968D919C910097EF
:1035900009F4C6C00E94B605182F092FD70112964C
:1035A000CC9012971596DC90D2942FE0D222809185
:1035B000F9028770A1F0AC2CCC2091F0892F807F8C
:1035C000803421F080E2810F883048F082E00E9450
:1035D000560B8091F9028770AA24A3948111A12C23
:1035E000802F82958F70882E912C8C3008F0E4C04B
:1035F000F401E757FF4C0C94932F8091EA0280FF6F
:1036000021C08E7F8093EA028091EA029091EB02C2
:10361000A091EC02B091ED028D839E83AF83B887B9
:10362000BC01CD010E9441151092E9029FEFA0E775
:10363000B2E09150A040B040E1F700C000000E940D
:10364000120F52CD81608093EA0261E086950E945C
:10365000AD174ACD44E158E16AE078E10E9454098F
:1036600043CD4AE058E164E178E1F8CF4BE156E11F
:1036700062E176E1F3CF42E156E16BE176E1EECF34
:1036800040E356E164E276E1E9CF44E256E160E3EB
:1036900076E1E4CF48E456E16CE376E1DFCF4CE33A
:1036A00056E168E476E1DACF47E855E164E675E192
:1036B000D5CF44E655E167E875E1D0CF61E081E020
:1036C000C6CF65E082E00E941F180ECD68E086E05C
:1036D000FACF6EE089E0F7CF0B355DE51507F1F025
:1036E0000C351D4509F04FCF8091F20282FB8827EF
:1036F00080F991E089270E947D1045CF0E946112D8
:103700009FEFA4E3BCE09150A040B040E1F700C0BF
:1037100000000E94C50F0E944317E6CC80E0EBCF6B
:10372000F7018281C080D180882369F0C6010E94A0
:103730006911182F682FC6010E949104B601812FCC
:103740000E94561127CFC6010E94C504182FF6CF3C
:10375000B02FBF70BB2E802F807F19F0B29490EFF6
:10376000B922CC20C9F0BB2069F080E2810F8830FB
:1037700010F011110BC08091F6028B298093F60294
:103780000E94220A812F0E94C90C16C08091F80263
:103790008B298093F802F4CF812F0E94AD0ABB20C1
:1037A00059F080E2810F883010F0111146C08B2D46
:1037B0000E9460050E94220AA8E08A1A9108B4E0DB
:1037C0008B16910410F40E94C309812F902F0E9440
:1037D0006804811122C21092C6031092C503AA2068
:1037E000B1F08091F90280FD12C0D70112961C92AF
:1037F0008595859585950E94280BC7010E942D18F7
:103800008091F9028595859585950E944A0B60E027
:10381000C70128960FB6F894DEBF0FBECDBFDF916B
:10382000CF911F910F91FF90EF90DF90CF90BF90BD
:10383000AF909F908F900C94D111B0948091F8022A
:103840008B218093F802B6CFE02FEF70BE2E802F31
:10385000807F803219F0B29480EFB8221123E9F012
:10386000113009F46AC0CC2009F473C0DD2009F4DA
:1038700041C040E0D70112966C9112978D919C91B6
:103880000E94B4118091C00381FD7CCFF701858136
:1038900080FF78CF8F7085832DC0CC2069F1D11047
:1038A00006C08091F3028B290E94760A85CFF1E051
:1038B000DF1213C08091F20282FD7ECF8091F3026D
:1038C000B82AB81609F478CF0E94FB099093F00249
:1038D0008093EF02B092F3026FCF8091BF038230EA
:1038E00000F3D812DECF0E9468058091F702B8126B
:1038F000B092F7028B2DD8CFD11006C00E94680578
:103900008B2D0E94800A58CF8091BF0321E0D212F4
:103910000FC0823008F450CF8091F6028B2109F459
:103920004BCF8091F702882349F31092F702E6CF3C
:10393000823020F3D812E2CF3FCFCC2029F045E0EF
:103940004D1508F439CFD6CF54E05D1508F434CFC7
:10395000D7CFDD20A9F28091C3039091C40319331E
:1039600021F08091C1039091C2030E94BB0C812F72
:103970000E94AD0A21CF802F86958695837069F0CD
:10398000813009F019CF812F902F9370C11002C0A0
:1039900090E080E00E94E5090FCF812F902F937077
:1039A000C11002C090E080E00E94CF0905CF812FB6
:1039B000CC2039F00E94EB070E94870A0E94870AF8
:1039C000FBCE0E943D08FACF802F8370A9F5C1106D
:1039D000F3CE812F829586958770880F880F412FAF
:1039E0004F70082E01C0440F0A94EAF7212F20716E
:1039F00014FF07C02FE030E001C0220F8A95EAF7DC
:103A00002095902F969596959370923081F0822F05
:103A1000842B933031F08091F402913029F0242BE3
:103A200082230E94200BC8CE842B822BFACF242B1A
:103A30008091F4028227F5CFCC2069F100FFBCCE43
:103A4000812F829586958770880F880F412F4F7040
:103A5000082E01C0440F0A94EAF7212F207114FFA9
:103A600007C02FE030E001C0220F8A95EAF72095C9
:103A7000902F969596959370923099F0822F842B83
:103A8000933031F08091F502913041F0242B822364
:103A90000E94240B91CE01FF8FCED2CF842B822B9C
:103AA000F7CF242B8091F5028227F2CFF02FFF7001
:103AB000BF2ECC2029F08F2F0E94280B812FF4CE0F
:103AC000812F0E94800A8B2D0E944A0B75CE123FD7
:103AD00009F44FC068F4103F69F1113F09F441C087
:103AE000CC2009F495C0D1104DCE802F8F713EC0EF
:103AF000133F09F443C0143F99F72091BF032230CC
:103B000008F46FC08091F702CC2009F452C00E94E3
:103B100060058091F90287708430E1F51092F90216
:103B20001092FB021092FA02802F8F710E944A0BB2
:103B3000A12C42CECC2081F024E02D1508F43CCEFF
:103B4000202F2F7181E090E001C0880F2A95EAF7BD
:103B50009091F50289279CCF45E04D1508F42CCEB5
:103B6000EFCF802F8F71CC2009F4AECF0E94280BAD
:103B700023CE802F8F71CC20C9F3A6CF80E0CC203C
:103B800009F486CF81E0902F9F7101C0880F9A952C
:103B9000EAF77ECF8091BF03D81650F6502F5F71A1
:103BA000B52E852F0E94280B63E08B2D0E94330BCE
:103BB000BFCF9091F602982B9093F602D21668F040
:103BC0001092F9021092FB021092FA0281111092E7
:103BD000F70264E0802F8F71E9CF81E00E94560BDD
:103BE000A7CFCC2051F0802F8F71B82E0E94280BC8
:103BF00063E08B2D0E94330BDFCD81E00E94560BDA
:103C000091E09D1508F0D8CD82E00E94560BD4CDEE
:103C1000D110A1CE802F8F7157CFCC2019F0D110A9
:103C2000DACDDDCDD110D7CD40E0F70162818081C2
:103C300091810E94B4118091C00383FFCCCD80910B
:103C4000C5039091C603029709F0C5CD812F0E944C
:103C5000E00DC1CD0031BFE51B0709F4D6CA013123
:103C6000EFE51E0709F4DBCA8091BE0380FF39C06F
:103C70000E94FB096C01D70112968C91882321F1D7
:103C80008091160182FF06C040E0B60190E080E01E
:103C90000E947E0D8091F8028D7F8093F8020B3197
:103CA000BCE51B0709F4BDCA0C31ECE51E0709F49D
:103CB000EECA90911601892F8E7F90FF81600A31A4
:103CC000FCE51F0709F4B0CA0832110508F0E3CA81
:103CD0000E31110508F026CBC80104974A9708F465
:103CE000EDCAD70112968C91033FBCE51B0709F47E
:103CF00055CB08F039CB083DFCE51F0709F44ACB4A
:103D0000093D2CE5120709F451CB073D4CE514079A
:103D100009F08CCA26E241EE61EE39CB61E0C701C1
:103D20000E94D1118C01D70112968C918111CBC9BF
:103D30000031FFE51F0709F46ECA01312FE51207B4
:103D400009F092CF82E068CA06311C4509F01BCC0D
:103D50008091F602982F9A7A2091BD0320FF04C02B
:103D6000482F447409F090E021FF04C0482F4171AE
:103D700009F090E022FF04C0482F487809F090E055
:103D800023FF03C0827209F090E0332309F4DCCBF7
:103D900081E0911101C080E08093E70289E29111F6
:103DA00085E30E94FF040E94220A9EC9EF92FF92BF
:103DB0000F931F93CF93DF938091C302807F31F4E1
:103DC0008091C002C0917D02811119C0DF91CF9115
:103DD0001F910F91FF90EF9008958091BE029091F6
:103DE000BF022091C1023091C202D0E021153105FD
:103DF00021F0492F48234F3F39F42196C770809115
:103E00007C028C13EACFE2CF8E0143E0000F111F3A
:103E10004A95E1F7F801E258FD4F41819413EDCF47
:103E200090819813EACF82818111E7CFE380F480FB
:103E3000E21AF30A60E08EEB92E00E94D1118091C9
:103E4000BB039091BC03E816F906B8F68091C30253
:103E50008F7080618093C302F801ED57FD4F808120
:103E60008F70806180838EEB92E00E942D18DF912D
:103E7000CF911F910F91FF90EF900C94F5047F92DA
:103E80008F929F92AF92BF92CF92DF92EF92FF926A
:103E90000F931F93CF93DF93CDB7DEB72D970FB658
:103EA000F894DEBF0FBECDBF8C0185E0F801DE01C6
:103EB000199601900D928A95E1F7D801BC90119660
:103EC000AC9011971296EC9012971396CD90DC90CF
:103ED0009091BE028091BF022091C1023091C20236
:103EE0002115310521F089238F3F09F0A6C1EE206D
:103EF00009F4A2C0C8010E94A611F82E882309F473
:103F00009BC088E0F801AEEBB2E001900D928A957B
:103F1000E1F70E94D61E29C160E08EEB92E00E947C
:103F2000D1118091C00380FDC0C1CD2829F08B2D17
:103F30008A218F3F09F0F0C080E0E82FE170DE2E8B
:103F400080FF3DC080917D0220917C02821316C0CB
:103F500089859A850E949811292F22952F70903279
:103F600010F1225F2F70223028F59F7001F1D801E7
:103F700015969C91907FD9F4D12C1FC090E0FC0144
:103F800033E0EE0FFF1F3A95E1F7E258FD4F318124
:103F90003A1106C030813B1103C032813E110FC07F
:103FA00001968770D3CF9F7011F0882329F3805E2C
:103FB000883010F3C8010E942D18FD2CD6C0EE20C9
:103FC00009F4D3C08091C30281608093C302F12CB5
:103FD000CCC0452B29F0282F29232F3F09F0DAC028
:103FE000C8010E94A611882339F1EE2029F18091A1
:103FF000C3028032A0F08091BE029091BF029A83EA
:1040000089831B82DD82CC827E828091C402909162
:10401000C50298878F83CE0101960E942D1888E0F3
:10402000F801AEEBB2E001900D928A95E1F70E94A3
:10403000D61EFF24F39499C0C8010E942D18F9CF11
:10404000872D807F61F48EEB92E00E942D1888E02E
:10405000EEEBF2E0DF011D928A95E9F7B8CF80918F
:10406000BE029091BF022091C1023091C202232B67
:1040700009F4B6CF282F29232F3F09F4B1CFF80137
:1040800021812913ADCFF80190819813A9CF2091F8
:10409000C4023091C502868197812817390709F03B
:1040A0009FCFE1109DCF7582C8010E942D18EEEBC5
:1040B000F2E088E0DF011D928A95E9F756C060E0E2
:1040C0008EEB92E00E94D1118091BB039091BC03D2
:1040D0008816990660F7FE2CEE2009F4ADCF80918A
:1040E000BE029091BF022091C1023091C202232BE7
:1040F00029F0282F29232F3F09F06EC0C8010E9404
:10410000A61181118CCF8091C30281608093C3027C
:10411000C8010E942D1829C081E08E250ECF81E0B4
:104120008E25CCC0F80121812913B2C0F8019081FD
:104130009813AEC02091C4023091C5028681978148
:104140002817390709F0A4C0E110A2C08091C3026A
:104150008F7080618093C3028EEB92E00E942D18D5
:104160008091C302D80115968C938F2D2D960FB692
:10417000F894DEBF0FBECDBFDF91CF911F910F919D
:10418000FF90EF90DF90CF90BF90AF909F908F9077
:104190007F900895D80111962C91291321CFF80111
:1041A000908198131DCF2091C4023091C502868161
:1041B00097812817390709F013CFE11011CF7582C5
:1041C000C8010E942D1888E0F801AEEBB2E0019022
:1041D0000D928A95E1F7C9CFD80111962C91291338
:1041E0008DCFF8019081981389CF2091C40230912E
:1041F000C502868197812817390709F07FCF60E0D3
:104200008EEB92E00E94D1118091C00382FDDBCF42
:104210008091C30280FDD7CF982F907FA1F2D80163
:1042200015968C931597903F59F2982F907F905F39
:104230008F70892B15968C93C3CFF090C0024601E6
:10424000821A930AFF2009F43ACF60E08EEB92E0E5
:104250000E94D1118091BB039091BC037090C30266
:104260008816990608F0ECCE8091BE029091BF02AC
:104270004091C1025091C202272D207F09F0A9CEA2
:10428000FE2C452B29F0282F29232F3F09F04ACF58
:1042900060E08EEB92E00E94D1118091BB0390917F
:1042A000BC03843F914008F437CEC114D10429F0F7
:1042B0008B2D8A218F3F09F032CF80E080FF35CEF1
:1042C00080917D0220917C02821709F42ECE90E02D
:1042D000FC0143E0EE0FFF1F4A95E1F7E258FD4F66
:1042E00031813A1106C030813B1103C032813E1149
:1042F000AACE01968770E8CFCF93DF93CDB7DEB714
:1043000060970FB6F894DEBF0FBECDBF29873A87FE
:104310004B875C876D877E878F87988BCE01099648
:104320000E943F1F811116C088E0FE013996DE0110
:10433000119601900D928A95E1F799858A85A09151
:104340007C0220917D024C855D85452B19F08923E7
:104350008F3FB9F580917D0290917C0289131CC03A
:1043600060960FB6F894DEBF0FBECDBFDF91CF9140
:10437000089533E0AA0FBB1F3A95E1F7A258BD4F4D
:1043800098E0FE01319601900D929A95E1F78093A5
:104390007C020E94F504DECF90E023E0880F991F95
:1043A0002A95E1F782589D4F0E943F1F8823C1F252
:1043B00080917D0290E001968770992780937D021D
:1043C000C9CFB0E0CD01019687709927281719064B
:1043D00081F60E94611210927C0210927D0288E0A8
:1043E000EEEBF2E0DF011D928A95E9F7B3CF1F9360
:1043F000CF93DF9380916803C091D70181111CC0D6
:10440000DF91CF911F91089511E01C0F1093D701F8
:10441000D0E0CE016CE070E00E945A2FFC01E85F12
:10442000FC4F23813481CE01232B29F0208131815F
:1044300023232F3F51F4C12F80916803C81720F325
:10444000109268031092D701DBCF26813781232B8E
:1044500029F4208531852F3F3F4F89F46CE070E0CF
:104460000E945A2FFC01E85FFC4F2081318142817C
:10447000538164817581868197810E947C21CE0160
:104480006CE070E00E945A2FFC01E85FFC4F148240
:104490001382D1CF4F925F927F928F929F92AF9271
:1044A000BF92CF92DF92EF92FF920F931F93CF9321
:1044B000DF93C091070301E010E08EEFA82E88245F
:1044C0008394809106038C1313C00E94F721DF911F
:1044D000CF911F910F91FF90EF90DF90CF90BF9001
:1044E000AF909F908F907F905F904F900C94870932
:1044F0004C2E512CF201EE0FFF1FE450FD4F208196
:104500003181C90167E070E00E945A2FFC01E55932
:10451000FC4F8481811161C090906803A8E0B3E0F2
:10452000F0E0E0E0B12CE91508F054C01A96ED90E7
:10453000FC901B97C90167E070E00E945A2F8559D3
:104540009C4FEC01C880D9808FEF9FEF712C472DD5
:1045500050E0BA01660F771F6C0D7D1DEB0168817D
:1045600079816115710531F0E616F70609F4CA0183
:104570007394EDCF8F3F9807C1F1B80102C0660F69
:10458000771F8A95E2F7B62AC80102C0880F991FE3
:104590007A94E2F70197B816190619F5CF016CE085
:1045A00070E00E945A2FFC01E85FFC4FC90167E0F0
:1045B00070E00E945A2FDC01A559BC4F12968D91D4
:1045C0009C91139797838683A082A182318720874D
:1045D00015968C92C9010E949809E2012196C37038
:1045E00070CF14961C921E92139731961C969BCFF7
:1045F0008F929F92AF92BF92CF92DF92EF92FF92F3
:104600000F931F93CF93DF93CDB7DEB728970FB6E5
:10461000F894DEBF0FBECDBFFE01319688E0DF010A
:104620001D928A95E9F783E4E82E81E0F82E8F0148
:104630004F01CC24C394D12CF70181917F018F3F8E
:1046400009F44BC0F894E82FE295EF70F0E021A157
:104650008F70A60102C0440F551F8A95E2F7CA0168
:10466000922F982B91A392A18095892382A378946D
:1046700000C0E7E4F1E030E020E0B12CA12C819112
:104680008F3F09F465C0A82FA295AF70A05EB0E07F
:104690004C9150E08F7002C0559547958A95E2F78E
:1046A00040FD56C0C601022E02C0880F991F0A9411
:1046B000E2F7A82AB92A2F5F3F4F2C303105F9F6CF
:1046C000F701319780818F3F11F00E94480750EA2F
:1046D0005A95F1F7D801AD92BC920E5F1F4FB7E427
:1046E000EB16B1E0FB0609F0A7CF48E050E0B401BB
:1046F00082E792E00E94B62F9C0111E0892B09F419
:1047000010E0232B41F188E0F401A2E7B2E0019030
:104710000D928A95E1F781E0809369020E94FB097E
:10472000909368028093670280916702909168027B
:104730000E94760B059798F088E0E2E7F2E0AAE69F
:10474000B2E001900D928A95E1F71092690207C0DC
:1047500080E090E0AECF809169028111E5CF809139
:1047600017018823F9F08091690390916A030097FB
:10477000C9F00E94760B209104033091050328179D
:10478000390780F490910703809106039817F1F19F
:104790000E944A22109205031092040310926A03A9
:1047A000109269038091BE0380FF1CC080911601A6
:1047B00082FF18C00E94FB09BC018091E402909125
:1047C000E5029B01281B390B809113019091140184
:1047D0002817390738F041E08091E2029091E30216
:1047E0000E947E0D812F28960FB6F894DEBF0FBE73
:1047F000CDBFDF91CF911F910F91FF90EF90DF9090
:10480000CF90BF90AF909F908F9008950E94F72116
:1048100010926A03109269030E948709C3CF109215
:104820006A03109269031092170180910603809326
:1048300007030E9487090C94F7212F923F924F9211
:104840005F926F927F928F929F92AF92BF92CF9220
:10485000DF92EF92FF920F931F93CF93DF93CDB729
:10486000DEB76B970FB6F894DEBF0FBECDBF498B96
:104870005A8B262F6B8B7C8B8D8B8C899D89892BFA
:1048800029F0852F84238F3F09F029C2211110922E
:10489000F8021E861F86188A85E0FE017196DE01E9
:1048A000199601900D928A95E1F78091A503909158
:1048B000A603892BC1F00E94FB092091FA023091D6
:1048C000FB02821B930B2091A5033091A603821754
:1048D000930720F08091F90282FFFDC10E94070A30
:1048E00081110E94680589859A852C853D85232B39
:1048F00021F089238F3F09F0DAC129853A854B855C
:104900005C856D857E858F8598890E947C21C7C0D6
:1049100038EFC3163CE5D30629F4882379F00E94CA
:104920000F24EBCF69EFC6166CE5D60639F4882361
:1049300029F0809117018111F2CFC9C10BE613E074
:10494000512C912C812C22242394312C8EEF482E33
:10495000F80140815181AA24AA94BB24BA9420E092
:10496000822F90E0FC01EE0FFF1FE40FF51F608126
:1049700071816115710531F0C616D70609F45C0125
:104980002F5FEECFF12CFFEFAF16BF0609F448C042
:10499000F8014481F09017018F2D411180E0F82F2C
:1049A000F170FF2EF801E58086819B85992309F43B
:1049B00011C1FF2009F40EC16090B9037090BA03D1
:1049C000E11012C0A10101C0440FAA94EAF7842BA0
:1049D000868380910403909105038615970520F442
:1049E0007092050360920403C10102C0880F991FF1
:1049F0002A95E2F70197F80126812817190681F414
:104A00008091690390916A03009709F461C00E9444
:104A1000760B6816790608F05BC031E0F801348344
:104A20005F28FFEF8F1A9F0A095F1F4F38E0831638
:104A3000910409F08DCF8B85882309F423C155207B
:104A400009F420C10E94FB0990936A0380936903D3
:104A500080916803883018F591E0980F909368036F
:104A600098E0FE013996DE01119601900D929A951B
:104A7000E1F790E06CE070E00E945A2F885F9C4F55
:104A800028E0FE013196DC0101900D922A95E1F7B4
:104A90002FEF3FEFFC0131872087D386C2866B96CC
:104AA0000FB6F894DEBF0FBECDBFDF91CF911F913F
:104AB0000F91FF90EF90DF90CF90BF90AF909F90BD
:104AC0008F907F906F905F904F903F902F900895C0
:104AD00020910703E0910603EE8B322FE0E0F0E037
:104AE0000B8FE12E6E89261315C0309307030E1726
:104AF0001F0709F495CF30E0F901EE0FFF1FE450D6
:104B0000FD4F918280822F5F3F4F23703327209388
:104B1000060386CFA22EB12CF501EE0FFF1FE45045
:104B2000FD4F8081918167E070E00E945A2FDC0187
:104B3000A559BC4F6D917C9111977A8F698F40E098
:104B400080E090E0E92FF0E0EE0FFF1F698D7A8D95
:104B5000E60FF71F6080718061147104E1F0F801C5
:104B60000190F081E02DF88FEF8B80E005C0661694
:104B7000770609F44F2D8F5FE82FF0E0EE0FFF1F4F
:104B80006F89788DE60FF71F60817181611571055E
:104B900071F79F5FD7CF4423D1F0EB8DFE2D89179E
:104BA00008F0FD0161E064830E171F0721F43093C4
:104BB0000703F42E35CF231305C0AE17BF0711F43A
:104BC0003F5F3370C5010196282F23708BCFE0E043
:104BD000F0E0F8CF90E0E1101FC0F10102C0EE0F4D
:104BE000FF1F2A95E2F79F01215031098217930791
:104BF00031F4442309F444C0C4010E949809C1015E
:104C000001C0880FAA94EAF7982F9095F801868141
:104C100089238683FE2C04CFAC010A2C02C0559553
:104C200047950A94E2F79C0121503109822393238E
:104C3000892B11F540FF20C0F80182819381892BD7
:104C4000C1F01B821C821D821E8249824A820E9400
:104C5000FB098160582F692F9D838C83F801828125
:104C600093818F83988729813A814B817E810E942D
:104C70007C21F8011582C3CFF42FF170EF2EBFCF46
:104C8000EF2CBDCF9091070380910603981731F068
:104C90000E944A22552009F430CE01CF0E94F7210C
:104CA00010926A03109269030E948709F3CF61E0B2
:104CB000CE0109960E94D1116C018B8577EFC71642
:104CC0007CE5D70609F024CE882309F437CE81E0AD
:104CD0008093170112CE82E00E94560BFFCD809187
:104CE000C5039091C60301969093C6038093C503B4
:104CF000CDCDCDB7DEB7AF970FB6F894DEBF0FBE00
:104D0000CDBF84B7877F84BF0FB6F894A8958091F4
:104D10006000886180936000109260000FBE80E8A0
:104D200090E00FB6F89480936100909361000FBEFD
:104D300086E497E090938301809382010E945F163E
:104D40000E94FA111092E2001092E1008091E000BE
:104D500081608093E0008091D8008F778093D800A5
:104D600019BC8091630081608093630010924202BD
:104D7000809163008E7F8093630081E08093420284
:104D80001092E2001092E1008091D8008F7780931A
:104D9000D8008091D80080688093D8008091D80096
:104DA0008F7D8093D80084E089BD86E089BD89B578
:104DB000282F21702FA780FFFACF10926602109241
:104DC0004102109265021092400242E060E080E0F1
:104DD0000E948B0C8091E1008E7F8093E100809196
:104DE000E20081608093E2008091E200886080931D
:104DF000E2008091E0008E7F8093E0008091E200ED
:104E000084608093E200789480916602882399F010
:104E10008091E9001091EC001795112717958F707C
:104E2000182B1092E9008091E80083FD0E94761211
:104E30001F701093E90082E084BD93E095BD9AEF66
:104E400097BD80936E000E940811811102C00E94DC
:104E5000341781E90E94480782E90E94480783E9E4
:104E60000E94480784E90E94480707E411E0F3E53F
:104E7000EF2EF1E0FF2ED8018D918D018F3F11F0C3
:104E80000E944807E016F106B1F7109273021092E3
:104E9000720210926B0210926A02109275021092C6
:104EA000740210926D0210926C02109277021092AE
:104EB000760210926F0210926E0210927902109296
:104EC000780210927102109270020E9454168111A1
:104ED00002C00E94431782E090E00E94E32F80937B
:104EE00050020E94FA109093F2028093F1020E9405
:104EF000F822EFE3FCE93197F1F700C000000E94CF
:104F0000F82280916A0280FF08C06FEF7FEF90E087
:104F100080E00E9415300E94C50F83E090E00E945F
:104F2000E32F0E94200B80914302811133C00E9425
:104F30005416811104C00E9443170E94551588E041
:104F400090E00E94EB2F6093EA027093EB02809353
:104F5000EC029093ED026E7F71F40E94551588E08B
:104F600090E00E94EB2F6093EA027093EB02809333
:104F7000EC029093ED020E9445091092E9028091A3
:104F8000EA0280FF04C060E086950E94AD1781E0D0
:104F90008093430285E091E090937B0280937A02B4
:104FA000E2E72E2EE2E03E2E8E010F5F1F4F809132
:104FB000660264E0E62E76E0F72E853009F465C1DE
:104FC0000E94F822882359F08FB7F89440915D022F
:104FD00050915E0260915F02709160028FBF5AE64D
:104FE000C52E52E0D52EE1E5F2E0D601F12CE12C00
:104FF0007E2D8D919D91219131912817390709F4CA
:1050000054C12827392760E0AA24A394B12CA90110
:105010004A215B21452B09F442C169837A839C01B3
:105020002A213B2191E0232B09F490E09B830E94ED
:10503000FB098160782F9D838C8349815A816B8124
:10504000892F0E941D24F701EE0FFF1FEF5AFD4F1D
:10505000808191818A259B25918380838091E902BB
:105060008823D1F18091E802E091EA02E695E81BFD
:10507000E0934702823009F031C1F0E0E753FA4F84
:10508000E491EE2EF12CB1EAAB2EBFE0BB2E809165
:105090004802882361F0109248020E94FB09909315
:1050A00046028093450210924A02109249020E94E1
:1050B000FB092091450230914602821B930B8F3FE2
:1050C0009F4750F42E0D3F1D30934602209345021A
:1050D00085E492E0F501099586E0ECEDF2E0D80177
:1050E00001900D928A95E1F7A090DE02B090DF0268
:1050F000E090E002F090E1021092DE021092DF02F6
:105100001092E0021092E1028A2D8B2991F0809199
:105110004D0290914E020E94760BFC012091DB0221
:10512000222309F4FFC0809112018E171F0608F494
:1051300008C18E2D8F2991F080914B0290914C02E5
:105140000E94760BFC012091DA02222309F43CC173
:10515000809110018E171F0608F445C18091DE0270
:105160009091DF02892B9091E002892B9091E102CE
:10517000892B11F00E94870A86E0F801ACEDB2E0BD
:1051800001900D928A95E1F70E94C30990914F0218
:10519000891721F00E94C30980934F028091660213
:1051A000843009F004CF83E08093E9008091E80027
:1051B00082FFFDCE8091E80090E085FF0AC00E944A
:1051C000000C60E2E62EF12C5801882309F458C146
:1051D0009FA58091E8008B778093E800992309F4DC
:1051E000E6CEE0906302F0906402E981E114F104FC
:1051F00009F454C1EE3F09F087C18A81833020F061
:105200008550833008F080C1EA81EE3008F07CC11F
:10521000F0E0EB56FF4C0C94932F809166028430A3
:1052200021F11092440228E130E040E40FB6F894F6
:10523000A895209360000FBE4093600083B7817FE4
:10524000846083BF83B7816083BF7894889583B778
:105250008E7F83BF0FB6F894A89580916000886117
:1052600080936000109260000FBE809165028823D9
:1052700061F00E94F822EAE6F2E081919191892B97
:1052800009F07DC42E163F06C1F780916602853075
:1052900009F4C3CF0E9461120E94C30991CE6F5FCF
:1052A000AA0CBB1C6C3009F0B2CE5FEFE51AF50A10
:1052B00084E0E816F10409F09BCE8FEF89A38AA35E
:1052C0001BA20E94FB098160782F9DA38CA349A19A
:1052D0005AA16BA1892F0E941D24C0CE863059F49B
:1052E000F0E0EA53FA4FE491EE2EF12CA5EBAA2E52
:1052F000AFE0BA2ECCCE893061F4E695F0E0ED5304
:10530000FA4FE491EE2EF12CF7E4AF2EFFE0BF2E22
:10531000BECE70EDE72E77E0F72EE1E6AE2EE7E0A9
:10532000BE2EB5CE8091110190E06AE070E00E943F
:105330005A2F8E179F0708F0FCCE2F5F2093DB02B9
:1053400002C02F3FD1F7AA2051F00E9462076FEFF1
:105350001A140CF461E00E94512F8093DE02BB20EE
:1053600051F00E9462076FEF1B140CF461E00E9481
:10537000512F8093DF028091DE02882309F4D9CE79
:105380002091DF02222309F4D4CE082E000C990BC1
:1053900065EB70E00E945A2F992371F09093DE0222
:1053A000822F220F990B65EB70E00E945A2F9923F0
:1053B00039F09093DF02BDCE81E08093DE02F0CF22
:1053C00081E08093DF02B5CE80910F0190E06AE02A
:1053D00070E00E945A2F8E179F0708F0BFCE2F5FF4
:1053E0002093DA0202C02F3FD1F7EE2051F00E9445
:1053F000B0076FEF1E140CF461E00E94512F8093F0
:10540000E002FF2051F00E94B0076FEF1F140CF470
:1054100061E00E94512F8093E1028091E00220918F
:10542000E102882309F49ACE222309F497CE082EAC
:10543000000C990B65EB70E00E945A2F992371F0D4
:105440009093E002822F220F990B65EB70E00E948F
:105450005A2F992339F09093E10280CE81E0809316
:10546000E002F0CF81E08093E10278CE8091F100FC
:10547000D5018D935D01B1E0EB1AF10809F4A8CED6
:105480008091E80085FDF2CF8091E8008B778093D2
:10549000E8000E94000C882399F39ACEE43150F47E
:1054A000EE2359F0E150E33140F4F0E0ED55FF4CCC
:1054B0000C94932FEE3F09F4A7CE8FEF8CC31A8282
:1054C00089E08B8321C08A81823009F4A6C38330AE
:1054D000F9F0813091F78FB7F89420915D02309107
:1054E0005E0240915F02509160022BA73CA74DA73E
:1054F0005EA78FBF6BA57CA58DA59EA50E94992F49
:105500006B837C838D839E83C8010E945B0C4FCD8F
:105510008091610290916202892BB1F3F801D6016A
:105520008C9111969C91B2E0CB0ED11C9283838317
:10553000329622E7C21622E0D20689F7E5CF8A81A9
:10554000823009F0BACF8B819C81AD81BE818BA75F
:105550009CA7ADA7BEA7BC01CD010E94992F86E2F2
:1055600090E00E94F72FD0CF4C816B818A810E94FE
:1055700021119827892798279E838D83C5CF2D8158
:105580003E813227232732274C816B818A810E94FA
:10559000AF10BACF0E94B816B7CF8A818238D1F146
:1055A000F8F4803831F1813809F0AECF60E08B81BA
:1055B0000E94AD179B818091EA02911123C08E7FDA
:1055C0008093EA021092E9029FEFA0E7B2E09150C7
:1055D000A040B040E1F700C000000E94120F94CF3D
:1055E000833809F091CF20E04091ED026C818B81EE
:1055F00006C020E04B816091EC028091EB020E949A
:10560000AA1582CF81608093EA0260E086950E94AD
:10561000AD177ACF8B818093EE0276CF8A81823864
:10562000D9F058F4803899F0813809F06DCF809125
:10563000EA0280FF0FC0869544CF833809F064CF1B
:105640008091EB028B838091EC028C835DCF809103
:10565000ED0237CF80E035CF8091EE0232CF20913E
:10566000EA023091EB024091EC025091ED022BA73F
:105670003CA74DA75EA7CA01B9010E94411544CFBE
:1056800080E18A8341CF81E08A8387EE1ACF8C81C3
:10569000C82ED12C8D3108F037CFEA80FB80FE2454
:1056A000EF24FE24CE0CDF1C5E0135E0A30EB11CFE
:1056B000C701875E9D4FEC14FD0409F425CF47EE2A
:1056C000E41641E0F40648F40E94E32FD5018D93DF
:1056D0005D01BFEFEB1AFB0AEBCF80E0F7CF8091C3
:1056E000610290916202892B09F40ECF8C81A82E61
:1056F000B12C8D3108F008CFEA80FB80FE24EF2426
:10570000FE246801A00EB11EC701875E9D4FAC1438
:10571000BD0409F4F9CEE7EEEE16E1E0FE0628F44A
:10572000D60114966C910E94F72FBFEFEB1AFB0A7B
:10573000EFEFCE1ADE0AE8CF0E94EA10E5CE84E051
:10574000A0CF8C81C82ED12C8D3108F0DDCEEA801F
:10575000FB80FE24EF24FE24CE0CDF1C5E01F5E06E
:10576000AF0EB11CC7018796CE14DF0409F4CCCE6E
:1057700020E8E21621E0F20648F40E94E32FD5016A
:105780008D935D01BFEFEB1AFB0AECCF80E0F7CF02
:105790008C81C82ED12C8D3108F0B6CEEA80FB80EA
:1057A000FE24EF24FE24E0E8EE16E1E0FE0608F019
:1057B000ABCE80E891E08E199F098C159D0508F409
:1057C000A3CE3701F7E26F0E711C809161029091B8
:1057D0006202892BB9F5570121E0A222BB24E0FE29
:1057E0000DC0C70186960E94E32F9D8189279827C7
:1057F000892781159C4511F48FEF8D83C6018E0D8D
:105800009F1D460180FF17C041E0841A910855E0B2
:10581000452E512C4C0E5D1E480C591CC3018C0D9D
:105820009D1D0E94E32FD2019C9181159C4519F486
:105830008FEFF2018083F801EA0DFB1D2FEFA81412
:10584000B90420F05801C00ED11E1CC0948185817E
:1058500081159C4511F42483258342E0A40EB11CDC
:105860003296EDCF50E8E51651E0F50628F4D50163
:1058700014966C910E94F72FBFEFEB1AFB0AEFEF23
:10588000AE1ABE0AC7018796CA14DB0459F73CCE8C
:105890008091610290916202892B09F435CEC80192
:1058A0000E945B0CFFEF21EE34E0F15020403040CD
:1058B000E1F700C000002FCB88E0ECE1F1E0DE0171
:1058C000919601900D928A95E1F7FE0132968FE153
:1058D000DF011D928A95E9F784E0898388E07F964D
:1058E000DE01159601900D928A95E1F70DCE88E2C2
:1058F000898381E08A831B821C8206CE8C8190E0A2
:10590000982F88272B81820F911D092E000CAA0B3E
:10591000BB0B45E0880F991FAA1FBB1F4A95D1F703
:10592000AC01BD01405E5F4F6F4F7F4F4817590775
:105930006A077B0708F4E8CD8832E1E09E07A105FD
:10594000B10508F0E1CD4932F1E05F07610571056D
:1059500010F048E251E0481B590BBC016B59794FDC
:10596000C8010E94A02FD0CD4AE150E06FEF70E057
:10597000CE0107960E94CC2F809161028983EA8232
:1059800081E08B831C828D838BE08E83BDCD81E093
:1059900090E0909364028093630282E390E090939E
:1059A0005C0280935B020E94FB0990935A028093F1
:1059B0005902AACDEF2861F1F0906C02E0906D02DF
:1059C0008091590290915A020E94760B853691057A
:1059D00040F1E3FE26C0F0FE24C00E94FB09909334
:1059E0005A028093590280915B0290915C02019768
:1059F00090935C0280935B02892B51F410926402B5
:105A00001092630281E090E09093620280936102C1
:105A1000809161028983809163028A8380915B0215
:105A200050CD82E390E090935C0280935B02F0CFD4
:105A3000109262021092610267CDEB80FC8040E21E
:105A400050E06FEF70E0C8010E94CC2F2DEC35E0E4
:105A500090E080E0AC014E5F5F4F4132510508F0AD
:105A600053CDF90165917491E616F70630F4800F75
:105A7000911FDC016D937C93CA01285F3F4FB6E014
:105A800025363B0739F740CD4B815C818DEC95E0A5
:105A900025E636E0FC01659174916417750709F4F9
:105AA00084C0089628173907A9F707CD8B819C81F8
:105AB0002DECE22E25E0F22EF701259134912817E6
:105AC000390709F48AC0E8E0EE0EF11CF5E6EF169E
:105AD000F6E0FF0689F7F1CC0E94201215CD8B81EC
