:100000000C94CA050C9402060C9402060C94020689
:100010000C9402060C9402060C9402060C94020640
:100020000C9402060C9402060C94242B0C94E02AE7
:100030000C94212C0C9402060C9402060C940206DB
:100040000C9402060C9402060C9402060C94020610
:100050000C9402060C94FD2B0C9402060C940206E0
:100060000C9402060C9402060C9402060C940206F0
:100070000C9402060C9402060C9402060C940206E0
:100080000C9402060C9402060C9402060C940206D0
:100090000C9402060C9402060C9402060C940206C0
:1000A0000C9402060C9402060C9402060501090247
:1000B000A10185020901A100050919012905150001
:1000C00025019505750181029501750381010501E1
:1000D000093009311581257F950275088106093897
:1000E0001581257F950175088106050C0A380215D2
:1000F00081257F950175088106C0C005010980A191
:1001000001850319012AB700150126B7009501756D
:10011000108100C0050C0901A101850419012AA064
:1001200002150126A002950175108100C00660FF2E
:100130000961A1010962150026FF0095207508815B
:10014000020963150026FF00952075089102C0057D
:10015000010906A101050719E029E7150025019508
:1001600008750181029501750881010507190029AB
:10017000FF150026FF009506750881000508190186
:100180002905950575019102950175039101C0003E
:10019000000000000000000000000000000000005F
:1001A000000000000000000000000000000000004F
:1001B0000000007E0F00D4FFFFFFC70000007800A2
:1001C000000000000000002A2B28000000000000B2
:1001D0000000000000000000000029000000002CCA
:1001E0001E3420212224342627252E362D37382769
:1001F0001E1F202122232425263333362E37381F75
:100200000405060708090A0B0C0D0E0F1011121336
:100210001415161718191A1B1C1D2F3130232D35D4
:100220000405060708090A0B0C0D0E0F1011121316
:100230001415161718191A1B1C1D2F3130354C6454
:100240003214783C1E1E140A05FD377A585A0000F5
:1002500004E6D6B4460200210116000000742FE522
:10026000A3E011FB03C95D003D8889C65436C3175E
:100270004FE4E3D2B74DCE4813071F540460072361
:1002800044B831EF77B597223D0B082EACD3D0F3AD
:10029000E215EB4A83A2476FF6BC479FBC9509ACB9
:1002A00031D77F71EF0E41969BF08A018EDC4D4471
:1002B00064F2BA8E3A27065D46DC875B8810034CF1
:1002C000A7222A364956E5337DE3546A692A36481F
:1002D000951F8C8ABE6C7D95645A1DC00997E29D5E
:1002E00033C8C3CF4982FA5327ADBE80ECA1D57D78
:1002F0006CBD19DF5914580193F17D0791372B7D9F
:1003000080154002D4C3CAB0B7FB3C93B557683AD6
:10031000797323E9A4684F801A8A9E0C049EB5CE97
:100320004401DF033320B5A9ABE2F49406374CB99E
:1003300079C17D9602024722D36E2F873262217FD8
:100340009F69E6F4479C0D71B559F4E9387CB447D0
:10035000632ABC05F095E790AC142C8643397350A2
:1003600053F229ECEC01ADB593F364721618A7C8EB
:10037000647F05AD2ED92708DF1EAC74794C8D8EB5
:10038000154740C15703256081434364EC3503A8FA
:10039000FE8DA0E333833A1C535D7295CC53335FDB
:1003A00014A7BF4FF4E2A5D435D3A9FC623D3A317E
:1003B000AC1E5DF3A79AF879D712A6E6F7F3092CDD
:1003C000580B9DCF176EFC2B26B09B217D619CD6D0
:1003D000928355FF8E14C53310509F065E9805A278
:1003E00015AE438449E2D9EE738BC1455134E4BD67
:1003F0006C869B6109092A249829A223F2B1D1466F
:10040000AAACF1D9DE0DFAE6D84CFDB57F6343996D
:100410006C15C2CB233A3CE7A4A053BE0C37FD0FAA
:1004200005BCB13006B01973F2DEE720F2B67AB936
:100430006FEA133F8048F3C7CF1C48D7894073C386
:10044000C5E47CCDF5A014913E3895394C56069EF6
:1004500087E0D8DB973B94537EC41B3C6FCC95421E
:10046000C91162AC598BA4A50B46BA41EB318B552F
:1004700040679EF3A4F580E3B10144BBF1C499D673
:100480001C8691A61FBB1D87DE87B39ABA63DB2942
:10049000B9AA7D2A05F5B3030D340265B44F483778
:1004A0001C291B7B0F2215B1DFE9246570796A5B7B
:1004B00088A6B1B4DDFCB42F57D3C8E58E5C7DB4FB
:1004C000C3ADB97A0CA9ED95C849827FA020C6902A
:1004D00030696402D824F829A7DC7DA7791633E4B3
:1004E0004EA29FB9D5998572DD66DB6ED82DCB3FC4
:1004F00027EF03C183398C7695D3442F67054413C6
:1005000069F0C626FC48914E0CFDBA65C3F641362B
:100510008DC4BDB8C0C8AC2CA675967ABADDB3DB65
:1005200046539203AC7FF6EE823157AEA18824C9C0
:100530008E0C663740C63FB5EBA26A1A9C52933CBC
:100540008CF4DE068089DF25163E98A3581CBFE692
:100550008ABC2CF35511C466EB448C98DCBADAF0F3
:10056000E34BDDF9FD68AAF07EAB991DCCB9EF999C
:100570007C79C8C5D5287812BE4CD0FBDC4834B095
:100580001FDDE6EFEBD5030616E6A2C12098A7AD66
:10059000A5E0CFE92F85C86BAE7A49D4178EBB9FF3
:1005A00045789F0C2ECC38A1DA07A6FB0C3FF9B199
:1005B0008D0CF825650EBCCD79001B21337BD2EA6A
:1005C0008F769049144FF05A43A06D5332B9A83436
:1005D000922029E48942BE0AE102F4BA2FB8F1FE62
:1005E0000AB06C14EBA8FC65F24C9B169D1F85E3CA
:1005F0002662256977BD65DDDB85E02568F0CEE400
:100600001BFB6DE16258C874D85E3D7D7906BD491B
:1006100006D72376AA055CC6602FDC8B3EF296B720
:1006200054F2F8BB349315770F90FEB088304C230A
:10063000000000000083CA1FF61A3075230001E590
:1006400007FC2300005AD347C1B1C467FB02000076
:10065000000004595A0001010101010101010102D8
:100660000202020202020202030303030303030362
:10067000040404040404040505050505060606062D
:1006800006070707070708080808090909090A0AE9
:100690000A0B0B0B0C0C0C0D0D0D0E0E0E0F0F0F8D
:1006A0001010111111121213131414151516161718
:1006B00017181819191A1A1B1B1C1D1D1E1E1F2086
:1006C00020212222232424252626272829292A2BD3
:1006D0002C2D2D2E2F3031323233343536373839F8
:1006E0003A3B3C3D3E3F40414243444546474849F2
:1006F0004A4C4D4E4F50515354555658595A5B5DC4
:100700005E5F616264656668696B6C6D6F70727361
:100710007577787A7B7D7E8082838587888A8C8EC8
:100720008F91939596989A9C9EA0A2A3A5A7A9ABFA
:10073000ADAFB1B3B5B7BABCBEC0C2C4C6C9CBCDEC
:10074000CFD1D4D6D8DBDDDFE2E4E7E9EBEEF0F39E
:10075000F5F8FAFDFF2223252628292A2C2D2F30F3
:1007600032333536383A3B3D3E4042434547494AAD
:100770004C4E5051535557595A5C5E6062646668DE
:10078000696B6D6F71737577797B7D7F81838587E9
:10079000898A8C8E90929496989A9C9E9FA1A3A5EC
:1007A000A7A8AAACAEAFB1B3B4B6B8B9BBBCBEBF14
:1007B000C1C2C3C5C6C7C9CACBCCCDCED0D1D2D297
:1007C000D3D4D5D6D7D7D8D9D9DADADBDBDBDCDCA2
:1007D000DCDCDCDDDDDDDDDCDCDCDCDCDBDBDBDA5A
:1007E000DAD9D9D8D7D7D6D5D4D3D2D2D1D0CECDC5
:1007F000CCCBCAC9C7C6C5C3C2C1BFBEBCBBB9B8D2
:10080000B6B4B3B1AFAEACAAA8A7A5A3A19F9E9C56
:100810009A98969492908E8C8A89878583817F7D21
:100820007B79777573716F6D6B6968666462605E02
:100830005C5A5957555351504E4C4A4947454342CB
:10084000403E3D3B3A3836353332302F2D2C2A2965
:100850002826252322165C14001A0008001500170C
:10086000001C0018000C00120013002A002B610469
:10087000001600070009000A000B000D000E000F13
:100880000033003400E1001D001B000600190005C4
:10089000001100100036003700380028000151E236
:1008A00000E30002512C0000002C004C0003510119
:1008B000510258025135001E001F00200021002265
:1008C000002300240025002600270001000100016C
:1008D00000010001000100010001002D002E002F89
:1008E00000300031000100010001000100010001A1
:1008F00000010001000100010001000100010001F0
:1009000000010001000100000001000100010001E0
:1009100000010001000100010001000100010001CF
:1009200000010001000100010001000100010001BF
:10093000000100010001000100010001000100525E
:10094000000100010001000100010001000100019F
:100950000001000100500051004F000100010001A2
:100960000001000100010000000100010001000180
:10097000000100010035003A003B003C003D003E14
:10098000003F00400041004200430001000100011F
:10099000000100010001000100010001000100014F
:1009A000000100010001000100010001000100013F
:1009B000000100010001000100010001000100012F
:1009C0000001000100010000000100010001000120
:1009D000000100010001000100D4032A115D110093
:1009E0000002000200D0032A115D11000003000183
:1009F00000D5032A115D11000004000200BA032A89
:100A0000115D11F10805000100D6032A115D1100E6
:100A10000006000200BC032A115D1100000700025D
:100A200000D2032A115D11000008000100D7032A3B
:100A3000115D11000009000200BE032A115D11CCF6
:100A4000080A000200C0032A115D11CC080B000245
:100A500000C2032A115D11CC080C000200C4032A55
:100A6000115D11CC080D000200C6032A115D11CCE6
:100A7000080E000200C8032A115D11CC080F000205
:100A800000CA032A115D11CC0810000200CC032A11
:100A9000115D11CC0811000200CE032A115D11CCAA
:100AA0000812000200D8032A115D11000013000291
:100AB00000DA032A115D11000014000100DC032A92
:100AC000115D1100001500000000005208A518007B
:100AD0000009025B00030100A0FA09040000010301
:100AE00001010009211101000122400007058103D5
:100AF000080001090401000203000000092111019E
:100B000000012222000705820320000107050303DC
:100B10002000010904020001030000000921110165
:100B20000001228100070584032000011201000258
:100B3000000000087EAE424F0100010203011C03C9
:100B40007600690061006C003A00660036003400EF
:100B500063003200620033006300000010034F00A6
:100B60006D006E00690062007500730000002003D4
:100B70004B006E006F0062006C0065007300730034
:100B800065004F0062006C006900670065000000AE
:100B90000403090411241FBECFEFDAE0DEBFCDBF8E
:100BA00004B603FE18C08091080490910904A09136
:100BB0000A04B0910B048730904BA740B04B59F416
:100BC000109208041092090410920A0410920B0467
:100BD000E0E0F8E3099511E0A0E0B1E0E0E5FBE634
:100BE00002C005900D92A239B107D9F724E0A2E91D
:100BF000B1E001C01D92A830B207E1F70E94482C75
:100C00000C9482350C940000E8EDF0E080818E7F3A
:100C100080831092E2001092DA001092E100A0EEC0
:100C2000B0E08C9181608C9380818F77808319BC38
:100C3000A7EDB0E08C918E7F8C9380818F7E808336
:100C40001092EF0308952091E4003091E50095E6BD
:100C5000A9012091EC00822F817020FF06C08091B5
:100C6000E80080FF06C080E008952091E80022FDA2
:100C70001AC080910504882389F0853089F080911D
:100C8000EB0085FD0FC02091E4003091E500421794
:100C90005307F9F29150E1F684E0089582E0089557
:100CA00083E0089581E00895EF92FF920F931F93E0
:100CB000CF937C018B010E942306C82F811117C09E
:100CC0008091E80085FD0BC08091E8008E778093CD
:100CD000E8000E942306882399F3C82F08C0F70173
:100CE00081917F018093F1000150110949F78C2F08
:100CF000CF911F910F91FF90EF900895CF93FC013A
:100D000080910504843001F5C091E900CF702091F5
:100D1000EC00922F917020FD90E8C92B82E0809327
:100D2000E9008091E80080FF0CC050E040E060E204
:100D300070E0CF010E9454068091E8008E77809386
:100D4000E800CF70C093E900CF9108958091FD0332
:100D500087FF13C08091E80082FF06C08091E80001
:100D60008B778093E80004C0809105048111F2CF55
:100D70000895809105048823D9F38091E80080FFCD
:100D8000F8CF8091E8008E77ECCF982F9093E90010
:100D9000242F762F50E0891731F07091EC002091CC
:100DA000ED005091F00021FD07C09F5F973071F773
:100DB0008093E90081E008953091EB003E7F30930D
:100DC000EB003091ED003D7F3093ED003091EB0072
:100DD00031603093EB007093EC002093ED00509362
:100DE000F0002091EE0027FDE0CF80E00895B0E014
:100DF000A0E0EDEFF6E00C94C234C8EDD0E08881BD
:100E00008F7E8883E7EDF0E080818160808384E0DD
:100E100082BF81E08093EF0388818E7F888302EE1A
:100E200010E0F80110821092DA0081EEC82ED12C69
:100E3000F601108288818F77888388818068888313
:100E400088818F7D888319BC109205041092FC0361
:100E50001092FB031092FA0390EEE92EF12CF701A9
:100E600080818B7F808388818160888342E060E01D
:100E700080E00E94C506F60180818E7F8083F801A4
:100E8000808181608083808188608083F701808198
:100E90008E7F8083888180618883CDB7DEB7E8E06C
:100EA0000C94DE34FC0180910304909104048617B5
:100EB0009707A0F06115710529F49091E8009E77DD
:100EC0009093E80090E06115710551F4911108C00C
:100ED0008091E80082FF34C080E00895BC01F2CF29
:100EE000809105048823C1F18530C1F18091E8002B
:100EF00083FD30C08091E80082FDEACF8091E80058
:100F000080FFE1CF8091F3002091F200382F61152E
:100F1000710519F02830310558F091E0283031057D
:100F200009F090E02091E8002E772093E800CBCFE5
:100F300081918093F100615071092F5F3F4FE7CF9E
:100F400080910504882341F0853041F08091E800CC
:100F500083FFBECF81E0089582E0089583E0089585
:100F600008958091F10308959C014FB7F894809102
:100F7000E8039091E903A091EA03B091EB034FBF1E
:100F8000821B930B08952FB7F8948091E8039091FA
:100F9000E903A091EA03B091EB032FBF08952091DC
:100FA000E5033091E6032817390771F09093E603C3
:100FB0008093E503E091E303F091E403309721F09F
:100FC0000084F185E02D099508952091E103309189
:100FD000E2032817390771F09093E2038093E1034D
:100FE000E091E303F091E403309721F00680F7816C
:100FF000E02D09950895E091E303F091E403309723
:1010000029F00190F081E02D0995089580E0089580
:10101000452B39F0682381E06F3F09F080E0817053
:10102000089581E0FCCFDC016091B6038091B703A5
:10103000962F891301C00895292F30E0F901EE0F92
:10104000FF1FE255FC4F408151814A175B07A1F415
:1010500087E08A9FA0018B9F500D11244A585C4F56
:1010600081E0FA0184839613E6CF2F5F3F4F237010
:1010700033272093B60308952F5F3F4F922F93702D
:10108000D8CF1092130310921203E6E7F3E08581A4
:10109000811102C014821682379683E0EE3AF80777
:1010A000B1F70895B0E0A0E0E8E5F8E00C94C034B2
:1010B0008FEF9FEF4430510508F469C04091EB0277
:1010C00041FB882780F990E0880F991F42FB002799
:1010D00000F910E0000F111F000F111F802B912B42
:1010E00040FBCC24C0F8D12C8C299D2943FB22271E
:1010F00020F9C22FE0E0DE2F53E0CC0FDD1F5A9520
:10110000E1F78C2B9D2B44FBAA27A0F9B0E0E4E08B
:10111000AA0FBB1FEA95E1F78A2B9B2B45FBEE2715
:10112000E0F9F0E0A5E0EE0FFF1FAA95E1F78E2BA6
:101130009F2B46FB222720F930E0B6E0220F331F19
:10114000BA95E1F7822B932B47FB222720F930E059
:101150003695322F222737952795822B932B209176
:10116000EC02322F3170F32EE82EF92A26952170E9
:10117000B22EBB0CA82EBF28C501BB0CAA0BBB0B03
:10118000FB0180839183A283B38390E080E0CDB79D
:10119000DEB7EAE00C94DC34EAEBF3E0848195817D
:1011A0002AE030E0B9010E94833460931401868103
:1011B00080931301828580931201848580931101AD
:1011C00086859785B9010E948334609310018089D8
:1011D00080930F01828980930E01848980930D0191
:1011E00008958091BA039091BB0390931601809368
:1011F00015010895FA01811101C0FB0109950895B7
:10120000089580919002982F9E7F29F481708260CA
:101210008093900208958032E8F381708E61F8CF58
:10122000AF92BF92DF92EF92FF920F931F93CF93F3
:10123000DF93082F162FE901E42FF0E0EB5AF94F66
:10124000611110C0E4915E2F4E2F4983E8835A83C9
:10125000DF91CF911F910F91FF90EF90DF90BF90A2
:10126000AF900895E62EF12C4491D42EE42FF0E0B7
:1012700026E0829FC00111242FEF30E0B9010E94C7
:101280008334802F90E0880F991F55E5569FD00139
:10129000579FB00D11248A1B9B0B982F990F890F14
:1012A0005901AE18BF08AE9ED001AF9EB00DBE9ED4
:1012B000B00D11245B2F189F80011124012F1127DD
:1012C0005901A01AB10AAE9E8001AF9E100DBE9EBC
:1012D000100D11245901A81AB108AE9CC001AF9C91
:1012E000900DBE9C900D1124892F9927281B390B36
:1012F0002E9FC0012F9F900D3E9F900D1124E92F2E
:1013000062307105A1F050F46115710509F49DCFAB
:101310006130710581F0EB2F512F97CF643071054B
:1013200069F080F06630710509F48FCFF4CFE42FB7
:101330004B2F592F8ACFE42F412F87CFEB2F542FDC
:10134000492F83CF4B2F5D2DE12F7FCF0E94C30705
:101350009C019091420280914302982B21F030939E
:101360003F0220933E029091440280914502982BC7
:1013700021F030933D0220933C02E091E303F09191
:10138000E403309749F082E0809340020480F581C5
:10139000E02D80E492E00995089590914202803F0B
:1013A00059F48091430287FF0DC0109243029111BE
:1013B0000BC010923A0208C0813F81F48091430231
:1013C00018169CF3992381F0809144029091450274
:1013D000892B09F064C0109239020895823F49F4C4
:1013E00097FFF0CF10924202809143028111ECCF1F
:1013F000E0CF833F19F41916ACF3E4CF20914402F7
:10140000893F29F41216F4F610924402DBCF8A3F8A
:1014100019F427FFD7CFF8CF209145028B3F29F44D
:1014200027FFD0CF10924502CDCF8C3F19F4121672
:10143000CCF3C8CF843F31F4809141028E7F8093FA
:101440004102C0CF853F21F4809141028D7FF7CFCB
:10145000863F21F4809141028B7FF1CF873F21F4B9
:1014600080914102877FEBCF883F21F48091410238
:101470008F7EE5CF8D3F31F480913B028E7F80934C
:101480003B02A0CF8E3F21F480913B028D7FF7CFAE
:101490008F3F09F097CF80913B028B7FF0CF08956B
:1014A00080913B0280FF0CC060910E0170E0759549
:1014B0006795759567956115710549F1862F0895B2
:1014C00081FF06C060910E0170E075956795F3CFBE
:1014D00060910E0182FD0BC0909139029923A1F019
:1014E00060910D0180910E01961738F0682F70E021
:1014F0006038710500F38FE70895899FC0011124BA
:1015000070E00E949734F4CF61E070E0D7CF81E0C3
:10151000089580913B026091C2037091C30380FFE4
:1015200016C020911201269FC001279F900D112403
:10153000BC0176956795769567956038710508F0DA
:1015400043C06115710509F441C0862F089581FFDC
:101550000BC020911201269FC001279F900D1124DE
:10156000BC0176956795E9CF82FF09C08091120191
:101570009B01829FB001839F700D1124DECF2091CB
:101580003A022223D1F29091110180911201482F49
:1015900050E0291748F0CB01849FB001859F700D62
:1015A000949F700D1124C9CF289F90011124269F6C
:1015B000A001279F500D369F500D1124692F70E018
:1015C000CA010E948334B9CF8FE7089581E008955E
:1015D000803F31F40E94890A8195809343020895E7
:1015E000813F19F40E94890AF8CF823F31F40E94AA
:1015F000890A8195809342020895833F19F40E94DD
:10160000890AF8CF893F29F40E94500A8093440246
:1016100008958A3F21F40E94500A8195F7CF8B3FAD
:1016200031F40E94500A81958093450208958C3FC1
:1016300019F40E94500AF8CF843F31F4809141029E
:101640008160809341020895853F21F48091410299
:101650008260F7CF863F21F4809141028460F1CF10
:10166000873F21F4809141028860EBCF883F21F4CD
:10167000809141028061E5CF8D3F31F480913B0242
:10168000816080933B0208958E3F21F480913B025C
:101690008260F7CF8F3FB9F780913B028460F1CF32
:1016A00080E00895F894E82FE295EF70F0E031A122
:1016B000282F2F7081E090E001C0880F2A95EAF76B
:1016C000982F9095932391A392A1892B82A378942C
:1016D00008959091EB0292FF06C0282F28712830C0
:1016E000F9F4877F846093FF06C0282F2871283182
:1016F000F1F4877E84612091EC0220FF06C0382F30
:1017000038713830D9F4877F816021FF06C0282FD7
:1017100028712831D1F4877E816194FD877E0895F8
:10172000282F24712430F9F68B7F8860DCCF282F96
:101730002471243101F78B7E8861DDCF382F317120
:10174000313019F78E7F8860E0CF282F2171213149
:1017500021F78E7E8861E1CFCF93DF93EC01823851
:101760009105A9F1D8F58133910509F496C048F5A2
:101770008932910509F48AC08A9709F495C0C11588
:1017800021E5D20708F0BCC0C11530E5D30708F049
:1017900014C1C83ED10508F09CC0C03ED10560F51B
:1017A000C83AD10508F087C0C53AD10508F0FDC098
:1017B000C130D10509F12097F9F0C430D105E0F42A
:1017C00040C08533910509F45AC0C997C1F680918C
:1017D000EB02837089F0C0EED0E00EC0833E91052D
:1017E00099F170F4803E910501F1823E910539F640
:1017F0008091EB0282FD21C0CE01DF91CF9108954F
:10180000863E910561F1873E910571F1843E910517
:1018100009F0B5CF8091EC0281FFEECF8091EB0211
:10182000C7EED0E084FD0DC0E7CF8091EB0280FDD4
:1018300012C19091EC0290FFDFCFC3EED0E084FFA5
:10184000DBCFD0E0C0E0D8CF8091EB0282FD06C1B3
:101850009091EC0290FDBFCF84FFCECFF2CF80916C
:10186000EB0283FDDDCFC8CF8091EB0283FDF9C091
:101870009091EC0291FFF0CFC4EED0E0BDCF80910B
:10188000EB0285FFB9CFC9E2D0E0B6CF8091EB0281
:1018900085FFB2CFC5E3D0E0AFCF8091EB0286FFEA
:1018A000ABCFCAE2D0E0A8CF8091EB0286FFA4CFF5
:1018B000C1E3D0E0A1CFCF3BD10518F6C85AD0E0A4
:1018C000CC0FDD1FCB5DDE4F0990D881C02DD464D5
:1018D00093CFC11540E2D40758F4C11581E0D80771
:1018E00008F08ACFC03FD10508F4ABCFD06584CFD4
:1018F000C11590E4D90708F4A4CFDF70D06A7CCF7B
:10190000C11525E5D20700F5C11534E5D30708F068
:101910008AC0C11543E5D40708F071C0C11582E53E
:10192000D80708F467C0CE018370992721E030E022
:1019300002C0220F331F8A95E2F7C695C69580E252
:10194000C89FE001112452C0C11599E5D907A8F438
:10195000C11528E5D20708F06BC0C11536E5D307DD
:1019600008F06FCF8C2F0E94690BC82FD0E0DC2FBE
:10197000CC27CC27DF71D0623FCFC1154AE5D40711
:1019800008F45BC0CE0190568115904208F059CF03
:101990008D2F8F710E94690B90E0982F88278827E0
:1019A0009F719C012C2BE901E6CFC55AD0E0CE5D9A
:1019B000DE4FC881D0E0D0641FCFCE01E4E0969521
:1019C0008795EA95E1F783702C2F2695269523704D
:1019D00040E2249F90011124382B8C2F8370C1E0AA
:1019E000D0E002C0CC0FDD1F8A95E2F7C22BD32BCB
:1019F000DC6802CFDC2FCC27C16FD06AFDCECE01D0
:101A00008370992721E030E002C0220F331F8A95AE
:101A1000E2F7C695C69590E2C99FE0011124C22B5A
:101A2000D32BDA68E9CEDC2FCC27C46FD06AE4CEA2
:101A3000DC2FCC27C06FD06ADFCE8C2F8F700E9436
:101A4000690B34E0D695C7953A95E1F7CF709C2F96
:101A5000EC01D069D1CEC9E3D0E0CECEC2EED0E069
:101A6000CBCEC6EED0E0C8CE80910902882331F0FB
:101A70001092090210920802109207020895CF9363
:101A8000C82F8091EC0282FF0CC0809109028C1754
:101A900041F00E94C3079093080280930702C0930D
:101AA0000902CF91089580959091ED02982390932B
:101AB000ED0208951092FE011092FD011092FC01BA
:101AC00008958091BC039091BD03892B89F00E94F9
:101AD000C3072091070230910802AC01421B530B4F
:101AE00081E02091BC033091BD034217530708F4F5
:101AF00080E081700895E6E9F1E09191891303C0D7
:101B0000DF0111971C9291E0EC39F907B1F70895C4
:101B1000A6E9B1E0EFEF90E02D91821751F0EF3F91
:101B200019F4211101C0E92F9F5F9630A9F7EF3F0B
:101B300009F408950E2E000CFF0BEC56FE4F828325
:101B400008952091FB019091BA01291302C080E011
:101B5000089530E0F90153E0EE0FFF1F5A95E1F7C9
:101B6000E554FE4F5181561306C05081581303C0EF
:101B70005281541304C02F5F3F4F2770E6CF81E09E
:101B800008958091FB019091BA01981301C00895C6
:101B90008F5F8770FACF292F943078F58C3068F5F5
:101BA00090E03CE0239F800D911D1124682F677009
:101BB00023E0969587952A95E1F7FC01EE0FFF1F2C
:101BC000E80FF91FE056FE4F50E040E080E0219121
:101BD00030E0062E02C0369527950A94E2F7217070
:101BE0003327042E01C0220F0A94EAF7822B4F5F9D
:101BF0005F4F4330510559F7089580E00895292F2C
:101C0000943098F58C3088F590E03CE0239F800D6F
:101C1000911D1124282F277041E001C0440F2A95FF
:101C2000EAF723E0969587952A95E1F7FC01EE0FF8
:101C3000FF1FE80FF91FE056FE4F30E020E070E094
:101C40005191DF011197CB01022E02C09695879525
:101C50000A94E2F7817081958527842385278C93E8
:101C60002F5F3F4F2330310559F7089592959F70AC
:101C7000963091F058F4925F9F70923058F4803F04
:101C800019F030F4883E30F481E008959A5FF4CF83
:101C9000843FD1F380E00895883EB0F3813FD1F7CF
:101CA000F3CF9C013A9521153F4150F5FC01EE27F9
:101CB000F170BC0166277270AC01442754709C011E
:101CC0002227387094FF0EC080E1EF2B09F480E0EA
:101CD000672B09F08062452B09F08064232B89F083
:101CE0008068089581E0EF2B09F480E0672B09F00C
:101CF0008260452B09F08460232B19F088600895D9
:101D000080E008958093EC037093EE036093ED03FD
:101D1000809105048430F9F48093E9008FEF90916D
:101D2000E800815095FD06C095ED9A95F1F7000009
:101D30008111F5CF8091E80085FF0DC050E040E0B3
:101D400063E070E08CEE93E00E9454068091E8001E
:101D50008E778093E8000895BC0184E00E94820E93
:101D60000895BC0183E00E94820E08959C0184E0E6
:101D70008093E9009FEF8091E800915085FD06C0B7
:101D800085ED8A95F1F700009111F5CF8091E8007B
:101D900085FF0CC050E040E066E070E0C9010E94A1
:101DA00054068091E8008E778093E8000895CF93E1
:101DB000DF93EC0181E08093E9008FEF9091E800E0
:101DC000815095FD06C095ED9A95F1F700008111BF
:101DD000F5CF8091E80085FF14C050E040E068E056
:101DE00070E0CE010E9454068091E8008E778093C7
:101DF000E80088E0FE01A2EFB3E001900D928A9521
:101E0000E1F7DF91CF91089581E08093E00080E2D7
:101E10008093D8001092C9008FE19EE40197F1F7FA
:101E200000C0000087E090EBDC01809308049093F1
:101E30000904A0930A04B0930B0488E19CE00FB658
:101E4000F894A895809360000FBE90936000FFCF38
:101E5000019708F40895EFE9FFE03197F1F700C02A
:101E60000000F6CF8091900280FD0AC0EEE4F2E01F
:101E7000118210821282339652E0E039F507C1F7E1
:101E8000279A35B13F7725B120684FB7F8948EE493
:101E900092E0FC015191CF0168E025B9000000C03B
:101EA00057FF35B9550F000000C000C000C035B95C
:101EB00000C06A9591F7F2E080399F0751F74FBF54
:101EC0008FE594E00197F1F700C000000895EF92CC
:101ED000FF920F931F93CF93DF938C01CEE4D2E058
:101EE000F12CE12CF8019481609192028091910291
:101EF000FBE0EF16F104ECF49923E9F09E01409128
:101F000093020E9410092FEFE21AF20A239686E14B
:101F1000E816F10439F70E94320FF801848190E04D
:101F20000196817099278483CDB7DEB7E6E00C94E3
:101F3000E034992319F39E0140E0E3CFEF92FF9242
:101F40001F93CF93DF93EC018EE4E82E82E0F82E0E
:101F500010E08C8197014091930260919202810F71
:101F60000E941009155F83E0E80EF11C123F89F70B
:101F70000E94320F9A818C8190FF08C08F5F8C8302
:101F8000DF91CF911F91FF90EF9008958150F7CF8F
:101F90009091900290FF0CC0EEE4F2E081836083A8
:101FA0004283339692E0E039F907C1F70E94320F7D
:101FB0000895A3E0B0E0EFEDFFE00C94C8349091F9
:101FC000900290FF0AC09E012F5F3F4F0E941009B0
:101FD0004B8169818A810E94C80F2396E2E00C94AC
:101FE000E434CF93DF93EC01E0E9F2E043816281D6
:101FF0008C810E94D90F8C818F5F8C83DF91CF9170
:102000000895CF93DF93EC01EC81F0E0EB5AF84FA9
:102010004491E0E9F2E0628181810E94D90F8C81D4
:102020008F5F8C83DF91CF9108950F931F93CF9390
:10203000DF930AEB13E0C7EBD1E0CE010E9432350B
:10204000F80181938F012196CB3DF1E0DF07A9F7DD
:10205000CFEDD9E0FE0185919491009711F0FC013C
:1020600009952C96FAE0CB3DDF07A1F7DF91CF91E0
:102070001F910F9108950F931F93CF93DF93843097
:1020800030F5643020F54C3010F5C42FD0E0CC0F83
:10209000DD1F28E1629FC00DD11D112430E6839F12
:1020A000C00DD11D1124CE0187960E943235082F14
:1020B00010E0102F0027CE0188960E94323598013B
:1020C000282BC901DF91CF911F910F91089590E0C6
:1020D00080E0F8CF462F2091E9023091EA02232BCD
:1020E00099F4703F39F4603F79F48091E702909160
:1020F000E8020895843040F4743030F46C3020F4F9
:10210000672F0E943B10089590E080E00895CF92E1
:10211000DF92FF920F931F93CF93DF936C01009197
:10212000060480910A02082BC7E0D0E010E0FC2EE4
:10213000C8010C2E02C0959587950A94E2F780FDA0
:102140000CC02197A0F7F12C8F2DDF91CF911F911B
:102150000F91FF90DF90CF900895B6018C2F0E94D1
:102160006A100E94AC0B019761F3EECFCF93DF931F
:10217000EC010E948710BE010E946A100E94AC0B05
:10218000DF91CF910895FC0186819781009729F016
:102190000E94AC0B0E94360E0895808191810E94AE
:1021A000B610F8CFA5E0B0E0E8EDF0E10C94C7344C
:1021B00049835A8389819A81662399F0222389F081
:1021C0000E948710182F682F89819A810E94FF0D25
:1021D00069817A81812F0E946A102596E3E00C9430
:1021E000E3340E94CB0D182FF3CFFC01262F8681FC
:1021F0009781009739F44081518162817381848194
:102200000E94D210089583E290E00E943235803E11
:1022100089F484E290E00E9432358B3459F485E2EF
:1022200090E00E94323591E08B3A09F090E0892FDE
:102230008170089580E0FCCFCF9384E090E00E940D
:102240003235C82F82E290E00E943235982F8C2FD1
:10225000CF910895DB01FC0132962591349142170C
:10226000530758F0FC01349665917491A901CD0192
:102270000E94123590E080E008958FEF9FEF08955F
:102280000F931F93CF93DF930AEB13E0C7EBD1E0DB
:10229000CE010E943235F80161918F01681719F063
:1022A000CE010E9446352196CB3DF1E0DF0781F754
:1022B000DF91CF911F910F910895DA019C012E5F5C
:1022C0003F4FF90145915491F90125913491A2179D
:1022D000B30758F0FC013496859194910E94123511
:1022E0000E94401190E080E008958FEF9FEF0895E5
:1022F000CF93DF93CBE2D2E060E0CE010E9446357F
:102300002196C11584E0D807B9F7DF91CF910895E0
:102310001F93CF93DF93122F8430E0F46430D0F416
:102320004C30C0F4C42FD0E0CC0FDD1F98E1699F82
:10233000C00DD11D112490E6899FC00DD11D11241F
:10234000632FCE0187960E944635612FCE01889675
:102350000E944635DF91CF911F910895CF93C82FEA
:102360006FEF811160EE83E290E00E9446356FEFDF
:10237000C1116BE484E290E00E9446356FEFC11119
:102380006BEA85E290E00E944635CF910895CF93A5
:10239000C92F682F84E090E00E9446356C2F82E2BE
:1023A00090E00E944635CF910895AAE0B0E0EBEDB1
:1023B000F1E10C94C234E5E9F2E080E5DF011D9221
:1023C0008A95E9F7E6E7F3E088E3DF011D928A9555
:1023D000E9F785E9C82E82E0D82E7F010BED11E0E8
:1023E000F701D182C0824AE050E0B801CE010196E7
:1023F0000E94223588E0FE013196D60101900D92AF
:102400008A95E1F789859A85D70113969C938E93D7
:102410001297BAE0CB0ED11CE7E0EE0EF11C065F7E
:102420001F4F0B32F2E01F07D9F62A96E8E00C9412
:10243000DE34CF92DF92EF92FF926B017C010E941B
:102440000109B701A60188E090E00E945835FF908D
:10245000EF90DF90CF900895A3E0B0E0E2E3F2E1E7
:102460000C94C434082FF62E142FE22E8091900283
:1024700080FF28C0E82FE695F0E0ED58FE4F9081F0
:1024800090934C028E7F823009F59E012F5F3F4F63
:10249000802F0E9410094B8169818A810E94C80F98
:1024A00000939102F092920210939302EE2051F069
:1024B00060919002709191028091920290919302AA
:1024C0000E9419122396E6E00C94E034923019F43D
:1024D00010919302E5CF963019F400919102E0CF6C
:1024E0009930F1F6FACFE0E9F2E0438121E1421BB5
:1024F00008F440E021E0628181810E942C1208955D
:10250000E0E9F2E0438121E1420F08F44FEF21E0DE
:10251000628181810E942C120895E0E9F2E06281DB
:1025200021E1621B08F460E021E0438181810E9487
:102530002C120895E0E9F2E0628121E1620F08F4D3
:102540006FEF21E0438181810E942C120895E0E920
:10255000F2E0818121E04381628188500E942C1247
:102560000895E0E9F2E0818121E043816281885FA2
:102570000E942C12089580919402882319F08150B2
:1025800080939402609190027091910280919202E6
:10259000909193020E9419120895809194028330C1
:1025A00018F48F5F80939402609190027091910271
:1025B00080919202909193020E9419120895909135
:1025C000900290FF2CC0917081112AC0926090936C
:1025D0009002662351F06091900270919102809177
:1025E0009202909193020E94191260919002669556
:1025F00070E041E050E08CE091E00E94F834892BDB
:10260000B1F010924D0281E08093490220E04091A8
:10261000930260919202809191020E942C1208957F
:10262000803110F09E61D3CF880F982BD0CF81E0FE
:1026300080934D020E94C307909347028093460205
:10264000E2CF809190028695815009F48FE061E09D
:102650000E94DF1208958091900286958F5F8031ED
:1026600008F081E061E00E94DF12089590919002ED
:1026700090FF08C09695981728F0961718F40E94B6
:102680002B13089561E00E94DF120895E0E9F2E063
:1026900083E0808311828FEF828383831482608141
:1026A0007181828193810E9419120895A8E0B0E09F
:1026B000ECE5F3E10C94BE348E010F5F1F4F88E010
:1026C000F80111928A95E9F793E5E92E91E0F92E48
:1026D0006801AA24A394B12CF70181917F018F3F57
:1026E00009F446C0F894E82FE295EF70F0E021A1DC
:1026F0008F70A50102C0440F551F8A95E2F7CA01E9
:10270000922F982B91A392A18095892382A37894EC
:1027100000C0E7E5F1E021E030E0912C812C41910F
:102720004F3F09F479C0A42FA295AF70B0E0909606
:102730008C9190E04F7002C0959587954A95E2F78D
:1027400080FD6AC0C901882A992A220F331F51E0EF
:10275000E336F50721F7F701319780818F3F11F0BC
:102760000E94520B80EA8A95F1F7F60191828082ED
:10277000F2E0CF0ED11C47E5E41641E0F40609F083
:10278000ABCF48E050E0B8018EE092E00E94053502
:10279000FF24F394009709F4F12C892B09F43FC02E
:1027A00088E0F801AEE0B2E001900D928A95E1F781
:1027B00081E080930D020E94C30790930C028093E6
:1027C0000B0280910B0290910C020E94B4070597B6
:1027D00050F180910E0290910F02909332028093FB
:1027E00031028091100290911102909334028093F3
:1027F00033028091120290911302909336028093DB
:1028000035028091140290911502909338028093C2
:10281000370210920D0207C090E080E094CF8091C3
:102820000D028111CECF8F2D2896ECE00C94DA3476
:102830008091ED0290910704892B809394018091FF
:102840000902882309F18091BC039091BD03892B73
:1028500029F00E94610D81110E94340D8091940134
:1028600090910902892B8093940120E086E991E000
:10287000FC013191CF0131112F5FF1E08C399F07BD
:10288000B9F721110E94340D48E050E06FEF71E07C
:1028900084E991E00E940535892BA9F088E0E4E9FC
:1028A000F1E0AFEFB1E001900D928A95E1F7E09190
:1028B000E303F091E403309731F00280F381E02DDF
:1028C00084E991E00995089580911701877F8093AD
:1028D0001701909107049D7F9093070484FF08C01F
:1028E0008F7E809317018091ED0282608093ED02CC
:1028F0008091170185FF08C08F7D8093170180911B
:10290000ED0280628093ED020E941814089590E019
:1029100080E00E94E50790E080E00E94CF071092DF
:1029200007040E94181486E0E0E4F2E0DF011D9243
:102930008A95E9F710923A021092390210923B02FE
:102940000E94A6090895809306040E9487140895A2
:1029500080910604982F9670963021F488600E942A
:10296000A3140895877FFBCF21E030E001C0220F40
:102970008A95EAF720958091060482230E94A31489
:1029800008959091FE01809589238093FE01282F60
:10299000277091F4282F082E000C330B9217130682
:1029A00059F09091EC0292FF07C085958595859529
:1029B0000E94B4140E945A0D08959091EC0292FB6B
:1029C000222720F9281769F080FB92F99093EC02F6
:1029D0008091EB029091EC020E94C71182E00E946C
:1029E000C114089521E030E001C0220F8A95EAF772
:1029F00080910604822B0E94A31408959091EC020A
:102A000092FF10C098E0899F90011124622B60937F
:102A1000FE010E94F2140E94C3079093FD0180936F
:102A2000FC0108950E94F214089580930A020E9406
:102A3000871408951092ED02E6E9F1E086E0DF01E7
:102A40001D928A95E9F70E9487140895AAE2B0E0E2
:102A5000ECE2F5E10C94C7348DEF93E02091F100A6
:102A6000DC012D93CD01B4E085309B07B9F780914F
:102A7000FE03833009F472C0B8F4813009F449C010
:102A8000823009F4B3C08091E80083FF96C2809140
:102A9000FD039091FE039A3008F08FC2E92FF0E019
:102AA000EC57FA4C0C94AB348A3009F48EC08B305E
:102AB00009F471C0893039F78091FD03813219F72B
:102AC0008091010490910204009711F00297D9F6C9
:102AD0008091E800877F8093E8008091E80082FF82
:102AE00038C09091F3008091F200029731F4809108
:102AF000F100813011F0863021F48091F100809353
:102B0000F1038091E8008B778093E8000E94A6068D
:102B1000BACF8091FD03813A09F0B5CF8091E800EA
:102B2000877F8093E8008091010490910204892BB3
:102B300061F468E082EF93E070E00E9452078091B8
:102B4000E8008B778093E8009ECF60E090E080E023
:102B5000F3CF809105048111C0CF95CF8091FD0303
:102B6000813A09F090CF8091010490910204892B61
:102B700009F089CF8091E800877F8093E8008091F9
:102B8000E80080FFFCCF809119018093F1008091D3
:102B9000E8008E77B9CF8091FD03813209F073CFC1
:102BA0008091010490910204892B09F06CCF8091EF
:102BB000E800877F8093E8000E94A6068091FF03CB
:102BC000809319010E941A155ECF8091FD03813216
:102BD00009F059CF8091E800877F8093E8000E9438
:102BE000A606809100048093F0034DCF8091FD03F1
:102BF000813A09F048CF8091E800877F8093E80010
:102C00008091E80080FFFCCF8091F003BECF803838
:102C100099F0823809F0D1C1809101048F7087301A
:102C200008F0CBC18093E9008091EB0085FB8827F9
:102C300080F91092E90006C08091FA039091FB039D
:102C4000911182609091E800977F9093E8008093C3
:102C5000F1001092F1008091E8008E77AAC18823DC
:102C600009F498C1823009F0A8C18091FF03811155
:102C70009BC1809101048F702FEF280F263008F040
:102C80009CC18093E9002091EB0020FF8DC193301F
:102C900031F48091EB0080628093EB0085C19091CC
:102CA000EB0090619093EB0021E030E001C0220F37
:102CB0008A95EAF72093EA001092EA008091EB00EF
:102CC0008860EACF811179C11091FF031F7780914D
:102CD000E3008078812B8093E3008091E800877F78
:102CE0008093E8000E94A6068091E80080FFFCCF58
:102CF0008091E30080688093E30082E0111183E01B
:102D0000809305045AC18058823008F056C1209142
:102D1000FF03309100042C3DE3E03E07A1F583E082
:102D20008A838AE289834FB7F894DE01139620E004
:102D30003EE051E2E32FF0E050935700E49120FF92
:102D400003C0E295EF703F5FEF708E2F90E0EA30A6
:102D5000C0F0C7968D939D932F5F243159F74FBFD5
:102D60008091E800877F8093E8006AE270E0CE01FE
:102D700001960E9452078091E8008B778093E800CB
:102D80001CC1C096E7CF8091010490910204432FAB
:102D900055274330510509F44AC078F541305105B3
:102DA00009F485C08BE590E0E1EDFAE04230510591
:102DB00009F003C12091E800277F2093E8002091CB
:102DC0000304309104048217930708F49C0140E047
:102DD0002115310509F070C041116EC08091E800E5
:102DE00082FDC9CF80910504882329F2853019F22C
:102DF0008091E80083FFF2CFBECF4132510509F444
:102E000047C04232510509F0D8C08330910508F01F
:102E1000D4C0FC01EE0FFF1FEA57FE4F0190F08176
:102E2000E02D8D579E4FDC018C9190E01DC0332723
:102E300021303105E9F02115310579F022303105D5
:102E4000F9F02330310509F0B8C0EEE3FBE0E4917E
:102E50008E2F90E0EEE3FBE007C0E0E9FBE0E491B9
:102E60008E2F90E0E0E9FBE0009709F4A6C0A2CF26
:102E7000EEE6FBE0E4918E2F90E0EEE6FBE0F4CF8F
:102E8000ECE5FBE0E4918E2F90E0ECE5FBE0ECCF8D
:102E90008330910508F091C0880F991FFC01E45719
:102EA000FE4F0190F081E02D89E090E083CF82E138
:102EB00090E0ECE2FBE07ECF80910504882309F4EA
:102EC0005ACF853009F457CF8091E80083FD53CF66
:102ED0008091E80082FD82CF8091E80080FF78CF6A
:102EE0009091F3008091F2002115310519F088309E
:102EF000910550F041E0089709F040E08091E8002A
:102F00008E778093E80064CF44914093F10031962E
:102F1000215031090196E8CF803809F04EC08091E8
:102F2000E800877F8093E8008091FC038093F100A4
:102F300092CE811142C01091FF031230F0F58091C2
:102F4000E800877F8093E8001093FC030E94A606A8
:102F5000112311F084E005C08091E30087FDFACFD2
:102F600081E08093050442E061EC81E00E94C506A7
:102F700042E261EC84E00E94C50642E261EC82E03C
:102F80000E94C50642E260EC83E00E94C506809183
:102F9000050413C08091FF03813079F481E0933000
:102FA00009F080E08093FB031092E9008091E80033
:102FB000877F8093E8000E94A6068091E80083FF47
:102FC0000AC08091E800877F8093E8008091EB0041
:102FD00080628093EB00AA96E3E00C94E334EAEB82
:102FE000F3E0128E138E8FEA90E09183808325E0C8
:102FF000248F88E893E1938382838AE090E095832D
:10300000848344E150E05783468368E070E0718731
:103010006087938782874EE150E055874487978782
:10302000868740E550E0518B408B738B628B68E262
:1030300070E0758B648B62E370E0778B668B68EC75
:1030400070E0718F608F158E978F868F51A340A38C
:1030500022A30E9440110E941A151092EC021092B5
:10306000EB02ECEEF2E08081846080838091EB02E1
:103070009091EC020E94C7110E9415100895AAE0D9
:10308000B0E0E5E4F8E10C94BD34A090E502B09026
:10309000E60281E090E09093E6028093E50285E508
:1030A000C82E88E0D82E00E0760110E015C0F401AB
:1030B00025913491472D612F802F0E94881182E045
:1030C000880E911C73949CE07912F1CFE8E1EE0E2A
:1030D000F11C1F5F143019F04701712CE8CF0F5F0E
:1030E000F0E6CF0ED11C0430F9F60E94EF17CE01A6
:1030F00001967C018AE0F70111928A95E9F70BEDC0
:1031000011E04AE050E0B801C7010E946A35065F4D
:103110001F4F0B32F2E01F07A1F7B092E602A09218
:10312000E5022A96EDE00C94D93480E00E94AE11BD
:1031300060E086E290E00E9446350E943F180E94BF
:10314000781181E00E94AE110895CF92DF92EF9244
:10315000FF928FEF9FEF4430510508F46AC0FB01E6
:10316000C080D180E280F3800E941A158091EB022A
:10317000C0FA80F9B701A6017695679557954795EE
:1031800040FB81F9B701A60122E076956795579536
:1031900047952A95D1F740FB82F9B701A60133E0A4
:1031A00076956795579547953A95D1F740FB83F902
:1031B000B701A601E4E07695679557954795EA959E
:1031C000D1F740FB84F9B701A601F5E07695679544
:1031D00057954795FA95D1F740FB85F9B701A601B8
:1031E000A6E07695679557954795AA95D1F740FB48
:1031F00086F9B701A601B7E076956795579547958B
:10320000BA95D1F740FB87F98093EB028091EC02ED
:10321000D0FA80F9D1FACC24C0F8C0FA81F98093B1
:10322000EC028091EB029091EC020E94C71190E0B9
:1032300080E0FF90EF90DF90CF9008950E941A15E4
:103240002FEF84E39CE0215080409040E1F700C0E4
:10325000000088E19CE00FB6F894A8958093600088
:103260000FBE90936000FFCF882341F0809590912E
:1032700007048923809307040E9418140895882363
:1032800039F090910704982B909307040E9418142A
:103290000895882321F00E94530D0E941814089568
:1032A000882339F09091ED02982B9093ED020E94C3
:1032B00018140895882309F455C0823879F40E94BF
:1032C000FB0781FF4FC089E30E94880D0E941814FC
:1032D00089E30E947B0D0E9418140895833859F4E5
:1032E0000E94FB0780FF3EC083E50E94880D0E947C
:1032F000181483E5EECF843859F40E94FB0782FF4F
:1033000031C087E40E94880D0E94181487E4E1CF41
:103310009CEF980F913AE8F290E2980F983050F4B1
:10332000877091E001C0990F8A95EAF7892F0E9472
:10333000530DD1CF9BE5980F933028F490E080E0B7
:103340000E94E507089598E5980F973128F490E0DA
:1033500080E00E94CF070895803F20F00E94CD09B1
:103360000E94A6090895CF93DF93EC010E945A1999
:10337000CE010E94510E9E01205E31092830310598
:1033800010F0CD2B29F40E944919DF91CF910895B7
:103390000E943419FACFCF93C82F8823C9F08238FE
:1033A000C9F40E94FB0781FD13C089E30E94880DC8
:1033B0000E9418142FEF81EE94E02150804090403D
:1033C000E1F700C0000089E30E947B0D0E94181401
:1033D000CF9108958338A1F40E94FB0780FDF8CFB8
:1033E00083E50E94880D0E9418142FEF81EE94E06F
:1033F000215080409040E1F700C0000083E5E4CF19
:103400008438A1F40E94FB0782FDE2CF87E40E948A
:10341000880D0E9418142FEF81EE94E02150804017
:103420009040E1F700C0000087E4CECF8CEF8C0F16
:10343000813A68F4E6E9F1E08191C817E1F121E011
:10344000EC39F207C9F78C2F0E94880DBFCF80E2BC
:103450008C0F883068F4C77021E030E001C0220F83
:10346000CA95EAF78091ED02822B8093ED02AECFF0
:10347000EBE5EC0FE33040F4F0E0EE5DFE4F8081D1
:1034800090E00E94E507A4CFE8E5EC0FE73150F4A7
:10349000F0E0EE0FFF1FEB5DFE4F808191810E94F7
:1034A000CF0796CFC03F08F493CF8C2F0E94E80A35
:1034B0000E94A6098DCF8C2F0E947B0D0E941814AC
:1034C000C2CF1F93CF93DF93182FC091DA03D0910F
:1034D000DB03893321F0C091D803D091D903812F28
:1034E0000E94CB19209739F4812F0E945A19DF913D
:1034F000CF911F9108958FE99FE00197F1F700C0E8
:1035000000002197EFCF0F931F93CF93DF93C42F2A
:10351000D22FFC0182818823A9F04093E0030E940E
:10352000C3079093DF038093DE03C77081E001C07F
:10353000880FCA95EAF70E945019DF91CF911F9129
:103540000F9108951091E003141336C08091DE03AB
:103550009091DF030E94B4072091D2033091D303EE
:103560008217930748F5C0E2CD0F1D17B9F080E22E
:10357000810F883040F4177081E001C0880F1A95E0
:10358000EAF70E944919C83048F481E09D2F9770EE
:1035900001C0880F9A95EAF70E945019802F0E9467
:1035A000611AC83050F6D77081E001C0880FDA95F3
:1035B000EAF70E944919C1CFC77081E001C0880FA6
:1035C000CA95EAF7F6CFB0E0A0E0E9EEFAE10C9494
:1035D000C034EC018AE0A82E2881222309F48FC090
:1035E0002130C9F599818A81913021F422960E9477
:1035F000611A05C0923029F422960E94CB192196B7
:10360000EBCF933021F422960E945A19F8CF9430D0
:1036100011F02196F4CF229630E020E0AE014F5F0A
:103620005F4F8053990B8A30910550F0215031093A
:1036300030F38FE99FE00197F1F700C00000F6CF6B
:10364000A29EB001A39E700D11249C01260F371F6E
:103650008981EA01E3CFE22FF0E0E154FE4FB4901C
:10366000822F86958695869590E0FC01E155FE4F68
:10367000E4902770F12C022E02C0F594E7940A948E
:10368000E2F731E0E322FF24FC01E156FE4FC49053
:10369000D12C022E02C0D594C7940A94E2F731E0EF
:1036A000C322DD24FC01E157FE4F049110E002C06B
:1036B000159507952A95E2F701701127E114F10499
:1036C00019F081EE0E94CB19C114D10419F086EED5
:1036D0000E94CB198B2D0E94611AC114D10419F0DC
:1036E00086EE0E945A19E114F10419F081EE0E944D
:1036F0005A190115110509F482CF8CE278CFCDB7A4
:10370000DEB7EAE00C94DC34CF93DF93EC010E9447
:10371000510E9E01205E31092830310510F02097AE
:1037200041F40E9450198C2F0E94CB19DF91CF9148
:1037300008950E943F19F7CF662329F020910704CE
:103740002260209307049C013056211540E2340783
:1037500020F0305E2115304108F499270E94841B27
:103760000895B0E0A0E0E7EBFBE10C94C3347C01EA
:103770008B01D42E8091170182FF8CC0C091100361
:10378000D0911103CE15DF0521F0E114F10409F009
:1037900081C0809117018B7F8093170181FD73C0D9
:1037A00080910E0390910F03A801481B590B81E0F3
:1037B00020911501309116014217530708F480E05B
:1037C0008170F82E80911701F0FA81F9809317012A
:1037D000FE0183E0F695E7958A95E1F7EE71FF2704
:1037E000E251FD4F20813181AE014F70552781E0BC
:1037F00090E002C0880F991F4A95E2F7FF2009F474
:1038000044C0822B932B918380838091ED0281FFB2
:1038100008C08091170180618093170182E00E94A7
:10382000530D8091ED0285FF08C0809117018062E1
:103830008093170180E20E94530D6F2DCE010E94EC
:103840009C1BDD2031F08091D50385FF02C086FFEF
:103850003BC08091D8039091D9030E94280F80919A
:103860001003909111039C013056211540E234075A
:1038700020F0305E2115304108F499270E94B319D9
:103880000E9464141DC081E09BCF80959095822397
:103890009323B9CFC701992797013056211540E2EC
:1038A000340728F0305E2115304108F0C7010E942E
:1038B000B31980911003909111038E159F0501F3A8
:1038C00010930F0300930E03CDB7DEB7E7E00C941F
:1038D000DF3468EE7EEF90E080E00E94643560E0C7
:1038E00082E090E00E94463560E083E090E00E9434
:1038F000463510920A0260E084E090E00E9446356E
:1039000064E082E290E00E94463560E085E090E06D
:103910000E94463560E086E090E00E9446356FEFF9
:1039200087E090E00E94463540E050E0BA0188E030
:1039300090E00E94583560E08DE090E00E944635AE
:1039400040E050E0BA0188E190E00E94583560E024
:1039500087E190E00E94463540E050E0BA018CE1FA
:1039600090E00E94583570E060E080E290E00E94B4
:10397000643540E050E0BA0188E190E00E9458359B
:1039800080E00E94AE110E94951840E050E0BA011C
:103990008FE090E00E94583540E050E0BA0183E1AA
:1039A00090E00E9458350895A4E0B0E0EAEDFCE113
:1039B0000C94BF347C01FC0143815481618180817E
:1039C0000E9408088111D3C061E0C7010E94F51070
:1039D0008C01F7018281882309F43FC7C801825115
:1039E0009F45409708F0D4C68FEF93E00E94323590
:1039F0008111AEC06EEED62ED00E0BE212E0D110C9
:103A000036C019821A821B821C8299249A946801FA
:103A10002FEFC21AD20AC8010E94323589831A8256
:103A2000882309F495C0813009F087C0580132E03D
:103A3000A30EB11CC6010E943235C82E8A8388238A
:103A400009F486C0C5010E943235D82E8FEF8C0D47
:103A50008330D8F4580143E0A40EB11CDB82DD2092
:103A600021F0CE0101960E94E31A8501D0CF011505
:103A7000F4E01F0709F46CC0C8010E9432358111BF
:103A800001C0DA940F5F1F4FBACF8BEF8C0D8330DC
:103A900070F5C8010396DB825C01DD2031F358012B
:103AA00054E0A50EB11C0E9432358C838823E9F2C4
:103AB0000B811C8101308FEF180710F0102F0027A9
:103AC00096E0C91681F0E7E0CE1649F0C8010E94E1
:103AD000AE2A8091D8039091D9030E94280FC80183
:103AE0000E94892AC2CFC8010E94AE2ABECFF4E04C
:103AF000CF12BBCF580124E0A20EB11CC80103961F
:103B00000E943235DD2021F1882311F18150990B7B
:103B1000989E9001999E300D11244D2D4150550BCA
:103B2000CA01820F931F019708F49FCFEFE9FFE0CE
:103B30003197F1F700C00000F6CFCE0101960E9448
:103B4000E31A560192CF81E00E94F2140E94A81459
:103B50008091FE01877059F0F7018281882339F046
:103B60008091EC0282FF03C082E00E94C11424967F
:103B7000EBE00C94DB3481E00E94B414E7CF82E0E8
:103B8000E3CF8091170181608093170138C680913F
:103B900017018E7F809317010E94641430C68091B4
:103BA00017018F7E013E110531F0053E1105C1F46C
:103BB000809117018F7D809317018091170180FFFD
:103BC0002DC6F70182810832110528F50E31110545
:103BD00008F074C00430110580F581111BC61EC6A3
:103BE000C80190568115E0E29E0720F0905E811595
:103BF000904118F78091170182FF10C68091D7037A
:103C000081FD0CC620E232E040E0B60190E080E0A9
:103C10000E94B11B03C60933110558F40D3211057A
:103C200018F40B321105C9F69091D50392FDD5CF4A
:103C300008C004361105C1F3D0CF9091D50394FD8F
:103C4000CCCF882309F4A1C09091ED0280910902A4
:103C5000282F292B322F3D7FB1F1109211031092A2
:103C600010033091D50331FD2EC0F80143E0F695E5
:103C7000E7954A95E1F7EE71FF27E251FD4F980174
:103C80002F70332781E090E002C0880F991F2A959A
:103C9000E2F780959095208131818223932391834F
:103CA000808360E0C8010E949C1B809109028D7F87
:103CB0000E943F0D82E00E94C1144ACF9091D5032B
:103CC00093FD8BCFBECF38E0F701A0E2B2E00190C8
:103CD0000D923A95E1F7109222021092240210926E
:103CE0002302A0901003B09011030A151B05B1F533
:103CF0003091D50335FF32C04091170141FB992423
:103D000090F841FF02C036FF29C040910E03509148
:103D10000F03B601641B750B4091D2035091D3037E
:103D200064177507D8F491FF08C08091170180616E
:103D30008093170182E00E94530D8091ED0285FF70
:103D400008C08091170180628093170180E20E9471
:103D5000530D692DC5010E949C1BFACE909117014D
:103D600021FB91F9909317018D7F0E943F0D1093D5
:103D7000110300931003D0920F03C0920E038091A1
:103D8000170184608093170195CF970140E0B60139
:103D9000C8010E94B11BDCCE053F8CE5180709F471
:103DA0005FC008F457C0063FECE51E0709F45EC08B
:103DB000F7013281332309F45CC51092E00303302C
:103DC000FDE51F0708F05EC00A3F2CE5120730F43E
:103DD000C80182509C45449708F05EC00E941C11A7
:103DE0009093EC028093EB0201318CE5180709F403
:103DF0004DC108F0C3C00930ECE51E0709F434C119
:103E000008F091C005302CE5120709F425C108F02F
:103E100076C003304CE5140709F416C108F018C148
:103E200002308CE5180709F409C18091EB029091EA
:103E3000EC020E94C7110E941A158ACE07E225EEF5
:103E400045EE68ED7CE505C506E221EE40EE63EF48
:103E50007CE5FFC407E225EE44EE64EF7CE5F9C49F
:103E600006E221EE42EE65EF7CE5F3C407E225EEC3
:103E700046EE66EF7CE5EDC408E221E045EE69ED33
:103E80007CE5E7C401364DE5140709F4A7CF053AF0
:103E90005DE5150709F4A2CF06319CE5190709F085
:103EA000C7C18091ED02982F9A7A2091D40320FF08
:103EB00004C0482F447409F090E021FF04C0482F4B
:103EC000417109F090E022FF04C0482F487809F0C2
:103ED00090E023FF03C0827209F090E0332309F4DD
:103EE000FFC081E0911101C080E080939C0189E2D4
:103EF000911185E30E94880D0E94181429CE8091AB
:103F0000EB02806207309CE5190709F49AC08091A2
:103F1000EB0280610830ECE51E0708F492C0809146
:103F2000EB0280648EC08091EB028B7F0D30FCE54C
:103F30001F0709F486C0A0F48091EB028E7F0B303E
:103F40003CE5130709F47DC08091EB028C600C30D6
:103F50004CE5140708F475C08091EB028D7F71C0A9
:103F60008091EB028F7E0F305CE5150709F469C084
:103F700008F480C08091EB028F7D63C00D3F9CE50B
:103F8000190709F47FC058F50531FCE51F0709F44E
:103F900087C098F48091EB02837F03313CE51307DF
:103FA00009F44FC008F476C00E941A159091EB02F4
:103FB000892F97FB87F9805844C00B3F5CE51507B4
:103FC00009F44EC008F05AC08091EC0281600A3FAB
:103FD0009CE5190709F029CF8093EC0226CF013028
:103FE000EDE51E0709F468C0C0F48091EC028C7FF7
:103FF0000F3F2CE5120781F38091EC0283600115DD
:104000003DE5130748F38091EC02982F909591704D
:104010008E7F892B90FB81F9DFCF01364DE51407A8
:1040200009F450C0053A5DE5150709F452C00230A5
:104030008DE5180709F0F9CE60E03FC08091EB02F2
:1040400081608093EB02F1CE8091EB028260F9CF28
:104050008091EB028460F5CF8091EB028860F1CF14
:104060008091EC028260B8CF0E941A158091EB0219
:104070008068E7CF8091EB02877FE3CF8091EC02ED
:104080008E7FAACF8091EC028D7FA6CF8091EB022C
:104090008F7BD7CF0E941A158091EB028F77D1CFFB
:1040A0008091EB0282FB992790F921E0922790FB07
:1040B00082F990FB83F9C5CF61E08EE090E00E9429
:1040C0004635B3CE9091EB02892F8F7E94FF8061AD
:1040D000B8CF9091EB02892F8E7F90FF8160B1CF96
:1040E00080919C01811104C089E20E947B0D04CF64
:1040F00085E3FBCF073C9CE5190709F47AC008F477
:1041000073C0083CFCE51F0709F478C043E752E19F
:1041100060E872E1093C2CE5120709F0CCC30E946B
:10412000FA0816CD0F3C3CE5130709F47EC0B0F445
:104130000C3C5CE5150709F470C008F469C00D3C3F
:10414000ECE51E0709F46EC065E082E00E3CFCE57C
:104150001F0709F0B0C30E943613FACC063D2CE5C8
:10416000120738F46EE089E0013D3CE5130798F34F
:10417000EFCC0D35100709F4EBCC9DC38091900274
:1041800080FF1BC08E7F809390026091900270919F
:10419000910280919202909193020E9419121092C2
:1041A0004D025FEF80E792E0515080409040E1F790
:1041B00000C000000E94320FCBCC8160809390023F
:1041C00061E086950E94DF12C3CC41E253E16BE2CD
:1041D00073E1A5CF4BE253E161E273E1A0CF47EA7F
:1041E00052E161EB72E19BCF41EB52E167EA72E190
:1041F00096CF4DE852E16AE972E191CF4AE952E186
:104200006DE872E18CCF40E852E163E772E187CF5D
:104210004BEB52E16DEC72E182CF4DEC52E16BEB76
:1042200072E17DCF61E081E0CDCF68E086E093CFA1
:104230000A35EDE51E0771F158F401152CE512075A
:1042400091F00E3D1C4509F036C30E94691C09C05F
:104250000C354DE51407A1F0F8F0073A1D4509F0BB
:104260002AC30E941E190E941A159FEFE4E3FCE086
:104270009150E040F040E1F700C000000E94040FC0
:104280008091EC0282FB882780F991E089270E94C7
:10429000DD1411C381E0FBCF80E0F9CF8281008182
:1042A0001181882369F0C8010E948710D82E682FD9
:1042B000C8010E94FF0DB8018D2D0E946A1001C334
:1042C000C8010E94CB0DD82EF6CF202F2F70B22E12
:1042D000802F807F19F0B29490EFB922DD20B9F0E1
:1042E000BB2069F080E2810F883010F0111109C005
:1042F0008091ED02B82AB092ED020E941814812F2D
:1043000058C080910704B82AB0920704F6CF812FD5
:104310000E945A19BB2009F44EC080E2810F8830F8
:1043200010F0111104C08B2D0E94530D06C0B094E3
:1043300080910704B822B09207040E9418143BC071
:10434000302F3F70B32E802F807F803219F0B294CF
:1043500080EFB8221123E9F0113009F4A8C0DD2064
:1043600009F4B1C0CC2009F479C020E0F701408104
:1043700051816281738184810E94D2108091D70320
:1043800081FDBDCFF701858180FFB9CF8F70858317
:1043900065C08091EC0282FD41C0DD20C9F1BB20E7
:1043A00039F08091ED02B82AB092ED020E94181403
:1043B00080E00E94CB19E92DE850FF0B349710F4F0
:1043C0000E94FB07812F902F0E94360E8111C1C1E0
:1043D00010929F0110929E01AA20A9F08091FE01E7
:1043E00080FD11C0F70112828595859585950E9403
:1043F000F214C7010E94D41C8091FE018595859519
:1044000085950E94B41460E0C7010E94F510AFCBFF
:1044100080E00E945A19BB2071F285CFDD2011F196
:10442000C11004C0809109028B2919C041E0C41257
:1044300006C0809109028B290E943F0DBCCF80915C
:10444000D603823078F3C812EDCF0E94340D9091DC
:104450009D018B2D892B891380939D018B2D0E94AB
:104460005019A9CFC11003C00E94340D17C080910C
:10447000D60351E0C51216C0823008F49CCF80915B
:10448000ED028B2109F497CF0E94340D90919D018C
:104490008B2D80958923891380939D018B2D0E94FC
:1044A000491989CF823000F3C812DECF84CF8091C2
:1044B000DC03DD2021F08C1508F47DCFCFCFC816AA
:1044C00008F079CFEBCFCC2049F38091DA039091BB
:1044D000DB03193321F08091D8039091D9030E9416
:1044E000280F812F0E945A1966CF802F86958695B6
:1044F000837069F0813009F05ECF812F902F937027
:10450000D11002C090E080E00E94CF0754CF812FED
:10451000902F9370D11002C090E080E00E94E507D8
:104520004ACF812FDD2029F00E94E80A0E94A609C7
:1045300042CF0E94CD09FACF802F837091F5D11020
:104540003ACF412F429546954770440F440F812F33
:104550008F70042E01C0880F0A94EAF7212F207172
:1045600014FF07C02FE030E001C0220F4A95EAF7A0
:104570002095302F369536953370323069F050F4EF
:1045800040910A02313029F0822B84230E941515B4
:1045900012CF842B822BFACF282B80910A028227FC
:1045A000F5CF8695DD2011F0802F8170882309F4E6
:1045B00002CF412F429546954770440F440F812FFB
:1045C0008F70042E01C0880F0A94EAF7212F207102
:1045D00014FF07C02FE030E001C0220F4A95EAF730
:1045E0002095302F369536953370323069F050F47F
:1045F00040910604313029F0822B84230E94A314B9
:10460000DACE842B822BFACF282B809106048227C6
:10461000F5CFF02FFF70BF2EDD2029F08F2F0E94E5
:10462000F214812F1CCF812F0E9449198B2D0E94DB
:10463000B414C1CE123F89F160F4103FB9F0113FBC
:1046400081F0DD2009F480C0C11059CE802F8F7118
:1046500028C0133F49F1143FA1F78091EC0282FD7D
:104660002FC0802F8F71DD2011F31BC08091DC03E0
:10467000DD2079F0C81608F09ECE202F2F7181E042
:1046800090E001C0880F2A95EAF7909106048927E7
:10469000B5CF8C1508F48FCEF0CF802F8F71D1104D
:1046A000C6CF0E94F21487CE80E0DD2009F4A6CFA9
:1046B00081E0902F9F7101C0880F9A95EAF79ECFF5
:1046C0008091D603823040F1DD20D1F09091FE013F
:1046D0009770943041F40E945A0D802F8F710E9480
:1046E000B414A12C68CEC816E0F7202F2F71B22E7B
:1046F000822F0E94F21463E08B2D0E94FE14F1CFF2
:10470000C81630F00E945A0D64E0802F8F71F5CFEB
:1047100081E00E94C114E5CFDD2059F0302F3F71B8
:10472000B32E832F0E94F21463E08B2D0E94FE149F
:1047300042CE81E00E94C11441E04C1508F03BCE0E
:1047400082E00E94C11437CEC110BFCE802F8F717E
:104750006ECFDD2019F0C1103BCE3ECEC11038CE59
:1047600020E0F701408151816281738184810E9440
:10477000D2108091D70383FF2BCE80919E01909120
:104780009F01029709F024CE812F0E94611A20CE4A
:104790000031FFE51F0709F4D6C901312FE51207E3
:1047A00009F4EDC98091D50380FF38C00E94C3078A
:1047B0006C01F7018281882309F4F1C98091170106
:1047C00082FF08C020E232E040E0B60190E080E0E5
:1047D0000E94B11B0B31FCE51F0709F4D2C90C3153
:1047E0002CE5120709F4D3C990911701892F8E7F08
:1047F00090FF81600A313CE5130709F4CBC9C80179
:104800009056811540E2940728F0905E8115904102
:1048100008F0D3C91092110310921003033FFCE576
:104820001F0709F411CB08F0B7CA083D3CE5130790
:1048300009F404CB093D4CE5140709F41DCB073DF1
:104840005CE5150709F0B4CA06E221EE41EE67ED1A
:104850007CE5C7010E94831A7BC900313FE513073D
:1048600009F489C901314FE5140709F09BCF82E0B3
:1048700083C906315CE5150709F413CB8091ED027D
:1048800082720A3CECE51E0709F4BDCC08F04ACC64
:10489000053C2CE5120709F4A2CC08F02BCC033C14
:1048A0004CE5140709F491CC08F094CC023C8CE55B
:1048B000180709F463CCF70186819781009709F402
:1048C000EDCC0E94AC0B182F092FF701D280C580C8
:1048D000C2943FE0C3228091FE018770C1F0AD2CED
:1048E000DD20B1F0892F807F803421F080E2810FBC
:1048F000883068F08091EC0282FF09C082E00E945B
:10490000C1148091FE018770AA24A3948111A12C67
:10491000902E92942FE09222FBE0F91508F44BCDF3
:10492000E92DF0E0E257FA4C0C94AB34B0E0A0E093
:10493000ECE9F4E20C94C2348091B701807F31F449
:104940008091B401C091FB01811107C0CDB7DEB7E2
:10495000E8E00C94DE342196C7708091BA018C1780
:10496000A9F3F090B201E090B301C090B501D090EE
:10497000B601A6016E2D8F2D0E940808D0E081118E
:10498000EACF8E0183E0000F111F8A95E1F7F8014D
:10499000E554FE4F81818E11DECF80818F11DBCFF8
:1049A00082818111D8CFE380F480EC18FD0860E0AB
:1049B00082EB91E00E94F5108091D2039091D30395
:1049C000E816F90640F68091B7018F7080618093F8
:1049D000B701F801E054FE4F80818F7080618083C1
:1049E00082EB91E00E94D41C0E94C10DAFCFA5E1E3
:1049F000B0E0EDEFF4E20C94B9348C0185E0F801FD
:104A0000DE01519601900D928A95E1F7D8014C9004
:104A100011965C9011971296EC9012971396CD9088
:104A2000DC9060E082EB91E00E94F51082EBA82E12
:104A300081E0B82E8090B5019090B601A4016091FC
:104A4000B3018091B2010E9408088111B6C1F090B3
:104A5000B401F601E819F9094F0160E0FF2009F4FB
:104A600059C1C5010E94F5106090D2037090D30324
:104A70003090B7018614970408F0FFC04091B5014B
:104A80005091B601B090B201A090B301832D807F08
:104A90006A2D09F099C08B2D0E940808FE2C811107
:104AA00027C0D80111968C9111978A1121C08C9141
:104AB0008B111EC02091B8013091B90116968D91CD
:104AC0009C9128173907A1F4E11012C0832D8F7033
:104AD00080618093B70182EB91E00E94D41C8091A9
:104AE000B701F80185838F2D6596E1E10C94D534EB
:104AF000F4EF6F16F1E07F0620F48091D70380FF7A
:104B000021C0A601652D842D0E940808811118C0BE
:104B100081E08E2580FF16C04E2D652D842D0E94CC
:104B2000A10D882379F082EB91E00E94D41C88E0EB
:104B3000E2EBF1E0DF011D928A95E9F7F12CD3CF8A
:104B400080E0E8CFA601652D842D0E940808811120
:104B500024C081E08E25B82FB170CB2E80FF2BC0F2
:104B60004E2D652D842D0E94A10DD82E811123C0BC
:104B7000498A5A8A89899A890E94B610292F2295D2
:104B80002F70223060F0243088F49F7061F0F801BB
:104B90009581907F41F4FD2CA6CF80E0DCCF9F7003
:104BA00011F08823C1F3805E8830A8F3C8010E9409
:104BB000D41CDC2CF0CFEE2009F495CF8091B70106
:104BC00081608093B701BACF8B2D0E9408088111B4
:104BD00024C0D80111968C9111978A111EC08C9116
:104BE0008B111BC02091B8013091B90116968D919F
:104BF0009C9117972817390781F4E1100EC015967C
:104C00003C92C8010E94D41C88E0F801A2EBB1E0FC
:104C100001900D928A95E1F766CFC8010E94C310FA
:104C2000882339F1EE2029F18091B7018032A0F07C
:104C30002091B2013091B3013A8729871B86DD8626
:104C4000CC868E878091B8019091B901988B8F871F
:104C5000CE0109960E94D41C88E0F801A2EBB1E0D5
:104C600001900D928A95E1F70E949624FF24F39417
:104C70003ACFC8010E94D41CF9CF832D807F09F45C
:104C800052CF9090B2018090B3014091B501509104
:104C9000B601682D892D0E94080881111CC0F801F9
:104CA0008181881118C08081891115C02091B801B7
:104CB0003091B901868197812817390761F4E11095
:104CC0000AC03582C8010E94D41C88E0D5011D921B
:104CD0008A95E9F708CFC8010E94C310882349F2DA
:104CE000EE2039F28091B701803208F4B5CF2091DF
:104CF000B2013091B3013A8329831B82DD82CC82D9
:104D00008E838091B8019091B90198878F83CE01ED
:104D10000196A0CF82EB91E00E94F5108091D20322
:104D20009091D3038816990680F6FE2CEE2009F4A4
:104D3000A0CFE090B201D090B3014091B501509165
:104D4000B6016D2D8E2D0E940808811128C0F80132
:104D500081818D1124C080818E1121C02091B801E4
:104D60003091B9018681978128173907C1F4809164
:104D7000D70382FD49CF9091B70190FD45CF907F39
:104D800009F442CF8091B7018583903F09F439CF70
:104D9000982F907F905F8F70892B858332CFC801C9
:104DA0000E94C310811158CF8091B7018160809318
:104DB000B701C8010E94D41C96CEEE2009F459CF49
:104DC000C8010E94C310F82E882309F452CF88E04E
:104DD000F801A2EBB1E001900D928A95E1F7809184
:104DE000B2019091B3010E94B6100E9496247BCE2E
:104DF000A0E1B0E0EEEFF6E20C94C83429873A87E0
:104E00004B875C876D877E878F87988BCE0109964D
:104E10000E94F72481112FC088E0FE013996DE013F
:104E2000119601900D928A95E1F74C855D856A8512
:104E300089850E94080881111EC0A091BA01B0E0C6
:104E4000CD010196877099272091FB01281719063B
:104E5000E1F093E0AA0FBB1F9A95E1F7A554BE4F6E
:104E600098E0FE01319601900D929A95E1F78093BA
:104E7000BA010E94C10D8091FB019091BA01891382
:104E800012C06096E2E00C94E4340E941A1510926D
:104E9000BA011092FB0188E0E2EBF1E0DF011D9224
:104EA0008A95E9F7E8CFB8E08B9FC00111248554BB
:104EB0009E4F0E94F724882321F38091FB0190E00C
:104EC0000196877099278093FB01D5CFEF92FF92CF
:104ED0000F931F93CF93DF9380911503882361F085
:104EE000C09114038CE0F82E80911503C81748F088
:104EF0001092150310921403CDB7DEB7E6E00C94C0
:104F0000E034EE24E394EC0EE09214030C2F10E056
:104F1000CF9DE0011124CA5EDC4F4B815C81698129
:104F200088810E94080881111DC08E819F81892B74
:104F300021F488859985019651F4288139814A8127
:104F40005B816C817D818E819F810E94F826F09E1D
:104F5000F001F19EF00D1124EA5EFC4F14821382E1
:104F600010920704CE2DC0CF1092B9031092B8034F
:104F7000109218018091B7038093B6030E944108F4
:104F80000E9466270895B0E0A0E0E9ECF7E20C94F7
:104F9000B934C091B60397E0892E01E010E02CE00F
:104FA000322E3EEF932E442443948091B7038C130A
:104FB00009C00E9466270E944108CDB7DEB7E1E133
:104FC0000C94D534D0E0FE01EE0FFF1FE255FC4FEC
:104FD00080819181889ED001899EB00D1124AA58AC
:104FE000BC4F14962C911497211158C05090150362
:104FF000E6E1F3E030E020E0712C5D01251508F0DA
:105000004BC0E284F384D501CD90DC906FEF7FEF4D
:10501000612C462D50E0DA01AA0FBB1FAC0DBD1D5F
:105020000D90BC91A02D109731F0EA16FB0609F403
:10503000BA016394EECF6F3F7607A9F1D80102C0A1
:10504000AA0FBB1F6A95E2F77A2AB801062C02C0A4
:10505000660F771F0A94E2F7AB01415051097416AD
:105060001506F9F4329EF001339EF00D1124EA5E2C
:10507000FC4F889ED001899EB00D1124AA58BC4FC8
:1050800012962D913C9113973783268390829182BB
:105090009187808715964C920E9413082196C370C1
:1050A00084CF148213822F5F3F4F3C96A7CFA9E194
:1050B000B0E0EDE5F8E20C94B834942F498B252F3D
:1050C0005A8B6B8B7C8B8D8B4C895D89622F892FE2
:1050D0000E940808811109C080919E0190919F0152
:1050E000019690939F0180939E018B89811110926C
:1050F00007041D861E861F86188A85E0FE017196AC
:10510000DE01199601900D928A95E1F78091EC02EB
:1051100082FF1EC08091BC039091BD03892BC1F01A
:105120000E94C3072091FC013091FD01821B930B6B
:105130002091BC033091BD038217930720F080912A
:10514000FE0182FFE2C10E94610D81110E94340DB7
:105150004C855D856A8589850E940808811111C08A
:1051600061E0CE0109960E94F5106C018B8527EF56
:10517000C2162CE5D20681F4882321F181E08093C8
:10518000180129853A854B855C856D857E858F85DF
:1051900098890E94F826C6C038EFC3163CE5D306AE
:1051A00029F4882379F00E94B427EBCF49EFC41685
:1051B0004CE5D40639F4882329F080911801811137
:1051C000F2CFDCCF06E713E0512CB12CA12C222426
:1051D0002394312C2EEF422EF801408151818824F6
:1051E0008A94982C20E0822F90E0FC01EE0FFF1FA4
:1051F000E40FF51F608171816115710531F0C616EC
:10520000D70609F44C012F5FEECFF12CFFEF8F167C
:105210009F0609F449C0F8014481F09018018F2DD0
:10522000411180E0F82FF170FF2EF801E5808681B2
:105230009B85992309F4F8C0FF2009F4F5C060901C
:10524000D0037090D103E11013C0A101082C01C05C
:10525000440F0A94EAF7842B86838091120390917D
:1052600013038615970520F47092130360921203BE
:10527000C10102C0880F991F2A95E2F70197F80132
:1052800026812817190681F48091B8039091B903FB
:10529000009709F44BC00E94B4076816790608F01D
:1052A00045C021E0F80124835F28FFEFAF1ABF0A51
:1052B000095F1F4F28E0A216B10409F08DCF8B853E
:1052C000882309F40DC1552009F40AC10E94C307BF
:1052D0009093B9038093B80380911503883010F53B
:1052E00091E0980F9093150398E0FE013996DE0146
:1052F000119601900D929A95E1F73CE0839FC001D1
:1053000011248A5E9C4F28E0FE013196DC01019059
:105310000D922A95E1F72FEF3FEFFC0131872087AF
:10532000D386C2866996E2E10C94D4348091B603A8
:105330005091B703982FF0E0E0E0851314C09093EC
:10534000B603E017F10709F4AFCF90E0FC01EE0FD0
:10535000FF1FE255FC4FB182A0820196837099270E
:105360008093B703A1CF682E712CF301EE0FFF1FBE
:10537000E255FC4F2081318147E0429FD001439F9D
:10538000B00D1124AA58BC4F6D917C911197798F63
:10539000688F40E020E030E0E32FF0E0EE0FFF1FE9
:1053A000688D798DE60FF71F8080918081149104BC
:1053B000E1F0F8010190F081E02DFF8BEE8B20E011
:1053C00005C08616970609F44F2D2F5FE22FF0E0F7
:1053D000EE0FFF1F6E897F89E60FF71F60817181D5
:1053E0006115710571F73F5FD7CF4423D1F0F80104
:1053F000231708F0FD0121E024830E171F0721F475
:105400009093B603F42E50CF981305C0AE17BF0784
:1054100011F49F5F937093012F5F3F4F822F837032
:105420008CCFF0E0E0E0F7CF90E0E11020C0B101D8
:1054300002C0660F771F2A95E2F79B0121503109C0
:105440008217930731F4442309F448C0C5010E9430
:105450001308C101082C01C0880F0A94EAF7982F9D
:105460009095F801868189238683FE2C1DCF9C01AF
:10547000082C02C0359527950A94E2F7A9014170DE
:105480005527BC016150710986239723892B11F59B
:10549000452B01F1F80182819381892BC1F01B8298
:1054A0001C821D821E8249824A820E94C30781603B
:1054B000582F9D838C83F801828193818F839887F5
:1054C00029813A814B816D817E810E94F826F80105
:1054D0001582BFCFF22FF170EF2EBBCFEF2CB9CFDB
:1054E0009091B6038091B703981731F00E94C327BB
:1054F000552009F446CE16CF0E9466271092B903B4
:105500001092B8030E944108F3CF82E00E94C114B8
:105510001ACEA5E0B0E0EFE8FAE20C94C83490931C
:10552000E8028093E702811520E2920730F40E949E
:10553000B3192596E2E00C94E43480EF89838A83E2
:105540001B820E94C3078160782F9D838C834981D1
:105550005A816B818D810E945728EBCFA5E0B0E086
:10556000E4EBFAE20C94C8349093E8028093E702EB
:10557000811520E2920730F40E94841B2596E2E018
:105580000C94E43480EF89838A8381E08B830E94CA
:10559000C3078160782F9D838C8349815A816B81F9
:1055A0008D810E945728EACF90E080E00E9440352C
:1055B000883E9E4F19F40E940311089580E00895DB
:1055C0001F920F920FB60F9211242F933F934F9378
:1055D0005F936F937F938F939F93AF93BF93CF937B
:1055E000DF93EF93FF93D091E900DF708091EC009F
:1055F000C82FC17080FDC0E81092E9008091F000D2
:10560000877F8093F00078940E9426151092E9001D
:105610008091F00088608093F000CD2BCF70C09314
:10562000E900FF91EF91DF91CF91BF91AF919F91F1
:105630008F917F916F915F914F913F912F910F903B
:105640000FBE0F901F9018951F920F920FB60F92DA
:1056500011242F933F934F935F936F937F938F9377
:105660009F93AF93BF93EF93FF938091E10082FFED
:1056700009C08091E20082FF05C08091E1008B7F2C
:105680008093E1008091DA0080FF24C08091D800EF
:1056900080FF20C08091DA008E7F8093DA008091B5
:1056A000D90080FF9DC080E189BD82E189BD09B438
:1056B00000FEFDCF81E0809305048091EF0381110E
:1056C00009C00E9404060E94F7068091E2008460EF
:1056D0008093E2008091E10080FF17C08091E2009A
:1056E00080FF13C08091E2008E7F8093E200809162
:1056F000E20080618093E2008091D8008062809314
:10570000D80019BC85E0809305048091E10084FFF6
:105710002BC08091E20084FF27C080E189BD82E137
:1057200089BD89B5982F917080FFFBCF8091D800FB
:105730008F7D8093D8008091E1008F7E8093E1007F
:105740008091E2008F7E8093E2008091E200816090
:105750008093E2008091FC03882309F447C084E031
:1057600080930504809105048091E10083FF27C0A8
:105770008091E20083FF23C08091E100877F8093C6
:10578000E10082E0809305041092FC038091E10027
:105790008E7F8093E1008091E2008E7F8093E20013
:1057A0008091E20080618093E20042E060E080E06E
:1057B0000E94C5068091F00088608093F000FF9100
:1057C000EF91BF91AF919F918F917F916F915F9179
:1057D0004F913F912F910F900FBE0F901F901895F2
:1057E00019BC109205041092EF0374CF8091E3006E
:1057F00087FD93E090930504B5CF78941F921FB670
:105800001F9211248F939F93AF93BF938091E803CE
:105810009091E903A091EA03B091EB030196A11DD9
:10582000B11D8093E8039093E903A093EA03B0933A
:10583000EB03BF91AF919F918F911F901FBE1F905F
:1058400018951F921FB61F9211248F939F93AF93A9
:10585000BF938091E703811113C08091E803909179
:10586000E903A091EA03B091EB034196A11DB11D9C
:105870008093E8039093E903A093EA03B093EB03CA
:10588000BF91AF919F918F911F901FBE1F90189550
:10589000CDB7DEB7E6970FB6F894DEBF0FBECDBF2B
:1058A00085B7806885BF85B7806885BF84B7877FE7
:1058B00084BF0FB6F894A8958091600088618093AA
:1058C0006000109260000FBE80E890E00FB6F89480
:1058D00080936100909361000FBE80E59BE0909300
:1058E0009301809392010E94D5110E9415100E948D
:1058F00004060E94F7068091E20084608093E20033
:105900007894809105048823A1F01091E9001F701C
:105910009091EC00892F817090FD80E8182B1092F7
:10592000E9008091E80083FD0E9426151F70109306
:10593000E90082E084BD93E095BD9AEF97BD809326
:105940006E000E940311811102C00E94951881E32C
:105950000E94520B80E30E94520B86E90E94520B78
:1059600084E90E94520B07E511E073E6E72E71E02F
:10597000F72ED8018D918D018F3F11F00E94520BAF
:10598000E016F106B1F788E0E1E3F2E0DF01282F4D
:105990001D922A95E9F7EEE0F2E0DF011D928A956B
:1059A000E9F70E94D42A811102C00E94691C82E09A
:1059B00090E00E943235809317020E941C11909350
:1059C000EC028093EB020E945613EFE3FCE931975F
:1059D000F1F700C000000E9456138091310280FF51
:1059E00008C06FEF7FEF90E080E00E9464350E9476
:1059F000040F83E090E00E9432350E9415158091DB
:105A00001602811133C00E94D42A811104C00E9461
:105A1000691C0E94461388E090E00E943A3560932A
:105A200090027093910280939202909393026E7F02
:105A300071F40E94461388E090E00E943A3560932A
:105A400090027093910280939202909393020E942D
:105A5000010910924D028091900280FF04C060E025
:105A600086950E94DF1281E08093160281E0809388
:105A70002A0222982A9A23982B9A8FE891E001977C
:105A8000F1F700C0000020912A024BE252E0FA0137
:105A90008E2F841B821708F4EDC080E091E0909374
:105AA000E4038093E3038E010F5F1F4F5E0191E2D9
:105AB000A90EB11C8091050450E1E52E62E1F62E9D
:105AC000853009F41CC10E945613882359F08FB702
:105AD000F8944091E8035091E9036091EA037091D2
