:100000000C94B5030C94ED030C94ED030C94ED03E8
:100010000C94ED030C94ED030C94ED030C94ED03A0
:100020000C94ED030C94ED030C94F0290C94AC2982
:100030000C94ED2A0C94ED030C94ED030C94ED0359
:100040000C94ED030C94ED030C94ED030C94ED0370
:100050000C94ED030C94C92A0C94ED030C94ED035D
:100060000C94ED030C94ED030C94ED030C94ED0350
:100070000C94ED030C94ED030C94ED030C94ED0340
:100080000C94ED030C94ED030C94ED030C94ED0330
:100090000C94ED030C94ED030C94ED030C94ED0320
:1000A0000C94ED030C94ED030C94ED03050109028F
:1000B000A10185020901A100050919012905150001
:1000C00025019505750181029501750381010501E1
:1000D000093009311581257F950275088106093897
:1000E0001581257F950175088106050C0A380215D2
:1000F00081257F950175088106C0C005010980A191
:1001000001850319012AB700150126B7009501756D
:10011000108100C0050C0901A101850419012AA064
:1001200002150126A002950175108100C005010984
:1001300006A1018506050719E029E71500250195A7
:1001400008750181020507190029EF1500250195A1
:10015000F0750181020508190129059505750191C0
:1001600002950175039101C00660FF0961A10109B3
:1001700062150026FF0095207508810209631500AD
:1001800026FF00952075089102C005010906A1010E
:10019000050719E029E71500250195087501810279
:1001A0009501750881010507190029FF150026FF33
:1001B0000095067508810005081901290595057542
:1001C000019102950175039101C00000000000003B
:1001D000000000000000000000000000000000001F
:1001E00000000000000000000000000000007E0F82
:1001F00000D4FFFFFFC700000078000000000000EF
:1002000000002A2B28000000000000000000000071
:10021000000000000029000000002C1E34202122D4
:1002200024342627252E362D3738271E1F2021223D
:10023000232425263333362E37381F0405060708B6
:10024000090A0B0C0D0E0F101112131415161718A6
:10025000191A1B1C1D2F3130232D350405060708E4
:10026000090A0B0C0D0E0F10111213141516171886
:10027000191A1B1C1D2F3130354CFD377A585A0086
:100280000004E6D6B4460200210116000000742FD7
:10029000E5A3E002C9012A5D003D8889C65436C342
:1002A000174FE4DC319A45C2BB5CD28A4320B9EED9
:1002B000CE329A886DBF4647FD144DAED825A4E6D0
:1002C000B4B7946A2F303E8A6B6DD6ACA92F4E79A5
:1002D00095823B94D630EF169E5F06FF7B2CFF2B5A
:1002E000E3E531D18877EA31F84DCD20FBBA8A2594
:1002F000F5ED0659D416E998DD7C441602F8692913
:10030000BA59FBD9842D93D04249A776E22C953F68
:10031000BA2E99B947144E9D6FF2ACEE9D95579346
:10032000B406581F7A99E3BB4AF119135F3699CD89
:100330008CEA0CC2FEF61073C2D635B76B9486A059
:1003400097BEA847CB5C4F304B31BC838171E380B3
:10035000CA7637FCA08FFF6D563DC2B937D463888B
:10036000063CBD86E62A482B5C0C4E8BB723F585F0
:1003700003AFD4D3AA6978C82E78EE8B0542AD05B9
:10038000D65626D7DAB00AE033089D3F202F8B3EA1
:10039000B13EECB6445065B30662E59BFAE5728E59
:1003A00000D01AAD4B6D5931EF80BEACEE9E13708C
:1003B000FE4EAF63E5C849C65F0B87EF6470E60287
:1003C000C574E30000003A22B47185E3B67B0001F6
:1003D000C602CA0500009DB61F61B1C467FB0200DA
:1003E00000000004595A45003A003B003C003D0023
:1003F0003E003F00400041004200430044004D00E9
:10040000A800A9002B0014001A000800150017000E
:100410001C0018000C00120013002A004C004800B9
:10042000AA00290004001600070009000A000B00BA
:100430000D000E000F0033003400E1001D001B0012
:1004400006001900050011001000360037003800C2
:1004500028625200500051004F00E000E300E2002B
:100460002C41E300E2003900000000000000000021
:1004700000000000000001001E001F0020002100FD
:10048000220023002400250026002700010001008F
:100490000100010001000100010001000100010054
:1004A0000100010001000100010001000100010044
:1004B0000100010001000100010001000100010034
:1004C0000100010001000100010001000100010024
:1004D0000100010001000100010001000100010014
:1004E0000100010001000100010001000100010004
:1004F00001000100010001000000000000000000F8
:1005000000000000000001000100010001000100E6
:1005100001000100010001000100010001000100D3
:1005200001000100010001000100010001000100C3
:1005300001000100010001000100010001000100B3
:1005400001000100010001000100010001000100A3
:100550000100010001000100010001000100010093
:100560000100010001000100010001000100010083
:100570000100010001000100010001000100010073
:100580000100010001000100000000000000000067
:1005900000000000000001000100C103CB0DFE0DB2
:1005A000000002000200BD03CB0DFE0D00000300A1
:1005B0000100C203CB0DFE0D000004000200A703E2
:1005C000CB0DFE0DC20605000100C303CB0DFE0DD1
:1005D000000006000200A903CB0DFE0D000007007D
:1005E0000200BF03CB0DFE0D000008000100C40394
:1005F000CB0DFE0D000009000200AB03CB0DFE0D7C
:100600009D060A000200AD03CB0DFE0D9D060B00FA
:100610000200AF03CB0DFE0D9D060C000200B103DE
:10062000CB0DFE0D9D060D000200B303CB0DFE0D9C
:100630009D060E000200B503CB0DFE0D9D060F00BA
:100640000200B703CB0DFE0D9D0610000200B9039A
:10065000CB0DFE0D9D0611000200BB03CB0DFE0D60
:100660009D0612000200C503CB0DFE0D0000130015
:100670000200C703CB0DFE0D000014000100C903EA
:10068000CB0DFE0D00001500000000001A068F15AE
:10069000000009025B00030100A0FA090400000148
:1006A0000301010009211101000122400007058119
:1006B00003080001090401000203000000092111E0
:1006C0000100012222000705820320000107050323
:1006D00003200001090402000103000000092111A8
:1006E00001000122BC000705840320000112010063
:1006F00002000000087EAE74BF0100010203011C6D
:10070000037600690061006C003A00660036003430
:1007100000630032006200330063000000240342E3
:1007200000650061007400650072002000460069E9
:100730000065006C006400200054007200690070C5
:1007400000000020034B006E006F0062006C00652B
:10075000007300730065004F0062006C0069006761
:100760000065000000040309040011241FBECFEF40
:10077000DAE0DEBFCDBF04B603FE18C08091C1042D
:100780009091C204A091C304B091C4048730904BEF
:10079000A740B04B59F41092C1041092C2041092B9
:1007A000C3041092C404E0E0F8E3099511E0A0E06E
:1007B000B1E0EAE2F5E602C005900D92A637B10776
:1007C000D9F724E0A6E7B1E001C01D92A13CB20731
:1007D000E1F70E94142B0C946F320C940000E8EDAA
:1007E000F0E080818E7F80831092E2001092DA0028
:1007F0001092E100A0EEB0E08C9181608C9380813A
:100800008F77808319BCA7EDB0E08C918E7F8C939D
:1008100080818F7E80831092900408952091E4005F
:100820003091E50095E6A9012091EC00822F8170BE
:1008300020FF06C08091E80080FF06C080E0089598
:100840002091E80022FD1AC08091B504882389F028
:10085000853089F08091EB0085FD0FC02091E40088
:100860003091E50042175307F9F29150E1F684E028
:10087000089582E0089583E0089581E00895EF925D
:10088000FF920F931F93CF937C018B010E940E0464
:10089000C82F811117C08091E80085FD0BC08091A1
:1008A000E8008E778093E8000E940E04882399F375
:1008B000C82F08C0F70181917F018093F10001509A
:1008C000110949F78C2FCF911F910F91FF90EF9055
:1008D00008958091B70487FF13C08091E80082FFDC
:1008E00006C08091E8008B778093E80004C0809177
:1008F000B5048111F2CF08958091B5048823D9F30E
:100900008091E80080FFF8CF8091E8008E77ECCFEF
:10091000982F9093E900242F762F50E0891731F01B
:100920007091EC002091ED005091F00021FD07C086
:100930009F5F973071F78093E90081E008953091CF
:10094000EB003E7F3093EB003091ED003D7F309324
:10095000ED003091EB0031603093EB007093EC00D0
:100960002093ED005093F0002091EE0027FDE0CFA2
:1009700080E00895CF92DF92EF92FF920F931F9342
:10098000CF93DF93C8EDD0E088818F7E8883E7ED39
:10099000F0E080818160808384E082BF81E0809389
:1009A000900488818E7F888302EE10E0F801108227
:1009B0001092DA0081EEC82ED12CF60110828881C7
:1009C0008F77888388818068888388818F7D8883FA
:1009D00019BC1092B5041092B6041092B40410928F
:1009E000B30490EEE92EF12CF70180818B7F808398
:1009F00088818160888342E060E080E00E94880412
:100A0000F60180818E7F8083F80180818160808300
:100A1000808188608083F70180818E7F80838881D8
:100A200080618883DF91CF911F910F91FF90EF90AC
:100A3000DF90CF900895FC018091BD049091BE0499
:100A400086179707A0F06115710529F49091E800C9
:100A50009E779093E80090E06115710551F4911133
:100A600008C08091E80082FF34C080E00895BC0196
:100A7000F2CF8091B5048823C1F18530C1F1809116
:100A8000E80083FD30C08091E80082FDEACF8091CC
:100A9000E80080FFE1CF8091F3002091F200382F31
:100AA0006115710519F02830310558F091E02830B2
:100AB000310509F090E02091E8002E772093E800BE
:100AC000CBCF81918093F100615071092F5F3F4F2F
:100AD000E7CF8091B504882341F0853041F08091C3
:100AE000E80083FFBECF81E0089582E0089583E0AF
:100AF000089508958091920408959C014FB7F89449
:100B00008091870490918804A0918904B0918A040F
:100B10004FBF821B930B08952FB7F89480918704E1
:100B200090918804A0918904B0918A042FBF089500
:100B300020918404309185042817390771F090932F
:100B4000850480938404E0918204F09183043097BB
:100B500021F00084F185E02D09940895209180040E
:100B6000309181042817390771F0909381048093A4
:100B70008004E0918204F0918304309721F0068094
:100B8000F781E02D09940895E0918204F0918304A7
:100B9000309721F00190F081E02D099480E00895D4
:100BA000452B39F0682381E06F3F09F080E08170C8
:100BB000089581E0FCCFDC016091A3038091A40340
:100BC000962F891301C00895292F30E0F901EE0F07
:100BD000FF1FE556FC4F408151814A175B07A1F486
:100BE00087E08A9FA0018B9F500D11244D595C4FC7
:100BF00081E0FA0184839613E6CF2F5F3F4F237085
:100C000033272093A30308952F5F3F4F922F9370B4
:100C1000D8CF109200031092FF02E3E6F3E0858143
:100C2000811102C014821682379683E0EB39F807EF
:100C3000B1F70895AF92BF92CF92DF92EF92FF92F9
:100C40000F931F93CF93DF938FEF9FEF44305105A6
:100C500008F468C040918B0441FB882780F990E03C
:100C6000880F991F42FB002700F910E0000F111FA9
:100C7000000F111F802B912B40FBCC24C0F8D12CEE
:100C80008C299D2943FB222720F9C22FE0E0DE2F8B
:100C900053E0CC0FDD1F5A95E1F78C2B9D2B44FBC5
:100CA000AA27A0F9B0E0E4E0AA0FBB1FEA95E1F79C
:100CB0008A2B9B2B45FBEE27E0F9F0E0A5E0EE0F39
:100CC000FF1FAA95E1F78E2B9F2B46FB222720F9C9
:100CD00030E0B6E0220F331FBA95E1F7822B932B59
:100CE00047FB222720F930E03695322F222737950F
:100CF0002795822B932B20918C04322F3170F32E69
:100D0000F92A26952170B22EBB0CA82EBF28C5014A
:100D1000BB0CAA0BBB0BFB0180839183A283B38323
:100D200090E080E0DF91CF911F910F91FF90EF90C5
:100D3000DF90CF90BF90AF900895E7EAF3E0848111
:100D400095812AE030E0B9010E94BA316093170121
:100D50008681809316018285809315018485809316
:100D6000140186859785B9010E94BA3160931301F9
:100D700080898093120182898093110184898093F4
:100D8000100108958091A7039091A80390931901F1
:100D900080931801089581152CE5920741F4209164
:100DA0000E0130910F01232B11F490E080E00895A3
:100DB0000E948C059C019091700280917102982B89
:100DC00021F030936D0220936C0290917202809119
:100DD0007302982B21F030936B0220936A02E0910A
:100DE0008204F0918304309749F082E080936E0290
:100DF0000480F581E02D8EE692E0099408959091AB
:100E00007002803F59F48091710287FF0DC01092EB
:100E1000710291110BC01092680208C0813F81F4E9
:100E20008091710218169CF3992381F080917202CF
:100E300090917302892B09F064C0109267020895A3
:100E4000823F49F497FFF0CF1092700280917102B7
:100E50008111ECCFE0CF833F19F41916ACF3E4CF46
:100E600020917202893F29F41216F4F61092720250
:100E7000DBCF8A3F19F427FFD7CFF8CF2091730239
:100E80008B3F29F427FFD0CF10927302CDCF8C3F38
:100E900019F41216CCF3C8CF843F31F480916F025D
:100EA0008E7F80936F02C0CF853F21F480916F02C7
:100EB0008D7FF7CF863F21F480916F028B7FF1CF3A
:100EC000873F21F480916F02877FEBCF883F21F429
:100ED00080916F028F7EE5CF8D3F31F48091690262
:100EE0008E7F80936902A0CF8E3F21F480916902AA
:100EF0008D7FF7CF8F3F09F097CF809169028B7F6D
:100F0000F0CF08958091690280FF0CC060911101BB
:100F100070E075956795759567956115710549F14F
:100F2000862F089581FF06C06091110170E07595CC
:100F30006795F3CF6091110182FD0BC0909167021C
:100F40009923A1F06091100180911101961738F05A
:100F5000682F70E06038710500F38FE70895899F6E
:100F6000C001112470E00E94CE31F4CF61E070E046
:100F7000D7CF81E00895809169026091AF037091AD
:100F8000B00380FF16C020911501269FC001279F46
:100F9000900D1124BC01769567957695679560381C
:100FA000710508F043C06115710509F441C0862F31
:100FB000089581FF0BC020911501269FC001279F36
:100FC000900D1124BC0176956795E9CF82FF09C089
:100FD000809115019B01829FB001839F700D1124A8
:100FE000DECF209168022223D1F2909114018091EA
:100FF0001501482F50E0291748F0CB01849FB0011C
:10100000859F700D949F700D1124C9CF289F90016A
:101010001124269FA001279F500D369F500D1124AB
:10102000692F70E0CA010E94BA31B9CF8FE70895E5
:1010300081E00895803F31F40E94BB078195809341
:1010400071020895813F19F40E94BB07F8CF823FD7
:1010500031F40E94BB078195809370020895833F0D
:1010600019F40E94BB07F8CF893F29F40E94820738
:101070008093720208958A3F21F40E94820781952D
:10108000F7CF8B3F31F40E948207819580937302E2
:1010900008958C3F19F40E948207F8CF843F31F401
:1010A00080916F02816080936F020895853F21F4E3
:1010B00080916F028260F7CF863F21F480916F02AA
:1010C0008460F1CF873F21F480916F028860EBCF7D
:1010D000883F21F480916F028061E5CF8D3F31F42C
:1010E0008091690281608093690208958E3F21F4A6
:1010F000809169028260F7CF8F3FB9F780916902D2
:101100008460F1CF80E00895F894E82FE295EF70C5
:10111000F0E031A1282F2F7081E090E001C0880F0E
:101120002A95EAF7982F9095932391A392A1892B62
:1011300082A37894089590918B0492FF06C0282F83
:1011400028712830F9F4877F846093FF06C0282F28
:1011500028712831F1F4877E846120918C0420FF6E
:1011600006C0382F38713830D9F4877F816021FF6D
:1011700006C0282F28712831D1F4877E816194FD23
:10118000877E0895282F24712430F9F68B7F88609C
:10119000DCCF282F2471243101F78B7E8861DDCFCD
:1011A000382F3171313019F78E7F8860E0CF282FCA
:1011B0002171213121F78E7E8861E1CFCF93DF93BA
:1011C000EC0182389105A9F1D8F58133910509F434
:1011D00096C048F58932910509F48AC08A9709F4C6
:1011E00095C0C11521E5D20708F0BCC0C11530E596
:1011F000D30708F014C1C83ED10508F09CC0C03E1A
:10120000D10560F5C83AD10508F087C0C53AD105C7
:1012100008F0FDC0C130D10509F12097F9F0C430C4
:10122000D105E0F440C08533910509F45AC0C9974F
:10123000C1F680918B04837089F0C0EED0E00EC0BF
:10124000833E910599F170F4803E910501F1823E53
:10125000910539F680918B0482FD21C0CE01DF918A
:10126000CF910895863E910561F1873E910571F118
:10127000843E910509F0B5CF80918C0481FFEECFBB
:1012800080918B04C7EED0E084FD0DC0E7CF809144
:101290008B0480FD12C190918C0490FFDFCFC3EED0
:1012A000D0E084FFDBCFD0E0C0E0D8CF80918B04CA
:1012B00082FD06C190918C0490FDBFCF84FFCECFFC
:1012C000F2CF80918B0483FDDDCFC8CF80918B045A
:1012D00083FDF9C090918C0491FFF0CFC4EED0E073
:1012E000BDCF80918B0485FFB9CFC9E2D0E0B6CFE6
:1012F00080918B0485FFB2CFC5E3D0E0AFCF809162
:101300008B0486FFABCFCAE2D0E0A8CF80918B04DC
:1013100086FFA4CFC1E3D0E0A1CFCF3BD10518F623
:10132000C85AD0E0CC0FDD1FC85DDE4F0990D881D0
:10133000C02DD46493CFC11540E2D40758F4C11531
:1013400081E0D80708F08ACFC03FD10508F4ABCFC1
:10135000D06584CFC11590E4D90708F4A4CFDF701D
:10136000D06A7CCFC11525E5D20700F5C11534E55B
:10137000D30708F08AC0C11543E5D40708F071C04F
:10138000C11582E5D80708F467C0CE01837099279C
:1013900021E030E002C0220F331F8A95E2F7C695A4
:1013A000C69580E2C89FE001112452C0C11599E59D
:1013B000D907A8F4C11528E5D20708F06BC0C115FC
:1013C00036E5D30708F06FCF8C2F0E949B08C82FFB
:1013D000D0E0DC2FCC27CC27DF71D0623FCFC11506
:1013E0004AE5D40708F45BC0CE01905681159042BF
:1013F00008F059CF8D2F8F710E949B0890E0982F95
:10140000882788279F719C012C2BE901E6CFC55ABC
:10141000D0E0CB5DDE4FC881D0E0D0641FCFCE01DD
:10142000E4E096958795EA95E1F783702C2F269551
:101430002695237040E2249F90011124382B8C2F95
:101440008370C1E0D0E002C0CC0FDD1F8A95E2F7C7
:10145000C22BD32BDC6802CFDC2FCC27C16FD06A24
:10146000FDCECE018370992721E030E002C0220F2B
:10147000331F8A95E2F7C695C69590E2C99FE001B1
:101480001124C22BD32BDA68E9CEDC2FCC27C46F12
:10149000D06AE4CEDC2FCC27C06FD06ADFCE8C2F91
:1014A0008F700E949B0834E0D695C7953A95E1F776
:1014B000CF709C2FEC01D069D1CEC9E3D0E0CECE65
:1014C000C2EED0E0CBCEC6EED0E0C8CE80912602F0
:1014D000882331F0109226021092250210922402E5
:1014E0000895CF93C82F80918C0482FD0CC0809109
:1014F00026028C1741F00E948C0590932502809360
:101500002402C0932602CF91089580959091C00443
:1015100098239093C004089580959091DA029823BF
:101520009093DA0208959091DA02892B8093DA027F
:10153000089510920302109202021092010208957F
:101540008091A9039091AA03892B89F00E948C05B0
:101550002091240230912502AC01421B530B81E003
:101560002091A9033091AA034217530708F480E0A1
:1015700081700895809100028111109200020895F7
:1015800090911C019923D1F090918B0497FF16C084
:10159000E82FE695E695E695EE31E0F4F0E0E858C0
:1015A000FE4F282F277081E090E001C0880F2A9518
:1015B000EAF780959281892382830895EAE7F1E032
:1015C0009191891303C0DF0111971C9291E0E038DB
:1015D000F907B1F7089590911C019923C1F09091FA
:1015E0008B0497FF14C0E82FE695E695E695EE315B
:1015F000F8F4F0E0E858FE4F877021E030E001C0D9
:10160000220F8A95EAF78281822B82830895AAE7C6
:10161000B1E0EFEF90E02D91821751F0EF3F19F418
:10162000211101C0E92F9F5F9630A9F7EF3F09F420
:1016300008950E2E000CFF0BE858FE4FE6CF2091C8
:10164000FF019091BE01291302C080E0089530E0AF
:10165000F90153E0EE0FFF1F5A95E1F7E154FE4FF9
:101660005181561306C05081581303C05281541340
:1016700004C02F5F3F4F2770E6CF81E0089580912F
:10168000FF019091BE01981301C008958F5F87708C
:10169000FACF9E3F49F1E82F29E0929FE00D1124F7
:1016A0009E2F9770E695E695E69583E0E89FF0011A
:1016B0001124E556FE4F50E040E080E0219130E0FB
:1016C000092E02C0369527950A94E2F72170332738
:1016D000042E01C0220F0A94EAF7822B4F5F5F4F5E
:1016E0004330510559F7089580E008959E3F69F110
:1016F000E82F29E0929FE00D11248E2F877041E0A2
:1017000001C0440F8A95EAF7E695E695E69583E0F1
:10171000E89FF0011124E556FE4F30E020E070E034
:101720005191DF011197CB01022E02C0969587954A
:101730000A94E2F7817081958527842385278C930D
:101740002F5F3F4F2330310559F7089592959F70D1
:10175000963091F058F4925F9F70923058F4803F29
:1017600019F030F4883E30F481E008959A5FF4CFA8
:10177000843FD1F380E00895883EB0F3813FD1F7F4
:10178000F3CF9C013A9521153F4150F5FC01EE271E
:10179000F170BC0166277270AC01442754709C0143
:1017A0002227387094FF0EC080E1EF2B09F480E00F
:1017B000672B09F08062452B09F08064232B89F0A8
:1017C0008068089581E0EF2B09F480E0672B09F031
:1017D0008260452B09F08460232B19F088600895FE
:1017E00080E0089580938D0470938F0460938E043D
:1017F0008091B5048430F9F48093E9008FEF9091E3
:10180000E800815095FD06C095ED9A95F1F700002E
:101810008111F5CF8091E80085FF0DC050E040E0D8
:1018200063E070E08DE894E00E943F048091E8005E
:101830008E778093E8000895BC0184E00C94F20B4D
:10184000BC0183E00C94F20B9C0184E08093E900DE
:101850009FEF8091E800915085FD06C085ED8A9547
:10186000F1F700009111F5CF8091E80085FF0CC0E1
:1018700050E040E066E070E0C9010E943F048091C2
:10188000E8008E778093E8000895CF93DF93EC0112
:1018900080911C018823B1F180918B0487FF32C0B5
:1018A00060E284E08093E9008FEF9091E80081503E
:1018B00095FD06C095ED9A95F1F700008111F5CFE1
:1018C0008091E80085FF1BC080911C0170E050E012
:1018D00040E0811104C050E040E068E070E0CE01DB
:1018E0000E943F048091E8008E778093E80080E2B8
:1018F000FE01A3E9B4E001900D928A95E1F7DF9132
:10190000CF91089568E081E0CDCF81E08093E00041
:1019100080E28093D8001092C9008FE19EE4019785
:10192000F1F700C0000087E090EBDC018093C10478
:101930009093C204A093C304B093C40488E19CE0D4
:101940000FB6F894A895809360000FBE9093600046
:10195000FFCF019708F40895EFE9FFE03197F1F721
:1019600000C00000F6CF0F931F93CF93DF9307EAD9
:1019700013E0C7E6D2E0CE010E942532F801819340
:101980008F012196CB38F2E0DF07A9F7C0EAD5E056
:10199000FE0185919491009711F0FC0109952C9618
:1019A000F6E0CC39DF07A1F7DF91CF911F910F91BE
:1019B00008950F931F93CF93DF93843030F56830F1
:1019C00020F5493010F5C42FD0E0CC0FDD1F22E107
:1019D000629FC00DD11D112430E9839FC00DD11D20
:1019E0001124CE0187960E942532082F10E0102F77
:1019F0000027CE0188960E9425329801282BC90124
:101A0000DF91CF911F910F91089590E080E0F8CF82
:101A1000462F2091D8023091D902232B91F47E3F9A
:101A200039F46E3F71F48091D6029091D7020895F7
:101A3000843038F4783028F4693018F4672F0C9427
:101A4000D90C90E080E00895CF92DF92FF920F933F
:101A50001F93CF93DF936C010091BF048091270205
:101A6000082BC7E0D0E010E0FC2EC8010C2E02C00D
:101A7000959587950A94E2F780FD0CC02197A0F711
:101A8000F12C8F2DDF91CF911F910F91FF90DF905F
:101A9000CF900895B6018C2F0E94080D0E94DE0899
:101AA000019761F3EECFCF93DF93EC010E94240DF9
:101AB000BE010E94080DDF91CF910C94DE08FC015D
:101AC00086819781009721F00E94DE080C94A60B76
:101AD000808191810E94530DF9CF1F93CF93DF93A3
:101AE00000D000D00F92CDB7DEB749835A838981E9
:101AF0009A816623B9F02223A9F00E94240D182FA1
:101B0000682F89819A810E94760B69817A81812F61
:101B10000F900F900F900F900F90DF91CF911F912A
:101B20000C94080D0E94490B182FEFCFFC01262FB3
:101B300086819781009739F4408151816281738158
:101B400084810C946D0D089583E290E00E9425320B
:101B5000883989F484E290E00E9425328F3E59F45E
:101B600085E290E00E94253291E08B3E09F090E002
:101B7000892F8170089580E0FCCFCF9384E090E0BE
:101B80000E942532C82F82E290E00E942532982FD1
:101B90008C2FCF910895DB01FC0132962591349171
:101BA0004217530758F0FC01349665917491A901CE
:101BB000CD010E94053290E080E008958FEF9FEF05
:101BC00008950F931F93CF93DF9307EA13E0C7E6BF
:101BD000D2E0CE010E942532F80161918F01681791
:101BE00019F0CE010E9433322196CB38F2E0DF07A4
:101BF00081F7DF91CF911F910F910895DA019C0138
:101C00002E5F3F4FF90145915491F901259134918F
:101C1000A217B30758F0FC013496859194910E9465
:101C200005320E94E10D90E080E008958FEF9FEF74
:101C30000895CF93DF93CBE2D3E060E0CE010E9422
:101C400033322196C11584E0D807B9F7DF91CF91DF
:101C500008950F931F93CF93DF938901843048F544
:101C6000683038F5493028F521153C4531F420918C
:101C70000E0130910F01232BE1F0C42FD0E0CC0FE7
:101C8000DD1F92E1699FC00DD11D112490E9899F4C
:101C9000C00DD11D1124612FCE0187960E943332D1
:101CA000602FCE018896DF91CF911F910F910C94F8
:101CB0003332DF91CF911F910F910895CF93C82FA9
:101CC0006FEF811168E983E290E00E9433326FEF99
:101CD000C1116FEE84E290E00E9433326FEFC111C8
:101CE0006BEE85E290E0CF910C943332CF93C92F05
:101CF000682F84E090E00E9433326C2F82E290E003
:101D0000CF910C9433329B01883070F49AE0899F14
:101D1000B001112465577D4F4AE050E0C9010E948F
:101D2000153290E080E008958FEF9FEF08958F9235
:101D30009F92AF92BF92CF92DF92EF92FF920F935A
:101D40001F93CF93DF93CDB7DEB72A970FB6F894E2
:101D5000DEBF0FBECDBF00ED13E0F12CE12C86E01D
:101D6000C82E89E2D82E90E3A92E99E2B92E2FE64B
:101D7000822E28E2922EF801D182C082B382A28202
:101D800095828482F58AE48ABE016F5F7F4F8E2D33
:101D90000E94830E892B29F489859A85F801938BFB
:101DA000828BFFEFEF1AFF0A0A5E1F4F88E0E816EA
:101DB000F10409F72A960FB6F894DEBF0FBECDBF27
:101DC000DF91CF911F910F91FF90EF90DF90CF9017
:101DD000BF90AF909F908F900895CF92DF92EF9237
:101DE000FF920F931F93CF93DF93CDB7DEB72A9760
:101DF0000FB6F894DEBF0FBECDBFE6E8F2E080E597
:101E0000DF011D928A95E9F7E3E6F3E088E3DF015D
:101E10001D928A95E9F786E8C82E82E0D82E7F01C8
:101E20000BED12E0F701D182C0824AE050E0B80128
:101E3000CE0101960E94153288E0FE013196D6014E
:101E400001900D928A95E1F789859A85D7011396BD
:101E50009C938E931297BAE0CB0ED11CE7E0EE0E66
:101E6000F11C065F1F4F0B32F3E01F07D9F62A96CD
:101E70000FB6F894DEBF0FBECDBFDF91CF911F919B
:101E80000F91FF90EF90DF90CF9008956F927F9227
:101E90008F929F92AF92BF92CF92DF92EF92FF927A
:101EA0000F931F93CF93DF93CDB7DEB760970FB635
:101EB000F894DEBF0FBECDBF8E010F5F1F4F80E1D4
:101EC000F80111928A95E9F796E5E92E91E0F92E4D
:101ED00068012EE5622E21E0722E88248394912CD5
:101EE000F70181917F018F3F09F446C0F894E82FF4
:101EF000E295EF70F0E021A18F70A40102C0440FC1
:101F0000551F8A95E2F7CA01922F982B91A392A1AF
:101F10008095892382A3789400C0EEE5F1E021E06A
:101F200030E0B12CA12C41914F3F09F498C0A42F6F
:101F3000A295AF70B0E090968C9190E04F7002C087
:101F4000959587954A95E2F780FD89C0C901A82A31
:101F5000B92A220F331F51E0E736F50721F7F701C1
:101F6000319780818F3F11F00E94840880EA8A9522
:101F7000F1F7F601B182A082F2E0CF0ED11C6E140F
:101F80007F0409F0ADCF40E150E0B8018BE292E070
:101F90000E94F831FF24F394009709F4F12C892B67
:101FA00009F460C080E1F801ABE2B2E001900D926B
:101FB0008A95E1F781E080932A020E948C05909334
:101FC00029028093280280912802909129020E9480
:101FD0007D05059708F44AC080912B0290912C0250
:101FE000909358028093570280912D0290912E0277
:101FF00090935A028093590280912F02909130025F
:1020000090935C0280935B02809131029091320246
:1020100090935E0280935D0280913302909134022E
:102020009093600280935F02809135029091360216
:1020300090936202809361028091370290913802FE
:1020400090936402809363028091390290913A02E6
:10205000909366028093650210922A0207C090E076
:1020600080E075CF80912A028111ADCF8F2D6096CF
:102070000FB6F894DEBF0FBECDBFDF91CF911F9199
:102080000F91FF90EF90DF90CF90BF90AF909F9017
:102090008F907F906F9008958091DA029091C004A4
:1020A000892B8093780180912602882319F18091F1
:1020B000A9039091AA03892B29F00E94A00A8111FB
:1020C0000E94660A8091780190912602892B809364
:1020D000780180911C018823D9F180918B0487FFBE
:1020E00037C08EE1EAE7F1E090E0815098F5911178
:1020F0000E94660A40E250E064E072E088E791E006
:102100000E94F831892B59F180E2E8E7F1E0A4E080
:10211000B2E001900D928A95E1F7E0918204F0918E
:1021200083043097E1F080911C01882359F080915D
:102130008B0487FF07C0809178018093790186E046
:10214000809378010280F381E02D88E791E0099483
:1021500086E0C8CF2191222341F29F5FC6CF089528
:10216000EF92FF920F931F93CF93DF93EC018A8539
:10217000811134C0EB80FC8087E5F81A26E12E9DA2
:10218000C0012F9D900D1124DC01A053BC4F14966B
:10219000ED91FC911597309731F054966D917C91AB
:1021A0008A529C4F099586E18E9D80018F9D100D6E
:1021B000112400531C4FF80187810E948C0AF801FA
:1021C00080850E94850A0E944C10188219861B8601
:1021D0001E821D821092CF031092CE03DF91CF9109
:1021E0001F910F91FF90EF900895CF93DF93EC0133
:1021F0008989811118C081E0898B8F810E94930A9F
:102200008091C0049885892B8093C0040E944C1053
:10221000EA81FB81309739F06C897D89CE01069681
:10222000DF91CF910994DF91CF91089580911A01A8
:10223000877F80931A0182E00E94850A80911A01AB
:1022400084FF06C08F7E80931A0182E00E94930A69
:1022500080911A0185FF06C08F7D80931A0180E26C
:102260000E94930A0C944C1090E080E00E94AE050E
:1022700090E080E00E9498051092C0040E944C10EB
:1022800086E0EEE6F2E0DF011D928A95E9F7109212
:10229000680210926702109269020C94D80680932B
:1022A000BF040C9434118091BF04982F967096301F
:1022B00019F488600C944F11877FFCCF21E030E047
:1022C00001C0220F8A95EAF720958091BF048223EE
:1022D0000C944F11909103028095892380930302FF
:1022E000282F277091F4282F082E000C330B9217FB
:1022F000130659F090918C0492FD07C08595859541
:1023000085950E945E110C94990A089590918C0411
:1023100092FB222720F9281769F080FB92F990930D
:102320008C0480918B0490918C040E94760E82E044
:102330000C946A11089521E030E001C0220F8A95C3
:10234000EAF78091BF04822B0C944F1190918C047A
:1023500092FD10C098E0899F90011124622B609338
:1023600003020E949B110E948C05909302028093AD
:10237000010208950C949B11809327020C94341150
:102380001092DA0280911C01EAE7F1E0882359F00B
:1023900080918B0487FF07C08EE1DF011D928A9533
:1023A000E9F70C94341186E0F8CF1F93CF93DF93B5
:1023B000CDB7DEB7AA970FB6F894DEBF0FBECDBF7C
:1023C00087EB94E02091F100DC012D93CD01B4E086
:1023D0008F3B9B07B9F78091B804833009F472C032
:1023E000B8F4813009F449C0823009F4B3C0809157
:1023F000E80083FF96C28091B7049091B8049A30A8
:1024000008F08FC2E92FF0E0EF58FD4C0C94E23158
:102410008A3009F48EC08B3009F471C0893039F7E5
:102420008091B704813219F78091BB049091BC046C
:10243000009711F00297D9F68091E800877F80938A
:10244000E8008091E80082FF38C09091F30080910D
:10245000F200029731F48091F100813011F0863062
:1024600021F48091F100809392048091E8008B77B1
:102470008093E8000E946904BACF8091B704813A42
:1024800009F0B5CF8091E800877F8093E8008091C4
:10249000BB049091BC04892B61F460E283E994E071
:1024A00070E00E941B058091E8008B778093E80024
:1024B0009ECF60E090E080E0F3CF8091B504811181
:1024C000C0CF95CF8091B704813A09F090CF809129
:1024D000BB049091BC04892B09F089CF8091E8005E
:1024E000877F8093E8008091E80080FFFCCF809197
:1024F0001C018093F1008091E8008E77B9CF809124
:10250000B704813209F073CF8091BB049091BC0471
:10251000892B09F06CCF8091E800877F8093E800D9
:102520000E9469048091B90480931C010E94C0112B
:102530005ECF8091B704813209F059CF8091E800D5
:10254000877F8093E8000E9469048091BA04809399
:1025500091044DCF8091B704813A09F048CF809122
:10256000E800877F8093E8008091E80080FFFCCF3F
:1025700080919104BECF803899F0823809F0D1C1A2
:102580008091BB048F70873008F0CBC18093E90045
:102590008091EB0085FB882780F91092E90006C046
:1025A0008091B3049091B404911182609091E800FD
:1025B000977F9093E8008093F1001092F100809152
:1025C000E8008E77AAC1882309F498C1823009F007
:1025D000A8C18091B90481119BC18091BB048F7007
:1025E0002FEF280F263008F09CC18093E90020913E
:1025F000EB0020FF8DC1933031F48091EB008062BD
:102600008093EB0085C19091EB0090619093EB007B
:1026100021E030E001C0220F8A95EAF72093EA001A
:102620001092EA008091EB008860EACF811179C1B5
:102630001091B9041F778091E3008078812B8093FB
:10264000E3008091E800877F8093E8000E9469049E
:102650008091E80080FFFCCF8091E3008068809348
:10266000E30082E0111183E08093B5045AC18058E1
:10267000823008F056C12091B9043091BA042C3D43
:10268000E3E03E07A1F583E08A838AE289834FB7BE
:10269000F894DE01139620E03EE051E2E32FF0E0F3
:1026A00050935700E49120FF03C0E295EF703F5F25
:1026B000EF708E2F90E0EA30C0F0C7968D939D9317
:1026C0002F5F243159F74FBF8091E800877F8093B7
:1026D000E8006AE270E0CE0101960E941B0580913D
:1026E000E8008B778093E8001CC1C096E7CF80910B
:1026F000BB049091BC04432F55274330510509F486
:102700004AC078F54130510509F485C08BE590E069
:10271000E2E9F6E04230510509F003C12091E800FA
:10272000277F2093E8002091BD043091BE048217DA
:10273000930708F49C0140E02115310509F070C0B1
:1027400041116EC08091E80082FDC9CF8091B5042F
:10275000882329F2853019F28091E80083FFF2CFB7
:10276000BECF4132510509F447C04232510509F04C
:10277000D8C08330910508F0D4C0FC01EE0FFF1FD4
:10278000E659FE4F0190F081E02D89599E4FDC0102
:102790008C9190E01DC0332721303105E9F02115DF
:1027A000310579F022303105F9F02330310509F097
:1027B000B8C0EFEFF6E0E4918E2F90E0EFEFF6E097
:1027C00007C0E5E6F7E0E4918E2F90E0E5E6F7E05C
:1027D000009709F4A6C0A2CFE3E4F7E0E4918E2FBE
:1027E00090E0E3E4F7E0F4CFEDE1F7E0E4918E2F41
:1027F00090E0EDE1F7E0ECCF8330910508F091C077
:10280000880F991FFC01E059FE4F0190F081E02DE7
:1028100089E090E083CF82E190E0EDEEF6E07ECFBC
:102820008091B504882309F45ACF853009F457CF35
:102830008091E80083FD53CF8091E80082FD82CF34
:102840008091E80080FF78CF9091F3008091F200B2
:102850002115310519F08830910550F041E00897B5
:1028600009F040E08091E8008E778093E80064CF23
:1028700044914093F1003196215031090196E8CFFF
:10288000803809F04EC08091E800877F8093E8008F
:102890008091B6048093F10092CE811142C01091D4
:1028A000B9041230F0F58091E800877F8093E8004A
:1028B0001093B6040E946904112311F084E005C04E
:1028C0008091E30087FDFACF81E08093B50442E078
:1028D00061EC81E00E94880442E261EC84E00E94A5
:1028E000880442E261EC82E00E94880442E260ECEB
:1028F00083E00E9488048091B50413C08091B904DC
:10290000813079F481E0933009F080E08093B40461
:102910001092E9008091E800877F8093E8000E9490
:1029200069048091E80083FF0AC08091E800877FF6
:102930008093E8008091EB0080628093EB00AA9680
:102940000FB6F894DEBF0FBECDBFDF91CF911F91C0
:102950000895E7EAF3E0128E138E8FEA90E09183F8
:10296000808325E0248F88E893E1938382838AE043
:1029700090E09583848344E150E05783468368E088
:1029800070E071876087938782874EE150E05587BA
:1029900044879787868740E550E0518B408B738B47
:1029A000628B68E270E0758B648B62E370E0778B1A
:1029B000668B68EC70E0718F608F158E978F868FB5
:1029C00051A340A322A30E94E10D0E94C0111092C6
:1029D0008C0410928B0490E080E00E94760E0C94A0
:1029E000B30C7F928F929F92AF92BF92CF92DF9261
:1029F000EF92FF920F931F93CF93DF93CDB7DEB784
:102A000064970FB6F894DEBF0FBECDBFA0900E0145
:102A1000B0900F0181E090E090930F0180930E0140
:102A200086EEC82E83E0D82E00E0760110E015C0B7
:102A3000F40125913491472D612F802F0E94290E9A
:102A400082E0880E911C7394E9E07E12F1CFF2E1EE
:102A5000EF0EF11C1F5F183019F04701712CE8CF01
:102A60000F5F80E9C80ED11C0430F9F60E94A9144A
:102A70001A8219821C821B821E821D8218861F8266
:102A800088EC90E09A8789870BE812E04AE050E0F2
:102A9000B801CE0101960E945732065F1F4F0B3DD1
:102AA000E2E01E0799F77E01FBE0EF0EF11C8AE0E1
:102AB000F70111928A95E9F74AE050E0B801C701A1
:102AC0000E945732065F1F4F0B32F3E01F07A1F73A
:102AD000B0920F01A0920E0164960FB6F894DEBF7B
:102AE0000FBECDBFDF91CF911F910F91FF90EF905F
:102AF000DF90CF90BF90AF909F908F907F90089580
:102B000080E00E945E0E60E086E290E00E94333238
:102B10000E94F1140E94190E81E00C945E0ECF9277
:102B2000DF92EF92FF928FEF9FEF4430510508F450
:102B30006AC0FB01C080D180E280F3800E94C01196
:102B400080918B04C0FA80F9B701A601769567954C
:102B50005795479540FB81F9B701A60122E076958C
:102B60006795579547952A95D1F740FB82F9B701AC
:102B7000A60133E076956795579547953A95D1F735
:102B800040FB83F9B701A601E4E076956795579578
:102B90004795EA95D1F740FB84F9B701A601F5E026
:102BA0007695679557954795FA95D1F740FB85F946
:102BB000B701A601A6E07695679557954795AA9522
:102BC000D1F740FB86F9B701A601B7E07695679586
:102BD00057954795BA95D1F740FB87F980938B04B9
:102BE00080918C04D0FA80F9D1FACC24C0F8C0FAD4
:102BF00081F980938C0480918B0490918C040E94C5
:102C0000760E90E080E0FF90EF90DF90CF900895F7
:102C1000882321F00E94850A0C944C100895882383
:102C200039F09091C004982B9093C0040C944C10F0
:102C30000895882321F00E948C0A0C944C1008956A
:102C4000882321F00E94930A0C944C100895882345
:102C500009F452C0823871F40E94C40581FF4CC04F
:102C600089E30E94EB0A0E944C1089E30E94C00A8B
:102C70000C944C10833859F40E94C40580FF3CC06A
:102C800083E50E94EB0A0E944C1083E5EFCF843865
:102C900059F40E94C40582FF2FC087E40E94EB0A0A
:102CA0000E944C1087E4E2CF9CEF980F913AF0F22B
:102CB00090E2980F983050F4877091E001C0990F1E
:102CC0008A95EAF7892F0E948C0AD2CF9BE5980F4C
:102CD000933020F490E080E00C94AE0598E5980FD6
:102CE000973120F490E080E00C949805803F20F02C
:102CF0000E94FF060C94D8060895CF93DF93EC0151
:102D00000E942716CE010E94C10B9E01205E310950
:102D10002830310510F0CD2B21F4DF91CF910C94A8
:102D20001916DF91CF910C940816CF93C82F8823E2
:102D300009F4ABC08238C1F40E94C40581FDA5C06E
:102D400089E30E94EB0A0E944C102FEF81EE94E081
:102D5000215080409040E1F700C0000089E30E94CC
:102D6000C00ACF910C944C108338A1F40E94C40582
:102D700080FD8BC083E50E94EB0A0E944C102FEF70
:102D800081EE94E0215080409040E1F700C00000C7
:102D900083E5E5CF8438A1F40E94C40582FD75C0A7
:102DA00087E40E94EB0A0E944C102FEF81EE94E022
:102DB000215080409040E1F700C0000087E4CFCF71
:102DC0008CEF8C0F813A90F580911C01882301F1E2
:102DD00080918B0487FF1CC0EC2FE695E695E69565
:102DE000F0E0E858FE4F828190E04C2F477021E0E0
:102DF00030E002C0220F331F4A95E2F7822393236B
:102E0000892B81F08C2F0E94C00A0E944C100AC0AE
:102E1000EAE7F1E080E891E02191C21799F38E177B
:102E20009F07D1F78C2F0E94EB0A9BCF80E28C0F7B
:102E3000883048F4C77081E001C0880FCA95EAF76E
:102E40000E94930A8ECFEBE5EC0FE33040F4F0E004
:102E5000EB5DFE4F808190E0CF910C94AE05E8E5EC
:102E6000EC0FE73150F4F0E0EE0FFF1FE85DFE4F8E
:102E700080819181CF910C949805C03F30F08C2FC8
:102E80000E941A08CF910C94D806CF9108951F93F1
:102E9000CF93DF93182FC091C703D091C803893314
:102EA00021F0C091C503D091C603812F0E949516D1
:102EB000209731F4812FDF91CF911F910C94271629
:102EC0008FE99FE00197F1F700C000002197F0CF54
:102ED0000F931F93CF93DF93C42FD22FFC018281D6
:102EE0008823A1F04093CD030E948C059093CC03DE
:102EF0008093CB03C77081E001C0880FCA95EAF7C1
:102F0000DF91CF911F910F910C9420161091CD035A
:102F1000141339C08091CB039091CC030E947D059E
:102F20002091BF033091C0038217930760F5C0E280
:102F3000CD0F1D17B9F080E2810F883040F4177073
:102F400081E001C0880F1A95EAF70E941916C8306F
:102F500048F481E09D2F977001C0880F9A95EAF799
:102F60000E942016802F0E944717C83098F4D7700F
:102F700081E001C0880FDA95EAF7DF91CF911F91C8
:102F80000F910C941916C77081E001C0880FCA9583
:102F9000EAF7F3CFDF91CF911F910F910895AF9290
:102FA000BF92CF92DF92EF92FF920F931F93CF9336
:102FB000DF93EC018AE0A82E2881222309F48CC03B
:102FC0002130C9F599818A81913021F422960E949D
:102FD000471705C0923029F422960E949516219633
:102FE000EBCF933021F422960E942716F8CF94302D
:102FF00011F02196F4CF229630E020E0AE014F5F31
:103000005F4F8053990B8A30910550F02150310960
:1030100030F38FE99FE00197F1F700C00000F6CF91
:10302000A29EB001A39E700D11249C01260F371F94
:103030008981EA01E3CFE22FF0E0E650FE4FB49041
:10304000822F86958695869590E0FC01E651FE4F8D
:10305000E4902770F12C022E02C0F594E7940A94B4
:10306000E2F731E0E322FF24FC01E652FE4FC49078
:10307000D12C022E02C0D594C7940A94E2F731E015
:10308000C322DD24FC01E653FE4F049110E002C090
:10309000159507952A95E2F701701127E114F104BF
:1030A00019F081EE0E949516C114D10419F086EE34
:1030B0000E9495168B2D0E944717CD2819F086EE99
:1030C0000E942716EF2819F081EE0E942716012B87
:1030D00009F485CF8CE27BCFDF91CF911F910F91C7
:1030E000FF90EF90DF90CF90BF90AF900895CF9377
:1030F000DF93EC010E94C10B9E01205E3109283054
:10310000310510F0209739F40E9420168C2FDF91A2
:10311000CF910C9495160E940F16F8CF662329F0D4
:103120002091C00422602093C0049C0130562115D8
:1031300040E2340720F0305E2115304108F4992731
:103140000C947718DF92EF92FF920F931F93CF9317
:10315000DF937C018B01D42E80911A0182FF8CC0F9
:10316000C091FD02D091FE02CE15DF0521F0E114E1
:10317000F10409F081C080911A018B7F80931A01BC
:1031800081FD73C08091FB029091FC02A801481B55
:10319000590B81E020911801309119014217530712
:1031A00008F480E08170F82E80911A01F0FA81F91C
:1031B00080931A01FE0183E0F695E7958A95E1F781
:1031C000EE71FF27E552FD4F20813181AE014F7036
:1031D000552781E090E002C0880F991F4A95E2F7D9
:1031E000FF2009F444C0822B932B9183808380912C
:1031F000DA0281FF08C080911A01806180931A0170
:1032000082E00E948C0A8091DA0285FF08C08091DA
:103210001A01806280931A0180E20E948C0A6F2D4D
:10322000CE010E948E18DD2031F08091C20385FF0F
:1032300002C086FF3BC08091C5039091C6030E94E7
:10324000A90C8091FD029091FE029C01305621153F
:1032500040E2340720F0305E2115304108F4992710
:103260000E947D160E9416111DC081E09BCF8095A3
:10327000909582239323B9CFC701992797013056A0
:10328000211540E2340728F0305E2115304108F066
:10329000C7010E947D168091FD029091FE028E155D
:1032A0009F0501F31093FC020093FB02DF91CF9185
:1032B0001F910F91FF90EF90DF90089569EE7EEFE0
:1032C00090E080E00E94513260E082E090E00E9455
:1032D000333260E083E090E00E94333210922702A4
:1032E00060E084E090E00E94333260E082E290E0AF
:1032F0000E94333260E085E090E00E94333260E06B
:1033000086E090E00E9433326FEF87E090E00E9409
:10331000333240E050E0BA0188E090E00E9445324C
:1033200060E08DE090E00E94333240E050E0BA016E
:1033300088E190E00E94453260E087E190E00E94E1
:10334000333240E050E0BA018CE190E00E94453217
:1033500070E060E080E290E00E94513240E050E096
:10336000BA0188E190E00E94453280E00E945E0E42
:103370000E94801540E050E0BA018FE090E00E948A
:10338000453240E050E0BA0183E190E00C944532D0
:103390009F92AF92BF92CF92DF92EF92FF920F93E4
:1033A0001F93CF93DF9300D000D0CDB7DEB77C0161
:1033B000DC0113964D915C91149711966C911197C5
:1033C0008C910E94D005811179C061E0C7010E94F3
:1033D000960D8C01F7018281811111C0D7011296DF
:1033E0008C91811149C00031FFE51F0709F418C114
:1033F00001312FE5120709F068C782E012C1809100
:103400000C0190910D01019649F370EDC72E73E008
:10341000D72EB12CA12C9924939480910C019091DA
:103420000D018A159B05D4F2F60186818823E9F007
:10343000818592850817190739F48091CE03909100
:10344000CF030817190789F0D6011F969C921F9782
:103450001C961C930E931B97C6010E94F510C60183
:1034600006960E94B0101092C004BFEFAB1ABB0AC0
:10347000E6E1CE0ED11CD1CF980122513F4520313B
:10348000310508F018C78FEF93E00E9425326EEEE9
:10349000D62ED00E0BE213E0882361F18091030257
:1034A000877061F0D70112968C91882339F0809152
:1034B0008C0482FD03C082E00E946A110F900F907D
:1034C0000F900F90DF91CF911F910F91FF90EF9090
:1034D000DF90CF90BF90AF909F9008950115F4E0DA
:1034E0001F07E1F2C8010E942532811101C0DA9460
:1034F0000F5F1F4FD110F2CF19821A821B821C82DC
:1035000099249A9468012FEFC21AD20AC8010E9426
:10351000253289831A82882309F4C0CF813009F0CB
:1035200073C0580132E0A30EB11CC6010E942532BF
:10353000C82E8A83882309F4B1CFC5010E942532A1
:10354000D82E8FEF8C0D833068F4580143E0A40E21
:10355000B11CDB82DD2021F0CE0101960E94CF1745
:103560008501D0CF8BEF8C0D833030F5C8010396E9
:10357000DB825C01DD20A1F3580154E0A50EB11CF3
:103580000E9425328C83882359F38B819C81813062
:10359000AFEF9A0710F0982F8827B6E0CB1631F0DE
:1035A000E7E0CE1631F00E94F628DACF0E94C62856
:1035B000D7CF0E944028D4CFF4E0CF12D1CF58010A
:1035C00024E0A20EB11CC80103960E942532DD2022
:1035D00009F464CF882309F461CF8150990B989E38
:1035E0009001999E300D11244D2D4150550BCA016B
:1035F000820F931F019708F4B3CFAFE9BFE0119793
:10360000F1F700C00000F6CFCE0101960E94CF175F
:103610005601A6CF81E00E949B110E9453113ECF1C
:1036200081E00E945E11F9CF82E0F5CF2FEFC21644
:10363000D10411F008F055C66CE772E08C2D0E94A1
:10364000830E892B29F586E18C9DF0018D9DF00D6F
:103650001124E053FC4F8681813009F062C08091D3
:103660007C0290917D02892B99F080917E0290914D
:103670007F02892B69F080918002909181022091D4
:10368000820230918302822B932B892B09F453C041
:1036900080910C0190910D018C159D0524F4D09220
:1036A0000D01C0920C01F701828196E19C9D5001B1
:1036B0009D9DB00C1124950120533C4F6901D90107
:1036C00050968C935097928116968C9116979923C9
:1036D00009F43FC01A961C930E9319978F5F1696A4
:1036E0008C930E948C05F60196878587809126022F
:1036F00087838091C0049091DA02892B80870190A2
:10370000F081E02D309741F0D60154966D917C9177
:10371000C5018A529C4F09951093CF030093CE03A5
:10372000E0C5823009F0B4CF80918002909181028F
:10373000892B09F4ADCF26E12C9DC0012D9D900D64
:10374000112480539C4FDC0150961C920E94F5106E
:103750009FCF882309F4C5C5F9018189882309F41D
:10376000C0C5C5018A529C4F0E94B010BAC5809155
:103770001A01816080931A01E2C580911A018E7F3F
:1037800080931A010E941611DAC580911A018F7E6A
:10379000013E110531F0053E1105C9F480911A0171
:1037A0008F7D80931A0180911A0180FFD7C5D701C0
:1037B00012968C910832110528F50E31110508F08A
:1037C00074C00430110580F58111C4C5C7C5C80196
:1037D0009056811540E2940720F0905E811590414B
:1037E00010F780911A0182FFB9C58091C40381FD51
:1037F000B5C52CE432E040E0B60190E080E00E94E4
:10380000A218ACC50933110558F40D32110518F48E
:103810000B321105C9F69091C20392FDD5CF08C0B5
:1038200004361105C1F3D0CF9091C20394FDCCCFE3
:10383000882309F4A1C09091DA0280912602282FF2
:10384000292B322F3D7FB1F11092FE021092FD0222
:103850003091C20331FD2EC0F80143E0F695E795A3
:103860004A95E1F7EE71FF27E552FD4F98012F7061
:10387000332781E090E002C0880F991F2A95E2F774
:103880008095909520813181822393239183808339
:1038900060E0C8010E948E18809126028D7F0E94F0
:1038A000710A82E00E946A11F9CD9091C20393FDE2
:1038B0008BCFBECF38E0F701ACE4B2E001900D92BF
:1038C0003A95E1F710924E021092500210924F0278
:1038D000A090FD02B090FE020A151B05B1F53091D3
:1038E000C20335FF32C040911A0141FB992490F880
:1038F00041FF02C036FF29C04091FB025091FC02FB
:10390000B601641B750B4091BF035091C00364174F
:103910007507D8F491FF08C080911A0180618093E7
:103920001A0182E00E948C0A8091DA0285FF08C0A9
:1039300080911A01806280931A0180E20E948C0AB1
:10394000692DC5010E948E18A9CD90911A0121FB05
:1039500091F990931A018D7F0E94710A1093FE02D3
:103960000093FD02D092FC02C092FB0280911A01EA
:10397000846080931A0195CF970140E0B601C80199
:103980000E94A2188BCD053F4CE5140709F462C0D4
:1039900008F45AC0063F8CE5180709F461C0D70146
:1039A00012963C91332309F4F8C41092CD030330EE
:1039B000BDE51B0708F060C00A3FECE51E0730F4C8
:1039C000C80182509C45449708F060C00E94BD0D1C
:1039D00090938C0480938B0401313CE5130709F428
:1039E00048C108F0C5C009305CE5150709F42FC1CE
:1039F00008F092C005309CE5190709F420C108F0D1
:103A000078C00330BCE51B0709F40FC108F013C1EF
:103A100080918B04816002301C4509F409C18091BA
:103A20008B0490918C040E94760E0E94C01136CDBA
:103A300007E225EE45EE68ED7CE5ABC406E221EE3B
:103A400040EE63EF7CE5A5C407E225EE44EE64EFAB
:103A50007CE59FC406E221EE42EE65EF7CE599C469
:103A600007E225EE46EE66EF7CE593C408E221E02E
:103A700045EE69ED7CE58DC40136FDE51F0709F4CF
:103A8000A5CF053A2DE5120709F4A0CF06314CE584
:103A9000140709F022C18091DA02982F9A7A2091B6
:103AA000C10320FF04C0482F447409F090E021FFB7
:103AB00004C0482F417109F090E022FF04C0482F54
:103AC000487809F090E023FF03C0827209F090E08B
:103AD000332309F4F8C081E0911101C080E08093A4
:103AE000980189E2911185E30E94EB0A0E944C1033
:103AF000D5CC80918B04806207302CE5120709F445
:103B000097C080918B04806108301C4508F490C0F8
:103B100080918B0480648CC080918B048B7F0D30EE
:103B20004CE5140709F484C080F40B308CE51807C9
:103B300009F493C080918B048C600C301C4508F410
:103B400077C080918B048D7F73C080918B048F7EB2
:103B50000F30ACE51A0709F46BC080918B04877FA6
:103B600000311C4508F464C080918B048F7D60C0D7
:103B70000D3FECE51E0709F478C050F505312CE542
:103B8000120709F480C098F480918B04837F03317D
:103B90004CE5140709F44CC008F46FC00E94C01132
:103BA00090918B04892F97FB87F9805841C00B3F78
:103BB0008CE5180709F447C008F053C080918C04C5
:103BC00081600A3F1C4509F02ACF80938C0427CFDF
:103BD0000130BDE51B0709F462C0B8F480918C0484
:103BE0008C7F0F3FFCE51F0781F380918C0483607D
:103BF00001151D4550F380918C04982F909591707C
:103C00008E7F892B90FB81F9E0CF01363DE51307CC
:103C100009F44BC0053A4DE5140709F44DC00230D4
:103C20001D4509F0FCCE60E03BC080918B048260B2
:103C300080938B04F4CE80918B048460F9CF8091C3
:103C40008B048860F5CF80918C048260BECF0E9487
:103C5000C01180918B048068EBCF80918B048E7FA4
:103C6000E7CF80918C048E7FB0CF80918C048D7FC4
:103C7000ACCF80918B048F7BDBCF0E94C0118091F1
:103C80008B048F77D5CF80918B0482FB992790F995
:103C900021E0922790FB82F990FB83F9C9CF61E084
:103CA0008EE090E00E943332BACE90918B04892F3F
:103CB0008F7E94FF8061BCCF90918B04892F8E7F83
:103CC00090FF8160B5CF80919801811104C089E295
:103CD0000E94C00A0BCF85E3FBCF0A358DE518079C
:103CE00009F468C008F044C00115ACE51A0709F4EE
:103CF00051C00E3D1C4509F45AC0F70186819781D9
:103D0000009709F45BC00E94DE08182F092FF70105
:103D1000D280C580C2943FE0C322809103028770A5
:103D2000C1F0AD2CDD20B1F0892F807F803421F0EF
:103D300080E2810F883068F080918C0482FD09C098
:103D400082E00E946A11809103028770AA24A394E2
:103D50008111A12C902E92942FE09222FBE0F91574
:103D600008F4B9C0E92DF0E0E558FD4C0C94E231BF
:103D70000B35EDE51E0701F10C351D4509F0BDCFF2
:103D800080918C0482FB882780F991E089270E942A
:103D90008611B3CF0E94C0112FEF34E34CE02150C5
:103DA00030404040E1F700C000000E94850C0E94B6
:103DB0005E1974CB81E0EBCF80E0E9CF8281008196
:103DC0001181882369F0C8010E94240DD82E682F24
:103DD000C8010E94760BB8018D2D0E94080D93CF6B
:103DE000C8010E94490BD82EF6CF202F2F70B22E7B
:103DF000802F807F19F0B29490EFB922DD20A9F0D6
:103E0000BB2059F080E2810F883010F0111107C0FB
:103E10008B2D0E94930A0E944C10812F5AC08091D2
:103E2000C004B82AB092C004F6CF812F0E94271692
:103E3000BB2009F450C080E2810F883010F01111CE
:103E400004C08B2D0E948C0A03C08B2D0E94850A12
:103E50000E944C1040C0302F3F70B32E802F807FC7
:103E6000803219F0B29480EFB822112321F1113081
:103E700009F4A4C0DD2009F4ADC0CC2009F47DC054
:103E800020E0D7014C9111965C91119712966C919C
:103E9000129713967C91139714968C910E946D0D36
:103EA0008091C40381FDB9CFF701858180FFB5CF33
:103EB0008F70858362C080918C0482FF40C0DD20BA
:103EC000C1F1BB2029F08B2D0E94930A0E944C1057
:103ED00080E00E949516A92DA850BB0B149710F4F2
:103EE0000E94C405812F902F0E94A60B8111C4C18E
:103EF00010929A0110929901AA20B1F080910302C8
:103F000080FD12C0D70112961C92859585958595E6
:103F10000E949B11C7010E94C819809103028595D8
:103F2000859585950E945E1160E0C7010E94960DFF
:103F3000C5CA80E00E942716BB2069F282CFDD202F
:103F400001F1C11004C0809126028B2917C041E005
:103F5000C41206C0809126028B290E94710ABBCF31
:103F60008091C303823078F3C812EDCF0E94660AB5
:103F700080910002B812B09200028B2D0E94201690
:103F8000AACFC11006C00E94660A8B2D0E94191686
:103F9000A2CF8091C30351E0C5120BC0823008F458
:103FA0009ACF8091DA028B2109F495CF0E94BA0A48
:103FB000EACF823040F3C812E6CF8DCF8091C9039B
:103FC000DD2021F08C1508F486CFD7CFC81608F075
:103FD00082CFDBCFCC20C9F28091C7039091C80378
:103FE000193321F08091C5039091C6030E94A90C5A
:103FF000812F0E9427166FCF802F8695869583701C
:1040000069F0813009F067CF812F902F9370D11024
:1040100002C090E080E00E9498055DCF812F902F34
:104020009370D11002C090E080E00E94AE0553CFA3
:10403000812FDD2029F00E941A080E94D8064BCF5C
:104040000E94FF06FACF802F837091F5D11043CFE5
:10405000412F429546954770440F440F812F8F7032
:10406000042E01C0880F0A94EAF7212F207114FF53
:1040700007C02FE030E001C0220F4A95EAF72095F3
:10408000302F369536953370323069F050F44091C8
:104090002702313029F0822B84230E94BC111BCFD0
:1040A000842B822BFACF282B809127028227F5CFF1
:1040B0008695DD2011F0802F8170882309F40BCFC5
:1040C000412F429546954770440F440F812F8F70C2
:1040D000042E01C0880F0A94EAF7212F207114FFE3
:1040E00007C02FE030E001C0220F4A95EAF7209583
:1040F000302F369536953370323069F050F4409158
:10410000BF04313029F0822B84230E944F11E3CE6B
:10411000842B822BFACF282B8091BF048227F5CFE6
:10412000F02FFF70BF2EDD2029F08F2F0E949B11F2
:10413000812F24CF812F0E9419168B2D0E945E1192
:10414000CACE123F89F160F4103FB9F0113F81F0FF
:10415000DD2009F48CC0C11060CE802F8F7128C083
:10416000133F49F1143FA1F780918C0482FF2FC0C7
:10417000802F8F71DD2011F31BC08091C903DD20DA
:1041800079F0C81608F0A7CE202F2F7181E090E0BB
:1041900001C0880F2A95EAF79091BF048927B5CF0F
:1041A0008C1508F498CEF0CF802F8F71D110C6CF28
:1041B0000E949B1190CE80E0DD2009F4A6CF81E023
:1041C000902F9F7101C0880F9A95EAF79ECF80913A
:1041D000C3038230A0F180910002DD20F1F00E9443
:1041E0008C0A809103028770843041F40E94990AFE
:1041F000802F8F710E945E11A12C6DCE8091C30320
:10420000C816D0F7202F2F71B22E822F0E949B113B
:1042100063E08B2D0E94A611EFCF0E94930A80913C
:10422000C303C81640F00E94990A0E94BA0A64E0CB
:10423000802F8F71EFCF81E00E946A11DDCFDD20EA
:1042400059F0302F3F71B32E832F0E949B1163E0F2
:104250008B2D0E94A6113FCE81E00E946A1141E0A1
:104260004C1508F038CE82E00E946A1134CEC1109D
:10427000B3CE802F8F7162CFDD2019F0C11038CE00
:104280003BCEC11035CE20E0F701408151816281E3
:10429000738184810E946D0D8091C40383FF28CEB9
:1042A0008091990190919A01029709F021CE812F76
:1042B0000E9447171DCE0031BFE51B0709F4AAC9AC
:1042C0000131EFE51E0709F4AFC96801E7E5DE1A21
:1042D000882309F4ABC9FFEFCF16D10409F008F425
:1042E000D7C98091C20380FF39C00E948C056C0140
:1042F000D70112968C91882309F447CA80911A013C
:1043000082FF08C02CE432E040E0B60190E080E09B
:104310000E94A2180B31BCE51B0709F428CA0C3116
:10432000ECE51E0709F429CA90911A01892F8E7FA6
:1043300090FF81600A31FCE51F0709F421CAC8011A
:104340009056811520E2920728F0905E81159041E9
:1043500008F029CA1092FE021092FD02033FBCE54C
:104360001B0709F46BCB08F00ECB083DFCE51F07DB
:1043700009F45ECB093D2CE5120709F477CB073D24
:104380003CE5130709F00BCB06E221EE41EE67EDA9
:104390007CE5C7010E94681781C806311C4509F0F9
:1043A000ACCC79CBCF92DF92EF92FF920F931F9319
:1043B000CF93DF938091BB01807F31F48091B8016E
:1043C000C091FF0181110BC0DF91CF911F910F911F
:1043D000FF90EF90DF90CF9008952196C770809165
:1043E000BE018C1789F3F090B601E090B701C09040
:1043F000B901D090BA01A6016E2D8F2D0E94D00573
:10440000D0E08111EACF8E0183E0000F111F8A9561
:10441000E1F7F801E154FE4F81818E11DECF8081FA
:104420008F11DBCF82818111D8CFE380F480EC182B
:10443000FD0860E086EB91E00E94960D8091BF033D
:104440009091C003E816F90640F68091BB018F7089
:1044500080618093BB01F801EC53FE4F80818F7027
:104460008061808386EB91E00E94C819DF91CF9133
:104470001F910F91FF90EF90DF90CF900C943F0B26
:104480003F924F925F926F927F928F929F92AF92E4
:10449000BF92CF92DF92EF92FF920F931F93CF9331
:1044A000DF93CDB7DEB765970FB6F894DEBF0FBECA
:1044B000CDBF8C0185E0F801DE01519601900D928F
:1044C0008A95E1F7D8014C9011965C90119712965D
:1044D000EC9012971396CD90DC9060E086EB91E023
:1044E0000E94960D86EBA82E81E0B82E8090B9012F
:1044F0009090BA01A4016091B7018091B6010E9429
:10450000D0058111CAC1F090B801F601E819F90986
:104510004F0160E0FF2009F46DC1C5010E94960DB6
:104520006090BF037090C0033090BB018614970465
:1045300008F013C14091B9015091BA01B090B60191
:10454000A090B701832D807F6A2D09F0ADC08B2D1F
:104550000E94D005FE2C81113BC0D80111968C9190
:1045600011978A1135C08C918B1132C02091BC01FA
:104570003091BD0116968D919C912817390741F510
:10458000E11026C0832D8F7080618093BB0186EB84
:1045900091E00E94C8198091BB01F80185838F2D9D
:1045A00065960FB6F894DEBF0FBECDBFDF91CF91F9
:1045B0001F910F91FF90EF90DF90CF90BF90AF9041
:1045C0009F908F907F906F905F904F903F90089555
:1045D000F4EF6F16F1E07F0620F48091C40380FFB2
:1045E00021C0A601652D842D0E94D005811118C01F
:1045F00081E08E2580FF16C04E2D652D842D0E94F2
:104600001F0B882379F086EB91E00E94C81988E09F
:10461000E6EBF1E0DF011D928A95E9F7F12CBFCFBF
:1046200080E0E8CFA601652D842D0E94D005811180
:1046300024C081E08E25B82FB170CB2E80FF2BC017
:104640004E2D652D842D0E941F0BD82E811123C065
:10465000498A5A8A89899A890E94530D292F22955D
:104660002F70223060F0243088F49F7061F0F801E0
:104670009581907F41F4FD2C92CF80E0DCCF9F703C
:1046800011F08823C1F3805E8830A8F3C8010E942E
:10469000C819DC2CF0CFEE2009F481CF8091BB014A
:1046A00081608093BB01BACF8B2D0E94D005811110
:1046B00024C0D80111968C9111978A111EC08C913B
:1046C0008B111BC02091BC013091BD0116968D91BC
:1046D0009C9117972817390781F4E1100EC01596A1
:1046E0003C92C8010E94C81988E0F801A6EBB1E02D
:1046F00001900D928A95E1F752CFC8010E945F0D9B
:10470000882339F1EE2029F18091BB018032A0F09D
:104710002091B6013091B7013A8729871B86DD8643
:10472000CC868E878091BC019091BD01988B8F873C
:10473000CE0109960E94C81988E0F801A6EBB1E005
:1047400001900D928A95E1F70E94D221FF24F39403
:1047500026CFC8010E94C819F9CF832D807F09F4A4
:1047600052CF9090B6018090B7014091B90150911D
:10477000BA01682D892D0E94D00581111CC0F80155
:104780008181881118C08081891115C02091BC01D8
:104790003091BD01868197812817390761F4E110B6
:1047A0000AC03582C8010E94C81988E0D5011D924F
:1047B0008A95E9F7F4CEC8010E945F0D882349F27B
:1047C000EE2039F28091BB01803208F4B5CF209100
:1047D000B6013091B7013A8329831B82DD82CC82F6
:1047E0008E838091BC019091BD0198878F83CE010B
:1047F0000196A0CF86EB91E00E94960D8091BF03B9
:104800009091C0038816990680F6FE2CEE2009F4DC
:10481000A0CFE090B601D090B7014091B90150917E
:10482000BA016D2D8E2D0E94D005811128C0F8018E
:1048300081818D1124C080818E1121C02091BC0105
:104840003091BD018681978128173907C1F4809185
:10485000C40382FD49CF9091BB0190FD45CF907F6D
:1048600009F442CF8091BB018583903F09F439CF91
:10487000982F907F905F8F70892B858332CFC801EE
:104880000E945F0D811158CF8091BB0181608093A0
:10489000BB01C8010E94C81982CEEE2009F459CF8D
:1048A000C8010E945F0DF82E882309F452CF88E0DA
:1048B000F801A6EBB1E001900D928A95E1F78091A5
:1048C000B6019091B7010E94530D0E94D22167CE8C
:1048D000CF93DF93CDB7DEB760970FB6F894DEBF06
:1048E0000FBECDBF29873A874B875C876D877E8750
:1048F0008F87988BCE0109960E94402281112FC08C
:1049000088E0FE013996DE01119601900D928A959C
:10491000E1F74C855D856A8589850E94D005811106
:104920001EC0A091BE01B0E0CD010196877099270D
:104930002091FF012817190609F193E0AA0FBB1F68
:104940009A95E1F7A154BE4F98E0FE01319601908F
:104950000D929A95E1F78093BE010E943F0B8091E2
:10496000FF019091BE01891317C060960FB6F894AD
:10497000DEBF0FBECDBFDF91CF9108950E94C01161
:104980001092BE011092FF0188E0E6EBF1E0DF013A
:104990001D928A95E9F7E3CFB8E08B9FC0011124FF
:1049A00081549E4F0E9440228823F9F28091FF019A
:1049B00090E00196877099278093FF01D0CFEF9206
:1049C000FF920F931F93CF93DF938091020388236D
:1049D00061F0C09101038CE0F82E80910203C817AA
:1049E00058F01092020310920103DF91CF911F91B2
:1049F0000F91FF90EF900895EE24E394EC0EE09277
:104A000001030C2F10E0CF9DE0011124CD5FDC4F9E
:104A10004B815C81698188810E94D00581111DC014
:104A20008E819F81892B21F488859985019651F487
:104A3000288139814A815B816C817D818E819F8152
:104A40000E946824F09EF001F19EF00D1124ED5FAC
:104A5000FC4F148213821092C004CE2DBECF109250
:104A6000A6031092A50310921B018091A4038093CA
:104A7000A3030E9409060C94DF243F924F925F9299
:104A80006F927F928F929F92AF92BF92CF92DF925E
:104A9000EF92FF920F931F93CF93DF93C091A303E5
:104AA00097E0892E01E010E02CE0322E3EEF932EAD
:104AB000442443948091A4038C1315C00E94DF24E6
:104AC000DF91CF911F910F91FF90EF90DF90CF90EA
:104AD000BF90AF909F908F907F906F905F904F901E
:104AE0003F900C940906D0E0FE01EE0FFF1FE55643
:104AF000FC4F80819181889ED001899EB00D112448
:104B0000AD59BC4F14962C911497211157C0509059
:104B10000203E3E0F3E030E020E0712C5D012515B5
:104B200008F04AC0E284F384D501CD90DC906FEFA9
:104B30007FEF612C462D50E0DA01AA0FBB1FAC0DB0
:104B4000BD1D0D90BC91A02D109731F0EA16FB060B
:104B500009F4BA016394EECF6F3F7607A1F1D80153
:104B600002C0AA0FBB1F6A95E2F77A2AB80102C0F9
:104B7000660F771F6A94E2F7AB0141505109741632
:104B80001506F9F4329EF001339EF00D1124ED5F0D
:104B9000FC4F889ED001899EB00D1124AD59BC4FA9
:104BA00012962D913C9113973783268390829182A0
:104BB0009187808715964C920E94DB052196C370E1
:104BC00079CF148213822F5F3F4F3C96A8CF2F924C
:104BD0003F924F925F926F927F928F929F92AF928D
:104BE000BF92CF92DF92EF92FF920F931F93CF93DA
:104BF000DF93CDB7DEB769970FB6F894DEBF0FBE6F
:104C0000CDBF942F498B252F5A8B6B8B7C8B8D8B33
:104C10004C895D89622F892F0E94D005811109C0BE
:104C20008091990190919A01019690939A018093B5
:104C300099018B8981111092C0041D861E861F86E2
:104C4000188A85E0FE017196DE01199601900D9299
:104C50008A95E1F780918C0482FD1EC08091A903A2
:104C60009091AA03892BC1F00E948C05209101022A
:104C700030910202821B930B2091A9033091AA0369
:104C80008217930720F08091030282FFF5C10E94F2
:104C9000A00A81110E94660A4C855D856A85898516
:104CA0000E94D005811111C061E0CE0109960E94D9
:104CB000960D6C018B8527EFC2162CE5D20681F488
:104CC000882321F181E080931B0129853A854B855A
:104CD0005C856D857E858F8598890E946824C5C016
:104CE00038EFC3163CE5D30629F4882379F00E94F7
:104CF0002F25EBCF49EFC4164CE5D40639F48823B1
:104D000029F080911B018111F2CFDCCF03E613E083
:104D1000512CB12CA12C22242394312C2EEF422E85
:104D2000F8014081518188248A94982C20E0822FB8
:104D300090E0FC01EE0FFF1FE40FF51F6081718111
:104D40006115710531F0C616D70609F44C012F5FC5
:104D5000EECFF12CFFEF8F169F0609F448C0F80143
:104D60004481F0901B018F2D411180E0F82FF170EC
:104D7000FF2EF801E58086819B85992309F40CC1FB
:104D8000FF2009F409C16090BD037090BE03E110DB
:104D900012C0A10101C0440F8A94EAF7842B8683D4
:104DA0008091FF02909100038615970520F4709280
:104DB00000036092FF02C10102C0880F991F2A956B
:104DC000E2F70197F80126812817190681F48091EE
:104DD000A5039091A603009709F460C00E947D0589
:104DE0006816790608F05AC021E0F80124835F288C
:104DF000FFEFAF1ABF0A095F1F4F28E0A216B104E8
:104E000009F08ECF8B85882309F421C1552009F440
:104E10001EC10E948C059093A6038093A5038091E8
:104E20000203883010F591E0980F9093020398E008
:104E3000FE013996DE01119601900D929A95E1F7E7
:104E40003CE0839FC00111248D5F9C4F28E0FE0150
:104E50003196DC0101900D922A95E1F72FEF3FEF9B
:104E6000FC0131872087D386C28669960FB6F894F5
:104E7000DEBF0FBECDBFDF91CF911F910F91FF908D
:104E8000EF90DF90CF90BF90AF909F908F907F90EA
:104E90006F905F904F903F902F9008958091A30363
:104EA0005091A403982FF0E0E0E0851314C0909394
:104EB000A303E017F10709F49ACF90E0FC01EE0F8D
:104EC000FF1FE556FC4FB182A0820196837099279F
:104ED0008093A4038CCF682E712CF301EE0FFF1F7B
:104EE000E556FC4F2081318147E0429FD001439F2E
:104EF000B00D1124AD59BC4F6D917C911197798FF4
:104F0000688F40E020E030E0E32FF0E0EE0FFF1F7D
:104F1000688D798DE60FF71F808091808114910450
:104F2000E1F0F8010190F081E02DFF8BEE8B20E0A5
:104F300005C08616970609F44F2D2F5FE22FF0E08B
:104F4000EE0FFF1F6E897F89E60FF71F6081718169
:104F50006115710571F73F5FD7CF4423D1F0F80198
:104F6000231708F0FD0121E024830E171F0721F409
:104F70009093A303F42E3BCF981305C0AE17BF0741
:104F800011F49F5F937093012F5F3F4F822F8370C7
:104F90008CCFF0E0E0E0F7CF90E0E1101FC0B1016E
:104FA00002C0660F771F2A95E2F79B012150310955
:104FB0008217930731F4442309F447C0C5010E94C6
:104FC000DB05C10101C0880F8A94EAF7982F9095FC
:104FD000F801868189238683FE2C09CF9C01082C49
:104FE00002C0359527950A94E2F7A901417055272B
:104FF000BC016150710986239723892B11F5452B3C
:1050000001F1F80182819381892BC1F01B821C82FE
:105010001D821E8249824A820E948C058160582F1F
:105020009D838C83F801828193818F839887298166
:105030003A814B816D817E810E946824F80115823E
:10504000C0CFF22FF170EF2EBCCFEF2CBACF9091E2
:10505000A3038091A403981731F00E943D255520A9
:1050600009F433CE02CF0E94DF241092A6031092DF
:10507000A5030E940906F3CF82E00E946A1107CEC1
:10508000CF93DF9300D000D00F92CDB7DEB79093CF
:10509000D7028093D602811520E2920748F40F9040
:1050A0000F900F900F900F90DF91CF910C947D1681
:1050B0008EEF89838A831B820E948C058160782F02
:1050C0009D838C8349815A816B818D810F900F90D4
:1050D0000F900F900F90DF91CF910C94E7250F93D5
:1050E0001F93CF93DF938C01EB016CE772E08C2F61
:1050F0000E94830E892BA1F48091C5039091C60371
:105100000E94A90CDD27CC58DD4F8881F801108260
:105110001882833009F148F4813059F0823081F0EF
:10512000DF91CF911F910F9108958430D1F0853098
:10513000B9F780917C0290917D02009789F306C0B7
:1051400080917E0290917F02009799F3DF91CF9139
:105150001F910F910C9440288091800290918102C0
:10516000F3CF8091820290918302009779F720918A
:105170007C0230917D0280917E0290917F02211508
:105180003105D9F2009711F7C901E0CFCF93DF9332
:1051900000D000D00F92CDB7DEB79093D7028093A6
:1051A000D602811520E2920748F40F900F900F90DD
:1051B0000F900F90DF91CF910C9477188EEF898329
:1051C0008A8381E08B830E948C058160782F9D8388
:1051D0008C8349815A816B818D810F900F900F9044
:1051E0000F900F90DF91CF910C94E725CF93DF9331
:1051F000EC010E94C6288091C5039091C6030E94CD
:10520000A90CCE01DF91CF910C9440280F931F93EE
:10521000CF93DF938C01862F6CE772E00E94830EA0
:10522000892BC9F4C0917C02D0917D02209799F01E
:10523000F8018081833069F4CE010E94F628CE0106
:105240000E94F628CE01DF91CF911F910F910C940F
:10525000F6288430B8F7DF91CF911F910F91089510
:105260000F931F93CF93DF938C01EB016CE772E0F8
:105270008C2F0E94830E892B09F064C0FE01FF274A
:10528000D8018C91EC58FD4F8130D9F419969C913E
:105290001997992311F080830CC01A969C91992339
:1052A000D1F382E0808380917E0290917F0200970B
:1052B000D9F480917C0290917D02009709F442C05C
:1052C00013C08230E9F519968C91199781112DC080
:1052D0001A968C9181110EC083E0808380918002A8
:1052E00090918102009719F1DF91CF911F910F9159
:1052F0000C94C62884E0808380918202909183027E
:10530000009791F780917C0290917D020097F9F0CF
:105310000E94F62880917E0290917F02009721F7EB
:1053200080917C0290917D02DFCF85E08083809127
:105330007C0290917D02009729F00E94F628F0CF20
:1053400086E08083DF91CF911F910F910895809126
:105350007E0290917F02B1CF1F920F920FB60F92F3
:1053600011242F933F934F935F936F937F938F936A
:105370009F93AF93BF93CF93DF93EF93FF93D0911E
:10538000E900DF708091EC00C82FC17080FDC0E89B
:105390001092E9008091F000877F8093F00078946C
:1053A0000E94D5111092E9008091F00088608093EE
:1053B000F000CD2BCF70C093E900FF91EF91DF910A
:1053C000CF91BF91AF919F918F917F916F915F919D
:1053D0004F913F912F910F900FBE0F901F901895F6
:1053E0001F920F920FB60F9211242F933F934F935A
:1053F0005F936F937F938F939F93AF93BF93EF933D
:10540000FF938091E10082FF09C08091E20082FF5A
:1054100005C08091E1008B7F8093E1008091DA00EC
:1054200080FF24C08091D80080FF20C08091DA00E6
:105430008E7F8093DA008091D90080FF9DC080E14B
:1054400089BD82E189BD09B400FEFDCF81E0809372
:10545000B50480919004811109C00E94EF030E945D
:10546000BA048091E20084608093E2008091E100C0
:1054700080FF17C08091E20080FF13C08091E2009E
:105480008E7F8093E2008091E20080618093E20051
:105490008091D80080628093D80019BC85E0809309
:1054A000B5048091E10084FF2BC08091E20084FF6D
:1054B00027C080E189BD82E189BD89B5982F9170AF
:1054C00080FFFBCF8091D8008F7D8093D8008091A2
:1054D000E1008F7E8093E1008091E2008F7E8093D7
:1054E000E2008091E20081608093E2008091B60446
:1054F000882309F447C084E08093B5048091B50403
:105500008091E10083FF27C08091E20083FF23C0E8
:105510008091E100877F8093E10082E08093B50471
:105520001092B6048091E1008E7F8093E10080911B
:10553000E2008E7F8093E2008091E20080618093A0
:10554000E20042E060E080E00E9488048091F00088
:1055500088608093F000FF91EF91BF91AF919F9190
:105560008F917F916F915F914F913F912F910F900C
:105570000FBE0F901F90189519BC1092B504109291
:10558000900474CF8091E30087FD93E09093B5047D
:10559000B5CF78941F921FB61F9211248F939F93BB
:1055A000AF93BF938091870490918804A091890460
:1055B000B0918A040196A11DB11D80938704909338
:1055C0008804A0938904B0938A04BF91AF919F91FE
:1055D0008F911F901FBE1F9018951F921FB61F928C
:1055E00011248F939F93AF93BF9380918604811171
:1055F00013C08091870490918804A0918904B09190
:105600008A044196A11DB11D80938704909388045C
:10561000A0938904B0938A04BF91AF919F918F9119
:105620001F901FBE1F901895CDB7DEB7E4970FB639
:10563000F894DEBF0FBECDBF84B7877F84BF0FB69F
:10564000F894A89580916000886180936000109222
:1056500060000FBE80E890E00FB6F8948093610080
:10566000909361000FBE85B7806885BF85B780685D
:1056700085BF82E898E090937701809376010E943D
:10568000970E0E94ED0E0E94B30C0E94EF030E9441
:10569000BA048091E20084608093E2007894809163
:1056A000B5048823A1F01091E9001F709091EC00DF
:1056B000892F817090FD80E8182B1092E90080916D
:1056C000E80083FD0E94D5111F701093E90082E06D
:1056D00084BD93E095BD9AEF97BD80936E000E94C4
:1056E000A40D811102C00E94801506E511E08EE52F
:1056F000E82E81E0F82ED8018D918D018F3F11F0B9
:105700000E948408E016F106B1F70EE511E0B7E655
:10571000EB2EB1E0FB2EF80181918F018F3F11F04C
:105720000E948408E016F106B1F780E1E7E5F2E0B7
:10573000DF01282F1D922A95E9F7EBE2F2E0DF0165
:105740001D928A95E9F790E080E00E942D32893E13
:105750009E4F21F40E94A40D811102C00E945E1987
:1057600082E090E00E94253280933B020E94BD0DB2
:1057700090938C0480938B040E94460FEFE3FCE926
:105780003197F1F700C000000E94460F8091570248
:1057900080FF08C06FEF7FEF90E080E00E94513201
:1057A0000E94850C83E090E00E9425320E94BC118B
:1057B00080E091E09093830480938204E8E16E2E70
:1057C000712CF0E45F2EA7E68A2EA2E09A2E8E01BD
:1057D0000F5F1F4F8091B50460E1E62E72E1F72E56
:1057E000853009F451C10E94460F882359F08FB7C4
:1057F000F8944091870450918804609189047091D5
:105800008A048FBF57E5C52E52E0D52EECE3F2E0B7
:10581000D601F12CE12C7E2D8D919D91219131911C
:105820002817390709F440C160E0AA24A394B12CD9
:1058300028273927A9014A215B21452B09F42EC1CC
:105840006BA77CA79C012A213B2191E0232B09F423
:1058500090E09DA70E948C058160782F9FA78EA75E
:105860004BA55CA56DA58FA50E94E725F701EE0F5E
:10587000FF1FE45CFD4F80819181A826B926B1828B
:10588000A08280910C0190910D01B12C76E1A72EA0
:10589000019609F051C180911B01811157C180917E
:1058A000C20380FF1EC080911A0182FF1AC00E94AD
:1058B0008C052091FB023091FC02AC01421B530B82
:1058C00020911801309119014217530750F02CE430
:1058D00032E041E0BC018091FD029091FE020E9405
:1058E000A21886E0EEE6F2E0D80101900D928A95CA
:1058F000E1F7A0907002B0907102E0907202F09017
:105900007302109270021092710210927202109241
:1059100073028A2D8B2991F080916C0290916D0217
:105920000E947D05AC0190916802992309F439C168
:10593000809116018417150608F441C18E2D8F2918
:1059400091F080916A0290916B020E947D05AC01FA
:1059500090916702992309F471C180911201841713
:10596000150608F479C18091700290917102892B1B
:1059700090917202892B90917302892B11F00E94F1
:10598000D80686E0F801AEE6B2E001900D928A9565
:10599000E1F70E94C4059091540289138093540248
:1059A0008091B504843009F015CF83E08093E9003D
:1059B0008091E80082FF0ECF8091E80090E085FFA3
:1059C0000AC00E940E0460E2E62EF12C58018823E2
:1059D00009F48BC191E08091E8008B778093E80017
:1059E000992309F4F7CEE090D802F090D90289818A
:1059F000E114F10409F487C18E3F09F0CFC18A8117
:105A0000833020F08550833008F0C8C1EA81EE3041
:105A100008F0C4C1F0E0E957FD4C0C94E2318091EC
:105A2000B504843009F1109286040FB6F894A89555
:105A3000609260000FBE5092600083B7817F8460E7
:105A400083BF83B7816083BF7894889583B78E7F47
:105A500083BF0FB6F894A895809160008861809309
:105A60006000109260000FBE8091B404882361F042
:105A70000E94460FE7E5F2E081919191892B09F0B0
:105A80002CC48E169F06C1F78091B504853009F4A9
:105A9000C6CF0E94C0110E94C405A5CE6F5FAA0C9C
:105AA000BB1C693009F0C6CE2FEFE21AF20A38E0CB
:105AB000E316F10409F0AFCE8FEF88AB89AB1AAAD9
:105AC0000E948C058160782F9CAB8BAB48A959A9AB
:105AD0006AA98CA90E94E725D4CEA89EF001A99EB0
