:100000000C948C030C94C4030C94C4030C94C4038C
:100010000C94C4030C94C4030C94C4030C94C40344
:100020000C94C4030C94C4030C94D9280C94952804
:100030000C94D6290C94C4030C94C4030C94C403EC
:100040000C94C4030C94C4030C94C4030C94C40314
:100050000C94C4030C94B2290C94C4030C94C403F0
:100060000C94C4030C94C4030C94C4030C94C403F4
:100070000C94C4030C94C4030C94C4030C94C403E4
:100080000C94C4030C94C4030C94C4030C94C403D4
:100090000C94C4030C94C4030C94C4030C94C403C4
:1000A0000C94C4030C94C4030C94C403050109020A
:1000B000A10185020901A100050919012905150001
:1000C00025019505750181029501750381010501E1
:1000D000093009311581257F950275088106093897
:1000E0001581257F950175088106050C0A380215D2
:1000F00081257F950175088106C0C005010980A191
:1001000001850319012AB700150126B7009501756D
:10011000108100C0050C0901A101850419012AA064
:1001200002150126A002950175108100C005010984
:1001300006A1018506050719E029E71500250195A7
:1001400008750181020507190029EF1500250195A1
:10015000F0750181020508190129059505750191C0
:1001600002950175039101C00660FF0961A10109B3
:1001700062150026FF0095207508810209631500AD
:1001800026FF00952075089102C005010906A1010E
:10019000050719E029E71500250195087501810279
:1001A0009501750881010507190029FF150026FF33
:1001B0000095067508810005081901290595057542
:1001C000019102950175039101C0FD377A585A00DB
:1001D0000004E6D6B4460200210116000000742F88
:1001E000E5A3E00485016B5D003D8889C65436C3F4
:1001F000174FE4F3738C5FDA3FC84339CF4A336F4C
:100200002BFCF984D54A5A8C9BFC8D91B6C1F02900
:1002100036210A369DB75F8D46172DB82861D7DA8B
:10022000AFCAD9BD9768D0D3A1ABB3F9B5216116D8
:1002300066B362C69A09A93C74AA67B181976E95A4
:100240004BB3885934DE2C174B5DD7891E3103839D
:10025000337A5239D4ED135E5EFEC0A71260779FE9
:100260004242BFDEFE636AFCF201240F940480B9AF
:10027000922203C03F36828991F43545334248D7F4
:1002800031C437074939ECDB1C06C31519D01AC72E
:10029000938B64452A2729D4C92D55557312B57EF1
:1002A0004193FF484517E469E66B79AA278EF796D4
:1002B000C97452AE5957F1404C8D40E6D79496F52B
:1002C0005CD7067DA7B1F93162AF3354014A8D7610
:1002D0009BB673794A66D9FA236BE95EE843154DFC
:1002E0007732884539A5BD75A49854F32811094C77
:1002F00027EC05CD316154FB337375500A0BDAC816
:1003000003EC48CAF44A7AB63558D5F568DE1209C6
:10031000450872612C5E667446ABD9B6817608CD0D
:1003200092270AB3FB65E218BEEBE9FE3050D88095
:1003300056DE95AFFC9C2C5B6B31B2EFC476DD587A
:10034000739B954CD215FCA0646E79C5EC9653E274
:10035000DC1A7400000098F25D127CF86B08000152
:100360008703860900000558A340B1C467FB02005B
:1003700000000004595A14001A0008001500170064
:100380001C0018000C0012001300040016000700E7
:1003900009000A000B000D000E000F0034001D00C4
:1003A0001B00060019000500110010003600370080
:1003B0003800AE000000E000E2002C002A00E70058
:1003C000E6000000A800010001000100010001009A
:1003D0000100010001000100010001000100010015
:1003E0000100010001000100010001000100010005
:1003F00001000100010001000100010001000100F5
:1004000001000100000001000100010001000100E5
:1004100001000000010001000100010001000100D5
:1004200001000100010001000100010001000100C4
:1004300001000100010001000100010001000100B4
:1004400001000100010001000100010001000100A4
:100450000100010000000100010001000100010095
:100460000100000001000100010001000100010085
:100470000100010001000100010001000100010074
:100480000100010001000100010001000100010064
:100490000100010001000100010001000100010054
:1004A0000100010000000100010001000100010045
:1004B000010000000100010001007E03FA0D2D0E75
:1004C0000000020002007A03FA0D2D0E0000030066
:1004D00001007F03FA0D2D0E0000040002006403EA
:1004E000FA0D2D0EBF06050001008003FA0D2D0E3A
:1004F0000000060002006603FA0D2D0E0000070042
:1005000002007C03FA0D2D0E00000800010081039B
:10051000FA0D2D0E0000090002006803FA0D2D0EE1
:100520009A060A0002006A03FA0D2D0E9A060B00C5
:1005300002006C03FA0D2D0E9A060C0002006E03E9
:10054000FA0D2D0E9A060D0002007003FA0D2D0E05
:100550009A060E0002007203FA0D2D0E9A060F0085
:1005600002007403FA0D2D0E9A06100002007603A5
:10057000FA0D2D0E9A06110002007803FA0D2D0EC9
:100580009A06120002008203FA0D2D0E00001300DD
:1005900002008403FA0D2D0E0000140001008603F2
:1005A000FA0D2D0E00001500000000002006D914E1
:1005B000000000000000000000000000000000003B
:1005C000000000000000000000000000000000002B
:1005D0000000000000007E0F00D4FFFFFFC70000F6
:1005E000007800000000000000002A2B2800000016
:1005F00000000000000000000000000000290000D2
:1006000000002C1E3420212224342627252E362DAE
:100610003738271E1F202122232425263333362E48
:1006200037381F0405060708090A0B0C0D0E0F10BA
:100630001112131415161718191A1B1C1D2F3130FF
:10064000232D350405060708090A0B0C0D0E0F10A3
:100650001112131415161718191A1B1C1D2F3130DF
:10066000354C09025B00030100A0FA0904000001F7
:100670000301010009211101000122400007058149
:100680000308000109040100020300000009211110
:100690000100012222000705820320000107050353
:1006A00003200001090402000103000000092111D8
:1006B00001000122BC000705840320000112010093
:1006C0000200000008110406D60100010203011C0B
:1006D000037600690061006C003A00660036003461
:1006E000006300320062003300630000001203491F
:1006F000006E006600650072006E0075006D0000FF
:100700000010036800610069007A006500750073DD
:10071000000000040309040011241FBECFEFDAE03B
:10072000DEBFCDBF04B603FE18C080917A0490915D
:100730007B04A0917C04B0917D048730904BA7404E
:10074000B04B59F410927A0410927B0410927C04FE
:1007500010927D04E0E0F8E3099511E0A0E0B1E03B
:10076000E8E5F6E602C005900D92A438B107D9F786
:1007700024E0A4E8B1E001C01D92AA37B207E1F776
:100780000E94FD290C9406330C940000E8EDF0E083
:1007900080818E7F80831092E2001092DA001092A6
:1007A000E100A0EEB0E08C9181608C9380818F7726
:1007B000808319BCA7EDB0E08C918E7F8C938081F3
:1007C0008F7E80831092490408952091E400309137
:1007D000E50095E6A9012091EC00822F817020FFB1
:1007E00006C08091E80080FF06C080E00895209157
:1007F000E80022FD1AC080917704882389F08530B3
:1008000089F08091EB0085FD0FC02091E4003091CC
:10081000E50042175307F9F29150E1F684E008959C
:1008200082E0089583E0089581E00895EF92FF92B9
:100830000F931F93CF937C018B010E94E503C82F78
:10084000811117C08091E80085FD0BC08091E80000
:100850008E778093E8000E94E503882399F3C82FE0
:1008600008C0F70181917F018093F10001501109C7
:1008700049F78C2FCF911F910F91FF90EF90089522
:10088000CF93FC0180917704843001F5C091E90099
:10089000CF702091EC00922F917020FD90E8C92B31
:1008A00082E08093E9008091E80080FF0CC050E076
:1008B00040E060E270E0CF010E9416048091E80001
:1008C0008E778093E800CF70C093E900CF910895B0
:1008D00080916F0487FF13C08091E80082FF06C0FB
:1008E0008091E8008B778093E80004C080917704C2
:1008F0008111F2CF0895809177048823D9F38091F4
:10090000E80080FFF8CF8091E8008E77ECCF982F39
:100910009093E900242F762F50E0891731F07091E1
:10092000EC002091ED005091F00021FD07C09F5F89
:10093000973071F78093E90081E008953091EB00E2
:100940003E7F3093EB003091ED003D7F3093ED0022
:100950003091EB0031603093EB007093EC0020930A
:10096000ED005093F0002091EE0027FDE0CF80E0F5
:100970000895B0E0A0E0EFEBF4E00C945932C8ED3C
:10098000D0E088818F7E8883E7EDF0E08081816010
:10099000808384E082BF81E08093490488818E7FD8
:1009A000888302EE10E0F80110821092DA0081EEE6
:1009B000C82ED12CF601108288818F778883888198
:1009C0008068888388818F7D888319BC1092770422
:1009D00010926E0410926D0410926C0490EEE92E49
:1009E000F12CF70180818B7F8083888181608883EF
:1009F00042E060E080E00E948704F60180818E7F03
:100A00008083F80180818160808380818860808319
:100A1000F70180818E7F8083888180618883CDB754
:100A2000DEB7E8E00C947532FC018091750490917A
:100A3000760486179707A0F06115710529F4909147
:100A4000E8009E779093E80090E06115710551F4FD
:100A5000911108C08091E80082FF34C080E00895C1
:100A6000BC01F2CF809177048823C1F18530C1F1B8
:100A70008091E80083FD30C08091E80082FDEACFDC
:100A80008091E80080FFE1CF8091F3002091F20097
:100A9000382F6115710519F02830310558F091E0B3
:100AA0002830310509F090E02091E8002E7720935E
:100AB000E800CBCF81918093F100615071092F5FE5
:100AC0003F4FE7CF80917704882341F0853041F094
:100AD0008091E80083FFBECF81E0089582E0089511
:100AE00083E00895089580914B0408959C014FB7C9
:100AF000F8948091400490914104A0914204B091F7
:100B000043044FBF821B930B08952FB7F894609155
:100B100040047091410480914204909143042FBF9E
:100B200008952FB7F8948091400490914104A091CA
:100B30004204B09143042FBF089520913D043091A9
:100B40003E042817390771F090933E0480933D04CA
:100B5000E0913B04F0913C04309721F00084F18552
:100B6000E02D099508952091390430913A04281711
:100B7000390771F090933A0480933904E0913B0473
:100B8000F0913C04309721F00680F781E02D099523
:100B90000895E0913B04F0913C04309729F00190D6
:100BA000F081E02D0995089580E00895452B39F0F6
:100BB000682381E06F3F09F080E08170089581E053
:100BC000FCCFDC016091300480913104962F8913B1
:100BD00001C00895292F30E0F901EE0FFF1FE85DF5
:100BE000FB4F408151814A175B07A1F487E08A9F40
:100BF000A0018B9F500D112440515C4F81E0FA0100
:100C000084839613E6CF2F5F3F4F237033272093C3
:100C1000300408952F5F3F4F922F9370D8CF1092DA
:100C20008D0310928C03E0EFF3E08581811102C007
:100C300014821682379684E0E832F807B1F70895F7
:100C4000B0E0A0E0E6E2F6E00C9457328FEF9FEFC1
:100C50004430510508F469C04091440441FB8827A1
:100C600080F990E0880F991F42FB002700F910E0FF
:100C7000000F111F000F111F802B912B40FBCC2464
:100C8000C0F8D12C8C299D2943FB222720F9C22FA3
:100C9000E0E0DE2F53E0CC0FDD1F5A95E1F78C2BFF
:100CA0009D2B44FBAA27A0F9B0E0E4E0AA0FBB1FEC
:100CB000EA95E1F78A2B9B2B45FBEE27E0F9F0E064
:100CC000A5E0EE0FFF1FAA95E1F78E2B9F2B46FBA9
:100CD000222720F930E0B6E0220F331FBA95E1F762
:100CE000822B932B47FB222720F930E03695322FB9
:100CF000222737952795822B932B20914504322F5D
:100D00003170F32EE82EF92A26952170B22EBB0CF5
:100D1000A82EBF28C501BB0CAA0BBB0BFB0180830F
:100D20009183A283B38390E080E0CDB7DEB7EAE0A1
:100D30000C947332E4E6F3E0848195812AE030E09C
:100D4000B9010E941A3260931301868180931201C7
:100D50008285809311018485809310018685978513
:100D6000B9010E941A3260930F01808980930E01AD
:100D7000828980930D01848980930C01089580916C
:100D80006403909165039093150180931401089575
:100D9000EDE7F2E090E080E06AEF77E241E258E2CE
:100DA0002FE637E277836683518740873387228730
:100DB0009587848701963E968830910599F7089526
:100DC00081152CE5920741F420913D0330913E03BB
:100DD000232B11F490E080E008950E9491059C017E
:100DE0009091670280916802982B21F03093640201
:100DF000209363029091690280916A02982B21F0FE
:100E00003093620220936102E0913B04F0913C0434
:100E1000309749F082E0809365020480F581E02DEF
:100E200085E692E00995089590916702803F59F414
:100E30008091680287FF0DC01092680291110BC06B
:100E400010925F0208C0813F81F4809168021816F9
:100E50009CF3992381F08091690290916A02892B19
:100E600009F064C010925E020895823F49F497FF32
:100E7000F0CF10926702809168028111ECCFE0CF31
:100E8000833F19F41916ACF3E4CF20916902893F2E
:100E900029F41216F4F610926902DBCF8A3F19F496
:100EA00027FFD7CFF8CF20916A028B3F29F427FF85
:100EB000D0CF10926A02CDCF8C3F19F41216CCF32A
:100EC000C8CF843F31F4809166028E7F80936602A2
:100ED000C0CF853F21F4809166028D7FF7CF863F9A
:100EE00021F4809166028B7FF1CF873F21F48091BE
:100EF0006602877FEBCF883F21F4809166028F7E68
:100F0000E5CF8D3F31F4809160028E7F8093600247
:100F1000A0CF8E3F21F4809160028D7FF7CF8F3F6D
:100F200009F097CF809160028B7FF0CF0895809178
:100F3000600280FF0CC060910D0170E075956795AF
:100F4000759567956115710549F1862F089581FFA3
:100F500006C060910D0170E075956795F3CF6091C3
:100F60000D0182FD0BC090915E029923A1F060916A
:100F70000C0180910D01961738F0682F70E06038F1
:100F8000710500F38FE70895899FC001112470E077
:100F90000E942E32F4CF61E070E0D7CF81E0089557
:100FA0008091600260916C0370916D0380FF16C0A8
:100FB00020911101269FC001279F900D1124BC0193
:100FC00076956795769567956038710508F043C00A
:100FD0006115710509F441C0862F089581FF0BC08A
:100FE00020911101269FC001279F900D1124BC0163
:100FF00076956795E9CF82FF09C0809111019B0129
:10100000829FB001839F700D1124DECF20915F027B
:101010002223D1F29091100180911101482F50E0CC
:10102000291748F0CB01849FB001859F700D949FD4
:10103000700D1124C9CF289F90011124269FA00173
:10104000279F500D369F500D1124692F70E0CA0163
:101050000E941A32B9CF8FE7089581E00895803F4A
:1010600031F40E94D0078195809368020895813FF2
:1010700019F40E94D007F8CF823F31F40E94D007C4
:101080008195809367020895833F19F40E94D007E9
:10109000F8CF893F29F40E94970780936902089549
:1010A0008A3F21F40E9497078195F7CF8B3F31F457
:1010B0000E949707819580936A0208958C3F19F4E6
:1010C0000E949707F8CF843F31F4809166028160D7
:1010D000809366020895853F21F4809166028260C4
:1010E000F7CF863F21F4809166028460F1CF873F7D
:1010F00021F4809166028860EBCF883F21F48091D3
:1011000066028061E5CF8D3F31F48091600281609D
:101110008093600208958E3F21F480916002826086
:10112000F7CF8F3FB9F7809160028460F1CF80E004
:101130000895F894E82FE295EF70F0E031A1282FA0
:101140002F7081E090E001C0880F2A95EAF7982F70
:101150009095932391A392A1892B82A378940895CB
:101160009091440492FF06C0282F28712830F9F48A
:10117000877F846093FF06C0282F28712831F1F4FF
:10118000877E84612091450420FF06C0382F387186
:101190003830D9F4877F816021FF06C0282F28715D
:1011A0002831D1F4877E816194FD877E0895282FB0
:1011B00024712430F9F68B7F8860DCCF282F2471CE
:1011C000243101F78B7E8861DDCF382F31713130CA
:1011D00019F78E7F8860E0CF282F2171213121F708
:1011E0008E7E8861E1CFCF93DF93EC018238910549
:1011F000B1F108F040C08133910509F49DC048F574
:101200008932910509F48DC08A9709F49CC0C115F3
:1012100021E5D20708F0C3C0C11530E5D30708F0B7
:101220001EC1C83ED10508F0A3C0C03ED10588F557
:10123000C83AD10508F08EC0C53AD10508F007C1FB
:10124000C130D10531F1209721F1C430D10508F525
:1012500045C08533910509F45FC0C997C1F68091F7
:101260004404837009F043C18091450483FF11C099
:10127000C9E2D0E00EC0833E910599F170F4803E42
:10128000910501F1823E910511F68091440482FDA1
:1012900021C0CE01DF91CF910895863E910561F185
:1012A000873E910571F1843E910509F0B0CF8091A0
:1012B000450481FFEECF80914404C7EED0E084FD69
:1012C0000DC0E7CF8091440480FD33C09091450468
:1012D00090FFDFCFC3EED0E084FFDBCFD0E0C0E0F3
:1012E000D8CF8091440482FDFFC09091450490FDC9
:1012F000FEC084FFCECFF2CF8091440483FDDDCFCA
:10130000C8CF8091440483FDF5C09091450491FFBE
:10131000F0CFC4EED0E0BDCF8091440485FFB9CFBB
:10132000A7CF8091440485FDE8C08091450483FFE8
:10133000B0CFC9E3D0E0ADCF8091440486FFA9CF00
:10134000CAE2D0E0A6CF8091440486FFA2CFC1E3D9
:10135000D0E09FCFCF3BD10508F6C85AD0E0CC0FE4
:10136000DD1FCC5DDE4F0990D881C02DD46491CFB4
:10137000C11540E2D40758F4C11581E0D80708F040
:1013800088CFC03FD10508F4A9CFD06582CFC11561
:1013900020E4D20708F4A2CFDF70D06A7ACFC1155B
:1013A00035E5D30718F5C11544E5D40708F084C026
:1013B000C11583E5D80708F06BC0C11522E5D20737
:1013C00008F461C0CE018370992721E030E002C0AB
:1013D000220F331F8A95E2F7C695C69580E2C89F13
:1013E000E0011124C22BD32BDC6853CFC11539E5A2
:1013F000D307A8F4C11548E5D40708F062C0C115A9
:1014000086E5D80708F06ACF8C2F0E94B008C82F55
:10141000D0E0DC2FCC27CC27DF71D0623ACFC115CA
:101420002AE5D20708F452C0CE01905681159042A9
:1014300008F054CF8D2F8F710E94B00890E0982F44
:10144000882788279F719C012C2BE901E6CFC55A7C
:10145000D0E0CF5DDE4FC881D0E0D0641ACFCE019E
:101460008370992721E030E002C0220F331F8A9554
:10147000E2F7C695C69540E2C49FE0011124C22B55
:10148000D32BDD6806CFDC2FCC27C16FD06A01CF0C
:10149000CE018370992721E030E002C0220F331F74
:1014A0008A95E2F7C695C69540E2C49FE0011124F3
:1014B000C22BD32BDA68EDCEDC2FCC27C46FD06AD9
:1014C000E8CEDC2FCC27C06FD06AE3CE8C2F8F7094
:1014D0000E94B00834E0D695C7953A95E1F7CF70F1
:1014E0009C2FEC01D069D5CEC2EED0E0D2CEC0EEBA
:1014F000D0E0CFCEC6EED0E0CCCEC5E3D0E0C9CEB2
:1015000080912802882331F010922802109227023D
:10151000109226020895CF93C82F8091450482FF30
:101520000CC0809128028C1741F00E949105909385
:10153000270280932602C0932802CF9108958095B8
:1015400090917904982390937904089580959091CF
:101550004303982390934303089590914303892B69
:101560008093430308951092050210920402109292
:10157000030208958091660390916703892B89F097
:101580000E9491052091260230912702AC01421B56
:10159000530B81E020916603309167034217530794
:1015A00008F480E081700895909118019923D1F09A
:1015B0009091440497FF16C0E82FE695E695E695CE
:1015C000EE31E0F4F0E0EA57FE4F282F277081E07B
:1015D00090E001C0880F2A95EAF7809592818923CF
:1015E00082830895E8E8F1E09191891303C0DF0157
:1015F00011971C9291E0EE38F907B1F70895909198
:1016000018019923C1F09091440497FF14C0E82F6A
:10161000E695E695E695EE31F8F4F0E0EA57FE4FF0
:10162000877021E030E001C0220F8A95EAF78281BD
:10163000822B82830895A8E8B1E0EFEF90E02D912E
:10164000821751F0EF3F19F4211101C0E92F9F5F7C
:101650009630A9F7EF3F09F408950E2E000CFF0B0A
:10166000EA57FE4FE6CF209102029091C101291363
:1016700002C080E0089530E0F90153E0EE0FFF1F53
:101680005A95E1F7EE53FE4F5181561306C0508133
:10169000581303C05281541304C02F5F3F4F27706B
:1016A000E6CF81E00895809102029091C1019813E4
:1016B00001C008958F5F8770FACF292F943078F595
:1016C0008A3068F590E03AE0239F800D911D112447
:1016D000682F677023E0969587952A95E1F7FC01BE
:1016E000EE0FFF1FE80FF91FE655FE4F50E040E0F8
:1016F00080E0219130E0062E02C0369527950A94AD
:10170000E2F721703327042E01C0220F0A94EAF772
:10171000822B4F5F5F4F4330510559F7089580E0AA
:101720000895292F943098F58A3088F590E03AE0B2
:10173000239F800D911D1124282F277041E001C0A7
:10174000440F2A95EAF723E0969587952A95E1F7C5
:10175000FC01EE0FFF1FE80FF91FE655FE4F30E0CA
:1017600020E070E05191DF011197CB01022E02C001
:10177000969587950A94E2F7817081958527842351
:1017800085278C932F5F3F4F2330310559F70895FC
:1017900092959F70963091F058F4925F9F709230BE
:1017A00058F4803F19F030F4883E30F481E0089519
:1017B0009A5FF4CF843FD1F380E00895883EB0F380
:1017C000813FD1F7F3CF9C013A9521153F4150F568
:1017D000FC01EE27F170BC0166277270AC01442752
:1017E00054709C012227387094FF0EC080E1EF2BCB
:1017F00009F480E0672B09F08062452B09F08064D2
:10180000232B89F08068089581E0EF2B09F480E0B4
:10181000672B09F08260452B09F08460232B19F0B7
:101820008860089580E0089580934604709348048A
:1018300060934704809177048430F9F48093E90041
:101840008FEF9091E800815095FD06C095ED9A9537
:10185000F1F700008111F5CF8091E80085FF0DC000
:1018600050E040E063E070E086E494E00E941604FB
:101870008091E8008E778093E8000895BC0184E0B1
:101880000E94140C0895BC0183E00E94140C08957A
:101890009C0184E08093E9009FEF8091E8009150E3
:1018A00085FD06C085ED8A95F1F700009111F5CF11
:1018B0008091E80085FF0CC050E040E066E070E0F9
:1018C000C9010E9416048091E8008E778093E80099
:1018D0000895CF93DF93EC01809118018823B1F133
:1018E0008091440487FF32C060E284E08093E90085
:1018F0008FEF9091E800815095FD06C095ED9A9587
:10190000F1F700008111F5CF8091E80085FF1BC041
:101910008091180170E050E040E0811104C050E077
:1019200040E068E070E0CE010E9416048091E8007B
:101930008E778093E80080E2FE01ACE4B4E0019091
:101940000D928A95E1F7DF91CF91089568E081E0EB
:10195000CDCF81E08093E00080E28093D8001092A8
:10196000C9008FE19EE40197F1F700C0000087E015
:1019700090EBDC0180937A0490937B04A0937C0429
:10198000B0937D0488E19CE00FB6F894A89580930D
:1019900060000FBE90936000FFCF019708F4089598
:1019A000EFE9FFE03197F1F700C00000F6CF0F93A9
:1019B0001F93CF93DF9304E613E0C7E8D1E0CE0195
:1019C0000E94BC32F80181938F012196CB3AF1E05D
:1019D000DF07A9F7C0ECD4E0FE0185919491009750
:1019E00011F0FC0109952C96F5E0CC3BDF07A1F73F
:1019F000DF91CF911F910F9108950F931F93CF9374
:101A0000DF93843030F5643020F54A3010F5C42F70
:101A1000D0E0CC0FDD1F24E1629FC00DD11D112449
:101A200030E5839FC00DD11D1124CE0187960E9401
:101A3000BC32082F10E0102F0027CE0188960E949C
:101A4000BC329801282BC901DF91CF911F910F91D2
:101A5000089590E080E0F8CF462F20914103309127
:101A60004203232B99F4703F39F4603F79F480915D
:101A70003F03909140030895843040F4743030F473
:101A80006A3020F4672F0E94FD0C089590E080E0FA
:101A90000895CF92DF92FF920F931F93CF93DF931E
:101AA0006C010091780480912902082BC7E0D0E0F6
:101AB00010E0FC2EC8010C2E02C0959587950A9463
:101AC000E2F780FD0CC02197A0F7F12C8F2DDF915C
:101AD000CF911F910F91FF90DF90CF900895B601A5
:101AE0008C2F0E942C0D0E94F308019761F3EECF1A
:101AF000CF93DF93EC010E94490DBE010E942C0D93
:101B00000E94F308DF91CF910895CF93DF93EC010A
:101B10004B815C81698188810E94D605811110C04A
:101B20008E819F81009739F00E94F3080E94C80BB4
:101B3000DF91CF910895888199810E94780DF6CF29
:101B400080E0F6CFA5E0B0E0E8EAFDE00C945E327C
:101B500049835A8389819A81662399F0222389F0E7
:101B60000E94490D182F682F89819A810E94910B3C
:101B700069817A81812F0E942C0D2596E3E00C94D7
:101B80007A320E945D0B182FF3CFFC01262F86813D
:101B90009781009739F440815181628173818481FA
:101BA0000E94A20D089583E290E00E94BC3281362B
:101BB00089F484E290E00E94BC32813259F485E2DB
:101BC00090E00E94BC3291E0833909F090E0892FC7
:101BD0008170089580E0FCCFCF9384E090E00E9474
:101BE000BC32C82F82E290E00E94BC32982F8C2F2A
:101BF000CF910895DB01FC01329625913491421773
:101C0000530758F0FC01349665917491A901CD01F8
:101C10000E949C3290E080E008958FEF9FEF08953E
:101C20000F931F93CF93DF9304E613E0C7E8D1E04F
:101C3000CE010E94BC32F80161918F01681719F042
:101C4000CE010E94CA322196CB3AF1E0DF0781F73C
:101C5000DF91CF911F910F910895DA019C012E5FC2
:101C60003F4FF90145915491F90125913491A21703
:101C7000B30758F0FC013496859194910E949C32F0
:101C80000E94100E90E080E008958FEF9FEF08957E
:101C9000CF93DF93CBE4D2E060E0CE010E94CA3262
:101CA0002196C11584E0D807B9F7DF91CF91089547
:101CB0001F93CF93DF93122F8430E0F46430D0F47D
:101CC0004A30C0F4C42FD0E0CC0FDD1F94E1699FEF
:101CD000C00DD11D112490E5899FC00DD11D112487
:101CE000632FCE0187960E94CA32612FCE0188965B
:101CF0000E94CA32DF91CF911F910895CF93C82FD0
:101D00006FEF811161E683E290E00E94CA326FEFCB
:101D1000C11161E284E290E00E94CA326FEFC1110A
:101D200063E985E290E00E94CA32CF910895CF9393
:101D3000C92F682F84E090E00E94CA326C2F82E2A3
:101D400090E00E94CA32CF9108959B01883070F4D0
:101D50009AE0899FB001112465557E4F4AE050E01A
:101D6000C9010E94AC3290E080E008958FEF9FEFB0
:101D70000895AAE0B0E0EFEBFEE00C945F329C0126
:101D800037552F3F310509F068F4BE016F5F7F4F73
:101D90000E94A50E892B31F489859A852A96E2E066
:101DA0000C947B3280917C0390917D03F7CFAAE065
:101DB000B0E0EDEDFEE00C945932EDEEF2E080E59E
:101DC000DF011D928A95E9F7E0EFF3E088E3DF0198
:101DD0001D928A95E9F78DEEC82E82E0D82E7F01FC
:101DE0000BEF11E0F701D182C0824AE050E0B80168
:101DF000CE0101960E94AC3288E0FE013196D601F8
:101E000001900D928A95E1F789859A85D7011396FD
:101E10009C938E931297BAE0CB0ED11CE7E0EE0EA6
:101E2000F11C065F1F4F0B34F2E01F07D9F62A960C
:101E3000E8E00C947532A8E0B0E0E1E2FFE00C9439
:101E400051328E010F5F1F4F88E0F80111928A9581
:101E5000E9F792E5E92E91E0F92E680126E5422E98
:101E600021E0522E66246394712C40E6842E41E0DA
:101E7000942EF70181917F018F3F09F445C0F894BA
:101E8000E82FE295EF70F0E021A18F70A30102C06E
:101E9000440F551F8A95E2F7CA01922F982B91A300
:101EA00092A18095892382A3789400C0E6E5F1E0B1
:101EB00021E030E0B12CA12C41914F3F09F464C0E6
:101EC000A42FA295AF70B0E090968C9190E04F70E7
:101ED00002C0959587954A95E2F780FD55C0C901E6
:101EE000A82AB92A220F331F8E169F0629F7F70159
:101EF000319780818F3F11F00E94990850EA5A95DE
:101F0000F1F7F601B182A082F2E0CF0ED11C4E149F
:101F10005F0409F0AECF48E050E0B8018DE292E0F6
:101F20000E948F32892B99F188E0F801ADE2B2E08E
:101F300001900D928A95E1F781E080932C020E9436
:101F4000910590932B0280932A0280912A0290910E
:101F50002B020E9476050597F0F048E050E06DE214
:101F600072E086E592E00E948F32892BC9F088E00A
:101F7000EDE2F2E0A6E5B2E001900D928A95E1F77C
:101F800081E010922C0208C090E080E0A9CF8091FF
:101F90002C028111DACF80E02896E0E10C946D32BA
:101FA00080E0EFCF8091430390917904892B809357
:101FB000860180912802882319F18091660390910F
:101FC0006703892B29F00E94BA0A81110E94800AB6
:101FD0008091860190912802892B809386018091BF
:101FE00018018823E1F18091440487FF38C08EE115
:101FF000E8E8F1E090E08150A0F591110E94800A9C
:1020000040E250E066E072E086E891E00E948F32A4
:10201000892B21F180E2E6E8F1E0A6E0B2E0019050
:102020000D928A95E1F7E0913B04F0913C043097E2
:10203000A9F080911801882359F08091440487FF0A
:1020400007C0809186018093870186E08093860196
:102050000280F381E02D86E891E00995089586E0FD
:10206000C7CF2191222339F29F5FC5CFCF93DF9352
:10207000EC01EA85FB85309719F06C857D85099523
:102080008B810E949F0A8C810E94A60A0E94D20F17
:1020900086E0FE0111928A95E9F7DF91CF910895CC
:1020A000CF93DF93EC018D8181FD15C082608D831C
:1020B000809179049B81892B809379048C810E9483
:1020C000AD0A0E94D20FE885F985309721F06C8522
:1020D0007D85CE01099510923804109237048D81C8
:1020E00080FD03C0CE010E943610DF91CF9108958C
:1020F00080911601877F8093160182E00E949F0ADB
:102100008091160184FF06C08F7E8093160182E0C5
:102110000E94AD0A8091160185FF06C08F7D8093D5
:10212000160180E20E94AD0A0E94D20F089590E04D
:1021300080E00E94B30590E080E00E949D0510922F
:1021400079040E94D20F86E0E5E6F2E0DF011D92FD
:102150008A95E9F710925F0210925E021092600277
:102160000E94ED060895809378040E9497100895C8
:1021700080917804982F9670963021F488600E94A0
:10218000B3100895877FFBCF21E030E001C0220F1C
:102190008A95EAF720958091780482230E94B310F3
:1021A0000895909105028095892380930502282F38
:1021B000277091F4282F082E000C330B921713066A
:1021C00059F09091450492FF07C0859585958595B6
:1021D0000E94C4100E94B30A08959091450492FB96
:1021E000222720F9281769F080FB92F99093450483
:1021F00080914404909145040E94970E82E00E94D1
:10220000D110089521E030E001C0220F8A95EAF74D
:1022100080917804822B0E94B31008959091450418
:1022200092FF10C098E0899F90011124622B609367
:1022300005020E9402110E9491059093040280936E
:10224000030208950E9402110895809329020E94BA
:10225000971008951092430380911801E8E8F1E087
:10226000882361F08091440487FF08C08EE1DF017C
:102270001D928A95E9F70E949710089586E0F7CF9E
:10228000AAE2B0E0E6E4F1E10C945E328FE694E07D
:102290002091F100DC012D93CD01B4E087379B073D
:1022A000B9F780917004833009F472C0B8F48130BA
:1022B00009F449C0823009F4B3C08091E80083FF7B
:1022C00096C280916F04909170049A3008F08FC28A
:1022D000E92FF0E0E85FFC4C0C9442328A3009F4BC
:1022E0008EC08B3009F471C0893039F780916F044A
:1022F000813219F78091730490917404009711F062
:102300000297D9F68091E800877F8093E80080915A
:10231000E80082FF38C09091F3008091F2000297AC
:1023200031F48091F100813011F0863021F48091F8
:10233000F10080934B048091E8008B778093E80054
:102340000E946804BACF80916F04813A09F0B5CF3A
:102350008091E800877F8093E800809173049091DA
:102360007404892B61F460E28CE494E070E00E94D4
:1023700014058091E8008B778093E8009ECF60E0A1
:1023800090E080E0F3CF809177048111C0CF95CFAA
:1023900080916F04813A09F090CF809173049091FD
:1023A0007404892B09F089CF8091E800877F80939E
:1023B000E8008091E80080FFFCCF809118018093B5
:1023C000F1008091E8008E77B9CF80916F0481325F
:1023D00009F073CF8091730490917404892B09F0F4
:1023E0006CCF8091E800877F8093E8000E946804AA
:1023F00080917104809318010E942A115ECF809110
:102400006F04813209F059CF8091E800877F809373
:10241000E8000E9468048091720480934A044DCFC2
:1024200080916F04813A09F048CF8091E800877F5E
:102430008093E8008091E80080FFFCCF80914A04FF
:10244000BECF803899F0823809F0D1C180917304F1
:102450008F70873008F0CBC18093E9008091EB004A
:1024600085FB882780F91092E90006C080916C04F2
:1024700090916D04911182609091E800977F909304
:10248000E8008093F1001092F1008091E8008E77CF
:10249000AAC1882309F498C1823009F0A8C18091AB
:1024A000710481119BC1809173048F702FEF280FED
:1024B000263008F09CC18093E9002091EB0020FFBA
:1024C0008DC1933031F48091EB0080628093EB00FA
:1024D00085C19091EB0090619093EB0021E030E09A
:1024E00001C0220F8A95EAF72093EA001092EA00D1
:1024F0008091EB008860EACF811179C1109171045D
:102500001F778091E3008078812B8093E300809196
:10251000E800877F8093E8000E9468048091E800CB
:1025200080FFFCCF8091E30080688093E30082E02D
:10253000111183E0809377045AC18058823008F0EB
:1025400056C120917104309172042C3DE3E03E07A6
:10255000A1F583E08A838AE289834FB7F894DE018C
:10256000139620E03EE051E2E32FF0E05093570055
:10257000E49120FF03C0E295EF703F5FEF708E2F74
:1025800090E0EA30C0F0C7968D939D932F5F243181
:1025900059F74FBF8091E800877F8093E8006AE297
:1025A00070E0CE0101960E9414058091E8008B77BF
:1025B0008093E8001CC1C096E7CF8091730490918E
:1025C0007404432F55274330510509F44AC078F568
:1025D0004130510509F485C08BE590E0E2E6F6E074
:1025E0004230510509F003C12091E800277F209374
:1025F000E80020917504309176048217930708F45F
:102600009C0140E02115310509F070C041116EC0F8
:102610008091E80082FDC9CF80917704882329F258
:10262000853019F28091E80083FFF2CFBECF4132AE
:10263000510509F447C04232510509F0D8C0833032
:10264000910508F0D4C0FC01EE0FFF1FE958FE4FC2
:102650000190F081E02D8C589E4FDC018C9190E030
:102660001DC0332721303105E9F02115310579F0FE
:1026700022303105F9F02330310509F0B8C0EFEC14
:10268000F6E0E4918E2F90E0EFECF6E007C0E3E196
:10269000F7E0E4918E2F90E0E3E1F7E0009709F492
:1026A000A6C0A2CFE1E0F7E0E4918E2F90E0E1E058
:1026B000F7E0F4CFEDEEF6E0E4918E2F90E0EDEE52
:1026C000F6E0ECCF8330910508F091C0880F991F98
:1026D000FC01E358FE4F0190F081E02D89E090E08D
:1026E00083CF82E190E0EDEBF6E07ECF809177043E
:1026F000882309F45ACF853009F457CF8091E80038
:1027000083FD53CF8091E80082FD82CF8091E80065
:1027100080FF78CF9091F3008091F2002115310570
:1027200019F08830910550F041E0089709F040E039
:102730008091E8008E778093E80064CF44914093C5
:10274000F1003196215031090196E8CF803809F027
:102750004EC08091E800877F8093E80080916E04EE
:102760008093F10092CE811142C010917104123019
:10277000F0F58091E800877F8093E80010936E0465
:102780000E946804112311F084E005C08091E300E9
:1027900087FDFACF81E08093770442E061EC81E02D
:1027A0000E94870442E261EC84E00E94870442E2D6
:1027B00061EC82E00E94870442E260EC83E00E94C8
:1027C00087048091770413C080917104813079F47B
:1027D00081E0933009F080E080936D041092E9006D
:1027E0008091E800877F8093E8000E9468048091D0
:1027F000E80083FF0AC08091E800877F8093E800AB
:102800008091EB0080628093EB00AA96E3E00C9449
:102810007A32E4E6F3E0128E138E8FEA90E0918331
:10282000808325E0248F88E893E1938382838AE084
:1028300090E09583848344E150E05783468368E0C9
:1028400070E071876087938782874EE150E05587FB
:1028500044879787868740E550E0518B408B738B88
:10286000628B68E270E0758B648B62E370E0778B5B
:10287000668B68EC70E0718F608F158E978F868FF6
:1028800051A340A322A30E94100E0E942A1110926D
:10289000450410924404E5E4F4E080818460808380
:1028A00080914404909145040E94970E0E94D70C99
:1028B0000895A4E1B0E0EFE5F4E10C945432A09067
:1028C0003D03B0903E0381E090E090933E038093FF
:1028D0003D0386E7C82E83E0D82E00E0760110E0A5
:1028E00015C0F40125913491472D612F802F0E944E
:1028F000580E82E0880E911C7394EAE07E12F1CFAC
:10290000F4E1EF0EF11C1F5F143019F04701712C38
:10291000E8CF0F5F80E5C80ED11C0430F9F60E94A5
:1029200009141A8219821C821B821E821D8218863B
:102930001F8288EC90E09A8789870BEA11E04AE0D1
:1029400050E0B801CE0101960E94EE32065F1F4FA3
:102950000B3FE1E01E0799F77E01FBE0EF0EF11C53
:102960008AE0F70111928A95E9F74AE050E0B80150
:10297000C7010E94EE32065F1F4F0B34F2E01F07C3
:10298000A1F7B0923E03A0923D036496EDE00C9453
:10299000703280E00E947E0E60E086E290E00E944D
:1029A000CA320E9459140E94480E81E00E947E0E95
:1029B0000895CF92DF92EF92FF928FEF9FEF443016
:1029C000510508F46AC0FB01C080D180E280F38029
:1029D0000E942A1180914404C0FA80F9B701A6012F
:1029E000769567955795479540FB81F9B701A60104
:1029F00022E076956795579547952A95D1F740FB44
:102A000082F9B701A60133E076956795579547950A
:102A10003A95D1F740FB83F9B701A601E4E076953A
:102A2000679557954795EA95D1F740FB84F9B7012B
:102A3000A601F5E07695679557954795FA95D1F7F4
:102A400040FB85F9B701A601A6E0769567955795F5
:102A50004795AA95D1F740FB86F9B701A601B7E0E3
:102A60007695679557954795BA95D1F740FB87F9C5
:102A70008093440480914504D0FA80F9D1FACC24A3
:102A8000C0F8C0FA81F98093450480914404909184
:102A900045040E94970E90E080E0FF90EF90DF9059
:102AA000CF9008950E942A112FEF84E39CE02150DB
:102AB00080409040E1F700C0000088E19CE00FB644
:102AC000F894A895809360000FBE90936000FFCFAC
:102AD000882321F00E949F0A0E94D20F0895882324
:102AE00039F090917904982B909379040E94D20F39
:102AF0000895882321F00E94A60A0E94D20F08950B
:102B0000882321F00E94AD0A0E94D20F08958823E5
:102B100009F455C0823879F40E94C90581FF4FC07D
:102B200089E30E94FF0A0E94D20F89E30E94D40A1F
:102B30000E94D20F0895833859F40E94C90580FF7E
:102B40003EC083E50E94FF0A0E94D20F83E5EECFCC
:102B5000843859F40E94C90582FF31C087E40E947D
:102B6000FF0A0E94D20F87E4E1CF9CEF980F913AC1
:102B7000E8F290E2980F983050F4877091E001C02D
:102B8000990F8A95EAF7892F0E94A60AD1CF9BE573
:102B9000980F933028F490E080E00E94B3050895E8
:102BA00098E5980F973128F490E080E00E949D0509
:102BB0000895803F20F00E9414070E94ED060895BA
:102BC000CF93DF93EC010E948715CE010E94E30BA7
:102BD0009E01205E31092830310510F0CD2B29F4FB
:102BE0000E947915DF91CF9108950E946815FACF60
:102BF000CF93C82F8823C9F08238C9F40E94C90531
:102C000081FD13C089E30E94FF0A0E94D20F2FEFBB
:102C100087EE93E0215080409040E1F700C0000033
:102C200089E30E94D40A0E94D20FCF91089583387D
:102C3000A1F40E94C90580FDF8CF83E50E94FF0A38
:102C40000E94D20F2FEF81EE94E0215080409040FF
:102C5000E1F700C0000083E5E4CF8438A1F40E94CE
:102C6000C90582FDE2CF87E40E94FF0A0E94D20FCD
:102C70002FEF81EE94E0215080409040E1F700C0BA
:102C8000000087E4CECF8CEF8C0F813A90F58091D5
:102C90001801882301F18091440487FF1CC0EC2FA8
:102CA000E695E695E695F0E0EA57FE4F828190E0E2
:102CB0004C2F477021E030E002C0220F331F4A95AD
:102CC000E2F782239323892B81F08C2F0E94D40A70
:102CD0000E94D20F0AC0E8E8F1E08EE891E021916D
:102CE000C21799F38E179F07D1F78C2F0E94FF0A06
:102CF0009ACF80E28C0F883048F4C77081E001C021
:102D0000880FCA95EAF70E94AD0A8DCFEBE5EC0F6C
:102D1000E33040F4F0E0EF5DFE4F808190E00E94F0
:102D2000B30583CFE8E5EC0FE73150F4F0E0EE0FA8
:102D3000FF1FEC5DFE4F808191810E949D0575CF44
:102D4000C03F08F472CF8C2F0E942F080E94ED061E
:102D50006CCF1F93CF93DF93182FEB010E94F815D0
:102D6000209739F4812F0E948715DF91CF911F9111
:102D700008958FE99FE00197F1F700C000002197C7
:102D8000EFCF6091840370918503893321F06091C6
:102D90008203709183030E94A9160895B0E0A0E019
:102DA000E4EDF6E10C9457327C015B01C42FD22F85
:102DB000FC0182818823A9F0409336040E9491058A
:102DC0009093350480933404C77081E001C0880F6C
:102DD000CA95EAF70E948015CDB7DEB7EAE00C94F9
:102DE000733210913604141338C0809134049091DA
:102DF00035040E9476056C01B701C5010E94B90E29
:102E0000C816D90650F5C0E2CD0F1D17C1F080E2FB
:102E1000810F883048F4177081E0012E01C0880FBF
:102E20000A94EAF70E947915C83048F481E09D2F92
:102E3000977001C0880F9A95EAF70E948015802F3D
:102E40000E94C116C83040F6D77081E001C0880FDB
:102E5000DA95EAF70E947915BFCFC77081E001C00B
:102E6000880FCA95EAF7F6CFB0E0A0E0EAE3F7E111
:102E70000C945632EC01A62E8AE0982E288122234B
:102E800009F4A4C0213009F04BC08981813091F44C
:102E90008E010E5F1F4F8A810E94C116E8012196A4
:102EA0008A2D815058F3EFE9FFE03197F1F700C028
:102EB0000000F7CF823039F48E010E5F1F4F8A81F8
:102EC0000E94F815EBCF833039F48E010E5F1F4F4F
:102ED0008A810E948715E2CF843011F02196DFCFDE
:102EE0002A81229690E080E0AE014F5F5F4F205331
:102EF000330B2A30310548F0019788F2EFE9FFE003
:102F00003197F1F700C00000F7CF989EB001999E6D
:102F1000700D1124C901860F971F2981EA01E4CFA2
:102F2000E22FF0E0EE51FA4FB490822F869586950D
:102F3000869590E0FC01EE52FA4FE4902770F12C58
:102F4000022E02C0F594E7940A94E2F731E0E322FE
:102F5000FF24FC01EE53FA4FC490D12C022E02C084
:102F6000D594C7940A94E2F7E1E0CE22DD24FC0177
:102F7000EE54FA4F049110E002C0159507952A957A
:102F8000E2F701701127E114F10419F081EE0E94BB
:102F9000F815C114D10419F086EE0E94F8158B2D96
:102FA0000E94C116C114D10419F086EE0E94871543
:102FB000E114F10419F081EE0E9487150115110545
:102FC00009F46DCF8CE20E94C11669CFCDB7DEB790
:102FD000EBE00C947232CF93DF93EC010E94E30B91
:102FE0009E01205E31092830310510F0209741F410
:102FF0000E9480158C2F0E94F815DF91CF910895C3
:103000000E946F15F7CF662329F020917904226082
:10301000209379049C013056211540E2340720F0BA
:10302000305E2115304108F499270E94EB1708956E
:10303000B0E0A0E0EEE1F8E10C945A327C018B01A3
:10304000D42E8091160182FF8CC0C0918A03D0914A
:103050008B03CE15DF0521F0E114F10409F081C0E6
:10306000809116018B7F8093160181FD73C0809142
:10307000880390918903A801481B590B81E0209196
:103080001401309115014217530708F480E0817054
:10309000F82E80911601F0FA81F980931601FE0155
:1030A00083E0F695E7958A95E1F7EE71FF27EC5BF3
:1030B000FC4F20813181AE014F70552781E090E0B7
:1030C00002C0880F991F4A95E2F7FF2009F444C017
:1030D000822B932B918380838091430381FF08C0CF
:1030E0008091160180618093160182E00E94A60AF9
:1030F0008091430385FF08C0809116018062809310
:10310000160180E20E94A60A6F2DCE010E940318CC
:10311000DD2031F080917F0385FF02C086FF3BC038
:1031200080918203909183030E94CD0C80918A0349
:1031300090918B039C013056211540E2340720F01A
:10314000305E2115304108F499270E94E0150E9455
:1031500078101DC081E09BCF8095909582239323AA
:10316000B9CFC701992797013056211540E234079E
:1031700028F0305E2115304108F0C7010E94E015AB
:1031800080918A0390918B038E159F0501F3109314
:10319000890300938803CDB7DEB7E7E00C9476325D
:1031A00068EE7EEF90E080E00E94E83260E082E02E
:1031B00090E00E94CA3260E083E090E00E94CA3250
:1031C0001092290260E084E090E00E94CA3264E03C
:1031D00082E290E00E94CA3260E085E090E00E94C6
:1031E000CA3260E086E090E00E94CA326FEF87E06A
:1031F00090E00E94CA3240E050E0BA0188E090E0DE
:103200000E94DC3260E08DE090E00E94CA3240E033
:1032100050E0BA0188E190E00E94DC3260E087E192
:1032200090E00E94CA3240E050E0BA018CE190E0A8
:103230000E94DC3270E060E080E290E00E94E832C0
:1032400040E050E0BA0188E190E00E94DC3280E08A
:103250000E947E0E0E94C91440E050E0BA018FE047
:1032600090E00E94DC3240E050E0BA0183E190E05F
:103270000E94DC320895A4E0B0E0E1E4F9E10C94AE
:1032800056327C01DC0113964D915C911497119696
:103290006C9111978C910E94D6058111EFC061E06D
:1032A000C7010E94C50D8C01F70182818823E1F0DE
:1032B00080913704909138040097B1F008171907EE
:1032C00099F0FEE08F9FC0011124FC01EE57FD4FE5
:1032D00020812460208383589D4FDC010D931C9333
:1032E0000E94501010927904F7018281882309F41A
:1032F0009DC7980122513F452031310508F007C78D
:103300008FEF93E00E94BC328111A8C06EEED62EE2
:10331000D00E0BE412E0D11037C019821A821B8242
:103320001C8299249A9468012FEFC21AD20AC8010C
:103330000E94BC3289831A82882309F48FC08130AD
:1033400009F080C0580132E0A30EB11CC6010E94F2
:10335000BC32C82E8A83882309F480C0C5010E942C
:10336000BC32D82E8FEF8C0D8330E0F4580143E04F
:10337000A40EB11CDB82DD2029F060E0CE010196B5
:103380000E9434178501CFCF0115F4E01F0709F41F
:1033900065C0C8010E94BC32811101C0DA940F5F80
:1033A0001F4FB9CF8BEF8C0D833030F5C8010396DA
:1033B000DB825C01DD2031F3580154E0A50EB11C25
:1033C0000E94BC328C838823E9F28B819C818130FE
:1033D000AFEF9A0710F0982F8827B6E0CB1631F0A0
:1033E000E7E0CE1631F00E94E927CCCF0E94C32738
:1033F000C9CF0E944A27C6CFF4E0CF12C3CF5801ED
:1034000024E0A20EB11CC80103960E94BC32DD204C
:1034100029F1882319F18150990B989E9001999E6A
:10342000300D11244D2D4150550BCA01820F931FB1
:10343000019708F4A7CFAFE9BFE01197F1F700C0FB
:103440000000F6CF6AE0CE0101960E9434175601C3
:1034500099CF81E00E9402110E94B810809105026C
:10346000877061F0D70112968C91882339F0809192
:10347000450482FF03C082E00E94D1102496EBE055
:103480000C94723281E00E94C410E6CF82E0E2CF59
:10349000823009F07DC68091770290917802892B65
:1034A00009F476C62EE02C9DC0012D9D900D1124AF
:1034B000FC01EE57FD4F20812E7F208383589D4FC6
:1034C0000E94501065C62FEFC216D10409F008F40F
:1034D0005FC680917F0380FF39C00E9491056C0117
:1034E000D70112968C91882309F468C08091160147
:1034F00082FF08C022E432E040E0B60190E080E0C4
:103500000E9418180B31BCE51B0709F449C00C31A7
:10351000ECE51E0709F44AC090911601892F8E7FB1
:1035200090FF81600A31FCE51F0709F442C0C80121
:103530009056811520E2920728F0905E8115904107
:1035400008F04AC010928B0310928A03033FBCE537
:103550001B0709F494C108F036C1083DFCE51F07BC
:1035600009F487C1093D2CE5120709F4A0C1073D04
:103570003CE5130709F033C106E221EE41EE67EDA9
:103580007CE5C7010E94CE1669CF902F812F49C6D6
:10359000F601858181FF9DCFC6010E94361099CF2B
:1035A00080911601816080931601C1CF8091160130
:1035B0008E7F809316010E947810B9CF80911601FA
:1035C0008F7E013E110531F0053E1105C9F4809151
:1035D00016018F7D809316018091160180FFB6CF72
:1035E000D70112968C910832110528F50E3111057C
:1035F00008F072C00430110580F58111A3CFA6CF69
:10360000C8019056811540E2940720F0905E811524
:10361000904110F78091160182FF98CF809181032D
:1036200081FD94CF22E432E040E0B60190E080E0FA
:103630000E9418188BCF0933110558F40D3211056B
:1036400018F40B321105C9F690917F0392FDD5CF86
:1036500008C004361105C1F3D0CF90917F0394FDCB
:10366000CCCF882309F4A8C080912802909143030D
:10367000892B8D7FB1F110928B0310928A03809178
:103680007F0381FD2EC0F80143E0F695E7954A954A
:10369000E1F7EE71FF27EC5BFC4F98012F703327A9
:1036A00081E090E002C0880F991F2A95E2F780958B
:1036B000909520813181822393239183808360E0E0
:1036C000C8010E940318809128028D7F0E948B0AF6
:1036D00082E00E94D110C2CE90917F0393FD8DCFE6
:1036E000C0CF88E0F701A2E4B2E001900D928A9584
:1036F000E1F7109244021092460210924502809126
:103700008A0390918B0308171907D1F520917F0345
:1037100025FF36C03091160131FF02C026FF30C0B0
:1037200020918803309189035601A21AB30AB70188
:103730000E94B90EA816B90618F58091430381FFBF
:1037400008C08091160180618093160182E00E947A
:10375000A60A8091430385FF08C08091160180620C
:103760008093160180E20E94A60A60911601669578
:10377000617080918A0390918B030E9403186ECE32
:103780008091280290914303982B2091160191FB80
:1037900021F9209316018D7F0E948B0A10938B03D1
:1037A00000938A03D0928903C09288038091160106
:1037B0008460809316018CCF970140E0B601C80168
:1037C0000E9418184BCE053F4CE5140709F463C05E
:1037D00008F45BC0063F8CE5180709F462C0D70106
:1037E00012963C91332309F42DC510923604033010
:1037F000BDE51B0708F061C00A3FECE51E0730F489
:10380000C80182509C45449708F063C00E94EC0DAB
:10381000909345048093440402315CE5150709F454
:103820009EC108F0EEC009309CE5190709F475C186
:1038300008F0B8C00530BCE51B0709F462C108F008
:103840009FC00330FCE51F0709F453C108F055C1C0
:1038500080914404816002303CE5130709F4CEC036
:1038600080914404909145040E94970E0E942A1171
:10387000F5CD07E225EE45EE68ED7CE582CE06E269
:1038800021EE40EE63EF7CE57CCE07E225EE44EED0
:1038900064EF7CE576CE06E221EE42EE65EF7CE554
:1038A00070CE07E225EE46EE66EF7CE56ACE08E2D2
:1038B00021E045EE69ED7CE564CE053AFDE51F07A4
:1038C00009F4A4CF08F055C001364DE5140709F4FA
:1038D0009DCF0631ECE51E0709F4B9C40A355DE554
:1038E000150709F495C108F06EC101159CE519078B
:1038F00009F474C10E3D1C4509F47DC1F7018681B0
:103900009781009709F488C10E94F308182F092FA6
:10391000F701D280C580C2943FE0C32280910502A6
:103920008770C1F0AD2CDD20B1F0892F807F80340D
:1039300021F080E2810F883068F08091450482FF99
:1039400009C082E00E94D110809105028770AA24EC
:10395000A3948111A12C902E92942FE09222FBE04F
:10396000F91508F4E6C1E92DF0E0EE5EFC4C0C948C
:103970004232C8018D5A9D45039708F0AACF46CF21
:1039800080914404806207304CE51407B9F18091BE
:103990004404806108305CE5150780F1809144049F
:1039A00080642CC00D308CE5180709F4C0C090F479
:1039B000809144048E7F0B30ACE51A07F9F08091BA
:1039C00044048C600C30BCE51B07C0F080914404BB
:1039D0008D7F14C00F30ECE51E0709F4B8C008F461
:1039E000AAC000312CE5120709F4B5C08091440447
:1039F0008F7B01313CE5130709F032CF80934404FB
:103A00002FCF0F3F4CE5140709F4B3C0A8F50A3FC8
:103A10008CE5180709F479C0C0F40431ACE51A0745
:103A200009F4B5C008F4A1C00531ECE51E0709F0A2
:103A300017CF8091440482FB992790F921E09227C7
:103A400090FB82F990FB83F9D9CF0C3FFCE51F076F
:103A500009F475C008F45DC00D3F3CE5130709F497
:103A600072C08091450483600E3F4CE5140709F055
:103A7000F7CE80934504F4CE01365DE5150709F4D1
:103A800091C090F401309DE5190709F489C008F44C
:103A900074C060E00230BDE51B0709F0E1CE8EE0A6
:103AA00090E00E94CA32DCCE0D3AEDE51E07E9F047
:103AB00060F490914404892F8E7F90FF8160053AD5
:103AC0002DE5120709F49ACFCBCE0E3A3DE5130748
:103AD00051F10F3A4DE5140709F0C2CE909145041B
:103AE000892F877F93FF8860C4CF809145048860C9
:103AF000C0CF80914404826081CF8091440484606F
:103B00007DCF80914404886079CF809145048160A5
:103B1000B0CF809145048260ACCF0E942A11809181
:103B2000440480686BCF80914504877FA2CF809149
:103B300044048B7F63CF80914404877F5FCF809163
:103B400045048E7F96CF809145048D7F92CF8091E2
:103B500044048F7E53CF809144048F7D4FCF0E94C9
:103B60002A11809144048F7749CF80914404837F48
:103B700045CF809145048C7F7CCF80914504982F60
:103B8000909591708E7F892B90FB81F972CF0E9466
:103B90002A1190914404892F97FB87F980582ECFE2
:103BA00061E07DCF90914404892F8F7E94FF8061E6
:103BB00025CF8091A601811104C089E20E94D40A18
:103BC00071C385E3FBCF0C35BDE51B07B9F010F1E0
:103BD000073A1D4509F092CE0E9452150E942A1103
:103BE0002FEF34E34CE0215030404040E1F700C07B
:103BF00000000E94A90C0E94D018EECF80914504CD
:103C000082FB882780F991E089270E94ED1076CE0B
:103C100081E0FBCF80E0F9CF828100811181882390
:103C200069F0C8010E94490DD82E682FC8010E9472
:103C3000910BB8018D2D0E942C0D66CEC8010E94FB
:103C40005D0BD82EF6CF202F2F70B22E802F807FC5
:103C500019F0B29490EFB922DD20A9F0BB2059F001
:103C600080E2810F883010F0111107C08B2D0E9467
:103C7000AD0A0E94D20F812F5AC080917904B82AD0
:103C8000B0927904F6CF812F0E948715BB2009F4EA
:103C900050C080E2810F883010F0111104C08B2DCC
:103CA0000E94A60A03C08B2D0E949F0A0E94D20F79
:103CB00040C0302F3F70B32E802F807F803219F0AC
:103CC000B29480EFB822112321F1113009F4AEC073
:103CD000DD2009F4B7C0CC2009F47FC020E0D70173
:103CE0004C9111965C91119712966C9112971396C4
:103CF0007C91139714968C910E94A20D8091810360
:103D000081FDB9CFF701858180FFB5CF8F708583A5
:103D100064C08091450482FD40C0DD20C1F1BB201C
:103D200029F08B2D0E94AD0A0E94D20F80E00E94E4
:103D3000F815A92DA850BB0B149710F40E94C905C3
:103D4000812F902F0E94C80B8111C2C11092A9012E
:103D50001092A801AA20B1F08091050280FD12C046
:103D6000D70112961C928595859585950E94021122
:103D7000C7010E943B19809105028595859585951F
:103D80000E94C41060E0C7010E94C50D77CB80E09F
:103D90000E948715BB2069F282CFDD2011F1C1108E
:103DA00004C0809128028B2919C041E0C41206C0CA
:103DB000809128028B290E948B0ABBCF80918003BF
:103DC000823078F3C812EDCF0E94800A9091A7014B
:103DD0008B2D892B89138093A7018B2D0E94801531
:103DE000A8CFC11003C00E94800A17C08091800331
:103DF00051E0C51216C0823008F49BCF8091430376
:103E00008B2109F496CF0E94800A9091A7018B2DF7
:103E10008095892389138093A7018B2D0E947915A2
:103E200088CF823000F3C812DECF83CF8091860323
:103E3000DD2021F08C1508F47CCFCFCFC81608F018
:103E400078CFEBCFCC2049F3809184039091850308
:103E5000193321F080918203909183030E94CD0C4D
:103E6000812F0E94871565CF802F86958695837058
:103E700069F0813009F05DCF812F902F9370D110C0
:103E800002C090E080E00E949D0553CF812F902FCB
:103E90009370D11002C090E080E00E94B30549CF3A
:103EA000812FDD2029F00E942F080E94ED0641CFCE
:103EB0000E941407FACF802F837091F5D11039CF6B
:103EC000412F429546954770440F440F812F8F70C4
:103ED000042E01C0880F0A94EAF7212F207114FFE5
:103EE00007C02FE030E001C0220F4A95EAF7209585
:103EF000302F369536953370323069F050F440915A
:103F00002902313029F0822B84230E94251111CF00
:103F1000842B822BFACF282B809129028227F5CF80
:103F20008695DD2011F0802F8170882309F401CF60
:103F3000412F429546954770440F440F812F8F7053
:103F4000042E01C0880F0A94EAF7212F207114FF74
:103F500007C02FE030E001C0220F4A95EAF7209514
:103F6000302F369536953370323069F050F44091E9
:103F70007804313029F0822B84230E94B310D9CEEB
:103F8000842B822BFACF282B809178048227F5CFBF
:103F9000F02FFF70BF2EDD2029F08F2F0E9402111D
:103FA000812F1CCF812F0E9479158B2D0E94C41068
:103FB000C0CE123F89F160F4103FB9F0113F81F09B
:103FC000DD2009F480C0C11056CE802F8F7128C02B
:103FD000133F49F1143FA1F78091450482FD2FC0A2
:103FE000802F8F71DD2011F31BC080918603DD20AF
:103FF00079F0C81608F09DCE202F2F7181E090E057
:1040000001C0880F2A95EAF7909178048927B5CFE7
:104010008C1508F48ECEF0CF802F8F71D110C6CFC3
:104020000E94021186CE80E0DD2009F4A6CF81E057
:10403000902F9F7101C0880F9A95EAF79ECF8091CB
:104040008003823040F1DD20D1F09091050297701D
:10405000943041F40E94B30A802F8F710E94C410E3
:10406000A12C67CEC816E0F7202F2F71B22E822F19
:104070000E94021163E08B2D0E940E11F1CFC81631
:1040800030F00E94B30A64E0802F8F71F5CF81E099
:104090000E94D110E5CFDD2059F0302F3F71B32EB3
:1040A000832F0E94021163E08B2D0E940E1141CEDE
:1040B00081E00E94D11041E04C1508F03ACE82E038
:1040C0000E94D11036CEC110BFCE802F8F716ECF1F
:1040D000DD2019F0C1103ACE3DCEC11037CE20E020
:1040E000F701408151816281738184810E94A20D18
:1040F0008091810383FF2ACE8091A8019091A9012C
:10410000029709F023CE812F0E94C1161FCE0031E5
:10411000BFE51B0709F49DC90131EFE51E0709F44E
:10412000B5C96801E7E5DE1A8111CDC9FFEFCF16E9
:10413000D10411F008F0CDC963E772E08C2D0E9424
:10414000A50E892B29F58EE08C9DF0018D9DF00D3B
:104150001124E358FD4F8281813009F099C9809183
:10416000730290917402892B99F08091750290915D
:104170007602892B69F080917702909178022091E4
:10418000790230917A02822B932B892B09F48AC908
:104190005801BB243EE0039FF0011124AF014358B6
:1041A0005D4F6A01D70112968C91EE57FD4F9081B9
:1041B00080FB90F99083882309F4EAC90E94910555
:1041C0009093410280934002D60112968C911297EF
:1041D0008F5F12968C93129780917904909143038C
:1041E000892B13968C9313978091280214968C93A5
:1041F00014971696ED91FC911797309729F01C961D
:104200006D917C91C60109958EE08A9DF0018B9D90
:10421000F00D1124E358FD4F858181FFB6C990E070
:1042200080E0909337048093380453C90031FFE550
:104230001F0709F427C901312FE5120709F071CFD3
:1042400082E021C90631BCE51B0709F057CB8091FC
:104250004303982F9A7A20917E0320FF04C0482FB1
:10426000447409F090E021FF04C0482F417109F027
:1042700090E022FF04C0482F487809F090E023FF27
:1042800003C0827209F090E0332309F492CC81E0FC
:10429000911101C080E08093A60189E2911185E32C
:1042A0000E94FF0A0E94D20FD9C8B0E0A0E0EBE55F
:1042B000F1E20C9459328091BE01807F31F48091FB
:1042C000BB01C0910202811107C0CDB7DEB7E8E0A3
:1042D0000C9475322196C7708091C1018C17A9F397
:1042E000F090B901E090BA01C090BC01D090BD013E
:1042F000A6016E2D8F2D0E94D605D0E08111EACF48
:104300008E0183E0000F111F8A95E1F7F801EE534B
:10431000FE4F81818E11DECF80818F11DBCF8281B4
:104320008111D8CFE380F480EC18FD0860E089EBC0
:1043300091E00E94C50D69EB71E00E94B90EE8168C
:10434000F90640F68091BE018F7080618093BE01B6
:10435000F801E953FE4F80818F708061808389EB83
:1043600091E00E943B190E94530BAFCFA5E1B0E052
:10437000ECEBF1E20C9452328C0185E0F801DE01A5
:10438000519601900D928A95E1F7D8015C901196B3
:104390006C9011971296EC9012971396CD90DC903A
:1043A00060E089EB91E00E94C50D89EBA82E81E0C9
:1043B000B82E8090BC019090BD01A4016091BA011B
:1043C0008091B9010E94D6058111A8C1F090BB016E
:1043D000F601E819F9094F0160E0FF2009F44BC12B
:1043E000C5010E94C50DB5010E94B90E7090BE01B5
:1043F0008816990608F0F2C04091BC015091BD01A9
:10440000B090B901A090BA01872D807F6A2D09F084
:104410008CC08B2D0E94D605FE2C811127C0D8019F
:1044200011968C9111978A1121C08C918B111EC00D
:104430002091BF013091C00116968D919C91281753
:104440003907A1F4E11012C0872D8F70806180932D
:10445000BE0189EB91E00E943B198091BE01F801F9
:1044600085838F2D6596EFE00C946E32A601662D44
:10447000852D0E94D605D82E81E08E25D11080E0B2
:1044800080FF18C04E2D662D852D0E94330B88238A
:1044900089F08091810380FF0DC089EB91E00E943B
:1044A0003B1988E0E9EBF1E0DF011D928A95E9F71D
:1044B000F12CD7CF81E08E25D11080E0B82FB170DC
:1044C000CB2E80FF29C04E2D662D852D0E94330BEB
:1044D000D82E811121C0598A6A8A89899A890E94B5
:1044E000780D292F22952F70223050F0243078F447
:1044F0009F7051F0F8019581907F31F4FD2CB1CF80
:104500009F7011F08823D1F3805E8830B8F3C80122
:104510000E943B19DC2CF2CFEE2009F4A2CF80914F
:10452000BE0181608093BE01C3CF8B2D0E94D60552
:10453000811124C0D80111968C9111978A111EC047
:104540008C918B111BC02091BF013091C001169638
:104550008D919C9117972817390781F4E1100EC0AF
:1045600015967C92C8010E943B1988E0F801A9EBDE
:10457000B1E001900D928A95E1F773CFC8010E94D6
:10458000850D882339F1EE2029F18091BE0180321A
:10459000A0F02091B9013091BA013A8729871B8692
:1045A000DD86CC868E878091BF019091C001988B6B
:1045B0008F87CE0109960E943B1988E0F801A9EB8C
:1045C000B1E001900D928A95E1F70E945521FF24F8
:1045D000F39447CFC8010E943B19F9CF872D807F04
:1045E00009F45BCF9090B9018090BA014091BC0171
:1045F0005091BD01682D892D0E94D60581111CC0E6
:10460000F8018181881118C08081891115C020911D
:10461000BF013091C001868197812817390761F465
:10462000E1100AC07582C8010E943B1988E0D501DB
:104630001D928A95E9F715CFC8010E94850D882340
:1046400049F2EE2039F28091BE01803208F4B5CFF4
:104650002091B9013091BA013A8329831B82DD820E
:10466000CC828E838091BF019091C00198878F8307
:10467000CE010196A0CF89EB91E00E94C50D69EBB8
:1046800071E00E94B90E8816990680F6FE2CEE2085
:1046900009F4A0CFE090B901D090BA014091BC01DB
:1046A0005091BD016D2D8E2D0E94D605811128C01F
:1046B000F80181818D1124C080818E1121C020914B
:1046C000BF013091C0018681978128173907C1F455
:1046D0008091810382FD49CF9091BE0190FD45CF2D
:1046E000907F09F442CF8091BE018583903F09F409
:1046F00039CF982F907F905F8F70892B858332CF31
:10470000C8010E94850D811158CF8091BE01816042
:104710008093BE01C8010E943B19A3CEEE2009F48C
:1047200059CFC8010E94850DF82E882309F452CF75
:1047300088E0F801A9EBB1E001900D928A95E1F7CC
:104740008091B9019091BA010E94780D0E94552183
:1047500088CEA0E1B0E0EFEAF3E20C945F32298763
:104760003A874B875C876D877E878F87988BCE01D2
:1047700009960E94B62181112FC088E0FE0139966A
:10478000DE01119601900D928A95E1F74C855D85C9
:104790006A8589850E94D60581111EC0A091C1013C
:1047A000B0E0CD0101968770992720910202281769
:1047B0001906E1F093E0AA0FBB1F9A95E1F7AE53FB
:1047C000BE4F98E0FE01319601900D929A95E1F767
:1047D0008093C1010E94530B809102029091C1010C
:1047E000891312C06096E2E00C947B320E942A1179
:1047F0001092C1011092020288E0E9EBF1E0DF01C2
:104800001D928A95E9F7E8CFB8E08B9FC00111248B
:104810008E539E4F0E94B621882321F3809102027D
:1048200090E001968770992780930202D5CFB0E07F
:10483000A0E0EDE1F4E20C945A3280918F038823DA
:1048400069F0C0918E03E12C8CE0F82E80918F03EB
:10485000C81748F010928F0310928E03CDB7DEB7C1
:10486000E7E00C947632DD24D394DC0ED0928E03F4
:104870000C2F10E0CF9DE0011124C057DC4F4B817D
:104880005C81698188810E94D60581112CC08E814E
:104890009F81892B21F488859985019651F428817F
:1048A00039814A815B816C817D818E819F810E94EB
:1048B000A923F09EF001F19EF00D1124E057FC4F6A
:1048C0001482138210927904E1100DC0CE010E946F
:1048D000850D811108C08FE39CE90197F1F700C0B5
:1048E0000000EE24E394CD2DB1CF1092330410924A
:1048F00032041092170180913104809330040E9499
:104900000F060E9417240895B0E0A0E0EAE8F4E260
:104910000C945032C091300497E0892E01E010E0F1
:104920002CE0322E3EEF932E4424439480913104A8
:104930008C1309C00E9417240E940F06CDB7DEB762
:10494000E1E10C946C32D0E0FE01EE0FFF1FE85D58
:10495000FB4F80819181889ED001899EB00D1124EA
:10496000A051BC4F14962C911497211158C050900F
:104970008F03E0E9F3E030E020E0712C5D012515C4
:1049800008F04BC0E284F384D501CD90DC906FEF4A
:104990007FEF612C462D50E0DA01AA0FBB1FAC0D52
:1049A000BD1D0D90BC91A02D109731F0EA16FB06AD
:1049B00009F4BA016394EECF6F3F7607A9F1D801ED
:1049C00002C0AA0FBB1F6A95E2F77A2AB801062C2B
:1049D00002C0660F771F0A94E2F7AB0141505109FC
:1049E00074161506F9F4329EF001339EF00D112471
:1049F000E057FC4F889ED001899EB00D1124A05134
:104A0000BC4F12962D913C91139737832683908249
:104A100091829187808715964C920E94E10521969C
:104A2000C37084CF148213822F5F3F4F3C96A7CF71
:104A3000A9E1B0E0EEE1F5E20C944F32942F498BFE
:104A4000252F5A8B6B8B7C8B8D8B4C895D89622FCC
:104A5000892F0E94D605811109C08091A8019091EB
:104A6000A90101969093A9018093A8018B898111D6
:104A7000109279041D861E861F86188A85E0FE0125
:104A80007196DE01199601900D928A95E1F7809159
:104A9000450482FF1EC08091660390916703892BB5
:104AA000C1F00E9491052091030230910402821B03
:104AB000930B20916603309167038217930720F0D0
:104AC0008091050282FFE2C10E94BA0A81110E9410
:104AD000800A4C855D856A8589850E94D60581118D
:104AE00011C061E0CE0109960E94C50D6C018B8555
:104AF00027EFC2162CE5D20681F4882321F181E04C
:104B00008093170129853A854B855C856D857E8567
:104B10008F8598890E94A923C6C038EFC3163CE54B
:104B2000D30629F4882379F00E947524EBCF49EF4E
:104B3000C4164CE5D40639F4882329F08091170176
:104B40008111F2CFDCCF00EF13E0512CB12CA12C5E
:104B500022242394312C2EEF422EF80140815181E2
:104B600088248A94982C20E0822F90E0FC01EE0F9C
:104B7000FF1FE40FF51F608171816115710531F030
:104B8000C616D70609F44C012F5FEECFF12CFFEFCC
:104B90008F169F0609F449C0F8014481F09017016F
:104BA0008F2D411180E0F82FF170FF2EF801E58084
:104BB00086819B85992309F4F8C0FF2009F4F5C08C
:104BC00060907A0370907B03E11013C0A101082C60
:104BD00001C0440F0A94EAF7842B868380918C03EA
:104BE00090918D038615970520F470928D03609245
:104BF0008C03C10102C0880F991F2A95E2F7019723
:104C0000F80126812817190681F4809132049091C9
:104C10003304009709F44BC00E94760568167906A4
:104C200008F045C021E0F80124835F28FFEFAF1AA8
:104C3000BF0A095F1F4F28E0A216B10409F08DCF0B
:104C40008B85882309F40DC1552009F40AC10E94FF
:104C50009105909333048093320480918F038830C0
:104C600010F591E0980F90938F0398E0FE0139962C
:104C7000DE01119601900D929A95E1F73CE0839F39
:104C8000C001112480579C4F28E0FE013196DC01C1
:104C900001900D922A95E1F72FEF3FEFFC0131874C
:104CA0002087D386C2866996E2E10C946B328091AC
:104CB000300450913104982FF0E0E0E0851314C0E7
:104CC00090933004E017F10709F4AFCF90E0FC01B6
:104CD000EE0FFF1FE85DFB4FB182A082019683704B
:104CE000992780933104A1CF682E712CF301EE0F28
:104CF000FF1FE85DFB4F2081318147E0429FD001DB
:104D0000439FB00D1124A051BC4F6D917C91119720
:104D1000798F688F40E020E030E0E32FF0E0EE0F85
:104D2000FF1F688D798DE60FF71F808091808114B9
:104D30009104E1F0F8010190F081E02DFF8BEE8B02
:104D400020E005C08616970609F44F2D2F5FE22F4D
:104D5000F0E0EE0FFF1F6E897F89E60FF71F60817D
:104D600071816115710571F73F5FD7CF4423D1F091
:104D7000F801231708F0FD0121E024830E171F0717
:104D800021F490933004F42E50CF981305C0AE1741
:104D9000BF0711F49F5F937093012F5F3F4F822FE6
:104DA00083708CCFF0E0E0E0F7CF90E0E11020C01E
:104DB000B10102C0660F771F2A95E2F79B012150CF
:104DC00031098217930731F4442309F448C0C5011F
:104DD0000E94E105C101082C01C0880F0A94EAF77E
:104DE000982F9095F801868189238683FE2C1DCF0C
:104DF0009C01082C02C0359527950A94E2F7A90179
:104E000041705527BC016150710986239723892B76
:104E100011F5452B01F1F80182819381892BC1F0B5
:104E20001B821C821D821E8249824A820E94910539
:104E30008160582F9D838C83F801828193818F83B9
:104E4000988729813A814B816D817E810E94A923B7
:104E5000F8011582BFCFF22FF170EF2EBBCFEF2CF0
:104E6000B9CF9091300480913104981731F00E94AD
:104E70008424552009F446CE16CF0E9417241092A0
:104E80003304109232040E940F06F3CF82E00E9496
:104E9000D1101ACEA5E0B0E0E0E5F7E20C945F3265
:104EA0009093400380933F03811520E2920730F4F2
:104EB0000E94E0152596E2E00C947B3280EF898316
:104EC0008A831B820E9491058160782F9D838C8349
:104ED00049815A816B818D810E941825EBCF0F93F8
:104EE0001F93CF93DF938C01EB0163E772E08C2F6C
:104EF0000E94A50E892BA1F48091820390918303D7
:104F00000E94CD0CDD27C559DD4F8881F801128242
:104F100018828330F1F048F4813059F0823081F00A
:104F2000DF91CF911F910F9108958430B9F08530B2
:104F3000B9F78091730290917402009789F306C0CB
:104F40008091750290917602009799F30E944A270A
:104F5000E7CF8091770290917802F6CF8091790225
:104F600090917A02009791F7209173023091740228
:104F7000809175029091760221153105F1F200972A
:104F800029F7C901E3CFA5E0B0E0E9ECF7E20C9422
:104F90005F329093400380933F03811520E2920794
:104FA00030F40E94EB172596E2E00C947B3280EF00
:104FB00089838A8381E08B830E9491058160782FA9
:104FC0009D838C8349815A816B818D810E94182534
:104FD000EACFCF93DF93EC010E94C3278091820335
:104FE000909183030E94CD0CCE010E944A27DF914D
:104FF000CF9108950F931F93CF93DF938C01862F4A
:1050000063E772E00E94A50E892BB1F4C091730290
:10501000D0917402209781F0F8018281833051F49D
:10502000CE010E94E927CE010E94E927CE010E940D
:10503000E92702C08430D0F7DF91CF911F910F9103
:1050400008950F931F93CF93DF938C01EB0163E7D8
:1050500072E08C2F0E94A50E892B09F05CC0FE0126
:10506000FF27D80112968C911297E559FD4F813098
:10507000B9F415969C9192FF02C080830AC090FFFC
:10508000FCCF82E080838091750290917602009738
:10509000B9F480917302909174020097E1F110C00D
:1050A0008230B9F515968C9182FD28C080FD0BC029
:1050B00083E080838091770290917802009701F1DC
:1050C0000E94C32728C084E0808380917902909158
:1050D0007A020097A9F78091730290917402009769
:1050E000F9F00E94E927809175029091760200976D
:1050F00039F78091730290917402E2CF85E080834A
:105100008091730290917402009729F00E94E92720
:10511000F0CF86E08083DF91CF911F910F910895AA
:105120008091750290917602B8CF1F920F920FB6C0
:105130000F9211242F933F934F935F936F937F931D
:105140008F939F93AF93BF93CF93DF93EF93FF938F
:10515000D091E900DF708091EC00C82FC17080FD14
:10516000C0E81092E9008091F000877F8093F00002
:1051700078940E9440111092E9008091F0008860BC
:105180008093F000CD2BCF70C093E900FF91EF9199
:10519000DF91CF91BF91AF919F918F917F916F914F
:1051A0005F914F913F912F910F900FBE0F901F90E5
:1051B00018951F920F920FB60F9211242F933F93C1
:1051C0004F935F936F937F938F939F93AF93BF930F
:1051D000EF93FF938091E10082FF09C08091E2008C
:1051E00082FF05C08091E1008B7F8093E100809178
:1051F000DA0080FF24C08091D80080FF20C0809119
:10520000DA008E7F8093DA008091D90080FF9DC004
:1052100080E189BD82E189BD09B400FEFDCF81E056
:105220008093770480914904811109C00E94C603CC
:105230000E94B9048091E20084608093E200809132
:10524000E10080FF17C08091E20080FF13C08091D1
:10525000E2008E7F8093E2008091E2008061809383
:10526000E2008091D80080628093D80019BC85E06C
:10527000809377048091E10084FF2BC08091E2004D
:1052800084FF27C080E189BD82E189BD89B5982F5F
:10529000917080FFFBCF8091D8008F7D8093D800E4
:1052A0008091E1008F7E8093E1008091E2008F7E0B
:1052B0008093E2008091E20081608093E20080911F
:1052C0006E04882309F447C084E0809377048091BA
:1052D00077048091E10083FF27C08091E20083FF83
:1052E00023C08091E100877F8093E10082E080937A
:1052F000770410926E048091E1008E7F8093E1002C
:105300008091E2008E7F8093E2008091E2008061D4
:105310008093E20042E060E080E00E948704809198
:10532000F00088608093F000FF91EF91BF91AF9102
:105330009F918F917F916F915F914F913F912F91AD
:105340000F900FBE0F901F90189519BC1092770404
:105350001092490474CF8091E30087FD93E090930D
:105360007704B5CF78941F921FB61F9211248F93A4
:105370009F93AF93BF938091400490914104A0917B
:105380004204B09143040196A11DB11D80934004D5
:1053900090934104A0934204B0934304BF91AF9112
:1053A0009F918F911F901FBE1F9018951F921FB63F
:1053B0001F9211248F939F93AF93BF9380913F04CB
:1053C000811113C08091400490914104A091420446
:1053D000B09143044196A11DB11D80934004909368
:1053E0004104A0934204B0934304BF91AF919F91B5
:1053F0008F911F901FBE1F901895CDB7DEB7EC9709
:105400000FB6F894DEBF0FBECDBF85B7806885BFED
:1054100085B7806885BF84B7877F84BF0FB6F8944F
:10542000A895809160008861809360001092600070
:105430000FBE80E890E00FB6F894809361009093DF
:1054400061000FBE87E998E0909385018093840105
:105450000E94C8060E94D70E0E94D70C0E94C60365
:105460000E94B9048091E20084608093E200789405
:10547000809177048823A1F01091E9001F7090912A
:10548000EC00892F817090FD80E8182B1092E900C4
:105490008091E80083FD0E9440111F701093E90085
:1054A00082E084BD93E095BD9AEF97BD80936E0036
:1054B0000E94D30D811102C00E94C91484EF0E9482
:1054C000990886E30E94990885E30E94990884E37D
:1054D0000E94990806E511E0D8018D918D018F3F5A
:1054E00011F00E949908B1E000361B07A9F788E087
:1054F000E6E5F2E0DF01282F1D922A95E9F7EDE2BB
:10550000F2E0DF011D928A95E9F790E080E00E94C9
:10551000C432883E9E4F21F40E94D30D811102C0F7
:105520000E94D01882E090E00E94BC328093370243
:105530000E94EC0D90934504809344040E941B0F3D
:10554000EFEFF6E721E0E150F0402040E1F700C046
:1055500000000E941B0F8091560280FF08C06FEF71
:105560007FEF90E080E00E94E8320E94A90C83E087
:1055700090E00E94BC320E94251182E080934E028E
:1055800012E7A12E11E0B12E40E751E08A0195010A
:1055900061E070E0D9018D919D01E82FE295EF70F7
:1055A000F0E0D1A08F707B0101C0EE0C8A95EAF784
:1055B0009E2D90959D2191A382A18E2982A3F80111
:1055C00081918F01E82FE295EF70F0E0D1A08F700C
:1055D0007B0101C0EE0C8A95EAF79E2D90959D21E6
:1055E00091A382A18E2982A3A457B14099F68FE896
:1055F00091E00197F1F700C0000010914E026FE4B6
:1056000072E0FB018E2F861B811708F463C080E0D7
:1056100091E090933C0480933B048091770400E1F7
:1056200012E1853009F4B9C00E941B0FA8E3AA2E2D
:10563000A2E0BA2EB6E58B2EB2E09B2ED401F50186
:10564000219131918D919D9142E0E034F40709F46C
:10565000AEC028173907A1F3712CD4010D911D910B
:105660004D01F501C190D1905F01C016D10659F1ED
:10567000612CEE24E394F12CC026D126C6018E21A4
:105680009F21892BB1F068AE79AE21E0C8018E214F
:105690009F21892B09F420E02AAF0E9491058160A7
:1056A000782F9CAF8BAF48AD59AD6AAD8CAD0E94E1
:1056B00018256394EE0CFF1CFAE06F12DFCFF501A2
:1056C000329711830083739424E07212C6CF0E9434
:1056D00085058FC0D5012D915D01822F82958F7038
:1056E00090E0DC0190968C9190E02F7002C095952F
:1056F00087952A95E2F78170DA019D91AD01292FF6
:1057000022952F7030E0D90190962C9130E09F7057
:1057100002C0359527959A95E2F790E020FD92E03A
:10572000892B81936FCF80917704843021F110927F
:105730003F04E8E1F0E020E40FB6F894A895E09388
:1057400060000FBE2093600083B7817F846083BFB9
:1057500083B7816083BF7894889583B78E7F83BF3A
:105760000FB6F894A89580916000886180936000DE
:10577000109260000FBE80916D04882371F00E942A
:105780001B0FE6E5F2E081919191892B09F006C6A5
:105790008EE592E08E179F07B1F7809177048530F0
:1057A00009F4C1CF0E942A110E94C9053DCF2817D4
:1057B000390709F051CF0E9491058C018091350283
:1057C0009091360208171907A1F08FEF8BAB8CABC5
:1057D0001DAA0E9491058160782F9FAB8EAB4BA9CB
:1057E0005CA96DA98FA90E94182510933602009319
:1057F0003502E0903704F0903804E114F10429F107
:1058000080914002909141020E9476058C01BE0178
:10581000655D7F4F88E0DB011D928A95E9F7C7013E
:105820000E94B90E8017910780F480913704BEE082
:105830008B9FC0011124FC01EE57FD4F208122FDFA
:1058400004C083589D4F0E945010809117018823F7
:10585000F9F080913204909133040097C9F00E94CE
:10586000760520918C0330918D032817390780F439
:105870009091300480913104981779F10E9484242A
:1058800010928D0310928C03109233041092320404
:1058900080917F0380FF1EC08091160182FF1AC095
:1058A0000E9491052091880330918903AC01421B2D
:1058B000530B20911401309115014217530750F0FA
:1058C00022E432E041E0BC0180918A0390918B0395
:1058D0000E941818D12CC12C7BC00E941724109252
:1058E0003304109232040E940F06D2CFED2CF12C1B
:1058F000F701EE58FE4F8081E82FE295EF70F0E05F
:10590000E0A1F0E08F7002C0F595E7958A95E2F787
:10591000E170D701A059BE4F2C91A22FA295AF7074
:10592000B0E090968C9190E02F7002C0959587958D
:105930002A95E2F780FDFBC080E08E2BD701A15BAA
:10594000BD4FEC919E2F9370891709F440C0EE0F64
:10595000EE0FE82BEC93EF70F0E0E05AFE4F87017A
:10596000045B1D4F8081F8019081890F808320E0C6
:1059700084307CF0F701E65BFD4F80818F5F808390
:10598000F1E0FD1528F06AE070E08AEA0E94A916AD
:1059900021E0D8018C918D3F7CF4F701E65BFD4F4F
:1059A000808181508083B1E0BD1528F06AE070E00D
:1059B00089EA0E94A91621E0F8018081082E000CD6
:1059C000990B64E070E00E942E328083C22AD39447
:1059D00080914E02D81608F489CFC1100E94850527
:1059E00086E0E5E6F2E08E010F5F1F4FD8010190DF
:1059F0000D928A95E1F71092670210926802109258
:105A0000690210926A028B819C81892B91F08091AE
:105A10006302909164020E947605AC0190915F024E
:105A2000992309F486C0809112018417150608F4A1
:105A30008EC08D819E81892B91F080916102909121
:105A400062020E947605AC0190915E02992309F4EE
:105A5000BFC080910E018417150608F4C7C046E048
:105A600050E0B80185E692E00E948F32892B61F404
:105A70008091670290916802892B90916902892B2D
:105A800090916A02892B11F00E94ED0686E0F801E0
:105A9000A5E6B2E001900D928A95E1F70E94C90552
:105AA00090915102891721F0809351020E9485053F
:105AB00080917704843009F0B0CD83E08093E900D1
:105AC0008091E80082FFA9CD8091E80090E085FFF9
:105AD0000AC00E94E50370E2E72EF12C68018823DA
