:100000000C94E8040C9420050C9420050C94200515
:100010000C9420050C9420050C9420050C942005CC
:100020000C9420050C9420050C94C0300C947C306A
:100030000C94BD310C9420050C9420050C942005E3
:100040000C9420050C9420050C9420050C9420059C
:100050000C9420050C9499310C9420050C942005E7
:100060000C9420050C9420050C9420050C9420057C
:100070000C9420050C9420050C9420050C9420056C
:100080000C9420050C9420050C9420050C9420055C
:100090000C9420050C9420050C9420050C9420054C
:1000A0000C9420050C9420050C94200505010902F0
:1000B000A10185020901A100050919012905150001
:1000C00025019505750181029501750381010501E1
:1000D000093009311581257F950275088106093897
:1000E0001581257F950175088106050C0A380215D2
:1000F00081257F950175088106C0C005010980A191
:1001000001850319012AB700150126B7009501756D
:10011000108100C0050C0901A101850419012AA064
:1001200002150126A002950175108100C00660FF2E
:100130000961A1010962150026FF0095207508815B
:10014000020963150026FF00952075089102C0057D
:10015000010906A101050719E029E7150025019508
:1001600008750181029501750881010507190029AB
:10017000FF150026FF009506750881000508190186
:100180002905950575019102950175039101C0003E
:10019000000000000000000000000000000000005F
:1001A000000000000000000000000000000000004F
:1001B0000000007E0F00D4FFFFFFC70000007800A2
:1001C000000000000000002A2B28000000000000B2
:1001D0000000000000000000000029000000002CCA
:1001E0001E3420212224342627252E362D37382769
:1001F0001E1F202122232425263333362E37381F75
:100200000405060708090A0B0C0D0E0F1011121336
:100210001415161718191A1B1C1D2F3130232D35D4
:100220000405060708090A0B0C0D0E0F1011121316
:100230001415161718191A1B1C1D2F3130354C6454
:100240003214783C1EFD377A585A000004E6D6B4C2
:10025000460200210116000000742FE5A3E009CB3F
:1002600002305D003D8889C65436C3174FE4E2A7CB
:100270003DAC73831FB1E521EA73C5596CF951C8D0
:10028000925CE0C5B726F35756C948B21384F8BC50
:10029000892941DA845EFABA7397F7A0A8986F3E6D
:1002A000D4C24301AB849A7684D1523A4EBCE24424
:1002B000193FBEABB36E0AEA7A7961EFDF5AF753A2
:1002C000EECF5A567F4C3E9BAC29320504C54308FD
:1002D00073C427B4E555C646224A7FF747801758AE
:1002E0003CF03F309685665B5D93843D09AFFE250B
:1002F000E747A71E95A5FD8CF6AAEBCFBCD96ADD12
:10030000695352DA52697097298F44442C75C6E7B5
:100310000C2C1D4CE30EB41D0005CEEDB9B586C7FF
:10032000345F58AC7C55A418319183FCBFAC76ED9A
:10033000DFCBA016E110D303D05769461D410E1D37
:10034000D17E9E8B533F7D9AE777FB4B72545E7B49
:10035000FB0F44E1F0EBF4D425D34ABF9169DA975F
:10036000FC32E8E2041DBE3FD669B958D7FA52C73D
:10037000DDFDB5D151E4F6E722A62D0C7F9C72D8A5
:1003800031165737387B48674B237E208959B0AEEA
:10039000624875DD231073BDC072DCE3CC33581D99
:1003A000D213A95391D593D6223A59893515E4979A
:1003B0000A47AFBBEE198B0E85A24FE15A26313E9C
:1003C000E230AC4661566974966418A9391E6774A8
:1003D0002AE64F32854A67B9E3FF6104CC706E4E5E
:1003E0006BFACAB3AE0E1B6236B6D4DFEC7393E67B
:1003F000F91C5496810077F0FEFD52A75994D9FB61
:1004000010A5A747B59CD24B78E81AF6156F9293C2
:10041000861D7C414CC80925F5921AC08C52782B58
:100420005EAE716CFC640217D7D19F947CCED6115E
:10043000904FC13ED7677C98FD21118B15E900EBE9
:100440006298166ADA2BF10D1122E59CBFE17FDB81
:10045000A2945BB7DA9C4A4C80E92CD90613A88099
:100460004525585B17290C8D37981B72318CEE3F50
:10047000C2334A74052887865211E5F61DE1FAA6B3
:10048000A33525B8A8F7EC3E57C12ED6BCDBD084E7
:100490008A35449B00B72E7F697D0A40410001CC1C
:1004A00004CC13000045E00472B1C467FB020000F5
:1004B000000004595A00010101010101010101027A
:1004C0000202020202020202030303030303030304
:1004D00004040404040404050505050506060606CF
:1004E00006070707070708080808090909090A0A8B
:1004F0000A0B0B0B0C0C0C0D0D0D0E0E0E0F0F0F2F
:1005000010101111111212131314141515161617B9
:1005100017181819191A1A1B1B1C1D1D1E1E1F2027
:1005200020212222232424252626272829292A2B74
:100530002C2D2D2E2F303132323334353637383999
:100540003A3B3C3D3E3F4041424344454647484993
:100550004A4C4D4E4F50515354555658595A5B5D65
:100560005E5F616264656668696B6C6D6F70727303
:100570007577787A7B7D7E8082838587888A8C8E6A
:100580008F91939596989A9C9EA0A2A3A5A7A9AB9C
:10059000ADAFB1B3B5B7BABCBEC0C2C4C6C9CBCD8E
:1005A000CFD1D4D6D8DBDDDFE2E4E7E9EBEEF0F340
:1005B000F5F8FAFDFFFFAA7F554001000100010098
:1005C0000100010001000100010001000100010023
:1005D0000100010001000100010001000100010013
:1005E0000100010001000100010001000100010003
:1005F00001000100010001000100010001000100F3
:1006000001000100010001000100010000000100E3
:1006100000000100010001000100010001000100D3
:1006200001000100010000000000000000000000C7
:1006300000000100010001000100010001000100B3
:1006400001000100010001000100010001000100A2
:100650000100010001000100010001000100010092
:100660000100010001000100010001000100010082
:100670000100010001000100010001000100010072
:100680000100010000000100000001000100010064
:100690000100010001000100010001000100000053
:1006A0000000000000000000000001000100010047
:1006B0000100010001000100010001000100010032
:1006C0000100010001000100010001000100010022
:1006D0000100010001000100010001000100010012
:1006E0000100010001000100010001000100010002
:1006F00001000100010001000100010000000100F3
:1007000000000100010001000100010001000100E2
:1007100001000100010000000000000000000000D6
:1007200000000100010001000100010001000100C2
:1007300001000100010001000100010001000100B1
:1007400001000100010001000100010001000100A1
:100750000100010001000100010001000100010091
:100760000100010001000100010001000100010081
:100770000100010000000100000001000100010073
:100780000100010001000100010001000100000062
:100790000000000000000000000001000100010056
:1007A0000100010001000100010001000100010041
:1007B0000100010001000100010001000100010031
:1007C0000100010001000100010001000100010021
:1007D0000100010001000100010001000100010011
:1007E0000100010001000100010001000000010002
:1007F00000000100010001000100010001000100F2
:1008000001000100010000000000000000000000E5
:1008100000000100010075049510C81000000200DE
:10082000020071049510C810000003000100760456
:100830009510C8100000040002005B049510C81059
:100840007E080500010077049510C810000006001E
:1008500002005D049510C810000007000200730438
:100860009510C81000000800010078049510C81009
:100870000000090002005F049510C81059080A0022
:10088000020061049510C81059080B0002006304AF
:100890009510C81059080C00020065049510C81086
:1008A00059080D00020067049510C81059080E0081
:1008B000020069049510C81059080F0002006B046B
:1008C0009510C8105908100002006D049510C8104A
:1008D0005908110002006F049510C8105908120041
:1008E000020079049510C8100000130002007B0478
:1008F0009510C8100000140001007D049510C81068
:100900000000150000000000DF07D11900000902F7
:100910005B00030100A0FA090400000103010100CB
:10092000092111010001224000070581030800018F
:100930000904010002030000000921110100012245
:1009400022000705820320000107050303200001A0
:100950000904020001030000000921110100012225
:10096000810007058403200001120100020000003D
:1009700008444B724D0100010203011C037600691B
:100980000061006C003A00660036003400630032FB
:1009900000620033006300000012034D006F006E20
:1009A000006F007200610069006C0000001C034BC6
:1009B0000069007300650072002000440065007348
:1009C00000690067006E0073000000040309040062
:1009D00011241FBECFEFDAE0DEBFCDBF04B603FEA9
:1009E00018C08091030590910405A0910505B09170
:1009F00006058730904BA740B04B59F41092030581
:100A0000109204051092050510920605E0E0F8E347
:100A1000099511E0A0E0B1E0ECEBF6E702C005902B
:100A20000D92A839B107D9F725E0A8E9B1E001C0D6
:100A30001D92A330B207E1F70E94E4310C94313BE0
:100A40000C940000E8EDF0E080818E7F80831092AE
:100A5000E2001092DA001092E100A0EEB0E08C917A
:100A600081608C9380818F77808319BCA7EDB0E083
:100A70008C918E7F8C9380818F7E80831092EA048C
:100A800008952091E4003091E50095E6A9012091B8
:100A9000EC00822F817020FF06C08091E80080FF6B
:100AA00006C080E008952091E80022FD1AC08091E0
:100AB000F704882389F0853089F08091EB0085FD6B
:100AC0000FC02091E4003091E50042175307F9F27E
:100AD0009150E1F684E0089582E0089583E008955E
:100AE00081E00895EF92FF920F931F93CF937C01C3
:100AF0008B010E944105C82F811117C08091E80029
:100B000085FD0BC08091E8008E778093E8000E94FD
:100B10004105882399F3C82F08C0F70181917F010F
:100B20008093F1000150110949F78C2FCF911F914B
:100B30000F91FF90EF9008958091F90487FF13C003
:100B40008091E80082FF06C08091E8008B77809357
:100B5000E80004C08091F7048111F2CF08958091DC
:100B6000F7048823D9F38091E80080FFF8CF8091C3
:100B7000E8008E77ECCF982F9093E900242F762F02
:100B800050E0891731F07091EC002091ED00509108
:100B9000F00021FD07C09F5F973071F78093E90057
:100BA00081E008953091EB003E7F3093EB0030916F
:100BB000ED003D7F3093ED003091EB0031603093DC
:100BC000EB007093EC002093ED005093F000209127
:100BD000EE0027FDE0CF80E00895B0E0A0E0E3EF75
:100BE000F5E00C94713AC8EDD0E088818F7E88835F
:100BF000E7EDF0E080818160808384E082BF81E066
:100C00008093EA0488818E7F888302EE10E0F801E9
:100C100010821092DA0081EEC82ED12CF6011082DB
:100C200088818F77888388818068888388818F7D99
:100C3000888319BC1092F7041092F8041092F604FD
:100C40001092F50490EEE92EF12CF70180818B7F54
:100C5000808388818160888342E060E080E00E9438
:100C6000BB05F60180818E7F8083F80180818160E1
:100C70008083808188608083F70180818E7F80837C
:100C8000888180618883CDB7DEB7E8E00C948D3A27
:100C9000FC018091FF049091000586179707A0F052
:100CA0006115710529F49091E8009E779093E80012
:100CB00090E06115710551F4911108C08091E80030
:100CC00082FF34C080E00895BC01F2CF8091F70428
:100CD0008823C1F18530C1F18091E80083FD30C0E7
:100CE0008091E80082FDEACF8091E80080FFE1CFAB
:100CF0008091F3002091F200382F6115710519F0F1
:100D00002830310558F091E02830310509F090E0A5
:100D10002091E8002E772093E800CBCF819180933B
:100D2000F100615071092F5F3F4FE7CF8091F704C9
:100D3000882341F0853041F08091E80083FFBECFE9
:100D400081E0089582E0089583E0089508958091F8
:100D5000EC0408959C014FB7F8948091E3049091BE
:100D6000E404A091E504B091E6044FBF821B930B0D
:100D700008952FB7F8946091E3047091E404809192
:100D8000E5049091E6042FBF08952FB7F894809161
:100D9000E3049091E404A091E504B091E6042FBF30
:100DA00008959C01FC0132969FEF80E04191461727
:100DB00051F09F3F19F4411101C0982F8F5F863089
:100DC000A9F79F3F09F40895290F311D97FD3A9522
:100DD000F901628308952091E0043091E10428171D
:100DE000390771F09093E1048093E004E091DE0410
:100DF000F091DF04309721F00084F185E02D099512
:100E000008952091DC043091DD042817390771F032
:100E10009093DD048093DC04E091DE04F091DF0424
:100E2000309721F00680F781E02D09950895E09133
:100E3000DE04F091DF04309729F00190F081E02D7D
:100E40000995089580E00895CF93DF93EC014091D8
:100E500050045091510460915204709153042FB783
:100E6000F8948091E3049091E404A091E504B0919A
:100E7000E6042FBF841B950BA60BB70B843F914054
:100E8000A105B10518F58091500490915104A091ED
:100E90005204B091530480934C0490934D04A0935A
:100EA0004E04B0934F0484EF91E0A0E0B0E0809353
:100EB000480490934904A0934A04B0934B04D09300
:100EC0005804C0935704DF91CF9108950E94B9064A
:100ED00060934C0470934D0480934E0490934F04A0
:100EE00082E390E0A0E0B0E0E2CFFC0184818623C1
:100EF00051F492819923B9F06923808583FF05C05D
:100F000081E061110FC080E00895892F8F70929564
:100F10009F70982B862F8F7062956F70682B81E081
:100F20009613F1CF089581E0FDCF452B39F068236A
:100F300081E06F3F09F080E08170089581E0FCCF8F
:100F4000DC016091440480914504962F891301C00F
:100F50000895292F30E0F901EE0FFF1FE45CFB4FED
:100F6000408151814A175B07A1F487E08A9FA00165
:100F70008B9F500D11244C5F5B4F81E0FA018483FD
:100F80009613E6CF2F5F3F4F2370332720934404FF
:100F900008952F5F3F4F922F9370D8CF1092A103E7
:100FA0001092A003E4E0F4E08581811102C0148274
:100FB0001682379684E0EC33F807B1F70895B0E075
:100FC000A0E0E5EEF7E00C946F3A8FEF9FEF44302E
:100FD000510508F469C04091790341FB882780F9E5
:100FE00090E0880F991F42FB002700F910E0000FE6
:100FF000111F000F111F802B912B40FBCC24C0F838
:10100000D12C8C299D2943FB222720F9C22FE0E017
:10101000DE2F53E0CC0FDD1F5A95E1F78C2B9D2B73
:1010200044FBAA27A0F9B0E0E4E0AA0FBB1FEA95B1
:10103000E1F78A2B9B2B45FBEE27E0F9F0E0A5E0DA
:10104000EE0FFF1FAA95E1F78E2B9F2B46FB222761
:1010500020F930E0B6E0220F331FBA95E1F7822B7A
:10106000932B47FB222720F930E03695322F222799
:1010700037952795822B932B20917A03322F31704D
:10108000F32EE82EF92A26952170B22EBB0CA82E3D
:10109000BF28C501BB0CAA0BBB0BFB01808391834E
:1010A000A283B38390E080E0CDB7DEB7EAE00C9492
:1010B0008B3AEBE5F4E0848195812AE030E0B901D8
:1010C0000E94323A609323018681809322018285B7
:1010D0008093210184858093200186859785B901BD
:1010E0000E94323A60931F01808980931E01828999
:1010F00080931D01848980931C01089580915B0475
:1011000090915C04909325018093240108958115AA
:101110002CE5920741F420911A0130911B01232BF9
:1011200011F490E080E00895FA01811101C0FB0103
:1011300009950895089580918702982F9E7F29F43C
:10114000817082608093870208958A32E8F381700B
:101150008862F8CFAF92BF92DF92EF92FF920F9327
:101160001F93CF93DF93082F162FE901E42FF0E0B0
:10117000EB54FB4F611110C0E4915E2F4E2F498359
:10118000E8835A83DF91CF911F910F91FF90EF90E9
:10119000DF90BF90AF900895E62EF12C4491D42EAD
:1011A000E42FF0E026E0829FC00111242FEF30E011
:1011B000B9010E94323A802F90E0880F991F55E5BF
:1011C000569FD001579FB00D11248A1B9B0B982F5F
:1011D000990F890F5901AE18BF08AE9ED001AF9E7E
:1011E000B00DBE9EB00D11245B2F189F80011124FD
:1011F000012F11275901A01AB10AAE9E8001AF9E9E
:10120000100DBE9E100D11245901A81AB108AE9CF4
:10121000C001AF9C900DBE9C900D1124892F992781
:10122000281B390B2E9FC0012F9F900D3E9F900DC4
:101230001124E92F62307105A1F050F46115710598
:1012400009F49DCF6130710581F0EB2F512F97CFBD
:101250006430710569F080F06630710509F48FCF54
:10126000F4CFE42F4B2F592F8ACFE42F412F87CF74
:10127000EB2F542F492F83CF4B2F5D2DE12F7FCFA5
:101280000E94C5069C019091570280915802982BAC
:1012900021F030935402209353029091590280918F
:1012A0005A02982B21F03093520220935102E09180
:1012B000DE04F091DF04309749F082E0809355021C
:1012C0000480F581E02D85E592E0099508959091DF
:1012D0005702803F59F48091580287FF0DC0109249
:1012E000580291110BC010924F0208C0813F81F447
:1012F0008091580218169CF3992381F0809159022D
:1013000090915A02892B09F064C010924E02089500
:10131000823F49F497FFF0CF109257028091580214
:101320008111ECCFE0CF833F19F41916ACF3E4CF71
:1013300020915902893F29F41216F4F610925902AD
:10134000DBCF8A3F19F427FFD7CFF8CF20915A027D
:101350008B3F29F427FFD0CF10925A02CDCF8C3F7C
:1013600019F41216CCF3C8CF843F31F480915602A1
:101370008E7F80935602C0CF853F21F48091560224
:101380008D7FF7CF863F21F4809156028B7FF1CF7E
:10139000873F21F480915602877FEBCF883F21F46D
:1013A000809156028F7EE5CF8D3F31F480915002BF
:1013B0008E7F80935002A0CF8E3F21F48091500207
:1013C0008D7FF7CF8F3F09F097CF809150028B7FB1
:1013D000F0CF08958091500280FF0CC060911D01F4
:1013E00070E075956795759567956115710549F17B
:1013F000862F089581FF06C060911D0170E07595EC
:101400006795F3CF60911D0182FD0BC090914E0254
:101410009923A1F060911C0180911D01961738F06D
:10142000682F70E06038710500F38FE70895899F99
:10143000C001112470E00E94463AF4CF61E070E0F0
:10144000D7CF81E00895809150026091630470913C
:10145000640480FF16C020912101269FC001279FB0
:10146000900D1124BC017695679576956795603847
:10147000710508F043C06115710509F441C0862F5C
:10148000089581FF0BC020912101269FC001279F55
:10149000900D1124BC0176956795E9CF82FF09C0B4
:1014A000809121019B01829FB001839F700D1124C7
:1014B000DECF20914F022223D1F290912001809122
:1014C0002101482F50E0291748F0CB01849FB0013B
:1014D000859F700D949F700D1124C9CF289F900196
:1014E0001124269FA001279F500D369F500D1124D7
:1014F000692F70E0CA010E94323AB9CF8FE7089590
:1015000081E00895803F31F40E94230A8195809301
:1015100058020895813F19F40E94230AF8CF823FB0
:1015200031F40E94230A8195809357020895833FE6
:1015300019F40E94230AF8CF893F29F40E94EA098E
:101540008093590208958A3F21F40E94EA09819507
:10155000F7CF8B3F31F40E94EA09819580935A02BC
:1015600008958C3F19F40E94EA09F8CF843F31F4C2
:10157000809156028160809356020895853F21F440
:10158000809156028260F7CF863F21F48091560207
:101590008460F1CF873F21F4809156028860EBCFC1
:1015A000883F21F4809156028061E5CF8D3F31F470
:1015B0008091500281608093500208958E3F21F403
:1015C000809150028260F7CF8F3FB9F7809150022F
:1015D0008460F1CF80E00895F894E82FE295EF70F1
:1015E000F0E031A1282F2F7081E090E001C0880F3A
:1015F0002A95EAF7982F9095932391A392A1892B8E
:1016000082A3789408959091790392FF06C0282FC1
:1016100028712830F9F4877F846093FF06C0282F53
:1016200028712831F1F4877E846120917A0320FFAC
:1016300006C0382F38713830D9F4877F816021FF98
:1016400006C0282F28712831D1F4877E816194FD4E
:10165000877E0895282F24712430F9F68B7F8860C7
:10166000DCCF282F2471243101F78B7E8861DDCFF8
:10167000382F3171313019F78E7F8860E0CF282FF5
:101680002171213121F78E7E8861E1CFCF93DF93E5
:10169000EC0182389105A9F1D8F58133910509F45F
:1016A00096C048F58932910509F48AC08A9709F4F1
:1016B00095C0C11521E5D20708F0BCC0C11530E5C1
:1016C000D30708F014C1C83ED10508F09CC0C03E45
:1016D000D10560F5C83AD10508F087C0C53AD105F3
:1016E00008F0FDC0C130D10509F12097F9F0C430F0
:1016F000D105E0F440C08533910509F45AC0C9977B
:10170000C1F680917903837089F0C0EED0E00EC0FD
:10171000833E910599F170F4803E910501F1823E7E
:10172000910539F68091790382FD21C0CE01DF91C8
:10173000CF910895863E910561F1873E910571F143
:10174000843E910509F0B5CF80917A0381FFEECFF9
:1017500080917903C7EED0E084FD0DC0E7CF809182
:10176000790380FD12C190917A0390FFDFCFC3EE21
:10177000D0E084FFDBCFD0E0C0E0D8CF8091790308
:1017800082FD06C190917A0390FDBFCF84FFCECF3A
:10179000F2CF8091790383FDDDCFC8CF80917903AB
:1017A00083FDF9C090917A0391FFF0CFC4EED0E0B1
:1017B000BDCF8091790385FFB9CFC9E2D0E0B6CF24
:1017C0008091790385FFB2CFC5E3D0E0AFCF8091A0
:1017D000790386FFABCFCAE2D0E0A8CF809179032E
:1017E00086FFA4CFC1E3D0E0A1CFCF3BD10518F64F
:1017F000C85AD0E0CC0FDD1FCC5CDE4F0990D881F9
:10180000C02DD46493CFC11540E2D40758F4C1155C
:1018100081E0D80708F08ACFC03FD10508F4ABCFEC
:10182000D06584CFC11590E4D90708F4A4CFDF7048
:10183000D06A7CCFC11525E5D20700F5C11534E586
:10184000D30708F08AC0C11543E5D40708F071C07A
:10185000C11582E5D80708F467C0CE0183709927C7
:1018600021E030E002C0220F331F8A95E2F7C695CF
:10187000C69580E2C89FE001112452C0C11599E5C8
:10188000D907A8F4C11528E5D20708F06BC0C11527
:1018900036E5D30708F06FCF8C2F0E94030BC82FBB
:1018A000D0E0DC2FCC27CC27DF71D0623FCFC11531
:1018B0004AE5D40708F45BC0CE01905681159042EA
:1018C00008F059CF8D2F8F710E94030B90E0982F55
:1018D000882788279F719C012C2BE901E6CFC55AE8
:1018E000D0E0CF5CDE4FC881D0E0D0641FCFCE0106
:1018F000E4E096958795EA95E1F783702C2F26957D
:101900002695237040E2249F90011124382B8C2FC0
:101910008370C1E0D0E002C0CC0FDD1F8A95E2F7F2
:10192000C22BD32BDC6802CFDC2FCC27C16FD06A4F
:10193000FDCECE018370992721E030E002C0220F56
:10194000331F8A95E2F7C695C69590E2C99FE001DC
:101950001124C22BD32BDA68E9CEDC2FCC27C46F3D
:10196000D06AE4CEDC2FCC27C06FD06ADFCE8C2FBC
:101970008F700E94030B34E0D695C7953A95E1F736
:10198000CF709C2FEC01D069D1CEC9E3D0E0CECE90
:10199000C2EED0E0CBCEC6EED0E0C8CE80911A0227
:1019A000882331F010921A02109219021092180234
:1019B0000895CF93C82F80917A0382FF0CC0809145
:1019C0001A028C1741F00E94C50690931902809369
:1019D0001802C0931A02CF91089580959091020544
:1019E0009823909302050895809590917B03982306
:1019F00090937B03089590917B03892B80937B03C5
:101A0000089510920F0210920E0210920D02089586
:101A100080915D0490915E04892B89F00E94C50637
:101A20002091180230911902AC01421B530B81E046
:101A300020915D0430915E044217530708F480E062
:101A400081700895ECE9F1E09191891303C0DF0101
:101A500011971C9291E0E23AF907B1F708952091AD
:101A60000C029091CB01291302C080E0089530E070
:101A7000F90153E0EE0FFF1F5A95E1F7E453FE4FD3
:101A80005181561306C05081581303C0528154131C
:101A900004C02F5F3F4F2770E6CF81E0089580910B
:101AA0000C029091CB01981301C008958F5F87704D
:101AB000FACF292F953078F58C3068F590E03CE02E
:101AC000239F800D911D1124682F677023E0969548
:101AD00087952A95E1F7FC01EE0FFF1FE80FF91F2C
:101AE000E555FE4F50E040E080E0219130E0062EC9
:101AF00002C0369527950A94E2F721703327042E09
:101B000001C0220F0A94EAF7822B4F5F5F4F4330E8
:101B1000510559F7089580E00895292F953098F5DB
:101B20008C3088F590E03CE0239F800D911D1124BE
:101B3000282F277041E001C0440F2A95EAF723E0DF
:101B4000969587952A95E1F7FC01EE0FFF1FE80FA8
:101B5000F91FE555FE4F30E020E070E05191DF01C4
:101B60001197CB01022E02C0969587950A94E2F751
:101B7000817081958527842385278C932F5F3F4F24
:101B80002330310559F7089592959F70963091F062
:101B900058F4925F9F70923058F4803F19F030F4FF
:101BA000883E30F481E008959A5FF4CF843FD1F30A
:101BB00080E00895883EB0F3813FD1F7F3CF81FDF7
:101BC00002C08C9A08958C980895982F92959F70D2
:101BD00011F0892F94E0282F2695269511F09E5F0D
:101BE000822F869509F09F5F892F08959C013A9571
:101BF00021153F4150F5FC01EE27F170BC0166272D
:101C00007270AC01442754709C012227387094FFF5
:101C10000EC080E1EF2B09F480E0672B09F08062B1
:101C2000452B09F08064232B89F08068089581E0BA
:101C3000EF2B09F480E0672B09F08260452B09F057
:101C40008460232B19F08860089580E00895CF9375
:101C5000C82F0E94E50D823039F0833051F0813079
:101C600051F4889A899802C08898899A8C2FCF91CC
:101C70000895889AFACF8898F5CF8093E7047093F7
:101C8000E9046093E8048091F7048430F9F48093C8
:101C9000E9008FEF9091E800815095FD06C095ED29
:101CA0009A95F1F700008111F5CF8091E80085FF4A
:101CB0000DC050E040E063E070E087EE94E00E94E9
:101CC00072058091E8008E778093E8000895BC014A
:101CD00084E00E943D0E0895BC0183E00E943D0E09
:101CE00008959C0184E08093E9009FEF8091E800D3
:101CF000915085FD06C085ED8A95F1F700009111A0
:101D0000F5CF8091E80085FF0CC050E040E066E030
:101D100070E0C9010E9472058091E8008E7780937F
:101D2000E8000895CF93DF93EC0181E08093E90010
:101D30008FEF9091E800815095FD06C095ED9A9542
:101D4000F1F700008111F5CF8091E80085FF14C004
:101D500050E040E068E070E0CE010E9472058091A2
:101D6000E8008E778093E80088E0FE01ADEEB4E0F5
:101D700001900D928A95E1F7DF91CF91089581E06E
:101D80008093E00080E28093D8001092C9008FE138
:101D90009EE40197F1F700C0000087E090EBDC01C2
:101DA0008093030590930405A0930505B093060561
:101DB00088E19CE00FB6F894A895809360000FBE70
:101DC00090936000FFCF019708F40895EFE9FFE0DA
:101DD0003197F1F700C00000F6CF8091870280FDB7
:101DE0000AC0E3E6F2E0118210821282339652E0DA
:101DF000E738F507C1F7209A35B13E7F25B121605C
:101E00004FB7F89483E692E0FC015191CF0168E06E
:101E100025B9000000C057FF35B9550F000000C0BC
:101E200000C000C035B900C06A9591F7F2E087386C
:101E30009F0751F74FBF8FE594E00197F1F700C07E
:101E400000000895EF92FF921F93CF93DF93EC0170
:101E500083E6E82E82E0F82E10E08C819701409115
:101E60008A0260918902810F0E94AA081B5E83E0AA
:101E7000E80EF11C1C3F89F70E94ED0E9A818C81BF
:101E800090FF08C08F5F8C83DF91CF911F91FF90EF
:101E9000EF9008958150F7CF9091870290FF0CC08A
:101EA000E3E6F2E0818360834283339692E0E73891
:101EB000F907C1F70E94ED0E0895A3E0B0E0E3E654
:101EC000FFE00C94753A8C018091870280FF10C06E
:101ED0009E012F5F3F4F40918A0260918902F80175
:101EE00084810E94AA084B8169818A810E944C0FDB
:101EF000F80184818F5F84832396E4E00C94913A07
:101F00000F931F93CF93DF930BE514E0CFE7D2E05D
:101F1000CE010E94E13AF80181938F012196C33AE4
:101F2000F2E0DF07A9F7CCE1D8E0FE0185919491BA
:101F3000009711F0FC0109952C96F9E0C831DF07F4
:101F4000A1F7DF91CF911F910F9108950F931F93E8
:101F5000CF93DF93853030F5653020F54C3010F5A8
:101F6000C42FD0E0CC0FDD1F28E1629FC00DD11D32
:101F7000112438E7839FC00DD11D1124CE0187960F
:101F80000E94E13A082F10E0102F0027CE0188961A
:101F90000E94E13A9801282BC901DF91CF911F914E
:101FA0000F91089590E080E0F8CF462F20917703BD
:101FB00030917803232B99F4703F39F4603F79F422
:101FC00080917503909176030895853040F47530C3
:101FD00030F46C3020F4672F0E94A60F089590E033
:101FE00080E00895CF92DF92FF920F931F93CF93DB
:101FF000DF936C010091010580911B02082BC7E063
:10200000D0E010E0FC2EC8010C2E02C095958795FB
:102010000A94E2F780FD0CC02197A0F7F12C8F2DD8
:10202000DF91CF911F910F91FF90DF90CF90089596
:10203000B6018C2F0E94D50F0E94460B019761F3C9
:10204000EECFCF93DF93EC010E94F20FBE010E940E
:10205000D50F0E94460BDF91CF910895FC01868138
:102060009781009729F00E94460B0E94C40D0895A5
:10207000808191810E942110F8CFA5E0B0E0E3E4D7
:10208000F0E10C94763A49835A8389819A816623D8
:1020900099F0222389F00E94F20F182F682F89816E
:1020A0009A810E948D0D69817A81812F0E94D50FBE
:1020B0002596E3E00C94923A0E94590D182FF3CF25
:1020C000FC01262F86819781009739F44081518148
:1020D0006281738184810E943D10089583E290E0C3
:1020E0000E94E13A803E89F484E290E00E94E13A65
:1020F0008B3459F485E290E00E94E13A91E08B3A0A
:1021000009F090E0892F8170089580E0FCCFCF9393
:1021100084E090E00E94E13AC82F82E290E00E94C1
:10212000E13A982F8C2FCF910895DB01FC01329674
:10213000259134914217530758F0FC01349665916C
:102140007491A901CD010E94C13A90E080E0089508
:102150008FEF9FEF08950F931F93CF93DF930BE5BE
:1021600014E0CFE7D2E0CE010E94E13AF80161919C
:102170008F01681719F0CE010E94F53A2196C33AF3
:10218000F2E0DF0781F7DF91CF911F910F91089562
:10219000DA019C012E5F3F4FF90145915491F901FD
:1021A00025913491A217B30758F0FC01349685911C
:1021B00094910E94C13A0E94AB1090E080E0089593
:1021C0008FEF9FEF0895CF93DF93CBE6D3E060E0EE
:1021D000CE010E94F53A2196C11584E0D807B9F7DF
:1021E000DF91CF9108951F93CF93DF93122F853006
:1021F000E0F46530D0F44C30C0F4C42FD0E0CC0F04
:10220000DD1F98E1699FC00DD11D112498E7899FBA
:10221000C00DD11D1124632FCE0187960E94F53A7F
:10222000612FCE0188960E94F53ADF91CF911F91E0
:102230000895CF93C82F6FEF811160EE83E290E095
:102240000E94F53A6FEFC1116BE484E290E00E94C6
:10225000F53A6FEFC1116BEA85E290E00E94F53A22
:10226000CF910895CF93C92F682F84E090E00E940A
:10227000F53A6C2F82E290E00E94F53ACF910895F2
:102280009B01843070F49AE0899FB00111246D5550
:102290007D4F4AE050E0C9010E94D13A90E080E0D1
:1022A00008958FEF9FEF0895AAE0B0E0EAE5F1E12D
:1022B0000C946D3A04E814E0F12CE12C80EDC82E6A
:1022C0008FE2D82E97EFA92E9FE2B92E25E4822E19
:1022D0002FE2922EF801D182C082B382A28295822F
:1022E0008482F58AE48ABE016F5F7F4F8E2D0E9443
:1022F0004011892B29F489859A85F801938B828B6B
:10230000FFEFEF1AFF0A0A5E1F4F84E0E816F104A0
:1023100009F72A96ECE00C94893AAAE0B0E0E3E9E8
:10232000F1E10C946D3A0DEF12E08BEEC82E82E0D5
:10233000D82E9BE1E92E93E0F92E27E0922E3AEE7B
:10234000A32E32E0B32E88248394D6010D931D93DF
:102350006D014AE050E0B701CE0101960E94D13AEA
:10236000F8013896DF01892D1D928A95E9F7898158
:102370009A81D80111969C938E938F8112968C939B
:1023800012978D8113968C931397888514968C934E
:102390001497898515968C9315978B819C81179638
:1023A0009C938E93169718961C9218978A8587FF90
:1023B0003CC01E961C921E921D9780FF03C0D80140
:1023C00018968C9281FF04C0F801908592609087E6
:1023D00082FF07C0D80118969C91189794601896B0
:1023E0009C9383FF04C0F80190859860908784FFD8
:1023F00007C0D80118969C911897906118969C93E5
:1024000085FF04C0F801808580628087015F1F4FCF
:10241000FAE0EF0EF11C8BE6E81683E0F80609F00F
:1024200094CF2A96ECE00C94893AF801B686A586FA
:10243000C4CFAAE0B0E0EFE1F2E10C94713AEAE92E
:10244000F2E080E5DF011D928A95E9F7E4E0F4E02F
:1024500088E3DF011D928A95E9F78AE9C82E82E0B8
:10246000D82E7F010BEC12E0F701D182C0824AE046
:1024700050E0B801CE0101960E94D13A88E0FE01F9
:102480003196D60101900D928A95E1F789859A855A
:10249000D70113969C938E931297BAE0CB0ED11C62
:1024A000E7E0EE0EF11C065F1F4F0B31F3E01F0754
:1024B000D9F62A96E8E00C948D3ACF92DF92EF920B
:1024C000FF926B017C010E949B08B701A60188E086
:1024D00090E00E94073BFF90EF90DF90CF9008952F
:1024E000A3E0B0E0E6E7F2E10C946A3AF82E762E2B
:1024F000E42E622E8091870280FF29C0E82FE695A6
:10250000AE2FB0E0AD58BE4F9C91909361028E7F8C
:10251000823009F59E012F5F3F4F8F2D0E94AA0840
:102520004B8169818A810E944C0FF09288027092DF
:102530008902E0928A02662051F0609187027091D0
:1025400088028091890290918A020E945D122396EE
:10255000EFE00C94863A923019F4F0908802E5CFBF
:102560009530D9F39B3009F7EB508E2F8170582EA0
:10257000E695F0E0EB54FA4FE4910E2F10E083E67D
:10258000C82E82E0D82EB12CA12C9CE0892E912C53
:10259000C501B4010E94323A8F2D511013C0860F2D
:1025A00096014E2D672D0E94AA08A00EB11E83E051
:1025B000C80ED11C87E8C81682E0D80649F70E94E9
:1025C000ED0EB3CF861BECCFE7E8F2E0438128E0C5
:1025D000421B08F440E021E0628181810E94701278
:1025E0000895E7E8F2E0438128E0420F08F44FEF56
:1025F00021E0628181810E9470120895E7E8F2E093
:10260000628128E0621B08F460E021E0438181815F
:102610000E9470120895E7E8F2E0628128E0620FFC
:1026200008F46FEF21E0438181810E9470120895C8
:10263000E7E8F2E0818121E04381628188500E94D5
:1026400070120895E7E8F2E0818121E04381628120
:10265000885F0E947012089580918B02882319F080
:10266000815080938B0260918702709188028091E3
:10267000890290918A020E945D12089580918B02D6
:10268000833018F48F5F80938B0260918702709182
:1026900088028091890290918A020E945D120895B9
:1026A0009091870290FF2CC0917081112AC0926096
:1026B00090938702662351F060918702709188029F
:1026C0008091890290918A020E945D126091870236
:1026D000669570E04BE050E08FE091E00E94A73AF1
:1026E000892BB1F01092620281E080935E0220E0BB
:1026F00040918A0260918902809188020E94701242
:102700000895853110F09862D3CF880F982BD0CFE1
:1027100081E0809362020E94C50690935C028093E0
:102720005B02E2CF809187028695815009F484E1B3
:1027300061E00E94501308958091870286958F5F13
:10274000853108F081E061E00E9450130895909176
:10275000870290FF08C09695981728F0961718F4EE
:102760000E949C13089561E00E9450130895E7E8C9
:10277000F2E083E0808311828FEF8283838314826F
:1027800060817181828193810E945D120895AAE027
:10279000B0E0EDECF3E10C946D3A8E010F5F1F4F4A
:1027A0008AE0F80111928A95E9F792E6E92E91E024
:1027B000F92E6801AA24A394B12CF70181917F011D
:1027C0008F3F09F446C0F894E82FE295EF70F0E0EF
:1027D00021A18F70A50102C0440F551F8A95E2F711
:1027E000CA01922F982B91A392A18095892382A34D
:1027F000789400C0E7E6F1E021E030E0912C812CF4
:1028000041914F3F09F481C0A42FA295AF70B0E071
:1028100090968C9190E04F7002C0959587954A955F
:10282000E2F780FD72C0C901882A992A220F331F5E
:1028300051E0E337F50721F7F701319780818F3FAA
:1028400011F00E94EC0A80EA8A95F1F7F601918274
:102850008082F2E0CF0ED11C47E6E41641E0F40698
:1028600009F0ABCF4AE050E0B8018FE192E00E945E
:10287000B43AFF24F394009709F4F12C892B09F45E
:1028800047C08AE0F801AFE1B2E001900D928A956D
:10289000E1F781E080931E020E94C50690931D021D
:1028A00080931C0280911C0290911D020E94AA0636
:1028B000059790F180911F0290912002909345021C
:1028C00080934402809121029091220290934702CA
:1028D00080934602809123029091240290934902B2
:1028E00080934802809125029091260290934B029A
:1028F00080934A02809127029091280290934D0282
:1029000080934C0210921E0207C090E080E08CCFB2
:1029100080911E028111C6CF8F2D2A96ECE00C9477
:10292000893A80917B0390910205892B80939A01CB
:1029300080911A02882309F180915D0490915E04D0
:10294000892B29F00E94080D81110E94CE0C8091E4
:102950009A0190911A02892B80939A0120E08CE9C8
:1029600091E0FC013191CF0131112F5FF1E0823A0A
:102970009F07B9F721110E94CE0C809154048095D5
:1029800090919A01892390915504892B80939A0103
:1029900048E050E060E172E08AE991E00E94B43AD8
:1029A000892BA9F088E0EAE9F1E0A0E1B2E001902A
:1029B0000D928A95E1F7E091DE04F091DF04309703
:1029C00031F00280F381E02D8AE991E009950895C4
:1029D000EF92FF920F931F93CF93DF93EC018A85C1
:1029E000811134C0EB80FC8087E5F81A26E12E9D2A
:1029F000C0012F9D900D1124DC01AC57BB4F1496E4
:102A0000ED91FC911597309731F054966D917C9132
:102A100086579B4F099586E18E9D80018F9D100DF5
:102A200011240C571B4FF80187810E94F40CF80108
:102A300080850E94ED0C0E949114188219861B86D5
:102A40001E821D821092830410928204CDB7DEB7DD
:102A5000E6E00C948F3ACF93DF93EC0189898111E2
:102A600016C081E0898B8F810E94FB0C809102054A
:102A70009885892B809302050E949114EA81FB813D
:102A8000309729F06C897D89CE0106960995DF91F2
:102A9000CF91089580912601877F8093260182E05F
:102AA0000E94ED0C8091260184FF06C08F7E8093EA
:102AB000260182E00E94FB0C8091260185FF06C062
:102AC0008F7D8093260180E20E94FB0C0E9491146E
:102AD000089590E080E00E94010790E080E00E946D
:102AE000EB06109202050E94911486E0E5E5F2E003
:102AF000DF011D928A95E9F710924F0210924E0263
:102B0000109250020E94400908950E94270E80935F
:102B100001050E946915089580910105982F96700E
:102B2000963021F488600E9485150895877FFBCF39
:102B300021E030E001C0220F8A95EAF720958091CC
:102B4000010582230E948515089590910F028095BA
:102B5000892380930F02282F277091F4282F082EA5
:102B6000000C330B9217130659F090917A0392FFE1
:102B700007C08595859585950E9498150E94010D41
:102B8000089590917A0392FB222720F9281769F083
:102B900080FB92F990937A038091790390917A0364
:102BA0000E94321182E00E94A515089521E030E0D4
:102BB00001C0220F8A95EAF780910105822B0E94BD
:102BC0008515089590917A0392FF10C098E0899F2F
:102BD00090011124622B60930F020E94D6150E946F
:102BE000C50690930E0280930D0208950E94D6159B
:102BF000089580931B020E946915089510927B032B
:102C0000ECE9F1E086E0DF011D928A95E9F70E9488
:102C100069150895AAE2B0E0E0E1F6E10C94763A95
:102C200089EF94E02091F100DC012D93CD01B5E016
:102C300081309B07B9F78091FA04833009F472C0A0
:102C4000B8F4813009F449C0823009F4B3C08091EE
:102C5000E80083FF96C28091F9049091FA049A30BB
:102C600008F08FC2E92FF0E0ED5CF44C0C945A3A76
:102C70008A3009F48EC08B3009F471C0893039F77D
:102C80008091F904813219F78091FD049091FE043E
:102C9000009711F00297D9F68091E800877F809322
:102CA000E8008091E80082FF38C09091F3008091A5
:102CB000F200029731F48091F100813011F08630FA
:102CC00021F48091F1008093EC048091E8008B77EF
:102CD0008093E8000E949C05BACF8091F904813A64
:102CE00009F0B5CF8091E800877F8093E80080915C
:102CF000FD049091FE04892B61F468E08DEE94E070
:102D000070E00E9448068091E8008B778093E8008D
:102D10009ECF60E090E080E0F3CF8091F7048111D6
:102D2000C0CF95CF8091F904813A09F090CF80917E
:102D3000FD049091FE04892B09F089CF8091E80071
:102D4000877F8093E8008091E80080FFFCCF80912E
:102D500028018093F1008091E8008E77B9CF8091AF
:102D6000F904813209F073CF8091FD049091FE0443
:102D7000892B09F06CCF8091E800877F8093E80071
:102D80000E949C058091FB04809328010E94FE15FF
:102D90005ECF8091F904813209F059CF8091E8002B
:102DA000877F8093E8000E949C058091FC048093BB
:102DB000EB044DCF8091F904813A09F048CF80911E
:102DC000E800877F8093E8008091E80080FFFCCFD7
:102DD0008091EB04BECF803899F0823809F0D1C1E0
:102DE0008091FD048F70873008F0CBC18093E9009B
:102DF0008091EB0085FB882780F91092E90006C0DE
:102E00008091F5049091F604911182609091E80010
:102E1000977F9093E8008093F1001092F1008091E9
:102E2000E8008E77AAC1882309F498C1823009F09E
:102E3000A8C18091FB0481119BC18091FD048F701A
:102E40002FEF280F263008F09CC18093E9002091D5
:102E5000EB0020FF8DC1933031F48091EB00806254
:102E60008093EB0085C19091EB0090619093EB0013
:102E700021E030E001C0220F8A95EAF72093EA00B2
:102E80001092EA008091EB008860EACF811179C14D
:102E90001091FB041F778091E3008078812B809351
:102EA000E3008091E800877F8093E8000E949C0502
:102EB0008091E80080FFFCCF8091E30080688093E0
:102EC000E30082E0111183E08093F7045AC1805837
:102ED000823008F056C12091FB043091FC042C3D57
:102EE000E3E03E07A1F583E08A838AE289834FB756
:102EF000F894DE01139620E03EE051E2E32FF0E08B
:102F000050935700E49120FF03C0E295EF703F5FBC
:102F1000EF708E2F90E0EA30C0F0C7968D939D93AE
:102F20002F5F243159F74FBF8091E800877F80934E
:102F3000E8006AE270E0CE0101960E9448068091A6
:102F4000E8008B778093E8001CC1C096E7CF8091A2
:102F5000FD049091FE04432F55274330510509F499
:102F60004AC078F54130510509F485C08BE590E001
:102F7000EEE0F9E04230510509F003C12091E8008C
:102F8000277F2093E8002091FF04309100058217ED
:102F9000930708F49C0140E02115310509F070C049
:102FA00041116EC08091E80082FDC9CF8091F70485
:102FB000882329F2853019F28091E80083FFF2CF4F
:102FC000BECF4132510509F447C04232510509F0E4
:102FD000D8C08330910508F0D4C0FC01EE0FFF1F6C
:102FE000E557FE4F0190F081E02D88579E4FDC01A0
:102FF0008C9190E01DC0332721303105E9F0211577
:10300000310579F022303105F9F02330310509F02E
:10301000B8C0EBE7F9E0E4918E2F90E0EBE7F9E040
:1030200007C0EBECF9E0E4918E2F90E0EBECF9E0D7
:10303000009709F4A6C0A2CFEDEAF9E0E4918E2F43
:1030400090E0EDEAF9E0F4CFE9E9F9E0E4918E2FC0
:1030500090E0E9E9F9E0ECCF8330910508F091C008
:10306000880F991FFC01EF56FE4F0190F081E02D73
:1030700089E090E083CF82E190E0E9E6F9E07ECF5D
:103080008091F704882309F45ACF853009F457CF8B
:103090008091E80083FD53CF8091E80082FD82CFCC
:1030A0008091E80080FF78CF9091F3008091F2004A
:1030B0002115310519F08830910550F041E008974D
:1030C00009F040E08091E8008E778093E80064CFBB
:1030D00044914093F1003196215031090196E8CF97
:1030E000803809F04EC08091E800877F8093E80027
:1030F0008091F8048093F10092CE811142C010912A
:10310000FB041230F0F58091E800877F8093E8009F
:103110001093F8040E949C05112311F084E005C06F
:103120008091E30087FDFACF81E08093F70442E0CD
:1031300061EC81E00E94BB0542E261EC84E00E9408
:10314000BB0542E261EC82E00E94BB0542E260EC1A
:1031500083E00E94BB058091F70413C08091FB04BB
:10316000813079F481E0933009F080E08093F604B7
:103170001092E9008091E800877F8093E8000E9428
:103180009C058091E80083FF0AC08091E800877F5A
:103190008093E8008091EB0080628093EB00AA9618
:1031A000E3E00C94923AEBE5F4E0128E138E8FEA92
:1031B00090E09183808325E0248F88E893E19383D6
:1031C00082838AE090E09583848344E150E05783D2
:1031D000468368E070E071876087938782874EE15D
:1031E00050E0558744879787868740E550E0518BAC
:1031F000408B738B628B68E270E0758B648B62E34B
:1032000070E0778B668B68EC70E0718F608F158E45
:10321000978F868F51A340A322A30E94AB100E94D8
:10322000FE1510927A0310927903EAE7F3E08081A9
:10323000846080838091790390917A030E94321197
:103240000E94800F0895AEE1B0E0E9E2F9E10C944C
:103250006C3AA0901A01B0901B0181E090E090932D
:103260001B0180931A018AEBC82E85E0D82E00E05E
:10327000760110E015C0F40125913491472D612F9E
:10328000802F0E94F31082E0880E911C7394ECE072
:103290007E12F1CFF8E1EF0EF11C1F5F153019F02F
:1032A0004701712CE8CF0F5F88E7C80ED11C0530AD
:1032B000F9F60E94D3181A8219821C821B821E8280
:1032C0001D8218861F8288EC90E09A8789874AE0E1
:1032D00050E063EA72E0CE0101960E94193B4AE099
:1032E00050E06DEA72E0CE0101960E94193B4AE07F
:1032F00050E067EB72E0CE0101960E94193B4AE074
:1033000050E061EC72E0CE0101960E94193B7E0113
:10331000EBE0EE0EF11C8AE0F70111928A95E9F7D5
:103320000BEC12E04AE050E0B801C7010E94193BE3
:10333000065F1F4F0B31F3E01F07A1F77E0185E108
:10334000E80EF11C8AE0F70111928A95E9F78FEFF8
:103350009FEF9A8F898F87E08E8F4AE050E0B80107
:10336000C7010E94193B065F1F4F0B36F3E01F0792
:10337000A1F7B0921B01A0921A016E96EDE00C9499
:10338000883A80E00E94191160E086E290E00E9495
:10339000F53A0E9423190E94E31081E00E9419115E
:1033A0000895CF92DF92EF92FF928FEF9FEF44301C
:1033B000510508F46AC0FB01C080D180E280F3802F
:1033C0000E94FE1580917903C0FA80F9B701A60129
:1033D000769567955795479540FB81F9B701A6010A
:1033E00022E076956795579547952A95D1F740FB4A
:1033F00082F9B701A60133E0769567955795479511
:103400003A95D1F740FB83F9B701A601E4E0769540
:10341000679557954795EA95D1F740FB84F9B70131
:10342000A601F5E07695679557954795FA95D1F7FA
:1034300040FB85F9B701A601A6E0769567955795FB
:103440004795AA95D1F740FB86F9B701A601B7E0E9
:103450007695679557954795BA95D1F740FB87F9CB
:103460008093790380917A03D0FA80F9D1FACC2441
:10347000C0F8C0FA81F980937A0380917903909122
:103480007A030E94321190E080E0FF90EF90DF908D
:10349000CF9008950E94FE152FEF84E39CE0215009
:1034A00080409040E1F700C0000088E19CE00FB64A
:1034B000F894A895809360000FBE90936000FFCFB2
:1034C000882321F00E94ED0C0E9491140895882316
:1034D00039F090910205982B909302050E94911467
:1034E0000895882321F00E94F40C0E9491140895FD
:1034F000882321F00E94FB0C0E94911408958823D8
:1035000079F19CEF980F913A28F40E94220D0E94C5
:103510009114089590E2980F983050F4877091E0DC
:1035200001C0990F8A95EAF7892F0E94F40CEFCF1A
:103530009BE5980F933028F490E080E00E9401070B
:10354000089598E5980F973128F490E080E00E9464
:10355000EB060895803F20F00E9467090E94400911
:103560000895FF920F931F93CF93DF93F82E00914E
:10357000590410915A040115110509F449C010921B
:103580005804109257041092540410925504D80114
:103590001696CD91DC919E013A9521153F4108F494
:1035A000D07ED1E0C11101C0D0E0D8011996ED91D3
:1035B000FC911A97309731F01B966D917C9180E0C9
:1035C0000995D823DD2339F08CEF8C0F813A30F543
:1035D0008C2F0E94220DFF2099F0E0915904F09168
:1035E0005A04808584FD0CC080915604882341F0E4
:1035F000808191819C01215031092C3A3D45A0F0F8
:103600000E94911410925A04109259041092560478
:10361000C801CDB7DEB7E5E00C94903A0E94911452
:103620008C2F0E947F1AD7CF0E942407E9CFCF9317
:10363000DF93EC010E947F1ACE010E94F60D9E01DD
:10364000205E31092830310510F0CD2B29F40E947D
:10365000711ADF91CF9108950E94601AFACFCF932B
:10366000C82F8823A1F08CEF8C0F813A90F4ECE9FD
:10367000F1E08191C817E1F181E0E23AF807C9F77A
:103680006C2F8AE991E00E94D1060E949114CF919B
:10369000089580E28C0F883048F4C77081E001C043
:1036A000880FCA95EAF70E94FB0CEFCFEBE5EC0F11
:1036B000E33040F4F0E0EF5CFE4F808190E00E9448
:1036C0000107E5CFE8E5EC0FE73150F4F0E0EE0F4D
:1036D000FF1FEC5CFE4F808191810E94EB06D7CFEB
:1036E000C03FA8F28C2F0E94820A0E944009CFCFCF
:1036F0008C2F0E94220D0E949114C2CF1F93CF9352
:10370000DF93182FC0917B04D0917C04893321F082
:10371000C0917904D0917A04812F0E942F1B2097A9
:1037200039F4812F0E947F1ADF91CF911F91089564
:103730008FE99FE00197F1F700C000002197EFCFDC
:103740000F931F93CF93DF93C42FD22FFC0182815D
:103750008823A9F0409381040E94C50690938004B9
:1037600080937F04C77081E001C0880FCA95EAF793
:103770000E94781ADF91CF911F910F9108951091B7
:103780008104141336C080917F04909180040E94BC
:10379000AA0620917304309174048217930748F5A8
:1037A000C0E2CD0F1D17B9F080E2810F883040F4E0
:1037B000177081E001C0880F1A95EAF70E94711A0C
:1037C000C83048F481E09D2F977001C0880F9A950A
:1037D000EAF70E94781A802F0E947E1BC83050F6AC
:1037E000D77081E001C0880FDA95EAF70E94711A5C
:1037F000C1CFC77081E001C0880FCA95EAF7F6CF44
:10380000B0E0A0E0E6E0FCE10C94723AE82FF0E0D2
:10381000E154FE4FD490282F26952695269530E02A
:10382000F901E155FE4F0491877010E0082E02C0A7
:10383000159507950A94E2F701701127F901E156F1
:10384000FE4FE490F12C082E02C0F594E7940A9400
:10385000E2F791E0E922FF24F901E157FE4FC4911C
:10386000D0E002C0D595C7958A95E2F7C170DD27F3
:103870000115110519F081EE0E942F1BE114F104CE
:1038800019F086EE0E942F1B8D2D0E947E1BE114E5
:10389000F10419F086EE0E947F1A0115110519F046
:1038A00081EE0E947F1ACD2B19F08CE20E947E1BC4
:1038B000CDB7DEB7E7E00C948E3A1F93CF93DF933A
:1038C000EC011AE08881882309F43EC08130C9F5F3
:1038D00099818A81913029F422960E947E1B21963B
:1038E000F1CF923021F422960E942F1BF8CF933013
:1038F00021F422960E947F1AF2CF943011F0219683
:10390000EECF229630E020E0AE014F5F5F4F805354
:10391000990B8A30910550F02150310900F38FE95D
:103920009FE00197F1F700C00000F6CF129FB001B1
:10393000139F700D11249C01260F371F8981EA0106
:10394000E3CF0E94001CCBCFDF91CF911F91089550
:10395000CF93DF93EC010E94F60D9E01205E3109AA
:103960002830310510F0209741F40E94781A8C2FEE
:103970000E942F1BDF91CF9108950E94671AF7CF05
:10398000662329F0209102052260209302059C0104
:103990003056211540E2340720F0305E21153041C9
:1039A00008F499270E94A81C0895B0E0A0E0EBED70
:1039B000FCE10C94723A7C018B01D42E809126019B
:1039C00082FF8CC0C0919E03D0919F03CE15DF056E
:1039D00021F0E114F10409F081C0809126018B7F70
:1039E0008093260181FD73C080919C0390919D037B
:1039F000A801481B590B81E0209124013091250139
:103A00004217530708F480E08170F82E8091260158
:103A1000F0FA81F980932601FE0183E0F695E7959F
:103A20008A95E1F7EE71FF27E458FC4F2081318140
:103A3000AE014F70552781E090E002C0880F991FBA
:103A40004A95E2F7FF2009F444C0822B932B91831F
:103A5000808380917B0381FF08C080912601806173
:103A60008093260182E00E94F40C80917B0385FF05
:103A700008C08091260180628093260180E20E9426
:103A8000F40C6F2DCE010E94C01CDD2031F080911E
:103A9000760485FF02C086FF3BC080917904909137
:103AA0007A040E94E30E80919E0390919F039C01F3
:103AB0003056211540E2340720F0305E21153041A8
:103AC00008F499270E94171B0E944A151DC081E027
:103AD0009BCF8095909582239323B9CFC7019927D7
:103AE00097013056211540E2340728F0305E211549
:103AF000304108F0C7010E94171B80919E039091EE
:103B00009F038E159F0501F310939D0300939C0363
:103B1000CDB7DEB7E7E00C948E3A68EE7EEF90E02A
:103B200080E00E94133B60E082E090E00E94F53A62
:103B300060E083E090E00E94F53A10921B0260E0A2
:103B400084E090E00E94F53A64E082E290E00E9416
:103B5000F53A60E085E090E00E94F53A60E086E0AA
:103B600090E00E94F53A6FEF87E090E00E94F53A0E
:103B700040E050E0BA0188E090E00E94073B60E03E
:103B80008DE090E00E94F53A40E050E0BA0188E113
:103B900090E00E94073B60E087E190E00E94F53AE8
:103BA00040E050E0BA018CE190E00E94073B70E0F9
:103BB00060E080E290E00E94133B40E050E0BA01F8
:103BC00088E190E00E94073B80E00E9419110E946A
:103BD000C11940E050E0BA018FE090E00E94073B3D
:103BE00040E050E0BA0183E190E00E94073B089575
:103BF000A7E0B0E0EEEFFDE10C94673A7C01DC0158
:103C000013964D915C91149711966C9111978C912C
:103C10000E94950781116CC161E0C7010E9460108C
:103C20008C01F7018281811161C0D70112968C91BC
:103C300081119BC000313FE5130709F45DC10131DB
:103C40004FE5140709F45CC16801E7E5DE1AFFEFF0
:103C5000CF16D10409F060F560E972E08C2D0E9466
:103C60004011892B29F586E18C9DF0018D9DF00D89
:103C70001124EC57FB4F8681813009F043C18091BC
:103C8000900290919102892B99F0809192029091EB
:103C90009302892B69F08091940290919502209172
:103CA000960230919702822B932B892B09F434C111
:103CB000F7015280552009F441C10F35FDE51F077A
:103CC00009F438C100362DE5120751F00E353DE5F7
:103CD000130709F033C180910001882309F42AC138
:103CE0001092000180E00E94B11AF2C080910D0193
:103CF00090910E01019609F498CFA4E8CA2EA4E091
:103D0000DA2EB12CA12C9924939480910D019091DD
:103D10000E018A159B050CF488CFF6018681882355
:103D2000E9F0818592850817190739F4809182049A
:103D3000909183040817190789F0D6011F969C9269
:103D40001F971C961C930E931B97C6010E942B1560
:103D5000C60106960E94E81410920205BFEFAB1A46
:103D6000BB0AE6E1CE0ED11CD0CFC80182519F45DF
:103D7000409710F00C9464288FEF93E00E94E13A92
:103D80008111A6C0FEEEDF2ED00E0BE613E0D1109F
:103D900036C019821A821B821C8299249A94680167
:103DA0002FEFC21AD20AC8010E94E13A89831A820F
:103DB000882309F48DC0813009F07FC0580132E0BA
:103DC000A30EB11CC6010E94E13AC82E8A83882343
:103DD00009F47EC0C5010E94E13AD82E8FEF8C0D08
:103DE0008330D8F4580143E0A40EB11CDB82DD20FF
:103DF00021F0CE0101960E945D1C8501D0CF0115F6
:103E0000F4E01F0709F464C0C8010E94E13A81117F
:103E100001C0DA940F5F1F4FBACF8BEF8C0D833048
:103E200030F5C8010396DB825C01DD2031F35801D7
:103E300054E0A50EB11C0E94E13A8C838823E9F27C
:103E40008B819C818130AFEF9A0710F0982F8827E3
:103E5000B6E0CB1631F0E7E0CE1631F00E94BF2F6E
:103E6000CCCF0E94992FC9CF0E94202FC6CFF4E05B
:103E7000CF12C3CF580124E0A20EB11CC801039693
:103E80000E94E13ADD2021F1882311F18150990B44
:103E9000989E9001999E300D11244D2D4150550B47
:103EA000CA01820F931F019708F4A7CFAFE9BFE0C3
:103EB0001197F1F700C00000F6CFCE0101960E94E5
:103EC0005D1C56019ACF81E00E94D6150E948C1588
:103ED00080910F02877061F0D70112968C91882330
:103EE00039F080917A0382FF03C082E00E94A51519
:103EF0002796E2E10C94833A81E00E949815E6CF80
:103F000082E0FBCF823009F0D3CE80919402909171
:103F10009502892B09F4CCCE26E12C9DC0012D9D64
:103F2000900D11248C579B4FDC0150961C920E94DF
:103F30002B15BECE81E080930001CACF8091000195
:103F4000882309F4D5C7480140EE841A91084090AF
:103F50001A028091A801482A80917B03482A58E0E0
:103F60008516910408F08BC098012770332781E0F3
:103F700090E001C0880F2A95EAF7552009F47CC02B
:103F8000482AD7018D919C910E94590D21E030E083
:103F9000390102C0660C771C8A95E2F7E09159045A
:103FA000F0915A04FF83EE832090A2013090A30188
:103FB0001D822D81E22FF0E0EE0FFF1FE551FD4F36
:103FC000C080D180C114D10411F40C944F28411049
:103FD00005C0D60112968C9181118FC0F6018381A4
:103FE00090E086219721892B09F487C08085982F3E
:103FF000977009F487E0F8E08F16910408F05AC032
:10400000552009F453C086958170882309F475C042
:10401000D601AD90BC900A151B0519F4552009F482
:104020006CC0EE81FF81CE16DF0609F466C0D601B2
:104030001D96ED91FC91309721F08081882309F441
:104040005CC0642DC6010E947507882309F455C021
:104050000A151B0511F00C94D0280115110511F457
:104060000C94D62851100C94D828A214B30409F04B
:1040700044C0512C0C94D8288095482282CF5520DA
:1040800011F40C9438281093A3010093A2010E940C
:10409000B906609350047093510480935204909336
:1040A000530410925804109257046BCF82FB882758
:1040B00080F9ABCF552009F18170A7CF0E947F1AFC
:1040C0000C94F7280497813A910558F46A2D8AE9EF
:1040D00091E00E94D106552009F40AC70E9491146C
:1040E000F7CE0E9491148FE39CE90197F1F700C08D
:1040F00000008A2D0E942F1BEECF9D819F5F9D8324
:1041000058CFFC01208131810217130709F0E9C65D
:104110005110E9C61092560480E0D3C7882309F4F1
:1041200036C7FA018189882309F431C7C50186574A
:104130009B4F0E94E8142BC717FF3EC7882309F442
:104140003BC70E941707869581708093A6010E9445
:10415000170781708093A50180912902813039F47D
:104160008091A601882319F089E30E947E1B80912B
:104170007B038093A40110927B031092020580912F
:104180002902813009F44EC0882309F447C08230E7
:1041900009F451C0843009F462C08FE39CE90197AF
:1041A000F1F700C000005801E894B7F85CE0C52EB4
:1041B000D12C6AE0862E912CC5010C2C02C096955C
:1041C00087950A94E2F78F7090912902923009F056
:1041D0004DC08A3008F048C090E00996B4010E94B2
:1041E000463A875A0E947E1B94E0C91AD108ACEF68
:1041F000CA16AFEFDA0601F780912902813009F47F
:1042000043C08823E9F1823009F44AC0843009F4BC
:1042100050C08091A40180937B03CEC682EE0E94A1
:104220002F1BBBCF88E193E00E94A81C88E193E09C
:104230000E94171BB2CF8091A501811103C083E5B5
:104240000E947E1B82EE0E942F1BEFE3FCE9319758
:10425000F1F700C0000087E50E947E1B9ECF86EE2E
:104260000E947E1B88E1F8CF8650BCCF96EF980F56
:10427000963020F0805D0E94001CB6CF895AFBCF9B
:1042800082EE0E947F1AC5CF8CE20E947E1B809135
:10429000A601882309F4BDCF89E30E947E1BB9CF14
:1042A00082EE0E947F1A8091A5018111B2CF83E531
:1042B000F4CF88E2F2CF80912601816080932601BD
:1042C000A8C6809126018E7F809326010E944A1500
:1042D000A0C6809126018F7E013E110531F0053E7A
:1042E0001105C1F4809126018F7D80932601809174
:1042F000260180FF9DC6F70182810832110528F54D
:104300000E31110508F074C00430110580F58111DB
:104310008BC68EC6C80190568115A0E29A0720F080
:10432000905E8115904118F78091260182FF80C62A
:104330008091780481FD7CC629E332E040E0B6013B
:1043400090E080E00E94D51C73C60933110558F433
:104350000D32110518F40B321105C9F6909176044F
:1043600092FDD5CF08C004361105C1F3D0CF90918E
:10437000760494FDCCCF882309F4A1C090917B03EF
:1043800080911A02282F292B322F3D7FB1F11092F4
:104390009F0310929E033091760431FD2EC0F801E8
:1043A00043E0F695E7954A95E1F7EE71FF27E4586B
:1043B000FC4F98012F70332781E090E002C0880FF6
:1043C000991F2A95E2F7809590952081318182236B
:1043D00093239183808360E0C8010E94C01C809178
:1043E0001A028D7F0E94D90C82E00E94A51570CD23
:1043F0009091760493FD8BCFBECF38E0F701A9E30F
:10440000B2E001900D923A95E1F710923B021092C2
:104410003D0210923C02A0909E03B0909F030A15AB
:104420001B05B1F53091760435FF32C0409126016D
:1044300041FB992490F841FF02C036FF29C040910A
:104440009C0350919D03B601641B750B409173044E
:104450005091740464177507D8F491FF08C08091D7
:10446000260180618093260182E00E94F40C8091F5
:104470007B0385FF08C0809126018062809326011E
:1044800080E20E94F40C692DC5010E94C01C20CD61
:104490009091260121FB91F9909326018D7F0E9436
:1044A000D90C10939F0300939E03D0929D03C0925A
:1044B0009C038091260184608093260195CF97010B
:1044C00040E0B601C8010E94D51C02CD053F8CE535
:1044D000180709F462C008F45AC0063FACE51A0791
:1044E00009F461C0F7013281332309F4FCC510924D
:1044F00081040330FDE51F0708F061C00A3F2CE589
:10450000120730F4C80182509C45449708F061C0FE
:104510000E94871090937A038093790301318CE590
:10452000180709F44CC108F0C6C00930ACE51A07F9
:1045300009F437C108F08EC00530ECE51E0709F418
:1045400024C108F079C003302CE5120709F413C127
:1045500008F017C180917903816002304CE514079F
:1045600009F40CC18091790390917A030E94321171
:104570000E94FE15ADCC07E225EE45EE68ED7CE528
:1045800072C506E221EE40EE63EF7CE56CC507E202
:1045900025EE44EE64EF7CE566C506E221EE42EED0
:1045A00065EF7CE560C507E225EE46EE66EF7CE54B
:1045B0005AC508E221E045EE69ED7CE554C50136B7
:1045C0004DE5140709F4A4CF053A5DE5150709F494
:1045D0009FCF0631BCE51B0709F0D0C180917B035A
:1045E000982F9A7A2091750420FF04C0482F4474B4
:1045F00009F090E021FF04C0482F417109F090E0DC
:1046000022FF04C0482F487809F090E023FF03C040
:10461000827209F090E0332309F4FBC081E091112C
:1046200001C080E08093A70169E2911165E38AE906
:1046300091E00E94D10652CD8091790380620730CB
:104640005CE5150709F49AC008F4A7C080917903C6
:10465000806494C0809179038B7F0D309CE51907AD
:1046600009F48CC0A0F4809179038E7F0B30BCE5F7
:104670001B0709F483C0809179038C600C30ECE552
:104680001E0708F47BC0809179038D7F77C08091ED
:1046900079038F7E0F30FCE51F0709F46FC080910E
:1046A0007903877F00312CE5120708F467C08091F9
:1046B00079038F7D63C00D3F3CE5130709F47BC090
:1046C00058F505315CE5150709F483C098F480912D
:1046D0007903837F03319CE5190709F44FC008F47F
:1046E00072C00E94FE1590917903892F97FB87F97C
:1046F000805844C00B3FBCE51B0709F44AC008F0D2
:1047000056C080917A0381600A3FFCE51F0709F0DB
:1047100029CF80937A0326CF01302DE5120709F4C3
:1047200064C0C0F480917A038C7F0F3F4CE514077E
:1047300081F380917A03836001155DE5150748F3E5
:1047400080917A03982F909591708E7F892B90FBA2
:1047500081F9DFCF01368DE5180709F44CC0053A21
:104760009DE5190709F44EC00230ADE51A0709F0BE
:10477000F9CE60E03BC08091790382608093790339
:10478000F1CE809179038460F9CF809179038860BC
:10479000F5CF80917A038260BCCF809179038061EC
:1047A000EDCF0E94FE15809179038068E7CF80915C
:1047B0007A038E7FAECF80917A038D7FAACF8091CE
:1047C00079038F7BDBCF0E94FE15809179038F7771
:1047D000D5CF8091790382FB992790F921E0922728
:1047E00090FB82F990FB83F9C9CF61E08EE090E005
:1047F0000E94F53AB7CE90917903892F8F7E94FF6E
:104800008061BCCF90917903892F8E7F90FF81606A
:10481000B5CF8091A701811104C089E20E94220DC9
:104820005DCC85E3FBCF043C9CE5190709F47AC015
:1048300048E153E162E273E1053CACE51A0709F097
:1048400074C40E94940844CB083CBCE51B0709F4DF
:1048500078C008F471C0093CFCE51F0709F476C074
:1048600041EF52E164EE72E10A3C2CE5120749F394
:104870005CC4003D3CE5130709F47AC0B0F40D3C7C
:104880005CE5150709F471C008F46AC00E3CACE59C
:104890001A0709F41DCB64E082E00F3CBCE51B075E
:1048A00009F043C40E94A71313CB043DECE51E0797
:1048B00009F461C008F40CCB053D2CE5120709F49E
:1048C00007CB0D35100709F403CB2FC48091870265
:1048D00080FF1BC08E7F809387026091870270915A
:1048E00088028091890290918A020E945D12109242
:1048F00062024FEF50E782E0415050408040E1F7C4
:1049000000C000000E94ED0EE3CA81608093870220
:1049100061E086950E945013DBCA42E953E16CE9DD
:1049200073E18FCF4CE953E162E973E18ACF42E250
:1049300053E168E173E185CF4EEF52E16BE073E143
:1049400080CF4BE053E16EEF72E17BCF44EE52E15A
:1049500061EF72E176CF4CE253E16EE373E171CF28
:104960004EE353E16CE273E16CCF61E081E0D2CFC2
:104970006AE085E097CF64E18BE094CF0A359DE54E
:10498000190771F158F40115BCE51B0791F00E3DB4
:104990001C4509F0CAC30E948D1D09C00C35FDE5F8
:1049A0001F07A1F0F8F0073A1D4509F0BEC30E94A9
:1049B0004A1A0E94FE154FEF54E38CE041505040DC
:1049C0008040E1F700C000000E94BF0E80917A0392
:1049D00082FB882780F991E089270E94C115A5C331
:1049E00081E0FBCF80E0F9CF8281008111818823B3
:1049F00069F0C8010E94F20FD82E682FC8010E94EA
:104A00008D0DB8018D2D0E94D50F95C3C8010E9450
:104A1000590DD82EF6CF202F2F70B22E802F807FE9
:104A200019F0B29490EFB922DD20A9F0BB2059F023
:104A300080E2810F883010F0111107C08B2D0E9489
:104A4000FB0C0E949114812F5AC080910205B82A54
:104A5000B0920205F6CF812F0E947F1ABB2009F485
:104A600050C080E2810F883010F0111104C08B2DEE
:104A70000E94F40C03C08B2D0E94ED0C0E94911437
:104A800040C0302F3F70B32E802F807F803219F0CE
:104A9000B29480EFB822112321F1113009F4B0C093
:104AA000DD2009F4B9C0CC2009F481C020E0D70191
:104AB0004C9111965C91119712966C9112971396E6
:104AC0007C91139714968C910E943D1080917804EC
:104AD00081FDB9CFF701858180FFB5CF8F708583C8
:104AE00066C080917A0382FD42C0DD20D1F1BB20F7
:104AF00029F08B2D0E94FB0C0E94911480E00E94F3
:104B00002F1BA92DA850BB0B149720F40E94170748
:104B10000E94DF0D812F902F0E94C40D8111C2C110
:104B20001092AA011092A901AA20B1F080910F025F
:104B300080FD12C0D70112961C92859585958595AA
:104B40000E94D615C7010E94F81D80910F0285951D
:104B5000859585950E94981560E0C7010E946010B8
:104B6000C7C980E00E947F1ABB2059F280CFDD20A8
:104B700011F1C11004C080911A028B2919C041E0C3
:104B8000C41206C080911A028B290E94D90CB9CF99
:104B900080917704823078F3C812EDCF0E94CE0C5A
:104BA0009091A8018B2D892B89138093A8018B2DBF
:104BB0000E94781AA6CFC11003C00E94CE0C17C065
:104BC0008091770451E0C51216C0823008F499CF65
:104BD00080917B038B2109F494CF0E94CE0C90919D
:104BE000A8018B2D8095892389138093A8018B2D93
:104BF0000E94711A86CF823000F3C812DECF81CFB7
:104C000080917D04DD2021F08C1508F47ACFCFCF80
:104C1000C81608F076CFEBCFCC2049F380917B0407
:104C200090917C04193321F08091790490917A0459
:104C30000E94E30E812F0E947F1A63CF802F8695FA
:104C40008695837069F0813009F05BCF812F902FBA
:104C50009370D11002C090E080E00E94EB0651CF2B
:104C6000812F902F9370D11002C090E080E00E94BD
:104C7000010747CF812FDD2029F00E94820A0E9480
:104C800040093FCF0E946709FACF802F837091F5CA
:104C9000D11037CF412F429546954770440F440FAE
:104CA000812F8F70042E01C0880F0A94EAF7212FFC
:104CB000207114FF07C02FE030E001C0220F4A9599
:104CC000EAF72095302F369536953370323069F0FB
:104CD00050F440911B02313029F0822B84230E9432
:104CE000F9150FCF842B822BFACF282B80911B0232
:104CF0008227F5CF8695DD2011F0802F81708823E3
:104D000009F4FFCE412F429546954770440F440F5A
:104D1000812F8F70042E01C0880F0A94EAF7212F8B
:104D2000207114FF07C02FE030E001C0220F4A9528
:104D3000EAF72095302F369536953370323069F08A
:104D400050F440910105313029F0822B84230E94D8
:104D50008515D7CE842B822BFACF282B8091010585
:104D60008227F5CFF02FFF70BF2EDD2029F08F2F87
:104D70000E94D615812F1CCF812F0E94711A8B2D76
:104D80000E949815BECE123F89F160F4103FB9F031
:104D9000113F81F0DD2009F480C0C11054CE802F76
:104DA0008F7128C0133F49F1143FA1F780917A0316
:104DB00082FD2FC0802F8F71DD2011F31BC08091E9
:104DC0007D04DD2079F0C81608F09BCE202F2F71CE
:104DD00081E090E001C0880F2A95EAF790910105E3
:104DE0008927B5CF8C1508F48CCEF0CF802F8F712A
:104DF000D110C6CF0E94D61584CE80E0DD2009F404
:104E0000A6CF81E0902F9F7101C0880F9A95EAF795
:104E10009ECF80917704823040F1DD20D1F09091D7
:104E20000F029770943041F40E94010D802F8F7112
:104E30000E949815A12C65CEC816E0F7202F2F717F
:104E4000B22E822F0E94D61563E08B2D0E94E215B0
:104E5000F1CFC81630F00E94010D64E0802F8F71F1
:104E6000F5CF81E00E94A515E5CFDD2059F0302F68
:104E70003F71B32E832F0E94D61563E08B2D0E94C5
:104E8000E2153FCE81E00E94A51541E04C1508F0E7
:104E900038CE82E00E94A51534CEC110BFCE802F3F
:104EA0008F716ECFDD2019F0C1103ACE3DCEC1100A
:104EB00037CE20E0F7014081518162817381848186
:104EC0000E943D108091780483FF2ACE8091A90131
:104ED0009091AA01029709F023CE812F0E947E1B98
:104EE0001FCE552029F0DC0118968C9185FF14C93E
:104EF000C80197558F3F910511F008F048C02091E7
:104F00000D0130910E012817390724F490930E01FA
:104F100080930D01F701228136E1389F5001399FBE
:104F2000B00C1124A5014C575B4F6A01DA01509671
:104F30002C935097928116968C911697992309F489
:104F4000EDC81A961C930E9319978F5F16968C9343
:104F50000E94C506F6019687858780911A0287838D
:104F60008091020590917B03892B80870190F081CD
:104F7000E02D309741F0D60154966D917C91C5019A
:104F800086579B4F09951093830400938204D701A1
:104F900012968C91882309F4CFC89801215E3C4574
:104FA0002530310508F0C8C86FE1600F6093290211
:104FB0008CE090E00E94F53A8091760480FF38C042
:104FC0000E94C5066C01F7018281882309F481C91A
:104FD0008091260182FF08C029E332E040E0B6015B
:104FE00090E080E00E94D51C0B31FCE51F0709F41E
:104FF00062C90C312CE5120709F463C990912601AE
:10500000892F8E7F90FF81600A313CE5130709F4F8
:105010005BC9C8019056811540E2940728F0905E64
:105020008115904108F063C910929F0310929E036E
:10503000033FFCE51F0709F4A4CA08F047CA083D6E
:105040003CE5130709F497CA093D4CE5140709F438
:10505000B0CA073D5CE5150709F044CA06E221EE37
:1050600041EE67ED7CE5C7010E94A01B0C94681F10
:105070008091A2019091A3010817190781F4109261
:10508000A3011092A20110925004109251041092A8
:1050900052041092530410925804109257048091B5
:1050A000590490915A04009709F422CFA8E08A1677
:1050B000910408F026C8642D0E947507811118CF4D
:1050C00081E00E94B11A14CF0031FFE51F0711F4EF
:1050D0000C94631F01312FE5120711F00C94581E38
:1050E00082E00C94641F06315CE5150709F476CA6A
:1050F00080917B0382720B3CECE51E0709F42BCCFC
:1051000008F0B7CB063C2CE5120709F410CC08F0E8
:105110009BCB033C4CE5140709F4FFCB08F083CB91
:10512000023C8CE5180709F4D1CBF7018681978101
:10513000009709F459CC0E94460B182F092FF7014C
:10514000D280C580C2943FE0C32280910F02877055
:10515000C1F0AD2CDD20B1F0892F807F803421F0AB
:1051600080E2810F883068F080917A0382FF09C065
:1051700082E00E94A51580910F028770AA24A39453
:105180008111A12C902E92942FE09222FBE0F91530
:1051900008F4B7CCE92DF0E0E35CF44C0C945A3AF7
:1051A000A114B10411F00C943520512CB12CA12C78
:1051B00080E00E94B11AD0925A04C092590481E052
:1051C00080935604F60185818093540451100FC0DA
:1051D000AB2869F0F601808191819C01245031094E
:1051E000213A310510F00C945E200E94220DD60168
:1051F0001696AD90BC90C5019A9581159F4110F40B
:10520000E0EEBE2277247394C50101978C3A9D4548
:1052100008F0712CD6011996ED91FC911A973097F0
:1052200031F01B966D917C9181E009957822772071
:1052300081F0F601868197810E94F60D80935504D6
:10524000C501F8E08F16910410F00C9462200E94C2
:1052500024070E9491140C946B20B0E0A0E0E3E3DB
:10526000F9E20C94713A8091C801807F31F4809109
:10527000C501C0910C02811107C0CDB7DEB7E8E0CF
:105280000C948D3A2196C7708091CB018C17A9F3AD
:10529000F090C301E090C401C090C601D090C70156
:1052A000A6016E2D8F2D0E949507D0E08111EACFC7
:1052B0008E0183E0000F111F8A95E1F7F801E45396
:1052C000FE4F81818E11DECF80818F11DBCF8281F5
:1052D0008111D8CFE380F480EC18FD0860E083EC06
:1052E00091E00E9460108091730490917404E8161C
:1052F000F90640F68091C8018F7080618093C801E3
:10530000F801EF52FE4F80818F708061808383ECC3
:1053100091E00E94F81D0E944F0DAFCFA5E1B0E0D3
:10532000E4E9F9E20C94683A8C0185E0F801DE01C9
:10533000519601900D928A95E1F7D8014C90119603
:105340005C9011971296EC9012971396CD90DC908A
:1053500060E083EC91E00E94601083ECA82E81E075
:10536000B82E8090C6019090C701A4016091C4013D
:105370008091C3010E9495078111B6C1F090C501CB
:10538000F601E819F9094F0160E0FF2009F459C15D
:10539000C5010E9460106090730470907404309096
:1053A000C8018614970408F0FFC04091C6015091CF
:1053B000C701B090C301A090C401832D807F6A2DE6
:1053C00009F099C08B2D0E949507FE2C811127C0F2
:1053D000D80111968C9111978A1121C08C918B1153
:1053E0001EC02091C9013091CA0116968D919C91E1
:1053F00028173907A1F4E11012C0832D8F70806146
:105400008093C80183EC91E00E94F81D8091C8014F
:10541000F80185838F2D6596E1E10C94843AF4EFD1
:105420006F16F1E07F0620F48091780480FF21C0A0
:10543000A601652D842D0E949507811118C081E079
:105440008E2580FF16C04E2D652D842D0E942F0DB8
:10545000882379F083EC91E00E94F81D88E0E3EC6A
:10546000F1E0DF011D928A95E9F7F12CD3CF80E0BE
:10547000E8CFA601652D842D0E949507811124C0D7
:1054800081E08E25B82FB170CB2E80FF2BC04E2D22
:10549000652D842D0E942F0DD82E811123C0498A9D
:1054A0005A8A89899A890E942110292F22952F7062
:1054B000223060F0243088F49F7061F0F80195810B
:1054C000907F41F4FD2CA6CF80E0DCCF9F7011F0DF
:1054D0008823C1F3805E8830A8F3C8010E94F81DBC
:1054E000DC2CF0CFEE2009F495CF8091C8018160CB
:1054F0008093C801BACF8B2D0E949507811124C0DB
:10550000D80111968C9111978A111EC08C918B1124
:105510001BC02091C9013091CA0116968D919C91B2
:1055200017972817390781F4E1100EC015963C92A1
:10553000C8010E94F81D88E0F801A3ECB1E00190D9
:105540000D928A95E1F766CFC8010E942E1088233C
:1055500039F1EE2029F18091C8018032A0F020912C
:10556000C3013091C4013A8729871B86DD86CC862A
:105570008E878091C9019091CA01988B8F87CE0147
:1055800009960E94F81D88E0F801A3ECB1E00190B3
:105590000D928A95E1F70E942D29FF24F3943ACFCA
:1055A000C8010E94F81DF9CF832D807F09F452CFE6
:1055B0009090C3018090C4014091C6015091C701F1
:1055C000682D892D0E94950781111CC0F8018181E9
:1055D000881118C08081891115C02091C9013091AE
:1055E000CA01868197812817390761F4E1100AC042
:1055F0003582C8010E94F81D88E0D5011D928A9568
:10560000E9F708CFC8010E942E10882349F2EE2046
:1056100039F28091C801803208F4B5CF2091C301DE
:105620003091C4013A8329831B82DD82CC828E8330
:105630008091C9019091CA0198878F83CE0101960C
:10564000A0CF83EC91E00E94601080917304909150
:1056500074048816990680F6FE2CEE2009F4A0CF7B
:10566000E090C301D090C4014091C6015091C701A0
:105670006D2D8E2D0E949507811128C0F801818122
:105680008D1124C080818E1121C02091C9013091DB
:10569000CA018681978128173907C1F4809178045F
:1056A00082FD49CF9091C80190FD45CF907F09F4CC
:1056B00042CF8091C8018583903F09F439CF982F5C
:1056C000907F905F8F70892B858332CFC8010E94B5
:1056D0002E10811158CF8091C80181608093C8013C
:1056E000C8010E94F81D96CEEE2009F459CFC801DA
:1056F0000E942E10F82E882309F452CF88E0F8017A
:10570000A3ECB1E001900D928A95E1F78091C3017D
:105710009091C4010E9421100E942D297BCEA0E10E
:10572000B0E0E5E9FBE20C94773A29873A874B87AA
:105730005C876D877E878F87988BCE0109960E9444
:105740008E2981112FC088E0FE013996DE01119665
:1057500001900D928A95E1F74C855D856A85898572
:105760000E94950781111EC0A091CB01B0E0CD0130
:1057700001968770992720910C0228171906E1F0ED
:1057800093E0AA0FBB1F9A95E1F7A453BE4F98E090
:10579000FE01319601900D929A95E1F78093CB012D
:1057A0000E944F0D80910C029091CB01891312C081
:1057B0006096E2E00C94933A0E94FE151092CB01A1
:1057C00010920C0288E0E3ECF1E0DF011D928A9573
:1057D000E9F7E8CFB8E08B9FC001112484539E4FB6
:1057E0000E948E29882321F380910C0290E001967B
:1057F0008770992780930C02D5CFEF92FF920F9379
:105800001F93CF93DF938091A303882361F0C0910E
:10581000A2038CE0F82E8091A303C81748F01092E1
:10582000A3031092A203CDB7DEB7E6E00C948F3A43
:10583000EE24E394EC0EE092A2030C2F10E0CF9D37
:10584000E0011124CC55DC4F4B815C81698188815A
:105850000E94950781111DC08E819F81892B21F4A3
:1058600088859985019651F4288139814A815B8127
:105870006C817D818E819F810E948F2BF09EF00133
:10588000F19EF00D1124EC55FC4F148213821092FE
:105890000205CE2DC0CF10924704109246041092FC
:1058A000270180914504809344040E94CE070E9402
:1058B000FD2B0895B0E0A0E0E0E6FCE20C94683A2D
:1058C000C091440497E0892E01E010E02CE0322ED4
:1058D0003EEF932E44244394809145048C1309C0D9
:1058E0000E94FD2B0E94CE07CDB7DEB7E1E10C94FC
:1058F000843AD0E0FE01EE0FFF1FE45CFB4F808195
:105900009181889ED001899EB00D1124AC5FBB4F60
:1059100014962C911497211158C05090A303E4EAD7
:10592000F3E030E020E0712C5D01251508F04BC05C
:10593000E284F384D501CD90DC906FEF7FEF612C92
:10594000462D50E0DA01AA0FBB1FAC0DBD1D0D9016
:10595000BC91A02D109731F0EA16FB0609F4BA01AC
:105960006394EECF6F3F7607A9F1D80102C0AA0F6A
:10597000BB1F6A95E2F77A2AB801062C02C0660FAF
:10598000771F0A94E2F7AB014150510974161506CE
:10599000F9F4329EF001339EF00D1124EC55FC4FCA
:1059A000889ED001899EB00D1124AC5FBB4F12962A
:1059B0002D913C9113973783268390829182918712
:1059C000808715964C920E94A0072196C37084CFC1
:1059D000148213822F5F3F4F3C96A7CFA9E1B0E01E
:1059E000E4EFFCE20C94673A942F498B252F5A8BF5
:1059F0006B8B7C8B8D8B4C895D89622F892F0E94EC
:105A00009507811109C08091A9019091AA01019681
:105A10009093AA018093A9018B89811110920205AC
:105A20001D861E861F86188A85E0FE017196DE019E
:105A3000199601900D928A95E1F780917A0382FF81
:105A40001EC080915D0490915E04892BC1F00E947C
:105A5000C50620910D0230910E02821B930B2091FE
:105A60005D0430915E048217930720F080910F024D
:105A700082FFE2C10E94080D81110E94CE0C4C856C
:105A80005D856A8589850E949507811111C061E055
:105A9000CE0109960E9460106C018B8527EFC2161B
:105AA0002CE5D20681F4882321F181E0809327013F
:105AB00029853A854B855C856D857E858F8598899E
:105AC0000E948F2BC6C038EFC3163CE5D30629F4DD
:105AD000882379F00E944B2CEBCF49EFC4164CE59C
