:100000000C94F4020C942C030C942C030C942C03ED
:100010000C942C030C942C030C942C030C942C03A4
:100020000C942C030C942C030C9478270C943427F8
:100030000C9475280C942C030C942C030C942C0316
:100040000C942C030C942C030C942C030C942C0374
:100050000C942C030C9451280C942C030C942C031A
:100060000C942C030C942C030C942C030C942C0354
:100070000C942C030C942C030C942C030C942C0344
:100080000C942C030C942C030C942C030C942C0334
:100090000C942C030C942C030C942C030C942C0324
:1000A0000C942C030C942C030C942C0305010902D2
:1000B000A10185020901A100050919012905150001
:1000C00025019505750181029501750381010501E1
:1000D000093009311581257F950275088106093897
:1000E0001581257F950175088106050C0A380215D2
:1000F00081257F950175088106C0C005010980A191
:1001000001850319012AB700150126B7009501756D
:10011000108100C0050C0901A101850419012AA064
:1001200002150126A002950175108100C00660FF2E
:100130000961A1010962150026FF0095207508815B
:10014000020963150026FF00952075089102C0057D
:10015000010906A101050719E029E7150025019508
:1001600008750181029501750881010507190029AB
:10017000FF150026FF009506750881000508190186
:100180002905950575019102950175039101C0003E
:10019000000000000000000000000000000000005F
:1001A000000000000000000000000000000000004F
:1001B0000000007E0F00D4FFFFFFC70000007800A2
:1001C000000000000000002A2B28000000000000B2
:1001D0000000000000000000000029000000002CCA
:1001E0001E3420212224342627252E362D37382769
:1001F0001E1F202122232425263333362E37381F75
:100200000405060708090A0B0C0D0E0F1011121336
:100210001415161718191A1B1C1D2F3130232D35D4
:100220000405060708090A0B0C0D0E0F1011121316
:100230001415161718191A1B1C1D2F3130354CFDBB
:10024000377A585A000004E6D6B446020021011657
:10025000000000742FE5A3E0020A00DC5D003D8889
:1002600089C65436C3174FE4E46A528568AEBFA30B
:100270000A2D7CFAACAF0BA49BEFCD83C3B3C84D62
:10028000EB360A81A91527CDA3F3CFF360EB84C524
:10029000A2E94E8B7A44597A9868D8E5792EA7B4AA
:1002A0006C7BB33A505812BFDA1C74E77937FBCC39
:1002B000CFC87749A0A83B2AAF9353108044D6D427
:1002C0009BFE5003110A79DD399D2C86C102642101
:1002D000C331821C39393418D84C6A112D7CBB8843
:1002E0004BB8C91FD56B97CE095D65E9C32D51E9A0
:1002F00015492FCF388C1B418F6CEF19A82EAF1BDF
:100300007BBCCB32083E1049C8A51CF7F058DD5E17
:10031000936BF67CCE9A883EBD86DF5D7E59CB5EC0
:100320002D75C32AA1307E7DE35B2FC5CB326720BC
:100330006B8048AB289A96BA8F3C0077AF882BFE2B
:100340002C147C0001F8018B040000FFFFA53AB1DA
:10035000C467FB020000000004595A35001E001F4C
:100360000020002100220023002400250026002771
:10037000002A002B0014001A000800150017001CAA
:100380000018000C00120013004C00290004001695
:1003900000070009000A000B000D000E000F0033DB
:1003A000003400E1001D001B0006001900050011CB
:1003B00000100036003700380028000100E000E29D
:1003C00000E300105F2C002C00115F500051005220
:1003D000004F0035021E021F0220022102220223CA
:1003E0000224022502260227022A0035021E021FCD
:1003F00002200221022202230224022502260227D1
:10040000024C004C003A003B003C003D003E003FE7
:10041000002D022E022F0230023102010040004165
:10042000004200430044004500320264024A004D8D
:1004300000010001000100010001000100010001B4
:10044000000100AB00AA00A900AE0035001E001F8D
:100450000020002100220023002400250026002780
:10046000002A0035001E001F00200021002200236A
:100470000024002500260027004C004C003A003BD9
:10048000003C003D003E003F002D002E002F0030BC
:10049000003100010040004100420043004400459B
:1004A00000320064004B004E000100010001000119
:1004B0000001000100010001000100AB00AA00A939
:1004C00000AE003A003B003C003D003E003F0040D3
:1004D00000410042004300440045000100005C016F
:1004E0005C010001000100010001000100010001A8
:1004F000004C0001000100295C1D5C1E5C01000134
:1005000000010001000100010001000100010001E3
:1005100000265C275C0100010001000100010001D0
:1005200000010001000100010001000100010001C3
:10053000000100010001000100010009025B00034D
:100540000100A0FA090400000103010100092111C2
:100550000100012240000705810308000109040190
:1005600000020300000009211101000122220007FE
:10057000058203200001070503032000010904028E
:100580000001030000000921110100012281000780
:100590000584032000011201000200000008A803E6
:1005A000F3670100010203011C037600690061008A
:1005B0006C003A00660036003400630032006200CE
:1005C00033006300000010035000720065006F00EC
:1005D0006E006900630000000A034F004C004B00EE
:1005E000420000000403090411241FBECFEFDAE02B
:1005F000DEBFCDBF04B603FE18C08091AB0490915E
:10060000AC04A091AD04B091AE048730904BA740EC
:10061000B04B59F41092AB041092AC041092AD049C
:100620001092AE04E0E0F8E3099511E0A0E0B1E03B
:10063000E8E0F2E602C005900D92AA36B107D9F7BC
:1006400024E0AAE6B1E001C01D92AB3AB207E1F79F
:100650000E949C280C94D7300C940000E8EDF0E048
:1006600080818E7F80831092E2001092DA001092D7
:10067000E100A0EEB0E08C9181608C9380818F7757
:10068000808319BCA7EDB0E08C918E7F8C93808124
:100690008F7E80831092900408952091E400309121
:1006A000E50095E6A9012091EC00822F817020FFE2
:1006B00006C08091E80080FF06C080E00895209188
:1006C000E80022FD1AC08091A604882389F08530B5
:1006D00089F08091EB0085FD0FC02091E4003091FE
:1006E000E50042175307F9F29150E1F684E00895CE
:1006F00082E0089583E0089581E00895EF92FF92EB
:100700000F931F93CF937C018B010E944D03C82F41
:10071000811117C08091E80085FD0BC08091E80031
:100720008E778093E8000E944D03882399F3C82FA9
:1007300008C0F70181917F018093F10001501109F8
:1007400049F78C2FCF911F910F91FF90EF90089553
:10075000CF93FC018091A604843001F5C091E9009B
:10076000CF702091EC00922F917020FD90E8C92B62
:1007700082E08093E9008091E80080FF0CC050E0A7
:1007800040E060E270E0CF010E947E038091E800CB
:100790008E778093E800CF70C093E900CF910895E1
:1007A00080919E0487FF13C08091E80082FF06C0FD
:1007B0008091E8008B778093E80004C08091A604C4
:1007C0008111F2CF08958091A6048823D9F38091F6
:1007D000E80080FFF8CF8091E8008E77ECCF982F6B
:1007E0009093E900242F762F50E0891731F0709113
:1007F000EC002091ED005091F00021FD07C09F5FBB
:10080000973071F78093E90081E008953091EB0013
:100810003E7F3093EB003091ED003D7F3093ED0053
:100820003091EB0031603093EB007093EC0020933B
:10083000ED005093F0002091EE0027FDE0CF80E026
:100840000895CF92DF92EF92FF920F931F93CF9371
:10085000DF93C8EDD0E088818F7E8883E7EDF0E0FC
:1008600080818160808384E082BF81E080939004F6
:1008700088818E7F888302EE10E0F801108210924A
:10088000DA0081EEC82ED12CF601108288818F7794
:10089000888388818068888388818F7D888319BC5C
:1008A0001092A60410929D0410929C0410929B0436
:1008B00090EEE92EF12CF70180818B7F8083888177
:1008C0008160888342E060E080E00E94EF03F601EF
:1008D00080818E7F8083F801808181608083808128
:1008E00088608083F70180818E7F8083888180612A
:1008F0008883DF91CF911F910F91FF90EF90DF9050
:10090000CF900895FC018091A4049091A5048617CE
:100910009707A0F06115710529F49091E8009E7782
:100920009093E80090E06115710551F4911108C0B1
:100930008091E80082FF34C080E00895BC01F2CFCE
:100940008091A6048823C1F18530C1F18091E8002F
:1009500083FD30C08091E80082FDEACF8091E800FD
:1009600080FFE1CF8091F3002091F200382F6115D4
:10097000710519F02830310558F091E02830310523
:1009800009F090E02091E8002E772093E800CBCF8B
:1009900081918093F100615071092F5F3F4FE7CF44
:1009A0008091A604882341F0853041F08091E800D1
:1009B00083FFBECF81E0089582E0089583E008952B
:1009C00008958091920408959C014FB7F894809106
:1009D000890490918A04A0918B04B0918C044FBF3C
:1009E000821B930B08952FB7F8946091890470913E
:1009F0008A0480918B0490918C042FBF08952FB7A7
:100A0000F8948091890490918A04A0918B04B0910C
:100A10008C042FBF089520918604309187042817F5
:100A2000390771F09093870480938604E0918404E1
:100A3000F0918504309721F00084F185E02D099430
:100A4000089520918204309183042817390771F0AA
:100A50009093830480938204E0918404F091850450
:100A6000309721F00680F781E02D09940895E091F8
:100A70008404F0918504309721F00190F081E02DFD
:100A8000099480E00895CF93DF93EC014091C30374
:100A90005091C4036091C5037091C6032FB7F894B9
:100AA0008091890490918A04A0918B04B0918C0468
:100AB0002FBF841B950BA60BB70B843F9140A1055C
:100AC000B10518F58091C3039091C403A091C503AB
:100AD000B091C6038093BF039093C003A093C1035A
:100AE000B093C20384EF91E0A0E0B0E08093BB0339
:100AF0009093BC03A093BD03B093BE03D093CB03EC
:100B0000C093CA03DF91CF9108950E94F3046093CC
:100B1000BF037093C0038093C1039093C20382E329
:100B200090E0A0E0B0E0E2CFFC018481862351F4A4
:100B300092819923B9F06923808583FF05C081E004
:100B400061110FC080E00895892F8F7092959F707A
:100B5000982B862F8F7062956F70682B81E09613AB
:100B6000F1CF089581E0FDCFDC016091B703809162
:100B7000B803962F891301C00895292F30E0F90199
:100B8000EE0FFF1FE155FC4F408151814A175B0773
:100B9000A1F487E08A9FA0018B9F500D1124495832
:100BA0005C4F81E0FA0184839613E6CF2F5F3F4FBD
:100BB000237033272093B70308952F5F3F4F922F61
:100BC0009370D8CF1092140310921303E7E7F3E069
:100BD0008581811102C014821682379683E0EF3A34
:100BE000F807B1F7089581152CE5920741F420919B
:100BF0000D0330910E03232B11F490E080E0089553
:100C00008F929F92AF92BF92EF92FF920F931F939A
:100C1000CF93DF938430B8F5811136C09091800076
:100C2000977F909380002F98A0918600B0918700C5
:100C3000282F30E00E94463023E030E040E050E0D2
:100C40000E94173089019A01809186009091870057
:100C50006CE070E00E94EF2F60177107D8F0C801B8
:100C600069E070E00E94EF2F70938D0060938C001C
:100C7000DF91CF911F910F91FF90EF90BF90AF90B8
:100C80009F908F90089583E090918000986090935A
:100C90008000CACF8091860090918700E090860006
:100CA000F0908700E0918600F0918700C6E0D0E0E8
:100CB000BE010E94EF2F060F171F211D311D480195
:100CC000590185E0880C991CAA1CBB1C8A95D1F798
:100CD000C701BE010E94EF2F9F0150E040E0260FA8
:100CE000371F411D511DC501B4010E941730490134
:100CF0005A01E0918600F0918700CA01B9010E9473
:100D0000DF2F9B01AC01DF010E9455309B01AC013C
:100D1000C501B4010E94DF2F2FE096958795779546
:100D200067952A95D1F7009186001091870030E0F1
:100D300020E0061717072807390708F095CF6091BC
:100D400086007091870090CF282F220F220F220F4C
:100D500090911F029770922B90931F02987F21E031
:100D600009F420E090911F0220FB90F990931F025C
:100D70000C9400060E94FF049C0190911B0280913C
:100D80001C02982B21F030931802209317029091A7
:100D90001D0280911E02982B21F0309316022093A1
:100DA0001502E0918404F0918504309749F082E0C7
:100DB000809319020480F581E02D89E192E0099485
:100DC000089590911B02803F59F480911C0287FF87
:100DD0000DC010921C0291110BC01092130208C09A
:100DE000813F81F480911C0218169CF3992381F0B5
:100DF00080911D0290911E02892B09F064C010920F
:100E000012020895823F49F497FFF0CF10921B021F
:100E100080911C028111ECCFE0CF833F19F41916A9
:100E2000ACF3E4CF20911D02893F29F41216F4F6A9
:100E300010921D02DBCF8A3F19F427FFD7CFF8CFDE
:100E400020911E028B3F29F427FFD0CF10921E0263
:100E5000CDCF8C3F19F41216CCF3C8CF843F31F4B8
:100E600080911A028E7F80931A02C0CF853F21F4B1
:100E700080911A028D7FF7CF863F21F480911A026C
:100E80008B7FF1CF873F21F480911A02877FEBCFD0
:100E9000883F21F480911A028F7EE5CF8D3F31F497
:100EA000809114028E7F80931402A0CF8E3F21F494
:100EB000809114028D7FF7CF8F3F09F097CF8091FB
:100EC00014028B7FF0CF08958091140280FD16C02C
:100ED00081FD16C082FD16C0809112028823A1F008
:100EE000883280F428E0829FC001112468E270E01B
:100EF0000E940330862F672B39F0089582E0089511
:100F000084E0089588E0089581E0089580911402B6
:100F100080FD14C081FD14C082FD16C080911302B3
:100F2000882381F08E3180F420E5829FC001112456
:100F30006EE170E00E940330862F089584E10895E9
:100F400088E2089588E0089580E50895803F31F4AF
:100F50000E948607819580931C020895813F19F4B1
:100F60000E948607F8CF823F31F40E948607819560
:100F700080931B020895833F19F40E948607F8CFDF
:100F8000893F29F40E94640780931D0208958A3FD7
:100F900021F40E9464078195F7CF8B3F31F40E94C2
:100FA0006407819580931E0208958C3F19F40E9476
:100FB0006407F8CF843F31F480911A0281608093F6
:100FC0001A020895853F21F480911A028260F7CFBA
:100FD000863F21F480911A028460F1CF873F21F48B
:100FE00080911A028860EBCF883F21F480911A0229
:100FF0008061E5CF8D3F31F4809114028160809350
:10100000140208958E3F21F4809114028260F7CF7C
:101010008F3FB9F7809114028460F1CF80E008958A
:10102000F894E82FE295EF70F0E031A1282F2F70AF
:1010300081E090E001C0880F2A95EAF7982F9095FB
:10104000932391A392A1892B82A3789408959091E0
:10105000F60192FF06C0282F28712830F9F4877F07
:10106000846093FF06C0282F28712831F1F4877E11
:1010700084612091F70120FF06C0382F3871383085
:10108000D9F4877F816021FF06C0282F287128317D
:10109000D1F4877E816194FD877E0895282F247185
:1010A0002430F9F68B7F8860DCCF282F247124311F
:1010B00001F78B7E8861DDCF382F3171313019F720
:1010C0008E7F8860E0CF282F2171213121F78E7E1D
:1010D0008861E1CFCF93DF93EC0182389105A9F1CC
:1010E000D8F58133910509F496C048F58932910508
:1010F00009F48AC08A9709F495C0C11521E5D20781
:1011000008F0BCC0C11530E5D30708F014C1C83ED3
:10111000D10508F09CC0C03ED10560F5C83AD105A4
:1011200008F087C0C53AD10508F0FDC0C130D1052F
:1011300009F12097F9F0C430D105E0F440C08533BF
:10114000910509F45AC0C997C1F68091F6018370E0
:1011500089F0C0EED0E00EC0833E910599F170F4A5
:10116000803E910501F1823E910539F68091F601AC
:1011700082FD21C0CE01DF91CF910895863E910579
:1011800061F1873E910571F1843E910509F0B5CF7B
:101190008091F70181FFEECF8091F601C7EED0E09C
:1011A00084FD0DC0E7CF8091F60180FD12C19091C2
:1011B000F70190FFDFCFC3EED0E084FFDBCFD0E0BC
:1011C000C0E0D8CF8091F60182FD06C19091F70171
:1011D00090FDBFCF84FFCECFF2CF8091F60183FD8B
:1011E000DDCFC8CF8091F60183FDF9C09091F70162
:1011F00091FFF0CFC4EED0E0BDCF8091F60185FF26
:10120000B9CFC9E2D0E0B6CF8091F60185FFB2CF69
:10121000C5E3D0E0AFCF8091F60186FFABCFCAE245
:10122000D0E0A8CF8091F60186FFA4CFC1E3D0E043
:10123000A1CFCF3BD10518F6C85AD0E0CC0FDD1FA7
:10124000C45EDE4F0990D881C02DD46493CFC11500
:1012500040E2D40758F4C11581E0D80708F08ACFDE
:10126000C03FD10508F4ABCFD06584CFC11590E461
:10127000D90708F4A4CFDF70D06A7CCFC11525E56B
:10128000D20700F5C11534E5D30708F08AC0C115AF
:1012900043E5D40708F071C0C11582E5D80708F40A
:1012A00067C0CE018370992721E030E002C0220F91
:1012B000331F8A95E2F7C695C69580E2C89FE00184
:1012C000112452C0C11599E5D907A8F4C11528E524
:1012D000D20708F06BC0C11536E5D30708F06FCF11
:1012E0008C2F0E942708C82FD0E0DC2FCC27CC27DA
:1012F000DF71D0623FCFC1154AE5D40708F45BC067
:10130000CE0190568115904208F059CF8D2F8F71E4
:101310000E94270890E0982F882788279F719C01BA
:101320002C2BE901E6CFC55AD0E0C75EDE4FC8815D
:10133000D0E0D0641FCFCE01E4E096958795EA9582
:10134000E1F783702C2F26952695237040E2249F89
:1013500090011124382B8C2F8370C1E0D0E002C0A3
:10136000CC0FDD1F8A95E2F7C22BD32BDC6802CFAE
:10137000DC2FCC27C16FD06AFDCECE0183709927B8
:1013800021E030E002C0220F331F8A95E2F7C695B4
:10139000C69590E2C99FE0011124C22BD32BDA68D5
:1013A000E9CEDC2FCC27C46FD06AE4CEDC2FCC276B
:1013B000C06FD06ADFCE8C2F8F700E94270834E078
:1013C000D695C7953A95E1F7CF709C2FEC01D0697F
:1013D000D1CEC9E3D0E0CECEC2EED0E0CBCEC6EEC9
:1013E000D0E0C8CE8091E701882331F01092E70168
:1013F0001092E6011092E501089580959091CF0337
:1014000098239093CF03089580959091CE039823CD
:101410009093CE0308951092DC011092DB0110929C
:10142000DA0108958091D90181111092D9010895AE
:10143000EEE6F1E09191891303C0DF0111971C9250
:1014400091E0E437F907B1F70895AEE6B1E0EFEFC8
:1014500090E02D91821751F0EF3F19F4211101C056
:10146000E92F9F5F9630A9F7EF3F09F408950E2EFC
:10147000000CFF0BE459FE4F828308958091D80140
:1014800090919701981301C008958F5F8770FACFEC
:101490009E3F49F1E82F2CE0929FE00D11249E2FF2
:1014A0009770E695E695E69583E0E89FF0011124B4
:1014B000E958FE4F50E040E080E0219130E0092EF5
:1014C00002C0369527950A94E2F721703327042E3F
:1014D00001C0220F0A94EAF7822B4F5F5F4F43301F
:1014E000510559F7089580E008959E3F69F1E82F6E
:1014F0002CE0929FE00D11248E2F877041E001C0F7
:10150000440F8A95EAF7E695E695E69583E0E89F2D
:10151000F0011124E958FE4F30E020E070E05191D5
:10152000DF011197CB01022E02C0969587950A9490
:10153000E2F7817081958527842385278C932F5F1F
:101540003F4F2330310559F708959C013A952115F5
:101550003F4150F5FC01EE27F170BC016627727027
:10156000AC01442754709C012227387094FF0EC0B0
:1015700080E1EF2B09F480E0672B09F08062452BB6
:1015800009F08064232B89F08068089581E0EF2BB7
:1015900009F480E0672B09F08260452B09F0846034
:1015A000232B19F08860089580E0089580938D04BE
:1015B00070938F0460938E048091A6048430F9F4B4
:1015C0008093E9008FEF9091E800815095FD06C06F
:1015D00095ED9A95F1F700008111F5CF8091E80023
:1015E00085FF0DC050E040E063E070E08DE894E0DE
:1015F0000E947E038091E8008E778093E800089532
:10160000BC0184E00C94D60ABC0183E00C94D60A99
:101610009C0184E08093E9009FEF8091E800915065
:1016200085FD06C085ED8A95F1F700009111F5CF93
:101630008091E80085FF0CC050E040E066E070E07B
:10164000C9010E947E038091E8008E778093E800B4
:101650000895CF93DF93EC0181E08093E9008FEF51
:101660009091E800815095FD06C095ED9A95F1F7AF
:1016700000008111F5CF8091E80085FF14C050E093
:1016800040E068E070E0CE010E947E038091E800B7
:101690008E778093E80088E0FE01A3E9B4E0019032
:1016A0000D928A95E1F7DF91CF91089581E08093C3
:1016B000E00080E28093D8001092C9008FE19EE4A0
:1016C0000197F1F700C0000087E090EBDC01809308
:1016D000AB049093AC04A093AD04B093AE0488E146
:1016E0009CE00FB6F894A895809360000FBE90938D
:1016F0006000FFCFCF93DF93C7EFD2E060E0CE0171
:101700000E949B302196C11584E0D807B9F7DF917C
:10171000CF9108950F931F93CF93DF938901843066
:1017200048F5653038F54C3028F521153C4531F445
:1017300020910D0330910E03232BE1F0C42FD0E054
:10174000CC0FDD1F98E1699FC00DD11D112498E7D2
:10175000899FC00DD11D1124612FCE0187960E9453
:101760009B30602FCE018896DF91CF911F910F9112
:101770000C949B30DF91CF911F910F910895CF93DF
:10178000C82F6FEF811168E983E290E00E949B30DF
:101790006FEFC1116FEE84E290E00E949B306FEF1B
:1017A000C1116BEE85E290E0CF910C949B30682FD5
:1017B00086E090E00C949B307F928F929F92AF9244
:1017C000BF92CF92DF92EF92FF920F931F93CF932E
:1017D000DF93CDB7DEB76E970FB6F894DEBF0FBEBE
:1017E000CDBFA0900D03B0900E0381E090E09093E8
:1017F0000E0380930D038BE5C82E83E0D82E00E006
:10180000760110E015C0F40125913491472D612F28
:10181000802F0E948A0B82E0880E911C7394ECE06A
:101820007E12F1CFF8E1EF0EF11C1F5F153019F0B9
:101830004701712CE8CF0F5F88E7C80ED11C043038
:10184000F9F61A8219821C821B821E821D8218865A
:101850001F8288EC90E09A87898707E012E04AE0CF
:1018600050E0B801CE0101960E94BF30065F1F4FC5
:101870000735E2E01E0799F77E01FBE0EF0EF11C51
:101880008AE0F70111928A95E9F74AE050E0B80141
:10189000C7010E94BF30065F1F4F073AF2E01F07E3
:1018A000A1F77E0185E1E80EF11C8AE0F7011192B3
:1018B0008A95E9F78FEF9FEF9A8F898F87E08E8F58
:1018C0004AE050E0B801C7010E94BF30065F1F4FD9
:1018D000073FF2E01F07A1F7B0920E03A0920D039D
:1018E0006E960FB6F894DEBF0FBECDBFDF91CF91DD
:1018F0001F910F91FF90EF90DF90CF90BF90AF902E
:101900009F908F907F90089580E00E94BF0B60E0D1
:1019100086E290E00E949B300E94DC0B0E947A0BD2
:1019200081E00C94BF0B9B01883070F49AE0899F92
:10193000B0011124695F7D4F4AE050E0C9010E9467
:101940007D3090E080E008958FEF9FEF08958F92B3
:101950009F92AF92BF92CF92DF92EF92FF920F933E
:101960001F93CF93DF93CDB7DEB72A970FB6F894C6
:10197000DEBF0FBECDBF02ED13E0F12CE12C88E6F7
:10198000C82E86E2D82E92E9A92E96E2B92E2DED28
:10199000822E25E2922EF801D182C082B382A282E9
:1019A00095828482F58AE48ABE016F5F7F4F8E2D17
:1019B0000E94930C892B29F489859A85F801938BD1
:1019C000828BFFEFEF1AFF0A0A5E1F4F88E0E816CE
:1019D000F10409F72A960FB6F894DEBF0FBECDBF0B
:1019E000DF91CF911F910F91FF90EF90DF90CF90FB
:1019F000BF90AF909F908F9008950F931F93CF93B8
:101A0000DF93843030F5653020F54C3010F5C42F6D
:101A1000D0E0CC0FDD1F28E1629FC00DD11D112445
:101A200038E7839FC00DD11D1124CE0187960E94F7
:101A30008D30082F10E0102F0027CE0188960E94CD
:101A40008D309801282BC901DF91CF911F910F9103
:101A5000089590E080E0F8CF462F20911103309157
:101A60001203232B91F47E3F39F46E3F71F4809181
:101A70000F03909110030895843038F4753028F4E2
:101A80006C3018F4672F0C94FD0C90E080E0089502
:101A9000CF92DF92FF920F931F93CF93DF936C014E
:101AA0000091A7048091E801082BC7E0D0E010E086
:101AB000FC2EC8010C2E02C0959587950A94E2F77A
:101AC00080FD0CC02197A0F7F12C8F2DDF91CF91D5
:101AD0001F910F91FF90DF90CF900895B6018C2F4A
:101AE0000E942C0D0E946A08019761F3EECFCF93FC
:101AF000DF93EC010E94480DBE010E942C0DDF9186
:101B0000CF910C946A08FC0186819781009791F02F
:101B10000E946A0892959F709630B9F080F4925FA7
:101B20009F70923080F4803F19F058F4883E58F44A
:101B300081E00895808191810E94770DEBCF9A5FBB
:101B4000EFCF843FA9F380E00895883E88F3813F7A
:101B5000D1F7EECF1F93CF93DF9300D000D00F9239
:101B6000CDB7DEB7FC01268137812115310541F55E
:101B700025E0DE01119601900D922A95E1F7FC0116
:101B8000228189819A812223B9F06623A9F00E94DB
:101B9000480D182F682F89819A810E94750A6981E2
:101BA0007A81812F0F900F900F900F900F90DF91FF
:101BB000CF911F910C942C0D0E94480A182FEFCF43
:101BC000C9010F900F900F900F900F90DF91CF9160
:101BD0001F91089583E290E00E948D30883989F446
:101BE00084E290E00E948D308F3E59F485E290E0CF
:101BF0000E948D3091E08B3E09F090E0892F81703A
:101C0000089580E0FCCFCF9384E090E00E948D3077
:101C1000C82F82E290E00E948D30982F8C2FCF91B8
:101C200008958F929F92AF92BF92CF92DF92EF92E0
:101C3000FF920F931F93CF93DF93CDB7DEB72A9711
:101C40000FB6F894DEBF0FBECDBF05E912E083E802
:101C5000C82E82E0D82E97EAE92E92E0F92E27E0EE
:101C6000922E32E8A32E32E0B32E88248394D6013C
:101C70000D931D936D014AE050E0B701CE0101962E
:101C80000E947D30F8013896DF01892D1D928A95DA
:101C9000E9F789819A81D80111969C938E938F815F
:101CA00012968C9312978D8113968C931397888537
:101CB00014968C931497898515968C9315978B8120
:101CC0009C8117969C938E93169718961C92189742
:101CD0008A8587FF4BC01E961C921E921D9780FF1F
:101CE00003C0D80118968C9281FF04C0F80190853A
:101CF0009260908782FF07C0D80118969C91189730
:101D0000946018969C9383FF04C0F80190859860B6
:101D1000908784FF07C0D80118969C91189790610E
:101D200018969C9385FF04C0F801808580628087A7
:101D3000015F1F4FFAE0EF0EF11C87EFE81682E01B
:101D4000F80609F094CF2A960FB6F894DEBF0FBEBE
:101D5000CDBFDF91CF911F910F91FF90EF90DF905A
:101D6000CF90BF90AF909F908F900895F801B68666
:101D7000A586B5CFCF92DF92EF92FF920F931F937C
:101D8000CF93DF93CDB7DEB72A970FB6F894DEBFB7
:101D90000FBECDBFE2E3F2E080E5DF011D928A9540
:101DA000E9F7E7E7F3E088E3DF011D928A95E9F7B9
:101DB00082E3C82E82E0D82E7F0107E512E0F7010A
:101DC000D182C0824AE050E0B801CE0101960E9463
:101DD0007D3088E0FE013196D60101900D928A9502
:101DE000E1F789859A85D70113969C938E93129774
:101DF000BAE0CB0ED11CE7E0EE0EF11C065F1F4FE0
:101E0000073AF2E01F07D9F62A960FB6F894DEBF1C
:101E10000FBECDBFDF91CF911F910F91FF90EF903B
:101E2000DF90CF9008958F929F92AF92BF92CF9202
:101E3000DF92EF92FF920F931F93CF93DF93CDB773
:101E4000DEB72A970FB6F894DEBF0FBECDBF8E0166
:101E50000F5F1F4F8AE0F80111928A95E9F79AE423
:101E6000E92E91E0F92E6801AA24A394B12CF70180
:101E700081917F018F3F09F446C0F894E82FE295E5
:101E8000EF70F0E021A18F70A50102C0440F551F33
:101E90008A95E2F7CA01922F982B91A392A180957F
:101EA000892382A3789400C0EFE4F1E021E030E0E0
:101EB000912C812C41914F3F09F481C0A42FA29510
:101EC000AF70B0E090968C9190E04F7002C0959505
:101ED00087954A95E2F780FD72C0C901882A992A40
:101EE000220F331F51E0EB35F50721F7F70131974A
:101EF00080818F3F11F00E94100880EA8A95F1F7E7
:101F0000F60191828082F2E0CF0ED11C4FE4E416FC
:101F100041E0F40609F0ABCF4AE050E0B8018CEEA6
:101F200091E00E946930FF24F394009709F4F12CAA
:101F3000892B09F447C08AE0F801ACEEB1E00190CA
:101F40000D928A95E1F781E08093EB010E94FF04F6
:101F50009093EA018093E9018091E9019091EA016F
:101F60000E94E404059790F18091EC019091ED01BD
:101F700090930902809308028091EE019091EF0105
:101F800090930B0280930A028091F0019091F101ED
:101F900090930D0280930C028091F2019091F301D5
:101FA00090930F0280930E028091F4019091F501BD
:101FB00090931102809310021092EB0107C090E001
:101FC00080E08CCF8091EB018111C6CF8F2D2A96B6
:101FD0000FB6F894DEBF0FBECDBFDF91CF911F913A
:101FE0000F91FF90EF90DF90CF90BF90AF909F90B8
:101FF0008F9008958091CE039091CF03892B809389
:102000006C018091E701882319F10E94FF0420915F
:10201000E5013091E601821B930B8838934110F063
:102020000E94F20980916C019091E701892B8093C5
:102030006C0120E08EE691E0FC013191CF0131117D
:102040002F5FF1E084379F07B9F721110E94F20951
:102050008091C703809590916C0189239091C8036A
:10206000892B80936C0148E050E06DED71E08CE6C7
:1020700091E00E946930892BA9F088E0ECE6F1E05C
:10208000ADEDB1E001900D928A95E1F7E091840405
:10209000F0918504309731F00280F381E02D8CE6D9
:1020A00091E009940895EF92FF920F931F93CF93BD
:1020B000DF93EC018A85811134C0EB80FC8087E5D9
:1020C000F81A26E12E9DC0012F9D900D1124DC01F0
:1020D000AE52BC4F1496ED91FC911597309731F0AC
:1020E00054966D917C9188529C4F099586E18E9D06
:1020F00080018F9D100D11240E521C4FF801878115
:102100000E94040AF80180850E94FD090E94FA0FCE
:10211000188219861B861E821D821092D10310928E
:10212000D003DF91CF911F910F91FF90EF90089511
:10213000CF93DF93EC01898981111BC081E0898BEA
:102140008091CE039F81892B8093CE038091CF0312
:102150009885892B8093CF030E94FA0FEA81FB8137
:10216000309739F06C897D89CE010696DF91CF9149
:102170000994DF91CF91089590E080E00E942105BD
:1021800090E080E00E940B051092CF030E94FA0FAE
:1021900086E0E9E1F2E0DF011D928A95E9F710920D
:1021A000130210921202109214020C94BA06809339
:1021B000A7040C94BC108091A704982F96709630B9
:1021C00019F488600C94D710877FFCCF21E030E0B1
:1021D00001C0220F8A95EAF720958091A7048223F7
:1021E0000C94D7109091DC01809589238093DC01B9
:1021F000282F277091F4282F082E000C330B9217EC
:10220000130659F09091F70192FD07C085958595C9
:1022100085950E94E6100C940B0A0895CF93C09107
:10222000F701C2FB992790F9981799F080FBC2F942
:10223000C093F7016091F60184E090E00E949B302A
:102240006C2F82E290E00E949B3082E0CF910C9450
:10225000F210CF91089521E030E001C0220F8A955D
:10226000EAF78091A704822B0C94D7109091F70184
:1022700092FD10C098E0899F90011124622B609319
:10228000DC010E942B110E94FF049093DB018093DC
:10229000DA0108950C942B118093E8010C94BC1082
:1022A0001092CE03EEE6F1E086E0DF011D928A9502
:1022B000E9F70C94BC101F93CF93DF93CDB7DEB733
:1022C000AA970FB6F894DEBF0FBECDBF8EE994E09B
:1022D0002091F100DC012D93CD01B4E0863A9B07FB
:1022E000B9F780919F04833009F472C0B8F481304B
:1022F00009F449C0823009F4B3C08091E80083FF3B
:1023000096C280919E0490919F049A3008F08FC2EB
:10231000E92FF0E0E752FF4C0C9439308A3009F491
:102320008EC08B3009F471C0893039F780919E04DA
:10233000813219F78091A2049091A304009711F0C3
:102340000297D9F68091E800877F8093E80080911A
:10235000E80082FF38C09091F3008091F20002976C
:1023600031F48091F100813011F0863021F48091B8
:10237000F100809392048091E8008B778093E800CD
:102380000E94D003BACF80919E04813A09F0B5CF64
:102390008091E800877F8093E8008091A20490916B
:1023A000A304892B61F468E083E994E070E00E9463
:1023B00082048091E8008B778093E8009ECF60E0F4
:1023C00090E080E0F3CF8091A6048111C0CF95CF3B
:1023D00080919E04813A09F090CF8091A20490915F
:1023E000A304892B09F089CF8091E800877F80932F
:1023F000E8008091E80080FFFCCF8091100180937D
:10240000F1008091E8008E77B9CF80919E048132EF
:1024100009F073CF8091A2049091A304892B09F055
:102420006CCF8091E800877F8093E8000E94D00302
:102430008091A004809310010E9450115ECF809182
:102440009E04813209F059CF8091E800877F809304
:10245000E8000E94D0038091A104809391044DCFA5
:1024600080919E04813A09F048CF8091E800877FEF
:102470008093E8008091E80080FFFCCF8091910478
:10248000BECF803899F0823809F0D1C18091A20482
:102490008F70873008F0CBC18093E9008091EB000A
:1024A00085FB882780F91092E90006C080919B0483
:1024B00090919C04911182609091E800977F909395
:1024C000E8008093F1001092F1008091E8008E778F
:1024D000AAC1882309F498C1823009F0A8C180916B
:1024E000A00481119BC18091A2048F702FEF280F4F
:1024F000263008F09CC18093E9002091EB0020FF7A
:102500008DC1933031F48091EB0080628093EB00B9
:1025100085C19091EB0090619093EB0021E030E059
:1025200001C0220F8A95EAF72093EA001092EA0090
:102530008091EB008860EACF811179C11091A004ED
:102540001F778091E3008078812B8093E300809156
:10255000E800877F8093E8000E94D0038091E80024
:1025600080FFFCCF8091E30080688093E30082E0ED
:10257000111183E08093A6045AC18058823008F07C
:1025800056C12091A0043091A1042C3DE3E03E0708
:10259000A1F583E08A838AE289834FB7F894DE014C
:1025A000139620E03EE051E2E32FF0E05093570015
:1025B000E49120FF03C0E295EF703F5FEF708E2F34
:1025C00090E0EA30C0F0C7968D939D932F5F243141
:1025D00059F74FBF8091E800877F8093E8006AE257
:1025E00070E0CE0101960E9482048091E8008B7712
:1025F0008093E8001CC1C096E7CF8091A20490911F
:10260000A304432F55274330510509F44AC078F5F8
:102610004130510509F485C08BE590E0EBE3F5E02E
:102620004230510509F003C12091E800277F209333
:10263000E8002091A4043091A5048217930708F4C0
:102640009C0140E02115310509F070C041116EC0B8
:102650008091E80082FDC9CF8091A604882329F2E9
:10266000853019F28091E80083FFF2CFBECF41326E
:10267000510509F447C04232510509F0D8C08330F2
:10268000910508F0D4C0FC01EE0FFF1FE25AFE4F87
:102690000190F081E02D855A9E4FDC018C9190E0F5
:1026A0001DC0332721303105E9F02115310579F0BE
:1026B00022303105F9F02330310509F0B8C0E8EADD
:1026C000F5E0E4918E2F90E0E8EAF5E007C0E4EE53
:1026D000F5E0E4918E2F90E0E4EEF5E0009709F448
:1026E000A6C0A2CFE8EDF5E0E4918E2F90E0E8EDF2
:1026F000F5E0F4CFE6ECF5E0E4918E2F90E0E6EC27
:10270000F5E0ECCF8330910508F091C0880F991F58
:10271000FC01EC59FE4F0190F081E02D89E090E042
:1027200083CF82E190E0E6E9F5E07ECF8091A604D8
:10273000882309F45ACF853009F457CF8091E800F7
:1027400083FD53CF8091E80082FD82CF8091E80025
:1027500080FF78CF9091F3008091F2002115310530
:1027600019F08830910550F041E0089709F040E0F9
:102770008091E8008E778093E80064CF4491409385
:10278000F1003196215031090196E8CF803809F0E7
:102790004EC08091E800877F8093E80080919D047F
:1027A0008093F10092CE811142C01091A0041230AA
:1027B000F0F58091E800877F8093E80010939D04F6
:1027C0000E94D003112311F084E005C08091E30042
:1027D00087FDFACF81E08093A60442E061EC81E0BE
:1027E0000E94EF0342E261EC84E00E94EF0342E2C8
:1027F00061EC82E00E94EF0342E260EC83E00E9421
:10280000EF038091A60413C08091A004813079F475
:1028100081E0933009F080E080939C041092E900FD
:102820008091E800877F8093E8000E94D003809128
:10283000E80083FF0AC08091E800877F8093E8006A
:102840008091EB0080628093EB00AA960FB6F8941B
:10285000DEBF0FBECDBFDF91CF911F9108958823BA
:1028600021F00E94FD090C94FA0F0895882339F095
:102870009091CF03982B9093CF030C94FA0F089567
:10288000882321F00E94040A0C94FA0F08958823EB
:1028900039F09091CE03982B9093CE030C94FA0FBD
:1028A0000895882309F452C0823871F40E943705D4
:1028B00081FF4CC089E30E94250A0E94FA0F89E338
:1028C0000E94180A0C94FA0F833859F40E943705B5
:1028D00080FF3CC083E50E94250A0E94FA0F83E531
:1028E000EFCF843859F40E94370582FF2FC087E468
:1028F0000E94250A0E94FA0F87E4E2CF9CEF980F0E
:10290000913AF0F290E2980F983050F4877091E08D
:1029100001C0990F8A95EAF7892F0E94040AD2CF45
:102920009BE5980F933020F490E080E00C94210513
:1029300098E5980F973120F490E080E00C940B0517
:10294000803F20F00E94E1060C94BA060895FF92A1
:102950000F931F93CF93DF93F82E0091CC03109128
:10296000CD030115110509F449C01092CB03109253
:10297000CA031092C7031092C803D8011696CD91CE
:10298000DC919E013A9521153F4108F4D07ED1E0BB
:10299000C11101C0D0E0D8011996ED91FC911A97B0
:1029A000309731F01B966D917C9180E00995D8238A
:1029B000DD2339F08CEF8C0F813A38F58C2F0E9493
:1029C000180AFF2099F0E091CC03F091CD038085A7
:1029D00084FD0CC08091C903882341F080819181DE
:1029E0009C0121503109253A3D45A8F00E94FA0F7B
:1029F0001092CD031092CC031092C903C801DF914D
:102A0000CF911F910F91FF9008950E94FA0F8C2F84
:102A10000E945114D6CF0E944305E8CFCF93C82F10
:102A2000882309F490C08238C1F40E94370581FDE3
:102A30008AC089E30E94250A0E94FA0F2FEF81EED7
:102A400094E0215080409040E1F700C0000089E30D
:102A50000E94180ACF910C94FA0F8338A1F40E94B7
:102A6000370580FD70C083E50E94250A0E94FA0F99
:102A70002FEF81EE94E0215080409040E1F700C0BC
:102A8000000083E5E5CF8438A1F40E94370582FD7C
:102A90005AC087E40E94250A0E94FA0F2FEF81EEA8
:102AA00094E0215080409040E1F700C0000087E4AE
:102AB000CFCF8CEF8C0F813A68F4EEE6F1E0819194
:102AC000C817D9F121E0E437F207C9F78C2F0E942B
:102AD000250AC0CF80E28C0F883068F4C77021E0EF
:102AE00030E001C0220FCA95EAF78091CE03822B15
:102AF0008093CE03AFCFEBE5EC0FE33040F4F0E092
:102B0000E75EFE4F808190E0CF910C942105E8E5CF
:102B1000EC0FE73150F4F0E0EE0FFF1FE45EFE4FE4
:102B200080819181CF910C940B05C03F60F08C2F78
:102B30000E94A607CF910C94BA068C2F0E94180A07
:102B40000E94FA0FC3CFCF9108951F93CF93DF93C5
:102B5000182FD0E0C0E0893311F4C0E5D0E0812F18
:102B60000E940E15209731F4812FDF91CF911F9194
:102B70000C9451148FE99FE00197F1F700C0000019
:102B80002197F0CF0F931F93CF93DF93C62FD42FAE
:102B9000022FFC0182818823A1F06093AA040E9485
:102BA000FF049093A9048093A804C77081E001C03A
:102BB000880FCA95EAF7DF91CF911F910F910C947E
:102BC00047148091AA04681335C08091A80490919D
:102BD000A9040E94E404883C910560F510E21D0FF1
:102BE000CD17B9F080E28C0F883040F4C77081E0D7
:102BF00001C0880FCA95EAF70E944014183048F4C3
:102C000081E09D2F977001C0880F9A95EAF70E9486
:102C10004714802F0E94A515183098F4D77081E0D2
:102C200001C0880FDA95EAF7DF91CF911F910F91DC
:102C30000C944014C77081E001C0880FCA95EAF770
:102C4000F3CFDF91CF911F910F910895AF92BF9273
:102C5000CF92DF92EF92FF920F931F93CF93DF9368
:102C6000EC018AE0A82E2881222309F48CC02130AF
:102C7000C9F599818A81913021F422960E94A51587
:102C800005C0923029F422960E940E152196EBCFB2
:102C9000933021F422960E945114F8CF943011F011
:102CA0002196F4CF229630E020E0AE014F5F5F4FD7
:102CB0008053990B8A30910550F02150310930F33F
:102CC0008FE99FE00197F1F700C00000F6CFA29EC8
:102CD000B001A39E700D11249C01260F371F89811E
:102CE000EA01E3CFE22FF0E0E154FE4FB490822FEF
:102CF00086958695869590E0FC01E155FE4FE4901F
:102D00002770F12C022E02C0F594E7940A94E2F7A2
:102D100031E0E322FF24FC01E156FE4FC490D12CA8
:102D2000022E02C0D594C7940A94E2F731E0C32280
:102D3000DD24FC01E157FE4F049110E002C015951F
:102D400007952A95E2F701701127E114F10419F0B3
:102D500081EE0E940E15C114D10419F086EE0E9476
:102D60000E158B2D0E94A515CD2819F086EE0E9418
:102D70005114EF2819F081EE0E945114012B09F42F
:102D800085CF8CE27BCFDF91CF911F910F91FF9088
:102D9000EF90DF90CF90BF90AF900895CF93DF93E7
:102DA000EC010E94A50A9E01205E31092830310500
:102DB00010F0209739F40E9447148C2FDF91CF91A7
:102DC0000C940E150E943614F8CF90E080E00E941B
:102DD0009530893E9E4F11F40C94EA0D80E00895E1
:102DE00069EE7EEF90E080E00E94B93060E082E022
:102DF00090E00E949B3060E083E090E00E949B3076
:102E00001092E80160E084E090E00E949B3060E076
:102E100082E290E00E949B3060E085E090E00E94BA
:102E20009B3060E086E090E00E949B306FEF87E08F
:102E300090E00E949B3040E050E0BA0188E090E0D2
:102E40000E94AD3060E08DE090E00E949B3040E059
:102E500050E0BA0188E190E00E94AD3060E087E187
:102E600090E00E949B3040E050E0BA018CE190E09D
:102E70000E94AD3070E060E080E290E00E94B930E6
:102E800040E050E0BA0188E190E00E94AD3080E07F
:102E90000E94BF0B0E94840C40E050E0BA018FE01A
:102EA00090E00E94AD3040E050E0BA0183E190E054
:102EB0000C94AD302F923F924F925F926F927F921F
:102EC0008F929F92AF92BF92CF92DF92EF92FF923A
:102ED0000F931F93CF93DF9300D000D000D00F92B9
:102EE000CDB7DEB77C01DC0113968D919C911497D0
:102EF000892B39F08C9111969C9189238F3F09F091
:102F0000EDC627960FB6F894DEBF0FBECDBFDF919A
:102F1000CF911F910F91FF90EF90DF90CF90BF90D6
:102F2000AF909F908F907F906F905F904F903F9069
:102F30002F900895D60116968C9116978823D1F07C
:102F400019968D919C910817190739F48091D00337
:102F50009091D1030817190769F0F6019786148735
:102F60000387C6010E949810C60106960E9453105E
:102F70001092CF03FFEFAF1ABF0A26E1C20ED11C99
:102F8000C5C6C80182519F45409708F09BC68FEF88
:102F900093E00E948D306EEED62ED00E07EF12E039
:102FA0008823F9F08091DC01877009F4AACFD7015A
:102FB00012968C91882309F4A4CF8091F70182FDA9
:102FC000A0CF82E00E94F2109CCF011534E01307DD
:102FD00049F3C8010E948D30811101C0DA940F5F5E
:102FE0001F4FD110F2CF19821A821B821C829924A2
:102FF0009A9468014FEFC41AD40AC8010E948D3018
:1030000089831A82882371F2813009F073C05801D4
:1030100052E0A50EB11CC6010E948D30C82E8A83D5
:10302000882309F4BFCFC5010E948D30D82E8FEFC1
:103030008C0D833068F4580183E0A80EB11CDB824C
:10304000DD2021F0CE0101960E9426168501D1CF08
:103050008BEF8C0D833030F5C8010396DB825C0169
:10306000DD20A1F35801A4E0AA0EB11C0E948D300E
:103070008C83882359F38B819C818130BFEF9B0720
:1030800010F0982F8827E6E0CE1631F0F7E0CF1643
:1030900031F00E945E26DACF0E942E26D7CF0E9402
:1030A0008E25D4CF24E0C212D1CF580134E0A30E34
:1030B000B11CC80103960E948D30DD2009F472CF47
:1030C000882309F46FCF8150990B989E9001999EA7
:1030D000300D11244D2D4150550BCA01820F931F05
:1030E000019708F4B3CFAFE9BFE01197F1F700C043
:1030F0000000F6CFCE0101960E9426165601A6CFFB
:1031000081E00E942B110E94DB104CCF81E00E94D5
:10311000E610F9CF82E0FBCF823009F041C6809102
:103120002C0290912D02892B09F43AC626E12C9DA0
:10313000C0012D9D900D11248E529C4FDC015096A4
:103140001C920E9498102CC60F3B5CE5150709F4F1
:1031500054C008F43EC0003C9CE5190709F037C68E
:1031600090911F02892F8695869586958F5F8F7126
:103170009770843008F059C0880F880F880F892B0A
:1031800080931F0280911F0210C083E00E94A4065A
:1031900080911F020E94D70B05CF80911F02982FAC
:1031A000987F79F0885080931F02887F91E009F41E
:1031B00090E080911F0290FB80F980931F020E9493
:1031C000D70B80911F028695869586950E940006F2
:1031D000E9CE80911F02982F9695969596959330FB
:1031E00040F49F5F990F990F990F8770892B8093F7
:1031F0001F0280911F028160E0CF80911F0280FF3B
:1032000007C08E7F80931F020E94D70B80E0DECF25
:1032100080FDC8CE816080931F02813019F489E05F
:1032200080931F0280911F02CACF90931F02AACFE2
:1032300081E080930001B6CE80910001882309F4DB
:1032400077C44801F0EE8F1A91084090E701809111
:10325000D901482A8091CE03482A28E08216910499
:1032600008F086C098012770332781E090E001C004
:10327000880F2A95EAF7552009F477C0482AD70124
:103280008D919C910E94480A21E030E0F90102C032
:10329000EE0FFF1F8A95E2F7FF83EE832090CC03A9
:1032A0003090CD0360907401709075011D822D8166
:1032B000E22FF0E0EE0FFF1FED57FD4FC080D180F1
:1032C000C114D10409F4E9C4411005C0D601129615
:1032D0008C91811187C0F601838190E02E813F811E
:1032E00082239323892B09F47DC08085982F9770C2
:1032F00009F487E038E08316910408F053C05520A4
:1033000009F44CC086958170882309F46BC0D601FE
:10331000AD90BC900A151B0519F4552009F462C044
:10332000C214D30409F45EC0D6011D96ED91FC9140
:10333000309721F08081882309F454C0642DC601A0
:103340000E949405882309F44DC00A151B0509F055
:1033500063C50115110509F464C5511064C5A614AF
:10336000B70409F03FC0512C5EC58095482287CF35
:10337000552009F47BC410937501009374010E94D9
:10338000F3046093C3037093C4038093C5039093C5
:10339000C6031092CB031092CA0371CF82FB882719
:1033A00080F9B2CF5520F1F08170AECF0E94511458
:1033B00058C50497813A910548F48A2D0E94250A40
:1033C000552009F4B5C30E94FA0FECCD0E94FA0F04
:1033D0008FE39CE90197F1F700C000008A2D0E945D
:1033E0000E15EECF9D819F5F9D8361CFFC012081F3
:1033F00031810217130709F094C3511094C310923E
:10340000C90380E05CC4882309F4E1C3FA0181891F
:10341000882309F4DCC3C50188529C4F0E945310D5
:10342000D6C3033FFCE51F0739F188F4083D3CE5AE
:103430001307F1F0093D4CE5140751F1073D5CE538
:10344000150709F0C4C326E241EE61EE0DC0053F49
:103450008CE51807C9F0A0F027E245EE66EE063FBE
:10346000ACE51A0709F0B3C3C7010E94C2159ACD93
:1034700027E245EE65EEF8CF26E241EE60EEF4CFAE
:1034800027E245EE64EEF0CF26E241EE62EEECCFAD
:1034900028E241E0EFCF01363DE5130709F4ADC363
:1034A000053A4DE5140709F4A8C30631ACE51A073F
:1034B00009F00BC58091CE038A7A91E009F490E07F
:1034C000909376018111EFC089E20E94250A7BCF9B
:1034D0008091F601806207304CE5140709F494C02E
:1034E0008091F601806108301C4508F48DC0809100
:1034F000F601806489C00D308CE5180709F499C085
:1035000098F48091F6018E7F0B30ACE51A0709F430
:103510007BC08091F6018C600C301C4508F474C0AF
:103520008091F6018D7F70C08091F6018F7E0F3003
:10353000ECE51E0709F468C08091F601877F003131
:103540001C4508F461C08091F6018F7D5DC00D3F80
:103550002CE5120709F475C038F505314CE5140760
:1035600009F481C080F403318CE5180709F477C0B1
:1035700008F46FC00E9450119091F601892F97FBBB
:1035800087F9805841C00B3FACE51A0709F447C0E2
:1035900008F053C08091F70181600A3F1C4509F093
:1035A00055C38093F70152C30130FDE51F0709F4AD
:1035B00066C0B8F48091F7018C7F0F3F3CE513079C
:1035C00081F38091F701836001151D4550F38091CF
:1035D000F701982F909591708E7F892B90FB81F940
:1035E000E0CF01365DE5150709F44FC0053A8DE5DA
:1035F000180709F451C002301D4509F027C360E0E7
:103600003FC08091F60182608093F6011FC38091D4
:10361000F6018460F9CF8091F6018860F5CF809142
:10362000F7018260BECF0E9450118091F601806840
:10363000EBCF8091F6018B7FE7CF8091F7018E7FF2
:10364000B0CF8091F7018D7FACCF8091F6018F7B59
:10365000DBCF0E9450118091F6018F77D5CF8091FA
:10366000F601837FD1CF8091F60182FB992790F9F3
:1036700021E0922790FB82F990FB83F9C5CF61E0AE
:103680008EE090E00E949B30E1C29091F601892F7C
:103690008F7E94FF8061B8CF9091F601892F8E7F45
:1036A00090FF8160B1CF85E310CF85E3B2C30E9464
:1036B0005011BFEFE4E3FCE0B150E040F040E1F72F
:1036C00000C000000E94560B81E01FC480E01DC4B2
:1036D000828100811181882369F0C8010E94480D10
:1036E000D82E682FC8010E94750AB8018D2D0E943E
:1036F0002C0D13C4C8010E94480AD82EF6CF212FE2
:103700002F70D22E107F19F0D29490EFD922CC20B6
:10371000B9F0DD2069F080E2800F883010F00111EF
:1037200009C08091CE03D82AD092CE030E94FA0F0E
:10373000802F46C08091CF03D82AD092CF03F6CFF6
:10374000802F0E945114DD20E9F180E2800F883043
:1037500010F0011104C08D2D0E94040A03C08D2DAC
:103760000E94FD090E94FA0F2DC0312F3F70D32E09
:10377000107F103219F0D29480EFD822002381F00C
:10378000013009F48BC0CC2009F494C0BB2009F4AB
:1037900069C0F701858180FFCBCF8F70858362C0C0
:1037A0008091F70182FF39C0CC2089F1DD2039F00A
:1037B0008091CE03D82AD092CE030E94FA0F80E0E7
:1037C0000E940E15292D2850330B2430310510F49A
:1037D0000E943705AA20B1F08091DC0180FD12C063
:1037E000D70112961C928595859585950E942B117F
:1037F000C7010E945A178091DC01859585958595B2
:103800000E94E61060E0C7010E94AA0D7ACB80E01A
:103810000E945114DD20B1F29ECFCC2039F1B110BD
:1038200004C08091E7018D291EC041E0B41210C090
:1038300082FDC8CF8091E701D82AD81619F20E94DC
:10384000FF049093E6018093E501D092E701BACF9F
:1038500055E0B512E6CF0E94F2098091D901D81245
:10386000D092D9018D2D0E944714ACCFB11006C063
:103870000E94F2098D2D0E944014A4CF81E0B8125D
:1038800008C08091CE038D2109F49CCF0E94120ABA
:10389000EFCF95E0B91609F495CFEACFCC2029F007
:1038A000A5E0AB1508F48ECFDDCFB4E0BB1508F46E
:1038B00089CFE0CFBB20F1F2093349F4FFEF27EEC7
:1038C00033E0F15020403040E1F700C00000802F8D
:1038D0000E94511477CF812F86958695837061F071
:1038E000813009F06FCFC8019370C11002C090E021
:1038F00080E00E940B0566CFC8019370C11002C022
:1039000090E080E00E9421055DCF802FCC2029F03F
:103910000E94A6070E94BA0655CF0E94E106FACF80
:10392000812F837089F5C1104DCF402F4295469568
:103930004770440F440F802F8F70042E01C0880FF2
:103940000A94EAF7202F207104FF07C02FE030E02F
:1039500001C0220F4A95EAF7209516951695137027
:10396000123069F050F43091E801113029F0822BC7
:1039700083230E944C1126CF832B822BFACF282B36
:103980008091E8018227F5CF8695CC2011F0812F18
:103990008170882309F416CF402F429546954770D1
:1039A000440F440F802F8F70042E01C0880F0A949B
:1039B000EAF7202F207104FF07C02FE030E001C09C
:1039C000220F4A95EAF72095169516951370123036
:1039D00069F050F43091A704113029F0822B832331
:1039E0000E94D710EFCE832B822BFACF282B809109
:1039F000A7048227F5CF1F70CC2029F0812F0E94C9
:103A00002B11802F30CF802F0E944014812F0E94D5
:103A1000E610D8CE023F81F160F4003FB9F0013FDB
:103A200081F0CC2009F46DC0B11082CE812F8F714E
:103A300027C0033F41F1043FA1F78091F70182FFC6
:103A40002DC0812F8F71CC2011F31AC0CC2079F0BA
:103A500044E04B1508F4B6CE1F7181E090E001C040
:103A6000880F1A95EAF79091A7048927B9CF55E0F6
:103A70005B1508F4A7CEF0CF812F8F71C110C7CF8F
:103A80000E942B119FCE80E0CC2009F4A9CF1F719A
:103A900081E001C0880F1A95EAF7A2CF8091D90181
:103AA000CC20D9F00E94040A8091DC018770843018
:103AB00041F40E940B0A812F8F710E94E610A12C05
:103AC00081CE84E08B15D8F31F71812F0E942B11BA
:103AD00063E0812F0E943611F2CF9091CE03982B94
:103AE0009093CE0394E09B1540F40E940B0A0E9431
:103AF000120A64E0812F8F71EDCF81E00E94F210F5
:103B0000DECFBB2059F0093309F0E1CEAFEFB7EEBD
:103B1000E3E0A150B040E040E1F7D7CE812F8F71B4
:103B200076CF552029F0DC0118968C9185FF69CC61
:103B3000C80197558F3F910511F008F072CC209184
:103B40000D0130910E012817390724F490930E01CE
:103B500080930D01F701228136E1389F5001399F92
:103B6000B00C1124A5014E525C4F6A01DA01509647
:103B70002C935097928116968C911697992309F45D
:103B800042CC1A961C930E9319978F5F16968C93BE
:103B90000E94FF04F601968785878091E70187835D
:103BA0008091CF039091CE03892B80870190F08183
:103BB000E02D309741F0D60154966D917C91C5016E
:103BC00088529C4F09951093D1030093D003F701BD
:103BD0008281882309F414C11092AA040330FDE500
:103BE0001F0708F058CC0A3F2CE5120730F4C80133
:103BF00082509C45449708F058CC0E94030E909345
:103C0000F7018093F60101315CE5150709F41DCD3C
:103C100008F09DCC09309CE5190709F404CD08F0A3
:103C20006ACC0530BCE51B0709F4F5CC08F050CC94
:103C30000330FCE51F0709F4E4CC08F0E8CC8091E0
:103C4000F601816002301C4509F4DECC6091F6017A
:103C50001091F70184E090E00E949B30612F82E296
:103C600090E00E949B300E9450119CC98091740189
:103C7000909175010817190781F41092750110923F
:103C800074011092C3031092C4031092C5031092E2
:103C9000C6031092CB031092CA038091CC0390917B
:103CA000CD03009709F444CFA8E08A16910408F0E8
:103CB0009DCB642D0E94940581113ACF81E00E9432
:103CC000A71436CF0031FFE51F0709F419CA0131E7
:103CD0002FE5120709F064C082E013CA61E0C70152
:103CE0000E94AA0D8C01D70112968C918823B1F005
:103CF00080910D0190910E01019681F072EDC72E19
:103D000073E0D72EB12CA12C9924939480910D01AE
:103D100090910E018A159B050CF00CC9F701828168
:103D200081112FC900313FE5130709F4EFC90131B3
:103D30004FE5140709F4EEC96801E7E5DE1AFFEF65
:103D4000CF16D10409F060F568E272E08C2D0E9474
:103D5000930C892B29F586E18C9DF0018D9DF00D4A
:103D60001124EE52FC4F8681813009F0D5C9809133
:103D7000280290912902892B99F080912A02909132
:103D80002B02892B69F080912C0290912D022091B9
:103D90002E0230912F02822B932B892B09F4C6C956
:103DA000F7015280552009F447CA0D3BFCE51F0777
:103DB00009F4F3C908F0C8C90B3B3CE5130709F443
:103DC000E4C980E00C3B4CE5140709F4DFC90F356A
:103DD000ADE51A0709F42CCA0036BDE51B0751F002
:103DE0000E35EDE51E0709F027CA809100018823F2
:103DF00009F41ECA1092000180E00E94A714D2C8E4
:103E000006311C4509F083C08091760181114DCCAB
:103E100089E20E94180AD7CAA114B10409F09FCA06
:103E2000512CB12CA12C80E00E94A714D092CD037C
:103E3000C092CC0381E08093C903F6018581809311
:103E4000C70351100EC0AB2861F0F601808191814B
:103E50009C0124503109213A310508F0A7CA0E947B
:103E6000180AD6011696AD90BC90C5019A95811599
:103E70009F4110F4E0EEBE2277247394C5010197B0
:103E8000853A9D4508F0712CD6011996ED91FC916B
:103E90001A97309731F01B966D917C9181E00995CE
:103EA0007822772079F0F601868197810E94A50A11
:103EB0008093C803C501F8E08F16910408F079CA11
:103EC0000E9443050E94FA0F7BCA0A35EDE51E07E2
:103ED00009F4FACB58F401152CE5120709F4E7CBE5
:103EE0000E3D1C45A1F40E94F0165CC80B354DE553
:103EF000140709F4EBCB0C351D4549F48091F7010B
:103F000082FB882780F991E089270E940E11F70132
:103F100086819781009709F4DBCB0E946A088C01A7
:103F2000F701C280B580B2943FE0B3228091DC01FA
:103F30008770C1F0AC2CCC20B1F0812F807F803411
:103F400021F080E2800F883068F08091F70182FDD7
:103F500009C082E00E94F2108091DC018770AA24DF
:103F6000A3948111A12C912E92942FE09222FBE038
:103F7000F91508F427CCE92DF0E0ED51FF4C0C9435
:103F80003930CF93DF9380919401807FA1F48091A9
:103F90009101882381F08091D801D091970160919F
:103FA0008F0170919001A0919201B0919301C62F61
:103FB000C723D81303C0DF91CF91089590E01097E5
:103FC00011F0CF3F19F401968770F3CF9C0143E0C5
:103FD000220F331F4A95E1F7F901E856FE4F418160
:103FE0004713F1CF40814613EECF42814111EBCF11
:103FF000438154814A1B5B0B483C510520F780915B
:1040000094018F70806180939401F901E356FE4F13
:1040100080818F70806180838FE891E00E945A17C1
:10402000DF91CF910C943E0AAF92BF92CF92DF9274
:10403000EF92FF920F931F93CF93DF93CDB7DEB72D
:1040400065970FB6F894DEBF0FBECDBF8C0185E03B
:10405000F801DE01519601900D928A95E1F7F80181
:10406000E2806FE8A62E61E0B62E60919201709119
:1040700093016115710509F468C190918F01409118
:104080009001892F84238F3F09F45FC12081318102
:10409000C380D480F0909101F601E61BF70BFF205E
:1040A00009F41DC180919401582F507FE83CF1051F
:1040B00008F0D0C0511181C0FE2C43132BC09213C5
:1040C00029C06091950170919601F8014681578150
:1040D00064177507F9F4E1101DC08F70806180933B
:1040E0009401C5010E945A1780919401F8018583BB
:1040F0008F2D65960FB6F894DEBF0FBECDBFDF9152
:10410000CF911F910F91FF90EF90DF90CF90BF90D4
:10411000AF900895CD2829F0822F83238F3F09F097
:104120002FC180E0F82FF170DF2E80FF3CC080911E
:10413000D80140919701841315C0298B3A8B898946
:104140009A890E94770D292F22952F702230F8F03E
:10415000243020F59F70F9F0F8019581907FD9F413
:10416000D12C1FC090E0FC0153E0EE0FFF1F5A95C9
:10417000E1F7E856FE4F5181351306C050812513F3
:1041800003C05281E5120FC001968770D4CF9F7093
:1041900011F0882329F3805E883010F3C8010E9453
:1041A0005A17FD2CA5CFEE2009F4A2CF80919401DF
:1041B000816080939401F12C9BCF43131BC0921319
:1041C00019C04091950150919601F80126813781DF
:1041D0004217530779F4E1100DC08583C8010E948E
:1041E0005A1788E0F801AFE8B1E001900D928A9586
:1041F000E1F77ECFC8010E94830D882339F1EE20BC
:1042000029F1809194018032A0F020918F013091AA
:1042100090013A8729871B86DD86CC868E87809120
:10422000950190919601988B8F87CE0109960E94F7
:104230005A1788E0F801AFE8B1E001900D928A9535
:10424000E1F70E94C11FFF24F39452CFC8010E94DE
:104250005A17F9CF51110AC08FE891E00E945A17FE
:1042600088E0F50111928A95E9F7A5CF431318C0AC
:10427000921316C04091950150919601F801268144
:1042800037814217530761F4E1100AC08583C801E2
:104290000E945A1788E0F50111928A95E9F728CF14
:1042A000C8010E94830D882389F2EE2079F2809163
:1042B0009401803208F4BDCF20918F01309190019C
:1042C0003A8329831B82DD82CC828E838091950183
:1042D0009091960198878F83CE010196A8CFE83CF4
:1042E000F105C0F6FE2CEE2009F4B0CF43131FC039
:1042F00092131DC02091950130919601F80186819D
:1043000097812817390799F49091940190FD69CF0E
:10431000907F09F466CF809194018583903F09F4E2
:104320005DCF982F907F905F8F70892B56CFC801FB
:104330000E94830D81117DCF8091940181608093D3
:104340009401C8010E945A17D3CEEE2009F47ECF03
:10435000C8010E94830DF82E882309F477CF88E0E6
:10436000F801AFE8B1E001900D928A95E1F78091F4
:104370008F01909190010E94770D0E94C11FB8CECD
:1043800081E08E25CFCECF93DF93CDB7DEB7609798
:104390000FB6F894DEBF0FBECDBF29873A874B8793
:1043A0005C876D877E878F87988BCE0109960E94E8
:1043B0001420811112C088E0FE013996DE011196A9
:1043C00001900D928A95E1F78C859D85892B29F0C6
:1043D00089859A8589238F3FA9F58091D80190918D
:1043E000970189131CC060960FB6F894DEBF0FBE0C
:1043F000CDBFDF91CF91089593E0AA0FBB1F9A958F
:10440000E1F7A856BE4F98E0FE01319601900D925B
:104410009A95E1F7809397010E943E0ADECFB8E0BB
:104420008B9FC001112488569E4F0E941420882320
:10443000D1F28091D80190E00196877099278093FE
:10444000D801CBCFA0919701B0E0CD010196877044
:1044500099272091D8012817190671F60E9450114A
:10446000109297011092D80188E0EFE8F1E0DF01A7
:104470001D928A95E9F7B1CF0F931F93CF93DF93E6
:1044800080911603E0911503CCE081111AC0DF91F1
:10449000CF911F910F910895D1E0DE0FD0931503B6
:1044A0000E2F10E0EC9FF0011124E95EFC4F838198
:1044B0009481892B29F08081918189238F3F51F448
:1044C000ED2F80911603E81738F31092160310921F
:1044D0001503DDCFC09FD001C19FB00D1124A95E8F
:1044E000BC4F16968D919C911797892B29F418969D
:1044F0008D919C91019651F42081318142815381AB
:1045000064817581868197810E94C321C09FF001DB
:10451000C19FF00D1124E95EFC4F148213821092AA
:10452000CF03CECF1092BA031092B90310920F01AD
:104530008091B8038093B7030E94E2050C943C225B
:104540003F924F925F926F927F928F929F92AF9223
:10455000BF92CF92DF92EF92FF920F931F93CF9370
:10456000DF93C091B70397E0892E01E010E02CE0C3
:10457000322E3EEF932E442443948091B8038C1343
:1045800015C00E943C22DF91CF911F910F91FF90A7
:10459000EF90DF90CF90BF90AF909F908F907F90E3
:1045A0006F905F904F903F900C94E205D0E0FE0139
:1045B000EE0FFF1FE155FC4F80819181889ED00155
:1045C000899EB00D1124A958BC4F14962C911497B4
:1045D000211157C050901603E7E1F3E030E020E0EE
:1045E000712C5D01251508F04AC0E284F384D501E1
:1045F000CD90DC906FEF7FEF612C462D50E0DA011B
:10460000AA0FBB1FAC0DBD1D0D90BC91A02D109726
:1046100031F0EA16FB0609F4BA016394EECF6F3F5E
:104620007607A1F1D80102C0AA0FBB1F6A95E2F775
:104630007A2AB80102C0660F771F6A94E2F7AB01CD
:104640004150510974161506F9F4329EF001339E5B
:10465000F00D1124E95EFC4F889ED001899EB00DBB
:104660001124A958BC4F12962D913C911397378372
:104670002683908291829187808715964C920E9422
:10468000B4052196C37079CF148213822F5F3F4FF8
:104690003C96A8CF2F923F924F925F926F927F925B
:1046A0008F929F92AF92BF92CF92DF92EF92FF9242
:1046B0000F931F93CF93DF93CDB7DEB769970FB6F4
:1046C000F894DEBF0FBECDBF498B5A8B6B8B7C8BB2
:1046D0008D8B61111092CF031D861E861F86188A4E
:1046E00085E0FE017196DE01199601900D928A9582
:1046F000E1F78091F70182FD1CC00E94FF04209128
:10470000DA013091DB01821B930B8838934120F052
:104710008091DC0182FFFEC10E94FF042091E5012F
:104720003091E601821B930B8838934110F00E9470
:10473000F2098C859D85892B31F089859A8589239D
:104740008F3F09F0D3C129853A854B855C856D85FE
:104750007E858F8598890E94C321C2C048EFC41608
:104760004CE5D40629F4882379F00E949222EBCFFD
:1047700069EFC6166CE5D60639F4882329F08091D6
:104780000F018111F2CFC2C107E713E0E12CB12C78
:10479000A12C88248394912C2EEF522E44244394F0
:1047A000F8014081518166246A94762C20E0822FA2
:1047B00090E0FC01EE0FFF1FE40FF51F6081718197
:1047C0006115710531F0C616D70609F43C012F5F5B
:1047D000EECFF12CFFEF6F167F0609F443C0F8010E
:1047E0004481F0900F018F2D411180E0F82FF1707E
:1047F000FF2EF801258086819B85992309F406C147
:10480000FF2009F403C1211013C0A40101C0440F0B
:104810006A94EAF7842B86838091130390911403A2
:10482000C29730F462E370E0709314036093130353
:10483000C40102C0880F991F2A95E2F70197F80179
:1048400026812817190671F48091B9039091BA0353
:10485000009709F45EC00E94E404C39708F459C0AD
:10486000F8014482EF28FFEFAF1ABF0A095F1F4F1C
:1048700028E0A216B10409F093CF8B85882309F4B0
:1048800020C1EE2009F41DC10E94FF049093BA03D9
:104890008093B90380911603883010F591E0980F4A
:1048A0009093160398E0FE013996DE01119601906F
:1048B0000D929A95E1F73CE0839FC0011124895E37
:1048C0009C4F28E0FE013196DC0101900D922A9563
:1048D000E1F72FEF3FEFFC0131872087D386C286B7
:1048E00069960FB6F894DEBF0FBECDBFDF91CF91B2
:1048F0001F910F91FF90EF90DF90CF90BF90AF90FE
:104900009F908F907F906F905F904F903F902F90EF
:1049100008958091B7035091B803982FF0E0E0E03C
:10492000851314C09093B7030E171F0709F49ACF8D
:1049300090E0FC01EE0FFF1FE155FC4FB182A08219
:104940000196837099278093B8038CCF282E312C41
:10495000F101EE0FFF1FE155FC4F20813181F7E09F
:10496000F29FD001F39FB00D1124A958BC4F2D9197
:104970003C911197398F288F40E020E030E0E32F01
:10498000F0E0EE0FFF1F688D798DE60FF71F608056
:10499000718061147104E1F0F8010190F081E02D63
:1049A000FF8BEE8B20E005C06616770609F44F2DCD
:1049B0002F5FE22FF0E0EE0FFF1F6E897F89E60F79
:1049C000F71F608171816115710571F73F5FD7CF66
:1049D0004423C9F0F801231708F0FD0144820E17A3
:1049E0001F0721F49093B703F42E3CCF981305C012
:1049F000AE17BF0711F49F5F937091012F5F3F4F78
:104A0000822F83708DCFF0E0E0E0F7CF90E02110AF
:104A10001FC0B40102C0660F771F2A95E2F79B0101
:104A2000215031098217930731F4442309F447C018
:104A3000C5010E94B405C40101C0880F6A94EAF759
:104A4000982F9095F801868189238683F22C0ACFCE
:104A50009C01062C02C0359527950A94E2F7A9011E
:104A600041705527BC016150710986239723892B1A
:104A700011F5452B01F1F80182819381892BC1F059
:104A80001B821C821D821E8259825A820E94FF0450
:104A90008160582F9D838C83F801828193818F835D
:104AA000988729813A814B816D817E810E94C32143
:104AB000F8011582C0CFF22FF1702F2EBCCF2F2C12
:104AC000BACF9091B7038091B803981731F00E9444
:104AD000A022EE2009F437CE03CF0E943C22109290
:104AE000BA031092B9030E94E205F3CF61E0CE0150
:104AF00009960E94AA0D6C018B85F7EFCF16FCE595
:104B0000DF0609F02BCE882309F43ECE81E08093A6
:104B10000F0119CE82E00E94F210FECD0F931F9379
:104B2000CF93DF9300D000D00F92CDB7DEB78C01CA
:104B30009093100380930F03011580E2180720F56E
:104B4000802F0E945114C8010E94A50A9801205E7E
:104B500031092830310510F0012B59F40F900F90D6
:104B60000F900F900F90DF91CF911F910F910C94A8
:104B700040140F900F900F900F900F90DF91CF91F6
:104B80001F910F910C942F148EEF89838A831B82BF
:104B90000E94FF048160782F9D838C8349815A8114
:104BA0006B818D810F900F900F900F900F90DF9180
:104BB000CF911F910F910C944A230F931F93CF9382
:104BC000DF938C01EB0168E272E08C2F0E94930C62
:104BD000892B71F4DD27C05EDD4F8881F8011082DA
:104BE0001882833009F148F4813059F0823081F025
:104BF000DF91CF911F910F9108958430D1F08530CE
:104C0000B9F78091280290912902009789F306C094
:104C100080912A0290912B02009799F3DF91CF9116
:104C20001F910F910C948E2580912C0290912D0252
:104C3000F3CF80912E0290912F02009779F7209167
:104C400028023091290280912A0290912B0221158D
:104C50003105D9F2009711F7C901E0CFCF93DF9367
:104C600000D000D00F92CDB7DEB7909310038093A1
:104C70000F03811520E2920748F40F900F900F90D8
:104C80000F900F90DF91CF910C94CE168EEF898309
:104C90008A8381E08B830E94FF048160782F9D834B
:104CA0008C8349815A816B818D810F900F900F9079
:104CB0000F900F90DF91CF910C944A23CF93DF9305
:104CC000EC010E942E26CE01DF91CF910C948E250F
:104CD0000F931F93CF93DF938C01862F68E272E0CE
:104CE0000E94930C892BC9F4C0912802D09129020B
:104CF000209799F0F8018081833069F4CE010E94F9
:104D00005E26CE010E945E26CE01DF91CF911F91DB
:104D10000F910C945E268430B8F7DF91CF911F91EC
:104D20000F9108950F931F93CF93DF938C01EB01A5
:104D300068E272E08C2F0E94930C892B09F064C00A
:104D4000FE01FF27D8018C91E05EFD4F8130D9F440
:104D500019969C911997992311F080830CC01A968B
:104D60009C919923D1F382E0808380912A029091D3
:104D70002B020097D9F48091280290912902009784
:104D800009F442C013C08230E9F519968C91199745
:104D900081112DC01A968C9181110EC083E0808301
:104DA00080912C0290912D02009719F1DF91CF9103
:104DB0001F910F910C942E2684E0808380912E0207
:104DC00090912F02009791F78091280290912902EB
:104DD0000097F9F00E945E2680912A0290912B02A2
:104DE000009721F78091280290912902DFCF85E07A
:104DF00080838091280290912902009729F00E94D7
:104E00005E26F0CF86E08083DF91CF911F910F91D6
:104E1000089580912A0290912B02B1CF0E94E5164D
:104E200081110AC00E94F01680911F02847089616E
:104E300080931F020E94D70B86E090E00E948D3085
:104E400080931F02803220F08770886180931F0258
:104E500090911F02892F817090FF04C0892F869541
:104E6000869586950C9400061F920F920FB60F92AE
:104E700011242F933F934F935F936F937F938F935F
:104E80009F93AF93BF93CF93DF93EF93FF93D09113
:104E9000E900DF708091EC00C82FC17080FDC0E890
:104EA0001092E9008091F000877F8093F000789461
:104EB0000E945B111092E9008091F000886080935D
:104EC000F000CD2BCF70C093E900FF91EF91DF91FF
:104ED000CF91BF91AF919F918F917F916F915F9192
:104EE0004F913F912F910F900FBE0F901F901895EB
:104EF0001F920F920FB60F9211242F933F934F934F
:104F00005F936F937F938F939F93AF93BF93EF9331
:104F1000FF938091E10082FF09C08091E20082FF4F
:104F200005C08091E1008B7F8093E1008091DA00E1
:104F300080FF24C08091D80080FF20C08091DA00DB
:104F40008E7F8093DA008091D90080FF9DC080E140
:104F500089BD82E189BD09B400FEFDCF81E0809367
:104F6000A60480919004811109C00E942E030E9422
:104F700021048091E20084608093E2008091E1004E
:104F800080FF17C08091E20080FF13C08091E20093
:104F90008E7F8093E2008091E20080618093E20046
:104FA0008091D80080628093D80019BC85E08093FE
:104FB000A6048091E10084FF2BC08091E20084FF71
:104FC00027C080E189BD82E189BD89B5982F9170A4
:104FD00080FFFBCF8091D8008F7D8093D800809197
:104FE000E1008F7E8093E1008091E2008F7E8093CC
:104FF000E2008091E20081608093E20080919D0454
:10500000882309F447C084E08093A6048091A60415
:105010008091E10083FF27C08091E20083FF23C0DD
:105020008091E100877F8093E10082E08093A60475
:1050300010929D048091E1008E7F8093E100809129
:10504000E2008E7F8093E2008091E2008061809395
:10505000E20042E060E080E00E94EF038091F00017
:1050600088608093F000FF91EF91BF91AF919F9185
:105070008F917F916F915F914F913F912F910F9001
:105080000FBE0F901F90189519BC1092A604109295
:10509000900474CF8091E30087FD93E09093A60481
:1050A000B5CF78941F921FB61F9211248F939F93B0
:1050B000AF93BF938091890490918A04A0918B044F
:1050C000B0918C040196A11DB11D80938904909329
:1050D0008A04A0938B04B0938C04BF91AF919F91ED
:1050E0008F911F901FBE1F9018951F921FB61F9281
:1050F00011248F939F93AF93BF9380918804811164
:1051000013C08091890490918A04A0918B04B0917E
:105110008C044196A11DB11D8093890490938A044B
:10512000A0938B04B0938C04BF91AF919F918F910A
:105130001F901FBE1F901895CDB7DEB7E6970FB62C
:10514000F894DEBF0FBECDBF84B7877F84BF0FB694
:10515000F894A89580916000886180936000109217
:1051600060000FBE80E890E00FB6F8948093610075
:10517000909361000FBE85B7806885BF85B7806852
:1051800085BF8EE098E090936B0180936A010E9446
:10519000A70C0E94BA0E0E94110E0E942E030E94BC
:1051A00021048091E20084608093E20078948091F1
:1051B000A6048823A1F01091E9001F709091EC00E3
:1051C000892F817090FD80E8182B1092E900809162
:1051D000E80083FD0E945B111F701093E90082E0DC
:1051E00084BD93E095BD9AEF97BD80936E000E94B9
:1051F000EA0D811102C00E94840C0AE411E0D8017A
:105200008D918D018F3F11F00E941008B1E00F3495
:105210001B07A9F70FE411E07BE5E72E71E0F72EFD
:10522000F80181918F018F3F11F00E941008E01664
:10523000F106B1F78AE0E8E0F2E0DF01282F1D92E5
:105240002A95E9F7ECEEF1E0DF011D928A95E9F786
:105250006E9A769A0E94E516811102C00E94F0169D
:1052600082E090E00E948D308093F8010E94030E4E
:105270009093F7018093F6010E94130FEFE3FCE98E
:105280003197F1F700C000000E94130F80910802CF
:1052900080FF08C06FEF7FEF90E080E00E94B930A0
:1052A0000E94560B83E090E00E948D300E944C11CA
:1052B000279A2F988AE08093800089E1809381006B
:1052C0008FEF9FEF90938700809386000E940E27B8
:1052D0000E940E2781E091E09093850480938404DE
:1052E0008E010F5F1F4F9E012D5F3F4F3EAB2DABD9
:1052F0008091A60450E1E52E62E1F62E853009F496
:10530000DCC10E94130F81110E94F304A8E0B2E0F7
:10531000E9EFF1E0F12CE12C7E2D8D919D91219111
:1053200031912817390709F4DAC160E0CC24C3941D
:10533000D12C28273927A9014C215D21452B09F4BF
:10534000C8C16BA77CA79C012C213D2191E0232B98
:1053500009F490E09DA70E94FF048160782F9FA729
:105360008EA74BA55CA56DA58FA50E944A23F701CA
:10537000EE0FFF1FE750FE4F80819181C826D9268E
:10538000D182C0828091CA039091CB03892B09F40A
:105390003EC04091BF035091C0036091C103709122
:1053A000C2032FB7F8948091890490918A04A09148
:1053B0008B04B0918C042FBF841B950BA60BB70BED
:1053C0004091BB035091BC036091BD037091BE033B
:1053D00084179507A607B707D0F08091CA0390916C
:1053E000CB030E94CE161092CB031092CA031092E8
:1053F000BF031092C0031092C1031092C203109217
:10540000BB031092BC031092BD031092BE038091A7
:105410000D0190910E01F12C66E1E62E019609F046
:10542000A5C180910F018111ABC186E0E9E1F2E0F5
:10543000D80101900D928A95E1F7D0901B02C0909F
:105440001C02F0901D02E0901E0210921B021092AE
:105450001C0210921D0210921E028D2D8C2909F43F
:1054600048C080911702909118020E94E4049C01A8
:1054700090911302992309F49DC525313105C8F196
:105480009F3F19F09F5F90931302DD2059F00E9417
:1054900086079FEF1D140CF491E0899F802D112445
:1054A00080931B02CC2059F00E9486079FEF1C14AA
:1054B0000CF491E0899F802D112480931C0230917F
:1054C0001B023323B1F020911C02222391F045EB03
:1054D0003403C0011124992309F47DC190931B0268
:1054E00045EB240390011124332309F478C1309350
:1054F0001C028F2D8E2909F448C0809115029091CD
:1055000016020E94E4049C0190911202992309F46E
:105510004CC521353105C8F19F3F19F09F5F90932D
:105520001202FF2059F00E9464079FEF1F140CF431
:1055300091E0899F802D112480931D02EE2059F067
:105540000E9464079FEF1E140CF491E0899F802D48
:10555000112480931E0230911D023323B1F020915B
:105560001E02222391F045EB3403C001112499233C
:1055700009F439C190931D0245EB240390011124D5
:10558000332309F434C130931E0280911B029091A1
:105590001C02892B90911D02892B90911E02892B50
:1055A00011F00E94BA0686E0F801A9E1B2E001908C
:1055B0000D928A95E1F70E943705909103028913B5
:1055C000809303028091A604843009F091CE83E099
:1055D0008093E9008091E80082FF8ACE8091E80004
:1055E00090E085FF0AC00E944D0350E2C52ED12CE9
:1055F0007801882309F409C191E08091E8008B7754
:105600008093E800992309F473CEE0901103F090A1
:1056100012038981E114F10409F405C18E3F09F0F8
:105620008FC18A81833020F08550833008F088C193
:10563000EA81EE3008F084C1F0E0E151FF4C0C94B7
:1056400039308091A604843039F180E00E94000650
:105650001092880488E190E0A0E40FB6F894A89531
:10566000809360000FBEA093600083B7817F846049
:1056700083BF83B7816083BF7894889583B78E7F1B
:1056800083BF0FB6F894A8958091600088618093DD
:105690006000109260000FBE80919C04882369F026
:1056A0000E94130FE8E0F2E081919191892B09F0BB
:1056B0005EC4B2E0E231FB07B9F78091A604853001
:1056C00009F4BFCF0E9450110E940E270E94370597
:1056D00018CE6F5FCC0CDD1C6C3009F02CCE2FEF98
:1056E000E21AF20A35E0E316F10409F015CE8FEF65
:1056F00088AB89AB1AAA0E94FF048160782F9CAB0B
:105700008BAB48A959A96AA98CA90E944A233ACE11
:10571000E89EF001E99EF00D1124EE52FC4FC28884
:10572000D388C114D10419F478ECC72ED12CE89E8B
:10573000F001E99EF00D1124EE52FC4F8681882382
:10574000A1F0858596850E94E404C816D90668F400
:10575000FE9C60011124C6018E529C4F0E9498103D
:10576000C60188529C4F0E945310F3948F2D90E0F5
:1057700020910D0130910E01281739074CF651CEBA
:105780008091B9039091BA03009709F44ECE0E941C
:10579000E40420911303309114032817390708F00B
:1057A00044CE9091B7038091B803981759F00E94A6
:1057B000A02210921403109213031092BA031092B5
:1057C000B90333CE0E943C221092BA031092B9035F
:1057D0000E94E2052ACE81E080931B0281CE81E007
:1057E00080931C0286CE81E080931D02C5CE81E0AD
:1057F00080931E02CACE8091F100D7018D937D0166
:10580000B1E0CB1AD10809F4F7CE8091E80085FD0C
:10581000F2CF8091E8008B778093E8000E944D03DF
:10582000882399F3E9CE8B3009F4E4C168F585301B
:1058300009F4CDC0D0F4823009F471C030F4813065
:1058400009F469C08FEF89837BC0833009F4B0C04D
:105850008430C1F74C816B818A810E94FD0C9827AE
:10586000892798279E838D836BC0873009F4BDC03C
:1058700008F4B8C0883009F4C9C0893019F780919C
:105880001F020E94D70B5CC0803109F406C1B8F535
:105890008D3009F4D5C008F4D0C08E3009F4D3C0DF
:1058A0008F3081F680910D0390910E03892B09F4BE
:1058B00047C0EC80F12C3DE1E316F10408F040C054
:1058C000CA80DB80DC24CD24DC245801E00EF11EEC
:1058D000C60189509D4FEA14FB0491F149E0C416BA
:1058E00041E0D40628F4D50114966C910E949B30B7
:1058F000BFEFAB1ABB0AEFEFCE1ADE0AE9CF823157
:1059000009F4D0C008F4CCC0833109F4F4C08E3F50
:1059100009F098CF8DCE1A8289E08B8311C08A81DD
:10592000823009F43AC3833079F0813009F08ACFAC
:105930000E94F3040E943F306B837C838D839E839F
:10594000C8010E94A803D4CC80910D0390910E034E
:10595000892BB1F380910802909109029827892739
:1059600098279C838B8380910A0290910B02982741
:10597000892798279E838D8380910C0290910D0238
:1059800098278927982798878F8380910E02909176
:105990000F029827892798279A8789878091100274
:1059A000909111029827892798279C878B87C8CFC9
:1059B0008A81823009F046CF6B817C818D819E8106
:1059C0000E943F3086E290E00E949B30B9CF2D814B
:1059D0003E813227232732274C816B818A810E94A6
:1059E0008A0BAECF0E94DC0BABCF8A81893009F0E5
:1059F000A7CF8B81E3E08E9FC00111246FEF70E091
:105A00000E94EF2F862F0E94A4069ACF8A818930A8
:105A100029F08A3009F094CF1B8292CF80911F0227
:105A2000869586958695FFEF8F9FC001112463E0D0
:105A300070E00E94EF2F6B8383CF80E18A8380CF59
:105A400081E08A8369CFEC80F12C2DE1E216F1042C
:105A500008F076CFCA80DB80DC24CD24DC2458011A
:105A6000E00EF11EC60189509D4FEA14FB0409F4B3
:105A700067CF39E0C31631E0D30660F40E948D3061
:105A8000D50114968C93FFEFCF1ADF0A2FEFA21ADD
:105A9000B20AE8CFF5011482F6CF0E947A0B50CFFC
:105AA00084E0CCCFEC80F12CFDE1EF16F10408F09E
:105AB00047CFCA80DB80DC24CD24DC245801E00EF3
:105AC000F11EC6018796AE14BF0409F439CF20EE4B
:105AD000C21621E0D20660F40E948D30D5011496E2
